{
    "contractName": "TestUsingReferencePatient",
    "abi": [
        {
            "anonymous": false,
            "inputs": [
                {
                    "indexed": false,
                    "internalType": "bytes16",
                    "name": "u",
                    "type": "bytes16"
                }
            ],
            "name": "username",
            "type": "event"
        },
        {
            "inputs": [],
            "name": "Test",
            "outputs": [],
            "stateMutability": "nonpayable",
            "type": "function"
        }
    ],
    "bytecode": "608060405234801561001057600080fd5b50610252806100206000396000f3fe608060405234801561001057600080fd5b506004361061002b5760003560e01c8063a163a62414610030575b600080fd5b61003861003a565b005b6040805163095a3ebf60e01b81526464656d6f3160d81b600482018190526864656d6f317061737360b81b602483018190526864656d6f316e616d6560b81b604484018190526964656d6f317375726e6d60b01b60648501819052604d60f81b6084860181905267031393933313931360c41b60a487018190526a313233343132333531323360a81b60c488018190526e6e61736b646a616b6661736c646b6d60881b60e489018190527f41646472657361736461736461666164617364616466617364000000000000006101048a0181905299519799969895979496939592949193909290913391829163095a3ebf916101248082019260009290919082900301818387803b15801561014d57600080fd5b505af1158015610161573d6000803e3d6000fd5b505050507fc81e18fb574971c53d8b49aa08efe23438e7994fbb2af6a7c4af30d966bd7e9e816001600160a01b031663f2da01e26040518163ffffffff1660e01b815260040160206040518083038186803b1580156101bf57600080fd5b505afa1580156101d3573d6000803e3d6000fd5b505050506040513d60208110156101e957600080fd5b5051604080516fffffffffffffffffffffffffffffffff199092168252519081900360200190a15050505050505050505056fea2646970667358221220a540691b9bd0624c299a9e1e512ecd9ae9784126fda074e8497e0429fc298e4b64736f6c63430006040033",
    "sourcePath": "/home/eke/patient-eth/test/TestUsingReferencePatient.sol",
    "compiler": {
        "name": "solc",
        "version": "0.6.4+commit.1dca32f3"
    },
    "functionHashes": {
        "Test()": "a163a624"
    },
    "gasEstimates": {
        "creation": {
            "codeDepositCost": "118800",
            "executionCost": "165",
            "totalCost": "118965"
        },
        "external": {
            "Test()": "infinite"
        }
    }
}