{
    "contractName": "ReferencingPatient",
    "abi": [
        {
            "inputs": [
                {
                    "internalType": "address",
                    "name": "_newPatient",
                    "type": "address"
                }
            ],
            "name": "changeOwner",
            "outputs": [],
            "stateMutability": "nonpayable",
            "type": "function"
        },
        {
            "inputs": [
                {
                    "internalType": "address",
                    "name": "newRef",
                    "type": "address"
                }
            ],
            "name": "changeRef",
            "outputs": [],
            "stateMutability": "nonpayable",
            "type": "function"
        },
        {
            "inputs": [],
            "name": "getRef",
            "outputs": [
                {
                    "internalType": "address",
                    "name": "",
                    "type": "address"
                }
            ],
            "stateMutability": "view",
            "type": "function"
        },
        {
            "inputs": [],
            "name": "patient",
            "outputs": [
                {
                    "internalType": "address",
                    "name": "",
                    "type": "address"
                }
            ],
            "stateMutability": "view",
            "type": "function"
        }
    ],
    "bytecode": "6080604052600080546001600160a01b0319163317905534801561002257600080fd5b5061025b806100326000396000f3fe608060405234801561001057600080fd5b506004361061004c5760003560e01c80631d6d32ba14610051578063a6f9dae114610075578063bd96bd201461009d578063d3fa99e9146100a5575b600080fd5b6100596100cb565b604080516001600160a01b039092168252519081900360200190f35b61009b6004803603602081101561008b57600080fd5b50356001600160a01b03166100da565b005b6100596101a0565b61009b600480360360208110156100bb57600080fd5b50356001600160a01b03166101af565b6001546001600160a01b031690565b6000546001600160a01b0316331461012e576040805162461bcd60e51b8152602060048201526012602482015271446f65736e277420612070617469656e742160701b604482015290519081900360640190fd5b6001600160a01b03811661017e576040805162461bcd60e51b81526020600482015260126024820152714e6577206f776e6572206973206e756c6c2160701b604482015290519081900360640190fd5b600080546001600160a01b0319166001600160a01b0392909216919091179055565b6000546001600160a01b031681565b6000546001600160a01b03163314610203576040805162461bcd60e51b8152602060048201526012602482015271446f65736e277420612070617469656e742160701b604482015290519081900360640190fd5b600180546001600160a01b0319166001600160a01b039290921691909117905556fea2646970667358221220f292882ba28516a8fcd2e4cc416e15e0da133e99fbf7e82ec67141e0348892e764736f6c63430006040033",
    "sourcePath": "/home/eke/patient-eth/client/contracts/ReferencingPatient.sol",
    "compiler": {
        "name": "solc",
        "version": "0.6.4+commit.1dca32f3"
    },
    "functionHashes": {
        "changeOwner(address)": "a6f9dae1",
        "changeRef(address)": "d3fa99e9",
        "getRef()": "1d6d32ba",
        "patient()": "bd96bd20"
    },
    "gasEstimates": {
        "creation": {
            "codeDepositCost": "120600",
            "executionCost": "21000",
            "totalCost": "141600"
        },
        "external": {
            "changeOwner(address)": "21948",
            "changeRef(address)": "21957",
            "getRef()": "1015",
            "patient()": "1059"
        }
    }
}