{
  "contractName": "Client",
  "abi": [
    {
      "inputs": [],
      "payable": false,
      "stateMutability": "nonpayable",
      "type": "constructor"
    },
    {
      "constant": false,
      "inputs": [
        {
          "internalType": "bytes32",
          "name": "patientName",
          "type": "bytes32"
        },
        {
          "internalType": "bytes",
          "name": "ipfsHash",
          "type": "bytes"
        }
      ],
      "name": "registerPatient",
      "outputs": [
        {
          "internalType": "bool",
          "name": "",
          "type": "bool"
        }
      ],
      "payable": false,
      "stateMutability": "nonpayable",
      "type": "function"
    },
    {
      "constant": true,
      "inputs": [
        {
          "internalType": "address",
          "name": "_patientAdresses",
          "type": "address"
        }
      ],
      "name": "hasPatient",
      "outputs": [
        {
          "internalType": "bool",
          "name": "",
          "type": "bool"
        }
      ],
      "payable": false,
      "stateMutability": "view",
      "type": "function"
    },
    {
      "constant": true,
      "inputs": [
        {
          "internalType": "bytes32",
          "name": "pname",
          "type": "bytes32"
        }
      ],
      "name": "patientNameTaken",
      "outputs": [
        {
          "internalType": "bool",
          "name": "takenIndeed",
          "type": "bool"
        }
      ],
      "payable": false,
      "stateMutability": "view",
      "type": "function"
    },
    {
      "constant": false,
      "inputs": [
        {
          "internalType": "bytes",
          "name": "ipfsHash",
          "type": "bytes"
        }
      ],
      "name": "updatePatient",
      "outputs": [
        {
          "internalType": "bool",
          "name": "",
          "type": "bool"
        }
      ],
      "payable": false,
      "stateMutability": "nonpayable",
      "type": "function"
    },
    {
      "constant": true,
      "inputs": [],
      "name": "getPatientCount",
      "outputs": [
        {
          "internalType": "uint256",
          "name": "",
          "type": "uint256"
        }
      ],
      "payable": false,
      "stateMutability": "view",
      "type": "function"
    },
    {
      "constant": true,
      "inputs": [
        {
          "internalType": "uint256",
          "name": "index",
          "type": "uint256"
        }
      ],
      "name": "getPatientByIndex",
      "outputs": [
        {
          "internalType": "address",
          "name": "",
          "type": "address"
        },
        {
          "internalType": "bytes32",
          "name": "",
          "type": "bytes32"
        },
        {
          "internalType": "bytes",
          "name": "",
          "type": "bytes"
        }
      ],
      "payable": false,
      "stateMutability": "view",
      "type": "function"
    },
    {
      "constant": true,
      "inputs": [
        {
          "internalType": "uint256",
          "name": "index",
          "type": "uint256"
        }
      ],
      "name": "getAddressByIndex",
      "outputs": [
        {
          "internalType": "address",
          "name": "",
          "type": "address"
        }
      ],
      "payable": false,
      "stateMutability": "view",
      "type": "function"
    },
    {
      "constant": true,
      "inputs": [
        {
          "internalType": "uint256",
          "name": "index",
          "type": "uint256"
        }
      ],
      "name": "getPatientNameByIndex",
      "outputs": [
        {
          "internalType": "bytes32",
          "name": "",
          "type": "bytes32"
        }
      ],
      "payable": false,
      "stateMutability": "view",
      "type": "function"
    },
    {
      "constant": true,
      "inputs": [
        {
          "internalType": "uint256",
          "name": "index",
          "type": "uint256"
        }
      ],
      "name": "getIpfsHashByIndex",
      "outputs": [
        {
          "internalType": "bytes",
          "name": "",
          "type": "bytes"
        }
      ],
      "payable": false,
      "stateMutability": "view",
      "type": "function"
    },
    {
      "constant": true,
      "inputs": [
        {
          "internalType": "address",
          "name": "patientAddress",
          "type": "address"
        }
      ],
      "name": "getPatientByAddress",
      "outputs": [
        {
          "internalType": "uint256",
          "name": "",
          "type": "uint256"
        },
        {
          "internalType": "bytes32",
          "name": "",
          "type": "bytes32"
        },
        {
          "internalType": "bytes",
          "name": "",
          "type": "bytes"
        }
      ],
      "payable": false,
      "stateMutability": "view",
      "type": "function"
    },
    {
      "constant": true,
      "inputs": [
        {
          "internalType": "address",
          "name": "patientAddress",
          "type": "address"
        }
      ],
      "name": "getIndexByAddress",
      "outputs": [
        {
          "internalType": "uint256",
          "name": "",
          "type": "uint256"
        }
      ],
      "payable": false,
      "stateMutability": "view",
      "type": "function"
    },
    {
      "constant": true,
      "inputs": [
        {
          "internalType": "address",
          "name": "patientAddress",
          "type": "address"
        }
      ],
      "name": "getPatientNameByAddress",
      "outputs": [
        {
          "internalType": "bytes32",
          "name": "",
          "type": "bytes32"
        }
      ],
      "payable": false,
      "stateMutability": "view",
      "type": "function"
    },
    {
      "constant": true,
      "inputs": [
        {
          "internalType": "address",
          "name": "patientAddress",
          "type": "address"
        }
      ],
      "name": "getIpfsHashByAddress",
      "outputs": [
        {
          "internalType": "bytes",
          "name": "",
          "type": "bytes"
        }
      ],
      "payable": false,
      "stateMutability": "view",
      "type": "function"
    },
    {
      "constant": true,
      "inputs": [
        {
          "internalType": "bytes32",
          "name": "patientname",
          "type": "bytes32"
        }
      ],
      "name": "getPatientByPatientName",
      "outputs": [
        {
          "internalType": "uint256",
          "name": "",
          "type": "uint256"
        },
        {
          "internalType": "address",
          "name": "",
          "type": "address"
        },
        {
          "internalType": "bytes",
          "name": "",
          "type": "bytes"
        }
      ],
      "payable": false,
      "stateMutability": "view",
      "type": "function"
    },
    {
      "constant": true,
      "inputs": [
        {
          "internalType": "bytes32",
          "name": "patientname",
          "type": "bytes32"
        }
      ],
      "name": "getIndexByPatientName",
      "outputs": [
        {
          "internalType": "uint256",
          "name": "",
          "type": "uint256"
        }
      ],
      "payable": false,
      "stateMutability": "view",
      "type": "function"
    },
    {
      "constant": true,
      "inputs": [
        {
          "internalType": "bytes32",
          "name": "patientname",
          "type": "bytes32"
        }
      ],
      "name": "getAddressByPatientName",
      "outputs": [
        {
          "internalType": "address",
          "name": "",
          "type": "address"
        }
      ],
      "payable": false,
      "stateMutability": "view",
      "type": "function"
    },
    {
      "constant": true,
      "inputs": [
        {
          "internalType": "bytes32",
          "name": "patientname",
          "type": "bytes32"
        }
      ],
      "name": "getIpfsHashByPatientName",
      "outputs": [
        {
          "internalType": "bytes",
          "name": "",
          "type": "bytes"
        }
      ],
      "payable": false,
      "stateMutability": "view",
      "type": "function"
    },
    {
      "constant": false,
      "inputs": [
        {
          "internalType": "bytes32",
          "name": "_pname",
          "type": "bytes32"
        },
        {
          "internalType": "bytes32",
          "name": "_consulDateID",
          "type": "bytes32"
        },
        {
          "internalType": "bytes",
          "name": "newPatientIpfs",
          "type": "bytes"
        }
      ],
      "name": "consultationCreate",
      "outputs": [
        {
          "internalType": "bool",
          "name": "",
          "type": "bool"
        }
      ],
      "payable": false,
      "stateMutability": "nonpayable",
      "type": "function"
    },
    {
      "constant": true,
      "inputs": [
        {
          "internalType": "bytes32",
          "name": "_pname",
          "type": "bytes32"
        },
        {
          "internalType": "uint256",
          "name": "_index",
          "type": "uint256"
        }
      ],
      "name": "getConsultationByConsultationIndex",
      "outputs": [
        {
          "internalType": "bytes32",
          "name": "consulID",
          "type": "bytes32"
        }
      ],
      "payable": false,
      "stateMutability": "view",
      "type": "function"
    },
    {
      "constant": true,
      "inputs": [
        {
          "internalType": "bytes32",
          "name": "_pname",
          "type": "bytes32"
        },
        {
          "internalType": "bytes32",
          "name": "_consulDateID",
          "type": "bytes32"
        }
      ],
      "name": "getConsultationIndexByConsultationID",
      "outputs": [
        {
          "internalType": "uint256",
          "name": "",
          "type": "uint256"
        }
      ],
      "payable": false,
      "stateMutability": "view",
      "type": "function"
    },
    {
      "constant": true,
      "inputs": [
        {
          "internalType": "bytes32",
          "name": "_pname",
          "type": "bytes32"
        }
      ],
      "name": "getConsultationsByPatientName",
      "outputs": [
        {
          "internalType": "bytes32[]",
          "name": "",
          "type": "bytes32[]"
        }
      ],
      "payable": false,
      "stateMutability": "view",
      "type": "function"
    },
    {
      "constant": true,
      "inputs": [
        {
          "internalType": "address",
          "name": "patientAddress",
          "type": "address"
        }
      ],
      "name": "getConsultationsByPatientAddress",
      "outputs": [
        {
          "internalType": "bytes32[]",
          "name": "",
          "type": "bytes32[]"
        }
      ],
      "payable": false,
      "stateMutability": "view",
      "type": "function"
    },
    {
      "constant": false,
      "inputs": [
        {
          "internalType": "bytes32",
          "name": "_pname",
          "type": "bytes32"
        },
        {
          "internalType": "bytes32",
          "name": "_testDateID",
          "type": "bytes32"
        },
        {
          "internalType": "bytes",
          "name": "newPatientIpfs",
          "type": "bytes"
        }
      ],
      "name": "testCreate",
      "outputs": [
        {
          "internalType": "bool",
          "name": "",
          "type": "bool"
        }
      ],
      "payable": false,
      "stateMutability": "nonpayable",
      "type": "function"
    },
    {
      "constant": true,
      "inputs": [
        {
          "internalType": "bytes32",
          "name": "patientName",
          "type": "bytes32"
        },
        {
          "internalType": "uint256",
          "name": "_index",
          "type": "uint256"
        }
      ],
      "name": "getTestByTestIndex",
      "outputs": [
        {
          "internalType": "bytes32",
          "name": "testID",
          "type": "bytes32"
        }
      ],
      "payable": false,
      "stateMutability": "view",
      "type": "function"
    },
    {
      "constant": true,
      "inputs": [
        {
          "internalType": "bytes32",
          "name": "patientName",
          "type": "bytes32"
        },
        {
          "internalType": "bytes32",
          "name": "_testDateID",
          "type": "bytes32"
        }
      ],
      "name": "getTestIndexByTestID",
      "outputs": [
        {
          "internalType": "uint256",
          "name": "",
          "type": "uint256"
        }
      ],
      "payable": false,
      "stateMutability": "view",
      "type": "function"
    },
    {
      "constant": true,
      "inputs": [
        {
          "internalType": "bytes32",
          "name": "_pname",
          "type": "bytes32"
        }
      ],
      "name": "getTestsByPatientName",
      "outputs": [
        {
          "internalType": "bytes32[]",
          "name": "",
          "type": "bytes32[]"
        }
      ],
      "payable": false,
      "stateMutability": "view",
      "type": "function"
    },
    {
      "constant": true,
      "inputs": [
        {
          "internalType": "address",
          "name": "patientAddress",
          "type": "address"
        }
      ],
      "name": "getTestsByPatientAddress",
      "outputs": [
        {
          "internalType": "bytes32[]",
          "name": "",
          "type": "bytes32[]"
        }
      ],
      "payable": false,
      "stateMutability": "view",
      "type": "function"
    },
    {
      "constant": true,
      "inputs": [
        {
          "internalType": "bytes32",
          "name": "patientName",
          "type": "bytes32"
        }
      ],
      "name": "getTestsCount",
      "outputs": [
        {
          "internalType": "uint256",
          "name": "",
          "type": "uint256"
        }
      ],
      "payable": false,
      "stateMutability": "view",
      "type": "function"
    },
    {
      "constant": false,
      "inputs": [
        {
          "internalType": "bytes32",
          "name": "patientName",
          "type": "bytes32"
        },
        {
          "internalType": "bytes32",
          "name": "consulDateID",
          "type": "bytes32"
        },
        {
          "internalType": "bytes32",
          "name": "mname",
          "type": "bytes32"
        }
      ],
      "name": "saveMedicineForPatientUse",
      "outputs": [
        {
          "internalType": "bool",
          "name": "",
          "type": "bool"
        }
      ],
      "payable": false,
      "stateMutability": "nonpayable",
      "type": "function"
    },
    {
      "constant": true,
      "inputs": [
        {
          "internalType": "bytes32",
          "name": "patientName",
          "type": "bytes32"
        },
        {
          "internalType": "bytes32",
          "name": "consulDateID",
          "type": "bytes32"
        }
      ],
      "name": "getMedicinesFromConsultation",
      "outputs": [
        {
          "internalType": "bytes32[]",
          "name": "",
          "type": "bytes32[]"
        }
      ],
      "payable": false,
      "stateMutability": "view",
      "type": "function"
    },
    {
      "constant": true,
      "inputs": [
        {
          "internalType": "bytes32",
          "name": "patientName",
          "type": "bytes32"
        },
        {
          "internalType": "bytes32",
          "name": "_consulDateID",
          "type": "bytes32"
        },
        {
          "internalType": "bytes32",
          "name": "medname",
          "type": "bytes32"
        }
      ],
      "name": "getMedicineByMedicineName",
      "outputs": [
        {
          "internalType": "bytes32",
          "name": "",
          "type": "bytes32"
        }
      ],
      "payable": false,
      "stateMutability": "view",
      "type": "function"
    },
    {
      "constant": true,
      "inputs": [
        {
          "internalType": "bytes32",
          "name": "patientName",
          "type": "bytes32"
        },
        {
          "internalType": "bytes32",
          "name": "_consulDateID",
          "type": "bytes32"
        }
      ],
      "name": "getMedicinesCountFromConsultation",
      "outputs": [
        {
          "internalType": "uint256",
          "name": "",
          "type": "uint256"
        }
      ],
      "payable": false,
      "stateMutability": "view",
      "type": "function"
    },
    {
      "constant": false,
      "inputs": [
        {
          "internalType": "bytes32",
          "name": "DoctorName",
          "type": "bytes32"
        },
        {
          "internalType": "bytes",
          "name": "ipfsHash",
          "type": "bytes"
        }
      ],
      "name": "registerDoctor",
      "outputs": [
        {
          "internalType": "bool",
          "name": "",
          "type": "bool"
        }
      ],
      "payable": false,
      "stateMutability": "nonpayable",
      "type": "function"
    },
    {
      "constant": false,
      "inputs": [
        {
          "internalType": "bytes",
          "name": "ipfsHash",
          "type": "bytes"
        }
      ],
      "name": "updateDoctor",
      "outputs": [
        {
          "internalType": "bool",
          "name": "",
          "type": "bool"
        }
      ],
      "payable": false,
      "stateMutability": "nonpayable",
      "type": "function"
    },
    {
      "constant": true,
      "inputs": [],
      "name": "getDoctorCount",
      "outputs": [
        {
          "internalType": "uint256",
          "name": "",
          "type": "uint256"
        }
      ],
      "payable": false,
      "stateMutability": "view",
      "type": "function"
    },
    {
      "constant": true,
      "inputs": [
        {
          "internalType": "uint256",
          "name": "index",
          "type": "uint256"
        }
      ],
      "name": "getDoctorByIndex",
      "outputs": [
        {
          "internalType": "address",
          "name": "",
          "type": "address"
        },
        {
          "internalType": "bytes32",
          "name": "",
          "type": "bytes32"
        },
        {
          "internalType": "bytes",
          "name": "",
          "type": "bytes"
        }
      ],
      "payable": false,
      "stateMutability": "view",
      "type": "function"
    },
    {
      "constant": true,
      "inputs": [
        {
          "internalType": "uint256",
          "name": "index",
          "type": "uint256"
        }
      ],
      "name": "getDoctorAddressByIndex",
      "outputs": [
        {
          "internalType": "address",
          "name": "",
          "type": "address"
        }
      ],
      "payable": false,
      "stateMutability": "view",
      "type": "function"
    },
    {
      "constant": true,
      "inputs": [
        {
          "internalType": "uint256",
          "name": "index",
          "type": "uint256"
        }
      ],
      "name": "getDoctorNameByIndex",
      "outputs": [
        {
          "internalType": "bytes32",
          "name": "",
          "type": "bytes32"
        }
      ],
      "payable": false,
      "stateMutability": "view",
      "type": "function"
    },
    {
      "constant": true,
      "inputs": [
        {
          "internalType": "uint256",
          "name": "index",
          "type": "uint256"
        }
      ],
      "name": "getDoctorIpfsHashByIndex",
      "outputs": [
        {
          "internalType": "bytes",
          "name": "",
          "type": "bytes"
        }
      ],
      "payable": false,
      "stateMutability": "view",
      "type": "function"
    },
    {
      "constant": true,
      "inputs": [
        {
          "internalType": "address",
          "name": "DoctorAddress",
          "type": "address"
        }
      ],
      "name": "getDoctorByAddress",
      "outputs": [
        {
          "internalType": "uint256",
          "name": "",
          "type": "uint256"
        },
        {
          "internalType": "bytes32",
          "name": "",
          "type": "bytes32"
        },
        {
          "internalType": "bytes",
          "name": "",
          "type": "bytes"
        }
      ],
      "payable": false,
      "stateMutability": "view",
      "type": "function"
    },
    {
      "constant": true,
      "inputs": [
        {
          "internalType": "address",
          "name": "DoctorAddress",
          "type": "address"
        }
      ],
      "name": "getDoctorIndexByAddress",
      "outputs": [
        {
          "internalType": "uint256",
          "name": "",
          "type": "uint256"
        }
      ],
      "payable": false,
      "stateMutability": "view",
      "type": "function"
    },
    {
      "constant": true,
      "inputs": [
        {
          "internalType": "address",
          "name": "DoctorAddress",
          "type": "address"
        }
      ],
      "name": "getDoctorNameByAddress",
      "outputs": [
        {
          "internalType": "bytes32",
          "name": "",
          "type": "bytes32"
        }
      ],
      "payable": false,
      "stateMutability": "view",
      "type": "function"
    },
    {
      "constant": true,
      "inputs": [
        {
          "internalType": "address",
          "name": "DoctorAddress",
          "type": "address"
        }
      ],
      "name": "getDoctorIpfsHashByAddress",
      "outputs": [
        {
          "internalType": "bytes",
          "name": "",
          "type": "bytes"
        }
      ],
      "payable": false,
      "stateMutability": "view",
      "type": "function"
    },
    {
      "constant": true,
      "inputs": [
        {
          "internalType": "bytes32",
          "name": "Doctorname",
          "type": "bytes32"
        }
      ],
      "name": "getDoctorByDoctorName",
      "outputs": [
        {
          "internalType": "uint256",
          "name": "",
          "type": "uint256"
        },
        {
          "internalType": "address",
          "name": "",
          "type": "address"
        },
        {
          "internalType": "bytes",
          "name": "",
          "type": "bytes"
        }
      ],
      "payable": false,
      "stateMutability": "view",
      "type": "function"
    },
    {
      "constant": true,
      "inputs": [
        {
          "internalType": "bytes32",
          "name": "Doctorname",
          "type": "bytes32"
        }
      ],
      "name": "getDoctorIndexByDoctorName",
      "outputs": [
        {
          "internalType": "uint256",
          "name": "",
          "type": "uint256"
        }
      ],
      "payable": false,
      "stateMutability": "view",
      "type": "function"
    },
    {
      "constant": true,
      "inputs": [
        {
          "internalType": "bytes32",
          "name": "Doctorname",
          "type": "bytes32"
        }
      ],
      "name": "getDoctorAddressByDoctorName",
      "outputs": [
        {
          "internalType": "address",
          "name": "",
          "type": "address"
        }
      ],
      "payable": false,
      "stateMutability": "view",
      "type": "function"
    },
    {
      "constant": true,
      "inputs": [
        {
          "internalType": "bytes32",
          "name": "Doctorname",
          "type": "bytes32"
        }
      ],
      "name": "getDoctorIpfsHashByDoctorName",
      "outputs": [
        {
          "internalType": "bytes",
          "name": "",
          "type": "bytes"
        }
      ],
      "payable": false,
      "stateMutability": "view",
      "type": "function"
    },
    {
      "constant": false,
      "inputs": [
        {
          "internalType": "bytes32",
          "name": "mname",
          "type": "bytes32"
        },
        {
          "internalType": "bytes",
          "name": "ipfsHash",
          "type": "bytes"
        }
      ],
      "name": "saveMedicine",
      "outputs": [
        {
          "internalType": "bool",
          "name": "",
          "type": "bool"
        }
      ],
      "payable": false,
      "stateMutability": "nonpayable",
      "type": "function"
    },
    {
      "constant": false,
      "inputs": [
        {
          "internalType": "bytes",
          "name": "ipfsHash",
          "type": "bytes"
        }
      ],
      "name": "updateMedicine",
      "outputs": [
        {
          "internalType": "bool",
          "name": "",
          "type": "bool"
        }
      ],
      "payable": false,
      "stateMutability": "nonpayable",
      "type": "function"
    },
    {
      "constant": true,
      "inputs": [],
      "name": "getMedicineCount",
      "outputs": [
        {
          "internalType": "uint256",
          "name": "",
          "type": "uint256"
        }
      ],
      "payable": false,
      "stateMutability": "view",
      "type": "function"
    },
    {
      "constant": true,
      "inputs": [
        {
          "internalType": "uint256",
          "name": "index",
          "type": "uint256"
        }
      ],
      "name": "getMedicineByIndex",
      "outputs": [
        {
          "internalType": "bytes32",
          "name": "",
          "type": "bytes32"
        },
        {
          "internalType": "bytes",
          "name": "",
          "type": "bytes"
        }
      ],
      "payable": false,
      "stateMutability": "view",
      "type": "function"
    },
    {
      "constant": true,
      "inputs": [
        {
          "internalType": "bytes32",
          "name": "patientName",
          "type": "bytes32"
        },
        {
          "internalType": "bytes32",
          "name": "_consulDateID",
          "type": "bytes32"
        },
        {
          "internalType": "uint256",
          "name": "index",
          "type": "uint256"
        }
      ],
      "name": "getMedicineByIndex",
      "outputs": [
        {
          "internalType": "bytes32",
          "name": "",
          "type": "bytes32"
        }
      ],
      "payable": false,
      "stateMutability": "view",
      "type": "function"
    },
    {
      "constant": true,
      "inputs": [
        {
          "internalType": "uint256",
          "name": "index",
          "type": "uint256"
        }
      ],
      "name": "getMedicineNameByIndex",
      "outputs": [
        {
          "internalType": "bytes32",
          "name": "",
          "type": "bytes32"
        }
      ],
      "payable": false,
      "stateMutability": "view",
      "type": "function"
    },
    {
      "constant": true,
      "inputs": [
        {
          "internalType": "uint256",
          "name": "index",
          "type": "uint256"
        }
      ],
      "name": "getMedIpfsHashByIndex",
      "outputs": [
        {
          "internalType": "bytes",
          "name": "",
          "type": "bytes"
        }
      ],
      "payable": false,
      "stateMutability": "view",
      "type": "function"
    },
    {
      "constant": true,
      "inputs": [
        {
          "internalType": "bytes32",
          "name": "mname",
          "type": "bytes32"
        }
      ],
      "name": "getIpfsHashByMedicineName",
      "outputs": [
        {
          "internalType": "bytes",
          "name": "",
          "type": "bytes"
        }
      ],
      "payable": false,
      "stateMutability": "view",
      "type": "function"
    }
  ],
  "bytecode": "0x60806040526040516200001290620000c4565b604051809103906000f0801580156200002f573d6000803e3d6000fd5b50600160006101000a81548173ffffffffffffffffffffffffffffffffffffffff021916908373ffffffffffffffffffffffffffffffffffffffff1602179055503480156200007d57600080fd5b50336000806101000a81548173ffffffffffffffffffffffffffffffffffffffff021916908373ffffffffffffffffffffffffffffffffffffffff160217905550620000d2565b615653806200427f83390190565b61419d80620000e26000396000f3fe608060405234801561001057600080fd5b506004361061035d5760003560e01c8063715b5f6d116101d3578063ba5c033511610104578063e1153e6f116100a2578063eb9fbaa91161007c578063eb9fbaa914610cc9578063ed96cf3914610cf9578063f421ba1014610d29578063f7a65e6014610d595761035d565b8063e1153e6f14610c4b578063e85a340a14610c7b578063eadeb84c14610cab5761035d565b8063cbb7e2ff116100de578063cbb7e2ff14610b8b578063cc04a68514610bbb578063ce10cf8814610beb578063dfb7ab6014610c1b5761035d565b8063ba5c033514610b0b578063c190665b14610b3d578063cafd134614610b5b5761035d565b8063a68a08a511610171578063ad37c2dc1161014b578063ad37c2dc14610a4b578063b1d5458d14610a7b578063b9aa549b14610aab578063b9affb9314610adb5761035d565b8063a68a08a5146109b9578063a74380a6146109e9578063ad36054b14610a195761035d565b806379111c1c116101ad57806379111c1c1461090b5780637b63cec4146109295780638f1787c21461095957806394e7ef6e146109895761035d565b8063715b5f6d1461087957806374275255146108ab5780637448d8d8146108db5761035d565b806331db6fd5116102ad57806358c5d4bf1161024b5780635fe721ff116102255780635fe721ff146107b957806368761954146107e9578063697d19ea146108195780636cfbc8fd146108495761035d565b806358c5d4bf146107255780635a357c19146107575780635bab5482146107895761035d565b8063480997971161028757806348099797146106635780634b3a6029146106935780635035cf52146106c357806357ea0c2f146106f35761035d565b806331db6fd5146105d35780633fe285d51461060357806345cfa71d146106335761035d565b80631973ef911161031a57806320cfcbfa116102f457806320cfcbfa1461051357806324ecae0b1461054357806329f78d881461057357806330ca739b146105a35761035d565b80631973ef91146104825780631d37878f146104b25780631e50b182146104e25761035d565b806304aa421014610362578063083121ad146103925780630b8d6eae146103c257806313684d43146103f2578063140de8f21461042257806314f5193014610452575b600080fd5b61037c600480360361037791908101906137d8565b610d89565b6040516103899190613eca565b60405180910390f35b6103ac60048036036103a79190810190613866565b610e42565b6040516103b99190613d66565b60405180910390f35b6103dc60048036036103d791908101906136b5565b610efe565b6040516103e99190613d44565b60405180910390f35b61040c600480360361040791908101906136b5565b610fb7565b6040516104199190613eca565b60405180910390f35b61043c600480360361043791908101906137d8565b611070565b6040516104499190613eec565b60405180910390f35b61046c60048036036104679190810190613a4f565b611124565b6040516104799190613d66565b60405180910390f35b61049c600480360361049791908101906136b5565b6111d9565b6040516104a99190613eec565b60405180910390f35b6104cc60048036036104c79190810190613ad1565b61128d565b6040516104d99190613d81565b60405180910390f35b6104fc60048036036104f79190810190613ad1565b611341565b60405161050a929190613e71565b60405180910390f35b61052d600480360361052891908101906137d8565b6113fe565b60405161053a9190613eec565b60405180910390f35b61055d60048036036105589190810190613866565b6114b2565b60405161056a9190613d81565b60405180910390f35b61058d60048036036105889190810190613ad1565b61156c565b60405161059a9190613eca565b60405180910390f35b6105bd60048036036105b891908101906136b5565b611625565b6040516105ca9190613d44565b60405180910390f35b6105ed60048036036105e89190810190613ad1565b6116de565b6040516105fa9190613d81565b60405180910390f35b61061d6004803603610618919081019061382a565b611791565b60405161062a9190613eec565b60405180910390f35b61064d600480360361064891908101906137d8565b611848565b60405161065a9190613d44565b60405180910390f35b61067d6004803603610678919081019061382a565b611901565b60405161068a9190613d44565b60405180910390f35b6106ad60048036036106a89190810190613ad1565b6119bd565b6040516106ba9190613eca565b60405180910390f35b6106dd60048036036106d891908101906138b5565b611a76565b6040516106ea9190613d66565b60405180910390f35b61070d60048036036107089190810190613ad1565b611b32565b60405161071c93929190613d06565b60405180910390f35b61073f600480360361073a91908101906136b5565b611bf4565b60405161074e93929190613f45565b60405180910390f35b610771600480360361076c9190810190613ad1565b611cb6565b60405161078093929190613d06565b60405180910390f35b6107a3600480360361079e91908101906136b5565b611d78565b6040516107b09190613eec565b60405180910390f35b6107d360048036036107ce9190810190613a13565b611e2c565b6040516107e09190613d81565b60405180910390f35b61080360048036036107fe919081019061396b565b611ee3565b6040516108109190613d66565b60405180910390f35b610833600480360361082e919081019061396b565b611f9c565b6040516108409190613d66565b60405180910390f35b610863600480360361085e91908101906137d8565b612055565b6040516108709190613ceb565b60405180910390f35b610893600480360361088e91908101906137d8565b612109565b6040516108a293929190613f07565b60405180910390f35b6108c560048036036108c091908101906138b5565b6121cb565b6040516108d29190613d66565b60405180910390f35b6108f560048036036108f091908101906137d8565b612287565b6040516109029190613d44565b60405180910390f35b610913612340565b6040516109209190613eec565b60405180910390f35b610943600480360361093e91908101906137d8565b6123e7565b6040516109509190613d66565b60405180910390f35b610973600480360361096e91908101906136b5565b61249b565b6040516109809190613d81565b60405180910390f35b6109a3600480360361099e9190810190613a4f565b61254f565b6040516109b09190613d66565b60405180910390f35b6109d360048036036109ce91908101906137d8565b612605565b6040516109e09190613eca565b60405180910390f35b610a0360048036036109fe91908101906136b5565b6126bd565b604051610a109190613eca565b60405180910390f35b610a336004803603610a2e91908101906137d8565b612776565b604051610a4293929190613f07565b60405180910390f35b610a656004803603610a6091908101906137d8565b612838565b604051610a729190613ceb565b60405180910390f35b610a956004803603610a9091908101906137d8565b6128ec565b604051610aa29190613eec565b60405180910390f35b610ac56004803603610ac09190810190613a13565b6129a0565b604051610ad29190613d81565b60405180910390f35b610af56004803603610af091908101906136b5565b612a57565b604051610b029190613d81565b60405180910390f35b610b256004803603610b2091908101906136b5565b612b0b565b604051610b3493929190613f45565b60405180910390f35b610b45612bcd565b604051610b529190613eec565b60405180910390f35b610b756004803603610b709190810190613a4f565b612c74565b604051610b829190613d66565b60405180910390f35b610ba56004803603610ba09190810190613ad1565b612d2a565b604051610bb29190613d81565b60405180910390f35b610bd56004803603610bd09190810190613ad1565b612dde565b604051610be29190613eca565b60405180910390f35b610c056004803603610c009190810190613ad1565b612e97565b604051610c129190613ceb565b60405180910390f35b610c356004803603610c3091908101906137d8565b612f4b565b604051610c429190613eca565b60405180910390f35b610c656004803603610c60919081019061396b565b613004565b604051610c729190613d66565b60405180910390f35b610c956004803603610c909190810190613ad1565b6130c0565b604051610ca29190613ceb565b60405180910390f35b610cb3613174565b604051610cc09190613eec565b60405180910390f35b610ce36004803603610cde91908101906136b5565b61321b565b604051610cf09190613d66565b60405180910390f35b610d136004803603610d0e919081019061382a565b6132cf565b604051610d209190613eec565b60405180910390f35b610d436004803603610d3e919081019061382a565b613386565b604051610d509190613eec565b60405180910390f35b610d736004803603610d6e919081019061391c565b61343d565b604051610d809190613d81565b60405180910390f35b6060600260009054906101000a900473ffffffffffffffffffffffffffffffffffffffff1673ffffffffffffffffffffffffffffffffffffffff166304aa4210836040518263ffffffff1660e01b8152600401610de69190613d81565b60006040518083038186803b158015610dfe57600080fd5b505afa158015610e12573d6000803e3d6000fd5b505050506040513d6000823e3d601f19601f82011682018060405250610e3b9190810190613a90565b9050919050565b6000600160009054906101000a900473ffffffffffffffffffffffffffffffffffffffff1673ffffffffffffffffffffffffffffffffffffffff1663083121ad8585856040518463ffffffff1660e01b8152600401610ea393929190613dc5565b602060405180830381600087803b158015610ebd57600080fd5b505af1158015610ed1573d6000803e3d6000fd5b505050506040513d601f19601f82011682018060405250610ef591908101906137af565b90509392505050565b6060600160009054906101000a900473ffffffffffffffffffffffffffffffffffffffff1673ffffffffffffffffffffffffffffffffffffffff16630b8d6eae836040518263ffffffff1660e01b8152600401610f5b9190613ceb565b60006040518083038186803b158015610f7357600080fd5b505afa158015610f87573d6000803e3d6000fd5b505050506040513d6000823e3d601f19601f82011682018060405250610fb0919081019061376e565b9050919050565b6060600260009054906101000a900473ffffffffffffffffffffffffffffffffffffffff1673ffffffffffffffffffffffffffffffffffffffff166313684d43836040518263ffffffff1660e01b81526004016110149190613ceb565b60006040518083038186803b15801561102c57600080fd5b505afa158015611040573d6000803e3d6000fd5b505050506040513d6000823e3d601f19601f820116820180604052506110699190810190613a90565b9050919050565b6000600260009054906101000a900473ffffffffffffffffffffffffffffffffffffffff1673ffffffffffffffffffffffffffffffffffffffff1663140de8f2836040518263ffffffff1660e01b81526004016110cd9190613d81565b60206040518083038186803b1580156110e557600080fd5b505afa1580156110f9573d6000803e3d6000fd5b505050506040513d601f19601f8201168201806040525061111d9190810190613afa565b9050919050565b6000600260009054906101000a900473ffffffffffffffffffffffffffffffffffffffff1673ffffffffffffffffffffffffffffffffffffffff166314f51930836040518263ffffffff1660e01b81526004016111819190613eca565b602060405180830381600087803b15801561119b57600080fd5b505af11580156111af573d6000803e3d6000fd5b505050506040513d601f19601f820116820180604052506111d391908101906137af565b50919050565b6000600160009054906101000a900473ffffffffffffffffffffffffffffffffffffffff1673ffffffffffffffffffffffffffffffffffffffff16631973ef91836040518263ffffffff1660e01b81526004016112369190613ceb565b60206040518083038186803b15801561124e57600080fd5b505afa158015611262573d6000803e3d6000fd5b505050506040513d601f19601f820116820180604052506112869190810190613afa565b9050919050565b6000600260009054906101000a900473ffffffffffffffffffffffffffffffffffffffff1673ffffffffffffffffffffffffffffffffffffffff16631d37878f836040518263ffffffff1660e01b81526004016112ea9190613eec565b60206040518083038186803b15801561130257600080fd5b505afa158015611316573d6000803e3d6000fd5b505050506040513d601f19601f8201168201806040525061133a9190810190613801565b9050919050565b60006060600360009054906101000a900473ffffffffffffffffffffffffffffffffffffffff1673ffffffffffffffffffffffffffffffffffffffff16631e50b182846040518263ffffffff1660e01b81526004016113a09190613eec565b60006040518083038186803b1580156113b857600080fd5b505afa1580156113cc573d6000803e3d6000fd5b505050506040513d6000823e3d601f19601f820116820180604052506113f591908101906139bf565b91509150915091565b6000600160009054906101000a900473ffffffffffffffffffffffffffffffffffffffff1673ffffffffffffffffffffffffffffffffffffffff166320cfcbfa836040518263ffffffff1660e01b815260040161145b9190613d81565b60206040518083038186803b15801561147357600080fd5b505afa158015611487573d6000803e3d6000fd5b505050506040513d601f19601f820116820180604052506114ab9190810190613afa565b9050919050565b6000600160009054906101000a900473ffffffffffffffffffffffffffffffffffffffff1673ffffffffffffffffffffffffffffffffffffffff166324ecae0b8585856040518463ffffffff1660e01b815260040161151393929190613dc5565b60206040518083038186803b15801561152b57600080fd5b505afa15801561153f573d6000803e3d6000fd5b505050506040513d601f19601f820116820180604052506115639190810190613801565b90509392505050565b6060600160009054906101000a900473ffffffffffffffffffffffffffffffffffffffff1673ffffffffffffffffffffffffffffffffffffffff166329f78d88836040518263ffffffff1660e01b81526004016115c99190613eec565b60006040518083038186803b1580156115e157600080fd5b505afa1580156115f5573d6000803e3d6000fd5b505050506040513d6000823e3d601f19601f8201168201806040525061161e9190810190613a90565b9050919050565b6060600160009054906101000a900473ffffffffffffffffffffffffffffffffffffffff1673ffffffffffffffffffffffffffffffffffffffff166330ca739b836040518263ffffffff1660e01b81526004016116829190613ceb565b60006040518083038186803b15801561169a57600080fd5b505afa1580156116ae573d6000803e3d6000fd5b505050506040513d6000823e3d601f19601f820116820180604052506116d7919081019061376e565b9050919050565b6000600360009054906101000a900473ffffffffffffffffffffffffffffffffffffffff1673ffffffffffffffffffffffffffffffffffffffff166331db6fd5836040518263ffffffff1660e01b815260040161173b9190613eec565b60206040518083038186803b15801561175357600080fd5b505afa158015611767573d6000803e3d6000fd5b505050506040513d601f19601f8201168201806040525061178b9190810190613801565b50919050565b6000600160009054906101000a900473ffffffffffffffffffffffffffffffffffffffff1673ffffffffffffffffffffffffffffffffffffffff16633fe285d584846040518363ffffffff1660e01b81526004016117f0929190613d9c565b60206040518083038186803b15801561180857600080fd5b505afa15801561181c573d6000803e3d6000fd5b505050506040513d601f19601f820116820180604052506118409190810190613afa565b905092915050565b6060600160009054906101000a900473ffffffffffffffffffffffffffffffffffffffff1673ffffffffffffffffffffffffffffffffffffffff166345cfa71d836040518263ffffffff1660e01b81526004016118a59190613d81565b60006040518083038186803b1580156118bd57600080fd5b505afa1580156118d1573d6000803e3d6000fd5b505050506040513d6000823e3d601f19601f820116820180604052506118fa919081019061376e565b9050919050565b6060600160009054906101000a900473ffffffffffffffffffffffffffffffffffffffff1673ffffffffffffffffffffffffffffffffffffffff16634809979784846040518363ffffffff1660e01b8152600401611960929190613d9c565b60006040518083038186803b15801561197857600080fd5b505afa15801561198c573d6000803e3d6000fd5b505050506040513d6000823e3d601f19601f820116820180604052506119b5919081019061376e565b905092915050565b6060600260009054906101000a900473ffffffffffffffffffffffffffffffffffffffff1673ffffffffffffffffffffffffffffffffffffffff16634b3a6029836040518263ffffffff1660e01b8152600401611a1a9190613eec565b60006040518083038186803b158015611a3257600080fd5b505afa158015611a46573d6000803e3d6000fd5b505050506040513d6000823e3d601f19601f82011682018060405250611a6f9190810190613a90565b9050919050565b6000600160009054906101000a900473ffffffffffffffffffffffffffffffffffffffff1673ffffffffffffffffffffffffffffffffffffffff16635035cf528585856040518463ffffffff1660e01b8152600401611ad793929190613dfc565b602060405180830381600087803b158015611af157600080fd5b505af1158015611b05573d6000803e3d6000fd5b505050506040513d601f19601f82011682018060405250611b2991908101906137af565b90509392505050565b6000806060600160009054906101000a900473ffffffffffffffffffffffffffffffffffffffff1673ffffffffffffffffffffffffffffffffffffffff166357ea0c2f856040518263ffffffff1660e01b8152600401611b929190613eec565b60006040518083038186803b158015611baa57600080fd5b505afa158015611bbe573d6000803e3d6000fd5b505050506040513d6000823e3d601f19601f82011682018060405250611be79190810190613707565b9250925092509193909250565b6000806060600260009054906101000a900473ffffffffffffffffffffffffffffffffffffffff1673ffffffffffffffffffffffffffffffffffffffff166358c5d4bf856040518263ffffffff1660e01b8152600401611c549190613ceb565b60006040518083038186803b158015611c6c57600080fd5b505afa158015611c80573d6000803e3d6000fd5b505050506040513d6000823e3d601f19601f82011682018060405250611ca99190810190613b8a565b9250925092509193909250565b6000806060600260009054906101000a900473ffffffffffffffffffffffffffffffffffffffff1673ffffffffffffffffffffffffffffffffffffffff16635a357c19856040518263ffffffff1660e01b8152600401611d169190613eec565b60006040518083038186803b158015611d2e57600080fd5b505afa158015611d42573d6000803e3d6000fd5b505050506040513d6000823e3d601f19601f82011682018060405250611d6b9190810190613707565b9250925092509193909250565b6000600260009054906101000a900473ffffffffffffffffffffffffffffffffffffffff1673ffffffffffffffffffffffffffffffffffffffff16635bab5482836040518263ffffffff1660e01b8152600401611dd59190613ceb565b60206040518083038186803b158015611ded57600080fd5b505afa158015611e01573d6000803e3d6000fd5b505050506040513d601f19601f82011682018060405250611e259190810190613afa565b9050919050565b6000600160009054906101000a900473ffffffffffffffffffffffffffffffffffffffff1673ffffffffffffffffffffffffffffffffffffffff16635fe721ff84846040518363ffffffff1660e01b8152600401611e8b929190613ea1565b60206040518083038186803b158015611ea357600080fd5b505afa158015611eb7573d6000803e3d6000fd5b505050506040513d601f19601f82011682018060405250611edb9190810190613801565b905092915050565b6000600160009054906101000a900473ffffffffffffffffffffffffffffffffffffffff1673ffffffffffffffffffffffffffffffffffffffff16636876195484846040518363ffffffff1660e01b8152600401611f42929190613e71565b602060405180830381600087803b158015611f5c57600080fd5b505af1158015611f70573d6000803e3d6000fd5b505050506040513d601f19601f82011682018060405250611f9491908101906137af565b905092915050565b6000600360009054906101000a900473ffffffffffffffffffffffffffffffffffffffff1673ffffffffffffffffffffffffffffffffffffffff1663697d19ea84846040518363ffffffff1660e01b8152600401611ffb929190613e71565b602060405180830381600087803b15801561201557600080fd5b505af1158015612029573d6000803e3d6000fd5b505050506040513d601f19601f8201168201806040525061204d91908101906137af565b905092915050565b6000600160009054906101000a900473ffffffffffffffffffffffffffffffffffffffff1673ffffffffffffffffffffffffffffffffffffffff16636cfbc8fd836040518263ffffffff1660e01b81526004016120b29190613d81565b60206040518083038186803b1580156120ca57600080fd5b505afa1580156120de573d6000803e3d6000fd5b505050506040513d601f19601f8201168201806040525061210291908101906136de565b9050919050565b6000806060600260009054906101000a900473ffffffffffffffffffffffffffffffffffffffff1673ffffffffffffffffffffffffffffffffffffffff1663715b5f6d856040518263ffffffff1660e01b81526004016121699190613d81565b60006040518083038186803b15801561218157600080fd5b505afa158015612195573d6000803e3d6000fd5b505050506040513d6000823e3d601f19601f820116820180604052506121be9190810190613b23565b9250925092509193909250565b6000600160009054906101000a900473ffffffffffffffffffffffffffffffffffffffff1673ffffffffffffffffffffffffffffffffffffffff1663742752558585856040518463ffffffff1660e01b815260040161222c93929190613dfc565b602060405180830381600087803b15801561224657600080fd5b505af115801561225a573d6000803e3d6000fd5b505050506040513d601f19601f8201168201806040525061227e91908101906137af565b90509392505050565b6060600160009054906101000a900473ffffffffffffffffffffffffffffffffffffffff1673ffffffffffffffffffffffffffffffffffffffff16637448d8d8836040518263ffffffff1660e01b81526004016122e49190613d81565b60006040518083038186803b1580156122fc57600080fd5b505afa158015612310573d6000803e3d6000fd5b505050506040513d6000823e3d601f19601f82011682018060405250612339919081019061376e565b9050919050565b6000600260009054906101000a900473ffffffffffffffffffffffffffffffffffffffff1673ffffffffffffffffffffffffffffffffffffffff166379111c1c6040518163ffffffff1660e01b815260040160206040518083038186803b1580156123aa57600080fd5b505afa1580156123be573d6000803e3d6000fd5b505050506040513d601f19601f820116820180604052506123e29190810190613afa565b905090565b6000600160009054906101000a900473ffffffffffffffffffffffffffffffffffffffff1673ffffffffffffffffffffffffffffffffffffffff16637b63cec4836040518263ffffffff1660e01b81526004016124449190613d81565b60206040518083038186803b15801561245c57600080fd5b505afa158015612470573d6000803e3d6000fd5b505050506040513d601f19601f8201168201806040525061249491908101906137af565b9050919050565b6000600260009054906101000a900473ffffffffffffffffffffffffffffffffffffffff1673ffffffffffffffffffffffffffffffffffffffff16638f1787c2836040518263ffffffff1660e01b81526004016124f89190613ceb565b60206040518083038186803b15801561251057600080fd5b505afa158015612524573d6000803e3d6000fd5b505050506040513d601f19601f820116820180604052506125489190810190613801565b9050919050565b6000600160009054906101000a900473ffffffffffffffffffffffffffffffffffffffff1673ffffffffffffffffffffffffffffffffffffffff166394e7ef6e836040518263ffffffff1660e01b81526004016125ac9190613eca565b602060405180830381600087803b1580156125c657600080fd5b505af11580156125da573d6000803e3d6000fd5b505050506040513d601f19601f820116820180604052506125fe91908101906137af565b9050919050565b6060600360009054906101000a900473ffffffffffffffffffffffffffffffffffffffff1673ffffffffffffffffffffffffffffffffffffffff1663a68a08a5836040518263ffffffff1660e01b81526004016126629190613d81565b60006040518083038186803b15801561267a57600080fd5b505afa15801561268e573d6000803e3d6000fd5b505050506040513d6000823e3d601f19601f820116820180604052506126b79190810190613a90565b50919050565b6060600160009054906101000a900473ffffffffffffffffffffffffffffffffffffffff1673ffffffffffffffffffffffffffffffffffffffff1663a74380a6836040518263ffffffff1660e01b815260040161271a9190613ceb565b60006040518083038186803b15801561273257600080fd5b505afa158015612746573d6000803e3d6000fd5b505050506040513d6000823e3d601f19601f8201168201806040525061276f9190810190613a90565b9050919050565b6000806060600160009054906101000a900473ffffffffffffffffffffffffffffffffffffffff1673ffffffffffffffffffffffffffffffffffffffff1663ad36054b856040518263ffffffff1660e01b81526004016127d69190613d81565b60006040518083038186803b1580156127ee57600080fd5b505afa158015612802573d6000803e3d6000fd5b505050506040513d6000823e3d601f19601f8201168201806040525061282b9190810190613b23565b9250925092509193909250565b6000600260009054906101000a900473ffffffffffffffffffffffffffffffffffffffff1673ffffffffffffffffffffffffffffffffffffffff1663ad37c2dc836040518263ffffffff1660e01b81526004016128959190613d81565b60206040518083038186803b1580156128ad57600080fd5b505afa1580156128c1573d6000803e3d6000fd5b505050506040513d601f19601f820116820180604052506128e591908101906136de565b9050919050565b6000600160009054906101000a900473ffffffffffffffffffffffffffffffffffffffff1673ffffffffffffffffffffffffffffffffffffffff1663b1d5458d836040518263ffffffff1660e01b81526004016129499190613d81565b60206040518083038186803b15801561296157600080fd5b505afa158015612975573d6000803e3d6000fd5b505050506040513d601f19601f820116820180604052506129999190810190613afa565b9050919050565b6000600160009054906101000a900473ffffffffffffffffffffffffffffffffffffffff1673ffffffffffffffffffffffffffffffffffffffff1663b9aa549b84846040518363ffffffff1660e01b81526004016129ff929190613ea1565b60206040518083038186803b158015612a1757600080fd5b505afa158015612a2b573d6000803e3d6000fd5b505050506040513d601f19601f82011682018060405250612a4f9190810190613801565b905092915050565b6000600160009054906101000a900473ffffffffffffffffffffffffffffffffffffffff1673ffffffffffffffffffffffffffffffffffffffff1663b9affb93836040518263ffffffff1660e01b8152600401612ab49190613ceb565b60206040518083038186803b158015612acc57600080fd5b505afa158015612ae0573d6000803e3d6000fd5b505050506040513d601f19601f82011682018060405250612b049190810190613801565b9050919050565b6000806060600160009054906101000a900473ffffffffffffffffffffffffffffffffffffffff1673ffffffffffffffffffffffffffffffffffffffff1663ba5c0335856040518263ffffffff1660e01b8152600401612b6b9190613ceb565b60006040518083038186803b158015612b8357600080fd5b505afa158015612b97573d6000803e3d6000fd5b505050506040513d6000823e3d601f19601f82011682018060405250612bc09190810190613b8a565b9250925092509193909250565b6000600160009054906101000a900473ffffffffffffffffffffffffffffffffffffffff1673ffffffffffffffffffffffffffffffffffffffff1663c190665b6040518163ffffffff1660e01b815260040160206040518083038186803b158015612c3757600080fd5b505afa158015612c4b573d6000803e3d6000fd5b505050506040513d601f19601f82011682018060405250612c6f9190810190613afa565b905090565b6000600360009054906101000a900473ffffffffffffffffffffffffffffffffffffffff1673ffffffffffffffffffffffffffffffffffffffff1663cafd1346836040518263ffffffff1660e01b8152600401612cd19190613eca565b602060405180830381600087803b158015612ceb57600080fd5b505af1158015612cff573d6000803e3d6000fd5b505050506040513d601f19601f82011682018060405250612d2391908101906137af565b9050919050565b6000600160009054906101000a900473ffffffffffffffffffffffffffffffffffffffff1673ffffffffffffffffffffffffffffffffffffffff1663cbb7e2ff836040518263ffffffff1660e01b8152600401612d879190613eec565b60206040518083038186803b158015612d9f57600080fd5b505afa158015612db3573d6000803e3d6000fd5b505050506040513d601f19601f82011682018060405250612dd79190810190613801565b9050919050565b6060600360009054906101000a900473ffffffffffffffffffffffffffffffffffffffff1673ffffffffffffffffffffffffffffffffffffffff1663cc04a685836040518263ffffffff1660e01b8152600401612e3b9190613eec565b60006040518083038186803b158015612e5357600080fd5b505afa158015612e67573d6000803e3d6000fd5b505050506040513d6000823e3d601f19601f82011682018060405250612e909190810190613a90565b9050919050565b6000600160009054906101000a900473ffffffffffffffffffffffffffffffffffffffff1673ffffffffffffffffffffffffffffffffffffffff1663ce10cf88836040518263ffffffff1660e01b8152600401612ef49190613eec565b60206040518083038186803b158015612f0c57600080fd5b505afa158015612f20573d6000803e3d6000fd5b505050506040513d601f19601f82011682018060405250612f4491908101906136de565b9050919050565b6060600160009054906101000a900473ffffffffffffffffffffffffffffffffffffffff1673ffffffffffffffffffffffffffffffffffffffff1663dfb7ab60836040518263ffffffff1660e01b8152600401612fa89190613d81565b60006040518083038186803b158015612fc057600080fd5b505afa158015612fd4573d6000803e3d6000fd5b505050506040513d6000823e3d601f19601f82011682018060405250612ffd9190810190613a90565b9050919050565b6000600260009054906101000a900473ffffffffffffffffffffffffffffffffffffffff1673ffffffffffffffffffffffffffffffffffffffff1663e1153e6f84846040518363ffffffff1660e01b8152600401613063929190613e71565b602060405180830381600087803b15801561307d57600080fd5b505af1158015613091573d6000803e3d6000fd5b505050506040513d601f19601f820116820180604052506130b591908101906137af565b506001905092915050565b6000600260009054906101000a900473ffffffffffffffffffffffffffffffffffffffff1673ffffffffffffffffffffffffffffffffffffffff1663e85a340a836040518263ffffffff1660e01b815260040161311d9190613eec565b60206040518083038186803b15801561313557600080fd5b505afa158015613149573d6000803e3d6000fd5b505050506040513d601f19601f8201168201806040525061316d91908101906136de565b9050919050565b6000600360009054906101000a900473ffffffffffffffffffffffffffffffffffffffff1673ffffffffffffffffffffffffffffffffffffffff1663eadeb84c6040518163ffffffff1660e01b815260040160206040518083038186803b1580156131de57600080fd5b505afa1580156131f2573d6000803e3d6000fd5b505050506040513d601f19601f820116820180604052506132169190810190613afa565b905090565b6000600160009054906101000a900473ffffffffffffffffffffffffffffffffffffffff1673ffffffffffffffffffffffffffffffffffffffff1663eb9fbaa9836040518263ffffffff1660e01b81526004016132789190613ceb565b60206040518083038186803b15801561329057600080fd5b505afa1580156132a4573d6000803e3d6000fd5b505050506040513d601f19601f820116820180604052506132c891908101906137af565b9050919050565b6000600160009054906101000a900473ffffffffffffffffffffffffffffffffffffffff1673ffffffffffffffffffffffffffffffffffffffff1663ed96cf3984846040518363ffffffff1660e01b815260040161332e929190613d9c565b60206040518083038186803b15801561334657600080fd5b505afa15801561335a573d6000803e3d6000fd5b505050506040513d601f19601f8201168201806040525061337e9190810190613afa565b905092915050565b6000600160009054906101000a900473ffffffffffffffffffffffffffffffffffffffff1673ffffffffffffffffffffffffffffffffffffffff1663f421ba1084846040518363ffffffff1660e01b81526004016133e5929190613d9c565b60206040518083038186803b1580156133fd57600080fd5b505afa158015613411573d6000803e3d6000fd5b505050506040513d601f19601f820116820180604052506134359190810190613afa565b905092915050565b6000600160009054906101000a900473ffffffffffffffffffffffffffffffffffffffff1673ffffffffffffffffffffffffffffffffffffffff1663f7a65e608585856040518463ffffffff1660e01b815260040161349e93929190613e3a565b60206040518083038186803b1580156134b657600080fd5b505afa1580156134ca573d6000803e3d6000fd5b505050506040513d601f19601f820116820180604052506134ee9190810190613801565b90509392505050565b600081359050613506816140fe565b92915050565b60008151905061351b816140fe565b92915050565b600082601f83011261353257600080fd5b815161354561354082613fb0565b613f83565b9150818183526020840193506020810190508385602084028201111561356a57600080fd5b60005b8381101561359a578161358088826135ce565b84526020840193506020830192505060018101905061356d565b5050505092915050565b6000815190506135b381614115565b92915050565b6000813590506135c88161412c565b92915050565b6000815190506135dd8161412c565b92915050565b600082601f8301126135f457600080fd5b813561360761360282613fd8565b613f83565b9150808252602083016020830185838301111561362357600080fd5b61362e8382846140ab565b50505092915050565b600082601f83011261364857600080fd5b815161365b61365682613fd8565b613f83565b9150808252602083016020830185838301111561367757600080fd5b6136828382846140ba565b50505092915050565b60008135905061369a81614143565b92915050565b6000815190506136af81614143565b92915050565b6000602082840312156136c757600080fd5b60006136d5848285016134f7565b91505092915050565b6000602082840312156136f057600080fd5b60006136fe8482850161350c565b91505092915050565b60008060006060848603121561371c57600080fd5b600061372a8682870161350c565b935050602061373b868287016135ce565b925050604084015167ffffffffffffffff81111561375857600080fd5b61376486828701613637565b9150509250925092565b60006020828403121561378057600080fd5b600082015167ffffffffffffffff81111561379a57600080fd5b6137a684828501613521565b91505092915050565b6000602082840312156137c157600080fd5b60006137cf848285016135a4565b91505092915050565b6000602082840312156137ea57600080fd5b60006137f8848285016135b9565b91505092915050565b60006020828403121561381357600080fd5b6000613821848285016135ce565b91505092915050565b6000806040838503121561383d57600080fd5b600061384b858286016135b9565b925050602061385c858286016135b9565b9150509250929050565b60008060006060848603121561387b57600080fd5b6000613889868287016135b9565b935050602061389a868287016135b9565b92505060406138ab868287016135b9565b9150509250925092565b6000806000606084860312156138ca57600080fd5b60006138d8868287016135b9565b93505060206138e9868287016135b9565b925050604084013567ffffffffffffffff81111561390657600080fd5b613912868287016135e3565b9150509250925092565b60008060006060848603121561393157600080fd5b600061393f868287016135b9565b9350506020613950868287016135b9565b92505060406139618682870161368b565b9150509250925092565b6000806040838503121561397e57600080fd5b600061398c858286016135b9565b925050602083013567ffffffffffffffff8111156139a957600080fd5b6139b5858286016135e3565b9150509250929050565b600080604083850312156139d257600080fd5b60006139e0858286016135ce565b925050602083015167ffffffffffffffff8111156139fd57600080fd5b613a0985828601613637565b9150509250929050565b60008060408385031215613a2657600080fd5b6000613a34858286016135b9565b9250506020613a458582860161368b565b9150509250929050565b600060208284031215613a6157600080fd5b600082013567ffffffffffffffff811115613a7b57600080fd5b613a87848285016135e3565b91505092915050565b600060208284031215613aa257600080fd5b600082015167ffffffffffffffff811115613abc57600080fd5b613ac884828501613637565b91505092915050565b600060208284031215613ae357600080fd5b6000613af18482850161368b565b91505092915050565b600060208284031215613b0c57600080fd5b6000613b1a848285016136a0565b91505092915050565b600080600060608486031215613b3857600080fd5b6000613b46868287016136a0565b9350506020613b578682870161350c565b925050604084015167ffffffffffffffff811115613b7457600080fd5b613b8086828701613637565b9150509250925092565b600080600060608486031215613b9f57600080fd5b6000613bad868287016136a0565b9350506020613bbe868287016135ce565b925050604084015167ffffffffffffffff811115613bdb57600080fd5b613be786828701613637565b9150509250925092565b6000613bfd8383613c85565b60208301905092915050565b613c1281614059565b82525050565b6000613c2382614014565b613c2d8185614037565b9350613c3883614004565b8060005b83811015613c69578151613c508882613bf1565b9750613c5b8361402a565b925050600181019050613c3c565b5085935050505092915050565b613c7f8161406b565b82525050565b613c8e81614077565b82525050565b613c9d81614077565b82525050565b6000613cae8261401f565b613cb88185614048565b9350613cc88185602086016140ba565b613cd1816140ed565b840191505092915050565b613ce5816140a1565b82525050565b6000602082019050613d006000830184613c09565b92915050565b6000606082019050613d1b6000830186613c09565b613d286020830185613c94565b8181036040830152613d3a8184613ca3565b9050949350505050565b60006020820190508181036000830152613d5e8184613c18565b905092915050565b6000602082019050613d7b6000830184613c76565b92915050565b6000602082019050613d966000830184613c94565b92915050565b6000604082019050613db16000830185613c94565b613dbe6020830184613c94565b9392505050565b6000606082019050613dda6000830186613c94565b613de76020830185613c94565b613df46040830184613c94565b949350505050565b6000606082019050613e116000830186613c94565b613e1e6020830185613c94565b8181036040830152613e308184613ca3565b9050949350505050565b6000606082019050613e4f6000830186613c94565b613e5c6020830185613c94565b613e696040830184613cdc565b949350505050565b6000604082019050613e866000830185613c94565b8181036020830152613e988184613ca3565b90509392505050565b6000604082019050613eb66000830185613c94565b613ec36020830184613cdc565b9392505050565b60006020820190508181036000830152613ee48184613ca3565b905092915050565b6000602082019050613f016000830184613cdc565b92915050565b6000606082019050613f1c6000830186613cdc565b613f296020830185613c09565b8181036040830152613f3b8184613ca3565b9050949350505050565b6000606082019050613f5a6000830186613cdc565b613f676020830185613c94565b8181036040830152613f798184613ca3565b9050949350505050565b6000604051905081810181811067ffffffffffffffff82111715613fa657600080fd5b8060405250919050565b600067ffffffffffffffff821115613fc757600080fd5b602082029050602081019050919050565b600067ffffffffffffffff821115613fef57600080fd5b601f19601f8301169050602081019050919050565b6000819050602082019050919050565b600081519050919050565b600081519050919050565b6000602082019050919050565b600082825260208201905092915050565b600082825260208201905092915050565b600061406482614081565b9050919050565b60008115159050919050565b6000819050919050565b600073ffffffffffffffffffffffffffffffffffffffff82169050919050565b6000819050919050565b82818337600083830152505050565b60005b838110156140d85780820151818401526020810190506140bd565b838111156140e7576000848401525b50505050565b6000601f19601f8301169050919050565b61410781614059565b811461411257600080fd5b50565b61411e8161406b565b811461412957600080fd5b50565b61413581614077565b811461414057600080fd5b50565b61414c816140a1565b811461415757600080fd5b5056fea365627a7a72315820a3fd9db51c904f6ee5ffe1b78917c178fadb50cd6cff843720fa2408c818600e6c6578706572696d656e74616cf564736f6c6343000510004060806040526040516200001290620001a4565b604051809103906000f0801580156200002f573d6000803e3d6000fd5b50600760006101000a81548173ffffffffffffffffffffffffffffffffffffffff021916908373ffffffffffffffffffffffffffffffffffffffff1602179055503480156200007d57600080fd5b5060023390806001815401808255809150509060018203906000526020600020016000909192909190916101000a81548173ffffffffffffffffffffffffffffffffffffffff021916908373ffffffffffffffffffffffffffffffffffffffff1602179055505060038060018154018082558091505090600182039060005260206000200160007f78000000000000000000000000000000000000000000000000000000000000009091909150555060048060018154018082558091505090600182039060005260206000200160006040518060400160405280600d81526020017f6e6f742d617661696c61626c6500000000000000000000000000000000000000815250909190915090805190602001906200019c929190620001b2565b505062000261565b612116806200353d83390190565b828054600181600116156101000203166002900490600052602060002090601f016020900481019282601f10620001f557805160ff191683800117855562000226565b8280016001018555821562000226579182015b828111156200022557825182559160200191906001019062000208565b5b50905062000235919062000239565b5090565b6200025e91905b808211156200025a57600081600090555060010162000240565b5090565b90565b6132cc80620002716000396000f3fe608060405234801561001057600080fd5b50600436106102065760003560e01c80637b63cec41161011a578063c190665b116100ad578063eb9fbaa91161007c578063eb9fbaa91461076f578063ed96cf391461079f578063f421ba10146107cf578063f7932fb0146107ff578063f7a65e601461082f57610206565b8063c190665b146106c1578063cbb7e2ff146106df578063ce10cf881461070f578063dfb7ab601461073f57610206565b8063b1d5458d116100e9578063b1d5458d146105ff578063b9aa549b1461062f578063b9affb931461065f578063ba5c03351461068f57610206565b80637b63cec41461053d57806394e7ef6e1461056d578063a74380a61461059d578063ad36054b146105cd57610206565b806345cfa71d1161019d5780635fe721ff1161016c5780635fe721ff1461044d578063687619541461047d5780636cfbc8fd146104ad57806374275255146104dd5780637448d8d81461050d57610206565b806345cfa71d1461038b57806348099797146103bb5780635035cf52146103eb57806357ea0c2f1461041b57610206565b806324ecae0b116101d957806324ecae0b146102cb57806329f78d88146102fb57806330ca739b1461032b5780633fe285d51461035b57610206565b8063083121ad1461020b5780630b8d6eae1461023b5780631973ef911461026b57806320cfcbfa1461029b575b600080fd5b61022560048036036102209190810190612867565b61085f565b6040516102329190612dd3565b60405180910390f35b61025560048036036102509190810190612746565b61092a565b6040516102629190612db1565b60405180910390f35b61028560048036036102809190810190612746565b6109e3565b6040516102929190612fe6565b60405180910390f35b6102b560048036036102b091908101906127d9565b610a73565b6040516102c29190612fe6565b60405180910390f35b6102e560048036036102e09190810190612867565b610b2d565b6040516102f29190612dee565b60405180910390f35b61031560048036036103109190810190612a3d565b610bf6565b6040516103229190612ec9565b60405180910390f35b61034560048036036103409190810190612746565b610cf6565b6040516103529190612db1565b60405180910390f35b6103756004803603610370919081019061282b565b610dec565b6040516103829190612fe6565b60405180910390f35b6103a560048036036103a091908101906127d9565b610eb2565b6040516103b29190612db1565b60405180910390f35b6103d560048036036103d0919081019061282b565b610f7c565b6040516103e29190612db1565b60405180910390f35b610405600480360361040091908101906128b6565b611047565b6040516104129190612dd3565b60405180910390f35b61043560048036036104309190810190612a3d565b611114565b60405161044493929190612d73565b60405180910390f35b610467600480360361046291908101906129c0565b611270565b6040516104749190612dee565b60405180910390f35b6104976004803603610492919081019061296c565b611336565b6040516104a49190612dd3565b60405180910390f35b6104c760048036036104c291908101906127d9565b61159f565b6040516104d49190612d58565b60405180910390f35b6104f760048036036104f291908101906128b6565b61163b565b6040516105049190612dd3565b60405180910390f35b610527600480360361052291908101906127d9565b6116f7565b6040516105349190612db1565b60405180910390f35b610557600480360361055291908101906127d9565b611824565b6040516105649190612dd3565b60405180910390f35b610587600480360361058291908101906129fc565b61186d565b6040516105949190612dd3565b60405180910390f35b6105b760048036036105b29190810190612746565b61196f565b6040516105c49190612ec9565b60405180910390f35b6105e760048036036105e291908101906127d9565b611aae565b6040516105f693929190613001565b60405180910390f35b610619600480360361061491908101906127d9565b611c3f565b6040516106269190612fe6565b60405180910390f35b610649600480360361064491908101906129c0565b611ca4565b6040516106569190612dee565b60405180910390f35b61067960048036036106749190810190612746565b611d6a565b6040516106869190612dee565b60405180910390f35b6106a960048036036106a49190810190612746565b611e11565b6040516106b89392919061303f565b60405180910390f35b6106c9611ff1565b6040516106d69190612fe6565b60405180910390f35b6106f960048036036106f49190810190612a3d565b611ffe565b6040516107069190612dee565b60405180910390f35b61072960048036036107249190810190612a3d565b612066565b6040516107369190612d58565b60405180910390f35b610759600480360361075491908101906127d9565b6120ee565b6040516107669190612ec9565b60405180910390f35b61078960048036036107849190810190612746565b612202565b6040516107969190612dd3565b60405180910390f35b6107b960048036036107b4919081019061282b565b6122ba565b6040516107c69190612fe6565b60405180910390f35b6107e960048036036107e4919081019061282b565b612380565b6040516107f69190612fe6565b60405180910390f35b610819600480360361081491908101906127d9565b612446565b6040516108269190612eeb565b60405180910390f35b6108496004803603610844919081019061291d565b612483565b6040516108569190612dee565b60405180910390f35b60006005600085815260200190815260200160002060009054906101000a900473ffffffffffffffffffffffffffffffffffffffff1673ffffffffffffffffffffffffffffffffffffffff16631aa5346a84846040518363ffffffff1660e01b81526004016108cf929190612e09565b602060405180830381600087803b1580156108e957600080fd5b505af11580156108fd573d6000803e3d6000fd5b505050506040513d601f19601f8201168201806040525061092191908101906127b0565b90509392505050565b6060600760009054906101000a900473ffffffffffffffffffffffffffffffffffffffff1673ffffffffffffffffffffffffffffffffffffffff16630b8d6eae836040518263ffffffff1660e01b81526004016109879190612d58565b60006040518083038186803b15801561099f57600080fd5b505afa1580156109b3573d6000803e3d6000fd5b505050506040513d6000823e3d601f19601f820116820180604052506109dc919081019061276f565b9050919050565b60006109ee82612202565b610a2d576040517f08c379a0000000000000000000000000000000000000000000000000000000008152600401610a2490612f06565b60405180910390fd5b6000808373ffffffffffffffffffffffffffffffffffffffff1673ffffffffffffffffffffffffffffffffffffffff168152602001908152602001600020549050919050565b60006005600083815260200190815260200160002060009054906101000a900473ffffffffffffffffffffffffffffffffffffffff1673ffffffffffffffffffffffffffffffffffffffff1663624a4dac6040518163ffffffff1660e01b815260040160206040518083038186803b158015610aee57600080fd5b505afa158015610b02573d6000803e3d6000fd5b505050506040513d601f19601f82011682018060405250610b269190810190612a66565b9050919050565b60006005600085815260200190815260200160002060009054906101000a900473ffffffffffffffffffffffffffffffffffffffff1673ffffffffffffffffffffffffffffffffffffffff16634b0cf75e84846040518363ffffffff1660e01b8152600401610b9d929190612e09565b60206040518083038186803b158015610bb557600080fd5b505afa158015610bc9573d6000803e3d6000fd5b505050506040513d601f19601f82011682018060405250610bed9190810190612802565b90509392505050565b60606002805490508210610c3f576040517f08c379a0000000000000000000000000000000000000000000000000000000008152600401610c3690612fa6565b60405180910390fd5b60048281548110610c4c57fe5b906000526020600020018054600181600116156101000203166002900480601f016020809104026020016040519081016040528092919081815260200182805460018160011615610100020316600290048015610cea5780601f10610cbf57610100808354040283529160200191610cea565b820191906000526020600020905b815481529060010190602001808311610ccd57829003601f168201915b50505050509050919050565b6060600660008373ffffffffffffffffffffffffffffffffffffffff1673ffffffffffffffffffffffffffffffffffffffff16815260200190815260200160002060009054906101000a900473ffffffffffffffffffffffffffffffffffffffff1673ffffffffffffffffffffffffffffffffffffffff166330ca739b836040518263ffffffff1660e01b8152600401610d909190612d58565b60006040518083038186803b158015610da857600080fd5b505afa158015610dbc573d6000803e3d6000fd5b505050506040513d6000823e3d601f19601f82011682018060405250610de5919081019061276f565b9050919050565b60006005600084815260200190815260200160002060009054906101000a900473ffffffffffffffffffffffffffffffffffffffff1673ffffffffffffffffffffffffffffffffffffffff16632dce4167836040518263ffffffff1660e01b8152600401610e5a9190612dee565b60206040518083038186803b158015610e7257600080fd5b505afa158015610e86573d6000803e3d6000fd5b505050506040513d601f19601f82011682018060405250610eaa9190810190612a66565b905092915050565b60606005600083815260200190815260200160002060009054906101000a900473ffffffffffffffffffffffffffffffffffffffff1673ffffffffffffffffffffffffffffffffffffffff166345cfa71d836040518263ffffffff1660e01b8152600401610f209190612dee565b60006040518083038186803b158015610f3857600080fd5b505afa158015610f4c573d6000803e3d6000fd5b505050506040513d6000823e3d601f19601f82011682018060405250610f75919081019061276f565b9050919050565b60606005600084815260200190815260200160002060009054906101000a900473ffffffffffffffffffffffffffffffffffffffff1673ffffffffffffffffffffffffffffffffffffffff1663281c8ab7836040518263ffffffff1660e01b8152600401610fea9190612dee565b60006040518083038186803b15801561100257600080fd5b505afa158015611016573d6000803e3d6000fd5b505050506040513d6000823e3d601f19601f8201168201806040525061103f919081019061276f565b905092915050565b60006005600085815260200190815260200160002060009054906101000a900473ffffffffffffffffffffffffffffffffffffffff1673ffffffffffffffffffffffffffffffffffffffff16635035cf528585856040518463ffffffff1660e01b81526004016110b993929190612e32565b602060405180830381600087803b1580156110d357600080fd5b505af11580156110e7573d6000803e3d6000fd5b505050506040513d601f19601f8201168201806040525061110b91908101906127b0565b90509392505050565b60008060606002805490508410611160576040517f08c379a000000000000000000000000000000000000000000000000000000000815260040161115790612fa6565b60405180910390fd5b6002848154811061116d57fe5b9060005260206000200160009054906101000a900473ffffffffffffffffffffffffffffffffffffffff16600385815481106111a557fe5b9060005260206000200154600486815481106111bd57fe5b90600052602060002001808054600181600116156101000203166002900480601f01602080910402602001604051908101604052809291908181526020018280546001816001161561010002031660029004801561125c5780601f106112315761010080835404028352916020019161125c565b820191906000526020600020905b81548152906001019060200180831161123f57829003601f168201915b505050505090509250925092509193909250565b60006005600084815260200190815260200160002060009054906101000a900473ffffffffffffffffffffffffffffffffffffffff1673ffffffffffffffffffffffffffffffffffffffff16639b9fc6e0836040518263ffffffff1660e01b81526004016112de9190612fe6565b60206040518083038186803b1580156112f657600080fd5b505afa15801561130a573d6000803e3d6000fd5b505050506040513d601f19601f8201168201806040525061132e9190810190612802565b905092915050565b600061134133612202565b15611381576040517f08c379a000000000000000000000000000000000000000000000000000000000815260040161137890612fc6565b60405180910390fd5b61138a83611824565b156113ca576040517f08c379a00000000000000000000000000000000000000000000000000000000081526004016113c190612f46565b60405180910390fd5b600760009054906101000a900473ffffffffffffffffffffffffffffffffffffffff1673ffffffffffffffffffffffffffffffffffffffff166398e2fc8084846040518363ffffffff1660e01b8152600401611427929190612e70565b600060405180830381600087803b15801561144157600080fd5b505af1158015611455573d6000803e3d6000fd5b5050505060023390806001815401808255809150509060018203906000526020600020016000909192909190916101000a81548173ffffffffffffffffffffffffffffffffffffffff021916908373ffffffffffffffffffffffffffffffffffffffff160217905550506003839080600181540180825580915050906001820390600052602060002001600090919290919091505550600482908060018154018082558091505090600182039060005260206000200160009091929091909150908051906020019061152892919061254c565b50506001600280549050036000803373ffffffffffffffffffffffffffffffffffffffff1673ffffffffffffffffffffffffffffffffffffffff1681526020019081526020016000208190555060016002805490500360016000858152602001908152602001600020819055506001905092915050565b60006115aa82611824565b6115e9576040517f08c379a00000000000000000000000000000000000000000000000000000000081526004016115e090612f26565b60405180910390fd5b600260016000848152602001908152602001600020548154811061160957fe5b9060005260206000200160009054906101000a900473ffffffffffffffffffffffffffffffffffffffff169050919050565b6000600760009054906101000a900473ffffffffffffffffffffffffffffffffffffffff1673ffffffffffffffffffffffffffffffffffffffff1663742752558585856040518463ffffffff1660e01b815260040161169c93929190612e32565b602060405180830381600087803b1580156116b657600080fd5b505af11580156116ca573d6000803e3d6000fd5b505050506040513d601f19601f820116820180604052506116ee91908101906127b0565b90509392505050565b606061171d6117186001600085815260200190815260200160002054612066565b612202565b61175c576040517f08c379a000000000000000000000000000000000000000000000000000000000815260040161175390612f86565b60405180910390fd5b6005600083815260200190815260200160002060009054906101000a900473ffffffffffffffffffffffffffffffffffffffff1673ffffffffffffffffffffffffffffffffffffffff16637448d8d8836040518263ffffffff1660e01b81526004016117c89190612dee565b60006040518083038186803b1580156117e057600080fd5b505afa1580156117f4573d6000803e3d6000fd5b505050506040513d6000823e3d601f19601f8201168201806040525061181d919081019061276f565b9050919050565b6000806001600084815260200190815260200160002054118061186657507f73656c660000000000000000000000000000000000000000000000000000000082145b9050919050565b600061187833612202565b156118b8576040517f08c379a00000000000000000000000000000000000000000000000000000000081526004016118af90612fc6565b60405180910390fd5b600760009054906101000a900473ffffffffffffffffffffffffffffffffffffffff1673ffffffffffffffffffffffffffffffffffffffff166394e7ef6e836040518263ffffffff1660e01b81526004016119139190612ec9565b602060405180830381600087803b15801561192d57600080fd5b505af1158015611941573d6000803e3d6000fd5b505050506040513d601f19601f8201168201806040525061196591908101906127b0565b5060019050919050565b606061197a82612202565b6119b9576040517f08c379a00000000000000000000000000000000000000000000000000000000081526004016119b090612f06565b60405180910390fd5b60046000808473ffffffffffffffffffffffffffffffffffffffff1673ffffffffffffffffffffffffffffffffffffffff1681526020019081526020016000205481548110611a0457fe5b906000526020600020018054600181600116156101000203166002900480601f016020809104026020016040519081016040528092919081815260200182805460018160011615610100020316600290048015611aa25780601f10611a7757610100808354040283529160200191611aa2565b820191906000526020600020905b815481529060010190602001808311611a8557829003601f168201915b50505050509050919050565b6000806060600280549050600160008681526020019081526020016000205410611b0d576040517f08c379a0000000000000000000000000000000000000000000000000000000008152600401611b0490612f66565b60405180910390fd5b60016000858152602001908152602001600020546002600160008781526020019081526020016000205481548110611b4157fe5b9060005260206000200160009054906101000a900473ffffffffffffffffffffffffffffffffffffffff166004600160008881526020019081526020016000205481548110611b8c57fe5b90600052602060002001808054600181600116156101000203166002900480601f016020809104026020016040519081016040528092919081815260200182805460018160011615610100020316600290048015611c2b5780601f10611c0057610100808354040283529160200191611c2b565b820191906000526020600020905b815481529060010190602001808311611c0e57829003601f168201915b505050505090509250925092509193909250565b6000611c4a82611824565b611c89576040517f08c379a0000000000000000000000000000000000000000000000000000000008152600401611c8090612f26565b60405180910390fd5b60016000838152602001908152602001600020549050919050565b60006005600084815260200190815260200160002060009054906101000a900473ffffffffffffffffffffffffffffffffffffffff1673ffffffffffffffffffffffffffffffffffffffff1663511ad522836040518263ffffffff1660e01b8152600401611d129190612fe6565b60206040518083038186803b158015611d2a57600080fd5b505afa158015611d3e573d6000803e3d6000fd5b505050506040513d601f19601f82011682018060405250611d629190810190612802565b905092915050565b6000611d7582612202565b611db4576040517f08c379a0000000000000000000000000000000000000000000000000000000008152600401611dab90612f06565b60405180910390fd5b60036000808473ffffffffffffffffffffffffffffffffffffffff1673ffffffffffffffffffffffffffffffffffffffff1681526020019081526020016000205481548110611dff57fe5b90600052602060002001549050919050565b6000806060611e1f84612202565b611e5e576040517f08c379a0000000000000000000000000000000000000000000000000000000008152600401611e5590612f06565b60405180910390fd5b6000808573ffffffffffffffffffffffffffffffffffffffff1673ffffffffffffffffffffffffffffffffffffffff1681526020019081526020016000205460036000808773ffffffffffffffffffffffffffffffffffffffff1673ffffffffffffffffffffffffffffffffffffffff1681526020019081526020016000205481548110611ee857fe5b906000526020600020015460046000808873ffffffffffffffffffffffffffffffffffffffff1673ffffffffffffffffffffffffffffffffffffffff1681526020019081526020016000205481548110611f3e57fe5b90600052602060002001808054600181600116156101000203166002900480601f016020809104026020016040519081016040528092919081815260200182805460018160011615610100020316600290048015611fdd5780601f10611fb257610100808354040283529160200191611fdd565b820191906000526020600020905b815481529060010190602001808311611fc057829003601f168201915b505050505090509250925092509193909250565b6000600280549050905090565b60006002805490508210612047576040517f08c379a000000000000000000000000000000000000000000000000000000000815260040161203e90612fa6565b60405180910390fd5b6003828154811061205457fe5b90600052602060002001549050919050565b600060028054905082106120af576040517f08c379a00000000000000000000000000000000000000000000000000000000081526004016120a690612fa6565b60405180910390fd5b600282815481106120bc57fe5b9060005260206000200160009054906101000a900473ffffffffffffffffffffffffffffffffffffffff169050919050565b60606120f982611824565b612138576040517f08c379a000000000000000000000000000000000000000000000000000000000815260040161212f90612f26565b60405180910390fd5b600460016000848152602001908152602001600020548154811061215857fe5b906000526020600020018054600181600116156101000203166002900480601f0160208091040260200160405190810160405280929190818152602001828054600181600116156101000203166002900480156121f65780601f106121cb576101008083540402835291602001916121f6565b820191906000526020600020905b8154815290600101906020018083116121d957829003601f168201915b50505050509050919050565b6000806000808473ffffffffffffffffffffffffffffffffffffffff1673ffffffffffffffffffffffffffffffffffffffff1681526020019081526020016000205411806122b35750600260008154811061225957fe5b9060005260206000200160009054906101000a900473ffffffffffffffffffffffffffffffffffffffff1673ffffffffffffffffffffffffffffffffffffffff168273ffffffffffffffffffffffffffffffffffffffff16145b9050919050565b60006005600084815260200190815260200160002060009054906101000a900473ffffffffffffffffffffffffffffffffffffffff1673ffffffffffffffffffffffffffffffffffffffff1663234c1618836040518263ffffffff1660e01b81526004016123289190612dee565b60206040518083038186803b15801561234057600080fd5b505afa158015612354573d6000803e3d6000fd5b505050506040513d601f19601f820116820180604052506123789190810190612a66565b905092915050565b60006005600084815260200190815260200160002060009054906101000a900473ffffffffffffffffffffffffffffffffffffffff1673ffffffffffffffffffffffffffffffffffffffff16634ed37f49836040518263ffffffff1660e01b81526004016123ee9190612dee565b60206040518083038186803b15801561240657600080fd5b505afa15801561241a573d6000803e3d6000fd5b505050506040513d601f19601f8201168201806040525061243e9190810190612a66565b905092915050565b60006005600083815260200190815260200160002060009054906101000a900473ffffffffffffffffffffffffffffffffffffffff169050919050565b60006005600085815260200190815260200160002060009054906101000a900473ffffffffffffffffffffffffffffffffffffffff1673ffffffffffffffffffffffffffffffffffffffff166348ec275584846040518363ffffffff1660e01b81526004016124f3929190612ea0565b60206040518083038186803b15801561250b57600080fd5b505afa15801561251f573d6000803e3d6000fd5b505050506040513d601f19601f820116820180604052506125439190810190612802565b90509392505050565b828054600181600116156101000203166002900490600052602060002090601f016020900481019282601f1061258d57805160ff19168380011785556125bb565b828001600101855582156125bb579182015b828111156125ba57825182559160200191906001019061259f565b5b5090506125c891906125cc565b5090565b6125ee91905b808211156125ea5760008160009055506001016125d2565b5090565b90565b6000813590506126008161322d565b92915050565b600082601f83011261261757600080fd5b815161262a612625826130aa565b61307d565b9150818183526020840193506020810190508385602084028201111561264f57600080fd5b60005b8381101561267f578161266588826126b3565b845260208401935060208301925050600181019050612652565b5050505092915050565b60008151905061269881613244565b92915050565b6000813590506126ad8161325b565b92915050565b6000815190506126c28161325b565b92915050565b600082601f8301126126d957600080fd5b81356126ec6126e7826130d2565b61307d565b9150808252602083016020830185838301111561270857600080fd5b6127138382846131da565b50505092915050565b60008135905061272b81613272565b92915050565b60008151905061274081613272565b92915050565b60006020828403121561275857600080fd5b6000612766848285016125f1565b91505092915050565b60006020828403121561278157600080fd5b600082015167ffffffffffffffff81111561279b57600080fd5b6127a784828501612606565b91505092915050565b6000602082840312156127c257600080fd5b60006127d084828501612689565b91505092915050565b6000602082840312156127eb57600080fd5b60006127f98482850161269e565b91505092915050565b60006020828403121561281457600080fd5b6000612822848285016126b3565b91505092915050565b6000806040838503121561283e57600080fd5b600061284c8582860161269e565b925050602061285d8582860161269e565b9150509250929050565b60008060006060848603121561287c57600080fd5b600061288a8682870161269e565b935050602061289b8682870161269e565b92505060406128ac8682870161269e565b9150509250925092565b6000806000606084860312156128cb57600080fd5b60006128d98682870161269e565b93505060206128ea8682870161269e565b925050604084013567ffffffffffffffff81111561290757600080fd5b612913868287016126c8565b9150509250925092565b60008060006060848603121561293257600080fd5b60006129408682870161269e565b93505060206129518682870161269e565b92505060406129628682870161271c565b9150509250925092565b6000806040838503121561297f57600080fd5b600061298d8582860161269e565b925050602083013567ffffffffffffffff8111156129aa57600080fd5b6129b6858286016126c8565b9150509250929050565b600080604083850312156129d357600080fd5b60006129e18582860161269e565b92505060206129f28582860161271c565b9150509250929050565b600060208284031215612a0e57600080fd5b600082013567ffffffffffffffff811115612a2857600080fd5b612a34848285016126c8565b91505092915050565b600060208284031215612a4f57600080fd5b6000612a5d8482850161271c565b91505092915050565b600060208284031215612a7857600080fd5b6000612a8684828501612731565b91505092915050565b6000612a9b8383612b23565b60208301905092915050565b612ab081613164565b82525050565b6000612ac18261310e565b612acb8185613131565b9350612ad6836130fe565b8060005b83811015612b07578151612aee8882612a8f565b9750612af983613124565b925050600181019050612ada565b5085935050505092915050565b612b1d81613176565b82525050565b612b2c81613182565b82525050565b612b3b81613182565b82525050565b6000612b4c82613119565b612b568185613142565b9350612b668185602086016131e9565b612b6f8161321c565b840191505092915050565b612b83816131b6565b82525050565b6000612b96601683613153565b91507f50617469656e7420646f65736e277420657869737421000000000000000000006000830152602082019050919050565b6000612bd6601783613153565b91507f43616e27742066696e64207468652070617469656e74210000000000000000006000830152602082019050919050565b6000612c16601c83613153565b91507f50617469656e74206e616d6520686173206265656e2074616b656e2e000000006000830152602082019050919050565b6000612c56601b83613153565b91507f50617469656e7420696e646578206f7574206f6620626f756e642100000000006000830152602082019050919050565b6000612c96601a83613153565b91507f50617469656e74206861736e2774206265656e20666f756e642e0000000000006000830152602082019050919050565b6000612cd6601383613153565b91507f496e646578206f7574206f6620626f756e6421000000000000000000000000006000830152602082019050919050565b6000612d16601683613153565b91507f53656e646572206e6f7420617574686f72697a65642e000000000000000000006000830152602082019050919050565b612d52816131ac565b82525050565b6000602082019050612d6d6000830184612aa7565b92915050565b6000606082019050612d886000830186612aa7565b612d956020830185612b32565b8181036040830152612da78184612b41565b9050949350505050565b60006020820190508181036000830152612dcb8184612ab6565b905092915050565b6000602082019050612de86000830184612b14565b92915050565b6000602082019050612e036000830184612b32565b92915050565b6000604082019050612e1e6000830185612b32565b612e2b6020830184612b32565b9392505050565b6000606082019050612e476000830186612b32565b612e546020830185612b32565b8181036040830152612e668184612b41565b9050949350505050565b6000604082019050612e856000830185612b32565b8181036020830152612e978184612b41565b90509392505050565b6000604082019050612eb56000830185612b32565b612ec26020830184612d49565b9392505050565b60006020820190508181036000830152612ee38184612b41565b905092915050565b6000602082019050612f006000830184612b7a565b92915050565b60006020820190508181036000830152612f1f81612b89565b9050919050565b60006020820190508181036000830152612f3f81612bc9565b9050919050565b60006020820190508181036000830152612f5f81612c09565b9050919050565b60006020820190508181036000830152612f7f81612c49565b9050919050565b60006020820190508181036000830152612f9f81612c89565b9050919050565b60006020820190508181036000830152612fbf81612cc9565b9050919050565b60006020820190508181036000830152612fdf81612d09565b9050919050565b6000602082019050612ffb6000830184612d49565b92915050565b60006060820190506130166000830186612d49565b6130236020830185612aa7565b81810360408301526130358184612b41565b9050949350505050565b60006060820190506130546000830186612d49565b6130616020830185612b32565b81810360408301526130738184612b41565b9050949350505050565b6000604051905081810181811067ffffffffffffffff821117156130a057600080fd5b8060405250919050565b600067ffffffffffffffff8211156130c157600080fd5b602082029050602081019050919050565b600067ffffffffffffffff8211156130e957600080fd5b601f19601f8301169050602081019050919050565b6000819050602082019050919050565b600081519050919050565b600081519050919050565b6000602082019050919050565b600082825260208201905092915050565b600082825260208201905092915050565b600082825260208201905092915050565b600061316f8261318c565b9050919050565b60008115159050919050565b6000819050919050565b600073ffffffffffffffffffffffffffffffffffffffff82169050919050565b6000819050919050565b60006131c1826131c8565b9050919050565b60006131d38261318c565b9050919050565b82818337600083830152505050565b60005b838110156132075780820151818401526020810190506131ec565b83811115613216576000848401525b50505050565b6000601f19601f8301169050919050565b61323681613164565b811461324157600080fd5b50565b61324d81613176565b811461325857600080fd5b50565b61326481613182565b811461326f57600080fd5b50565b61327b816131ac565b811461328657600080fd5b5056fea365627a7a72315820e36c240ec26f36e44caab3ac41e55ba53344291c7d3db2b44ab5979e265a52416c6578706572696d656e74616cf564736f6c634300051000406080604052604051620000129062000235565b604051809103906000f0801580156200002f573d6000803e3d6000fd5b50600360006101000a81548173ffffffffffffffffffffffffffffffffffffffff021916908373ffffffffffffffffffffffffffffffffffffffff1602179055506040516200007e9062000243565b604051809103906000f0801580156200009b573d6000803e3d6000fd5b50600960006101000a81548173ffffffffffffffffffffffffffffffffffffffff021916908373ffffffffffffffffffffffffffffffffffffffff160217905550348015620000e957600080fd5b50336000806101000a81548173ffffffffffffffffffffffffffffffffffffffff021916908373ffffffffffffffffffffffffffffffffffffffff1602179055507f78000000000000000000000000000000000000000000000000000000000000006001819055506040518060400160405280600181526020017f7800000000000000000000000000000000000000000000000000000000000000815250600290805190602001906200019e92919062000251565b5060088060018154018082558091505090600182039060005260206000200160007f6e6f742d617661696c61626c650000000000000000000000000000000000000090919091505550600d8060018154018082558091505090600182039060005260206000200160007f6e6f742d617661696c61626c65000000000000000000000000000000000000009091909150555062000300565b6104958062001ac983390190565b6101b88062001f5e83390190565b828054600181600116156101000203166002900490600052602060002090601f016020900481019282601f106200029457805160ff1916838001178555620002c5565b82800160010185558215620002c5579182015b82811115620002c4578251825591602001919060010190620002a7565b5b509050620002d49190620002d8565b5090565b620002fd91905b80821115620002f9576000816000905550600101620002df565b5090565b90565b6117b980620003106000396000f3fe608060405234801561001057600080fd5b50600436106101215760003560e01c80634ed37f49116100ad5780637448d8d8116100715780637448d8d8146103b457806394e7ef6e146103e457806398e2fc80146104145780639b9fc6e014610430578063f811f1ab1461046057610121565b80634ed37f49146102d65780635035cf5214610306578063511ad52214610336578063624a4dac14610366578063742752551461038457610121565b80632dce4167116100f45780632dce4167146101e657806330ca739b1461021657806345cfa71d1461024657806348ec2755146102765780634b0cf75e146102a657610121565b80630b8d6eae146101265780631aa5346a14610156578063234c161814610186578063281c8ab7146101b6575b600080fd5b610140600480360361013b919081019061118a565b61047e565b60405161014d919061152d565b60405180910390f35b610170600480360361016b919081019061126f565b610515565b60405161017d919061154f565b60405180910390f35b6101a0600480360361019b919081019061121d565b6105dd565b6040516101ad91906115ae565b60405180910390f35b6101d060048036036101cb919081019061121d565b6105fa565b6040516101dd919061152d565b60405180910390f35b61020060048036036101fb919081019061121d565b6106b9565b60405161020d91906115ae565b60405180910390f35b610230600480360361022b919081019061118a565b6106d6565b60405161023d919061152d565b60405180910390f35b610260600480360361025b919081019061121d565b61076d565b60405161026d919061152d565b60405180910390f35b610290600480360361028b9190810190611366565b6107d8565b60405161029d919061156a565b60405180910390f35b6102c060048036036102bb919081019061126f565b61089e565b6040516102cd919061156a565b60405180910390f35b6102f060048036036102eb919081019061121d565b610964565b6040516102fd91906115ae565b60405180910390f35b610320600480360361031b91908101906112ab565b610a1e565b60405161032d919061154f565b60405180910390f35b610350600480360361034b91908101906113e3565b610bbc565b60405161035d919061156a565b60405180910390f35b61036e610bdd565b60405161037b91906115ae565b60405180910390f35b61039e600480360361039991908101906112ab565b610bea565b6040516103ab919061154f565b60405180910390f35b6103ce60048036036103c9919081019061121d565b610dfc565b6040516103db919061152d565b60405180910390f35b6103fe60048036036103f991908101906113a2565b610e67565b60405161040b919061154f565b60405180910390f35b61042e60048036036104299190810190611312565b610e89565b005b61044a600480360361044591908101906113e3565b610eeb565b604051610457919061156a565b60405180910390f35b610468610f0c565b60405161047591906115ae565b60405180910390f35b6060600660008373ffffffffffffffffffffffffffffffffffffffff1673ffffffffffffffffffffffffffffffffffffffff16815260200190815260200160002080548060200260200160405190810160405280929190818152602001828054801561050957602002820191906000526020600020905b8154815260200190600101908083116104f5575b50505050509050919050565b60006007600084815260200190815260200160002060009054906101000a900473ffffffffffffffffffffffffffffffffffffffff1673ffffffffffffffffffffffffffffffffffffffff16631f97c4c3836040518263ffffffff1660e01b8152600401610583919061156a565b602060405180830381600087803b15801561059d57600080fd5b505af11580156105b1573d6000803e3d6000fd5b505050506040513d601f19601f820116820180604052506105d591908101906111f4565b905092915050565b6000600a6000838152602001908152602001600020549050919050565b60606007600083815260200190815260200160002060009054906101000a900473ffffffffffffffffffffffffffffffffffffffff1673ffffffffffffffffffffffffffffffffffffffff166377e4afe46040518163ffffffff1660e01b815260040160006040518083038186803b15801561067557600080fd5b505afa158015610689573d6000803e3d6000fd5b505050506040513d6000823e3d601f19601f820116820180604052506106b291908101906111b3565b9050919050565b600060046000838152602001908152602001600020549050919050565b6060600660008373ffffffffffffffffffffffffffffffffffffffff1673ffffffffffffffffffffffffffffffffffffffff16815260200190815260200160002080548060200260200160405190810160405280929190818152602001828054801561076157602002820191906000526020600020905b81548152602001906001019080831161074d575b50505050509050919050565b6060600b60008381526020019081526020016000208054806020026020016040519081016040528092919081815260200182805480156107cc57602002820191906000526020600020905b8154815260200190600101908083116107b8575b50505050509050919050565b60006007600084815260200190815260200160002060009054906101000a900473ffffffffffffffffffffffffffffffffffffffff1673ffffffffffffffffffffffffffffffffffffffff16631e50b182836040518263ffffffff1660e01b815260040161084691906115ae565b60206040518083038186803b15801561085e57600080fd5b505afa158015610872573d6000803e3d6000fd5b505050506040513d601f19601f820116820180604052506108969190810190611246565b905092915050565b60006007600084815260200190815260200160002060009054906101000a900473ffffffffffffffffffffffffffffffffffffffff1673ffffffffffffffffffffffffffffffffffffffff1663c294ab1e836040518263ffffffff1660e01b815260040161090c919061156a565b60206040518083038186803b15801561092457600080fd5b505afa158015610938573d6000803e3d6000fd5b505050506040513d601f19601f8201168201806040525061095c9190810190611246565b905092915050565b60006007600083815260200190815260200160002060009054906101000a900473ffffffffffffffffffffffffffffffffffffffff1673ffffffffffffffffffffffffffffffffffffffff1663cd2483416040518163ffffffff1660e01b815260040160206040518083038186803b1580156109df57600080fd5b505afa1580156109f3573d6000803e3d6000fd5b505050506040513d601f19601f82011682018060405250610a17919081019061140c565b9050919050565b6000600960009054906101000a900473ffffffffffffffffffffffffffffffffffffffff1673ffffffffffffffffffffffffffffffffffffffff1663949f3a4e3386866040518463ffffffff1660e01b8152600401610a7f939291906114f6565b600060405180830381600087803b158015610a9957600080fd5b505af1158015610aad573d6000803e3d6000fd5b50505050600d839080600181540180825580915050906001820390600052602060002001600090919290919091505550600d80549050600a600085815260200190815260200160002081905550600d600b6000868152602001908152602001600020908054610b1d929190610f19565b50600d600c60003373ffffffffffffffffffffffffffffffffffffffff1673ffffffffffffffffffffffffffffffffffffffff168152602001908152602001600020908054610b6d929190610f19565b50610b7782610e67565b507f2bb590431d1dfc5d86ac3f951c70a27b4818eb2e4bc69ba773cf6f12b3ca98158484604051610ba9929190611585565b60405180910390a1600190509392505050565b6000600d8281548110610bcb57fe5b90600052602060002001549050919050565b6000600d80549050905090565b6000600360009054906101000a900473ffffffffffffffffffffffffffffffffffffffff1673ffffffffffffffffffffffffffffffffffffffff16637a84135d3386866040518463ffffffff1660e01b8152600401610c4b939291906114f6565b600060405180830381600087803b158015610c6557600080fd5b505af1158015610c79573d6000803e3d6000fd5b5050505060088390806001815401808255809150509060018203906000526020600020016000909192909190915055506008805490506004600085815260200190815260200160002081905550600860056000868152602001908152602001600020908054610ce9929190610f19565b506008600660003373ffffffffffffffffffffffffffffffffffffffff1673ffffffffffffffffffffffffffffffffffffffff168152602001908152602001600020908054610d39929190610f19565b50600360009054906101000a900473ffffffffffffffffffffffffffffffffffffffff166007600085815260200190815260200160002060006101000a81548173ffffffffffffffffffffffffffffffffffffffff021916908373ffffffffffffffffffffffffffffffffffffffff160217905550610db782610e67565b507f8f4940dfc4a4a23294dbd13e6f0929ba11b468a44fc5005a4f895430a844d1088484604051610de9929190611585565b60405180910390a1600190509392505050565b606060056000838152602001908152602001600020805480602002602001604051908101604052809291908181526020018280548015610e5b57602002820191906000526020600020905b815481526020019060010190808311610e47575b50505050509050919050565b60008160029080519060200190610e7f929190610f6b565b5060019050919050565b336000806101000a81548173ffffffffffffffffffffffffffffffffffffffff021916908373ffffffffffffffffffffffffffffffffffffffff160217905550816001819055508060029080519060200190610ee6929190610f6b565b505050565b600060088281548110610efa57fe5b90600052602060002001549050919050565b6000600880549050905090565b828054828255906000526020600020908101928215610f5a5760005260206000209182015b82811115610f59578254825591600101919060010190610f3e565b5b509050610f679190610feb565b5090565b828054600181600116156101000203166002900490600052602060002090601f016020900481019282601f10610fac57805160ff1916838001178555610fda565b82800160010185558215610fda579182015b82811115610fd9578251825591602001919060010190610fbe565b5b509050610fe79190611010565b5090565b61100d91905b80821115611009576000816000905550600101610ff1565b5090565b90565b61103291905b8082111561102e576000816000905550600101611016565b5090565b90565b6000813590506110448161171a565b92915050565b600082601f83011261105b57600080fd5b815161106e611069826115f6565b6115c9565b9150818183526020840193506020810190508385602084028201111561109357600080fd5b60005b838110156110c357816110a988826110f7565b845260208401935060208301925050600181019050611096565b5050505092915050565b6000815190506110dc81611731565b92915050565b6000813590506110f181611748565b92915050565b60008151905061110681611748565b92915050565b600082601f83011261111d57600080fd5b813561113061112b8261161e565b6115c9565b9150808252602083016020830185838301111561114c57600080fd5b61115783828461170b565b50505092915050565b60008135905061116f8161175f565b92915050565b6000815190506111848161175f565b92915050565b60006020828403121561119c57600080fd5b60006111aa84828501611035565b91505092915050565b6000602082840312156111c557600080fd5b600082015167ffffffffffffffff8111156111df57600080fd5b6111eb8482850161104a565b91505092915050565b60006020828403121561120657600080fd5b6000611214848285016110cd565b91505092915050565b60006020828403121561122f57600080fd5b600061123d848285016110e2565b91505092915050565b60006020828403121561125857600080fd5b6000611266848285016110f7565b91505092915050565b6000806040838503121561128257600080fd5b6000611290858286016110e2565b92505060206112a1858286016110e2565b9150509250929050565b6000806000606084860312156112c057600080fd5b60006112ce868287016110e2565b93505060206112df868287016110e2565b925050604084013567ffffffffffffffff8111156112fc57600080fd5b6113088682870161110c565b9150509250925092565b6000806040838503121561132557600080fd5b6000611333858286016110e2565b925050602083013567ffffffffffffffff81111561135057600080fd5b61135c8582860161110c565b9150509250929050565b6000806040838503121561137957600080fd5b6000611387858286016110e2565b925050602061139885828601611160565b9150509250929050565b6000602082840312156113b457600080fd5b600082013567ffffffffffffffff8111156113ce57600080fd5b6113da8482850161110c565b91505092915050565b6000602082840312156113f557600080fd5b600061140384828501611160565b91505092915050565b60006020828403121561141e57600080fd5b600061142c84828501611175565b91505092915050565b600061144183836114c9565b60208301905092915050565b611456816116d5565b82525050565b60006114678261165a565b6114718185611672565b935061147c8361164a565b8060005b838110156114ad5781516114948882611435565b975061149f83611665565b925050600181019050611480565b5085935050505092915050565b6114c381611695565b82525050565b6114d2816116a1565b82525050565b6114e1816116a1565b82525050565b6114f0816116cb565b82525050565b600060608201905061150b600083018661144d565b61151860208301856114d8565b61152560408301846114d8565b949350505050565b60006020820190508181036000830152611547818461145c565b905092915050565b600060208201905061156460008301846114ba565b92915050565b600060208201905061157f60008301846114d8565b92915050565b600060408201905061159a60008301856114d8565b6115a760208301846114d8565b9392505050565b60006020820190506115c360008301846114e7565b92915050565b6000604051905081810181811067ffffffffffffffff821117156115ec57600080fd5b8060405250919050565b600067ffffffffffffffff82111561160d57600080fd5b602082029050602081019050919050565b600067ffffffffffffffff82111561163557600080fd5b601f19601f8301169050602081019050919050565b6000819050602082019050919050565b600081519050919050565b6000602082019050919050565b600082825260208201905092915050565b600061168e826116ab565b9050919050565b60008115159050919050565b6000819050919050565b600073ffffffffffffffffffffffffffffffffffffffff82169050919050565b6000819050919050565b60006116e0826116e7565b9050919050565b60006116f2826116f9565b9050919050565b6000611704826116ab565b9050919050565b82818337600083830152505050565b61172381611683565b811461172e57600080fd5b50565b61173a81611695565b811461174557600080fd5b50565b611751816116a1565b811461175c57600080fd5b50565b611768816116cb565b811461177357600080fd5b5056fea365627a7a72315820af6d5fa3dac9783db29b9f4619fb14dc185ab1b1110f682ba73150c00ab83c136c6578706572696d656e74616cf564736f6c63430005100040608060405234801561001057600080fd5b50336000806101000a81548173ffffffffffffffffffffffffffffffffffffffff021916908373ffffffffffffffffffffffffffffffffffffffff1602179055507f78000000000000000000000000000000000000000000000000000000000000006001819055507f780000000000000000000000000000000000000000000000000000000000000060028190555060038060018154018082558091505090600182039060005260206000200160007f6e6f742d617661696c61626c65000000000000000000000000000000000000009091909150555061039f806100f66000396000f3fe608060405234801561001057600080fd5b50600436106100625760003560e01c80631e50b182146100675780631f97c4c3146100a957806377e4afe4146100ef5780637a84135d1461014e578063c294ab1e146101a6578063cd248341146101e8575b600080fd5b6100936004803603602081101561007d57600080fd5b8101908080359060200190929190505050610206565b6040518082815260200191505060405180910390f35b6100d5600480360360208110156100bf57600080fd5b8101908080359060200190929190505050610227565b604051808215151515815260200191505060405180910390f35b6100f761027e565b6040518080602001828103825283818151815260200191508051906020019060200280838360005b8381101561013a57808201518184015260208101905061011f565b505050509050019250505060405180910390f35b6101a46004803603606081101561016457600080fd5b81019080803573ffffffffffffffffffffffffffffffffffffffff16906020019092919080359060200190929190803590602001909291905050506102d6565b005b6101d2600480360360208110156101bc57600080fd5b8101908080359060200190929190505050610329565b6040518082815260200191505060405180910390f35b6101f061035d565b6040518082815260200191505060405180910390f35b60006003828154811061021557fe5b90600052602060002001549050919050565b60006003829080600181540180825580915050906001820390600052602060002001600090919290919091505550600160038054905003600460008481526020019081526020016000208190555060019050919050565b606060038054806020026020016040519081016040528092919081815260200182805480156102cc57602002820191906000526020600020905b8154815260200190600101908083116102b8575b5050505050905090565b826000806101000a81548173ffffffffffffffffffffffffffffffffffffffff021916908373ffffffffffffffffffffffffffffffffffffffff1602179055508160018190555080600281905550505050565b6000600360046000848152602001908152602001600020548154811061034b57fe5b90600052602060002001549050919050565b600060038054905090509056fea265627a7a723158205bd7e4141aecde8c0fcd328ec910c5d28ee1a196a7313bdb291403b410ac856b64736f6c63430005100032608060405234801561001057600080fd5b50336000806101000a81548173ffffffffffffffffffffffffffffffffffffffff021916908373ffffffffffffffffffffffffffffffffffffffff1602179055507f78000000000000000000000000000000000000000000000000000000000000006001819055507f780000000000000000000000000000000000000000000000000000000000000060028190555061010a806100ae6000396000f3fe6080604052348015600f57600080fd5b506004361060285760003560e01c8063949f3a4e14602d575b600080fd5b608060048036036060811015604157600080fd5b81019080803573ffffffffffffffffffffffffffffffffffffffff16906020019092919080359060200190929190803590602001909291905050506082565b005b826000806101000a81548173ffffffffffffffffffffffffffffffffffffffff021916908373ffffffffffffffffffffffffffffffffffffffff160217905550816001819055508060028190555050505056fea265627a7a723158200e0d04935d3d6d80a7597a1103df7e21528351ad5d14c4d332914134aec528c164736f6c63430005100032",
  "source": "pragma solidity >=0.5.16;\npragma experimental ABIEncoderV2;\nimport \"./PatientStorage.sol\";\nimport \"./DoctorStorage.sol\";\nimport \"./MedicineStorage.sol\";\n\ncontract Client {\n   //out of gas\naddress addr;\nPatientStorage datastore = new PatientStorage();\nDoctorStorage doctorstore;\nMedicineStorage medicinestore;\n\nconstructor() public {\n   addr = msg.sender;\n}\n // PATIENT\nfunction registerPatient(bytes32 patientName, bytes memory ipfsHash) public returns(bool) {\n    return datastore.registerPatient(patientName,ipfsHash);\n }\n\nfunction hasPatient(address _patientAdresses) public view returns(bool) {\n    return datastore.hasPatient(_patientAdresses);\n }\nfunction patientNameTaken(bytes32 pname) public view returns(bool takenIndeed) {\n    return datastore.patientNameTaken(pname);\n }\n\nfunction updatePatient(bytes memory ipfsHash) public returns(bool){\n   return datastore.updatePatient(ipfsHash);\n }\n\nfunction getPatientCount() public view returns(uint){\n   return datastore.getPatientCount();\n }\n\nfunction getPatientByIndex(uint index) public view returns(address,bytes32,bytes memory){\n   return datastore.getPatientByIndex(index);\n }\n\nfunction getAddressByIndex(uint index) public view returns(address){\n   return datastore.getAddressByIndex(index);\n }\n\nfunction getPatientNameByIndex(uint index) public view returns(bytes32){\n   return datastore.getPatientNameByIndex(index);\n }\n\nfunction getIpfsHashByIndex(uint index) public view returns(bytes memory){\n   return datastore.getIpfsHashByIndex(index);\n }\n\nfunction getPatientByAddress(address patientAddress) public view returns(uint, bytes32, bytes memory){\n   return datastore.getPatientByAddress(patientAddress);\n }\n\nfunction getIndexByAddress(address patientAddress) public view returns(uint){\n   return datastore.getIndexByAddress(patientAddress);\n }\n\nfunction getPatientNameByAddress(address patientAddress) public view returns(bytes32){\n   return datastore.getPatientNameByAddress(patientAddress);\n }\n\nfunction getIpfsHashByAddress(address patientAddress) public view returns(bytes memory){\n   return datastore.getIpfsHashByAddress(patientAddress);\n }\n\nfunction getPatientByPatientName(bytes32 patientname) public view returns(uint,address,bytes memory){\n   return datastore.getPatientByPatientName(patientname);\n }\n\nfunction getIndexByPatientName(bytes32 patientname) public view returns(uint){\n   return datastore.getIndexByPatientName(patientname);\n }\n\nfunction getAddressByPatientName(bytes32 patientname) public view returns(address){\n   return datastore.getAddressByPatientName(patientname);\n }\nfunction getIpfsHashByPatientName(bytes32 patientname) public view returns(bytes memory){\n   return datastore.getIpfsHashByPatientName(patientname);\n }\n// CONSULTATIONS\nfunction consultationCreate(bytes32 _pname, bytes32 _consulDateID, bytes memory newPatientIpfs)public returns(bool){\n   return datastore.consultationCreate(_pname, _consulDateID, newPatientIpfs);\n }\n\nfunction getConsultationByConsultationIndex(bytes32 _pname, uint _index) public view returns(bytes32 consulID){\n   return datastore.getConsultationByConsultationIndex(_pname, _index);\n }\nfunction getConsultationIndexByConsultationID(bytes32 _pname, bytes32 _consulDateID) public view returns(uint){\n   return datastore.getConsultationIndexByConsultationID(_pname, _consulDateID);\n }\n\nfunction getConsultationsByPatientName(bytes32 _pname) public view returns(bytes32[] memory){\n   return datastore.getConsultationsByPatientName(_pname);\n }\n\nfunction getConsultationsByPatientAddress(address patientAddress) public view returns(bytes32[] memory){\n   return datastore.getConsultationsByPatientAddress(patientAddress);\n }\n// TESTS\nfunction testCreate(bytes32 _pname, bytes32 _testDateID, bytes memory newPatientIpfs)public returns(bool){\n   return datastore.testCreate(_pname,_testDateID, newPatientIpfs);\n }\n\nfunction getTestByTestIndex(bytes32 patientName, uint _index) public view returns(bytes32 testID){\n   return datastore.getTestByTestIndex(patientName, _index);\n }\n\nfunction getTestIndexByTestID(bytes32 patientName, bytes32 _testDateID) public view returns(uint){\n   return datastore.getTestIndexByTestID(patientName, _testDateID);\n }\n\nfunction getTestsByPatientName(bytes32 _pname) public view returns(bytes32[] memory) {\n   return datastore.getTestsByPatientName(_pname);\n }\n\nfunction getTestsByPatientAddress(address patientAddress) public view returns(bytes32[] memory){\n   return datastore.getTestsByPatientAddress(patientAddress);\n }\nfunction getTestsCount(bytes32 patientName) public view returns (uint){\n   return datastore.getTestsCount(patientName);\n }\n// MEDICINES\nfunction saveMedicineForPatientUse(bytes32 patientName, bytes32 consulDateID,bytes32 mname) public returns(bool){\n   return datastore.saveMedicineForPatientUse(patientName, consulDateID, mname);\n }\nfunction getMedicinesFromConsultation(bytes32 patientName, bytes32 consulDateID) public view returns(bytes32[] memory){\n   return datastore.getMedicinesFromConsultation(patientName, consulDateID);\n }\nfunction getMedicineByIndex(bytes32 patientName, bytes32 _consulDateID,uint index) public view returns(bytes32){\n   return datastore.getMedicineByIndex(patientName, _consulDateID, index);\n }\nfunction getMedicineByMedicineName(bytes32 patientName, bytes32 _consulDateID, bytes32 medname)public view returns(bytes32){\n   return datastore.getMedicineByMedicineName(patientName, _consulDateID, medname);\n }\nfunction getMedicinesCountFromConsultation(bytes32 patientName, bytes32 _consulDateID) public view returns(uint){\n   return datastore.getMedicinesCountFromConsultation(patientName, _consulDateID);\n }\n// DOCTORS\nfunction registerDoctor(bytes32 DoctorName, bytes memory ipfsHash) public returns(bool) {\n   doctorstore.registerDoctor(DoctorName, ipfsHash);\n   return true;\n }\nfunction updateDoctor(bytes memory ipfsHash) public returns(bool){\n   doctorstore.updateDoctor(ipfsHash);\n }\n\nfunction getDoctorCount() public view returns(uint){\n      return doctorstore.getDoctorCount();\n }\n\nfunction getDoctorByIndex(uint index) public view returns(address,bytes32,bytes memory){\n   return doctorstore.getDoctorByIndex(index);\n }\n\nfunction getDoctorAddressByIndex(uint index) public view returns(address){\n   return doctorstore.getDoctorAddressByIndex(index);\n }\n\nfunction getDoctorNameByIndex(uint index) public view returns(bytes32){\n   return doctorstore.getDoctorNameByIndex(index);\n }\n\nfunction getDoctorIpfsHashByIndex(uint index) public view returns(bytes memory){\n   return doctorstore.getDoctorIpfsHashByIndex(index);\n }\n\nfunction getDoctorByAddress(address DoctorAddress) public view returns(uint, bytes32, bytes memory){\n   return doctorstore.getDoctorByAddress(DoctorAddress);\n }\n\nfunction getDoctorIndexByAddress(address DoctorAddress) public view returns(uint){\n   return doctorstore.getDoctorIndexByAddress(DoctorAddress);\n }\n\nfunction getDoctorNameByAddress(address DoctorAddress) public view returns(bytes32){\n   return doctorstore.getDoctorNameByAddress(DoctorAddress);\n }\n\nfunction getDoctorIpfsHashByAddress(address DoctorAddress) public view returns(bytes memory){\n   return doctorstore.getDoctorIpfsHashByAddress(DoctorAddress);\n }\n\nfunction getDoctorByDoctorName(bytes32 Doctorname) public view returns(uint,address,bytes memory){\n   return doctorstore.getDoctorByDoctorName(Doctorname);\n }\n\nfunction getDoctorIndexByDoctorName(bytes32 Doctorname) public view returns(uint){\n   return doctorstore.getDoctorIndexByDoctorName(Doctorname);\n }\n\nfunction getDoctorAddressByDoctorName(bytes32 Doctorname) public view returns(address){\n   return doctorstore.getDoctorAddressByDoctorName(Doctorname);\n }\n\nfunction getDoctorIpfsHashByDoctorName(bytes32 Doctorname) public view returns(bytes memory){\n   return doctorstore.getDoctorIpfsHashByDoctorName(Doctorname);\n }\nfunction saveMedicine(bytes32 mname, bytes memory ipfsHash) public returns(bool) {\n   return medicinestore.saveMedicine(mname, ipfsHash);\n }\n\nfunction updateMedicine(bytes memory ipfsHash) public returns(bool){\n   return medicinestore.updateMedicine(ipfsHash);\n }\n\nfunction getMedicineCount() public view returns(uint){\n   return medicinestore.getMedicineCount();\n }\n// function getMedicineByMedicinename(bytes32 mname) public view returns(Medicine){\n//    return medicinestore.getMedicineByMedicinename(mname);\n//  }\n\nfunction getMedicineByIndex(uint index) public view returns(bytes32,bytes memory){\n   return medicinestore.getMedicineByIndex(index);\n }\n\nfunction getMedicineNameByIndex(uint index) public view returns(bytes32){\n   medicinestore.getMedicineNameByIndex(index);\n }\n\nfunction getMedIpfsHashByIndex(uint index) public view returns(bytes memory){\n   return medicinestore.getMedIpfsHashByIndex(index);\n }\n\nfunction getIpfsHashByMedicineName(bytes32 mname) public view returns(bytes memory){\n   medicinestore.getIpfsHashByMedicineName(mname);\n }\n\n}",
  "sourcePath": "/home/eke/Desktop/patient-eth-master/contracts/Client.sol",
  "compiler": {
    "name": "solc",
    "version": "0.5.16+commit.9c3226ce.Emscripten.clang"
  },
  "schemaVersion": "3.1.0",
  "updatedAt": "2020-04-24T13:45:46.536Z",
  "networkType": "ethereum",
  "devdoc": {
    "methods": {}
  },
  "userdoc": {
    "methods": {}
  }
}