{
  "contractName": "Client",
  "abi": [
    {
      "inputs": [],
      "payable": false,
      "stateMutability": "nonpayable",
      "type": "constructor"
    },
    {
      "constant": false,
      "inputs": [
        {
          "internalType": "bytes32",
          "name": "patientName",
          "type": "bytes32"
        },
        {
          "internalType": "bytes",
          "name": "ipfsHash",
          "type": "bytes"
        }
      ],
      "name": "registerPatient",
      "outputs": [
        {
          "internalType": "bool",
          "name": "",
          "type": "bool"
        }
      ],
      "payable": false,
      "stateMutability": "nonpayable",
      "type": "function"
    },
    {
      "constant": true,
      "inputs": [
        {
          "internalType": "address",
          "name": "_patientAdresses",
          "type": "address"
        }
      ],
      "name": "hasPatient",
      "outputs": [
        {
          "internalType": "bool",
          "name": "",
          "type": "bool"
        }
      ],
      "payable": false,
      "stateMutability": "view",
      "type": "function"
    },
    {
      "constant": true,
      "inputs": [
        {
          "internalType": "bytes32",
          "name": "pname",
          "type": "bytes32"
        }
      ],
      "name": "patientNameTaken",
      "outputs": [
        {
          "internalType": "bool",
          "name": "takenIndeed",
          "type": "bool"
        }
      ],
      "payable": false,
      "stateMutability": "view",
      "type": "function"
    },
    {
      "constant": false,
      "inputs": [
        {
          "internalType": "bytes",
          "name": "ipfsHash",
          "type": "bytes"
        }
      ],
      "name": "updatePatient",
      "outputs": [
        {
          "internalType": "bool",
          "name": "",
          "type": "bool"
        }
      ],
      "payable": false,
      "stateMutability": "nonpayable",
      "type": "function"
    },
    {
      "constant": true,
      "inputs": [],
      "name": "getPatientCount",
      "outputs": [
        {
          "internalType": "uint256",
          "name": "",
          "type": "uint256"
        }
      ],
      "payable": false,
      "stateMutability": "view",
      "type": "function"
    },
    {
      "constant": true,
      "inputs": [
        {
          "internalType": "uint256",
          "name": "index",
          "type": "uint256"
        }
      ],
      "name": "getPatientByIndex",
      "outputs": [
        {
          "internalType": "address",
          "name": "",
          "type": "address"
        },
        {
          "internalType": "bytes32",
          "name": "",
          "type": "bytes32"
        },
        {
          "internalType": "bytes",
          "name": "",
          "type": "bytes"
        }
      ],
      "payable": false,
      "stateMutability": "view",
      "type": "function"
    },
    {
      "constant": true,
      "inputs": [
        {
          "internalType": "uint256",
          "name": "index",
          "type": "uint256"
        }
      ],
      "name": "getAddressByIndex",
      "outputs": [
        {
          "internalType": "address",
          "name": "",
          "type": "address"
        }
      ],
      "payable": false,
      "stateMutability": "view",
      "type": "function"
    },
    {
      "constant": true,
      "inputs": [
        {
          "internalType": "uint256",
          "name": "index",
          "type": "uint256"
        }
      ],
      "name": "getPatientNameByIndex",
      "outputs": [
        {
          "internalType": "bytes32",
          "name": "",
          "type": "bytes32"
        }
      ],
      "payable": false,
      "stateMutability": "view",
      "type": "function"
    },
    {
      "constant": true,
      "inputs": [
        {
          "internalType": "uint256",
          "name": "index",
          "type": "uint256"
        }
      ],
      "name": "getIpfsHashByIndex",
      "outputs": [
        {
          "internalType": "bytes",
          "name": "",
          "type": "bytes"
        }
      ],
      "payable": false,
      "stateMutability": "view",
      "type": "function"
    },
    {
      "constant": true,
      "inputs": [
        {
          "internalType": "address",
          "name": "patientAddress",
          "type": "address"
        }
      ],
      "name": "getPatientByAddress",
      "outputs": [
        {
          "internalType": "uint256",
          "name": "",
          "type": "uint256"
        },
        {
          "internalType": "bytes32",
          "name": "",
          "type": "bytes32"
        },
        {
          "internalType": "bytes",
          "name": "",
          "type": "bytes"
        }
      ],
      "payable": false,
      "stateMutability": "view",
      "type": "function"
    },
    {
      "constant": true,
      "inputs": [
        {
          "internalType": "address",
          "name": "patientAddress",
          "type": "address"
        }
      ],
      "name": "getIndexByAddress",
      "outputs": [
        {
          "internalType": "uint256",
          "name": "",
          "type": "uint256"
        }
      ],
      "payable": false,
      "stateMutability": "view",
      "type": "function"
    },
    {
      "constant": true,
      "inputs": [
        {
          "internalType": "address",
          "name": "patientAddress",
          "type": "address"
        }
      ],
      "name": "getPatientNameByAddress",
      "outputs": [
        {
          "internalType": "bytes32",
          "name": "",
          "type": "bytes32"
        }
      ],
      "payable": false,
      "stateMutability": "view",
      "type": "function"
    },
    {
      "constant": true,
      "inputs": [
        {
          "internalType": "address",
          "name": "patientAddress",
          "type": "address"
        }
      ],
      "name": "getIpfsHashByAddress",
      "outputs": [
        {
          "internalType": "bytes",
          "name": "",
          "type": "bytes"
        }
      ],
      "payable": false,
      "stateMutability": "view",
      "type": "function"
    },
    {
      "constant": true,
      "inputs": [
        {
          "internalType": "bytes32",
          "name": "patientname",
          "type": "bytes32"
        }
      ],
      "name": "getPatientByPatientName",
      "outputs": [
        {
          "internalType": "uint256",
          "name": "",
          "type": "uint256"
        },
        {
          "internalType": "address",
          "name": "",
          "type": "address"
        },
        {
          "internalType": "bytes",
          "name": "",
          "type": "bytes"
        }
      ],
      "payable": false,
      "stateMutability": "view",
      "type": "function"
    },
    {
      "constant": true,
      "inputs": [
        {
          "internalType": "bytes32",
          "name": "patientname",
          "type": "bytes32"
        }
      ],
      "name": "getIndexByPatientName",
      "outputs": [
        {
          "internalType": "uint256",
          "name": "",
          "type": "uint256"
        }
      ],
      "payable": false,
      "stateMutability": "view",
      "type": "function"
    },
    {
      "constant": true,
      "inputs": [
        {
          "internalType": "bytes32",
          "name": "patientname",
          "type": "bytes32"
        }
      ],
      "name": "getAddressByPatientName",
      "outputs": [
        {
          "internalType": "address",
          "name": "",
          "type": "address"
        }
      ],
      "payable": false,
      "stateMutability": "view",
      "type": "function"
    },
    {
      "constant": true,
      "inputs": [
        {
          "internalType": "bytes32",
          "name": "patientname",
          "type": "bytes32"
        }
      ],
      "name": "getIpfsHashByPatientName",
      "outputs": [
        {
          "internalType": "bytes",
          "name": "",
          "type": "bytes"
        }
      ],
      "payable": false,
      "stateMutability": "view",
      "type": "function"
    },
    {
      "constant": false,
      "inputs": [
        {
          "internalType": "bytes32",
          "name": "_pname",
          "type": "bytes32"
        },
        {
          "internalType": "bytes32",
          "name": "_consulDateID",
          "type": "bytes32"
        },
        {
          "internalType": "bytes",
          "name": "newPatientIpfs",
          "type": "bytes"
        }
      ],
      "name": "consultationCreate",
      "outputs": [
        {
          "internalType": "bool",
          "name": "",
          "type": "bool"
        }
      ],
      "payable": false,
      "stateMutability": "nonpayable",
      "type": "function"
    },
    {
      "constant": true,
      "inputs": [
        {
          "internalType": "bytes32",
          "name": "_pname",
          "type": "bytes32"
        },
        {
          "internalType": "uint256",
          "name": "_index",
          "type": "uint256"
        }
      ],
      "name": "getConsultationByConsultationIndex",
      "outputs": [
        {
          "internalType": "bytes32",
          "name": "consulID",
          "type": "bytes32"
        }
      ],
      "payable": false,
      "stateMutability": "view",
      "type": "function"
    },
    {
      "constant": true,
      "inputs": [
        {
          "internalType": "bytes32",
          "name": "_pname",
          "type": "bytes32"
        },
        {
          "internalType": "bytes32",
          "name": "_consulDateID",
          "type": "bytes32"
        }
      ],
      "name": "getConsultationIndexByConsultationID",
      "outputs": [
        {
          "internalType": "uint256",
          "name": "",
          "type": "uint256"
        }
      ],
      "payable": false,
      "stateMutability": "view",
      "type": "function"
    },
    {
      "constant": true,
      "inputs": [
        {
          "internalType": "bytes32",
          "name": "_pname",
          "type": "bytes32"
        }
      ],
      "name": "getConsultationsByPatientName",
      "outputs": [
        {
          "internalType": "bytes32[]",
          "name": "",
          "type": "bytes32[]"
        }
      ],
      "payable": false,
      "stateMutability": "view",
      "type": "function"
    },
    {
      "constant": true,
      "inputs": [
        {
          "internalType": "address",
          "name": "patientAddress",
          "type": "address"
        }
      ],
      "name": "getConsultationsByPatientAddress",
      "outputs": [
        {
          "internalType": "bytes32[]",
          "name": "",
          "type": "bytes32[]"
        }
      ],
      "payable": false,
      "stateMutability": "view",
      "type": "function"
    },
    {
      "constant": false,
      "inputs": [
        {
          "internalType": "bytes32",
          "name": "_pname",
          "type": "bytes32"
        },
        {
          "internalType": "bytes32",
          "name": "_testDateID",
          "type": "bytes32"
        },
        {
          "internalType": "bytes",
          "name": "newPatientIpfs",
          "type": "bytes"
        }
      ],
      "name": "testCreate",
      "outputs": [
        {
          "internalType": "bool",
          "name": "",
          "type": "bool"
        }
      ],
      "payable": false,
      "stateMutability": "nonpayable",
      "type": "function"
    },
    {
      "constant": true,
      "inputs": [
        {
          "internalType": "bytes32",
          "name": "patientName",
          "type": "bytes32"
        },
        {
          "internalType": "uint256",
          "name": "_index",
          "type": "uint256"
        }
      ],
      "name": "getTestByTestIndex",
      "outputs": [
        {
          "internalType": "bytes32",
          "name": "testID",
          "type": "bytes32"
        }
      ],
      "payable": false,
      "stateMutability": "view",
      "type": "function"
    },
    {
      "constant": true,
      "inputs": [
        {
          "internalType": "bytes32",
          "name": "patientName",
          "type": "bytes32"
        },
        {
          "internalType": "bytes32",
          "name": "_testDateID",
          "type": "bytes32"
        }
      ],
      "name": "getTestIndexByTestID",
      "outputs": [
        {
          "internalType": "uint256",
          "name": "",
          "type": "uint256"
        }
      ],
      "payable": false,
      "stateMutability": "view",
      "type": "function"
    },
    {
      "constant": true,
      "inputs": [
        {
          "internalType": "bytes32",
          "name": "_pname",
          "type": "bytes32"
        }
      ],
      "name": "getTestsByPatientName",
      "outputs": [
        {
          "internalType": "bytes32[]",
          "name": "",
          "type": "bytes32[]"
        }
      ],
      "payable": false,
      "stateMutability": "view",
      "type": "function"
    },
    {
      "constant": true,
      "inputs": [
        {
          "internalType": "address",
          "name": "patientAddress",
          "type": "address"
        }
      ],
      "name": "getTestsByPatientAddress",
      "outputs": [
        {
          "internalType": "bytes32[]",
          "name": "",
          "type": "bytes32[]"
        }
      ],
      "payable": false,
      "stateMutability": "view",
      "type": "function"
    },
    {
      "constant": true,
      "inputs": [
        {
          "internalType": "bytes32",
          "name": "patientName",
          "type": "bytes32"
        }
      ],
      "name": "getTestsCount",
      "outputs": [
        {
          "internalType": "uint256",
          "name": "",
          "type": "uint256"
        }
      ],
      "payable": false,
      "stateMutability": "view",
      "type": "function"
    },
    {
      "constant": false,
      "inputs": [
        {
          "internalType": "bytes32",
          "name": "patientName",
          "type": "bytes32"
        },
        {
          "internalType": "bytes32",
          "name": "consulDateID",
          "type": "bytes32"
        },
        {
          "internalType": "bytes32",
          "name": "mname",
          "type": "bytes32"
        }
      ],
      "name": "saveMedicineForPatientUse",
      "outputs": [
        {
          "internalType": "bool",
          "name": "",
          "type": "bool"
        }
      ],
      "payable": false,
      "stateMutability": "nonpayable",
      "type": "function"
    },
    {
      "constant": true,
      "inputs": [
        {
          "internalType": "bytes32",
          "name": "patientName",
          "type": "bytes32"
        },
        {
          "internalType": "bytes32",
          "name": "consulDateID",
          "type": "bytes32"
        }
      ],
      "name": "getMedicinesFromConsultation",
      "outputs": [
        {
          "internalType": "bytes32[]",
          "name": "",
          "type": "bytes32[]"
        }
      ],
      "payable": false,
      "stateMutability": "view",
      "type": "function"
    },
    {
      "constant": true,
      "inputs": [
        {
          "internalType": "bytes32",
          "name": "patientName",
          "type": "bytes32"
        },
        {
          "internalType": "bytes32",
          "name": "_consulDateID",
          "type": "bytes32"
        },
        {
          "internalType": "bytes32",
          "name": "medname",
          "type": "bytes32"
        }
      ],
      "name": "getMedicineByMedicineName",
      "outputs": [
        {
          "internalType": "bytes32",
          "name": "",
          "type": "bytes32"
        }
      ],
      "payable": false,
      "stateMutability": "view",
      "type": "function"
    },
    {
      "constant": true,
      "inputs": [
        {
          "internalType": "bytes32",
          "name": "patientName",
          "type": "bytes32"
        },
        {
          "internalType": "bytes32",
          "name": "_consulDateID",
          "type": "bytes32"
        }
      ],
      "name": "getMedicinesCountFromConsultation",
      "outputs": [
        {
          "internalType": "uint256",
          "name": "",
          "type": "uint256"
        }
      ],
      "payable": false,
      "stateMutability": "view",
      "type": "function"
    },
    {
      "constant": false,
      "inputs": [
        {
          "internalType": "bytes32",
          "name": "DoctorName",
          "type": "bytes32"
        },
        {
          "internalType": "bytes",
          "name": "ipfsHash",
          "type": "bytes"
        }
      ],
      "name": "registerDoctor",
      "outputs": [
        {
          "internalType": "bool",
          "name": "",
          "type": "bool"
        }
      ],
      "payable": false,
      "stateMutability": "nonpayable",
      "type": "function"
    },
    {
      "constant": false,
      "inputs": [
        {
          "internalType": "bytes",
          "name": "ipfsHash",
          "type": "bytes"
        }
      ],
      "name": "updateDoctor",
      "outputs": [
        {
          "internalType": "bool",
          "name": "",
          "type": "bool"
        }
      ],
      "payable": false,
      "stateMutability": "nonpayable",
      "type": "function"
    },
    {
      "constant": true,
      "inputs": [],
      "name": "getDoctorCount",
      "outputs": [
        {
          "internalType": "uint256",
          "name": "",
          "type": "uint256"
        }
      ],
      "payable": false,
      "stateMutability": "view",
      "type": "function"
    },
    {
      "constant": true,
      "inputs": [
        {
          "internalType": "uint256",
          "name": "index",
          "type": "uint256"
        }
      ],
      "name": "getDoctorByIndex",
      "outputs": [
        {
          "internalType": "address",
          "name": "",
          "type": "address"
        },
        {
          "internalType": "bytes32",
          "name": "",
          "type": "bytes32"
        },
        {
          "internalType": "bytes",
          "name": "",
          "type": "bytes"
        }
      ],
      "payable": false,
      "stateMutability": "view",
      "type": "function"
    },
    {
      "constant": true,
      "inputs": [
        {
          "internalType": "uint256",
          "name": "index",
          "type": "uint256"
        }
      ],
      "name": "getDoctorAddressByIndex",
      "outputs": [
        {
          "internalType": "address",
          "name": "",
          "type": "address"
        }
      ],
      "payable": false,
      "stateMutability": "view",
      "type": "function"
    },
    {
      "constant": true,
      "inputs": [
        {
          "internalType": "uint256",
          "name": "index",
          "type": "uint256"
        }
      ],
      "name": "getDoctorNameByIndex",
      "outputs": [
        {
          "internalType": "bytes32",
          "name": "",
          "type": "bytes32"
        }
      ],
      "payable": false,
      "stateMutability": "view",
      "type": "function"
    },
    {
      "constant": true,
      "inputs": [
        {
          "internalType": "uint256",
          "name": "index",
          "type": "uint256"
        }
      ],
      "name": "getDoctorIpfsHashByIndex",
      "outputs": [
        {
          "internalType": "bytes",
          "name": "",
          "type": "bytes"
        }
      ],
      "payable": false,
      "stateMutability": "view",
      "type": "function"
    },
    {
      "constant": true,
      "inputs": [
        {
          "internalType": "address",
          "name": "DoctorAddress",
          "type": "address"
        }
      ],
      "name": "getDoctorByAddress",
      "outputs": [
        {
          "internalType": "uint256",
          "name": "",
          "type": "uint256"
        },
        {
          "internalType": "bytes32",
          "name": "",
          "type": "bytes32"
        },
        {
          "internalType": "bytes",
          "name": "",
          "type": "bytes"
        }
      ],
      "payable": false,
      "stateMutability": "view",
      "type": "function"
    },
    {
      "constant": true,
      "inputs": [
        {
          "internalType": "address",
          "name": "DoctorAddress",
          "type": "address"
        }
      ],
      "name": "getDoctorIndexByAddress",
      "outputs": [
        {
          "internalType": "uint256",
          "name": "",
          "type": "uint256"
        }
      ],
      "payable": false,
      "stateMutability": "view",
      "type": "function"
    },
    {
      "constant": true,
      "inputs": [
        {
          "internalType": "address",
          "name": "DoctorAddress",
          "type": "address"
        }
      ],
      "name": "getDoctorNameByAddress",
      "outputs": [
        {
          "internalType": "bytes32",
          "name": "",
          "type": "bytes32"
        }
      ],
      "payable": false,
      "stateMutability": "view",
      "type": "function"
    },
    {
      "constant": true,
      "inputs": [
        {
          "internalType": "address",
          "name": "DoctorAddress",
          "type": "address"
        }
      ],
      "name": "getDoctorIpfsHashByAddress",
      "outputs": [
        {
          "internalType": "bytes",
          "name": "",
          "type": "bytes"
        }
      ],
      "payable": false,
      "stateMutability": "view",
      "type": "function"
    },
    {
      "constant": true,
      "inputs": [
        {
          "internalType": "bytes32",
          "name": "Doctorname",
          "type": "bytes32"
        }
      ],
      "name": "getDoctorByDoctorName",
      "outputs": [
        {
          "internalType": "uint256",
          "name": "",
          "type": "uint256"
        },
        {
          "internalType": "address",
          "name": "",
          "type": "address"
        },
        {
          "internalType": "bytes",
          "name": "",
          "type": "bytes"
        }
      ],
      "payable": false,
      "stateMutability": "view",
      "type": "function"
    },
    {
      "constant": true,
      "inputs": [
        {
          "internalType": "bytes32",
          "name": "Doctorname",
          "type": "bytes32"
        }
      ],
      "name": "getDoctorIndexByDoctorName",
      "outputs": [
        {
          "internalType": "uint256",
          "name": "",
          "type": "uint256"
        }
      ],
      "payable": false,
      "stateMutability": "view",
      "type": "function"
    },
    {
      "constant": true,
      "inputs": [
        {
          "internalType": "bytes32",
          "name": "Doctorname",
          "type": "bytes32"
        }
      ],
      "name": "getDoctorAddressByDoctorName",
      "outputs": [
        {
          "internalType": "address",
          "name": "",
          "type": "address"
        }
      ],
      "payable": false,
      "stateMutability": "view",
      "type": "function"
    },
    {
      "constant": true,
      "inputs": [
        {
          "internalType": "bytes32",
          "name": "Doctorname",
          "type": "bytes32"
        }
      ],
      "name": "getDoctorIpfsHashByDoctorName",
      "outputs": [
        {
          "internalType": "bytes",
          "name": "",
          "type": "bytes"
        }
      ],
      "payable": false,
      "stateMutability": "view",
      "type": "function"
    },
    {
      "constant": false,
      "inputs": [
        {
          "internalType": "bytes32",
          "name": "mname",
          "type": "bytes32"
        },
        {
          "internalType": "bytes",
          "name": "ipfsHash",
          "type": "bytes"
        }
      ],
      "name": "saveMedicine",
      "outputs": [
        {
          "internalType": "bool",
          "name": "",
          "type": "bool"
        }
      ],
      "payable": false,
      "stateMutability": "nonpayable",
      "type": "function"
    },
    {
      "constant": false,
      "inputs": [
        {
          "internalType": "bytes",
          "name": "ipfsHash",
          "type": "bytes"
        }
      ],
      "name": "updateMedicine",
      "outputs": [
        {
          "internalType": "bool",
          "name": "",
          "type": "bool"
        }
      ],
      "payable": false,
      "stateMutability": "nonpayable",
      "type": "function"
    },
    {
      "constant": true,
      "inputs": [],
      "name": "getMedicineCount",
      "outputs": [
        {
          "internalType": "uint256",
          "name": "",
          "type": "uint256"
        }
      ],
      "payable": false,
      "stateMutability": "view",
      "type": "function"
    },
    {
      "constant": true,
      "inputs": [
        {
          "internalType": "uint256",
          "name": "index",
          "type": "uint256"
        }
      ],
      "name": "getMedicineByIndex",
      "outputs": [
        {
          "internalType": "bytes32",
          "name": "",
          "type": "bytes32"
        },
        {
          "internalType": "bytes",
          "name": "",
          "type": "bytes"
        }
      ],
      "payable": false,
      "stateMutability": "view",
      "type": "function"
    },
    {
      "constant": true,
      "inputs": [
        {
          "internalType": "bytes32",
          "name": "patientName",
          "type": "bytes32"
        },
        {
          "internalType": "bytes32",
          "name": "_consulDateID",
          "type": "bytes32"
        },
        {
          "internalType": "uint256",
          "name": "index",
          "type": "uint256"
        }
      ],
      "name": "getMedicineByIndex",
      "outputs": [
        {
          "internalType": "bytes32",
          "name": "",
          "type": "bytes32"
        }
      ],
      "payable": false,
      "stateMutability": "view",
      "type": "function"
    },
    {
      "constant": true,
      "inputs": [
        {
          "internalType": "uint256",
          "name": "index",
          "type": "uint256"
        }
      ],
      "name": "getMedicineNameByIndex",
      "outputs": [
        {
          "internalType": "bytes32",
          "name": "",
          "type": "bytes32"
        }
      ],
      "payable": false,
      "stateMutability": "view",
      "type": "function"
    },
    {
      "constant": true,
      "inputs": [
        {
          "internalType": "uint256",
          "name": "index",
          "type": "uint256"
        }
      ],
      "name": "getMedIpfsHashByIndex",
      "outputs": [
        {
          "internalType": "bytes",
          "name": "",
          "type": "bytes"
        }
      ],
      "payable": false,
      "stateMutability": "view",
      "type": "function"
    },
    {
      "constant": true,
      "inputs": [
        {
          "internalType": "bytes32",
          "name": "mname",
          "type": "bytes32"
        }
      ],
      "name": "getIpfsHashByMedicineName",
      "outputs": [
        {
          "internalType": "bytes",
          "name": "",
          "type": "bytes"
        }
      ],
      "payable": false,
      "stateMutability": "view",
      "type": "function"
    }
  ],
  "bytecode": "0x60806040526040516200001290620000c4565b604051809103906000f0801580156200002f573d6000803e3d6000fd5b50600160006101000a81548173ffffffffffffffffffffffffffffffffffffffff021916908373ffffffffffffffffffffffffffffffffffffffff1602179055503480156200007d57600080fd5b50336000806101000a81548173ffffffffffffffffffffffffffffffffffffffff021916908373ffffffffffffffffffffffffffffffffffffffff160217905550620000d2565b6159fe806200427f83390190565b61419d80620000e26000396000f3fe608060405234801561001057600080fd5b506004361061035d5760003560e01c8063715b5f6d116101d3578063ba5c033511610104578063e1153e6f116100a2578063eb9fbaa91161007c578063eb9fbaa914610cc9578063ed96cf3914610cf9578063f421ba1014610d29578063f7a65e6014610d595761035d565b8063e1153e6f14610c4b578063e85a340a14610c7b578063eadeb84c14610cab5761035d565b8063cbb7e2ff116100de578063cbb7e2ff14610b8b578063cc04a68514610bbb578063ce10cf8814610beb578063dfb7ab6014610c1b5761035d565b8063ba5c033514610b0b578063c190665b14610b3d578063cafd134614610b5b5761035d565b8063a68a08a511610171578063ad37c2dc1161014b578063ad37c2dc14610a4b578063b1d5458d14610a7b578063b9aa549b14610aab578063b9affb9314610adb5761035d565b8063a68a08a5146109b9578063a74380a6146109e9578063ad36054b14610a195761035d565b806379111c1c116101ad57806379111c1c1461090b5780637b63cec4146109295780638f1787c21461095957806394e7ef6e146109895761035d565b8063715b5f6d1461087957806374275255146108ab5780637448d8d8146108db5761035d565b806331db6fd5116102ad57806358c5d4bf1161024b5780635fe721ff116102255780635fe721ff146107b957806368761954146107e9578063697d19ea146108195780636cfbc8fd146108495761035d565b806358c5d4bf146107255780635a357c19146107575780635bab5482146107895761035d565b8063480997971161028757806348099797146106635780634b3a6029146106935780635035cf52146106c357806357ea0c2f146106f35761035d565b806331db6fd5146105d35780633fe285d51461060357806345cfa71d146106335761035d565b80631973ef911161031a57806320cfcbfa116102f457806320cfcbfa1461051357806324ecae0b1461054357806329f78d881461057357806330ca739b146105a35761035d565b80631973ef91146104825780631d37878f146104b25780631e50b182146104e25761035d565b806304aa421014610362578063083121ad146103925780630b8d6eae146103c257806313684d43146103f2578063140de8f21461042257806314f5193014610452575b600080fd5b61037c600480360361037791908101906137d8565b610d89565b6040516103899190613eca565b60405180910390f35b6103ac60048036036103a79190810190613866565b610e42565b6040516103b99190613d66565b60405180910390f35b6103dc60048036036103d791908101906136b5565b610efe565b6040516103e99190613d44565b60405180910390f35b61040c600480360361040791908101906136b5565b610fb7565b6040516104199190613eca565b60405180910390f35b61043c600480360361043791908101906137d8565b611070565b6040516104499190613eec565b60405180910390f35b61046c60048036036104679190810190613a4f565b611124565b6040516104799190613d66565b60405180910390f35b61049c600480360361049791908101906136b5565b6111d9565b6040516104a99190613eec565b60405180910390f35b6104cc60048036036104c79190810190613ad1565b61128d565b6040516104d99190613d81565b60405180910390f35b6104fc60048036036104f79190810190613ad1565b611341565b60405161050a929190613e71565b60405180910390f35b61052d600480360361052891908101906137d8565b6113fe565b60405161053a9190613eec565b60405180910390f35b61055d60048036036105589190810190613866565b6114b2565b60405161056a9190613d81565b60405180910390f35b61058d60048036036105889190810190613ad1565b61156c565b60405161059a9190613eca565b60405180910390f35b6105bd60048036036105b891908101906136b5565b611625565b6040516105ca9190613d44565b60405180910390f35b6105ed60048036036105e89190810190613ad1565b6116de565b6040516105fa9190613d81565b60405180910390f35b61061d6004803603610618919081019061382a565b611791565b60405161062a9190613eec565b60405180910390f35b61064d600480360361064891908101906137d8565b611848565b60405161065a9190613d44565b60405180910390f35b61067d6004803603610678919081019061382a565b611901565b60405161068a9190613d44565b60405180910390f35b6106ad60048036036106a89190810190613ad1565b6119bd565b6040516106ba9190613eca565b60405180910390f35b6106dd60048036036106d891908101906138b5565b611a76565b6040516106ea9190613d66565b60405180910390f35b61070d60048036036107089190810190613ad1565b611b32565b60405161071c93929190613d06565b60405180910390f35b61073f600480360361073a91908101906136b5565b611bf4565b60405161074e93929190613f45565b60405180910390f35b610771600480360361076c9190810190613ad1565b611cb6565b60405161078093929190613d06565b60405180910390f35b6107a3600480360361079e91908101906136b5565b611d78565b6040516107b09190613eec565b60405180910390f35b6107d360048036036107ce9190810190613a13565b611e2c565b6040516107e09190613d81565b60405180910390f35b61080360048036036107fe919081019061396b565b611ee3565b6040516108109190613d66565b60405180910390f35b610833600480360361082e919081019061396b565b611f9c565b6040516108409190613d66565b60405180910390f35b610863600480360361085e91908101906137d8565b612055565b6040516108709190613ceb565b60405180910390f35b610893600480360361088e91908101906137d8565b612109565b6040516108a293929190613f07565b60405180910390f35b6108c560048036036108c091908101906138b5565b6121cb565b6040516108d29190613d66565b60405180910390f35b6108f560048036036108f091908101906137d8565b612287565b6040516109029190613d44565b60405180910390f35b610913612340565b6040516109209190613eec565b60405180910390f35b610943600480360361093e91908101906137d8565b6123e7565b6040516109509190613d66565b60405180910390f35b610973600480360361096e91908101906136b5565b61249b565b6040516109809190613d81565b60405180910390f35b6109a3600480360361099e9190810190613a4f565b61254f565b6040516109b09190613d66565b60405180910390f35b6109d360048036036109ce91908101906137d8565b612605565b6040516109e09190613eca565b60405180910390f35b610a0360048036036109fe91908101906136b5565b6126bd565b604051610a109190613eca565b60405180910390f35b610a336004803603610a2e91908101906137d8565b612776565b604051610a4293929190613f07565b60405180910390f35b610a656004803603610a6091908101906137d8565b612838565b604051610a729190613ceb565b60405180910390f35b610a956004803603610a9091908101906137d8565b6128ec565b604051610aa29190613eec565b60405180910390f35b610ac56004803603610ac09190810190613a13565b6129a0565b604051610ad29190613d81565b60405180910390f35b610af56004803603610af091908101906136b5565b612a57565b604051610b029190613d81565b60405180910390f35b610b256004803603610b2091908101906136b5565b612b0b565b604051610b3493929190613f45565b60405180910390f35b610b45612bcd565b604051610b529190613eec565b60405180910390f35b610b756004803603610b709190810190613a4f565b612c74565b604051610b829190613d66565b60405180910390f35b610ba56004803603610ba09190810190613ad1565b612d2a565b604051610bb29190613d81565b60405180910390f35b610bd56004803603610bd09190810190613ad1565b612dde565b604051610be29190613eca565b60405180910390f35b610c056004803603610c009190810190613ad1565b612e97565b604051610c129190613ceb565b60405180910390f35b610c356004803603610c3091908101906137d8565b612f4b565b604051610c429190613eca565b60405180910390f35b610c656004803603610c60919081019061396b565b613004565b604051610c729190613d66565b60405180910390f35b610c956004803603610c909190810190613ad1565b6130c0565b604051610ca29190613ceb565b60405180910390f35b610cb3613174565b604051610cc09190613eec565b60405180910390f35b610ce36004803603610cde91908101906136b5565b61321b565b604051610cf09190613d66565b60405180910390f35b610d136004803603610d0e919081019061382a565b6132cf565b604051610d209190613eec565b60405180910390f35b610d436004803603610d3e919081019061382a565b613386565b604051610d509190613eec565b60405180910390f35b610d736004803603610d6e919081019061391c565b61343d565b604051610d809190613d81565b60405180910390f35b6060600260009054906101000a900473ffffffffffffffffffffffffffffffffffffffff1673ffffffffffffffffffffffffffffffffffffffff166304aa4210836040518263ffffffff1660e01b8152600401610de69190613d81565b60006040518083038186803b158015610dfe57600080fd5b505afa158015610e12573d6000803e3d6000fd5b505050506040513d6000823e3d601f19601f82011682018060405250610e3b9190810190613a90565b9050919050565b6000600160009054906101000a900473ffffffffffffffffffffffffffffffffffffffff1673ffffffffffffffffffffffffffffffffffffffff1663083121ad8585856040518463ffffffff1660e01b8152600401610ea393929190613dc5565b602060405180830381600087803b158015610ebd57600080fd5b505af1158015610ed1573d6000803e3d6000fd5b505050506040513d601f19601f82011682018060405250610ef591908101906137af565b90509392505050565b6060600160009054906101000a900473ffffffffffffffffffffffffffffffffffffffff1673ffffffffffffffffffffffffffffffffffffffff16630b8d6eae836040518263ffffffff1660e01b8152600401610f5b9190613ceb565b60006040518083038186803b158015610f7357600080fd5b505afa158015610f87573d6000803e3d6000fd5b505050506040513d6000823e3d601f19601f82011682018060405250610fb0919081019061376e565b9050919050565b6060600260009054906101000a900473ffffffffffffffffffffffffffffffffffffffff1673ffffffffffffffffffffffffffffffffffffffff166313684d43836040518263ffffffff1660e01b81526004016110149190613ceb565b60006040518083038186803b15801561102c57600080fd5b505afa158015611040573d6000803e3d6000fd5b505050506040513d6000823e3d601f19601f820116820180604052506110699190810190613a90565b9050919050565b6000600260009054906101000a900473ffffffffffffffffffffffffffffffffffffffff1673ffffffffffffffffffffffffffffffffffffffff1663140de8f2836040518263ffffffff1660e01b81526004016110cd9190613d81565b60206040518083038186803b1580156110e557600080fd5b505afa1580156110f9573d6000803e3d6000fd5b505050506040513d601f19601f8201168201806040525061111d9190810190613afa565b9050919050565b6000600260009054906101000a900473ffffffffffffffffffffffffffffffffffffffff1673ffffffffffffffffffffffffffffffffffffffff166314f51930836040518263ffffffff1660e01b81526004016111819190613eca565b602060405180830381600087803b15801561119b57600080fd5b505af11580156111af573d6000803e3d6000fd5b505050506040513d601f19601f820116820180604052506111d391908101906137af565b50919050565b6000600160009054906101000a900473ffffffffffffffffffffffffffffffffffffffff1673ffffffffffffffffffffffffffffffffffffffff16631973ef91836040518263ffffffff1660e01b81526004016112369190613ceb565b60206040518083038186803b15801561124e57600080fd5b505afa158015611262573d6000803e3d6000fd5b505050506040513d601f19601f820116820180604052506112869190810190613afa565b9050919050565b6000600260009054906101000a900473ffffffffffffffffffffffffffffffffffffffff1673ffffffffffffffffffffffffffffffffffffffff16631d37878f836040518263ffffffff1660e01b81526004016112ea9190613eec565b60206040518083038186803b15801561130257600080fd5b505afa158015611316573d6000803e3d6000fd5b505050506040513d601f19601f8201168201806040525061133a9190810190613801565b9050919050565b60006060600360009054906101000a900473ffffffffffffffffffffffffffffffffffffffff1673ffffffffffffffffffffffffffffffffffffffff16631e50b182846040518263ffffffff1660e01b81526004016113a09190613eec565b60006040518083038186803b1580156113b857600080fd5b505afa1580156113cc573d6000803e3d6000fd5b505050506040513d6000823e3d601f19601f820116820180604052506113f591908101906139bf565b91509150915091565b6000600160009054906101000a900473ffffffffffffffffffffffffffffffffffffffff1673ffffffffffffffffffffffffffffffffffffffff166320cfcbfa836040518263ffffffff1660e01b815260040161145b9190613d81565b60206040518083038186803b15801561147357600080fd5b505afa158015611487573d6000803e3d6000fd5b505050506040513d601f19601f820116820180604052506114ab9190810190613afa565b9050919050565b6000600160009054906101000a900473ffffffffffffffffffffffffffffffffffffffff1673ffffffffffffffffffffffffffffffffffffffff166324ecae0b8585856040518463ffffffff1660e01b815260040161151393929190613dc5565b60206040518083038186803b15801561152b57600080fd5b505afa15801561153f573d6000803e3d6000fd5b505050506040513d601f19601f820116820180604052506115639190810190613801565b90509392505050565b6060600160009054906101000a900473ffffffffffffffffffffffffffffffffffffffff1673ffffffffffffffffffffffffffffffffffffffff166329f78d88836040518263ffffffff1660e01b81526004016115c99190613eec565b60006040518083038186803b1580156115e157600080fd5b505afa1580156115f5573d6000803e3d6000fd5b505050506040513d6000823e3d601f19601f8201168201806040525061161e9190810190613a90565b9050919050565b6060600160009054906101000a900473ffffffffffffffffffffffffffffffffffffffff1673ffffffffffffffffffffffffffffffffffffffff166330ca739b836040518263ffffffff1660e01b81526004016116829190613ceb565b60006040518083038186803b15801561169a57600080fd5b505afa1580156116ae573d6000803e3d6000fd5b505050506040513d6000823e3d601f19601f820116820180604052506116d7919081019061376e565b9050919050565b6000600360009054906101000a900473ffffffffffffffffffffffffffffffffffffffff1673ffffffffffffffffffffffffffffffffffffffff166331db6fd5836040518263ffffffff1660e01b815260040161173b9190613eec565b60206040518083038186803b15801561175357600080fd5b505afa158015611767573d6000803e3d6000fd5b505050506040513d601f19601f8201168201806040525061178b9190810190613801565b50919050565b6000600160009054906101000a900473ffffffffffffffffffffffffffffffffffffffff1673ffffffffffffffffffffffffffffffffffffffff16633fe285d584846040518363ffffffff1660e01b81526004016117f0929190613d9c565b60206040518083038186803b15801561180857600080fd5b505afa15801561181c573d6000803e3d6000fd5b505050506040513d601f19601f820116820180604052506118409190810190613afa565b905092915050565b6060600160009054906101000a900473ffffffffffffffffffffffffffffffffffffffff1673ffffffffffffffffffffffffffffffffffffffff166345cfa71d836040518263ffffffff1660e01b81526004016118a59190613d81565b60006040518083038186803b1580156118bd57600080fd5b505afa1580156118d1573d6000803e3d6000fd5b505050506040513d6000823e3d601f19601f820116820180604052506118fa919081019061376e565b9050919050565b6060600160009054906101000a900473ffffffffffffffffffffffffffffffffffffffff1673ffffffffffffffffffffffffffffffffffffffff16634809979784846040518363ffffffff1660e01b8152600401611960929190613d9c565b60006040518083038186803b15801561197857600080fd5b505afa15801561198c573d6000803e3d6000fd5b505050506040513d6000823e3d601f19601f820116820180604052506119b5919081019061376e565b905092915050565b6060600260009054906101000a900473ffffffffffffffffffffffffffffffffffffffff1673ffffffffffffffffffffffffffffffffffffffff16634b3a6029836040518263ffffffff1660e01b8152600401611a1a9190613eec565b60006040518083038186803b158015611a3257600080fd5b505afa158015611a46573d6000803e3d6000fd5b505050506040513d6000823e3d601f19601f82011682018060405250611a6f9190810190613a90565b9050919050565b6000600160009054906101000a900473ffffffffffffffffffffffffffffffffffffffff1673ffffffffffffffffffffffffffffffffffffffff16635035cf528585856040518463ffffffff1660e01b8152600401611ad793929190613dfc565b602060405180830381600087803b158015611af157600080fd5b505af1158015611b05573d6000803e3d6000fd5b505050506040513d601f19601f82011682018060405250611b2991908101906137af565b90509392505050565b6000806060600160009054906101000a900473ffffffffffffffffffffffffffffffffffffffff1673ffffffffffffffffffffffffffffffffffffffff166357ea0c2f856040518263ffffffff1660e01b8152600401611b929190613eec565b60006040518083038186803b158015611baa57600080fd5b505afa158015611bbe573d6000803e3d6000fd5b505050506040513d6000823e3d601f19601f82011682018060405250611be79190810190613707565b9250925092509193909250565b6000806060600260009054906101000a900473ffffffffffffffffffffffffffffffffffffffff1673ffffffffffffffffffffffffffffffffffffffff166358c5d4bf856040518263ffffffff1660e01b8152600401611c549190613ceb565b60006040518083038186803b158015611c6c57600080fd5b505afa158015611c80573d6000803e3d6000fd5b505050506040513d6000823e3d601f19601f82011682018060405250611ca99190810190613b8a565b9250925092509193909250565b6000806060600260009054906101000a900473ffffffffffffffffffffffffffffffffffffffff1673ffffffffffffffffffffffffffffffffffffffff16635a357c19856040518263ffffffff1660e01b8152600401611d169190613eec565b60006040518083038186803b158015611d2e57600080fd5b505afa158015611d42573d6000803e3d6000fd5b505050506040513d6000823e3d601f19601f82011682018060405250611d6b9190810190613707565b9250925092509193909250565b6000600260009054906101000a900473ffffffffffffffffffffffffffffffffffffffff1673ffffffffffffffffffffffffffffffffffffffff16635bab5482836040518263ffffffff1660e01b8152600401611dd59190613ceb565b60206040518083038186803b158015611ded57600080fd5b505afa158015611e01573d6000803e3d6000fd5b505050506040513d601f19601f82011682018060405250611e259190810190613afa565b9050919050565b6000600160009054906101000a900473ffffffffffffffffffffffffffffffffffffffff1673ffffffffffffffffffffffffffffffffffffffff16635fe721ff84846040518363ffffffff1660e01b8152600401611e8b929190613ea1565b60206040518083038186803b158015611ea357600080fd5b505afa158015611eb7573d6000803e3d6000fd5b505050506040513d601f19601f82011682018060405250611edb9190810190613801565b905092915050565b6000600160009054906101000a900473ffffffffffffffffffffffffffffffffffffffff1673ffffffffffffffffffffffffffffffffffffffff16636876195484846040518363ffffffff1660e01b8152600401611f42929190613e71565b602060405180830381600087803b158015611f5c57600080fd5b505af1158015611f70573d6000803e3d6000fd5b505050506040513d601f19601f82011682018060405250611f9491908101906137af565b905092915050565b6000600360009054906101000a900473ffffffffffffffffffffffffffffffffffffffff1673ffffffffffffffffffffffffffffffffffffffff1663697d19ea84846040518363ffffffff1660e01b8152600401611ffb929190613e71565b602060405180830381600087803b15801561201557600080fd5b505af1158015612029573d6000803e3d6000fd5b505050506040513d601f19601f8201168201806040525061204d91908101906137af565b905092915050565b6000600160009054906101000a900473ffffffffffffffffffffffffffffffffffffffff1673ffffffffffffffffffffffffffffffffffffffff16636cfbc8fd836040518263ffffffff1660e01b81526004016120b29190613d81565b60206040518083038186803b1580156120ca57600080fd5b505afa1580156120de573d6000803e3d6000fd5b505050506040513d601f19601f8201168201806040525061210291908101906136de565b9050919050565b6000806060600260009054906101000a900473ffffffffffffffffffffffffffffffffffffffff1673ffffffffffffffffffffffffffffffffffffffff1663715b5f6d856040518263ffffffff1660e01b81526004016121699190613d81565b60006040518083038186803b15801561218157600080fd5b505afa158015612195573d6000803e3d6000fd5b505050506040513d6000823e3d601f19601f820116820180604052506121be9190810190613b23565b9250925092509193909250565b6000600160009054906101000a900473ffffffffffffffffffffffffffffffffffffffff1673ffffffffffffffffffffffffffffffffffffffff1663742752558585856040518463ffffffff1660e01b815260040161222c93929190613dfc565b602060405180830381600087803b15801561224657600080fd5b505af115801561225a573d6000803e3d6000fd5b505050506040513d601f19601f8201168201806040525061227e91908101906137af565b90509392505050565b6060600160009054906101000a900473ffffffffffffffffffffffffffffffffffffffff1673ffffffffffffffffffffffffffffffffffffffff16637448d8d8836040518263ffffffff1660e01b81526004016122e49190613d81565b60006040518083038186803b1580156122fc57600080fd5b505afa158015612310573d6000803e3d6000fd5b505050506040513d6000823e3d601f19601f82011682018060405250612339919081019061376e565b9050919050565b6000600260009054906101000a900473ffffffffffffffffffffffffffffffffffffffff1673ffffffffffffffffffffffffffffffffffffffff166379111c1c6040518163ffffffff1660e01b815260040160206040518083038186803b1580156123aa57600080fd5b505afa1580156123be573d6000803e3d6000fd5b505050506040513d601f19601f820116820180604052506123e29190810190613afa565b905090565b6000600160009054906101000a900473ffffffffffffffffffffffffffffffffffffffff1673ffffffffffffffffffffffffffffffffffffffff16637b63cec4836040518263ffffffff1660e01b81526004016124449190613d81565b60206040518083038186803b15801561245c57600080fd5b505afa158015612470573d6000803e3d6000fd5b505050506040513d601f19601f8201168201806040525061249491908101906137af565b9050919050565b6000600260009054906101000a900473ffffffffffffffffffffffffffffffffffffffff1673ffffffffffffffffffffffffffffffffffffffff16638f1787c2836040518263ffffffff1660e01b81526004016124f89190613ceb565b60206040518083038186803b15801561251057600080fd5b505afa158015612524573d6000803e3d6000fd5b505050506040513d601f19601f820116820180604052506125489190810190613801565b9050919050565b6000600160009054906101000a900473ffffffffffffffffffffffffffffffffffffffff1673ffffffffffffffffffffffffffffffffffffffff166394e7ef6e836040518263ffffffff1660e01b81526004016125ac9190613eca565b602060405180830381600087803b1580156125c657600080fd5b505af11580156125da573d6000803e3d6000fd5b505050506040513d601f19601f820116820180604052506125fe91908101906137af565b9050919050565b6060600360009054906101000a900473ffffffffffffffffffffffffffffffffffffffff1673ffffffffffffffffffffffffffffffffffffffff1663a68a08a5836040518263ffffffff1660e01b81526004016126629190613d81565b60006040518083038186803b15801561267a57600080fd5b505afa15801561268e573d6000803e3d6000fd5b505050506040513d6000823e3d601f19601f820116820180604052506126b79190810190613a90565b50919050565b6060600160009054906101000a900473ffffffffffffffffffffffffffffffffffffffff1673ffffffffffffffffffffffffffffffffffffffff1663a74380a6836040518263ffffffff1660e01b815260040161271a9190613ceb565b60006040518083038186803b15801561273257600080fd5b505afa158015612746573d6000803e3d6000fd5b505050506040513d6000823e3d601f19601f8201168201806040525061276f9190810190613a90565b9050919050565b6000806060600160009054906101000a900473ffffffffffffffffffffffffffffffffffffffff1673ffffffffffffffffffffffffffffffffffffffff1663ad36054b856040518263ffffffff1660e01b81526004016127d69190613d81565b60006040518083038186803b1580156127ee57600080fd5b505afa158015612802573d6000803e3d6000fd5b505050506040513d6000823e3d601f19601f8201168201806040525061282b9190810190613b23565b9250925092509193909250565b6000600260009054906101000a900473ffffffffffffffffffffffffffffffffffffffff1673ffffffffffffffffffffffffffffffffffffffff1663ad37c2dc836040518263ffffffff1660e01b81526004016128959190613d81565b60206040518083038186803b1580156128ad57600080fd5b505afa1580156128c1573d6000803e3d6000fd5b505050506040513d601f19601f820116820180604052506128e591908101906136de565b9050919050565b6000600160009054906101000a900473ffffffffffffffffffffffffffffffffffffffff1673ffffffffffffffffffffffffffffffffffffffff1663b1d5458d836040518263ffffffff1660e01b81526004016129499190613d81565b60206040518083038186803b15801561296157600080fd5b505afa158015612975573d6000803e3d6000fd5b505050506040513d601f19601f820116820180604052506129999190810190613afa565b9050919050565b6000600160009054906101000a900473ffffffffffffffffffffffffffffffffffffffff1673ffffffffffffffffffffffffffffffffffffffff1663b9aa549b84846040518363ffffffff1660e01b81526004016129ff929190613ea1565b60206040518083038186803b158015612a1757600080fd5b505afa158015612a2b573d6000803e3d6000fd5b505050506040513d601f19601f82011682018060405250612a4f9190810190613801565b905092915050565b6000600160009054906101000a900473ffffffffffffffffffffffffffffffffffffffff1673ffffffffffffffffffffffffffffffffffffffff1663b9affb93836040518263ffffffff1660e01b8152600401612ab49190613ceb565b60206040518083038186803b158015612acc57600080fd5b505afa158015612ae0573d6000803e3d6000fd5b505050506040513d601f19601f82011682018060405250612b049190810190613801565b9050919050565b6000806060600160009054906101000a900473ffffffffffffffffffffffffffffffffffffffff1673ffffffffffffffffffffffffffffffffffffffff1663ba5c0335856040518263ffffffff1660e01b8152600401612b6b9190613ceb565b60006040518083038186803b158015612b8357600080fd5b505afa158015612b97573d6000803e3d6000fd5b505050506040513d6000823e3d601f19601f82011682018060405250612bc09190810190613b8a565b9250925092509193909250565b6000600160009054906101000a900473ffffffffffffffffffffffffffffffffffffffff1673ffffffffffffffffffffffffffffffffffffffff1663c190665b6040518163ffffffff1660e01b815260040160206040518083038186803b158015612c3757600080fd5b505afa158015612c4b573d6000803e3d6000fd5b505050506040513d601f19601f82011682018060405250612c6f9190810190613afa565b905090565b6000600360009054906101000a900473ffffffffffffffffffffffffffffffffffffffff1673ffffffffffffffffffffffffffffffffffffffff1663cafd1346836040518263ffffffff1660e01b8152600401612cd19190613eca565b602060405180830381600087803b158015612ceb57600080fd5b505af1158015612cff573d6000803e3d6000fd5b505050506040513d601f19601f82011682018060405250612d2391908101906137af565b9050919050565b6000600160009054906101000a900473ffffffffffffffffffffffffffffffffffffffff1673ffffffffffffffffffffffffffffffffffffffff1663cbb7e2ff836040518263ffffffff1660e01b8152600401612d879190613eec565b60206040518083038186803b158015612d9f57600080fd5b505afa158015612db3573d6000803e3d6000fd5b505050506040513d601f19601f82011682018060405250612dd79190810190613801565b9050919050565b6060600360009054906101000a900473ffffffffffffffffffffffffffffffffffffffff1673ffffffffffffffffffffffffffffffffffffffff1663cc04a685836040518263ffffffff1660e01b8152600401612e3b9190613eec565b60006040518083038186803b158015612e5357600080fd5b505afa158015612e67573d6000803e3d6000fd5b505050506040513d6000823e3d601f19601f82011682018060405250612e909190810190613a90565b9050919050565b6000600160009054906101000a900473ffffffffffffffffffffffffffffffffffffffff1673ffffffffffffffffffffffffffffffffffffffff1663ce10cf88836040518263ffffffff1660e01b8152600401612ef49190613eec565b60206040518083038186803b158015612f0c57600080fd5b505afa158015612f20573d6000803e3d6000fd5b505050506040513d601f19601f82011682018060405250612f4491908101906136de565b9050919050565b6060600160009054906101000a900473ffffffffffffffffffffffffffffffffffffffff1673ffffffffffffffffffffffffffffffffffffffff1663dfb7ab60836040518263ffffffff1660e01b8152600401612fa89190613d81565b60006040518083038186803b158015612fc057600080fd5b505afa158015612fd4573d6000803e3d6000fd5b505050506040513d6000823e3d601f19601f82011682018060405250612ffd9190810190613a90565b9050919050565b6000600260009054906101000a900473ffffffffffffffffffffffffffffffffffffffff1673ffffffffffffffffffffffffffffffffffffffff1663e1153e6f84846040518363ffffffff1660e01b8152600401613063929190613e71565b602060405180830381600087803b15801561307d57600080fd5b505af1158015613091573d6000803e3d6000fd5b505050506040513d601f19601f820116820180604052506130b591908101906137af565b506001905092915050565b6000600260009054906101000a900473ffffffffffffffffffffffffffffffffffffffff1673ffffffffffffffffffffffffffffffffffffffff1663e85a340a836040518263ffffffff1660e01b815260040161311d9190613eec565b60206040518083038186803b15801561313557600080fd5b505afa158015613149573d6000803e3d6000fd5b505050506040513d601f19601f8201168201806040525061316d91908101906136de565b9050919050565b6000600360009054906101000a900473ffffffffffffffffffffffffffffffffffffffff1673ffffffffffffffffffffffffffffffffffffffff1663eadeb84c6040518163ffffffff1660e01b815260040160206040518083038186803b1580156131de57600080fd5b505afa1580156131f2573d6000803e3d6000fd5b505050506040513d601f19601f820116820180604052506132169190810190613afa565b905090565b6000600160009054906101000a900473ffffffffffffffffffffffffffffffffffffffff1673ffffffffffffffffffffffffffffffffffffffff1663eb9fbaa9836040518263ffffffff1660e01b81526004016132789190613ceb565b60206040518083038186803b15801561329057600080fd5b505afa1580156132a4573d6000803e3d6000fd5b505050506040513d601f19601f820116820180604052506132c891908101906137af565b9050919050565b6000600160009054906101000a900473ffffffffffffffffffffffffffffffffffffffff1673ffffffffffffffffffffffffffffffffffffffff1663ed96cf3984846040518363ffffffff1660e01b815260040161332e929190613d9c565b60206040518083038186803b15801561334657600080fd5b505afa15801561335a573d6000803e3d6000fd5b505050506040513d601f19601f8201168201806040525061337e9190810190613afa565b905092915050565b6000600160009054906101000a900473ffffffffffffffffffffffffffffffffffffffff1673ffffffffffffffffffffffffffffffffffffffff1663f421ba1084846040518363ffffffff1660e01b81526004016133e5929190613d9c565b60206040518083038186803b1580156133fd57600080fd5b505afa158015613411573d6000803e3d6000fd5b505050506040513d601f19601f820116820180604052506134359190810190613afa565b905092915050565b6000600160009054906101000a900473ffffffffffffffffffffffffffffffffffffffff1673ffffffffffffffffffffffffffffffffffffffff1663f7a65e608585856040518463ffffffff1660e01b815260040161349e93929190613e3a565b60206040518083038186803b1580156134b657600080fd5b505afa1580156134ca573d6000803e3d6000fd5b505050506040513d601f19601f820116820180604052506134ee9190810190613801565b90509392505050565b600081359050613506816140fe565b92915050565b60008151905061351b816140fe565b92915050565b600082601f83011261353257600080fd5b815161354561354082613fb0565b613f83565b9150818183526020840193506020810190508385602084028201111561356a57600080fd5b60005b8381101561359a578161358088826135ce565b84526020840193506020830192505060018101905061356d565b5050505092915050565b6000815190506135b381614115565b92915050565b6000813590506135c88161412c565b92915050565b6000815190506135dd8161412c565b92915050565b600082601f8301126135f457600080fd5b813561360761360282613fd8565b613f83565b9150808252602083016020830185838301111561362357600080fd5b61362e8382846140ab565b50505092915050565b600082601f83011261364857600080fd5b815161365b61365682613fd8565b613f83565b9150808252602083016020830185838301111561367757600080fd5b6136828382846140ba565b50505092915050565b60008135905061369a81614143565b92915050565b6000815190506136af81614143565b92915050565b6000602082840312156136c757600080fd5b60006136d5848285016134f7565b91505092915050565b6000602082840312156136f057600080fd5b60006136fe8482850161350c565b91505092915050565b60008060006060848603121561371c57600080fd5b600061372a8682870161350c565b935050602061373b868287016135ce565b925050604084015167ffffffffffffffff81111561375857600080fd5b61376486828701613637565b9150509250925092565b60006020828403121561378057600080fd5b600082015167ffffffffffffffff81111561379a57600080fd5b6137a684828501613521565b91505092915050565b6000602082840312156137c157600080fd5b60006137cf848285016135a4565b91505092915050565b6000602082840312156137ea57600080fd5b60006137f8848285016135b9565b91505092915050565b60006020828403121561381357600080fd5b6000613821848285016135ce565b91505092915050565b6000806040838503121561383d57600080fd5b600061384b858286016135b9565b925050602061385c858286016135b9565b9150509250929050565b60008060006060848603121561387b57600080fd5b6000613889868287016135b9565b935050602061389a868287016135b9565b92505060406138ab868287016135b9565b9150509250925092565b6000806000606084860312156138ca57600080fd5b60006138d8868287016135b9565b93505060206138e9868287016135b9565b925050604084013567ffffffffffffffff81111561390657600080fd5b613912868287016135e3565b9150509250925092565b60008060006060848603121561393157600080fd5b600061393f868287016135b9565b9350506020613950868287016135b9565b92505060406139618682870161368b565b9150509250925092565b6000806040838503121561397e57600080fd5b600061398c858286016135b9565b925050602083013567ffffffffffffffff8111156139a957600080fd5b6139b5858286016135e3565b9150509250929050565b600080604083850312156139d257600080fd5b60006139e0858286016135ce565b925050602083015167ffffffffffffffff8111156139fd57600080fd5b613a0985828601613637565b9150509250929050565b60008060408385031215613a2657600080fd5b6000613a34858286016135b9565b9250506020613a458582860161368b565b9150509250929050565b600060208284031215613a6157600080fd5b600082013567ffffffffffffffff811115613a7b57600080fd5b613a87848285016135e3565b91505092915050565b600060208284031215613aa257600080fd5b600082015167ffffffffffffffff811115613abc57600080fd5b613ac884828501613637565b91505092915050565b600060208284031215613ae357600080fd5b6000613af18482850161368b565b91505092915050565b600060208284031215613b0c57600080fd5b6000613b1a848285016136a0565b91505092915050565b600080600060608486031215613b3857600080fd5b6000613b46868287016136a0565b9350506020613b578682870161350c565b925050604084015167ffffffffffffffff811115613b7457600080fd5b613b8086828701613637565b9150509250925092565b600080600060608486031215613b9f57600080fd5b6000613bad868287016136a0565b9350506020613bbe868287016135ce565b925050604084015167ffffffffffffffff811115613bdb57600080fd5b613be786828701613637565b9150509250925092565b6000613bfd8383613c85565b60208301905092915050565b613c1281614059565b82525050565b6000613c2382614014565b613c2d8185614037565b9350613c3883614004565b8060005b83811015613c69578151613c508882613bf1565b9750613c5b8361402a565b925050600181019050613c3c565b5085935050505092915050565b613c7f8161406b565b82525050565b613c8e81614077565b82525050565b613c9d81614077565b82525050565b6000613cae8261401f565b613cb88185614048565b9350613cc88185602086016140ba565b613cd1816140ed565b840191505092915050565b613ce5816140a1565b82525050565b6000602082019050613d006000830184613c09565b92915050565b6000606082019050613d1b6000830186613c09565b613d286020830185613c94565b8181036040830152613d3a8184613ca3565b9050949350505050565b60006020820190508181036000830152613d5e8184613c18565b905092915050565b6000602082019050613d7b6000830184613c76565b92915050565b6000602082019050613d966000830184613c94565b92915050565b6000604082019050613db16000830185613c94565b613dbe6020830184613c94565b9392505050565b6000606082019050613dda6000830186613c94565b613de76020830185613c94565b613df46040830184613c94565b949350505050565b6000606082019050613e116000830186613c94565b613e1e6020830185613c94565b8181036040830152613e308184613ca3565b9050949350505050565b6000606082019050613e4f6000830186613c94565b613e5c6020830185613c94565b613e696040830184613cdc565b949350505050565b6000604082019050613e866000830185613c94565b8181036020830152613e988184613ca3565b90509392505050565b6000604082019050613eb66000830185613c94565b613ec36020830184613cdc565b9392505050565b60006020820190508181036000830152613ee48184613ca3565b905092915050565b6000602082019050613f016000830184613cdc565b92915050565b6000606082019050613f1c6000830186613cdc565b613f296020830185613c09565b8181036040830152613f3b8184613ca3565b9050949350505050565b6000606082019050613f5a6000830186613cdc565b613f676020830185613c94565b8181036040830152613f798184613ca3565b9050949350505050565b6000604051905081810181811067ffffffffffffffff82111715613fa657600080fd5b8060405250919050565b600067ffffffffffffffff821115613fc757600080fd5b602082029050602081019050919050565b600067ffffffffffffffff821115613fef57600080fd5b601f19601f8301169050602081019050919050565b6000819050602082019050919050565b600081519050919050565b600081519050919050565b6000602082019050919050565b600082825260208201905092915050565b600082825260208201905092915050565b600061406482614081565b9050919050565b60008115159050919050565b6000819050919050565b600073ffffffffffffffffffffffffffffffffffffffff82169050919050565b6000819050919050565b82818337600083830152505050565b60005b838110156140d85780820151818401526020810190506140bd565b838111156140e7576000848401525b50505050565b6000601f19601f8301169050919050565b61410781614059565b811461411257600080fd5b50565b61411e8161406b565b811461412957600080fd5b50565b61413581614077565b811461414057600080fd5b50565b61414c816140a1565b811461415757600080fd5b5056fea365627a7a7231582095964fb6480d483462d31e1e2ed55a22db3012cbac67aa210a3ae7a4b565fb406c6578706572696d656e74616cf564736f6c6343000510004060806040526040516200001290620001a4565b604051809103906000f0801580156200002f573d6000803e3d6000fd5b50600760006101000a81548173ffffffffffffffffffffffffffffffffffffffff021916908373ffffffffffffffffffffffffffffffffffffffff1602179055503480156200007d57600080fd5b5060023390806001815401808255809150509060018203906000526020600020016000909192909190916101000a81548173ffffffffffffffffffffffffffffffffffffffff021916908373ffffffffffffffffffffffffffffffffffffffff1602179055505060038060018154018082558091505090600182039060005260206000200160007f78000000000000000000000000000000000000000000000000000000000000009091909150555060048060018154018082558091505090600182039060005260206000200160006040518060400160405280600d81526020017f6e6f742d617661696c61626c6500000000000000000000000000000000000000815250909190915090805190602001906200019c929190620001b2565b505062000261565b61243b80620035c383390190565b828054600181600116156101000203166002900490600052602060002090601f016020900481019282601f10620001f557805160ff191683800117855562000226565b8280016001018555821562000226579182015b828111156200022557825182559160200191906001019062000208565b5b50905062000235919062000239565b5090565b6200025e91905b808211156200025a57600081600090555060010162000240565b5090565b90565b61335280620002716000396000f3fe608060405234801561001057600080fd5b50600436106102115760003560e01c80637448d8d811610125578063c190665b116100ad578063eb9fbaa91161007c578063eb9fbaa9146107aa578063ed96cf39146107da578063f421ba101461080a578063f7932fb01461083a578063f7a65e601461086a57610211565b8063c190665b146106fc578063cbb7e2ff1461071a578063ce10cf881461074a578063dfb7ab601461077a57610211565b8063ad36054b116100f4578063ad36054b14610608578063b1d5458d1461063a578063b9aa549b1461066a578063b9affb931461069a578063ba5c0335146106ca57610211565b80637448d8d8146105485780637b63cec41461057857806394e7ef6e146105a8578063a74380a6146105d857610211565b80633fe285d5116101a857806357ea0c2f1161017757806357ea0c2f146104565780635fe721ff1461048857806368761954146104b85780636cfbc8fd146104e8578063742752551461051857610211565b80633fe285d51461039657806345cfa71d146103c657806348099797146103f65780635035cf521461042657610211565b806320cfcbfa116101e457806320cfcbfa146102d657806324ecae0b1461030657806329f78d881461033657806330ca739b1461036657610211565b80630831192514610216578063083121ad146102465780630b8d6eae146102765780631973ef91146102a6575b600080fd5b610230600480360361022b919081019061284e565b61089a565b60405161023d9190612f4f565b60405180910390f35b610260600480360361025b91908101906128dc565b610953565b60405161026d9190612e89565b60405180910390f35b610290600480360361028b91908101906127bb565b610a1e565b60405161029d9190612e67565b60405180910390f35b6102c060048036036102bb91908101906127bb565b610ad7565b6040516102cd919061306c565b60405180910390f35b6102f060048036036102eb919081019061284e565b610b67565b6040516102fd919061306c565b60405180910390f35b610320600480360361031b91908101906128dc565b610c21565b60405161032d9190612ea4565b60405180910390f35b610350600480360361034b9190810190612af3565b610cea565b60405161035d9190612f4f565b60405180910390f35b610380600480360361037b91908101906127bb565b610dea565b60405161038d9190612e67565b60405180910390f35b6103b060048036036103ab91908101906128a0565b610ee0565b6040516103bd919061306c565b60405180910390f35b6103e060048036036103db919081019061284e565b610f95565b6040516103ed9190612e67565b60405180910390f35b610410600480360361040b91908101906128a0565b61105f565b60405161041d9190612e67565b60405180910390f35b610440600480360361043b919081019061292b565b61112a565b60405161044d9190612e89565b60405180910390f35b610470600480360361046b9190810190612af3565b6111e6565b60405161047f93929190612e29565b60405180910390f35b6104a2600480360361049d9190810190612a35565b611342565b6040516104af9190612ea4565b60405180910390f35b6104d260048036036104cd91908101906129e1565b6113f7565b6040516104df9190612e89565b60405180910390f35b61050260048036036104fd919081019061284e565b6115d1565b60405161050f9190612e0e565b60405180910390f35b610532600480360361052d919081019061292b565b61166d565b60405161053f9190612e89565b60405180910390f35b610562600480360361055d919081019061284e565b611729565b60405161056f9190612e67565b60405180910390f35b610592600480360361058d919081019061284e565b611845565b60405161059f9190612e89565b60405180910390f35b6105c260048036036105bd9190810190612a71565b61188e565b6040516105cf9190612e89565b60405180910390f35b6105f260048036036105ed91908101906127bb565b611990565b6040516105ff9190612f4f565b60405180910390f35b610622600480360361061d919081019061284e565b611acf565b60405161063193929190613087565b60405180910390f35b610654600480360361064f919081019061284e565b611c60565b604051610661919061306c565b60405180910390f35b610684600480360361067f9190810190612a35565b611cc5565b6040516106919190612ea4565b60405180910390f35b6106b460048036036106af91908101906127bb565b611d8b565b6040516106c19190612ea4565b60405180910390f35b6106e460048036036106df91908101906127bb565b611e32565b6040516106f3939291906130c5565b60405180910390f35b610704612012565b604051610711919061306c565b60405180910390f35b610734600480360361072f9190810190612af3565b61201f565b6040516107419190612ea4565b60405180910390f35b610764600480360361075f9190810190612af3565b612087565b6040516107719190612e0e565b60405180910390f35b610794600480360361078f919081019061284e565b61210f565b6040516107a19190612f4f565b60405180910390f35b6107c460048036036107bf91908101906127bb565b612223565b6040516107d19190612e89565b60405180910390f35b6107f460048036036107ef91908101906128a0565b6122db565b604051610801919061306c565b60405180910390f35b610824600480360361081f91908101906128a0565b6123a1565b604051610831919061306c565b60405180910390f35b610854600480360361084f919081019061284e565b612467565b6040516108619190612f71565b60405180910390f35b610884600480360361087f9190810190612992565b6124a4565b6040516108919190612ea4565b60405180910390f35b6060600760009054906101000a900473ffffffffffffffffffffffffffffffffffffffff1673ffffffffffffffffffffffffffffffffffffffff166308311925836040518263ffffffff1660e01b81526004016108f79190612ea4565b60006040518083038186803b15801561090f57600080fd5b505afa158015610923573d6000803e3d6000fd5b505050506040513d6000823e3d601f19601f8201168201806040525061094c9190810190612ab2565b9050919050565b60006005600085815260200190815260200160002060009054906101000a900473ffffffffffffffffffffffffffffffffffffffff1673ffffffffffffffffffffffffffffffffffffffff16631aa5346a84846040518363ffffffff1660e01b81526004016109c3929190612ebf565b602060405180830381600087803b1580156109dd57600080fd5b505af11580156109f1573d6000803e3d6000fd5b505050506040513d601f19601f82011682018060405250610a159190810190612825565b90509392505050565b6060600760009054906101000a900473ffffffffffffffffffffffffffffffffffffffff1673ffffffffffffffffffffffffffffffffffffffff16630b8d6eae836040518263ffffffff1660e01b8152600401610a7b9190612e0e565b60006040518083038186803b158015610a9357600080fd5b505afa158015610aa7573d6000803e3d6000fd5b505050506040513d6000823e3d601f19601f82011682018060405250610ad091908101906127e4565b9050919050565b6000610ae282612223565b610b21576040517f08c379a0000000000000000000000000000000000000000000000000000000008152600401610b1890612f8c565b60405180910390fd5b6000808373ffffffffffffffffffffffffffffffffffffffff1673ffffffffffffffffffffffffffffffffffffffff168152602001908152602001600020549050919050565b60006005600083815260200190815260200160002060009054906101000a900473ffffffffffffffffffffffffffffffffffffffff1673ffffffffffffffffffffffffffffffffffffffff1663624a4dac6040518163ffffffff1660e01b815260040160206040518083038186803b158015610be257600080fd5b505afa158015610bf6573d6000803e3d6000fd5b505050506040513d601f19601f82011682018060405250610c1a9190810190612b1c565b9050919050565b60006005600085815260200190815260200160002060009054906101000a900473ffffffffffffffffffffffffffffffffffffffff1673ffffffffffffffffffffffffffffffffffffffff16634b0cf75e84846040518363ffffffff1660e01b8152600401610c91929190612ebf565b60206040518083038186803b158015610ca957600080fd5b505afa158015610cbd573d6000803e3d6000fd5b505050506040513d601f19601f82011682018060405250610ce19190810190612877565b90509392505050565b60606002805490508210610d33576040517f08c379a0000000000000000000000000000000000000000000000000000000008152600401610d2a9061302c565b60405180910390fd5b60048281548110610d4057fe5b906000526020600020018054600181600116156101000203166002900480601f016020809104026020016040519081016040528092919081815260200182805460018160011615610100020316600290048015610dde5780601f10610db357610100808354040283529160200191610dde565b820191906000526020600020905b815481529060010190602001808311610dc157829003601f168201915b50505050509050919050565b6060600660008373ffffffffffffffffffffffffffffffffffffffff1673ffffffffffffffffffffffffffffffffffffffff16815260200190815260200160002060009054906101000a900473ffffffffffffffffffffffffffffffffffffffff1673ffffffffffffffffffffffffffffffffffffffff166330ca739b836040518263ffffffff1660e01b8152600401610e849190612e0e565b60006040518083038186803b158015610e9c57600080fd5b505afa158015610eb0573d6000803e3d6000fd5b505050506040513d6000823e3d601f19601f82011682018060405250610ed991908101906127e4565b9050919050565b6000600760009054906101000a900473ffffffffffffffffffffffffffffffffffffffff1673ffffffffffffffffffffffffffffffffffffffff16632dce4167836040518263ffffffff1660e01b8152600401610f3d9190612ea4565b60206040518083038186803b158015610f5557600080fd5b505afa158015610f69573d6000803e3d6000fd5b505050506040513d601f19601f82011682018060405250610f8d9190810190612b1c565b905092915050565b60606005600083815260200190815260200160002060009054906101000a900473ffffffffffffffffffffffffffffffffffffffff1673ffffffffffffffffffffffffffffffffffffffff166345cfa71d836040518263ffffffff1660e01b81526004016110039190612ea4565b60006040518083038186803b15801561101b57600080fd5b505afa15801561102f573d6000803e3d6000fd5b505050506040513d6000823e3d601f19601f8201168201806040525061105891908101906127e4565b9050919050565b60606005600084815260200190815260200160002060009054906101000a900473ffffffffffffffffffffffffffffffffffffffff1673ffffffffffffffffffffffffffffffffffffffff1663281c8ab7836040518263ffffffff1660e01b81526004016110cd9190612ea4565b60006040518083038186803b1580156110e557600080fd5b505afa1580156110f9573d6000803e3d6000fd5b505050506040513d6000823e3d601f19601f8201168201806040525061112291908101906127e4565b905092915050565b6000600760009054906101000a900473ffffffffffffffffffffffffffffffffffffffff1673ffffffffffffffffffffffffffffffffffffffff16635035cf528585856040518463ffffffff1660e01b815260040161118b93929190612ee8565b602060405180830381600087803b1580156111a557600080fd5b505af11580156111b9573d6000803e3d6000fd5b505050506040513d601f19601f820116820180604052506111dd9190810190612825565b90509392505050565b60008060606002805490508410611232576040517f08c379a00000000000000000000000000000000000000000000000000000000081526004016112299061302c565b60405180910390fd5b6002848154811061123f57fe5b9060005260206000200160009054906101000a900473ffffffffffffffffffffffffffffffffffffffff166003858154811061127757fe5b90600052602060002001546004868154811061128f57fe5b90600052602060002001808054600181600116156101000203166002900480601f01602080910402602001604051908101604052809291908181526020018280546001816001161561010002031660029004801561132e5780601f106113035761010080835404028352916020019161132e565b820191906000526020600020905b81548152906001019060200180831161131157829003601f168201915b505050505090509250925092509193909250565b6000600760009054906101000a900473ffffffffffffffffffffffffffffffffffffffff1673ffffffffffffffffffffffffffffffffffffffff16639b9fc6e0836040518263ffffffff1660e01b815260040161139f919061306c565b60206040518083038186803b1580156113b757600080fd5b505afa1580156113cb573d6000803e3d6000fd5b505050506040513d601f19601f820116820180604052506113ef9190810190612877565b905092915050565b600061140233612223565b15611442576040517f08c379a00000000000000000000000000000000000000000000000000000000081526004016114399061304c565b60405180910390fd5b61144b83611845565b1561148b576040517f08c379a000000000000000000000000000000000000000000000000000000000815260040161148290612fcc565b60405180910390fd5b60023390806001815401808255809150509060018203906000526020600020016000909192909190916101000a81548173ffffffffffffffffffffffffffffffffffffffff021916908373ffffffffffffffffffffffffffffffffffffffff160217905550506003839080600181540180825580915050906001820390600052602060002001600090919290919091505550600482908060018154018082558091505090600182039060005260206000200160009091929091909150908051906020019061155a92919061256d565b50506001600280549050036000803373ffffffffffffffffffffffffffffffffffffffff1673ffffffffffffffffffffffffffffffffffffffff1681526020019081526020016000208190555060016002805490500360016000858152602001908152602001600020819055506001905092915050565b60006115dc82611845565b61161b576040517f08c379a000000000000000000000000000000000000000000000000000000000815260040161161290612fac565b60405180910390fd5b600260016000848152602001908152602001600020548154811061163b57fe5b9060005260206000200160009054906101000a900473ffffffffffffffffffffffffffffffffffffffff169050919050565b6000600760009054906101000a900473ffffffffffffffffffffffffffffffffffffffff1673ffffffffffffffffffffffffffffffffffffffff1663742752558585856040518463ffffffff1660e01b81526004016116ce93929190612ee8565b602060405180830381600087803b1580156116e857600080fd5b505af11580156116fc573d6000803e3d6000fd5b505050506040513d601f19601f820116820180604052506117209190810190612825565b90509392505050565b606061174f61174a6001600085815260200190815260200160002054612087565b612223565b61178e576040517f08c379a00000000000000000000000000000000000000000000000000000000081526004016117859061300c565b60405180910390fd5b600760009054906101000a900473ffffffffffffffffffffffffffffffffffffffff1673ffffffffffffffffffffffffffffffffffffffff16637448d8d8836040518263ffffffff1660e01b81526004016117e99190612ea4565b60006040518083038186803b15801561180157600080fd5b505afa158015611815573d6000803e3d6000fd5b505050506040513d6000823e3d601f19601f8201168201806040525061183e91908101906127e4565b9050919050565b6000806001600084815260200190815260200160002054118061188757507f73656c660000000000000000000000000000000000000000000000000000000082145b9050919050565b600061189933612223565b156118d9576040517f08c379a00000000000000000000000000000000000000000000000000000000081526004016118d09061304c565b60405180910390fd5b600760009054906101000a900473ffffffffffffffffffffffffffffffffffffffff1673ffffffffffffffffffffffffffffffffffffffff166394e7ef6e836040518263ffffffff1660e01b81526004016119349190612f4f565b602060405180830381600087803b15801561194e57600080fd5b505af1158015611962573d6000803e3d6000fd5b505050506040513d601f19601f820116820180604052506119869190810190612825565b5060019050919050565b606061199b82612223565b6119da576040517f08c379a00000000000000000000000000000000000000000000000000000000081526004016119d190612f8c565b60405180910390fd5b60046000808473ffffffffffffffffffffffffffffffffffffffff1673ffffffffffffffffffffffffffffffffffffffff1681526020019081526020016000205481548110611a2557fe5b906000526020600020018054600181600116156101000203166002900480601f016020809104026020016040519081016040528092919081815260200182805460018160011615610100020316600290048015611ac35780601f10611a9857610100808354040283529160200191611ac3565b820191906000526020600020905b815481529060010190602001808311611aa657829003601f168201915b50505050509050919050565b6000806060600280549050600160008681526020019081526020016000205410611b2e576040517f08c379a0000000000000000000000000000000000000000000000000000000008152600401611b2590612fec565b60405180910390fd5b60016000858152602001908152602001600020546002600160008781526020019081526020016000205481548110611b6257fe5b9060005260206000200160009054906101000a900473ffffffffffffffffffffffffffffffffffffffff166004600160008881526020019081526020016000205481548110611bad57fe5b90600052602060002001808054600181600116156101000203166002900480601f016020809104026020016040519081016040528092919081815260200182805460018160011615610100020316600290048015611c4c5780601f10611c2157610100808354040283529160200191611c4c565b820191906000526020600020905b815481529060010190602001808311611c2f57829003601f168201915b505050505090509250925092509193909250565b6000611c6b82611845565b611caa576040517f08c379a0000000000000000000000000000000000000000000000000000000008152600401611ca190612fac565b60405180910390fd5b60016000838152602001908152602001600020549050919050565b60006005600084815260200190815260200160002060009054906101000a900473ffffffffffffffffffffffffffffffffffffffff1673ffffffffffffffffffffffffffffffffffffffff1663511ad522836040518263ffffffff1660e01b8152600401611d33919061306c565b60206040518083038186803b158015611d4b57600080fd5b505afa158015611d5f573d6000803e3d6000fd5b505050506040513d601f19601f82011682018060405250611d839190810190612877565b905092915050565b6000611d9682612223565b611dd5576040517f08c379a0000000000000000000000000000000000000000000000000000000008152600401611dcc90612f8c565b60405180910390fd5b60036000808473ffffffffffffffffffffffffffffffffffffffff1673ffffffffffffffffffffffffffffffffffffffff1681526020019081526020016000205481548110611e2057fe5b90600052602060002001549050919050565b6000806060611e4084612223565b611e7f576040517f08c379a0000000000000000000000000000000000000000000000000000000008152600401611e7690612f8c565b60405180910390fd5b6000808573ffffffffffffffffffffffffffffffffffffffff1673ffffffffffffffffffffffffffffffffffffffff1681526020019081526020016000205460036000808773ffffffffffffffffffffffffffffffffffffffff1673ffffffffffffffffffffffffffffffffffffffff1681526020019081526020016000205481548110611f0957fe5b906000526020600020015460046000808873ffffffffffffffffffffffffffffffffffffffff1673ffffffffffffffffffffffffffffffffffffffff1681526020019081526020016000205481548110611f5f57fe5b90600052602060002001808054600181600116156101000203166002900480601f016020809104026020016040519081016040528092919081815260200182805460018160011615610100020316600290048015611ffe5780601f10611fd357610100808354040283529160200191611ffe565b820191906000526020600020905b815481529060010190602001808311611fe157829003601f168201915b505050505090509250925092509193909250565b6000600280549050905090565b60006002805490508210612068576040517f08c379a000000000000000000000000000000000000000000000000000000000815260040161205f9061302c565b60405180910390fd5b6003828154811061207557fe5b90600052602060002001549050919050565b600060028054905082106120d0576040517f08c379a00000000000000000000000000000000000000000000000000000000081526004016120c79061302c565b60405180910390fd5b600282815481106120dd57fe5b9060005260206000200160009054906101000a900473ffffffffffffffffffffffffffffffffffffffff169050919050565b606061211a82611845565b612159576040517f08c379a000000000000000000000000000000000000000000000000000000000815260040161215090612fac565b60405180910390fd5b600460016000848152602001908152602001600020548154811061217957fe5b906000526020600020018054600181600116156101000203166002900480601f0160208091040260200160405190810160405280929190818152602001828054600181600116156101000203166002900480156122175780601f106121ec57610100808354040283529160200191612217565b820191906000526020600020905b8154815290600101906020018083116121fa57829003601f168201915b50505050509050919050565b6000806000808473ffffffffffffffffffffffffffffffffffffffff1673ffffffffffffffffffffffffffffffffffffffff1681526020019081526020016000205411806122d45750600260008154811061227a57fe5b9060005260206000200160009054906101000a900473ffffffffffffffffffffffffffffffffffffffff1673ffffffffffffffffffffffffffffffffffffffff168273ffffffffffffffffffffffffffffffffffffffff16145b9050919050565b60006005600084815260200190815260200160002060009054906101000a900473ffffffffffffffffffffffffffffffffffffffff1673ffffffffffffffffffffffffffffffffffffffff1663234c1618836040518263ffffffff1660e01b81526004016123499190612ea4565b60206040518083038186803b15801561236157600080fd5b505afa158015612375573d6000803e3d6000fd5b505050506040513d601f19601f820116820180604052506123999190810190612b1c565b905092915050565b60006005600084815260200190815260200160002060009054906101000a900473ffffffffffffffffffffffffffffffffffffffff1673ffffffffffffffffffffffffffffffffffffffff16634ed37f49836040518263ffffffff1660e01b815260040161240f9190612ea4565b60206040518083038186803b15801561242757600080fd5b505afa15801561243b573d6000803e3d6000fd5b505050506040513d601f19601f8201168201806040525061245f9190810190612b1c565b905092915050565b60006005600083815260200190815260200160002060009054906101000a900473ffffffffffffffffffffffffffffffffffffffff169050919050565b60006005600085815260200190815260200160002060009054906101000a900473ffffffffffffffffffffffffffffffffffffffff1673ffffffffffffffffffffffffffffffffffffffff166348ec275584846040518363ffffffff1660e01b8152600401612514929190612f26565b60206040518083038186803b15801561252c57600080fd5b505afa158015612540573d6000803e3d6000fd5b505050506040513d601f19601f820116820180604052506125649190810190612877565b90509392505050565b828054600181600116156101000203166002900490600052602060002090601f016020900481019282601f106125ae57805160ff19168380011785556125dc565b828001600101855582156125dc579182015b828111156125db5782518255916020019190600101906125c0565b5b5090506125e991906125ed565b5090565b61260f91905b8082111561260b5760008160009055506001016125f3565b5090565b90565b600081359050612621816132b3565b92915050565b600082601f83011261263857600080fd5b815161264b61264682613130565b613103565b9150818183526020840193506020810190508385602084028201111561267057600080fd5b60005b838110156126a0578161268688826126d4565b845260208401935060208301925050600181019050612673565b5050505092915050565b6000815190506126b9816132ca565b92915050565b6000813590506126ce816132e1565b92915050565b6000815190506126e3816132e1565b92915050565b600082601f8301126126fa57600080fd5b813561270d61270882613158565b613103565b9150808252602083016020830185838301111561272957600080fd5b612734838284613260565b50505092915050565b600082601f83011261274e57600080fd5b815161276161275c82613158565b613103565b9150808252602083016020830185838301111561277d57600080fd5b61278883828461326f565b50505092915050565b6000813590506127a0816132f8565b92915050565b6000815190506127b5816132f8565b92915050565b6000602082840312156127cd57600080fd5b60006127db84828501612612565b91505092915050565b6000602082840312156127f657600080fd5b600082015167ffffffffffffffff81111561281057600080fd5b61281c84828501612627565b91505092915050565b60006020828403121561283757600080fd5b6000612845848285016126aa565b91505092915050565b60006020828403121561286057600080fd5b600061286e848285016126bf565b91505092915050565b60006020828403121561288957600080fd5b6000612897848285016126d4565b91505092915050565b600080604083850312156128b357600080fd5b60006128c1858286016126bf565b92505060206128d2858286016126bf565b9150509250929050565b6000806000606084860312156128f157600080fd5b60006128ff868287016126bf565b9350506020612910868287016126bf565b9250506040612921868287016126bf565b9150509250925092565b60008060006060848603121561294057600080fd5b600061294e868287016126bf565b935050602061295f868287016126bf565b925050604084013567ffffffffffffffff81111561297c57600080fd5b612988868287016126e9565b9150509250925092565b6000806000606084860312156129a757600080fd5b60006129b5868287016126bf565b93505060206129c6868287016126bf565b92505060406129d786828701612791565b9150509250925092565b600080604083850312156129f457600080fd5b6000612a02858286016126bf565b925050602083013567ffffffffffffffff811115612a1f57600080fd5b612a2b858286016126e9565b9150509250929050565b60008060408385031215612a4857600080fd5b6000612a56858286016126bf565b9250506020612a6785828601612791565b9150509250929050565b600060208284031215612a8357600080fd5b600082013567ffffffffffffffff811115612a9d57600080fd5b612aa9848285016126e9565b91505092915050565b600060208284031215612ac457600080fd5b600082015167ffffffffffffffff811115612ade57600080fd5b612aea8482850161273d565b91505092915050565b600060208284031215612b0557600080fd5b6000612b1384828501612791565b91505092915050565b600060208284031215612b2e57600080fd5b6000612b3c848285016127a6565b91505092915050565b6000612b518383612bd9565b60208301905092915050565b612b66816131ea565b82525050565b6000612b7782613194565b612b8181856131b7565b9350612b8c83613184565b8060005b83811015612bbd578151612ba48882612b45565b9750612baf836131aa565b925050600181019050612b90565b5085935050505092915050565b612bd3816131fc565b82525050565b612be281613208565b82525050565b612bf181613208565b82525050565b6000612c028261319f565b612c0c81856131c8565b9350612c1c81856020860161326f565b612c25816132a2565b840191505092915050565b612c398161323c565b82525050565b6000612c4c6016836131d9565b91507f50617469656e7420646f65736e277420657869737421000000000000000000006000830152602082019050919050565b6000612c8c6017836131d9565b91507f43616e27742066696e64207468652070617469656e74210000000000000000006000830152602082019050919050565b6000612ccc601c836131d9565b91507f50617469656e74206e616d6520686173206265656e2074616b656e2e000000006000830152602082019050919050565b6000612d0c601b836131d9565b91507f50617469656e7420696e646578206f7574206f6620626f756e642100000000006000830152602082019050919050565b6000612d4c601a836131d9565b91507f50617469656e74206861736e2774206265656e20666f756e642e0000000000006000830152602082019050919050565b6000612d8c6013836131d9565b91507f496e646578206f7574206f6620626f756e6421000000000000000000000000006000830152602082019050919050565b6000612dcc6016836131d9565b91507f53656e646572206e6f7420617574686f72697a65642e000000000000000000006000830152602082019050919050565b612e0881613232565b82525050565b6000602082019050612e236000830184612b5d565b92915050565b6000606082019050612e3e6000830186612b5d565b612e4b6020830185612be8565b8181036040830152612e5d8184612bf7565b9050949350505050565b60006020820190508181036000830152612e818184612b6c565b905092915050565b6000602082019050612e9e6000830184612bca565b92915050565b6000602082019050612eb96000830184612be8565b92915050565b6000604082019050612ed46000830185612be8565b612ee16020830184612be8565b9392505050565b6000606082019050612efd6000830186612be8565b612f0a6020830185612be8565b8181036040830152612f1c8184612bf7565b9050949350505050565b6000604082019050612f3b6000830185612be8565b612f486020830184612dff565b9392505050565b60006020820190508181036000830152612f698184612bf7565b905092915050565b6000602082019050612f866000830184612c30565b92915050565b60006020820190508181036000830152612fa581612c3f565b9050919050565b60006020820190508181036000830152612fc581612c7f565b9050919050565b60006020820190508181036000830152612fe581612cbf565b9050919050565b6000602082019050818103600083015261300581612cff565b9050919050565b6000602082019050818103600083015261302581612d3f565b9050919050565b6000602082019050818103600083015261304581612d7f565b9050919050565b6000602082019050818103600083015261306581612dbf565b9050919050565b60006020820190506130816000830184612dff565b92915050565b600060608201905061309c6000830186612dff565b6130a96020830185612b5d565b81810360408301526130bb8184612bf7565b9050949350505050565b60006060820190506130da6000830186612dff565b6130e76020830185612be8565b81810360408301526130f98184612bf7565b9050949350505050565b6000604051905081810181811067ffffffffffffffff8211171561312657600080fd5b8060405250919050565b600067ffffffffffffffff82111561314757600080fd5b602082029050602081019050919050565b600067ffffffffffffffff82111561316f57600080fd5b601f19601f8301169050602081019050919050565b6000819050602082019050919050565b600081519050919050565b600081519050919050565b6000602082019050919050565b600082825260208201905092915050565b600082825260208201905092915050565b600082825260208201905092915050565b60006131f582613212565b9050919050565b60008115159050919050565b6000819050919050565b600073ffffffffffffffffffffffffffffffffffffffff82169050919050565b6000819050919050565b60006132478261324e565b9050919050565b600061325982613212565b9050919050565b82818337600083830152505050565b60005b8381101561328d578082015181840152602081019050613272565b8381111561329c576000848401525b50505050565b6000601f19601f8301169050919050565b6132bc816131ea565b81146132c757600080fd5b50565b6132d3816131fc565b81146132de57600080fd5b50565b6132ea81613208565b81146132f557600080fd5b50565b61330181613232565b811461330c57600080fd5b5056fea365627a7a723158200612f44b086a23ee70e8c3f3a89790927926920be0c896a0e3ce7a7533daa4136c6578706572696d656e74616cf564736f6c6343000510004060806040526040516200001290620001a5565b604051809103906000f0801580156200002f573d6000803e3d6000fd5b50600360006101000a81548173ffffffffffffffffffffffffffffffffffffffff021916908373ffffffffffffffffffffffffffffffffffffffff1602179055506040516200007e90620001b3565b604051809103906000f0801580156200009b573d6000803e3d6000fd5b50600a60006101000a81548173ffffffffffffffffffffffffffffffffffffffff021916908373ffffffffffffffffffffffffffffffffffffffff160217905550348015620000e957600080fd5b50336000806101000a81548173ffffffffffffffffffffffffffffffffffffffff021916908373ffffffffffffffffffffffffffffffffffffffff1602179055507f78000000000000000000000000000000000000000000000000000000000000006001819055506040518060400160405280600181526020017f7800000000000000000000000000000000000000000000000000000000000000815250600290805190602001906200019e929190620001c1565b5062000270565b6106df8062001ba483390190565b6101b8806200228383390190565b828054600181600116156101000203166002900490600052602060002090601f016020900481019282601f106200020457805160ff191683800117855562000235565b8280016001018555821562000235579182015b828111156200023457825182559160200191906001019062000217565b5b50905062000244919062000248565b5090565b6200026d91905b80821115620002695760008160009055506001016200024f565b5090565b90565b61192480620002806000396000f3fe608060405234801561001057600080fd5b50600436106101215760003560e01c80634b0cf75e116100ad578063742752551161007157806374275255146103b45780637448d8d8146103e457806394e7ef6e146104145780639b9fc6e014610444578063f811f1ab1461047457610121565b80634b0cf75e146102d65780634ed37f49146103065780635035cf5214610336578063511ad52214610366578063624a4dac1461039657610121565b8063281c8ab7116100f4578063281c8ab7146101e65780632dce41671461021657806330ca739b1461024657806345cfa71d1461027657806348ec2755146102a657610121565b806308311925146101265780630b8d6eae146101565780631aa5346a14610186578063234c1618146101b6575b600080fd5b610140600480360361013b91908101906112d5565b610492565b60405161014d9190611697565b60405180910390f35b610170600480360361016b9190810190611242565b61055e565b60405161017d9190611616565b60405180910390f35b6101a0600480360361019b9190810190611327565b6105f5565b6040516101ad9190611638565b60405180910390f35b6101d060048036036101cb91908101906112d5565b6106bd565b6040516101dd91906116b9565b60405180910390f35b61020060048036036101fb91908101906112d5565b6106da565b60405161020d9190611616565b60405180910390f35b610230600480360361022b91908101906112d5565b610799565b60405161023d91906116b9565b60405180910390f35b610260600480360361025b9190810190611242565b6107b6565b60405161026d9190611616565b60405180910390f35b610290600480360361028b91908101906112d5565b61084d565b60405161029d9190611616565b60405180910390f35b6102c060048036036102bb91908101906113ca565b6108b8565b6040516102cd9190611653565b60405180910390f35b6102f060048036036102eb9190810190611327565b61097e565b6040516102fd9190611653565b60405180910390f35b610320600480360361031b91908101906112d5565b610a44565b60405161032d91906116b9565b60405180910390f35b610350600480360361034b9190810190611363565b610afe565b60405161035d9190611638565b60405180910390f35b610380600480360361037b9190810190611447565b610c9c565b60405161038d9190611653565b60405180910390f35b61039e610cbd565b6040516103ab91906116b9565b60405180910390f35b6103ce60048036036103c99190810190611363565b610cca565b6040516103db9190611638565b60405180910390f35b6103fe60048036036103f991908101906112d5565b610f16565b60405161040b9190611616565b60405180910390f35b61042e60048036036104299190810190611406565b610f81565b60405161043b9190611638565b60405180910390f35b61045e60048036036104599190810190611447565b610fa3565b60405161046b9190611653565b60405180910390f35b61047c610fc4565b60405161048991906116b9565b60405180910390f35b606060096004600084815260200190815260200160002054815481106104b457fe5b906000526020600020018054600181600116156101000203166002900480601f0160208091040260200160405190810160405280929190818152602001828054600181600116156101000203166002900480156105525780601f1061052757610100808354040283529160200191610552565b820191906000526020600020905b81548152906001019060200180831161053557829003601f168201915b50505050509050919050565b6060600660008373ffffffffffffffffffffffffffffffffffffffff1673ffffffffffffffffffffffffffffffffffffffff1681526020019081526020016000208054806020026020016040519081016040528092919081815260200182805480156105e957602002820191906000526020600020905b8154815260200190600101908083116105d5575b50505050509050919050565b60006007600084815260200190815260200160002060009054906101000a900473ffffffffffffffffffffffffffffffffffffffff1673ffffffffffffffffffffffffffffffffffffffff16631f97c4c3836040518263ffffffff1660e01b81526004016106639190611653565b602060405180830381600087803b15801561067d57600080fd5b505af1158015610691573d6000803e3d6000fd5b505050506040513d601f19601f820116820180604052506106b591908101906112ac565b905092915050565b6000600b6000838152602001908152602001600020549050919050565b60606007600083815260200190815260200160002060009054906101000a900473ffffffffffffffffffffffffffffffffffffffff1673ffffffffffffffffffffffffffffffffffffffff166377e4afe46040518163ffffffff1660e01b815260040160006040518083038186803b15801561075557600080fd5b505afa158015610769573d6000803e3d6000fd5b505050506040513d6000823e3d601f19601f82011682018060405250610792919081019061126b565b9050919050565b600060046000838152602001908152602001600020549050919050565b6060600660008373ffffffffffffffffffffffffffffffffffffffff1673ffffffffffffffffffffffffffffffffffffffff16815260200190815260200160002080548060200260200160405190810160405280929190818152602001828054801561084157602002820191906000526020600020905b81548152602001906001019080831161082d575b50505050509050919050565b6060600c60008381526020019081526020016000208054806020026020016040519081016040528092919081815260200182805480156108ac57602002820191906000526020600020905b815481526020019060010190808311610898575b50505050509050919050565b60006007600084815260200190815260200160002060009054906101000a900473ffffffffffffffffffffffffffffffffffffffff1673ffffffffffffffffffffffffffffffffffffffff16631e50b182836040518263ffffffff1660e01b815260040161092691906116b9565b60206040518083038186803b15801561093e57600080fd5b505afa158015610952573d6000803e3d6000fd5b505050506040513d601f19601f8201168201806040525061097691908101906112fe565b905092915050565b60006007600084815260200190815260200160002060009054906101000a900473ffffffffffffffffffffffffffffffffffffffff1673ffffffffffffffffffffffffffffffffffffffff1663c294ab1e836040518263ffffffff1660e01b81526004016109ec9190611653565b60206040518083038186803b158015610a0457600080fd5b505afa158015610a18573d6000803e3d6000fd5b505050506040513d601f19601f82011682018060405250610a3c91908101906112fe565b905092915050565b60006007600083815260200190815260200160002060009054906101000a900473ffffffffffffffffffffffffffffffffffffffff1673ffffffffffffffffffffffffffffffffffffffff1663cd2483416040518163ffffffff1660e01b815260040160206040518083038186803b158015610abf57600080fd5b505afa158015610ad3573d6000803e3d6000fd5b505050506040513d601f19601f82011682018060405250610af79190810190611470565b9050919050565b6000600a60009054906101000a900473ffffffffffffffffffffffffffffffffffffffff1673ffffffffffffffffffffffffffffffffffffffff1663949f3a4e3386866040518463ffffffff1660e01b8152600401610b5f93929190611593565b600060405180830381600087803b158015610b7957600080fd5b505af1158015610b8d573d6000803e3d6000fd5b50505050600e839080600181540180825580915050906001820390600052602060002001600090919290919091505550600e80549050600b600085815260200190815260200160002081905550600e600c6000868152602001908152602001600020908054610bfd929190610fd1565b50600e600d60003373ffffffffffffffffffffffffffffffffffffffff1673ffffffffffffffffffffffffffffffffffffffff168152602001908152602001600020908054610c4d929190610fd1565b50610c5782610f81565b507f2bb590431d1dfc5d86ac3f951c70a27b4818eb2e4bc69ba773cf6f12b3ca98158484604051610c8992919061166e565b60405180910390a1600190509392505050565b6000600e8281548110610cab57fe5b90600052602060002001549050919050565b6000600e80549050905090565b6000600360009054906101000a900473ffffffffffffffffffffffffffffffffffffffff1673ffffffffffffffffffffffffffffffffffffffff1663de6a5a2e338686866040518563ffffffff1660e01b8152600401610d2d94939291906115ca565b600060405180830381600087803b158015610d4757600080fd5b505af1158015610d5b573d6000803e3d6000fd5b5050505060088390806001815401808255809150509060018203906000526020600020016000909192909190915055506009829080600181540180825580915050906001820390600052602060002001600090919290919091509080519060200190610dc8929190611023565b50506001600880549050036004600085815260200190815260200160002081905550600860056000868152602001908152602001600020908054610e0d929190610fd1565b506008600660003373ffffffffffffffffffffffffffffffffffffffff1673ffffffffffffffffffffffffffffffffffffffff168152602001908152602001600020908054610e5d929190610fd1565b50600360009054906101000a900473ffffffffffffffffffffffffffffffffffffffff166007600085815260200190815260200160002060006101000a81548173ffffffffffffffffffffffffffffffffffffffff021916908373ffffffffffffffffffffffffffffffffffffffff1602179055507f8f4940dfc4a4a23294dbd13e6f0929ba11b468a44fc5005a4f895430a844d1088484604051610f0392919061166e565b60405180910390a1600190509392505050565b606060056000838152602001908152602001600020805480602002602001604051908101604052809291908181526020018280548015610f7557602002820191906000526020600020905b815481526020019060010190808311610f61575b50505050509050919050565b60008160029080519060200190610f99929190611023565b5060019050919050565b600060088281548110610fb257fe5b90600052602060002001549050919050565b6000600880549050905090565b8280548282559060005260206000209081019282156110125760005260206000209182015b82811115611011578254825591600101919060010190610ff6565b5b50905061101f91906110a3565b5090565b828054600181600116156101000203166002900490600052602060002090601f016020900481019282601f1061106457805160ff1916838001178555611092565b82800160010185558215611092579182015b82811115611091578251825591602001919060010190611076565b5b50905061109f91906110c8565b5090565b6110c591905b808211156110c15760008160009055506001016110a9565b5090565b90565b6110ea91905b808211156110e65760008160009055506001016110ce565b5090565b90565b6000813590506110fc81611885565b92915050565b600082601f83011261111357600080fd5b815161112661112182611701565b6116d4565b9150818183526020840193506020810190508385602084028201111561114b57600080fd5b60005b8381101561117b578161116188826111af565b84526020840193506020830192505060018101905061114e565b5050505092915050565b6000815190506111948161189c565b92915050565b6000813590506111a9816118b3565b92915050565b6000815190506111be816118b3565b92915050565b600082601f8301126111d557600080fd5b81356111e86111e382611729565b6116d4565b9150808252602083016020830185838301111561120457600080fd5b61120f838284611832565b50505092915050565b600081359050611227816118ca565b92915050565b60008151905061123c816118ca565b92915050565b60006020828403121561125457600080fd5b6000611262848285016110ed565b91505092915050565b60006020828403121561127d57600080fd5b600082015167ffffffffffffffff81111561129757600080fd5b6112a384828501611102565b91505092915050565b6000602082840312156112be57600080fd5b60006112cc84828501611185565b91505092915050565b6000602082840312156112e757600080fd5b60006112f58482850161119a565b91505092915050565b60006020828403121561131057600080fd5b600061131e848285016111af565b91505092915050565b6000806040838503121561133a57600080fd5b60006113488582860161119a565b92505060206113598582860161119a565b9150509250929050565b60008060006060848603121561137857600080fd5b60006113868682870161119a565b93505060206113978682870161119a565b925050604084013567ffffffffffffffff8111156113b457600080fd5b6113c0868287016111c4565b9150509250925092565b600080604083850312156113dd57600080fd5b60006113eb8582860161119a565b92505060206113fc85828601611218565b9150509250929050565b60006020828403121561141857600080fd5b600082013567ffffffffffffffff81111561143257600080fd5b61143e848285016111c4565b91505092915050565b60006020828403121561145957600080fd5b600061146784828501611218565b91505092915050565b60006020828403121561148257600080fd5b60006114908482850161122d565b91505092915050565b60006114a5838361152d565b60208301905092915050565b6114ba816117fc565b82525050565b60006114cb82611765565b6114d58185611788565b93506114e083611755565b8060005b838110156115115781516114f88882611499565b97506115038361177b565b9250506001810190506114e4565b5085935050505092915050565b611527816117bc565b82525050565b611536816117c8565b82525050565b611545816117c8565b82525050565b600061155682611770565b6115608185611799565b9350611570818560208601611841565b61157981611874565b840191505092915050565b61158d816117f2565b82525050565b60006060820190506115a860008301866114b1565b6115b5602083018561153c565b6115c2604083018461153c565b949350505050565b60006080820190506115df60008301876114b1565b6115ec602083018661153c565b6115f9604083018561153c565b818103606083015261160b818461154b565b905095945050505050565b6000602082019050818103600083015261163081846114c0565b905092915050565b600060208201905061164d600083018461151e565b92915050565b6000602082019050611668600083018461153c565b92915050565b6000604082019050611683600083018561153c565b611690602083018461153c565b9392505050565b600060208201905081810360008301526116b1818461154b565b905092915050565b60006020820190506116ce6000830184611584565b92915050565b6000604051905081810181811067ffffffffffffffff821117156116f757600080fd5b8060405250919050565b600067ffffffffffffffff82111561171857600080fd5b602082029050602081019050919050565b600067ffffffffffffffff82111561174057600080fd5b601f19601f8301169050602081019050919050565b6000819050602082019050919050565b600081519050919050565b600081519050919050565b6000602082019050919050565b600082825260208201905092915050565b600082825260208201905092915050565b60006117b5826117d2565b9050919050565b60008115159050919050565b6000819050919050565b600073ffffffffffffffffffffffffffffffffffffffff82169050919050565b6000819050919050565b60006118078261180e565b9050919050565b600061181982611820565b9050919050565b600061182b826117d2565b9050919050565b82818337600083830152505050565b60005b8381101561185f578082015181840152602081019050611844565b8381111561186e576000848401525b50505050565b6000601f19601f8301169050919050565b61188e816117aa565b811461189957600080fd5b50565b6118a5816117bc565b81146118b057600080fd5b50565b6118bc816117c8565b81146118c757600080fd5b50565b6118d3816117f2565b81146118de57600080fd5b5056fea365627a7a72315820d6ac50725cba2fb6dcabaa06d23ca65a53ef672c72ce573f118a64c3ffe6f6b96c6578706572696d656e74616cf564736f6c63430005100040608060405234801561001057600080fd5b50336000806101000a81548173ffffffffffffffffffffffffffffffffffffffff021916908373ffffffffffffffffffffffffffffffffffffffff1602179055507f78000000000000000000000000000000000000000000000000000000000000006001819055507f78000000000000000000000000000000000000000000000000000000000000006002819055506040518060400160405280600181526020017f7800000000000000000000000000000000000000000000000000000000000000815250600390805190602001906100ea929190610138565b5060048060018154018082558091505090600182039060005260206000200160007f6e6f742d617661696c61626c6500000000000000000000000000000000000000909190915055506101dd565b828054600181600116156101000203166002900490600052602060002090601f016020900481019282601f1061017957805160ff19168380011785556101a7565b828001600101855582156101a7579182015b828111156101a657825182559160200191906001019061018b565b5b5090506101b491906101b8565b5090565b6101da91905b808211156101d65760008160009055506001016101be565b5090565b90565b6104f3806101ec6000396000f3fe608060405234801561001057600080fd5b50600436106100625760003560e01c80631e50b182146100675780631f97c4c3146100a957806377e4afe4146100ef578063c294ab1e1461014e578063cd24834114610190578063de6a5a2e146101ae575b600080fd5b6100936004803603602081101561007d57600080fd5b810190808035906020019092919050505061029d565b6040518082815260200191505060405180910390f35b6100d5600480360360208110156100bf57600080fd5b81019080803590602001909291905050506102be565b604051808215151515815260200191505060405180910390f35b6100f7610315565b6040518080602001828103825283818151815260200191508051906020019060200280838360005b8381101561013a57808201518184015260208101905061011f565b505050509050019250505060405180910390f35b61017a6004803603602081101561016457600080fd5b810190808035906020019092919050505061036d565b6040518082815260200191505060405180910390f35b6101986103a1565b6040518082815260200191505060405180910390f35b61029b600480360360808110156101c457600080fd5b81019080803573ffffffffffffffffffffffffffffffffffffffff16906020019092919080359060200190929190803590602001909291908035906020019064010000000081111561021557600080fd5b82018360208201111561022757600080fd5b8035906020019184600183028401116401000000008311171561024957600080fd5b91908080601f016020809104026020016040519081016040528093929190818152602001838380828437600081840152601f19601f8201169050808301925050505050505091929192905050506103ae565b005b6000600482815481106102ac57fe5b90600052602060002001549050919050565b60006004829080600181540180825580915050906001820390600052602060002001600090919290919091505550600160048054905003600560008481526020019081526020016000208190555060019050919050565b6060600480548060200260200160405190810160405280929190818152602001828054801561036357602002820191906000526020600020905b81548152602001906001019080831161034f575b5050505050905090565b6000600460056000848152602001908152602001600020548154811061038f57fe5b90600052602060002001549050919050565b6000600480549050905090565b836000806101000a81548173ffffffffffffffffffffffffffffffffffffffff021916908373ffffffffffffffffffffffffffffffffffffffff16021790555082600181905550816002819055508060039080519060200190610412929190610419565b5050505050565b828054600181600116156101000203166002900490600052602060002090601f016020900481019282601f1061045a57805160ff1916838001178555610488565b82800160010185558215610488579182015b8281111561048757825182559160200191906001019061046c565b5b5090506104959190610499565b5090565b6104bb91905b808211156104b757600081600090555060010161049f565b5090565b9056fea265627a7a72315820e92b26f02eb9baa32af88ce1261d6c6cd52be746b0b2df077f0a93e37efcf53c64736f6c63430005100032608060405234801561001057600080fd5b50336000806101000a81548173ffffffffffffffffffffffffffffffffffffffff021916908373ffffffffffffffffffffffffffffffffffffffff1602179055507f78000000000000000000000000000000000000000000000000000000000000006001819055507f780000000000000000000000000000000000000000000000000000000000000060028190555061010a806100ae6000396000f3fe6080604052348015600f57600080fd5b506004361060285760003560e01c8063949f3a4e14602d575b600080fd5b608060048036036060811015604157600080fd5b81019080803573ffffffffffffffffffffffffffffffffffffffff16906020019092919080359060200190929190803590602001909291905050506082565b005b826000806101000a81548173ffffffffffffffffffffffffffffffffffffffff021916908373ffffffffffffffffffffffffffffffffffffffff160217905550816001819055508060028190555050505056fea265627a7a723158203baebc82eb0fcd6316b2e981161d57c010229d9144d1e50faeb72a3db171e6f864736f6c63430005100032",
  "source": "pragma solidity >=0.5.16;\npragma experimental ABIEncoderV2;\nimport \"./PatientStorage.sol\";\nimport \"./DoctorStorage.sol\";\nimport \"./MedicineStorage.sol\";\n\ncontract Client {\n   //out of gas\naddress addr;\nPatientStorage datastore = new PatientStorage();\nDoctorStorage doctorstore;\nMedicineStorage medicinestore;\n\nconstructor() public {\n   addr = msg.sender;\n}\n // PATIENT\nfunction registerPatient(bytes32 patientName, bytes memory ipfsHash) public returns(bool) {\n    return datastore.registerPatient(patientName,ipfsHash);\n }\n\nfunction hasPatient(address _patientAdresses) public view returns(bool) {\n    return datastore.hasPatient(_patientAdresses);\n }\nfunction patientNameTaken(bytes32 pname) public view returns(bool takenIndeed) {\n    return datastore.patientNameTaken(pname);\n }\n\nfunction updatePatient(bytes memory ipfsHash) public returns(bool){\n   return datastore.updatePatient(ipfsHash);\n }\n\nfunction getPatientCount() public view returns(uint){\n   return datastore.getPatientCount();\n }\n\nfunction getPatientByIndex(uint index) public view returns(address,bytes32,bytes memory){\n   return datastore.getPatientByIndex(index);\n }\n\nfunction getAddressByIndex(uint index) public view returns(address){\n   return datastore.getAddressByIndex(index);\n }\n\nfunction getPatientNameByIndex(uint index) public view returns(bytes32){\n   return datastore.getPatientNameByIndex(index);\n }\n\nfunction getIpfsHashByIndex(uint index) public view returns(bytes memory){\n   return datastore.getIpfsHashByIndex(index);\n }\n\nfunction getPatientByAddress(address patientAddress) public view returns(uint, bytes32, bytes memory){\n   return datastore.getPatientByAddress(patientAddress);\n }\n\nfunction getIndexByAddress(address patientAddress) public view returns(uint){\n   return datastore.getIndexByAddress(patientAddress);\n }\n\nfunction getPatientNameByAddress(address patientAddress) public view returns(bytes32){\n   return datastore.getPatientNameByAddress(patientAddress);\n }\n\nfunction getIpfsHashByAddress(address patientAddress) public view returns(bytes memory){\n   return datastore.getIpfsHashByAddress(patientAddress);\n }\n\nfunction getPatientByPatientName(bytes32 patientname) public view returns(uint,address,bytes memory){\n   return datastore.getPatientByPatientName(patientname);\n }\n\nfunction getIndexByPatientName(bytes32 patientname) public view returns(uint){\n   return datastore.getIndexByPatientName(patientname);\n }\n\nfunction getAddressByPatientName(bytes32 patientname) public view returns(address){\n   return datastore.getAddressByPatientName(patientname);\n }\nfunction getIpfsHashByPatientName(bytes32 patientname) public view returns(bytes memory){\n   return datastore.getIpfsHashByPatientName(patientname);\n }\n// CONSULTATIONS\nfunction consultationCreate(bytes32 _pname, bytes32 _consulDateID, bytes memory newPatientIpfs)public returns(bool){\n   return datastore.consultationCreate(_pname, _consulDateID, newPatientIpfs);\n }\n\nfunction getConsultationByConsultationIndex(bytes32 _pname, uint _index) public view returns(bytes32 consulID){\n   return datastore.getConsultationByConsultationIndex(_pname, _index);\n }\nfunction getConsultationIndexByConsultationID(bytes32 _pname, bytes32 _consulDateID) public view returns(uint){\n   return datastore.getConsultationIndexByConsultationID(_pname, _consulDateID);\n }\n\nfunction getConsultationsByPatientName(bytes32 _pname) public view returns(bytes32[] memory){\n   return datastore.getConsultationsByPatientName(_pname);\n }\n\nfunction getConsultationsByPatientAddress(address patientAddress) public view returns(bytes32[] memory){\n   return datastore.getConsultationsByPatientAddress(patientAddress);\n }\n// TESTS\nfunction testCreate(bytes32 _pname, bytes32 _testDateID, bytes memory newPatientIpfs)public returns(bool){\n   return datastore.testCreate(_pname,_testDateID, newPatientIpfs);\n }\n\nfunction getTestByTestIndex(bytes32 patientName, uint _index) public view returns(bytes32 testID){\n   return datastore.getTestByTestIndex(patientName, _index);\n }\n\nfunction getTestIndexByTestID(bytes32 patientName, bytes32 _testDateID) public view returns(uint){\n   return datastore.getTestIndexByTestID(patientName, _testDateID);\n }\n\nfunction getTestsByPatientName(bytes32 _pname) public view returns(bytes32[] memory) {\n   return datastore.getTestsByPatientName(_pname);\n }\n\nfunction getTestsByPatientAddress(address patientAddress) public view returns(bytes32[] memory){\n   return datastore.getTestsByPatientAddress(patientAddress);\n }\nfunction getTestsCount(bytes32 patientName) public view returns (uint){\n   return datastore.getTestsCount(patientName);\n }\n// MEDICINES\nfunction saveMedicineForPatientUse(bytes32 patientName, bytes32 consulDateID,bytes32 mname) public returns(bool){\n   return datastore.saveMedicineForPatientUse(patientName, consulDateID, mname);\n }\nfunction getMedicinesFromConsultation(bytes32 patientName, bytes32 consulDateID) public view returns(bytes32[] memory){\n   return datastore.getMedicinesFromConsultation(patientName, consulDateID);\n }\nfunction getMedicineByIndex(bytes32 patientName, bytes32 _consulDateID,uint index) public view returns(bytes32){\n   return datastore.getMedicineByIndex(patientName, _consulDateID, index);\n }\nfunction getMedicineByMedicineName(bytes32 patientName, bytes32 _consulDateID, bytes32 medname)public view returns(bytes32){\n   return datastore.getMedicineByMedicineName(patientName, _consulDateID, medname);\n }\nfunction getMedicinesCountFromConsultation(bytes32 patientName, bytes32 _consulDateID) public view returns(uint){\n   return datastore.getMedicinesCountFromConsultation(patientName, _consulDateID);\n }\n// DOCTORS\nfunction registerDoctor(bytes32 DoctorName, bytes memory ipfsHash) public returns(bool) {\n   doctorstore.registerDoctor(DoctorName, ipfsHash);\n   return true;\n }\nfunction updateDoctor(bytes memory ipfsHash) public returns(bool){\n   doctorstore.updateDoctor(ipfsHash);\n }\n\nfunction getDoctorCount() public view returns(uint){\n      return doctorstore.getDoctorCount();\n }\n\nfunction getDoctorByIndex(uint index) public view returns(address,bytes32,bytes memory){\n   return doctorstore.getDoctorByIndex(index);\n }\n\nfunction getDoctorAddressByIndex(uint index) public view returns(address){\n   return doctorstore.getDoctorAddressByIndex(index);\n }\n\nfunction getDoctorNameByIndex(uint index) public view returns(bytes32){\n   return doctorstore.getDoctorNameByIndex(index);\n }\n\nfunction getDoctorIpfsHashByIndex(uint index) public view returns(bytes memory){\n   return doctorstore.getDoctorIpfsHashByIndex(index);\n }\n\nfunction getDoctorByAddress(address DoctorAddress) public view returns(uint, bytes32, bytes memory){\n   return doctorstore.getDoctorByAddress(DoctorAddress);\n }\n\nfunction getDoctorIndexByAddress(address DoctorAddress) public view returns(uint){\n   return doctorstore.getDoctorIndexByAddress(DoctorAddress);\n }\n\nfunction getDoctorNameByAddress(address DoctorAddress) public view returns(bytes32){\n   return doctorstore.getDoctorNameByAddress(DoctorAddress);\n }\n\nfunction getDoctorIpfsHashByAddress(address DoctorAddress) public view returns(bytes memory){\n   return doctorstore.getDoctorIpfsHashByAddress(DoctorAddress);\n }\n\nfunction getDoctorByDoctorName(bytes32 Doctorname) public view returns(uint,address,bytes memory){\n   return doctorstore.getDoctorByDoctorName(Doctorname);\n }\n\nfunction getDoctorIndexByDoctorName(bytes32 Doctorname) public view returns(uint){\n   return doctorstore.getDoctorIndexByDoctorName(Doctorname);\n }\n\nfunction getDoctorAddressByDoctorName(bytes32 Doctorname) public view returns(address){\n   return doctorstore.getDoctorAddressByDoctorName(Doctorname);\n }\n\nfunction getDoctorIpfsHashByDoctorName(bytes32 Doctorname) public view returns(bytes memory){\n   return doctorstore.getDoctorIpfsHashByDoctorName(Doctorname);\n }\nfunction saveMedicine(bytes32 mname, bytes memory ipfsHash) public returns(bool) {\n   return medicinestore.saveMedicine(mname, ipfsHash);\n }\n\nfunction updateMedicine(bytes memory ipfsHash) public returns(bool){\n   return medicinestore.updateMedicine(ipfsHash);\n }\n\nfunction getMedicineCount() public view returns(uint){\n   return medicinestore.getMedicineCount();\n }\n// function getMedicineByMedicinename(bytes32 mname) public view returns(Medicine){\n//    return medicinestore.getMedicineByMedicinename(mname);\n//  }\n\nfunction getMedicineByIndex(uint index) public view returns(bytes32,bytes memory){\n   return medicinestore.getMedicineByIndex(index);\n }\n\nfunction getMedicineNameByIndex(uint index) public view returns(bytes32){\n   medicinestore.getMedicineNameByIndex(index);\n }\n\nfunction getMedIpfsHashByIndex(uint index) public view returns(bytes memory){\n   return medicinestore.getMedIpfsHashByIndex(index);\n }\n\nfunction getIpfsHashByMedicineName(bytes32 mname) public view returns(bytes memory){\n   medicinestore.getIpfsHashByMedicineName(mname);\n }\n\n}",
  "sourcePath": "/home/eke/patient-eth/contracts/Client.sol",
  "compiler": {
    "name": "solc",
    "version": "0.5.16+commit.9c3226ce.Emscripten.clang"
  },
  "schemaVersion": "3.1.0",
  "updatedAt": "2020-04-28T12:48:58.418Z",
  "networkType": "ethereum",
  "devdoc": {
    "methods": {}
  },
  "userdoc": {
    "methods": {}
  }
}