{
  "contractName": "ClientFactory",
  "abi": [
    {
      "anonymous": false,
      "inputs": [
        {
          "indexed": false,
          "internalType": "address",
          "name": "sender",
          "type": "address"
        },
        {
          "indexed": false,
          "internalType": "contract Client",
          "name": "newClient",
          "type": "address"
        }
      ],
      "name": "LogNewClientCreated",
      "type": "event"
    },
    {
      "constant": false,
      "inputs": [],
      "name": "createClient",
      "outputs": [
        {
          "internalType": "contract Client",
          "name": "newClient",
          "type": "address"
        }
      ],
      "payable": false,
      "stateMutability": "nonpayable",
      "type": "function"
    }
  ],
  "bytecode": "0x608060405234801561001057600080fd5b5061c2c5806100206000396000f3fe608060405234801561001057600080fd5b506004361061002b5760003560e01c8063cdbf6aeb14610030575b600080fd5b61003861007a565b604051808273ffffffffffffffffffffffffffffffffffffffff1673ffffffffffffffffffffffffffffffffffffffff16815260200191505060405180910390f35b60008060405161008990610146565b604051809103906000f0801580156100a5573d6000803e3d6000fd5b5090507f7a596b9ac324d5615261eca1bbff45af04d93bb08a6845e5dc44e56d86e137a23382604051808373ffffffffffffffffffffffffffffffffffffffff1673ffffffffffffffffffffffffffffffffffffffff1681526020018273ffffffffffffffffffffffffffffffffffffffff1673ffffffffffffffffffffffffffffffffffffffff1681526020019250505060405180910390a18091505090565b61c13d806101548339019056fe60806040523480156200001157600080fd5b5060405162000020906200015b565b604051809103906000f0801580156200003d573d6000803e3d6000fd5b506000806101000a81548173ffffffffffffffffffffffffffffffffffffffff021916908373ffffffffffffffffffffffffffffffffffffffff1602179055506040516200008b9062000169565b604051809103906000f080158015620000a8573d6000803e3d6000fd5b50600160006101000a81548173ffffffffffffffffffffffffffffffffffffffff021916908373ffffffffffffffffffffffffffffffffffffffff160217905550604051620000f79062000177565b604051809103906000f08015801562000114573d6000803e3d6000fd5b50600260006101000a81548173ffffffffffffffffffffffffffffffffffffffff021916908373ffffffffffffffffffffffffffffffffffffffff16021790555062000185565b614f23806200431183390190565b61208a806200923483390190565b610e7f806200b2be83390190565b61417c80620001956000396000f3fe608060405234801561001057600080fd5b506004361061035d5760003560e01c8063715b5f6d116101d3578063ba5c033511610104578063e1153e6f116100a2578063eb9fbaa91161007c578063eb9fbaa914610cc9578063ed96cf3914610cf9578063f421ba1014610d29578063f7a65e6014610d595761035d565b8063e1153e6f14610c4b578063e85a340a14610c7b578063eadeb84c14610cab5761035d565b8063cbb7e2ff116100de578063cbb7e2ff14610b8b578063cc04a68514610bbb578063ce10cf8814610beb578063dfb7ab6014610c1b5761035d565b8063ba5c033514610b0b578063c190665b14610b3d578063cafd134614610b5b5761035d565b8063a68a08a511610171578063ad37c2dc1161014b578063ad37c2dc14610a4b578063b1d5458d14610a7b578063b9aa549b14610aab578063b9affb9314610adb5761035d565b8063a68a08a5146109b9578063a74380a6146109e9578063ad36054b14610a195761035d565b806379111c1c116101ad57806379111c1c1461090b5780637b63cec4146109295780638f1787c21461095957806394e7ef6e146109895761035d565b8063715b5f6d1461087957806374275255146108ab5780637448d8d8146108db5761035d565b806331db6fd5116102ad57806358c5d4bf1161024b5780635fe721ff116102255780635fe721ff146107b957806368761954146107e9578063697d19ea146108195780636cfbc8fd146108495761035d565b806358c5d4bf146107255780635a357c19146107575780635bab5482146107895761035d565b8063480997971161028757806348099797146106635780634b3a6029146106935780635035cf52146106c357806357ea0c2f146106f35761035d565b806331db6fd5146105d35780633fe285d51461060357806345cfa71d146106335761035d565b80631973ef911161031a57806320cfcbfa116102f457806320cfcbfa1461051357806324ecae0b1461054357806329f78d881461057357806330ca739b146105a35761035d565b80631973ef91146104825780631d37878f146104b25780631e50b182146104e25761035d565b806304aa421014610362578063083121ad146103925780630b8d6eae146103c257806313684d43146103f2578063140de8f21461042257806314f5193014610452575b600080fd5b61037c600480360361037791908101906137b7565b610d89565b6040516103899190613ea9565b60405180910390f35b6103ac60048036036103a79190810190613845565b610e42565b6040516103b99190613d45565b60405180910390f35b6103dc60048036036103d79190810190613694565b610efd565b6040516103e99190613d23565b60405180910390f35b61040c60048036036104079190810190613694565b610fb5565b6040516104199190613ea9565b60405180910390f35b61043c600480360361043791908101906137b7565b61106e565b6040516104499190613ecb565b60405180910390f35b61046c60048036036104679190810190613a2e565b611122565b6040516104799190613d45565b60405180910390f35b61049c60048036036104979190810190613694565b6111d7565b6040516104a99190613ecb565b60405180910390f35b6104cc60048036036104c79190810190613ab0565b61128a565b6040516104d99190613d60565b60405180910390f35b6104fc60048036036104f79190810190613ab0565b61133e565b60405161050a929190613e50565b60405180910390f35b61052d600480360361052891908101906137b7565b6113fb565b60405161053a9190613ecb565b60405180910390f35b61055d60048036036105589190810190613845565b6114ae565b60405161056a9190613d60565b60405180910390f35b61058d60048036036105889190810190613ab0565b611567565b60405161059a9190613ea9565b60405180910390f35b6105bd60048036036105b89190810190613694565b61161f565b6040516105ca9190613d23565b60405180910390f35b6105ed60048036036105e89190810190613ab0565b6116d7565b6040516105fa9190613d60565b60405180910390f35b61061d60048036036106189190810190613809565b61178a565b60405161062a9190613ecb565b60405180910390f35b61064d600480360361064891908101906137b7565b611840565b60405161065a9190613d23565b60405180910390f35b61067d60048036036106789190810190613809565b6118f8565b60405161068a9190613d23565b60405180910390f35b6106ad60048036036106a89190810190613ab0565b6119b3565b6040516106ba9190613ea9565b60405180910390f35b6106dd60048036036106d89190810190613894565b611a6c565b6040516106ea9190613d45565b60405180910390f35b61070d60048036036107089190810190613ab0565b611b27565b60405161071c93929190613ce5565b60405180910390f35b61073f600480360361073a9190810190613694565b611be8565b60405161074e93929190613f24565b60405180910390f35b610771600480360361076c9190810190613ab0565b611caa565b60405161078093929190613ce5565b60405180910390f35b6107a3600480360361079e9190810190613694565b611d6c565b6040516107b09190613ecb565b60405180910390f35b6107d360048036036107ce91908101906139f2565b611e20565b6040516107e09190613d60565b60405180910390f35b61080360048036036107fe919081019061394a565b611ed6565b6040516108109190613d45565b60405180910390f35b610833600480360361082e919081019061394a565b611f8e565b6040516108409190613d45565b60405180910390f35b610863600480360361085e91908101906137b7565b612047565b6040516108709190613cca565b60405180910390f35b610893600480360361088e91908101906137b7565b6120fa565b6040516108a293929190613ee6565b60405180910390f35b6108c560048036036108c09190810190613894565b6121bc565b6040516108d29190613d45565b60405180910390f35b6108f560048036036108f091908101906137b7565b612277565b6040516109029190613d23565b60405180910390f35b61091361232f565b6040516109209190613ecb565b60405180910390f35b610943600480360361093e91908101906137b7565b6123d6565b6040516109509190613d45565b60405180910390f35b610973600480360361096e9190810190613694565b612489565b6040516109809190613d60565b60405180910390f35b6109a3600480360361099e9190810190613a2e565b61253d565b6040516109b09190613d45565b60405180910390f35b6109d360048036036109ce91908101906137b7565b6125f2565b6040516109e09190613ea9565b60405180910390f35b610a0360048036036109fe9190810190613694565b6126aa565b604051610a109190613ea9565b60405180910390f35b610a336004803603610a2e91908101906137b7565b612762565b604051610a4293929190613ee6565b60405180910390f35b610a656004803603610a6091908101906137b7565b612823565b604051610a729190613cca565b60405180910390f35b610a956004803603610a9091908101906137b7565b6128d7565b604051610aa29190613ecb565b60405180910390f35b610ac56004803603610ac091908101906139f2565b61298a565b604051610ad29190613d60565b60405180910390f35b610af56004803603610af09190810190613694565b612a40565b604051610b029190613d60565b60405180910390f35b610b256004803603610b209190810190613694565b612af3565b604051610b3493929190613f24565b60405180910390f35b610b45612bb4565b604051610b529190613ecb565b60405180910390f35b610b756004803603610b709190810190613a2e565b612c5a565b604051610b829190613d45565b60405180910390f35b610ba56004803603610ba09190810190613ab0565b612d10565b604051610bb29190613d60565b60405180910390f35b610bd56004803603610bd09190810190613ab0565b612dc3565b604051610be29190613ea9565b60405180910390f35b610c056004803603610c009190810190613ab0565b612e7c565b604051610c129190613cca565b60405180910390f35b610c356004803603610c3091908101906137b7565b612f2f565b604051610c429190613ea9565b60405180910390f35b610c656004803603610c60919081019061394a565b612fe7565b604051610c729190613d45565b60405180910390f35b610c956004803603610c909190810190613ab0565b6130a3565b604051610ca29190613cca565b60405180910390f35b610cb3613157565b604051610cc09190613ecb565b60405180910390f35b610ce36004803603610cde9190810190613694565b6131fe565b604051610cf09190613d45565b60405180910390f35b610d136004803603610d0e9190810190613809565b6132b1565b604051610d209190613ecb565b60405180910390f35b610d436004803603610d3e9190810190613809565b613367565b604051610d509190613ecb565b60405180910390f35b610d736004803603610d6e91908101906138fb565b61341d565b604051610d809190613d60565b60405180910390f35b6060600160009054906101000a900473ffffffffffffffffffffffffffffffffffffffff1673ffffffffffffffffffffffffffffffffffffffff166304aa4210836040518263ffffffff1660e01b8152600401610de69190613d60565b60006040518083038186803b158015610dfe57600080fd5b505afa158015610e12573d6000803e3d6000fd5b505050506040513d6000823e3d601f19601f82011682018060405250610e3b9190810190613a6f565b9050919050565b60008060009054906101000a900473ffffffffffffffffffffffffffffffffffffffff1673ffffffffffffffffffffffffffffffffffffffff1663083121ad8585856040518463ffffffff1660e01b8152600401610ea293929190613da4565b602060405180830381600087803b158015610ebc57600080fd5b505af1158015610ed0573d6000803e3d6000fd5b505050506040513d601f19601f82011682018060405250610ef4919081019061378e565b90509392505050565b60606000809054906101000a900473ffffffffffffffffffffffffffffffffffffffff1673ffffffffffffffffffffffffffffffffffffffff16630b8d6eae836040518263ffffffff1660e01b8152600401610f599190613cca565b60006040518083038186803b158015610f7157600080fd5b505afa158015610f85573d6000803e3d6000fd5b505050506040513d6000823e3d601f19601f82011682018060405250610fae919081019061374d565b9050919050565b6060600160009054906101000a900473ffffffffffffffffffffffffffffffffffffffff1673ffffffffffffffffffffffffffffffffffffffff166313684d43836040518263ffffffff1660e01b81526004016110129190613cca565b60006040518083038186803b15801561102a57600080fd5b505afa15801561103e573d6000803e3d6000fd5b505050506040513d6000823e3d601f19601f820116820180604052506110679190810190613a6f565b9050919050565b6000600160009054906101000a900473ffffffffffffffffffffffffffffffffffffffff1673ffffffffffffffffffffffffffffffffffffffff1663140de8f2836040518263ffffffff1660e01b81526004016110cb9190613d60565b60206040518083038186803b1580156110e357600080fd5b505afa1580156110f7573d6000803e3d6000fd5b505050506040513d601f19601f8201168201806040525061111b9190810190613ad9565b9050919050565b6000600160009054906101000a900473ffffffffffffffffffffffffffffffffffffffff1673ffffffffffffffffffffffffffffffffffffffff166314f51930836040518263ffffffff1660e01b815260040161117f9190613ea9565b602060405180830381600087803b15801561119957600080fd5b505af11580156111ad573d6000803e3d6000fd5b505050506040513d601f19601f820116820180604052506111d1919081019061378e565b50919050565b60008060009054906101000a900473ffffffffffffffffffffffffffffffffffffffff1673ffffffffffffffffffffffffffffffffffffffff16631973ef91836040518263ffffffff1660e01b81526004016112339190613cca565b60206040518083038186803b15801561124b57600080fd5b505afa15801561125f573d6000803e3d6000fd5b505050506040513d601f19601f820116820180604052506112839190810190613ad9565b9050919050565b6000600160009054906101000a900473ffffffffffffffffffffffffffffffffffffffff1673ffffffffffffffffffffffffffffffffffffffff16631d37878f836040518263ffffffff1660e01b81526004016112e79190613ecb565b60206040518083038186803b1580156112ff57600080fd5b505afa158015611313573d6000803e3d6000fd5b505050506040513d601f19601f8201168201806040525061133791908101906137e0565b9050919050565b60006060600260009054906101000a900473ffffffffffffffffffffffffffffffffffffffff1673ffffffffffffffffffffffffffffffffffffffff16631e50b182846040518263ffffffff1660e01b815260040161139d9190613ecb565b60006040518083038186803b1580156113b557600080fd5b505afa1580156113c9573d6000803e3d6000fd5b505050506040513d6000823e3d601f19601f820116820180604052506113f2919081019061399e565b91509150915091565b60008060009054906101000a900473ffffffffffffffffffffffffffffffffffffffff1673ffffffffffffffffffffffffffffffffffffffff166320cfcbfa836040518263ffffffff1660e01b81526004016114579190613d60565b60206040518083038186803b15801561146f57600080fd5b505afa158015611483573d6000803e3d6000fd5b505050506040513d601f19601f820116820180604052506114a79190810190613ad9565b9050919050565b60008060009054906101000a900473ffffffffffffffffffffffffffffffffffffffff1673ffffffffffffffffffffffffffffffffffffffff166324ecae0b8585856040518463ffffffff1660e01b815260040161150e93929190613da4565b60206040518083038186803b15801561152657600080fd5b505afa15801561153a573d6000803e3d6000fd5b505050506040513d601f19601f8201168201806040525061155e91908101906137e0565b90509392505050565b60606000809054906101000a900473ffffffffffffffffffffffffffffffffffffffff1673ffffffffffffffffffffffffffffffffffffffff166329f78d88836040518263ffffffff1660e01b81526004016115c39190613ecb565b60006040518083038186803b1580156115db57600080fd5b505afa1580156115ef573d6000803e3d6000fd5b505050506040513d6000823e3d601f19601f820116820180604052506116189190810190613a6f565b9050919050565b60606000809054906101000a900473ffffffffffffffffffffffffffffffffffffffff1673ffffffffffffffffffffffffffffffffffffffff166330ca739b836040518263ffffffff1660e01b815260040161167b9190613cca565b60006040518083038186803b15801561169357600080fd5b505afa1580156116a7573d6000803e3d6000fd5b505050506040513d6000823e3d601f19601f820116820180604052506116d0919081019061374d565b9050919050565b6000600260009054906101000a900473ffffffffffffffffffffffffffffffffffffffff1673ffffffffffffffffffffffffffffffffffffffff166331db6fd5836040518263ffffffff1660e01b81526004016117349190613ecb565b60206040518083038186803b15801561174c57600080fd5b505afa158015611760573d6000803e3d6000fd5b505050506040513d601f19601f8201168201806040525061178491908101906137e0565b50919050565b60008060009054906101000a900473ffffffffffffffffffffffffffffffffffffffff1673ffffffffffffffffffffffffffffffffffffffff16633fe285d584846040518363ffffffff1660e01b81526004016117e8929190613d7b565b60206040518083038186803b15801561180057600080fd5b505afa158015611814573d6000803e3d6000fd5b505050506040513d601f19601f820116820180604052506118389190810190613ad9565b905092915050565b60606000809054906101000a900473ffffffffffffffffffffffffffffffffffffffff1673ffffffffffffffffffffffffffffffffffffffff166345cfa71d836040518263ffffffff1660e01b815260040161189c9190613d60565b60006040518083038186803b1580156118b457600080fd5b505afa1580156118c8573d6000803e3d6000fd5b505050506040513d6000823e3d601f19601f820116820180604052506118f1919081019061374d565b9050919050565b60606000809054906101000a900473ffffffffffffffffffffffffffffffffffffffff1673ffffffffffffffffffffffffffffffffffffffff16634809979784846040518363ffffffff1660e01b8152600401611956929190613d7b565b60006040518083038186803b15801561196e57600080fd5b505afa158015611982573d6000803e3d6000fd5b505050506040513d6000823e3d601f19601f820116820180604052506119ab919081019061374d565b905092915050565b6060600160009054906101000a900473ffffffffffffffffffffffffffffffffffffffff1673ffffffffffffffffffffffffffffffffffffffff16634b3a6029836040518263ffffffff1660e01b8152600401611a109190613ecb565b60006040518083038186803b158015611a2857600080fd5b505afa158015611a3c573d6000803e3d6000fd5b505050506040513d6000823e3d601f19601f82011682018060405250611a659190810190613a6f565b9050919050565b60008060009054906101000a900473ffffffffffffffffffffffffffffffffffffffff1673ffffffffffffffffffffffffffffffffffffffff16635035cf528585856040518463ffffffff1660e01b8152600401611acc93929190613ddb565b602060405180830381600087803b158015611ae657600080fd5b505af1158015611afa573d6000803e3d6000fd5b505050506040513d601f19601f82011682018060405250611b1e919081019061378e565b90509392505050565b60008060606000809054906101000a900473ffffffffffffffffffffffffffffffffffffffff1673ffffffffffffffffffffffffffffffffffffffff166357ea0c2f856040518263ffffffff1660e01b8152600401611b869190613ecb565b60006040518083038186803b158015611b9e57600080fd5b505afa158015611bb2573d6000803e3d6000fd5b505050506040513d6000823e3d601f19601f82011682018060405250611bdb91908101906136e6565b9250925092509193909250565b6000806060600160009054906101000a900473ffffffffffffffffffffffffffffffffffffffff1673ffffffffffffffffffffffffffffffffffffffff166358c5d4bf856040518263ffffffff1660e01b8152600401611c489190613cca565b60006040518083038186803b158015611c6057600080fd5b505afa158015611c74573d6000803e3d6000fd5b505050506040513d6000823e3d601f19601f82011682018060405250611c9d9190810190613b69565b9250925092509193909250565b6000806060600160009054906101000a900473ffffffffffffffffffffffffffffffffffffffff1673ffffffffffffffffffffffffffffffffffffffff16635a357c19856040518263ffffffff1660e01b8152600401611d0a9190613ecb565b60006040518083038186803b158015611d2257600080fd5b505afa158015611d36573d6000803e3d6000fd5b505050506040513d6000823e3d601f19601f82011682018060405250611d5f91908101906136e6565b9250925092509193909250565b6000600160009054906101000a900473ffffffffffffffffffffffffffffffffffffffff1673ffffffffffffffffffffffffffffffffffffffff16635bab5482836040518263ffffffff1660e01b8152600401611dc99190613cca565b60206040518083038186803b158015611de157600080fd5b505afa158015611df5573d6000803e3d6000fd5b505050506040513d601f19601f82011682018060405250611e199190810190613ad9565b9050919050565b60008060009054906101000a900473ffffffffffffffffffffffffffffffffffffffff1673ffffffffffffffffffffffffffffffffffffffff16635fe721ff84846040518363ffffffff1660e01b8152600401611e7e929190613e80565b60206040518083038186803b158015611e9657600080fd5b505afa158015611eaa573d6000803e3d6000fd5b505050506040513d601f19601f82011682018060405250611ece91908101906137e0565b905092915050565b60008060009054906101000a900473ffffffffffffffffffffffffffffffffffffffff1673ffffffffffffffffffffffffffffffffffffffff16636876195484846040518363ffffffff1660e01b8152600401611f34929190613e50565b602060405180830381600087803b158015611f4e57600080fd5b505af1158015611f62573d6000803e3d6000fd5b505050506040513d601f19601f82011682018060405250611f86919081019061378e565b905092915050565b6000600260009054906101000a900473ffffffffffffffffffffffffffffffffffffffff1673ffffffffffffffffffffffffffffffffffffffff1663697d19ea84846040518363ffffffff1660e01b8152600401611fed929190613e50565b602060405180830381600087803b15801561200757600080fd5b505af115801561201b573d6000803e3d6000fd5b505050506040513d601f19601f8201168201806040525061203f919081019061378e565b905092915050565b60008060009054906101000a900473ffffffffffffffffffffffffffffffffffffffff1673ffffffffffffffffffffffffffffffffffffffff16636cfbc8fd836040518263ffffffff1660e01b81526004016120a39190613d60565b60206040518083038186803b1580156120bb57600080fd5b505afa1580156120cf573d6000803e3d6000fd5b505050506040513d601f19601f820116820180604052506120f391908101906136bd565b9050919050565b6000806060600160009054906101000a900473ffffffffffffffffffffffffffffffffffffffff1673ffffffffffffffffffffffffffffffffffffffff1663715b5f6d856040518263ffffffff1660e01b815260040161215a9190613d60565b60006040518083038186803b15801561217257600080fd5b505afa158015612186573d6000803e3d6000fd5b505050506040513d6000823e3d601f19601f820116820180604052506121af9190810190613b02565b9250925092509193909250565b60008060009054906101000a900473ffffffffffffffffffffffffffffffffffffffff1673ffffffffffffffffffffffffffffffffffffffff1663742752558585856040518463ffffffff1660e01b815260040161221c93929190613ddb565b602060405180830381600087803b15801561223657600080fd5b505af115801561224a573d6000803e3d6000fd5b505050506040513d601f19601f8201168201806040525061226e919081019061378e565b90509392505050565b60606000809054906101000a900473ffffffffffffffffffffffffffffffffffffffff1673ffffffffffffffffffffffffffffffffffffffff16637448d8d8836040518263ffffffff1660e01b81526004016122d39190613d60565b60006040518083038186803b1580156122eb57600080fd5b505afa1580156122ff573d6000803e3d6000fd5b505050506040513d6000823e3d601f19601f82011682018060405250612328919081019061374d565b9050919050565b6000600160009054906101000a900473ffffffffffffffffffffffffffffffffffffffff1673ffffffffffffffffffffffffffffffffffffffff166379111c1c6040518163ffffffff1660e01b815260040160206040518083038186803b15801561239957600080fd5b505afa1580156123ad573d6000803e3d6000fd5b505050506040513d601f19601f820116820180604052506123d19190810190613ad9565b905090565b60008060009054906101000a900473ffffffffffffffffffffffffffffffffffffffff1673ffffffffffffffffffffffffffffffffffffffff16637b63cec4836040518263ffffffff1660e01b81526004016124329190613d60565b60206040518083038186803b15801561244a57600080fd5b505afa15801561245e573d6000803e3d6000fd5b505050506040513d601f19601f82011682018060405250612482919081019061378e565b9050919050565b6000600160009054906101000a900473ffffffffffffffffffffffffffffffffffffffff1673ffffffffffffffffffffffffffffffffffffffff16638f1787c2836040518263ffffffff1660e01b81526004016124e69190613cca565b60206040518083038186803b1580156124fe57600080fd5b505afa158015612512573d6000803e3d6000fd5b505050506040513d601f19601f8201168201806040525061253691908101906137e0565b9050919050565b60008060009054906101000a900473ffffffffffffffffffffffffffffffffffffffff1673ffffffffffffffffffffffffffffffffffffffff166394e7ef6e836040518263ffffffff1660e01b81526004016125999190613ea9565b602060405180830381600087803b1580156125b357600080fd5b505af11580156125c7573d6000803e3d6000fd5b505050506040513d601f19601f820116820180604052506125eb919081019061378e565b9050919050565b6060600260009054906101000a900473ffffffffffffffffffffffffffffffffffffffff1673ffffffffffffffffffffffffffffffffffffffff1663a68a08a5836040518263ffffffff1660e01b815260040161264f9190613d60565b60006040518083038186803b15801561266757600080fd5b505afa15801561267b573d6000803e3d6000fd5b505050506040513d6000823e3d601f19601f820116820180604052506126a49190810190613a6f565b50919050565b60606000809054906101000a900473ffffffffffffffffffffffffffffffffffffffff1673ffffffffffffffffffffffffffffffffffffffff1663a74380a6836040518263ffffffff1660e01b81526004016127069190613cca565b60006040518083038186803b15801561271e57600080fd5b505afa158015612732573d6000803e3d6000fd5b505050506040513d6000823e3d601f19601f8201168201806040525061275b9190810190613a6f565b9050919050565b60008060606000809054906101000a900473ffffffffffffffffffffffffffffffffffffffff1673ffffffffffffffffffffffffffffffffffffffff1663ad36054b856040518263ffffffff1660e01b81526004016127c19190613d60565b60006040518083038186803b1580156127d957600080fd5b505afa1580156127ed573d6000803e3d6000fd5b505050506040513d6000823e3d601f19601f820116820180604052506128169190810190613b02565b9250925092509193909250565b6000600160009054906101000a900473ffffffffffffffffffffffffffffffffffffffff1673ffffffffffffffffffffffffffffffffffffffff1663ad37c2dc836040518263ffffffff1660e01b81526004016128809190613d60565b60206040518083038186803b15801561289857600080fd5b505afa1580156128ac573d6000803e3d6000fd5b505050506040513d601f19601f820116820180604052506128d091908101906136bd565b9050919050565b60008060009054906101000a900473ffffffffffffffffffffffffffffffffffffffff1673ffffffffffffffffffffffffffffffffffffffff1663b1d5458d836040518263ffffffff1660e01b81526004016129339190613d60565b60206040518083038186803b15801561294b57600080fd5b505afa15801561295f573d6000803e3d6000fd5b505050506040513d601f19601f820116820180604052506129839190810190613ad9565b9050919050565b60008060009054906101000a900473ffffffffffffffffffffffffffffffffffffffff1673ffffffffffffffffffffffffffffffffffffffff1663b9aa549b84846040518363ffffffff1660e01b81526004016129e8929190613e80565b60206040518083038186803b158015612a0057600080fd5b505afa158015612a14573d6000803e3d6000fd5b505050506040513d601f19601f82011682018060405250612a3891908101906137e0565b905092915050565b60008060009054906101000a900473ffffffffffffffffffffffffffffffffffffffff1673ffffffffffffffffffffffffffffffffffffffff1663b9affb93836040518263ffffffff1660e01b8152600401612a9c9190613cca565b60206040518083038186803b158015612ab457600080fd5b505afa158015612ac8573d6000803e3d6000fd5b505050506040513d601f19601f82011682018060405250612aec91908101906137e0565b9050919050565b60008060606000809054906101000a900473ffffffffffffffffffffffffffffffffffffffff1673ffffffffffffffffffffffffffffffffffffffff1663ba5c0335856040518263ffffffff1660e01b8152600401612b529190613cca565b60006040518083038186803b158015612b6a57600080fd5b505afa158015612b7e573d6000803e3d6000fd5b505050506040513d6000823e3d601f19601f82011682018060405250612ba79190810190613b69565b9250925092509193909250565b60008060009054906101000a900473ffffffffffffffffffffffffffffffffffffffff1673ffffffffffffffffffffffffffffffffffffffff1663c190665b6040518163ffffffff1660e01b815260040160206040518083038186803b158015612c1d57600080fd5b505afa158015612c31573d6000803e3d6000fd5b505050506040513d601f19601f82011682018060405250612c559190810190613ad9565b905090565b6000600260009054906101000a900473ffffffffffffffffffffffffffffffffffffffff1673ffffffffffffffffffffffffffffffffffffffff1663cafd1346836040518263ffffffff1660e01b8152600401612cb79190613ea9565b602060405180830381600087803b158015612cd157600080fd5b505af1158015612ce5573d6000803e3d6000fd5b505050506040513d601f19601f82011682018060405250612d09919081019061378e565b9050919050565b60008060009054906101000a900473ffffffffffffffffffffffffffffffffffffffff1673ffffffffffffffffffffffffffffffffffffffff1663cbb7e2ff836040518263ffffffff1660e01b8152600401612d6c9190613ecb565b60206040518083038186803b158015612d8457600080fd5b505afa158015612d98573d6000803e3d6000fd5b505050506040513d601f19601f82011682018060405250612dbc91908101906137e0565b9050919050565b6060600260009054906101000a900473ffffffffffffffffffffffffffffffffffffffff1673ffffffffffffffffffffffffffffffffffffffff1663cc04a685836040518263ffffffff1660e01b8152600401612e209190613ecb565b60006040518083038186803b158015612e3857600080fd5b505afa158015612e4c573d6000803e3d6000fd5b505050506040513d6000823e3d601f19601f82011682018060405250612e759190810190613a6f565b9050919050565b60008060009054906101000a900473ffffffffffffffffffffffffffffffffffffffff1673ffffffffffffffffffffffffffffffffffffffff1663ce10cf88836040518263ffffffff1660e01b8152600401612ed89190613ecb565b60206040518083038186803b158015612ef057600080fd5b505afa158015612f04573d6000803e3d6000fd5b505050506040513d601f19601f82011682018060405250612f2891908101906136bd565b9050919050565b60606000809054906101000a900473ffffffffffffffffffffffffffffffffffffffff1673ffffffffffffffffffffffffffffffffffffffff1663dfb7ab60836040518263ffffffff1660e01b8152600401612f8b9190613d60565b60006040518083038186803b158015612fa357600080fd5b505afa158015612fb7573d6000803e3d6000fd5b505050506040513d6000823e3d601f19601f82011682018060405250612fe09190810190613a6f565b9050919050565b6000600160009054906101000a900473ffffffffffffffffffffffffffffffffffffffff1673ffffffffffffffffffffffffffffffffffffffff1663e1153e6f84846040518363ffffffff1660e01b8152600401613046929190613e50565b602060405180830381600087803b15801561306057600080fd5b505af1158015613074573d6000803e3d6000fd5b505050506040513d601f19601f82011682018060405250613098919081019061378e565b506001905092915050565b6000600160009054906101000a900473ffffffffffffffffffffffffffffffffffffffff1673ffffffffffffffffffffffffffffffffffffffff1663e85a340a836040518263ffffffff1660e01b81526004016131009190613ecb565b60206040518083038186803b15801561311857600080fd5b505afa15801561312c573d6000803e3d6000fd5b505050506040513d601f19601f8201168201806040525061315091908101906136bd565b9050919050565b6000600260009054906101000a900473ffffffffffffffffffffffffffffffffffffffff1673ffffffffffffffffffffffffffffffffffffffff1663eadeb84c6040518163ffffffff1660e01b815260040160206040518083038186803b1580156131c157600080fd5b505afa1580156131d5573d6000803e3d6000fd5b505050506040513d601f19601f820116820180604052506131f99190810190613ad9565b905090565b60008060009054906101000a900473ffffffffffffffffffffffffffffffffffffffff1673ffffffffffffffffffffffffffffffffffffffff1663eb9fbaa9836040518263ffffffff1660e01b815260040161325a9190613cca565b60206040518083038186803b15801561327257600080fd5b505afa158015613286573d6000803e3d6000fd5b505050506040513d601f19601f820116820180604052506132aa919081019061378e565b9050919050565b60008060009054906101000a900473ffffffffffffffffffffffffffffffffffffffff1673ffffffffffffffffffffffffffffffffffffffff1663ed96cf3984846040518363ffffffff1660e01b815260040161330f929190613d7b565b60206040518083038186803b15801561332757600080fd5b505afa15801561333b573d6000803e3d6000fd5b505050506040513d601f19601f8201168201806040525061335f9190810190613ad9565b905092915050565b60008060009054906101000a900473ffffffffffffffffffffffffffffffffffffffff1673ffffffffffffffffffffffffffffffffffffffff1663f421ba1084846040518363ffffffff1660e01b81526004016133c5929190613d7b565b60206040518083038186803b1580156133dd57600080fd5b505afa1580156133f1573d6000803e3d6000fd5b505050506040513d601f19601f820116820180604052506134159190810190613ad9565b905092915050565b60008060009054906101000a900473ffffffffffffffffffffffffffffffffffffffff1673ffffffffffffffffffffffffffffffffffffffff1663f7a65e608585856040518463ffffffff1660e01b815260040161347d93929190613e19565b60206040518083038186803b15801561349557600080fd5b505afa1580156134a9573d6000803e3d6000fd5b505050506040513d601f19601f820116820180604052506134cd91908101906137e0565b90509392505050565b6000813590506134e5816140dd565b92915050565b6000815190506134fa816140dd565b92915050565b600082601f83011261351157600080fd5b815161352461351f82613f8f565b613f62565b9150818183526020840193506020810190508385602084028201111561354957600080fd5b60005b83811015613579578161355f88826135ad565b84526020840193506020830192505060018101905061354c565b5050505092915050565b600081519050613592816140f4565b92915050565b6000813590506135a78161410b565b92915050565b6000815190506135bc8161410b565b92915050565b600082601f8301126135d357600080fd5b81356135e66135e182613fb7565b613f62565b9150808252602083016020830185838301111561360257600080fd5b61360d83828461408a565b50505092915050565b600082601f83011261362757600080fd5b815161363a61363582613fb7565b613f62565b9150808252602083016020830185838301111561365657600080fd5b613661838284614099565b50505092915050565b60008135905061367981614122565b92915050565b60008151905061368e81614122565b92915050565b6000602082840312156136a657600080fd5b60006136b4848285016134d6565b91505092915050565b6000602082840312156136cf57600080fd5b60006136dd848285016134eb565b91505092915050565b6000806000606084860312156136fb57600080fd5b6000613709868287016134eb565b935050602061371a868287016135ad565b925050604084015167ffffffffffffffff81111561373757600080fd5b61374386828701613616565b9150509250925092565b60006020828403121561375f57600080fd5b600082015167ffffffffffffffff81111561377957600080fd5b61378584828501613500565b91505092915050565b6000602082840312156137a057600080fd5b60006137ae84828501613583565b91505092915050565b6000602082840312156137c957600080fd5b60006137d784828501613598565b91505092915050565b6000602082840312156137f257600080fd5b6000613800848285016135ad565b91505092915050565b6000806040838503121561381c57600080fd5b600061382a85828601613598565b925050602061383b85828601613598565b9150509250929050565b60008060006060848603121561385a57600080fd5b600061386886828701613598565b935050602061387986828701613598565b925050604061388a86828701613598565b9150509250925092565b6000806000606084860312156138a957600080fd5b60006138b786828701613598565b93505060206138c886828701613598565b925050604084013567ffffffffffffffff8111156138e557600080fd5b6138f1868287016135c2565b9150509250925092565b60008060006060848603121561391057600080fd5b600061391e86828701613598565b935050602061392f86828701613598565b92505060406139408682870161366a565b9150509250925092565b6000806040838503121561395d57600080fd5b600061396b85828601613598565b925050602083013567ffffffffffffffff81111561398857600080fd5b613994858286016135c2565b9150509250929050565b600080604083850312156139b157600080fd5b60006139bf858286016135ad565b925050602083015167ffffffffffffffff8111156139dc57600080fd5b6139e885828601613616565b9150509250929050565b60008060408385031215613a0557600080fd5b6000613a1385828601613598565b9250506020613a248582860161366a565b9150509250929050565b600060208284031215613a4057600080fd5b600082013567ffffffffffffffff811115613a5a57600080fd5b613a66848285016135c2565b91505092915050565b600060208284031215613a8157600080fd5b600082015167ffffffffffffffff811115613a9b57600080fd5b613aa784828501613616565b91505092915050565b600060208284031215613ac257600080fd5b6000613ad08482850161366a565b91505092915050565b600060208284031215613aeb57600080fd5b6000613af98482850161367f565b91505092915050565b600080600060608486031215613b1757600080fd5b6000613b258682870161367f565b9350506020613b36868287016134eb565b925050604084015167ffffffffffffffff811115613b5357600080fd5b613b5f86828701613616565b9150509250925092565b600080600060608486031215613b7e57600080fd5b6000613b8c8682870161367f565b9350506020613b9d868287016135ad565b925050604084015167ffffffffffffffff811115613bba57600080fd5b613bc686828701613616565b9150509250925092565b6000613bdc8383613c64565b60208301905092915050565b613bf181614038565b82525050565b6000613c0282613ff3565b613c0c8185614016565b9350613c1783613fe3565b8060005b83811015613c48578151613c2f8882613bd0565b9750613c3a83614009565b925050600181019050613c1b565b5085935050505092915050565b613c5e8161404a565b82525050565b613c6d81614056565b82525050565b613c7c81614056565b82525050565b6000613c8d82613ffe565b613c978185614027565b9350613ca7818560208601614099565b613cb0816140cc565b840191505092915050565b613cc481614080565b82525050565b6000602082019050613cdf6000830184613be8565b92915050565b6000606082019050613cfa6000830186613be8565b613d076020830185613c73565b8181036040830152613d198184613c82565b9050949350505050565b60006020820190508181036000830152613d3d8184613bf7565b905092915050565b6000602082019050613d5a6000830184613c55565b92915050565b6000602082019050613d756000830184613c73565b92915050565b6000604082019050613d906000830185613c73565b613d9d6020830184613c73565b9392505050565b6000606082019050613db96000830186613c73565b613dc66020830185613c73565b613dd36040830184613c73565b949350505050565b6000606082019050613df06000830186613c73565b613dfd6020830185613c73565b8181036040830152613e0f8184613c82565b9050949350505050565b6000606082019050613e2e6000830186613c73565b613e3b6020830185613c73565b613e486040830184613cbb565b949350505050565b6000604082019050613e656000830185613c73565b8181036020830152613e778184613c82565b90509392505050565b6000604082019050613e956000830185613c73565b613ea26020830184613cbb565b9392505050565b60006020820190508181036000830152613ec38184613c82565b905092915050565b6000602082019050613ee06000830184613cbb565b92915050565b6000606082019050613efb6000830186613cbb565b613f086020830185613be8565b8181036040830152613f1a8184613c82565b9050949350505050565b6000606082019050613f396000830186613cbb565b613f466020830185613c73565b8181036040830152613f588184613c82565b9050949350505050565b6000604051905081810181811067ffffffffffffffff82111715613f8557600080fd5b8060405250919050565b600067ffffffffffffffff821115613fa657600080fd5b602082029050602081019050919050565b600067ffffffffffffffff821115613fce57600080fd5b601f19601f8301169050602081019050919050565b6000819050602082019050919050565b600081519050919050565b600081519050919050565b6000602082019050919050565b600082825260208201905092915050565b600082825260208201905092915050565b600061404382614060565b9050919050565b60008115159050919050565b6000819050919050565b600073ffffffffffffffffffffffffffffffffffffffff82169050919050565b6000819050919050565b82818337600083830152505050565b60005b838110156140b757808201518184015260208101905061409c565b838111156140c6576000848401525b50505050565b6000601f19601f8301169050919050565b6140e681614038565b81146140f157600080fd5b50565b6140fd8161404a565b811461410857600080fd5b50565b61411481614056565b811461411f57600080fd5b50565b61412b81614080565b811461413657600080fd5b5056fea365627a7a723158201ae9c2981eb0cb5ce3075ed899cde5312f609e1ec68017ac46c465e1ef1558d86c6578706572696d656e74616cf564736f6c6343000510004060806040526040516200001290620001a4565b604051809103906000f0801580156200002f573d6000803e3d6000fd5b50600760006101000a81548173ffffffffffffffffffffffffffffffffffffffff021916908373ffffffffffffffffffffffffffffffffffffffff1602179055503480156200007d57600080fd5b5060023390806001815401808255809150509060018203906000526020600020016000909192909190916101000a81548173ffffffffffffffffffffffffffffffffffffffff021916908373ffffffffffffffffffffffffffffffffffffffff1602179055505060038060018154018082558091505090600182039060005260206000200160007f78000000000000000000000000000000000000000000000000000000000000009091909150555060048060018154018082558091505090600182039060005260206000200160006040518060400160405280600d81526020017f6e6f742d617661696c61626c6500000000000000000000000000000000000000815250909190915090805190602001906200019c929190620001b2565b505062000261565b6119d5806200354e83390190565b828054600181600116156101000203166002900490600052602060002090601f016020900481019282601f10620001f557805160ff191683800117855562000226565b8280016001018555821562000226579182015b828111156200022557825182559160200191906001019062000208565b5b50905062000235919062000239565b5090565b6200025e91905b808211156200025a57600081600090555060010162000240565b5090565b90565b6132dd80620002716000396000f3fe608060405234801561001057600080fd5b50600436106102065760003560e01c80637b63cec41161011a578063c190665b116100ad578063eb9fbaa91161007c578063eb9fbaa91461076f578063ed96cf391461079f578063f421ba10146107cf578063f7932fb0146107ff578063f7a65e601461082f57610206565b8063c190665b146106c1578063cbb7e2ff146106df578063ce10cf881461070f578063dfb7ab601461073f57610206565b8063b1d5458d116100e9578063b1d5458d146105ff578063b9aa549b1461062f578063b9affb931461065f578063ba5c03351461068f57610206565b80637b63cec41461053d57806394e7ef6e1461056d578063a74380a61461059d578063ad36054b146105cd57610206565b806345cfa71d1161019d5780635fe721ff1161016c5780635fe721ff1461044d578063687619541461047d5780636cfbc8fd146104ad57806374275255146104dd5780637448d8d81461050d57610206565b806345cfa71d1461038b57806348099797146103bb5780635035cf52146103eb57806357ea0c2f1461041b57610206565b806324ecae0b116101d957806324ecae0b146102cb57806329f78d88146102fb57806330ca739b1461032b5780633fe285d51461035b57610206565b8063083121ad1461020b5780630b8d6eae1461023b5780631973ef911461026b57806320cfcbfa1461029b575b600080fd5b61022560048036036102209190810190612878565b61085f565b6040516102329190612de4565b60405180910390f35b61025560048036036102509190810190612757565b61092a565b6040516102629190612dc2565b60405180910390f35b61028560048036036102809190810190612757565b6109e3565b6040516102929190612ff7565b60405180910390f35b6102b560048036036102b091908101906127ea565b610a73565b6040516102c29190612ff7565b60405180910390f35b6102e560048036036102e09190810190612878565b610b2d565b6040516102f29190612dff565b60405180910390f35b61031560048036036103109190810190612a4e565b610bf6565b6040516103229190612eda565b60405180910390f35b61034560048036036103409190810190612757565b610cf6565b6040516103529190612dc2565b60405180910390f35b6103756004803603610370919081019061283c565b610dec565b6040516103829190612ff7565b60405180910390f35b6103a560048036036103a091908101906127ea565b610eb2565b6040516103b29190612dc2565b60405180910390f35b6103d560048036036103d0919081019061283c565b610f7c565b6040516103e29190612dc2565b60405180910390f35b610405600480360361040091908101906128c7565b611047565b6040516104129190612de4565b60405180910390f35b61043560048036036104309190810190612a4e565b611114565b60405161044493929190612d84565b60405180910390f35b610467600480360361046291908101906129d1565b611270565b6040516104749190612dff565b60405180910390f35b6104976004803603610492919081019061297d565b611336565b6040516104a49190612de4565b60405180910390f35b6104c760048036036104c291908101906127ea565b61159f565b6040516104d49190612d69565b60405180910390f35b6104f760048036036104f291908101906128c7565b61163b565b6040516105049190612de4565b60405180910390f35b610527600480360361052291908101906127ea565b611708565b6040516105349190612dc2565b60405180910390f35b610557600480360361055291908101906127ea565b611835565b6040516105649190612de4565b60405180910390f35b61058760048036036105829190810190612a0d565b61187e565b6040516105949190612de4565b60405180910390f35b6105b760048036036105b29190810190612757565b611980565b6040516105c49190612eda565b60405180910390f35b6105e760048036036105e291908101906127ea565b611abf565b6040516105f693929190613012565b60405180910390f35b610619600480360361061491908101906127ea565b611c50565b6040516106269190612ff7565b60405180910390f35b610649600480360361064491908101906129d1565b611cb5565b6040516106569190612dff565b60405180910390f35b61067960048036036106749190810190612757565b611d7b565b6040516106869190612dff565b60405180910390f35b6106a960048036036106a49190810190612757565b611e22565b6040516106b893929190613050565b60405180910390f35b6106c9612002565b6040516106d69190612ff7565b60405180910390f35b6106f960048036036106f49190810190612a4e565b61200f565b6040516107069190612dff565b60405180910390f35b61072960048036036107249190810190612a4e565b612077565b6040516107369190612d69565b60405180910390f35b610759600480360361075491908101906127ea565b6120ff565b6040516107669190612eda565b60405180910390f35b61078960048036036107849190810190612757565b612213565b6040516107969190612de4565b60405180910390f35b6107b960048036036107b4919081019061283c565b6122cb565b6040516107c69190612ff7565b60405180910390f35b6107e960048036036107e4919081019061283c565b612391565b6040516107f69190612ff7565b60405180910390f35b610819600480360361081491908101906127ea565b612457565b6040516108269190612efc565b60405180910390f35b6108496004803603610844919081019061292e565b612494565b6040516108569190612dff565b60405180910390f35b60006005600085815260200190815260200160002060009054906101000a900473ffffffffffffffffffffffffffffffffffffffff1673ffffffffffffffffffffffffffffffffffffffff16631aa5346a84846040518363ffffffff1660e01b81526004016108cf929190612e1a565b602060405180830381600087803b1580156108e957600080fd5b505af11580156108fd573d6000803e3d6000fd5b505050506040513d601f19601f8201168201806040525061092191908101906127c1565b90509392505050565b6060600760009054906101000a900473ffffffffffffffffffffffffffffffffffffffff1673ffffffffffffffffffffffffffffffffffffffff16630b8d6eae836040518263ffffffff1660e01b81526004016109879190612d69565b60006040518083038186803b15801561099f57600080fd5b505afa1580156109b3573d6000803e3d6000fd5b505050506040513d6000823e3d601f19601f820116820180604052506109dc9190810190612780565b9050919050565b60006109ee82612213565b610a2d576040517f08c379a0000000000000000000000000000000000000000000000000000000008152600401610a2490612f17565b60405180910390fd5b6000808373ffffffffffffffffffffffffffffffffffffffff1673ffffffffffffffffffffffffffffffffffffffff168152602001908152602001600020549050919050565b60006005600083815260200190815260200160002060009054906101000a900473ffffffffffffffffffffffffffffffffffffffff1673ffffffffffffffffffffffffffffffffffffffff1663624a4dac6040518163ffffffff1660e01b815260040160206040518083038186803b158015610aee57600080fd5b505afa158015610b02573d6000803e3d6000fd5b505050506040513d601f19601f82011682018060405250610b269190810190612a77565b9050919050565b60006005600085815260200190815260200160002060009054906101000a900473ffffffffffffffffffffffffffffffffffffffff1673ffffffffffffffffffffffffffffffffffffffff16634b0cf75e84846040518363ffffffff1660e01b8152600401610b9d929190612e1a565b60206040518083038186803b158015610bb557600080fd5b505afa158015610bc9573d6000803e3d6000fd5b505050506040513d601f19601f82011682018060405250610bed9190810190612813565b90509392505050565b60606002805490508210610c3f576040517f08c379a0000000000000000000000000000000000000000000000000000000008152600401610c3690612fb7565b60405180910390fd5b60048281548110610c4c57fe5b906000526020600020018054600181600116156101000203166002900480601f016020809104026020016040519081016040528092919081815260200182805460018160011615610100020316600290048015610cea5780601f10610cbf57610100808354040283529160200191610cea565b820191906000526020600020905b815481529060010190602001808311610ccd57829003601f168201915b50505050509050919050565b6060600660008373ffffffffffffffffffffffffffffffffffffffff1673ffffffffffffffffffffffffffffffffffffffff16815260200190815260200160002060009054906101000a900473ffffffffffffffffffffffffffffffffffffffff1673ffffffffffffffffffffffffffffffffffffffff166330ca739b836040518263ffffffff1660e01b8152600401610d909190612d69565b60006040518083038186803b158015610da857600080fd5b505afa158015610dbc573d6000803e3d6000fd5b505050506040513d6000823e3d601f19601f82011682018060405250610de59190810190612780565b9050919050565b60006005600084815260200190815260200160002060009054906101000a900473ffffffffffffffffffffffffffffffffffffffff1673ffffffffffffffffffffffffffffffffffffffff16632dce4167836040518263ffffffff1660e01b8152600401610e5a9190612dff565b60206040518083038186803b158015610e7257600080fd5b505afa158015610e86573d6000803e3d6000fd5b505050506040513d601f19601f82011682018060405250610eaa9190810190612a77565b905092915050565b60606005600083815260200190815260200160002060009054906101000a900473ffffffffffffffffffffffffffffffffffffffff1673ffffffffffffffffffffffffffffffffffffffff166345cfa71d836040518263ffffffff1660e01b8152600401610f209190612dff565b60006040518083038186803b158015610f3857600080fd5b505afa158015610f4c573d6000803e3d6000fd5b505050506040513d6000823e3d601f19601f82011682018060405250610f759190810190612780565b9050919050565b60606005600084815260200190815260200160002060009054906101000a900473ffffffffffffffffffffffffffffffffffffffff1673ffffffffffffffffffffffffffffffffffffffff1663281c8ab7836040518263ffffffff1660e01b8152600401610fea9190612dff565b60006040518083038186803b15801561100257600080fd5b505afa158015611016573d6000803e3d6000fd5b505050506040513d6000823e3d601f19601f8201168201806040525061103f9190810190612780565b905092915050565b60006005600085815260200190815260200160002060009054906101000a900473ffffffffffffffffffffffffffffffffffffffff1673ffffffffffffffffffffffffffffffffffffffff16635035cf528585856040518463ffffffff1660e01b81526004016110b993929190612e43565b602060405180830381600087803b1580156110d357600080fd5b505af11580156110e7573d6000803e3d6000fd5b505050506040513d601f19601f8201168201806040525061110b91908101906127c1565b90509392505050565b60008060606002805490508410611160576040517f08c379a000000000000000000000000000000000000000000000000000000000815260040161115790612fb7565b60405180910390fd5b6002848154811061116d57fe5b9060005260206000200160009054906101000a900473ffffffffffffffffffffffffffffffffffffffff16600385815481106111a557fe5b9060005260206000200154600486815481106111bd57fe5b90600052602060002001808054600181600116156101000203166002900480601f01602080910402602001604051908101604052809291908181526020018280546001816001161561010002031660029004801561125c5780601f106112315761010080835404028352916020019161125c565b820191906000526020600020905b81548152906001019060200180831161123f57829003601f168201915b505050505090509250925092509193909250565b60006005600084815260200190815260200160002060009054906101000a900473ffffffffffffffffffffffffffffffffffffffff1673ffffffffffffffffffffffffffffffffffffffff16639b9fc6e0836040518263ffffffff1660e01b81526004016112de9190612ff7565b60206040518083038186803b1580156112f657600080fd5b505afa15801561130a573d6000803e3d6000fd5b505050506040513d601f19601f8201168201806040525061132e9190810190612813565b905092915050565b600061134133612213565b15611381576040517f08c379a000000000000000000000000000000000000000000000000000000000815260040161137890612fd7565b60405180910390fd5b61138a83611835565b156113ca576040517f08c379a00000000000000000000000000000000000000000000000000000000081526004016113c190612f57565b60405180910390fd5b600760009054906101000a900473ffffffffffffffffffffffffffffffffffffffff1673ffffffffffffffffffffffffffffffffffffffff166398e2fc8084846040518363ffffffff1660e01b8152600401611427929190612e81565b600060405180830381600087803b15801561144157600080fd5b505af1158015611455573d6000803e3d6000fd5b5050505060023390806001815401808255809150509060018203906000526020600020016000909192909190916101000a81548173ffffffffffffffffffffffffffffffffffffffff021916908373ffffffffffffffffffffffffffffffffffffffff160217905550506003839080600181540180825580915050906001820390600052602060002001600090919290919091505550600482908060018154018082558091505090600182039060005260206000200160009091929091909150908051906020019061152892919061255d565b50506001600280549050036000803373ffffffffffffffffffffffffffffffffffffffff1673ffffffffffffffffffffffffffffffffffffffff1681526020019081526020016000208190555060016002805490500360016000858152602001908152602001600020819055506001905092915050565b60006115aa82611835565b6115e9576040517f08c379a00000000000000000000000000000000000000000000000000000000081526004016115e090612f37565b60405180910390fd5b600260016000848152602001908152602001600020548154811061160957fe5b9060005260206000200160009054906101000a900473ffffffffffffffffffffffffffffffffffffffff169050919050565b60006005600085815260200190815260200160002060009054906101000a900473ffffffffffffffffffffffffffffffffffffffff1673ffffffffffffffffffffffffffffffffffffffff1663742752558585856040518463ffffffff1660e01b81526004016116ad93929190612e43565b602060405180830381600087803b1580156116c757600080fd5b505af11580156116db573d6000803e3d6000fd5b505050506040513d601f19601f820116820180604052506116ff91908101906127c1565b90509392505050565b606061172e6117296001600085815260200190815260200160002054612077565b612213565b61176d576040517f08c379a000000000000000000000000000000000000000000000000000000000815260040161176490612f97565b60405180910390fd5b6005600083815260200190815260200160002060009054906101000a900473ffffffffffffffffffffffffffffffffffffffff1673ffffffffffffffffffffffffffffffffffffffff16637448d8d8836040518263ffffffff1660e01b81526004016117d99190612dff565b60006040518083038186803b1580156117f157600080fd5b505afa158015611805573d6000803e3d6000fd5b505050506040513d6000823e3d601f19601f8201168201806040525061182e9190810190612780565b9050919050565b6000806001600084815260200190815260200160002054118061187757507f73656c660000000000000000000000000000000000000000000000000000000082145b9050919050565b600061188933612213565b156118c9576040517f08c379a00000000000000000000000000000000000000000000000000000000081526004016118c090612fd7565b60405180910390fd5b600760009054906101000a900473ffffffffffffffffffffffffffffffffffffffff1673ffffffffffffffffffffffffffffffffffffffff166394e7ef6e836040518263ffffffff1660e01b81526004016119249190612eda565b602060405180830381600087803b15801561193e57600080fd5b505af1158015611952573d6000803e3d6000fd5b505050506040513d601f19601f8201168201806040525061197691908101906127c1565b5060019050919050565b606061198b82612213565b6119ca576040517f08c379a00000000000000000000000000000000000000000000000000000000081526004016119c190612f17565b60405180910390fd5b60046000808473ffffffffffffffffffffffffffffffffffffffff1673ffffffffffffffffffffffffffffffffffffffff1681526020019081526020016000205481548110611a1557fe5b906000526020600020018054600181600116156101000203166002900480601f016020809104026020016040519081016040528092919081815260200182805460018160011615610100020316600290048015611ab35780601f10611a8857610100808354040283529160200191611ab3565b820191906000526020600020905b815481529060010190602001808311611a9657829003601f168201915b50505050509050919050565b6000806060600280549050600160008681526020019081526020016000205410611b1e576040517f08c379a0000000000000000000000000000000000000000000000000000000008152600401611b1590612f77565b60405180910390fd5b60016000858152602001908152602001600020546002600160008781526020019081526020016000205481548110611b5257fe5b9060005260206000200160009054906101000a900473ffffffffffffffffffffffffffffffffffffffff166004600160008881526020019081526020016000205481548110611b9d57fe5b90600052602060002001808054600181600116156101000203166002900480601f016020809104026020016040519081016040528092919081815260200182805460018160011615610100020316600290048015611c3c5780601f10611c1157610100808354040283529160200191611c3c565b820191906000526020600020905b815481529060010190602001808311611c1f57829003601f168201915b505050505090509250925092509193909250565b6000611c5b82611835565b611c9a576040517f08c379a0000000000000000000000000000000000000000000000000000000008152600401611c9190612f37565b60405180910390fd5b60016000838152602001908152602001600020549050919050565b60006005600084815260200190815260200160002060009054906101000a900473ffffffffffffffffffffffffffffffffffffffff1673ffffffffffffffffffffffffffffffffffffffff1663511ad522836040518263ffffffff1660e01b8152600401611d239190612ff7565b60206040518083038186803b158015611d3b57600080fd5b505afa158015611d4f573d6000803e3d6000fd5b505050506040513d601f19601f82011682018060405250611d739190810190612813565b905092915050565b6000611d8682612213565b611dc5576040517f08c379a0000000000000000000000000000000000000000000000000000000008152600401611dbc90612f17565b60405180910390fd5b60036000808473ffffffffffffffffffffffffffffffffffffffff1673ffffffffffffffffffffffffffffffffffffffff1681526020019081526020016000205481548110611e1057fe5b90600052602060002001549050919050565b6000806060611e3084612213565b611e6f576040517f08c379a0000000000000000000000000000000000000000000000000000000008152600401611e6690612f17565b60405180910390fd5b6000808573ffffffffffffffffffffffffffffffffffffffff1673ffffffffffffffffffffffffffffffffffffffff1681526020019081526020016000205460036000808773ffffffffffffffffffffffffffffffffffffffff1673ffffffffffffffffffffffffffffffffffffffff1681526020019081526020016000205481548110611ef957fe5b906000526020600020015460046000808873ffffffffffffffffffffffffffffffffffffffff1673ffffffffffffffffffffffffffffffffffffffff1681526020019081526020016000205481548110611f4f57fe5b90600052602060002001808054600181600116156101000203166002900480601f016020809104026020016040519081016040528092919081815260200182805460018160011615610100020316600290048015611fee5780601f10611fc357610100808354040283529160200191611fee565b820191906000526020600020905b815481529060010190602001808311611fd157829003601f168201915b505050505090509250925092509193909250565b6000600280549050905090565b60006002805490508210612058576040517f08c379a000000000000000000000000000000000000000000000000000000000815260040161204f90612fb7565b60405180910390fd5b6003828154811061206557fe5b90600052602060002001549050919050565b600060028054905082106120c0576040517f08c379a00000000000000000000000000000000000000000000000000000000081526004016120b790612fb7565b60405180910390fd5b600282815481106120cd57fe5b9060005260206000200160009054906101000a900473ffffffffffffffffffffffffffffffffffffffff169050919050565b606061210a82611835565b612149576040517f08c379a000000000000000000000000000000000000000000000000000000000815260040161214090612f37565b60405180910390fd5b600460016000848152602001908152602001600020548154811061216957fe5b906000526020600020018054600181600116156101000203166002900480601f0160208091040260200160405190810160405280929190818152602001828054600181600116156101000203166002900480156122075780601f106121dc57610100808354040283529160200191612207565b820191906000526020600020905b8154815290600101906020018083116121ea57829003601f168201915b50505050509050919050565b6000806000808473ffffffffffffffffffffffffffffffffffffffff1673ffffffffffffffffffffffffffffffffffffffff1681526020019081526020016000205411806122c45750600260008154811061226a57fe5b9060005260206000200160009054906101000a900473ffffffffffffffffffffffffffffffffffffffff1673ffffffffffffffffffffffffffffffffffffffff168273ffffffffffffffffffffffffffffffffffffffff16145b9050919050565b60006005600084815260200190815260200160002060009054906101000a900473ffffffffffffffffffffffffffffffffffffffff1673ffffffffffffffffffffffffffffffffffffffff1663234c1618836040518263ffffffff1660e01b81526004016123399190612dff565b60206040518083038186803b15801561235157600080fd5b505afa158015612365573d6000803e3d6000fd5b505050506040513d601f19601f820116820180604052506123899190810190612a77565b905092915050565b60006005600084815260200190815260200160002060009054906101000a900473ffffffffffffffffffffffffffffffffffffffff1673ffffffffffffffffffffffffffffffffffffffff16634ed37f49836040518263ffffffff1660e01b81526004016123ff9190612dff565b60206040518083038186803b15801561241757600080fd5b505afa15801561242b573d6000803e3d6000fd5b505050506040513d601f19601f8201168201806040525061244f9190810190612a77565b905092915050565b60006005600083815260200190815260200160002060009054906101000a900473ffffffffffffffffffffffffffffffffffffffff169050919050565b60006005600085815260200190815260200160002060009054906101000a900473ffffffffffffffffffffffffffffffffffffffff1673ffffffffffffffffffffffffffffffffffffffff166348ec275584846040518363ffffffff1660e01b8152600401612504929190612eb1565b60206040518083038186803b15801561251c57600080fd5b505afa158015612530573d6000803e3d6000fd5b505050506040513d601f19601f820116820180604052506125549190810190612813565b90509392505050565b828054600181600116156101000203166002900490600052602060002090601f016020900481019282601f1061259e57805160ff19168380011785556125cc565b828001600101855582156125cc579182015b828111156125cb5782518255916020019190600101906125b0565b5b5090506125d991906125dd565b5090565b6125ff91905b808211156125fb5760008160009055506001016125e3565b5090565b90565b6000813590506126118161323e565b92915050565b600082601f83011261262857600080fd5b815161263b612636826130bb565b61308e565b9150818183526020840193506020810190508385602084028201111561266057600080fd5b60005b83811015612690578161267688826126c4565b845260208401935060208301925050600181019050612663565b5050505092915050565b6000815190506126a981613255565b92915050565b6000813590506126be8161326c565b92915050565b6000815190506126d38161326c565b92915050565b600082601f8301126126ea57600080fd5b81356126fd6126f8826130e3565b61308e565b9150808252602083016020830185838301111561271957600080fd5b6127248382846131eb565b50505092915050565b60008135905061273c81613283565b92915050565b60008151905061275181613283565b92915050565b60006020828403121561276957600080fd5b600061277784828501612602565b91505092915050565b60006020828403121561279257600080fd5b600082015167ffffffffffffffff8111156127ac57600080fd5b6127b884828501612617565b91505092915050565b6000602082840312156127d357600080fd5b60006127e18482850161269a565b91505092915050565b6000602082840312156127fc57600080fd5b600061280a848285016126af565b91505092915050565b60006020828403121561282557600080fd5b6000612833848285016126c4565b91505092915050565b6000806040838503121561284f57600080fd5b600061285d858286016126af565b925050602061286e858286016126af565b9150509250929050565b60008060006060848603121561288d57600080fd5b600061289b868287016126af565b93505060206128ac868287016126af565b92505060406128bd868287016126af565b9150509250925092565b6000806000606084860312156128dc57600080fd5b60006128ea868287016126af565b93505060206128fb868287016126af565b925050604084013567ffffffffffffffff81111561291857600080fd5b612924868287016126d9565b9150509250925092565b60008060006060848603121561294357600080fd5b6000612951868287016126af565b9350506020612962868287016126af565b92505060406129738682870161272d565b9150509250925092565b6000806040838503121561299057600080fd5b600061299e858286016126af565b925050602083013567ffffffffffffffff8111156129bb57600080fd5b6129c7858286016126d9565b9150509250929050565b600080604083850312156129e457600080fd5b60006129f2858286016126af565b9250506020612a038582860161272d565b9150509250929050565b600060208284031215612a1f57600080fd5b600082013567ffffffffffffffff811115612a3957600080fd5b612a45848285016126d9565b91505092915050565b600060208284031215612a6057600080fd5b6000612a6e8482850161272d565b91505092915050565b600060208284031215612a8957600080fd5b6000612a9784828501612742565b91505092915050565b6000612aac8383612b34565b60208301905092915050565b612ac181613175565b82525050565b6000612ad28261311f565b612adc8185613142565b9350612ae78361310f565b8060005b83811015612b18578151612aff8882612aa0565b9750612b0a83613135565b925050600181019050612aeb565b5085935050505092915050565b612b2e81613187565b82525050565b612b3d81613193565b82525050565b612b4c81613193565b82525050565b6000612b5d8261312a565b612b678185613153565b9350612b778185602086016131fa565b612b808161322d565b840191505092915050565b612b94816131c7565b82525050565b6000612ba7601683613164565b91507f50617469656e7420646f65736e277420657869737421000000000000000000006000830152602082019050919050565b6000612be7601783613164565b91507f43616e27742066696e64207468652070617469656e74210000000000000000006000830152602082019050919050565b6000612c27601c83613164565b91507f50617469656e74206e616d6520686173206265656e2074616b656e2e000000006000830152602082019050919050565b6000612c67601b83613164565b91507f50617469656e7420696e646578206f7574206f6620626f756e642100000000006000830152602082019050919050565b6000612ca7601a83613164565b91507f50617469656e74206861736e2774206265656e20666f756e642e0000000000006000830152602082019050919050565b6000612ce7601383613164565b91507f496e646578206f7574206f6620626f756e6421000000000000000000000000006000830152602082019050919050565b6000612d27601683613164565b91507f53656e646572206e6f7420617574686f72697a65642e000000000000000000006000830152602082019050919050565b612d63816131bd565b82525050565b6000602082019050612d7e6000830184612ab8565b92915050565b6000606082019050612d996000830186612ab8565b612da66020830185612b43565b8181036040830152612db88184612b52565b9050949350505050565b60006020820190508181036000830152612ddc8184612ac7565b905092915050565b6000602082019050612df96000830184612b25565b92915050565b6000602082019050612e146000830184612b43565b92915050565b6000604082019050612e2f6000830185612b43565b612e3c6020830184612b43565b9392505050565b6000606082019050612e586000830186612b43565b612e656020830185612b43565b8181036040830152612e778184612b52565b9050949350505050565b6000604082019050612e966000830185612b43565b8181036020830152612ea88184612b52565b90509392505050565b6000604082019050612ec66000830185612b43565b612ed36020830184612d5a565b9392505050565b60006020820190508181036000830152612ef48184612b52565b905092915050565b6000602082019050612f116000830184612b8b565b92915050565b60006020820190508181036000830152612f3081612b9a565b9050919050565b60006020820190508181036000830152612f5081612bda565b9050919050565b60006020820190508181036000830152612f7081612c1a565b9050919050565b60006020820190508181036000830152612f9081612c5a565b9050919050565b60006020820190508181036000830152612fb081612c9a565b9050919050565b60006020820190508181036000830152612fd081612cda565b9050919050565b60006020820190508181036000830152612ff081612d1a565b9050919050565b600060208201905061300c6000830184612d5a565b92915050565b60006060820190506130276000830186612d5a565b6130346020830185612ab8565b81810360408301526130468184612b52565b9050949350505050565b60006060820190506130656000830186612d5a565b6130726020830185612b43565b81810360408301526130848184612b52565b9050949350505050565b6000604051905081810181811067ffffffffffffffff821117156130b157600080fd5b8060405250919050565b600067ffffffffffffffff8211156130d257600080fd5b602082029050602081019050919050565b600067ffffffffffffffff8211156130fa57600080fd5b601f19601f8301169050602081019050919050565b6000819050602082019050919050565b600081519050919050565b600081519050919050565b6000602082019050919050565b600082825260208201905092915050565b600082825260208201905092915050565b600082825260208201905092915050565b60006131808261319d565b9050919050565b60008115159050919050565b6000819050919050565b600073ffffffffffffffffffffffffffffffffffffffff82169050919050565b6000819050919050565b60006131d2826131d9565b9050919050565b60006131e48261319d565b9050919050565b82818337600083830152505050565b60005b838110156132185780820151818401526020810190506131fd565b83811115613227576000848401525b50505050565b6000601f19601f8301169050919050565b61324781613175565b811461325257600080fd5b50565b61325e81613187565b811461326957600080fd5b50565b61327581613193565b811461328057600080fd5b50565b61328c816131bd565b811461329757600080fd5b5056fea365627a7a72315820e421469261fdb4a796a1a14b332ab0886d914cc8d7e4e0b1bad289cb5e5562316c6578706572696d656e74616cf564736f6c6343000510004060806040523480156200001157600080fd5b50336000806101000a81548173ffffffffffffffffffffffffffffffffffffffff021916908373ffffffffffffffffffffffffffffffffffffffff1602179055507f78000000000000000000000000000000000000000000000000000000000000006001819055506040518060400160405280600181526020017f780000000000000000000000000000000000000000000000000000000000000081525060029080519060200190620000c69291906200015d565b5060088060018154018082558091505090600182039060005260206000200160007f6e6f742d617661696c61626c650000000000000000000000000000000000000090919091505550600d8060018154018082558091505090600182039060005260206000200160007f6e6f742d617661696c61626c6500000000000000000000000000000000000000909190915055506200020c565b828054600181600116156101000203166002900490600052602060002090601f016020900481019282601f10620001a057805160ff1916838001178555620001d1565b82800160010185558215620001d1579182015b82811115620001d0578251825591602001919060010190620001b3565b5b509050620001e09190620001e4565b5090565b6200020991905b8082111562000205576000816000905550600101620001eb565b5090565b90565b6117b9806200021c6000396000f3fe608060405234801561001057600080fd5b50600436106101215760003560e01c80634ed37f49116100ad5780637448d8d8116100715780637448d8d8146103b457806394e7ef6e146103e457806398e2fc80146104145780639b9fc6e014610430578063f811f1ab1461046057610121565b80634ed37f49146102d65780635035cf5214610306578063511ad52214610336578063624a4dac14610366578063742752551461038457610121565b80632dce4167116100f45780632dce4167146101e657806330ca739b1461021657806345cfa71d1461024657806348ec2755146102765780634b0cf75e146102a657610121565b80630b8d6eae146101265780631aa5346a14610156578063234c161814610186578063281c8ab7146101b6575b600080fd5b610140600480360361013b919081019061118a565b61047e565b60405161014d919061152d565b60405180910390f35b610170600480360361016b919081019061126f565b610515565b60405161017d919061154f565b60405180910390f35b6101a0600480360361019b919081019061121d565b6105dd565b6040516101ad91906115ae565b60405180910390f35b6101d060048036036101cb919081019061121d565b6105fa565b6040516101dd919061152d565b60405180910390f35b61020060048036036101fb919081019061121d565b6106b9565b60405161020d91906115ae565b60405180910390f35b610230600480360361022b919081019061118a565b6106d6565b60405161023d919061152d565b60405180910390f35b610260600480360361025b919081019061121d565b61076d565b60405161026d919061152d565b60405180910390f35b610290600480360361028b9190810190611366565b6107d8565b60405161029d919061156a565b60405180910390f35b6102c060048036036102bb919081019061126f565b61089e565b6040516102cd919061156a565b60405180910390f35b6102f060048036036102eb919081019061121d565b610964565b6040516102fd91906115ae565b60405180910390f35b610320600480360361031b91908101906112ab565b610a1e565b60405161032d919061154f565b60405180910390f35b610350600480360361034b91908101906113e3565b610bbc565b60405161035d919061156a565b60405180910390f35b61036e610bdd565b60405161037b91906115ae565b60405180910390f35b61039e600480360361039991908101906112ab565b610bea565b6040516103ab919061154f565b60405180910390f35b6103ce60048036036103c9919081019061121d565b610dfc565b6040516103db919061152d565b60405180910390f35b6103fe60048036036103f991908101906113a2565b610e67565b60405161040b919061154f565b60405180910390f35b61042e60048036036104299190810190611312565b610e89565b005b61044a600480360361044591908101906113e3565b610eeb565b604051610457919061156a565b60405180910390f35b610468610f0c565b60405161047591906115ae565b60405180910390f35b6060600660008373ffffffffffffffffffffffffffffffffffffffff1673ffffffffffffffffffffffffffffffffffffffff16815260200190815260200160002080548060200260200160405190810160405280929190818152602001828054801561050957602002820191906000526020600020905b8154815260200190600101908083116104f5575b50505050509050919050565b60006007600084815260200190815260200160002060009054906101000a900473ffffffffffffffffffffffffffffffffffffffff1673ffffffffffffffffffffffffffffffffffffffff16631f97c4c3836040518263ffffffff1660e01b8152600401610583919061156a565b602060405180830381600087803b15801561059d57600080fd5b505af11580156105b1573d6000803e3d6000fd5b505050506040513d601f19601f820116820180604052506105d591908101906111f4565b905092915050565b6000600a6000838152602001908152602001600020549050919050565b60606007600083815260200190815260200160002060009054906101000a900473ffffffffffffffffffffffffffffffffffffffff1673ffffffffffffffffffffffffffffffffffffffff166377e4afe46040518163ffffffff1660e01b815260040160006040518083038186803b15801561067557600080fd5b505afa158015610689573d6000803e3d6000fd5b505050506040513d6000823e3d601f19601f820116820180604052506106b291908101906111b3565b9050919050565b600060046000838152602001908152602001600020549050919050565b6060600660008373ffffffffffffffffffffffffffffffffffffffff1673ffffffffffffffffffffffffffffffffffffffff16815260200190815260200160002080548060200260200160405190810160405280929190818152602001828054801561076157602002820191906000526020600020905b81548152602001906001019080831161074d575b50505050509050919050565b6060600b60008381526020019081526020016000208054806020026020016040519081016040528092919081815260200182805480156107cc57602002820191906000526020600020905b8154815260200190600101908083116107b8575b50505050509050919050565b60006007600084815260200190815260200160002060009054906101000a900473ffffffffffffffffffffffffffffffffffffffff1673ffffffffffffffffffffffffffffffffffffffff16631e50b182836040518263ffffffff1660e01b815260040161084691906115ae565b60206040518083038186803b15801561085e57600080fd5b505afa158015610872573d6000803e3d6000fd5b505050506040513d601f19601f820116820180604052506108969190810190611246565b905092915050565b60006007600084815260200190815260200160002060009054906101000a900473ffffffffffffffffffffffffffffffffffffffff1673ffffffffffffffffffffffffffffffffffffffff1663c294ab1e836040518263ffffffff1660e01b815260040161090c919061156a565b60206040518083038186803b15801561092457600080fd5b505afa158015610938573d6000803e3d6000fd5b505050506040513d601f19601f8201168201806040525061095c9190810190611246565b905092915050565b60006007600083815260200190815260200160002060009054906101000a900473ffffffffffffffffffffffffffffffffffffffff1673ffffffffffffffffffffffffffffffffffffffff1663cd2483416040518163ffffffff1660e01b815260040160206040518083038186803b1580156109df57600080fd5b505afa1580156109f3573d6000803e3d6000fd5b505050506040513d601f19601f82011682018060405250610a17919081019061140c565b9050919050565b6000600960009054906101000a900473ffffffffffffffffffffffffffffffffffffffff1673ffffffffffffffffffffffffffffffffffffffff1663949f3a4e3386866040518463ffffffff1660e01b8152600401610a7f939291906114f6565b600060405180830381600087803b158015610a9957600080fd5b505af1158015610aad573d6000803e3d6000fd5b50505050600d839080600181540180825580915050906001820390600052602060002001600090919290919091505550600d80549050600a600085815260200190815260200160002081905550600d600b6000868152602001908152602001600020908054610b1d929190610f19565b50600d600c60003373ffffffffffffffffffffffffffffffffffffffff1673ffffffffffffffffffffffffffffffffffffffff168152602001908152602001600020908054610b6d929190610f19565b50610b7782610e67565b507f2bb590431d1dfc5d86ac3f951c70a27b4818eb2e4bc69ba773cf6f12b3ca98158484604051610ba9929190611585565b60405180910390a1600190509392505050565b6000600d8281548110610bcb57fe5b90600052602060002001549050919050565b6000600d80549050905090565b6000600360009054906101000a900473ffffffffffffffffffffffffffffffffffffffff1673ffffffffffffffffffffffffffffffffffffffff16637a84135d3386866040518463ffffffff1660e01b8152600401610c4b939291906114f6565b600060405180830381600087803b158015610c6557600080fd5b505af1158015610c79573d6000803e3d6000fd5b5050505060088390806001815401808255809150509060018203906000526020600020016000909192909190915055506008805490506004600085815260200190815260200160002081905550600860056000868152602001908152602001600020908054610ce9929190610f19565b506008600660003373ffffffffffffffffffffffffffffffffffffffff1673ffffffffffffffffffffffffffffffffffffffff168152602001908152602001600020908054610d39929190610f19565b50600360009054906101000a900473ffffffffffffffffffffffffffffffffffffffff166007600085815260200190815260200160002060006101000a81548173ffffffffffffffffffffffffffffffffffffffff021916908373ffffffffffffffffffffffffffffffffffffffff160217905550610db782610e67565b507f8f4940dfc4a4a23294dbd13e6f0929ba11b468a44fc5005a4f895430a844d1088484604051610de9929190611585565b60405180910390a1600190509392505050565b606060056000838152602001908152602001600020805480602002602001604051908101604052809291908181526020018280548015610e5b57602002820191906000526020600020905b815481526020019060010190808311610e47575b50505050509050919050565b60008160029080519060200190610e7f929190610f6b565b5060019050919050565b336000806101000a81548173ffffffffffffffffffffffffffffffffffffffff021916908373ffffffffffffffffffffffffffffffffffffffff160217905550816001819055508060029080519060200190610ee6929190610f6b565b505050565b600060088281548110610efa57fe5b90600052602060002001549050919050565b6000600880549050905090565b828054828255906000526020600020908101928215610f5a5760005260206000209182015b82811115610f59578254825591600101919060010190610f3e565b5b509050610f679190610feb565b5090565b828054600181600116156101000203166002900490600052602060002090601f016020900481019282601f10610fac57805160ff1916838001178555610fda565b82800160010185558215610fda579182015b82811115610fd9578251825591602001919060010190610fbe565b5b509050610fe79190611010565b5090565b61100d91905b80821115611009576000816000905550600101610ff1565b5090565b90565b61103291905b8082111561102e576000816000905550600101611016565b5090565b90565b6000813590506110448161171a565b92915050565b600082601f83011261105b57600080fd5b815161106e611069826115f6565b6115c9565b9150818183526020840193506020810190508385602084028201111561109357600080fd5b60005b838110156110c357816110a988826110f7565b845260208401935060208301925050600181019050611096565b5050505092915050565b6000815190506110dc81611731565b92915050565b6000813590506110f181611748565b92915050565b60008151905061110681611748565b92915050565b600082601f83011261111d57600080fd5b813561113061112b8261161e565b6115c9565b9150808252602083016020830185838301111561114c57600080fd5b61115783828461170b565b50505092915050565b60008135905061116f8161175f565b92915050565b6000815190506111848161175f565b92915050565b60006020828403121561119c57600080fd5b60006111aa84828501611035565b91505092915050565b6000602082840312156111c557600080fd5b600082015167ffffffffffffffff8111156111df57600080fd5b6111eb8482850161104a565b91505092915050565b60006020828403121561120657600080fd5b6000611214848285016110cd565b91505092915050565b60006020828403121561122f57600080fd5b600061123d848285016110e2565b91505092915050565b60006020828403121561125857600080fd5b6000611266848285016110f7565b91505092915050565b6000806040838503121561128257600080fd5b6000611290858286016110e2565b92505060206112a1858286016110e2565b9150509250929050565b6000806000606084860312156112c057600080fd5b60006112ce868287016110e2565b93505060206112df868287016110e2565b925050604084013567ffffffffffffffff8111156112fc57600080fd5b6113088682870161110c565b9150509250925092565b6000806040838503121561132557600080fd5b6000611333858286016110e2565b925050602083013567ffffffffffffffff81111561135057600080fd5b61135c8582860161110c565b9150509250929050565b6000806040838503121561137957600080fd5b6000611387858286016110e2565b925050602061139885828601611160565b9150509250929050565b6000602082840312156113b457600080fd5b600082013567ffffffffffffffff8111156113ce57600080fd5b6113da8482850161110c565b91505092915050565b6000602082840312156113f557600080fd5b600061140384828501611160565b91505092915050565b60006020828403121561141e57600080fd5b600061142c84828501611175565b91505092915050565b600061144183836114c9565b60208301905092915050565b611456816116d5565b82525050565b60006114678261165a565b6114718185611672565b935061147c8361164a565b8060005b838110156114ad5781516114948882611435565b975061149f83611665565b925050600181019050611480565b5085935050505092915050565b6114c381611695565b82525050565b6114d2816116a1565b82525050565b6114e1816116a1565b82525050565b6114f0816116cb565b82525050565b600060608201905061150b600083018661144d565b61151860208301856114d8565b61152560408301846114d8565b949350505050565b60006020820190508181036000830152611547818461145c565b905092915050565b600060208201905061156460008301846114ba565b92915050565b600060208201905061157f60008301846114d8565b92915050565b600060408201905061159a60008301856114d8565b6115a760208301846114d8565b9392505050565b60006020820190506115c360008301846114e7565b92915050565b6000604051905081810181811067ffffffffffffffff821117156115ec57600080fd5b8060405250919050565b600067ffffffffffffffff82111561160d57600080fd5b602082029050602081019050919050565b600067ffffffffffffffff82111561163557600080fd5b601f19601f8301169050602081019050919050565b6000819050602082019050919050565b600081519050919050565b6000602082019050919050565b600082825260208201905092915050565b600061168e826116ab565b9050919050565b60008115159050919050565b6000819050919050565b600073ffffffffffffffffffffffffffffffffffffffff82169050919050565b6000819050919050565b60006116e0826116e7565b9050919050565b60006116f2826116f9565b9050919050565b6000611704826116ab565b9050919050565b82818337600083830152505050565b61172381611683565b811461172e57600080fd5b50565b61173a81611695565b811461174557600080fd5b50565b611751816116a1565b811461175c57600080fd5b50565b611768816116cb565b811461177357600080fd5b5056fea365627a7a72315820bd9ed16cb4bf6efe07133f07e486c9d735d1c0de2e64dd5818b2bced8484c6e56c6578706572696d656e74616cf564736f6c6343000510004060806040523480156200001157600080fd5b5060023390806001815401808255809150509060018203906000526020600020016000909192909190916101000a81548173ffffffffffffffffffffffffffffffffffffffff021916908373ffffffffffffffffffffffffffffffffffffffff1602179055505060038060018154018082558091505090600182039060005260206000200160007f78000000000000000000000000000000000000000000000000000000000000009091909150555060048060018154018082558091505090600182039060005260206000200160006040518060400160405280600d81526020017f6e6f742d617661696c61626c6500000000000000000000000000000000000000815250909190915090805190602001906200013092919062000138565b5050620001e7565b828054600181600116156101000203166002900490600052602060002090601f016020900481019282601f106200017b57805160ff1916838001178555620001ac565b82800160010185558215620001ac579182015b82811115620001ab5782518255916020019190600101906200018e565b5b509050620001bb9190620001bf565b5090565b620001e491905b80821115620001e0576000816000905550600101620001c6565b5090565b90565b611e9380620001f76000396000f3fe608060405234801561001057600080fd5b506004361061010b5760003560e01c80635bab5482116100a25780638f1787c2116100715780638f1787c2146107d1578063ad37c2dc14610829578063e1153e6f14610897578063e85a340a14610974578063fca200df146109e25761010b565b80635bab54821461061e578063715b5f6d1461067657806379111c1c1461075757806386c5efe9146107755761010b565b80631d37878f116100de5780631d37878f146103895780634b3a6029146103cb57806358c5d4bf146104725780635a357c191461053d5761010b565b806304aa42101461011057806313684d43146101b7578063140de8f21461027457806314f51930146102b6575b600080fd5b61013c6004803603602081101561012657600080fd5b8101908080359060200190929190505050610a28565b6040518080602001828103825283818151815260200191508051906020019080838360005b8381101561017c578082015181840152602081019050610161565b50505050905090810190601f1680156101a95780820380516001836020036101000a031916815260200191505b509250505060405180910390f35b6101f9600480360360208110156101cd57600080fd5b81019080803573ffffffffffffffffffffffffffffffffffffffff169060200190929190505050610b6f565b6040518080602001828103825283818151815260200191508051906020019080838360005b8381101561023957808201518184015260208101905061021e565b50505050905090810190601f1680156102665780820380516001836020036101000a031916815260200191505b509250505060405180910390f35b6102a06004803603602081101561028a57600080fd5b8101908080359060200190929190505050610ce1565b6040518082815260200191505060405180910390f35b61036f600480360360208110156102cc57600080fd5b81019080803590602001906401000000008111156102e957600080fd5b8201836020820111156102fb57600080fd5b8035906020019184600183028401116401000000008311171561031d57600080fd5b91908080601f016020809104026020016040519081016040528093929190818152602001838380828437600081840152601f19601f820116905080830192505050505050509192919290505050610d79565b604051808215151515815260200191505060405180910390f35b6103b56004803603602081101561039f57600080fd5b8101908080359060200190929190505050610f16565b6040518082815260200191505060405180910390f35b6103f7600480360360208110156103e157600080fd5b8101908080359060200190929190505050610fb1565b6040518080602001828103825283818151815260200191508051906020019080838360005b8381101561043757808201518184015260208101905061041c565b50505050905090810190601f1680156104645780820380516001836020036101000a031916815260200191505b509250505060405180910390f35b6104b46004803603602081101561048857600080fd5b81019080803573ffffffffffffffffffffffffffffffffffffffff1690602001909291905050506110e4565b6040518084815260200183815260200180602001828103825283818151815260200191508051906020019080838360005b838110156105005780820151818401526020810190506104e5565b50505050905090810190601f16801561052d5780820380516001836020036101000a031916815260200191505b5094505050505060405180910390f35b6105696004803603602081101561055357600080fd5b81019080803590602001909291905050506112f7565b604051808473ffffffffffffffffffffffffffffffffffffffff1673ffffffffffffffffffffffffffffffffffffffff16815260200183815260200180602001828103825283818151815260200191508051906020019080838360005b838110156105e15780820151818401526020810190506105c6565b50505050905090810190601f16801561060e5780820380516001836020036101000a031916815260200191505b5094505050505060405180910390f35b6106606004803603602081101561063457600080fd5b81019080803573ffffffffffffffffffffffffffffffffffffffff169060200190929190505050611486565b6040518082815260200191505060405180910390f35b6106a26004803603602081101561068c57600080fd5b8101908080359060200190929190505050611549565b604051808481526020018373ffffffffffffffffffffffffffffffffffffffff1673ffffffffffffffffffffffffffffffffffffffff16815260200180602001828103825283818151815260200191508051906020019080838360005b8381101561071a5780820151818401526020810190506106ff565b50505050905090810190601f1680156107475780820380516001836020036101000a031916815260200191505b5094505050505060405180910390f35b61075f61170d565b6040518082815260200191505060405180910390f35b6107b76004803603602081101561078b57600080fd5b81019080803573ffffffffffffffffffffffffffffffffffffffff16906020019092919050505061171a565b604051808215151515815260200191505060405180910390f35b610813600480360360208110156107e757600080fd5b81019080803573ffffffffffffffffffffffffffffffffffffffff1690602001909291905050506117d2565b6040518082815260200191505060405180910390f35b6108556004803603602081101561083f57600080fd5b81019080803590602001909291905050506118ac565b604051808273ffffffffffffffffffffffffffffffffffffffff1673ffffffffffffffffffffffffffffffffffffffff16815260200191505060405180910390f35b61095a600480360360408110156108ad57600080fd5b8101908080359060200190929190803590602001906401000000008111156108d457600080fd5b8201836020820111156108e657600080fd5b8035906020019184600183028401116401000000008311171561090857600080fd5b91908080601f016020809104026020016040519081016040528093929190818152602001838380828437600081840152601f19601f82011690508083019250505050505050919291929050505061197b565b604051808215151515815260200191505060405180910390f35b6109a06004803603602081101561098a57600080fd5b8101908080359060200190929190505050611cb5565b604051808273ffffffffffffffffffffffffffffffffffffffff1673ffffffffffffffffffffffffffffffffffffffff16815260200191505060405180910390f35b610a0e600480360360208110156109f857600080fd5b8101908080359060200190929190505050611d70565b604051808215151515815260200191505060405180910390f35b6060610a3382611d70565b610aa5576040517f08c379a00000000000000000000000000000000000000000000000000000000081526004018080602001828103825260168152602001807f43616e27742066696e642074686520446f63746f72210000000000000000000081525060200191505060405180910390fd5b6004600160008481526020019081526020016000205481548110610ac557fe5b906000526020600020018054600181600116156101000203166002900480601f016020809104026020016040519081016040528092919081815260200182805460018160011615610100020316600290048015610b635780601f10610b3857610100808354040283529160200191610b63565b820191906000526020600020905b815481529060010190602001808311610b4657829003601f168201915b50505050509050919050565b6060610b7a8261171a565b610bec576040517f08c379a00000000000000000000000000000000000000000000000000000000081526004018080602001828103825260158152602001807f446f63746f7220646f65736e277420657869737421000000000000000000000081525060200191505060405180910390fd5b60046000808473ffffffffffffffffffffffffffffffffffffffff1673ffffffffffffffffffffffffffffffffffffffff1681526020019081526020016000205481548110610c3757fe5b906000526020600020018054600181600116156101000203166002900480601f016020809104026020016040519081016040528092919081815260200182805460018160011615610100020316600290048015610cd55780601f10610caa57610100808354040283529160200191610cd5565b820191906000526020600020905b815481529060010190602001808311610cb857829003601f168201915b50505050509050919050565b6000610cec82611d70565b610d5e576040517f08c379a00000000000000000000000000000000000000000000000000000000081526004018080602001828103825260168152602001807f43616e27742066696e642074686520446f63746f72210000000000000000000081525060200191505060405180910390fd5b60016000838152602001908152602001600020549050919050565b6000610d843361171a565b15610df7576040517f08c379a00000000000000000000000000000000000000000000000000000000081526004018080602001828103825260168152602001807f53656e646572206e6f7420617574686f72697a65642e0000000000000000000081525060200191505060405180910390fd5b600560009054906101000a900473ffffffffffffffffffffffffffffffffffffffff1673ffffffffffffffffffffffffffffffffffffffff166314f51930836040518263ffffffff1660e01b81526004018080602001828103825283818151815260200191508051906020019080838360005b83811015610e85578082015181840152602081019050610e6a565b50505050905090810190601f168015610eb25780820380516001836020036101000a031916815260200191505b5092505050602060405180830381600087803b158015610ed157600080fd5b505af1158015610ee5573d6000803e3d6000fd5b505050506040513d6020811015610efb57600080fd5b81019080805190602001909291905050505060019050919050565b60006002805490508210610f92576040517f08c379a00000000000000000000000000000000000000000000000000000000081526004018080602001828103825260138152602001807f496e646578206f7574206f6620626f756e64210000000000000000000000000081525060200191505060405180910390fd5b60038281548110610f9f57fe5b90600052602060002001549050919050565b6060600280549050821061102d576040517f08c379a00000000000000000000000000000000000000000000000000000000081526004018080602001828103825260138152602001807f496e646578206f7574206f6620626f756e64210000000000000000000000000081525060200191505060405180910390fd5b6004828154811061103a57fe5b906000526020600020018054600181600116156101000203166002900480601f0160208091040260200160405190810160405280929190818152602001828054600181600116156101000203166002900480156110d85780601f106110ad576101008083540402835291602001916110d8565b820191906000526020600020905b8154815290600101906020018083116110bb57829003601f168201915b50505050509050919050565b60008060606110f28461171a565b611164576040517f08c379a00000000000000000000000000000000000000000000000000000000081526004018080602001828103825260158152602001807f446f63746f7220646f65736e277420657869737421000000000000000000000081525060200191505060405180910390fd5b6000808573ffffffffffffffffffffffffffffffffffffffff1673ffffffffffffffffffffffffffffffffffffffff1681526020019081526020016000205460036000808773ffffffffffffffffffffffffffffffffffffffff1673ffffffffffffffffffffffffffffffffffffffff16815260200190815260200160002054815481106111ee57fe5b906000526020600020015460046000808873ffffffffffffffffffffffffffffffffffffffff1673ffffffffffffffffffffffffffffffffffffffff168152602001908152602001600020548154811061124457fe5b90600052602060002001808054600181600116156101000203166002900480601f0160208091040260200160405190810160405280929190818152602001828054600181600116156101000203166002900480156112e35780601f106112b8576101008083540402835291602001916112e3565b820191906000526020600020905b8154815290600101906020018083116112c657829003601f168201915b505050505090509250925092509193909250565b60008060606002805490508410611376576040517f08c379a00000000000000000000000000000000000000000000000000000000081526004018080602001828103825260138152602001807f496e646578206f7574206f6620626f756e64210000000000000000000000000081525060200191505060405180910390fd5b6002848154811061138357fe5b9060005260206000200160009054906101000a900473ffffffffffffffffffffffffffffffffffffffff16600385815481106113bb57fe5b9060005260206000200154600486815481106113d357fe5b90600052602060002001808054600181600116156101000203166002900480601f0160208091040260200160405190810160405280929190818152602001828054600181600116156101000203166002900480156114725780601f1061144757610100808354040283529160200191611472565b820191906000526020600020905b81548152906001019060200180831161145557829003601f168201915b505050505090509250925092509193909250565b60006114918261171a565b611503576040517f08c379a00000000000000000000000000000000000000000000000000000000081526004018080602001828103825260158152602001807f446f63746f7220646f65736e277420657869737421000000000000000000000081525060200191505060405180910390fd5b6000808373ffffffffffffffffffffffffffffffffffffffff1673ffffffffffffffffffffffffffffffffffffffff168152602001908152602001600020549050919050565b60008060606002805490506001600086815260200190815260200160002054106115db576040517f08c379a000000000000000000000000000000000000000000000000000000000815260040180806020018281038252601a8152602001807f446f63746f7220696e646578206f7574206f6620626f756e642100000000000081525060200191505060405180910390fd5b6001600085815260200190815260200160002054600260016000878152602001908152602001600020548154811061160f57fe5b9060005260206000200160009054906101000a900473ffffffffffffffffffffffffffffffffffffffff16600460016000888152602001908152602001600020548154811061165a57fe5b90600052602060002001808054600181600116156101000203166002900480601f0160208091040260200160405190810160405280929190818152602001828054600181600116156101000203166002900480156116f95780601f106116ce576101008083540402835291602001916116f9565b820191906000526020600020905b8154815290600101906020018083116116dc57829003601f168201915b505050505090509250925092509193909250565b6000600280549050905090565b6000806000808473ffffffffffffffffffffffffffffffffffffffff1673ffffffffffffffffffffffffffffffffffffffff1681526020019081526020016000205411806117cb5750600260008154811061177157fe5b9060005260206000200160009054906101000a900473ffffffffffffffffffffffffffffffffffffffff1673ffffffffffffffffffffffffffffffffffffffff168273ffffffffffffffffffffffffffffffffffffffff16145b9050919050565b60006117dd8261171a565b61184f576040517f08c379a00000000000000000000000000000000000000000000000000000000081526004018080602001828103825260158152602001807f446f63746f7220646f65736e277420657869737421000000000000000000000081525060200191505060405180910390fd5b60036000808473ffffffffffffffffffffffffffffffffffffffff1673ffffffffffffffffffffffffffffffffffffffff168152602001908152602001600020548154811061189a57fe5b90600052602060002001549050919050565b60006118b782611d70565b611929576040517f08c379a00000000000000000000000000000000000000000000000000000000081526004018080602001828103825260168152602001807f43616e27742066696e642074686520446f63746f72210000000000000000000081525060200191505060405180910390fd5b600260016000848152602001908152602001600020548154811061194957fe5b9060005260206000200160009054906101000a900473ffffffffffffffffffffffffffffffffffffffff169050919050565b60006119863361171a565b156119f9576040517f08c379a00000000000000000000000000000000000000000000000000000000081526004018080602001828103825260168152602001807f53656e646572206e6f7420617574686f72697a65642e0000000000000000000081525060200191505060405180910390fd5b611a0283611d70565b15611a75576040517f08c379a000000000000000000000000000000000000000000000000000000000815260040180806020018281038252601b8152602001807f446f63746f72206e616d6520686173206265656e2074616b656e2e000000000081525060200191505060405180910390fd5b600560009054906101000a900473ffffffffffffffffffffffffffffffffffffffff1673ffffffffffffffffffffffffffffffffffffffff1663b795f4b484846040518363ffffffff1660e01b81526004018083815260200180602001828103825283818151815260200191508051906020019080838360005b83811015611b0a578082015181840152602081019050611aef565b50505050905090810190601f168015611b375780820380516001836020036101000a031916815260200191505b509350505050600060405180830381600087803b158015611b5757600080fd5b505af1158015611b6b573d6000803e3d6000fd5b5050505060023390806001815401808255809150509060018203906000526020600020016000909192909190916101000a81548173ffffffffffffffffffffffffffffffffffffffff021916908373ffffffffffffffffffffffffffffffffffffffff1602179055505060038390806001815401808255809150509060018203906000526020600020016000909192909190915055506004829080600181540180825580915050906001820390600052602060002001600090919290919091509080519060200190611c3e929190611db9565b50506001600280549050036000803373ffffffffffffffffffffffffffffffffffffffff1673ffffffffffffffffffffffffffffffffffffffff1681526020019081526020016000208190555060016002805490500360016000858152602001908152602001600020819055506001905092915050565b60006002805490508210611d31576040517f08c379a00000000000000000000000000000000000000000000000000000000081526004018080602001828103825260138152602001807f496e646578206f7574206f6620626f756e64210000000000000000000000000081525060200191505060405180910390fd5b60028281548110611d3e57fe5b9060005260206000200160009054906101000a900473ffffffffffffffffffffffffffffffffffffffff169050919050565b60008060016000848152602001908152602001600020541180611db257507f73656c660000000000000000000000000000000000000000000000000000000082145b9050919050565b828054600181600116156101000203166002900490600052602060002090601f016020900481019282601f10611dfa57805160ff1916838001178555611e28565b82800160010185558215611e28579182015b82811115611e27578251825591602001919060010190611e0c565b5b509050611e359190611e39565b5090565b611e5b91905b80821115611e57576000816000905550600101611e3f565b5090565b9056fea265627a7a723158203e62f88ac273cf12d8a649a7bfb410e9687f8046d22abfef62684d77c898bd4164736f6c63430005100032608060405234801561001057600080fd5b5060008060018154018082558091505090600182039060005260206000200160007f74656d70000000000000000000000000000000000000000000000000000000009091909150555060018060018154018082558091505090600182039060005260206000200160006040518060400160405280600d81526020017f6e6f742d617661696c61626c6500000000000000000000000000000000000000815250909190915090805190602001906100c79291906100ce565b5050610173565b828054600181600116156101000203166002900490600052602060002090601f016020900481019282601f1061010f57805160ff191683800117855561013d565b8280016001018555821561013d579182015b8281111561013c578251825591602001919060010190610121565b5b50905061014a919061014e565b5090565b61017091905b8082111561016c576000816000905550600101610154565b5090565b90565b610cfd806101826000396000f3fe608060405234801561001057600080fd5b50600436106100885760003560e01c8063abac50a41161005b578063abac50a414610301578063cafd134614610347578063cc04a6851461041a578063eadeb84c146104c157610088565b80631e50b1821461008d57806331db6fd51461013b578063697d19ea1461017d578063a68a08a51461025a575b600080fd5b6100b9600480360360208110156100a357600080fd5b81019080803590602001909291905050506104df565b6040518083815260200180602001828103825283818151815260200191508051906020019080838360005b838110156100ff5780820151818401526020810190506100e4565b50505050905090810190601f16801561012c5780820380516001836020036101000a031916815260200191505b50935050505060405180910390f35b6101676004803603602081101561015157600080fd5b8101908080359060200190929190505050610631565b6040518082815260200191505060405180910390f35b6102406004803603604081101561019357600080fd5b8101908080359060200190929190803590602001906401000000008111156101ba57600080fd5b8201836020820111156101cc57600080fd5b803590602001918460018302840111640100000000831117156101ee57600080fd5b91908080601f016020809104026020016040519081016040528093929190818152602001838380828437600081840152601f19601f8201169050808301925050505050505091929192905050506106cb565b604051808215151515815260200191505060405180910390f35b6102866004803603602081101561027057600080fd5b81019080803590602001909291905050506108d8565b6040518080602001828103825283818151815260200191508051906020019080838360005b838110156102c65780820151818401526020810190506102ab565b50505050905090810190601f1680156102f35780820380516001836020036101000a031916815260200191505b509250505060405180910390f35b61032d6004803603602081101561031757600080fd5b81019080803590602001909291905050506109a4565b604051808215151515815260200191505060405180910390f35b6104006004803603602081101561035d57600080fd5b810190808035906020019064010000000081111561037a57600080fd5b82018360208201111561038c57600080fd5b803590602001918460018302840111640100000000831117156103ae57600080fd5b91908080601f016020809104026020016040519081016040528093929190818152602001838380828437600081840152601f19601f8201169050808301925050505050505091929192905050506109c3565b604051808215151515815260200191505060405180910390f35b6104466004803603602081101561043057600080fd5b8101908080359060200190929190505050610ae4565b6040518080602001828103825283818151815260200191508051906020019080838360005b8381101561048657808201518184015260208101905061046b565b50505050905090810190601f1680156104b35780820380516001836020036101000a031916815260200191505b509250505060405180910390f35b6104c9610c17565b6040518082815260200191505060405180910390f35b60006060600080549050831061055d576040517f08c379a00000000000000000000000000000000000000000000000000000000081526004018080602001828103825260138152602001807f496e646578206f7574206f6620626f756e64210000000000000000000000000081525060200191505060405180910390fd5b6000838154811061056a57fe5b90600052602060002001546001848154811061058257fe5b90600052602060002001808054600181600116156101000203166002900480601f0160208091040260200160405190810160405280929190818152602001828054600181600116156101000203166002900480156106215780601f106105f657610100808354040283529160200191610621565b820191906000526020600020905b81548152906001019060200180831161060457829003601f168201915b5050505050905091509150915091565b6000808054905082106106ac576040517f08c379a00000000000000000000000000000000000000000000000000000000081526004018080602001828103825260138152602001807f496e646578206f7574206f6620626f756e64210000000000000000000000000081525060200191505060405180910390fd5b600082815481106106b957fe5b90600052602060002001549050919050565b60006106d6836109a4565b15610749576040517f08c379a00000000000000000000000000000000000000000000000000000000081526004018080602001828103825260188152602001807f4d65646963696e6520616c72656164792065786973747321000000000000000081525060200191505060405180910390fd5b600360009054906101000a900473ffffffffffffffffffffffffffffffffffffffff1673ffffffffffffffffffffffffffffffffffffffff1663acacdb9884846040518363ffffffff1660e01b81526004018083815260200180602001828103825283818151815260200191508051906020019080838360005b838110156107de5780820151818401526020810190506107c3565b50505050905090810190601f16801561080b5780820380516001836020036101000a031916815260200191505b509350505050600060405180830381600087803b15801561082b57600080fd5b505af115801561083f573d6000803e3d6000fd5b50505050600083908060018154018082558091505090600182039060005260206000200160009091929091909150555060018290806001815401808255809150509060018203906000526020600020016000909192909190915090805190602001906108ac929190610c23565b505060016000805490500360026000858152602001908152602001600020819055506001905092915050565b606060016002600084815260200190815260200160002054815481106108fa57fe5b906000526020600020018054600181600116156101000203166002900480601f0160208091040260200160405190810160405280929190818152602001828054600181600116156101000203166002900480156109985780601f1061096d57610100808354040283529160200191610998565b820191906000526020600020905b81548152906001019060200180831161097b57829003601f168201915b50505050509050919050565b6000806002600084815260200190815260200160002054119050919050565b6000600360009054906101000a900473ffffffffffffffffffffffffffffffffffffffff1673ffffffffffffffffffffffffffffffffffffffff1663cafd1346836040518263ffffffff1660e01b81526004018080602001828103825283818151815260200191508051906020019080838360005b83811015610a53578082015181840152602081019050610a38565b50505050905090810190601f168015610a805780820380516001836020036101000a031916815260200191505b5092505050602060405180830381600087803b158015610a9f57600080fd5b505af1158015610ab3573d6000803e3d6000fd5b505050506040513d6020811015610ac957600080fd5b81019080805190602001909291905050505060019050919050565b60606000805490508210610b60576040517f08c379a00000000000000000000000000000000000000000000000000000000081526004018080602001828103825260138152602001807f496e646578206f7574206f6620626f756e64210000000000000000000000000081525060200191505060405180910390fd5b60018281548110610b6d57fe5b906000526020600020018054600181600116156101000203166002900480601f016020809104026020016040519081016040528092919081815260200182805460018160011615610100020316600290048015610c0b5780601f10610be057610100808354040283529160200191610c0b565b820191906000526020600020905b815481529060010190602001808311610bee57829003601f168201915b50505050509050919050565b60008080549050905090565b828054600181600116156101000203166002900490600052602060002090601f016020900481019282601f10610c6457805160ff1916838001178555610c92565b82800160010185558215610c92579182015b82811115610c91578251825591602001919060010190610c76565b5b509050610c9f9190610ca3565b5090565b610cc591905b80821115610cc1576000816000905550600101610ca9565b5090565b9056fea265627a7a723158205af746a9bda2db3bfe87ac855d4e718aad525935349fcdfda59dde3de31ff2cb64736f6c63430005100032a265627a7a72315820106374c095ae356d98e0fab17bb7a3c0d42c3d566efc4498b93c8778c5f9041664736f6c63430005100032",
  "source": "pragma solidity >=0.5.16;\nimport \"./Client.sol\";\n\ncontract ClientFactory {\n event LogNewClientCreated(address sender, Client newClient);\n\n function createClient() public returns(Client newClient) {\n   Client c = new Client();\n   emit LogNewClientCreated(msg.sender, c);\n   return c;\n   }\n}",
  "sourcePath": "/home/eke/Desktop/patient-eth-master/contracts/ClientFactory.sol",
  "compiler": {
    "name": "solc",
    "version": "0.5.16+commit.9c3226ce.Emscripten.clang"
  },
  "schemaVersion": "3.1.0",
  "updatedAt": "2020-04-19T09:30:13.467Z",
  "devdoc": {
    "methods": {}
  },
  "userdoc": {
    "methods": {}
  }
}