{
  "contractName": "Consultation",
  "abi": [
    {
      "inputs": [],
      "payable": false,
      "stateMutability": "nonpayable",
      "type": "constructor"
    },
    {
      "constant": false,
      "inputs": [
        {
          "internalType": "address",
          "name": "_addr",
          "type": "address"
        },
        {
          "internalType": "bytes32",
          "name": "_patientuname",
          "type": "bytes32"
        },
        {
          "internalType": "bytes32",
          "name": "_consulDateID",
          "type": "bytes32"
        }
      ],
      "name": "createConsultation",
      "outputs": [],
      "payable": false,
      "stateMutability": "nonpayable",
      "type": "function"
    },
    {
      "constant": false,
      "inputs": [
        {
          "internalType": "bytes32",
          "name": "mname",
          "type": "bytes32"
        }
      ],
      "name": "saveMedicineForPatientUse",
      "outputs": [
        {
          "internalType": "bool",
          "name": "",
          "type": "bool"
        }
      ],
      "payable": false,
      "stateMutability": "nonpayable",
      "type": "function"
    },
    {
      "constant": true,
      "inputs": [],
      "name": "getMedicinesFromConsultation",
      "outputs": [
        {
          "internalType": "bytes32[]",
          "name": "",
          "type": "bytes32[]"
        }
      ],
      "payable": false,
      "stateMutability": "view",
      "type": "function"
    },
    {
      "constant": true,
      "inputs": [
        {
          "internalType": "uint256",
          "name": "index",
          "type": "uint256"
        }
      ],
      "name": "getMedicineByIndex",
      "outputs": [
        {
          "internalType": "bytes32",
          "name": "",
          "type": "bytes32"
        }
      ],
      "payable": false,
      "stateMutability": "view",
      "type": "function"
    },
    {
      "constant": true,
      "inputs": [
        {
          "internalType": "bytes32",
          "name": "medname",
          "type": "bytes32"
        }
      ],
      "name": "getMedicineByMedicineName",
      "outputs": [
        {
          "internalType": "bytes32",
          "name": "",
          "type": "bytes32"
        }
      ],
      "payable": false,
      "stateMutability": "view",
      "type": "function"
    },
    {
      "constant": true,
      "inputs": [],
      "name": "getMedicinesCountFromConsultation",
      "outputs": [
        {
          "internalType": "uint256",
          "name": "",
          "type": "uint256"
        }
      ],
      "payable": false,
      "stateMutability": "view",
      "type": "function"
    }
  ],
  "bytecode": "0x608060405234801561001057600080fd5b50336000806101000a81548173ffffffffffffffffffffffffffffffffffffffff021916908373ffffffffffffffffffffffffffffffffffffffff1602179055507f78000000000000000000000000000000000000000000000000000000000000006001819055507f780000000000000000000000000000000000000000000000000000000000000060028190555060038060018154018082558091505090600182039060005260206000200160007f6e6f742d617661696c61626c65000000000000000000000000000000000000009091909150555061039f806100f66000396000f3fe608060405234801561001057600080fd5b50600436106100625760003560e01c80631e50b182146100675780631f97c4c3146100a957806377e4afe4146100ef5780637a84135d1461014e578063c294ab1e146101a6578063cd248341146101e8575b600080fd5b6100936004803603602081101561007d57600080fd5b8101908080359060200190929190505050610206565b6040518082815260200191505060405180910390f35b6100d5600480360360208110156100bf57600080fd5b8101908080359060200190929190505050610227565b604051808215151515815260200191505060405180910390f35b6100f761027e565b6040518080602001828103825283818151815260200191508051906020019060200280838360005b8381101561013a57808201518184015260208101905061011f565b505050509050019250505060405180910390f35b6101a46004803603606081101561016457600080fd5b81019080803573ffffffffffffffffffffffffffffffffffffffff16906020019092919080359060200190929190803590602001909291905050506102d6565b005b6101d2600480360360208110156101bc57600080fd5b8101908080359060200190929190505050610329565b6040518082815260200191505060405180910390f35b6101f061035d565b6040518082815260200191505060405180910390f35b60006003828154811061021557fe5b90600052602060002001549050919050565b60006003829080600181540180825580915050906001820390600052602060002001600090919290919091505550600160038054905003600460008481526020019081526020016000208190555060019050919050565b606060038054806020026020016040519081016040528092919081815260200182805480156102cc57602002820191906000526020600020905b8154815260200190600101908083116102b8575b5050505050905090565b826000806101000a81548173ffffffffffffffffffffffffffffffffffffffff021916908373ffffffffffffffffffffffffffffffffffffffff1602179055508160018190555080600281905550505050565b6000600360046000848152602001908152602001600020548154811061034b57fe5b90600052602060002001549050919050565b600060038054905090509056fea265627a7a723158205bd7e4141aecde8c0fcd328ec910c5d28ee1a196a7313bdb291403b410ac856b64736f6c63430005100032",
  "source": "pragma solidity >=0.5.16;\n\ncontract Consultation {\n  address private addr;\n  bytes32 private patientuname;\n  bytes32 private consulDateID;\n  bytes32[] private medicines;\n  mapping(bytes32 => uint) private medicinenameToIndex;\n\n\n  constructor() public{\n    addr = msg.sender;\n    patientuname = 'x';\n    consulDateID = 'x';\n    medicines.push('not-available');\n   }\n\n  function createConsultation(address _addr, bytes32 _patientuname, bytes32 _consulDateID) public {\n    addr = _addr;\n    patientuname = _patientuname;\n    consulDateID = _consulDateID;\n  }\n\n  function saveMedicineForPatientUse(bytes32 mname) public returns(bool){\n    medicines.push(mname);\n    medicinenameToIndex[mname] = medicines.length - 1;\n    return true;\n  }\n\n  function getMedicinesFromConsultation() public view returns(bytes32[] memory){\n    return medicines;\n  }\n  function getMedicineByIndex(uint index) public view returns(bytes32){\n    return medicines[index];\n  }\n  function getMedicineByMedicineName(bytes32 medname)public view returns(bytes32){\n    return medicines[medicinenameToIndex[medname]];\n  }\n  function getMedicinesCountFromConsultation() public view returns(uint){\n    return medicines.length;\n  }\n}",
  "sourcePath": "/home/eke/Desktop/patient-eth-master/contracts/Consultation.sol",
  "compiler": {
    "name": "solc",
    "version": "0.5.16+commit.9c3226ce.Emscripten.clang"
  },
  "schemaVersion": "3.1.0",
  "updatedAt": "2020-04-24T13:45:46.410Z",
  "networkType": "ethereum",
  "devdoc": {
    "methods": {}
  },
  "userdoc": {
    "methods": {}
  }
}