{
  "contractName": "Consultation",
  "abi": [
    {
      "inputs": [],
      "payable": false,
      "stateMutability": "nonpayable",
      "type": "constructor"
    },
    {
      "constant": false,
      "inputs": [
        {
          "internalType": "address",
          "name": "_addr",
          "type": "address"
        },
        {
          "internalType": "bytes32",
          "name": "_patientuname",
          "type": "bytes32"
        },
        {
          "internalType": "bytes32",
          "name": "_consulDateID",
          "type": "bytes32"
        },
        {
          "internalType": "bytes",
          "name": "_consipfsHash",
          "type": "bytes"
        }
      ],
      "name": "createConsultation",
      "outputs": [],
      "payable": false,
      "stateMutability": "nonpayable",
      "type": "function"
    },
    {
      "constant": false,
      "inputs": [
        {
          "internalType": "bytes32",
          "name": "mname",
          "type": "bytes32"
        }
      ],
      "name": "saveMedicineForPatientUse",
      "outputs": [
        {
          "internalType": "bool",
          "name": "",
          "type": "bool"
        }
      ],
      "payable": false,
      "stateMutability": "nonpayable",
      "type": "function"
    },
    {
      "constant": true,
      "inputs": [],
      "name": "getMedicinesFromConsultation",
      "outputs": [
        {
          "internalType": "bytes32[]",
          "name": "",
          "type": "bytes32[]"
        }
      ],
      "payable": false,
      "stateMutability": "view",
      "type": "function"
    },
    {
      "constant": true,
      "inputs": [
        {
          "internalType": "uint256",
          "name": "index",
          "type": "uint256"
        }
      ],
      "name": "getMedicineByIndex",
      "outputs": [
        {
          "internalType": "bytes32",
          "name": "",
          "type": "bytes32"
        }
      ],
      "payable": false,
      "stateMutability": "view",
      "type": "function"
    },
    {
      "constant": true,
      "inputs": [
        {
          "internalType": "bytes32",
          "name": "medname",
          "type": "bytes32"
        }
      ],
      "name": "getMedicineByMedicineName",
      "outputs": [
        {
          "internalType": "bytes32",
          "name": "",
          "type": "bytes32"
        }
      ],
      "payable": false,
      "stateMutability": "view",
      "type": "function"
    },
    {
      "constant": true,
      "inputs": [],
      "name": "getMedicinesCountFromConsultation",
      "outputs": [
        {
          "internalType": "uint256",
          "name": "",
          "type": "uint256"
        }
      ],
      "payable": false,
      "stateMutability": "view",
      "type": "function"
    }
  ],
  "bytecode": "0x608060405234801561001057600080fd5b50336000806101000a81548173ffffffffffffffffffffffffffffffffffffffff021916908373ffffffffffffffffffffffffffffffffffffffff1602179055507f78000000000000000000000000000000000000000000000000000000000000006001819055507f78000000000000000000000000000000000000000000000000000000000000006002819055506040518060400160405280600181526020017f7800000000000000000000000000000000000000000000000000000000000000815250600390805190602001906100ea929190610138565b5060048060018154018082558091505090600182039060005260206000200160007f6e6f742d617661696c61626c6500000000000000000000000000000000000000909190915055506101dd565b828054600181600116156101000203166002900490600052602060002090601f016020900481019282601f1061017957805160ff19168380011785556101a7565b828001600101855582156101a7579182015b828111156101a657825182559160200191906001019061018b565b5b5090506101b491906101b8565b5090565b6101da91905b808211156101d65760008160009055506001016101be565b5090565b90565b6104f3806101ec6000396000f3fe608060405234801561001057600080fd5b50600436106100625760003560e01c80631e50b182146100675780631f97c4c3146100a957806377e4afe4146100ef578063c294ab1e1461014e578063cd24834114610190578063de6a5a2e146101ae575b600080fd5b6100936004803603602081101561007d57600080fd5b810190808035906020019092919050505061029d565b6040518082815260200191505060405180910390f35b6100d5600480360360208110156100bf57600080fd5b81019080803590602001909291905050506102be565b604051808215151515815260200191505060405180910390f35b6100f7610315565b6040518080602001828103825283818151815260200191508051906020019060200280838360005b8381101561013a57808201518184015260208101905061011f565b505050509050019250505060405180910390f35b61017a6004803603602081101561016457600080fd5b810190808035906020019092919050505061036d565b6040518082815260200191505060405180910390f35b6101986103a1565b6040518082815260200191505060405180910390f35b61029b600480360360808110156101c457600080fd5b81019080803573ffffffffffffffffffffffffffffffffffffffff16906020019092919080359060200190929190803590602001909291908035906020019064010000000081111561021557600080fd5b82018360208201111561022757600080fd5b8035906020019184600183028401116401000000008311171561024957600080fd5b91908080601f016020809104026020016040519081016040528093929190818152602001838380828437600081840152601f19601f8201169050808301925050505050505091929192905050506103ae565b005b6000600482815481106102ac57fe5b90600052602060002001549050919050565b60006004829080600181540180825580915050906001820390600052602060002001600090919290919091505550600160048054905003600560008481526020019081526020016000208190555060019050919050565b6060600480548060200260200160405190810160405280929190818152602001828054801561036357602002820191906000526020600020905b81548152602001906001019080831161034f575b5050505050905090565b6000600460056000848152602001908152602001600020548154811061038f57fe5b90600052602060002001549050919050565b6000600480549050905090565b836000806101000a81548173ffffffffffffffffffffffffffffffffffffffff021916908373ffffffffffffffffffffffffffffffffffffffff16021790555082600181905550816002819055508060039080519060200190610412929190610419565b5050505050565b828054600181600116156101000203166002900490600052602060002090601f016020900481019282601f1061045a57805160ff1916838001178555610488565b82800160010185558215610488579182015b8281111561048757825182559160200191906001019061046c565b5b5090506104959190610499565b5090565b6104bb91905b808211156104b757600081600090555060010161049f565b5090565b9056fea265627a7a72315820e92b26f02eb9baa32af88ce1261d6c6cd52be746b0b2df077f0a93e37efcf53c64736f6c63430005100032",
  "source": "pragma solidity >=0.5.16;\n\ncontract Consultation {\n  address private addr;\n  bytes32 private patientuname;\n  bytes32 private consulDateID;\n  bytes private consipfsHash;\n  bytes32[] private medicines;\n  mapping(bytes32 => uint) private medicinenameToIndex;\n\n\n  constructor() public{\n    addr = msg.sender;\n    patientuname = 'x';\n    consulDateID = 'x';\n    consipfsHash = 'x';\n    medicines.push('not-available');\n   }\n\n  function createConsultation(address _addr, bytes32 _patientuname, bytes32 _consulDateID, bytes memory _consipfsHash) public {\n    addr = _addr;\n    patientuname = _patientuname;\n    consulDateID = _consulDateID;\n    consipfsHash = _consipfsHash;\n  }\n\n  function saveMedicineForPatientUse(bytes32 mname) public returns(bool){\n    medicines.push(mname);\n    medicinenameToIndex[mname] = medicines.length - 1;\n    return true;\n  }\n\n  function getMedicinesFromConsultation() public view returns(bytes32[] memory){\n    return medicines;\n  }\n  function getMedicineByIndex(uint index) public view returns(bytes32){\n    return medicines[index];\n  }\n  function getMedicineByMedicineName(bytes32 medname)public view returns(bytes32){\n    return medicines[medicinenameToIndex[medname]];\n  }\n  function getMedicinesCountFromConsultation() public view returns(uint){\n    return medicines.length;\n  }\n}",
  "sourcePath": "/home/eke/patient-eth/contracts/Consultation.sol",
  "compiler": {
    "name": "solc",
    "version": "0.5.16+commit.9c3226ce.Emscripten.clang"
  },
  "schemaVersion": "3.1.0",
  "updatedAt": "2020-04-28T18:24:32.787Z",
  "networkType": "ethereum",
  "devdoc": {
    "methods": {}
  },
  "userdoc": {
    "methods": {}
  }
}