{
  "contractName": "demo",
  "abi": [
    {
      "inputs": [
        {
          "internalType": "address",
          "name": "adr",
          "type": "address"
        },
        {
          "internalType": "bytes32",
          "name": "_name",
          "type": "bytes32"
        }
      ],
      "payable": false,
      "stateMutability": "nonpayable",
      "type": "constructor"
    },
    {
      "constant": false,
      "inputs": [
        {
          "internalType": "bytes32",
          "name": "_name",
          "type": "bytes32"
        }
      ],
      "name": "createDemo",
      "outputs": [
        {
          "internalType": "bool",
          "name": "",
          "type": "bool"
        }
      ],
      "payable": false,
      "stateMutability": "nonpayable",
      "type": "function"
    },
    {
      "constant": true,
      "inputs": [],
      "name": "getDemoContract",
      "outputs": [
        {
          "internalType": "address",
          "name": "",
          "type": "address"
        }
      ],
      "payable": false,
      "stateMutability": "view",
      "type": "function"
    },
    {
      "constant": true,
      "inputs": [],
      "name": "getDemoList",
      "outputs": [
        {
          "internalType": "bytes32[]",
          "name": "",
          "type": "bytes32[]"
        }
      ],
      "payable": false,
      "stateMutability": "view",
      "type": "function"
    }
  ],
  "bytecode": "0x608060405234801561001057600080fd5b506040516104d93803806104d9833981810160405261003291908101906100aa565b816000806101000a81548173ffffffffffffffffffffffffffffffffffffffff021916908373ffffffffffffffffffffffffffffffffffffffff160217905550806001819055505050610150565b60008151905061008f81610122565b92915050565b6000815190506100a481610139565b92915050565b600080604083850312156100bd57600080fd5b60006100cb85828601610080565b92505060206100dc85828601610095565b9150509250929050565b60006100f182610102565b9050919050565b6000819050919050565b600073ffffffffffffffffffffffffffffffffffffffff82169050919050565b61012b816100e6565b811461013657600080fd5b50565b610142816100f8565b811461014d57600080fd5b50565b61037a8061015f6000396000f3fe608060405234801561001057600080fd5b50600436106100415760003560e01c806351b3f0d41461004657806383fd5e0d14610064578063a571fe4714610094575b600080fd5b61004e6100b2565b60405161005b9190610247565b60405180910390f35b61007e6004803603610079919081019061017b565b6100ba565b60405161008b9190610284565b60405180910390f35b61009c61010e565b6040516100a99190610262565b60405180910390f35b600030905090565b60006002829080600181540180825580915050906001820390600052602060002001600090919290919091505550600280549050600360008481526020019081526020016000208190555060019050919050565b6060600280548060200260200160405190810160405280929190818152602001828054801561015c57602002820191906000526020600020905b815481526020019060010190808311610148575b5050505050905090565b60008135905061017581610320565b92915050565b60006020828403121561018d57600080fd5b600061019b84828501610166565b91505092915050565b60006101b08383610238565b60208301905092915050565b6101c5816102d8565b82525050565b60006101d6826102af565b6101e081856102c7565b93506101eb8361029f565b8060005b8381101561021c57815161020388826101a4565b975061020e836102ba565b9250506001810190506101ef565b5085935050505092915050565b610232816102ea565b82525050565b610241816102f6565b82525050565b600060208201905061025c60008301846101bc565b92915050565b6000602082019050818103600083015261027c81846101cb565b905092915050565b60006020820190506102996000830184610229565b92915050565b6000819050602082019050919050565b600081519050919050565b6000602082019050919050565b600082825260208201905092915050565b60006102e382610300565b9050919050565b60008115159050919050565b6000819050919050565b600073ffffffffffffffffffffffffffffffffffffffff82169050919050565b610329816102f6565b811461033457600080fd5b5056fea365627a7a72315820f903aa33413ea1ed5fad7a08b6a7c603e6d12da88a08899860fabd8df17fa0056c6578706572696d656e74616cf564736f6c63430005100040",
  "source": "pragma solidity >=0.5.16;\npragma experimental ABIEncoderV2;\n\ncontract demo {\n    address addr;\n    bytes32 name;\n    bytes32[] list;\n\n    constructor(address adr, bytes32 _name) public {\n        addr = adr;\n        name = _name;\n    }\n\n    mapping(bytes32 => uint) private nametolist;\n\n    function createDemo(bytes32 _name) public returns(bool) {\n        list.push(_name);\n        nametolist[_name] = list.length;\n        return true;\n    }\n\n    function getDemoContract()public view returns(address){\n        return address(this);\n    }\n\n    function getDemoList() public view returns (bytes32[] memory){\n        return list;\n    }\n}",
  "sourcePath": "/home/eke/patient-eth/contracts/demo.sol",
  "compiler": {
    "name": "solc",
    "version": "0.5.16+commit.9c3226ce.Emscripten.clang"
  },
  "schemaVersion": "3.1.0",
  "updatedAt": "2020-04-28T18:24:32.877Z",
  "networkType": "ethereum",
  "devdoc": {
    "methods": {}
  },
  "userdoc": {
    "methods": {}
  }
}