{
  "contractName": "DoctorStorage",
  "abi": [
    {
      "inputs": [],
      "payable": false,
      "stateMutability": "nonpayable",
      "type": "constructor"
    },
    {
      "constant": false,
      "inputs": [
        {
          "internalType": "bytes32",
          "name": "DoctorName",
          "type": "bytes32"
        },
        {
          "internalType": "bytes",
          "name": "ipfsHash",
          "type": "bytes"
        }
      ],
      "name": "registerDoctor",
      "outputs": [
        {
          "internalType": "bool",
          "name": "",
          "type": "bool"
        }
      ],
      "payable": false,
      "stateMutability": "nonpayable",
      "type": "function"
    },
    {
      "constant": true,
      "inputs": [
        {
          "internalType": "address",
          "name": "_DoctorAdresses",
          "type": "address"
        }
      ],
      "name": "hasDoctor",
      "outputs": [
        {
          "internalType": "bool",
          "name": "",
          "type": "bool"
        }
      ],
      "payable": false,
      "stateMutability": "view",
      "type": "function"
    },
    {
      "constant": true,
      "inputs": [
        {
          "internalType": "bytes32",
          "name": "pname",
          "type": "bytes32"
        }
      ],
      "name": "DoctorNameTaken",
      "outputs": [
        {
          "internalType": "bool",
          "name": "takenIndeed",
          "type": "bool"
        }
      ],
      "payable": false,
      "stateMutability": "view",
      "type": "function"
    },
    {
      "constant": false,
      "inputs": [
        {
          "internalType": "bytes",
          "name": "ipfsHash",
          "type": "bytes"
        }
      ],
      "name": "updateDoctor",
      "outputs": [
        {
          "internalType": "bool",
          "name": "",
          "type": "bool"
        }
      ],
      "payable": false,
      "stateMutability": "nonpayable",
      "type": "function"
    },
    {
      "constant": true,
      "inputs": [],
      "name": "getDoctorCount",
      "outputs": [
        {
          "internalType": "uint256",
          "name": "",
          "type": "uint256"
        }
      ],
      "payable": false,
      "stateMutability": "view",
      "type": "function"
    },
    {
      "constant": true,
      "inputs": [
        {
          "internalType": "uint256",
          "name": "index",
          "type": "uint256"
        }
      ],
      "name": "getDoctorByIndex",
      "outputs": [
        {
          "internalType": "address",
          "name": "",
          "type": "address"
        },
        {
          "internalType": "bytes32",
          "name": "",
          "type": "bytes32"
        },
        {
          "internalType": "bytes",
          "name": "",
          "type": "bytes"
        }
      ],
      "payable": false,
      "stateMutability": "view",
      "type": "function"
    },
    {
      "constant": true,
      "inputs": [
        {
          "internalType": "uint256",
          "name": "index",
          "type": "uint256"
        }
      ],
      "name": "getDoctorAddressByIndex",
      "outputs": [
        {
          "internalType": "address",
          "name": "",
          "type": "address"
        }
      ],
      "payable": false,
      "stateMutability": "view",
      "type": "function"
    },
    {
      "constant": true,
      "inputs": [
        {
          "internalType": "uint256",
          "name": "index",
          "type": "uint256"
        }
      ],
      "name": "getDoctorNameByIndex",
      "outputs": [
        {
          "internalType": "bytes32",
          "name": "",
          "type": "bytes32"
        }
      ],
      "payable": false,
      "stateMutability": "view",
      "type": "function"
    },
    {
      "constant": true,
      "inputs": [
        {
          "internalType": "uint256",
          "name": "index",
          "type": "uint256"
        }
      ],
      "name": "getDoctorIpfsHashByIndex",
      "outputs": [
        {
          "internalType": "bytes",
          "name": "",
          "type": "bytes"
        }
      ],
      "payable": false,
      "stateMutability": "view",
      "type": "function"
    },
    {
      "constant": true,
      "inputs": [
        {
          "internalType": "address",
          "name": "DoctorAddress",
          "type": "address"
        }
      ],
      "name": "getDoctorByAddress",
      "outputs": [
        {
          "internalType": "uint256",
          "name": "",
          "type": "uint256"
        },
        {
          "internalType": "bytes32",
          "name": "",
          "type": "bytes32"
        },
        {
          "internalType": "bytes",
          "name": "",
          "type": "bytes"
        }
      ],
      "payable": false,
      "stateMutability": "view",
      "type": "function"
    },
    {
      "constant": true,
      "inputs": [
        {
          "internalType": "address",
          "name": "DoctorAddress",
          "type": "address"
        }
      ],
      "name": "getDoctorIndexByAddress",
      "outputs": [
        {
          "internalType": "uint256",
          "name": "",
          "type": "uint256"
        }
      ],
      "payable": false,
      "stateMutability": "view",
      "type": "function"
    },
    {
      "constant": true,
      "inputs": [
        {
          "internalType": "address",
          "name": "DoctorAddress",
          "type": "address"
        }
      ],
      "name": "getDoctorNameByAddress",
      "outputs": [
        {
          "internalType": "bytes32",
          "name": "",
          "type": "bytes32"
        }
      ],
      "payable": false,
      "stateMutability": "view",
      "type": "function"
    },
    {
      "constant": true,
      "inputs": [
        {
          "internalType": "address",
          "name": "DoctorAddress",
          "type": "address"
        }
      ],
      "name": "getDoctorIpfsHashByAddress",
      "outputs": [
        {
          "internalType": "bytes",
          "name": "",
          "type": "bytes"
        }
      ],
      "payable": false,
      "stateMutability": "view",
      "type": "function"
    },
    {
      "constant": true,
      "inputs": [
        {
          "internalType": "bytes32",
          "name": "Doctorname",
          "type": "bytes32"
        }
      ],
      "name": "getDoctorByDoctorName",
      "outputs": [
        {
          "internalType": "uint256",
          "name": "",
          "type": "uint256"
        },
        {
          "internalType": "address",
          "name": "",
          "type": "address"
        },
        {
          "internalType": "bytes",
          "name": "",
          "type": "bytes"
        }
      ],
      "payable": false,
      "stateMutability": "view",
      "type": "function"
    },
    {
      "constant": true,
      "inputs": [
        {
          "internalType": "bytes32",
          "name": "Doctorname",
          "type": "bytes32"
        }
      ],
      "name": "getDoctorIndexByDoctorName",
      "outputs": [
        {
          "internalType": "uint256",
          "name": "",
          "type": "uint256"
        }
      ],
      "payable": false,
      "stateMutability": "view",
      "type": "function"
    },
    {
      "constant": true,
      "inputs": [
        {
          "internalType": "bytes32",
          "name": "Doctorname",
          "type": "bytes32"
        }
      ],
      "name": "getDoctorAddressByDoctorName",
      "outputs": [
        {
          "internalType": "address",
          "name": "",
          "type": "address"
        }
      ],
      "payable": false,
      "stateMutability": "view",
      "type": "function"
    },
    {
      "constant": true,
      "inputs": [
        {
          "internalType": "bytes32",
          "name": "Doctorname",
          "type": "bytes32"
        }
      ],
      "name": "getDoctorIpfsHashByDoctorName",
      "outputs": [
        {
          "internalType": "bytes",
          "name": "",
          "type": "bytes"
        }
      ],
      "payable": false,
      "stateMutability": "view",
      "type": "function"
    }
  ],
  "bytecode": "0x60806040526040516200001290620001a4565b604051809103906000f0801580156200002f573d6000803e3d6000fd5b50600560006101000a81548173ffffffffffffffffffffffffffffffffffffffff021916908373ffffffffffffffffffffffffffffffffffffffff1602179055503480156200007d57600080fd5b5060023390806001815401808255809150509060018203906000526020600020016000909192909190916101000a81548173ffffffffffffffffffffffffffffffffffffffff021916908373ffffffffffffffffffffffffffffffffffffffff1602179055505060038060018154018082558091505090600182039060005260206000200160007f78000000000000000000000000000000000000000000000000000000000000009091909150555060048060018154018082558091505090600182039060005260206000200160006040518060400160405280600d81526020017f6e6f742d617661696c61626c6500000000000000000000000000000000000000815250909190915090805190602001906200019c929190620001b2565b505062000261565b6104ae806200210483390190565b828054600181600116156101000203166002900490600052602060002090601f016020900481019282601f10620001f557805160ff191683800117855562000226565b8280016001018555821562000226579182015b828111156200022557825182559160200191906001019062000208565b5b50905062000235919062000239565b5090565b6200025e91905b808211156200025a57600081600090555060010162000240565b5090565b90565b611e9380620002716000396000f3fe608060405234801561001057600080fd5b506004361061010b5760003560e01c80635bab5482116100a25780638f1787c2116100715780638f1787c2146107d1578063ad37c2dc14610829578063e1153e6f14610897578063e85a340a14610974578063fca200df146109e25761010b565b80635bab54821461061e578063715b5f6d1461067657806379111c1c1461075757806386c5efe9146107755761010b565b80631d37878f116100de5780631d37878f146103895780634b3a6029146103cb57806358c5d4bf146104725780635a357c191461053d5761010b565b806304aa42101461011057806313684d43146101b7578063140de8f21461027457806314f51930146102b6575b600080fd5b61013c6004803603602081101561012657600080fd5b8101908080359060200190929190505050610a28565b6040518080602001828103825283818151815260200191508051906020019080838360005b8381101561017c578082015181840152602081019050610161565b50505050905090810190601f1680156101a95780820380516001836020036101000a031916815260200191505b509250505060405180910390f35b6101f9600480360360208110156101cd57600080fd5b81019080803573ffffffffffffffffffffffffffffffffffffffff169060200190929190505050610b6f565b6040518080602001828103825283818151815260200191508051906020019080838360005b8381101561023957808201518184015260208101905061021e565b50505050905090810190601f1680156102665780820380516001836020036101000a031916815260200191505b509250505060405180910390f35b6102a06004803603602081101561028a57600080fd5b8101908080359060200190929190505050610ce1565b6040518082815260200191505060405180910390f35b61036f600480360360208110156102cc57600080fd5b81019080803590602001906401000000008111156102e957600080fd5b8201836020820111156102fb57600080fd5b8035906020019184600183028401116401000000008311171561031d57600080fd5b91908080601f016020809104026020016040519081016040528093929190818152602001838380828437600081840152601f19601f820116905080830192505050505050509192919290505050610d79565b604051808215151515815260200191505060405180910390f35b6103b56004803603602081101561039f57600080fd5b8101908080359060200190929190505050610f16565b6040518082815260200191505060405180910390f35b6103f7600480360360208110156103e157600080fd5b8101908080359060200190929190505050610fb1565b6040518080602001828103825283818151815260200191508051906020019080838360005b8381101561043757808201518184015260208101905061041c565b50505050905090810190601f1680156104645780820380516001836020036101000a031916815260200191505b509250505060405180910390f35b6104b46004803603602081101561048857600080fd5b81019080803573ffffffffffffffffffffffffffffffffffffffff1690602001909291905050506110e4565b6040518084815260200183815260200180602001828103825283818151815260200191508051906020019080838360005b838110156105005780820151818401526020810190506104e5565b50505050905090810190601f16801561052d5780820380516001836020036101000a031916815260200191505b5094505050505060405180910390f35b6105696004803603602081101561055357600080fd5b81019080803590602001909291905050506112f7565b604051808473ffffffffffffffffffffffffffffffffffffffff1673ffffffffffffffffffffffffffffffffffffffff16815260200183815260200180602001828103825283818151815260200191508051906020019080838360005b838110156105e15780820151818401526020810190506105c6565b50505050905090810190601f16801561060e5780820380516001836020036101000a031916815260200191505b5094505050505060405180910390f35b6106606004803603602081101561063457600080fd5b81019080803573ffffffffffffffffffffffffffffffffffffffff169060200190929190505050611486565b6040518082815260200191505060405180910390f35b6106a26004803603602081101561068c57600080fd5b8101908080359060200190929190505050611549565b604051808481526020018373ffffffffffffffffffffffffffffffffffffffff1673ffffffffffffffffffffffffffffffffffffffff16815260200180602001828103825283818151815260200191508051906020019080838360005b8381101561071a5780820151818401526020810190506106ff565b50505050905090810190601f1680156107475780820380516001836020036101000a031916815260200191505b5094505050505060405180910390f35b61075f61170d565b6040518082815260200191505060405180910390f35b6107b76004803603602081101561078b57600080fd5b81019080803573ffffffffffffffffffffffffffffffffffffffff16906020019092919050505061171a565b604051808215151515815260200191505060405180910390f35b610813600480360360208110156107e757600080fd5b81019080803573ffffffffffffffffffffffffffffffffffffffff1690602001909291905050506117d2565b6040518082815260200191505060405180910390f35b6108556004803603602081101561083f57600080fd5b81019080803590602001909291905050506118ac565b604051808273ffffffffffffffffffffffffffffffffffffffff1673ffffffffffffffffffffffffffffffffffffffff16815260200191505060405180910390f35b61095a600480360360408110156108ad57600080fd5b8101908080359060200190929190803590602001906401000000008111156108d457600080fd5b8201836020820111156108e657600080fd5b8035906020019184600183028401116401000000008311171561090857600080fd5b91908080601f016020809104026020016040519081016040528093929190818152602001838380828437600081840152601f19601f82011690508083019250505050505050919291929050505061197b565b604051808215151515815260200191505060405180910390f35b6109a06004803603602081101561098a57600080fd5b8101908080359060200190929190505050611cb5565b604051808273ffffffffffffffffffffffffffffffffffffffff1673ffffffffffffffffffffffffffffffffffffffff16815260200191505060405180910390f35b610a0e600480360360208110156109f857600080fd5b8101908080359060200190929190505050611d70565b604051808215151515815260200191505060405180910390f35b6060610a3382611d70565b610aa5576040517f08c379a00000000000000000000000000000000000000000000000000000000081526004018080602001828103825260168152602001807f43616e27742066696e642074686520446f63746f72210000000000000000000081525060200191505060405180910390fd5b6004600160008481526020019081526020016000205481548110610ac557fe5b906000526020600020018054600181600116156101000203166002900480601f016020809104026020016040519081016040528092919081815260200182805460018160011615610100020316600290048015610b635780601f10610b3857610100808354040283529160200191610b63565b820191906000526020600020905b815481529060010190602001808311610b4657829003601f168201915b50505050509050919050565b6060610b7a8261171a565b610bec576040517f08c379a00000000000000000000000000000000000000000000000000000000081526004018080602001828103825260158152602001807f446f63746f7220646f65736e277420657869737421000000000000000000000081525060200191505060405180910390fd5b60046000808473ffffffffffffffffffffffffffffffffffffffff1673ffffffffffffffffffffffffffffffffffffffff1681526020019081526020016000205481548110610c3757fe5b906000526020600020018054600181600116156101000203166002900480601f016020809104026020016040519081016040528092919081815260200182805460018160011615610100020316600290048015610cd55780601f10610caa57610100808354040283529160200191610cd5565b820191906000526020600020905b815481529060010190602001808311610cb857829003601f168201915b50505050509050919050565b6000610cec82611d70565b610d5e576040517f08c379a00000000000000000000000000000000000000000000000000000000081526004018080602001828103825260168152602001807f43616e27742066696e642074686520446f63746f72210000000000000000000081525060200191505060405180910390fd5b60016000838152602001908152602001600020549050919050565b6000610d843361171a565b15610df7576040517f08c379a00000000000000000000000000000000000000000000000000000000081526004018080602001828103825260168152602001807f53656e646572206e6f7420617574686f72697a65642e0000000000000000000081525060200191505060405180910390fd5b600560009054906101000a900473ffffffffffffffffffffffffffffffffffffffff1673ffffffffffffffffffffffffffffffffffffffff166314f51930836040518263ffffffff1660e01b81526004018080602001828103825283818151815260200191508051906020019080838360005b83811015610e85578082015181840152602081019050610e6a565b50505050905090810190601f168015610eb25780820380516001836020036101000a031916815260200191505b5092505050602060405180830381600087803b158015610ed157600080fd5b505af1158015610ee5573d6000803e3d6000fd5b505050506040513d6020811015610efb57600080fd5b81019080805190602001909291905050505060019050919050565b60006002805490508210610f92576040517f08c379a00000000000000000000000000000000000000000000000000000000081526004018080602001828103825260138152602001807f496e646578206f7574206f6620626f756e64210000000000000000000000000081525060200191505060405180910390fd5b60038281548110610f9f57fe5b90600052602060002001549050919050565b6060600280549050821061102d576040517f08c379a00000000000000000000000000000000000000000000000000000000081526004018080602001828103825260138152602001807f496e646578206f7574206f6620626f756e64210000000000000000000000000081525060200191505060405180910390fd5b6004828154811061103a57fe5b906000526020600020018054600181600116156101000203166002900480601f0160208091040260200160405190810160405280929190818152602001828054600181600116156101000203166002900480156110d85780601f106110ad576101008083540402835291602001916110d8565b820191906000526020600020905b8154815290600101906020018083116110bb57829003601f168201915b50505050509050919050565b60008060606110f28461171a565b611164576040517f08c379a00000000000000000000000000000000000000000000000000000000081526004018080602001828103825260158152602001807f446f63746f7220646f65736e277420657869737421000000000000000000000081525060200191505060405180910390fd5b6000808573ffffffffffffffffffffffffffffffffffffffff1673ffffffffffffffffffffffffffffffffffffffff1681526020019081526020016000205460036000808773ffffffffffffffffffffffffffffffffffffffff1673ffffffffffffffffffffffffffffffffffffffff16815260200190815260200160002054815481106111ee57fe5b906000526020600020015460046000808873ffffffffffffffffffffffffffffffffffffffff1673ffffffffffffffffffffffffffffffffffffffff168152602001908152602001600020548154811061124457fe5b90600052602060002001808054600181600116156101000203166002900480601f0160208091040260200160405190810160405280929190818152602001828054600181600116156101000203166002900480156112e35780601f106112b8576101008083540402835291602001916112e3565b820191906000526020600020905b8154815290600101906020018083116112c657829003601f168201915b505050505090509250925092509193909250565b60008060606002805490508410611376576040517f08c379a00000000000000000000000000000000000000000000000000000000081526004018080602001828103825260138152602001807f496e646578206f7574206f6620626f756e64210000000000000000000000000081525060200191505060405180910390fd5b6002848154811061138357fe5b9060005260206000200160009054906101000a900473ffffffffffffffffffffffffffffffffffffffff16600385815481106113bb57fe5b9060005260206000200154600486815481106113d357fe5b90600052602060002001808054600181600116156101000203166002900480601f0160208091040260200160405190810160405280929190818152602001828054600181600116156101000203166002900480156114725780601f1061144757610100808354040283529160200191611472565b820191906000526020600020905b81548152906001019060200180831161145557829003601f168201915b505050505090509250925092509193909250565b60006114918261171a565b611503576040517f08c379a00000000000000000000000000000000000000000000000000000000081526004018080602001828103825260158152602001807f446f63746f7220646f65736e277420657869737421000000000000000000000081525060200191505060405180910390fd5b6000808373ffffffffffffffffffffffffffffffffffffffff1673ffffffffffffffffffffffffffffffffffffffff168152602001908152602001600020549050919050565b60008060606002805490506001600086815260200190815260200160002054106115db576040517f08c379a000000000000000000000000000000000000000000000000000000000815260040180806020018281038252601a8152602001807f446f63746f7220696e646578206f7574206f6620626f756e642100000000000081525060200191505060405180910390fd5b6001600085815260200190815260200160002054600260016000878152602001908152602001600020548154811061160f57fe5b9060005260206000200160009054906101000a900473ffffffffffffffffffffffffffffffffffffffff16600460016000888152602001908152602001600020548154811061165a57fe5b90600052602060002001808054600181600116156101000203166002900480601f0160208091040260200160405190810160405280929190818152602001828054600181600116156101000203166002900480156116f95780601f106116ce576101008083540402835291602001916116f9565b820191906000526020600020905b8154815290600101906020018083116116dc57829003601f168201915b505050505090509250925092509193909250565b6000600280549050905090565b6000806000808473ffffffffffffffffffffffffffffffffffffffff1673ffffffffffffffffffffffffffffffffffffffff1681526020019081526020016000205411806117cb5750600260008154811061177157fe5b9060005260206000200160009054906101000a900473ffffffffffffffffffffffffffffffffffffffff1673ffffffffffffffffffffffffffffffffffffffff168273ffffffffffffffffffffffffffffffffffffffff16145b9050919050565b60006117dd8261171a565b61184f576040517f08c379a00000000000000000000000000000000000000000000000000000000081526004018080602001828103825260158152602001807f446f63746f7220646f65736e277420657869737421000000000000000000000081525060200191505060405180910390fd5b60036000808473ffffffffffffffffffffffffffffffffffffffff1673ffffffffffffffffffffffffffffffffffffffff168152602001908152602001600020548154811061189a57fe5b90600052602060002001549050919050565b60006118b782611d70565b611929576040517f08c379a00000000000000000000000000000000000000000000000000000000081526004018080602001828103825260168152602001807f43616e27742066696e642074686520446f63746f72210000000000000000000081525060200191505060405180910390fd5b600260016000848152602001908152602001600020548154811061194957fe5b9060005260206000200160009054906101000a900473ffffffffffffffffffffffffffffffffffffffff169050919050565b60006119863361171a565b156119f9576040517f08c379a00000000000000000000000000000000000000000000000000000000081526004018080602001828103825260168152602001807f53656e646572206e6f7420617574686f72697a65642e0000000000000000000081525060200191505060405180910390fd5b611a0283611d70565b15611a75576040517f08c379a000000000000000000000000000000000000000000000000000000000815260040180806020018281038252601b8152602001807f446f63746f72206e616d6520686173206265656e2074616b656e2e000000000081525060200191505060405180910390fd5b600560009054906101000a900473ffffffffffffffffffffffffffffffffffffffff1673ffffffffffffffffffffffffffffffffffffffff1663b795f4b484846040518363ffffffff1660e01b81526004018083815260200180602001828103825283818151815260200191508051906020019080838360005b83811015611b0a578082015181840152602081019050611aef565b50505050905090810190601f168015611b375780820380516001836020036101000a031916815260200191505b509350505050600060405180830381600087803b158015611b5757600080fd5b505af1158015611b6b573d6000803e3d6000fd5b5050505060023390806001815401808255809150509060018203906000526020600020016000909192909190916101000a81548173ffffffffffffffffffffffffffffffffffffffff021916908373ffffffffffffffffffffffffffffffffffffffff1602179055505060038390806001815401808255809150509060018203906000526020600020016000909192909190915055506004829080600181540180825580915050906001820390600052602060002001600090919290919091509080519060200190611c3e929190611db9565b50506001600280549050036000803373ffffffffffffffffffffffffffffffffffffffff1673ffffffffffffffffffffffffffffffffffffffff1681526020019081526020016000208190555060016002805490500360016000858152602001908152602001600020819055506001905092915050565b60006002805490508210611d31576040517f08c379a00000000000000000000000000000000000000000000000000000000081526004018080602001828103825260138152602001807f496e646578206f7574206f6620626f756e64210000000000000000000000000081525060200191505060405180910390fd5b60028281548110611d3e57fe5b9060005260206000200160009054906101000a900473ffffffffffffffffffffffffffffffffffffffff169050919050565b60008060016000848152602001908152602001600020541180611db257507f73656c660000000000000000000000000000000000000000000000000000000082145b9050919050565b828054600181600116156101000203166002900490600052602060002090601f016020900481019282601f10611dfa57805160ff1916838001178555611e28565b82800160010185558215611e28579182015b82811115611e27578251825591602001919060010190611e0c565b5b509050611e359190611e39565b5090565b611e5b91905b80821115611e57576000816000905550600101611e3f565b5090565b9056fea265627a7a723158208e324b24327443a29d5680e421de6f576edb5edc42c31d807deb8d05ffa36f8a64736f6c63430005100032608060405234801561001057600080fd5b50336000806101000a81548173ffffffffffffffffffffffffffffffffffffffff021916908373ffffffffffffffffffffffffffffffffffffffff1602179055507f74656d70000000000000000000000000000000000000000000000000000000006001819055506040518060400160405280600381526020017f3078300000000000000000000000000000000000000000000000000000000000815250600290805190602001906100c39291906100c9565b5061016e565b828054600181600116156101000203166002900490600052602060002090601f016020900481019282601f1061010a57805160ff1916838001178555610138565b82800160010185558215610138579182015b8281111561013757825182559160200191906001019061011c565b5b5090506101459190610149565b5090565b61016b91905b8082111561016757600081600090555060010161014f565b5090565b90565b6103318061017d6000396000f3fe608060405234801561001057600080fd5b50600436106100365760003560e01c806314f519301461003b578063b795f4b41461010e575b600080fd5b6100f46004803603602081101561005157600080fd5b810190808035906020019064010000000081111561006e57600080fd5b82018360208201111561008057600080fd5b803590602001918460018302840111640100000000831117156100a257600080fd5b91908080601f016020809104026020016040519081016040528093929190818152602001838380828437600081840152601f19601f8201169050808301925050505050505091929192905050506101d3565b604051808215151515815260200191505060405180910390f35b6101d16004803603604081101561012457600080fd5b81019080803590602001909291908035906020019064010000000081111561014b57600080fd5b82018360208201111561015d57600080fd5b8035906020019184600183028401116401000000008311171561017f57600080fd5b91908080601f016020809104026020016040519081016040528093929190818152602001838380828437600081840152601f19601f8201169050808301925050505050505091929192905050506101f5565b005b600081600290805190602001906101eb929190610257565b5060019050919050565b336000806101000a81548173ffffffffffffffffffffffffffffffffffffffff021916908373ffffffffffffffffffffffffffffffffffffffff160217905550816001819055508060029080519060200190610252929190610257565b505050565b828054600181600116156101000203166002900490600052602060002090601f016020900481019282601f1061029857805160ff19168380011785556102c6565b828001600101855582156102c6579182015b828111156102c55782518255916020019190600101906102aa565b5b5090506102d391906102d7565b5090565b6102f991905b808211156102f55760008160009055506001016102dd565b5090565b9056fea265627a7a723158204de26c4c588e0c2504a7e3f77033f2fdbe33c6d06d621b304e7b3ce38a9e6dd964736f6c63430005100032",
  "source": "pragma solidity >=0.5.16;\nimport \"./Doctor.sol\";\n\ncontract DoctorStorage {\n   mapping(address => uint) private addressToIndex;\n   mapping(bytes32 => uint) private doctornameToIndex;\n   address[] private addresses;\n   bytes32[] private doctorUnames;\n   bytes[] private ipfsHashes;\n   Doctor p = new Doctor();\n\n   constructor() public {\n      addresses.push(msg.sender);\n      doctorUnames.push('x');\n      ipfsHashes.push('not-available');\n   }\n   function registerDoctor(bytes32 DoctorName, bytes memory ipfsHash) public returns(bool) {\n     require(!hasDoctor(msg.sender),\n            \"Sender not authorized.\");\n     require(!DoctorNameTaken(DoctorName),\n            \"Doctor name has been taken.\");\n      p.createDoctor(DoctorName, ipfsHash);\n      addresses.push(msg.sender);\n      doctorUnames.push(DoctorName);\n      ipfsHashes.push(ipfsHash);\n      addressToIndex[msg.sender] = addresses.length - 1;\n      doctornameToIndex[DoctorName] = addresses.length - 1;\n      return true;\n   }\n\n   function hasDoctor(address _DoctorAdresses) public view returns(bool) {\n      return (addressToIndex[_DoctorAdresses] > 0 || _DoctorAdresses == addresses[0]);\n   }\n\n   function DoctorNameTaken(bytes32 pname) public view returns(bool takenIndeed) {\n      return (doctornameToIndex[pname] > 0 || pname == 'self');\n   }\n\n   function updateDoctor(bytes memory ipfsHash) public returns(bool){\n      require(!hasDoctor(msg.sender),\n            \"Sender not authorized.\");\n      p.updateDoctor(ipfsHash);\n      return true;\n   }\n\n   function getDoctorCount() public view returns(uint){\n      return addresses.length;\n   }\n\n   function getDoctorByIndex(uint index) public view returns(address,bytes32,bytes memory){\n      require((index < addresses.length),\n            \"Index out of bound!\");\n      return(addresses[index], doctorUnames[index], ipfsHashes[index]);\n   }\n\n   function getDoctorAddressByIndex(uint index) public view returns(address){\n      require((index < addresses.length),\n            \"Index out of bound!\");\n      return addresses[index];\n   }\n\n   function getDoctorNameByIndex(uint index) public view returns(bytes32){\n      require((index < addresses.length),\n            \"Index out of bound!\");\n      return doctorUnames[index];\n   }\n\n   function getDoctorIpfsHashByIndex(uint index) public view returns(bytes memory){\n      require((index < addresses.length),\n            \"Index out of bound!\");\n      return ipfsHashes[index];\n   }\n\n   function getDoctorByAddress(address DoctorAddress) public view returns(uint, bytes32, bytes memory){\n      require(hasDoctor(DoctorAddress),\n            \"Doctor doesn't exist!\");\n      return(addressToIndex[DoctorAddress], doctorUnames[addressToIndex[DoctorAddress]], ipfsHashes[addressToIndex[DoctorAddress]]);\n   }\n\n   function getDoctorIndexByAddress(address DoctorAddress) public view returns(uint){\n      require(hasDoctor(DoctorAddress),\n            \"Doctor doesn't exist!\");\n      return addressToIndex[DoctorAddress];\n   }\n\n   function getDoctorNameByAddress(address DoctorAddress) public view returns(bytes32){\n      require(hasDoctor(DoctorAddress),\n            \"Doctor doesn't exist!\");\n      return doctorUnames[addressToIndex[DoctorAddress]];\n   }\n\n   function getDoctorIpfsHashByAddress(address DoctorAddress) public view returns(bytes memory){\n      require(hasDoctor(DoctorAddress),\n            \"Doctor doesn't exist!\");\n      return ipfsHashes[addressToIndex[DoctorAddress]];\n   }\n\n   function getDoctorByDoctorName(bytes32 Doctorname) public view returns(uint,address,bytes memory){\n      require((doctornameToIndex[Doctorname] < addresses.length),\n            \"Doctor index out of bound!\");\n      return(doctornameToIndex[Doctorname], addresses[doctornameToIndex[Doctorname]], ipfsHashes[doctornameToIndex[Doctorname]]);\n   }\n\n   function getDoctorIndexByDoctorName(bytes32 Doctorname) public view returns(uint){\n      require((DoctorNameTaken(Doctorname)),\n            \"Can't find the Doctor!\");\n      return doctornameToIndex[Doctorname];\n   }\n\n   function getDoctorAddressByDoctorName(bytes32 Doctorname) public view returns(address){\n      require((DoctorNameTaken(Doctorname)),\n        \"Can't find the Doctor!\");\n      return addresses[doctornameToIndex[Doctorname]];\n   }\n\n   function getDoctorIpfsHashByDoctorName(bytes32 Doctorname) public view returns(bytes memory){\n      require((DoctorNameTaken(Doctorname)),\n            \"Can't find the Doctor!\");\n      return ipfsHashes[doctornameToIndex[Doctorname]];\n   }\n}",
  "sourcePath": "/home/eke/Desktop/patient-eth-master/contracts/DoctorStorage.sol",
  "compiler": {
    "name": "solc",
    "version": "0.5.16+commit.9c3226ce.Emscripten.clang"
  },
  "schemaVersion": "3.1.0",
  "updatedAt": "2020-04-24T13:45:46.434Z",
  "networkType": "ethereum",
  "devdoc": {
    "methods": {}
  },
  "userdoc": {
    "methods": {}
  }
}