{
  "contractName": "DoctorStorage",
  "abi": [
    {
      "inputs": [],
      "payable": false,
      "stateMutability": "nonpayable",
      "type": "constructor"
    },
    {
      "constant": false,
      "inputs": [
        {
          "internalType": "bytes32",
          "name": "DoctorName",
          "type": "bytes32"
        },
        {
          "internalType": "bytes",
          "name": "ipfsHash",
          "type": "bytes"
        }
      ],
      "name": "registerDoctor",
      "outputs": [
        {
          "internalType": "bool",
          "name": "",
          "type": "bool"
        }
      ],
      "payable": false,
      "stateMutability": "nonpayable",
      "type": "function"
    },
    {
      "constant": true,
      "inputs": [
        {
          "internalType": "address",
          "name": "_DoctorAdresses",
          "type": "address"
        }
      ],
      "name": "hasDoctor",
      "outputs": [
        {
          "internalType": "bool",
          "name": "",
          "type": "bool"
        }
      ],
      "payable": false,
      "stateMutability": "view",
      "type": "function"
    },
    {
      "constant": true,
      "inputs": [
        {
          "internalType": "bytes32",
          "name": "pname",
          "type": "bytes32"
        }
      ],
      "name": "DoctorNameTaken",
      "outputs": [
        {
          "internalType": "bool",
          "name": "takenIndeed",
          "type": "bool"
        }
      ],
      "payable": false,
      "stateMutability": "view",
      "type": "function"
    },
    {
      "constant": false,
      "inputs": [
        {
          "internalType": "bytes",
          "name": "ipfsHash",
          "type": "bytes"
        }
      ],
      "name": "updateDoctor",
      "outputs": [
        {
          "internalType": "bool",
          "name": "",
          "type": "bool"
        }
      ],
      "payable": false,
      "stateMutability": "nonpayable",
      "type": "function"
    },
    {
      "constant": true,
      "inputs": [],
      "name": "getDoctorCount",
      "outputs": [
        {
          "internalType": "uint256",
          "name": "",
          "type": "uint256"
        }
      ],
      "payable": false,
      "stateMutability": "view",
      "type": "function"
    },
    {
      "constant": true,
      "inputs": [
        {
          "internalType": "uint256",
          "name": "index",
          "type": "uint256"
        }
      ],
      "name": "getDoctorByIndex",
      "outputs": [
        {
          "internalType": "address",
          "name": "",
          "type": "address"
        },
        {
          "internalType": "bytes32",
          "name": "",
          "type": "bytes32"
        },
        {
          "internalType": "bytes",
          "name": "",
          "type": "bytes"
        }
      ],
      "payable": false,
      "stateMutability": "view",
      "type": "function"
    },
    {
      "constant": true,
      "inputs": [
        {
          "internalType": "uint256",
          "name": "index",
          "type": "uint256"
        }
      ],
      "name": "getDoctorAddressByIndex",
      "outputs": [
        {
          "internalType": "address",
          "name": "",
          "type": "address"
        }
      ],
      "payable": false,
      "stateMutability": "view",
      "type": "function"
    },
    {
      "constant": true,
      "inputs": [
        {
          "internalType": "uint256",
          "name": "index",
          "type": "uint256"
        }
      ],
      "name": "getDoctorNameByIndex",
      "outputs": [
        {
          "internalType": "bytes32",
          "name": "",
          "type": "bytes32"
        }
      ],
      "payable": false,
      "stateMutability": "view",
      "type": "function"
    },
    {
      "constant": true,
      "inputs": [
        {
          "internalType": "uint256",
          "name": "index",
          "type": "uint256"
        }
      ],
      "name": "getDoctorIpfsHashByIndex",
      "outputs": [
        {
          "internalType": "bytes",
          "name": "",
          "type": "bytes"
        }
      ],
      "payable": false,
      "stateMutability": "view",
      "type": "function"
    },
    {
      "constant": true,
      "inputs": [
        {
          "internalType": "address",
          "name": "DoctorAddress",
          "type": "address"
        }
      ],
      "name": "getDoctorByAddress",
      "outputs": [
        {
          "internalType": "uint256",
          "name": "",
          "type": "uint256"
        },
        {
          "internalType": "bytes32",
          "name": "",
          "type": "bytes32"
        },
        {
          "internalType": "bytes",
          "name": "",
          "type": "bytes"
        }
      ],
      "payable": false,
      "stateMutability": "view",
      "type": "function"
    },
    {
      "constant": true,
      "inputs": [
        {
          "internalType": "address",
          "name": "DoctorAddress",
          "type": "address"
        }
      ],
      "name": "getDoctorIndexByAddress",
      "outputs": [
        {
          "internalType": "uint256",
          "name": "",
          "type": "uint256"
        }
      ],
      "payable": false,
      "stateMutability": "view",
      "type": "function"
    },
    {
      "constant": true,
      "inputs": [
        {
          "internalType": "address",
          "name": "DoctorAddress",
          "type": "address"
        }
      ],
      "name": "getDoctorNameByAddress",
      "outputs": [
        {
          "internalType": "bytes32",
          "name": "",
          "type": "bytes32"
        }
      ],
      "payable": false,
      "stateMutability": "view",
      "type": "function"
    },
    {
      "constant": true,
      "inputs": [
        {
          "internalType": "address",
          "name": "DoctorAddress",
          "type": "address"
        }
      ],
      "name": "getDoctorIpfsHashByAddress",
      "outputs": [
        {
          "internalType": "bytes",
          "name": "",
          "type": "bytes"
        }
      ],
      "payable": false,
      "stateMutability": "view",
      "type": "function"
    },
    {
      "constant": true,
      "inputs": [
        {
          "internalType": "bytes32",
          "name": "Doctorname",
          "type": "bytes32"
        }
      ],
      "name": "getDoctorByDoctorName",
      "outputs": [
        {
          "internalType": "uint256",
          "name": "",
          "type": "uint256"
        },
        {
          "internalType": "address",
          "name": "",
          "type": "address"
        },
        {
          "internalType": "bytes",
          "name": "",
          "type": "bytes"
        }
      ],
      "payable": false,
      "stateMutability": "view",
      "type": "function"
    },
    {
      "constant": true,
      "inputs": [
        {
          "internalType": "bytes32",
          "name": "Doctorname",
          "type": "bytes32"
        }
      ],
      "name": "getDoctorIndexByDoctorName",
      "outputs": [
        {
          "internalType": "uint256",
          "name": "",
          "type": "uint256"
        }
      ],
      "payable": false,
      "stateMutability": "view",
      "type": "function"
    },
    {
      "constant": true,
      "inputs": [
        {
          "internalType": "bytes32",
          "name": "Doctorname",
          "type": "bytes32"
        }
      ],
      "name": "getDoctorAddressByDoctorName",
      "outputs": [
        {
          "internalType": "address",
          "name": "",
          "type": "address"
        }
      ],
      "payable": false,
      "stateMutability": "view",
      "type": "function"
    },
    {
      "constant": true,
      "inputs": [
        {
          "internalType": "bytes32",
          "name": "Doctorname",
          "type": "bytes32"
        }
      ],
      "name": "getDoctorIpfsHashByDoctorName",
      "outputs": [
        {
          "internalType": "bytes",
          "name": "",
          "type": "bytes"
        }
      ],
      "payable": false,
      "stateMutability": "view",
      "type": "function"
    }
  ],
  "bytecode": "0x60806040523480156200001157600080fd5b5060023390806001815401808255809150509060018203906000526020600020016000909192909190916101000a81548173ffffffffffffffffffffffffffffffffffffffff021916908373ffffffffffffffffffffffffffffffffffffffff1602179055505060038060018154018082558091505090600182039060005260206000200160007f78000000000000000000000000000000000000000000000000000000000000009091909150555060048060018154018082558091505090600182039060005260206000200160006040518060400160405280600d81526020017f6e6f742d617661696c61626c6500000000000000000000000000000000000000815250909190915090805190602001906200013092919062000138565b5050620001e7565b828054600181600116156101000203166002900490600052602060002090601f016020900481019282601f106200017b57805160ff1916838001178555620001ac565b82800160010185558215620001ac579182015b82811115620001ab5782518255916020019190600101906200018e565b5b509050620001bb9190620001bf565b5090565b620001e491905b80821115620001e0576000816000905550600101620001c6565b5090565b90565b611ced80620001f76000396000f3fe608060405234801561001057600080fd5b506004361061010b5760003560e01c80635bab5482116100a25780638f1787c2116100715780638f1787c2146107d1578063ad37c2dc14610829578063e1153e6f14610897578063e85a340a14610974578063fca200df146109e25761010b565b80635bab54821461061e578063715b5f6d1461067657806379111c1c1461075757806386c5efe9146107755761010b565b80631d37878f116100de5780631d37878f146103895780634b3a6029146103cb57806358c5d4bf146104725780635a357c191461053d5761010b565b806304aa42101461011057806313684d43146101b7578063140de8f21461027457806314f51930146102b6575b600080fd5b61013c6004803603602081101561012657600080fd5b8101908080359060200190929190505050610a28565b6040518080602001828103825283818151815260200191508051906020019080838360005b8381101561017c578082015181840152602081019050610161565b50505050905090810190601f1680156101a95780820380516001836020036101000a031916815260200191505b509250505060405180910390f35b6101f9600480360360208110156101cd57600080fd5b81019080803573ffffffffffffffffffffffffffffffffffffffff169060200190929190505050610b6f565b6040518080602001828103825283818151815260200191508051906020019080838360005b8381101561023957808201518184015260208101905061021e565b50505050905090810190601f1680156102665780820380516001836020036101000a031916815260200191505b509250505060405180910390f35b6102a06004803603602081101561028a57600080fd5b8101908080359060200190929190505050610ce1565b6040518082815260200191505060405180910390f35b61036f600480360360208110156102cc57600080fd5b81019080803590602001906401000000008111156102e957600080fd5b8201836020820111156102fb57600080fd5b8035906020019184600183028401116401000000008311171561031d57600080fd5b91908080601f016020809104026020016040519081016040528093929190818152602001838380828437600081840152601f19601f820116905080830192505050505050509192919290505050610d79565b604051808215151515815260200191505060405180910390f35b6103b56004803603602081101561039f57600080fd5b8101908080359060200190929190505050610e6a565b6040518082815260200191505060405180910390f35b6103f7600480360360208110156103e157600080fd5b8101908080359060200190929190505050610f05565b6040518080602001828103825283818151815260200191508051906020019080838360005b8381101561043757808201518184015260208101905061041c565b50505050905090810190601f1680156104645780820380516001836020036101000a031916815260200191505b509250505060405180910390f35b6104b46004803603602081101561048857600080fd5b81019080803573ffffffffffffffffffffffffffffffffffffffff169060200190929190505050611038565b6040518084815260200183815260200180602001828103825283818151815260200191508051906020019080838360005b838110156105005780820151818401526020810190506104e5565b50505050905090810190601f16801561052d5780820380516001836020036101000a031916815260200191505b5094505050505060405180910390f35b6105696004803603602081101561055357600080fd5b810190808035906020019092919050505061124b565b604051808473ffffffffffffffffffffffffffffffffffffffff1673ffffffffffffffffffffffffffffffffffffffff16815260200183815260200180602001828103825283818151815260200191508051906020019080838360005b838110156105e15780820151818401526020810190506105c6565b50505050905090810190601f16801561060e5780820380516001836020036101000a031916815260200191505b5094505050505060405180910390f35b6106606004803603602081101561063457600080fd5b81019080803573ffffffffffffffffffffffffffffffffffffffff1690602001909291905050506113da565b6040518082815260200191505060405180910390f35b6106a26004803603602081101561068c57600080fd5b810190808035906020019092919050505061149d565b604051808481526020018373ffffffffffffffffffffffffffffffffffffffff1673ffffffffffffffffffffffffffffffffffffffff16815260200180602001828103825283818151815260200191508051906020019080838360005b8381101561071a5780820151818401526020810190506106ff565b50505050905090810190601f1680156107475780820380516001836020036101000a031916815260200191505b5094505050505060405180910390f35b61075f611661565b6040518082815260200191505060405180910390f35b6107b76004803603602081101561078b57600080fd5b81019080803573ffffffffffffffffffffffffffffffffffffffff16906020019092919050505061166e565b604051808215151515815260200191505060405180910390f35b610813600480360360208110156107e757600080fd5b81019080803573ffffffffffffffffffffffffffffffffffffffff169060200190929190505050611726565b6040518082815260200191505060405180910390f35b6108556004803603602081101561083f57600080fd5b8101908080359060200190929190505050611800565b604051808273ffffffffffffffffffffffffffffffffffffffff1673ffffffffffffffffffffffffffffffffffffffff16815260200191505060405180910390f35b61095a600480360360408110156108ad57600080fd5b8101908080359060200190929190803590602001906401000000008111156108d457600080fd5b8201836020820111156108e657600080fd5b8035906020019184600183028401116401000000008311171561090857600080fd5b91908080601f016020809104026020016040519081016040528093929190818152602001838380828437600081840152601f19601f8201169050808301925050505050505091929192905050506118cf565b604051808215151515815260200191505060405180910390f35b6109a06004803603602081101561098a57600080fd5b8101908080359060200190929190505050611b0f565b604051808273ffffffffffffffffffffffffffffffffffffffff1673ffffffffffffffffffffffffffffffffffffffff16815260200191505060405180910390f35b610a0e600480360360208110156109f857600080fd5b8101908080359060200190929190505050611bca565b604051808215151515815260200191505060405180910390f35b6060610a3382611bca565b610aa5576040517f08c379a00000000000000000000000000000000000000000000000000000000081526004018080602001828103825260168152602001807f43616e27742066696e642074686520446f63746f72210000000000000000000081525060200191505060405180910390fd5b6004600160008481526020019081526020016000205481548110610ac557fe5b906000526020600020018054600181600116156101000203166002900480601f016020809104026020016040519081016040528092919081815260200182805460018160011615610100020316600290048015610b635780601f10610b3857610100808354040283529160200191610b63565b820191906000526020600020905b815481529060010190602001808311610b4657829003601f168201915b50505050509050919050565b6060610b7a8261166e565b610bec576040517f08c379a00000000000000000000000000000000000000000000000000000000081526004018080602001828103825260158152602001807f446f63746f7220646f65736e277420657869737421000000000000000000000081525060200191505060405180910390fd5b60046000808473ffffffffffffffffffffffffffffffffffffffff1673ffffffffffffffffffffffffffffffffffffffff1681526020019081526020016000205481548110610c3757fe5b906000526020600020018054600181600116156101000203166002900480601f016020809104026020016040519081016040528092919081815260200182805460018160011615610100020316600290048015610cd55780601f10610caa57610100808354040283529160200191610cd5565b820191906000526020600020905b815481529060010190602001808311610cb857829003601f168201915b50505050509050919050565b6000610cec82611bca565b610d5e576040517f08c379a00000000000000000000000000000000000000000000000000000000081526004018080602001828103825260168152602001807f43616e27742066696e642074686520446f63746f72210000000000000000000081525060200191505060405180910390fd5b60016000838152602001908152602001600020549050919050565b6000610d843361166e565b15610df7576040517f08c379a00000000000000000000000000000000000000000000000000000000081526004018080602001828103825260168152602001807f53656e646572206e6f7420617574686f72697a65642e0000000000000000000081525060200191505060405180910390fd5b8160046000803373ffffffffffffffffffffffffffffffffffffffff1673ffffffffffffffffffffffffffffffffffffffff1681526020019081526020016000205481548110610e4357fe5b906000526020600020019080519060200190610e60929190611c13565b5060019050919050565b60006002805490508210610ee6576040517f08c379a00000000000000000000000000000000000000000000000000000000081526004018080602001828103825260138152602001807f496e646578206f7574206f6620626f756e64210000000000000000000000000081525060200191505060405180910390fd5b60038281548110610ef357fe5b90600052602060002001549050919050565b60606002805490508210610f81576040517f08c379a00000000000000000000000000000000000000000000000000000000081526004018080602001828103825260138152602001807f496e646578206f7574206f6620626f756e64210000000000000000000000000081525060200191505060405180910390fd5b60048281548110610f8e57fe5b906000526020600020018054600181600116156101000203166002900480601f01602080910402602001604051908101604052809291908181526020018280546001816001161561010002031660029004801561102c5780601f106110015761010080835404028352916020019161102c565b820191906000526020600020905b81548152906001019060200180831161100f57829003601f168201915b50505050509050919050565b60008060606110468461166e565b6110b8576040517f08c379a00000000000000000000000000000000000000000000000000000000081526004018080602001828103825260158152602001807f446f63746f7220646f65736e277420657869737421000000000000000000000081525060200191505060405180910390fd5b6000808573ffffffffffffffffffffffffffffffffffffffff1673ffffffffffffffffffffffffffffffffffffffff1681526020019081526020016000205460036000808773ffffffffffffffffffffffffffffffffffffffff1673ffffffffffffffffffffffffffffffffffffffff168152602001908152602001600020548154811061114257fe5b906000526020600020015460046000808873ffffffffffffffffffffffffffffffffffffffff1673ffffffffffffffffffffffffffffffffffffffff168152602001908152602001600020548154811061119857fe5b90600052602060002001808054600181600116156101000203166002900480601f0160208091040260200160405190810160405280929190818152602001828054600181600116156101000203166002900480156112375780601f1061120c57610100808354040283529160200191611237565b820191906000526020600020905b81548152906001019060200180831161121a57829003601f168201915b505050505090509250925092509193909250565b600080606060028054905084106112ca576040517f08c379a00000000000000000000000000000000000000000000000000000000081526004018080602001828103825260138152602001807f496e646578206f7574206f6620626f756e64210000000000000000000000000081525060200191505060405180910390fd5b600284815481106112d757fe5b9060005260206000200160009054906101000a900473ffffffffffffffffffffffffffffffffffffffff166003858154811061130f57fe5b90600052602060002001546004868154811061132757fe5b90600052602060002001808054600181600116156101000203166002900480601f0160208091040260200160405190810160405280929190818152602001828054600181600116156101000203166002900480156113c65780601f1061139b576101008083540402835291602001916113c6565b820191906000526020600020905b8154815290600101906020018083116113a957829003601f168201915b505050505090509250925092509193909250565b60006113e58261166e565b611457576040517f08c379a00000000000000000000000000000000000000000000000000000000081526004018080602001828103825260158152602001807f446f63746f7220646f65736e277420657869737421000000000000000000000081525060200191505060405180910390fd5b6000808373ffffffffffffffffffffffffffffffffffffffff1673ffffffffffffffffffffffffffffffffffffffff168152602001908152602001600020549050919050565b600080606060028054905060016000868152602001908152602001600020541061152f576040517f08c379a000000000000000000000000000000000000000000000000000000000815260040180806020018281038252601a8152602001807f446f63746f7220696e646578206f7574206f6620626f756e642100000000000081525060200191505060405180910390fd5b6001600085815260200190815260200160002054600260016000878152602001908152602001600020548154811061156357fe5b9060005260206000200160009054906101000a900473ffffffffffffffffffffffffffffffffffffffff1660046001600088815260200190815260200160002054815481106115ae57fe5b90600052602060002001808054600181600116156101000203166002900480601f01602080910402602001604051908101604052809291908181526020018280546001816001161561010002031660029004801561164d5780601f106116225761010080835404028352916020019161164d565b820191906000526020600020905b81548152906001019060200180831161163057829003601f168201915b505050505090509250925092509193909250565b6000600280549050905090565b6000806000808473ffffffffffffffffffffffffffffffffffffffff1673ffffffffffffffffffffffffffffffffffffffff16815260200190815260200160002054118061171f575060026000815481106116c557fe5b9060005260206000200160009054906101000a900473ffffffffffffffffffffffffffffffffffffffff1673ffffffffffffffffffffffffffffffffffffffff168273ffffffffffffffffffffffffffffffffffffffff16145b9050919050565b60006117318261166e565b6117a3576040517f08c379a00000000000000000000000000000000000000000000000000000000081526004018080602001828103825260158152602001807f446f63746f7220646f65736e277420657869737421000000000000000000000081525060200191505060405180910390fd5b60036000808473ffffffffffffffffffffffffffffffffffffffff1673ffffffffffffffffffffffffffffffffffffffff16815260200190815260200160002054815481106117ee57fe5b90600052602060002001549050919050565b600061180b82611bca565b61187d576040517f08c379a00000000000000000000000000000000000000000000000000000000081526004018080602001828103825260168152602001807f43616e27742066696e642074686520446f63746f72210000000000000000000081525060200191505060405180910390fd5b600260016000848152602001908152602001600020548154811061189d57fe5b9060005260206000200160009054906101000a900473ffffffffffffffffffffffffffffffffffffffff169050919050565b60006118da3361166e565b1561194d576040517f08c379a00000000000000000000000000000000000000000000000000000000081526004018080602001828103825260168152602001807f53656e646572206e6f7420617574686f72697a65642e0000000000000000000081525060200191505060405180910390fd5b61195683611bca565b156119c9576040517f08c379a000000000000000000000000000000000000000000000000000000000815260040180806020018281038252601b8152602001807f446f63746f72206e616d6520686173206265656e2074616b656e2e000000000081525060200191505060405180910390fd5b60023390806001815401808255809150509060018203906000526020600020016000909192909190916101000a81548173ffffffffffffffffffffffffffffffffffffffff021916908373ffffffffffffffffffffffffffffffffffffffff1602179055505060038390806001815401808255809150509060018203906000526020600020016000909192909190915055506004829080600181540180825580915050906001820390600052602060002001600090919290919091509080519060200190611a98929190611c13565b50506001600280549050036000803373ffffffffffffffffffffffffffffffffffffffff1673ffffffffffffffffffffffffffffffffffffffff1681526020019081526020016000208190555060016002805490500360016000858152602001908152602001600020819055506001905092915050565b60006002805490508210611b8b576040517f08c379a00000000000000000000000000000000000000000000000000000000081526004018080602001828103825260138152602001807f496e646578206f7574206f6620626f756e64210000000000000000000000000081525060200191505060405180910390fd5b60028281548110611b9857fe5b9060005260206000200160009054906101000a900473ffffffffffffffffffffffffffffffffffffffff169050919050565b60008060016000848152602001908152602001600020541180611c0c57507f73656c660000000000000000000000000000000000000000000000000000000082145b9050919050565b828054600181600116156101000203166002900490600052602060002090601f016020900481019282601f10611c5457805160ff1916838001178555611c82565b82800160010185558215611c82579182015b82811115611c81578251825591602001919060010190611c66565b5b509050611c8f9190611c93565b5090565b611cb591905b80821115611cb1576000816000905550600101611c99565b5090565b9056fea265627a7a723158201d7f2c9eed1dfe1c447ad8b571086fd1fa96a79d59001e59a0d0424fcf14317664736f6c63430005100032",
  "source": "pragma solidity >=0.5.16;\n\ncontract DoctorStorage {\n   mapping(address => uint) private addressToIndex;\n   mapping(bytes32 => uint) private doctornameToIndex;\n   address[] private addresses;\n   bytes32[] private doctorUnames;\n   bytes[] private ipfsHashes;\n\n   constructor() public {\n      addresses.push(msg.sender);\n      doctorUnames.push('x');\n      ipfsHashes.push('not-available');\n   }\n   function registerDoctor(bytes32 DoctorName, bytes memory ipfsHash) public returns(bool) {\n     require(!hasDoctor(msg.sender),\n            \"Sender not authorized.\");\n     require(!DoctorNameTaken(DoctorName),\n            \"Doctor name has been taken.\");\n      addresses.push(msg.sender);\n      doctorUnames.push(DoctorName);\n      ipfsHashes.push(ipfsHash);\n      addressToIndex[msg.sender] = addresses.length - 1;\n      doctornameToIndex[DoctorName] = addresses.length - 1;\n      return true;\n   }\n\n   function hasDoctor(address _DoctorAdresses) public view returns(bool) {\n      return (addressToIndex[_DoctorAdresses] > 0 || _DoctorAdresses == addresses[0]);\n   }\n\n   function DoctorNameTaken(bytes32 pname) public view returns(bool takenIndeed) {\n      return (doctornameToIndex[pname] > 0 || pname == 'self');\n   }\n\n   function updateDoctor(bytes memory ipfsHash) public returns(bool){\n      require(!hasDoctor(msg.sender),\n            \"Sender not authorized.\");\n      ipfsHashes[addressToIndex[msg.sender]] = ipfsHash;\n      return true;\n   }\n\n   function getDoctorCount() public view returns(uint){\n      return addresses.length;\n   }\n\n   function getDoctorByIndex(uint index) public view returns(address,bytes32,bytes memory){\n      require((index < addresses.length),\n            \"Index out of bound!\");\n      return(addresses[index], doctorUnames[index], ipfsHashes[index]);\n   }\n\n   function getDoctorAddressByIndex(uint index) public view returns(address){\n      require((index < addresses.length),\n            \"Index out of bound!\");\n      return addresses[index];\n   }\n\n   function getDoctorNameByIndex(uint index) public view returns(bytes32){\n      require((index < addresses.length),\n            \"Index out of bound!\");\n      return doctorUnames[index];\n   }\n\n   function getDoctorIpfsHashByIndex(uint index) public view returns(bytes memory){\n      require((index < addresses.length),\n            \"Index out of bound!\");\n      return ipfsHashes[index];\n   }\n\n   function getDoctorByAddress(address DoctorAddress) public view returns(uint, bytes32, bytes memory){\n      require(hasDoctor(DoctorAddress),\n            \"Doctor doesn't exist!\");\n      return(addressToIndex[DoctorAddress], doctorUnames[addressToIndex[DoctorAddress]], ipfsHashes[addressToIndex[DoctorAddress]]);\n   }\n\n   function getDoctorIndexByAddress(address DoctorAddress) public view returns(uint){\n      require(hasDoctor(DoctorAddress),\n            \"Doctor doesn't exist!\");\n      return addressToIndex[DoctorAddress];\n   }\n\n   function getDoctorNameByAddress(address DoctorAddress) public view returns(bytes32){\n      require(hasDoctor(DoctorAddress),\n            \"Doctor doesn't exist!\");\n      return doctorUnames[addressToIndex[DoctorAddress]];\n   }\n\n   function getDoctorIpfsHashByAddress(address DoctorAddress) public view returns(bytes memory){\n      require(hasDoctor(DoctorAddress),\n            \"Doctor doesn't exist!\");\n      return ipfsHashes[addressToIndex[DoctorAddress]];\n   }\n\n   function getDoctorByDoctorName(bytes32 Doctorname) public view returns(uint,address,bytes memory){\n      require((doctornameToIndex[Doctorname] < addresses.length),\n            \"Doctor index out of bound!\");\n      return(doctornameToIndex[Doctorname], addresses[doctornameToIndex[Doctorname]], ipfsHashes[doctornameToIndex[Doctorname]]);\n   }\n\n   function getDoctorIndexByDoctorName(bytes32 Doctorname) public view returns(uint){\n      require((DoctorNameTaken(Doctorname)),\n            \"Can't find the Doctor!\");\n      return doctornameToIndex[Doctorname];\n   }\n\n   function getDoctorAddressByDoctorName(bytes32 Doctorname) public view returns(address){\n      require((DoctorNameTaken(Doctorname)),\n        \"Can't find the Doctor!\");\n      return addresses[doctornameToIndex[Doctorname]];\n   }\n\n   function getDoctorIpfsHashByDoctorName(bytes32 Doctorname) public view returns(bytes memory){\n      require((DoctorNameTaken(Doctorname)),\n            \"Can't find the Doctor!\");\n      return ipfsHashes[doctornameToIndex[Doctorname]];\n   }\n}",
  "sourcePath": "/home/eke/patient-eth/contracts/DoctorStorage.sol",
  "compiler": {
    "name": "solc",
    "version": "0.5.16+commit.9c3226ce.Emscripten.clang"
  },
  "schemaVersion": "3.1.0",
  "updatedAt": "2020-05-01T15:06:33.904Z",
  "networkType": "ethereum",
  "devdoc": {
    "methods": {}
  },
  "userdoc": {
    "methods": {}
  }
}