{
  "contractName": "Doctor",
  "abi": [
    {
      "inputs": [],
      "payable": false,
      "stateMutability": "nonpayable",
      "type": "constructor"
    },
    {
      "constant": false,
      "inputs": [
        {
          "internalType": "bytes32",
          "name": "_doctoruname",
          "type": "bytes32"
        },
        {
          "internalType": "bytes",
          "name": "_IpfsHash",
          "type": "bytes"
        }
      ],
      "name": "createDoctor",
      "outputs": [],
      "payable": false,
      "stateMutability": "nonpayable",
      "type": "function"
    },
    {
      "constant": false,
      "inputs": [
        {
          "internalType": "bytes",
          "name": "ipfsHash",
          "type": "bytes"
        }
      ],
      "name": "updateDoctor",
      "outputs": [
        {
          "internalType": "bool",
          "name": "",
          "type": "bool"
        }
      ],
      "payable": false,
      "stateMutability": "nonpayable",
      "type": "function"
    }
  ],
  "bytecode": "0x608060405234801561001057600080fd5b50336000806101000a81548173ffffffffffffffffffffffffffffffffffffffff021916908373ffffffffffffffffffffffffffffffffffffffff1602179055507f74656d70000000000000000000000000000000000000000000000000000000006001819055506040518060400160405280600381526020017f3078300000000000000000000000000000000000000000000000000000000000815250600290805190602001906100c39291906100c9565b5061016e565b828054600181600116156101000203166002900490600052602060002090601f016020900481019282601f1061010a57805160ff1916838001178555610138565b82800160010185558215610138579182015b8281111561013757825182559160200191906001019061011c565b5b5090506101459190610149565b5090565b61016b91905b8082111561016757600081600090555060010161014f565b5090565b90565b6103318061017d6000396000f3fe608060405234801561001057600080fd5b50600436106100365760003560e01c806314f519301461003b578063b795f4b41461010e575b600080fd5b6100f46004803603602081101561005157600080fd5b810190808035906020019064010000000081111561006e57600080fd5b82018360208201111561008057600080fd5b803590602001918460018302840111640100000000831117156100a257600080fd5b91908080601f016020809104026020016040519081016040528093929190818152602001838380828437600081840152601f19601f8201169050808301925050505050505091929192905050506101d3565b604051808215151515815260200191505060405180910390f35b6101d16004803603604081101561012457600080fd5b81019080803590602001909291908035906020019064010000000081111561014b57600080fd5b82018360208201111561015d57600080fd5b8035906020019184600183028401116401000000008311171561017f57600080fd5b91908080601f016020809104026020016040519081016040528093929190818152602001838380828437600081840152601f19601f8201169050808301925050505050505091929192905050506101f5565b005b600081600290805190602001906101eb929190610257565b5060019050919050565b336000806101000a81548173ffffffffffffffffffffffffffffffffffffffff021916908373ffffffffffffffffffffffffffffffffffffffff160217905550816001819055508060029080519060200190610252929190610257565b505050565b828054600181600116156101000203166002900490600052602060002090601f016020900481019282601f1061029857805160ff19168380011785556102c6565b828001600101855582156102c6579182015b828111156102c55782518255916020019190600101906102aa565b5b5090506102d391906102d7565b5090565b6102f991905b808211156102f55760008160009055506001016102dd565b5090565b9056fea265627a7a723158204de26c4c588e0c2504a7e3f77033f2fdbe33c6d06d621b304e7b3ce38a9e6dd964736f6c63430005100032",
  "source": "pragma solidity >=0.5.16;\n\ncontract Doctor{\n    address private addr;\n    bytes32 private doctoruname;\n    bytes private IpfsHash;\n\n    constructor() public{\n        addr = msg.sender;\n        doctoruname = 'temp';\n        IpfsHash = '0x0';\n    }\n\n    function createDoctor(bytes32 _doctoruname,bytes memory _IpfsHash) public{\n        addr = msg.sender;\n        doctoruname = _doctoruname;\n        IpfsHash = _IpfsHash;\n    }\n\n    function updateDoctor(bytes memory ipfsHash) public returns(bool){\n        IpfsHash = ipfsHash;\n        return true;\n    }\n\n\n}",
  "sourcePath": "/home/eke/Desktop/patient-eth-master/contracts/Doctor.sol",
  "compiler": {
    "name": "solc",
    "version": "0.5.16+commit.9c3226ce.Emscripten.clang"
  },
  "schemaVersion": "3.1.0",
  "updatedAt": "2020-04-24T13:45:46.417Z",
  "networkType": "ethereum",
  "devdoc": {
    "methods": {}
  },
  "userdoc": {
    "methods": {}
  }
}