{
  "contractName": "Medicine",
  "abi": [
    {
      "inputs": [],
      "payable": false,
      "stateMutability": "nonpayable",
      "type": "constructor"
    },
    {
      "constant": false,
      "inputs": [
        {
          "internalType": "bytes32",
          "name": "_medicineName",
          "type": "bytes32"
        },
        {
          "internalType": "bytes",
          "name": "_medIpfsHash",
          "type": "bytes"
        }
      ],
      "name": "createMedicine",
      "outputs": [],
      "payable": false,
      "stateMutability": "nonpayable",
      "type": "function"
    },
    {
      "constant": false,
      "inputs": [
        {
          "internalType": "bytes",
          "name": "ipfsHash",
          "type": "bytes"
        }
      ],
      "name": "updateMedicine",
      "outputs": [
        {
          "internalType": "bool",
          "name": "",
          "type": "bool"
        }
      ],
      "payable": false,
      "stateMutability": "nonpayable",
      "type": "function"
    }
  ],
  "bytecode": "0x608060405234801561001057600080fd5b50336000806101000a81548173ffffffffffffffffffffffffffffffffffffffff021916908373ffffffffffffffffffffffffffffffffffffffff1602179055507f74656d70000000000000000000000000000000000000000000000000000000006001819055506040518060400160405280600381526020017f3078300000000000000000000000000000000000000000000000000000000000815250600290805190602001906100c39291906100c9565b5061016e565b828054600181600116156101000203166002900490600052602060002090601f016020900481019282601f1061010a57805160ff1916838001178555610138565b82800160010185558215610138579182015b8281111561013757825182559160200191906001019061011c565b5b5090506101459190610149565b5090565b61016b91905b8082111561016757600081600090555060010161014f565b5090565b90565b6103318061017d6000396000f3fe608060405234801561001057600080fd5b50600436106100365760003560e01c8063acacdb981461003b578063cafd134614610100575b600080fd5b6100fe6004803603604081101561005157600080fd5b81019080803590602001909291908035906020019064010000000081111561007857600080fd5b82018360208201111561008a57600080fd5b803590602001918460018302840111640100000000831117156100ac57600080fd5b91908080601f016020809104026020016040519081016040528093929190818152602001838380828437600081840152601f19601f8201169050808301925050505050505091929192905050506101d3565b005b6101b96004803603602081101561011657600080fd5b810190808035906020019064010000000081111561013357600080fd5b82018360208201111561014557600080fd5b8035906020019184600183028401116401000000008311171561016757600080fd5b91908080601f016020809104026020016040519081016040528093929190818152602001838380828437600081840152601f19601f820116905080830192505050505050509192919290505050610235565b604051808215151515815260200191505060405180910390f35b336000806101000a81548173ffffffffffffffffffffffffffffffffffffffff021916908373ffffffffffffffffffffffffffffffffffffffff160217905550816001819055508060029080519060200190610230929190610257565b505050565b6000816002908051906020019061024d929190610257565b5060019050919050565b828054600181600116156101000203166002900490600052602060002090601f016020900481019282601f1061029857805160ff19168380011785556102c6565b828001600101855582156102c6579182015b828111156102c55782518255916020019190600101906102aa565b5b5090506102d391906102d7565b5090565b6102f991905b808211156102f55760008160009055506001016102dd565b5090565b9056fea265627a7a723158207057347eaa03286c0b9a70864c09361455b73cf3b7f6ae62b681190a8899490664736f6c63430005100032",
  "source": "pragma solidity >=0.5.16;\n\ncontract Medicine {\n    address private addr;\n    bytes32 private medicineName;\n    bytes private medIpfsHash;\n\n    constructor() public {\n        addr = msg.sender;\n        medicineName = 'temp';\n        medIpfsHash = '0x0';\n    }\n\n    function createMedicine(bytes32 _medicineName, bytes memory _medIpfsHash) public {\n        addr = msg.sender;\n        medicineName = _medicineName;\n        medIpfsHash = _medIpfsHash;\n    }\n\n    function updateMedicine(bytes memory ipfsHash) public returns(bool){\n      medIpfsHash = ipfsHash;\n      return true;\n     }\n}",
  "sourcePath": "/home/eke/patient-eth/contracts/Medicine.sol",
  "compiler": {
    "name": "solc",
    "version": "0.5.16+commit.9c3226ce.Emscripten.clang"
  },
  "schemaVersion": "3.1.0",
  "updatedAt": "2020-04-29T11:48:06.327Z",
  "networkType": "ethereum",
  "devdoc": {
    "methods": {}
  },
  "userdoc": {
    "methods": {}
  }
}