{
  "contractName": "MedicineStorage",
  "abi": [
    {
      "inputs": [],
      "payable": false,
      "stateMutability": "nonpayable",
      "type": "constructor"
    },
    {
      "constant": true,
      "inputs": [
        {
          "internalType": "bytes32",
          "name": "mname",
          "type": "bytes32"
        }
      ],
      "name": "hasMedicine",
      "outputs": [
        {
          "internalType": "bool",
          "name": "",
          "type": "bool"
        }
      ],
      "payable": false,
      "stateMutability": "view",
      "type": "function"
    },
    {
      "constant": false,
      "inputs": [
        {
          "internalType": "bytes32",
          "name": "mname",
          "type": "bytes32"
        },
        {
          "internalType": "bytes",
          "name": "ipfsHash",
          "type": "bytes"
        }
      ],
      "name": "saveMedicine",
      "outputs": [
        {
          "internalType": "bool",
          "name": "",
          "type": "bool"
        }
      ],
      "payable": false,
      "stateMutability": "nonpayable",
      "type": "function"
    },
    {
      "constant": false,
      "inputs": [
        {
          "internalType": "bytes32",
          "name": "medname",
          "type": "bytes32"
        },
        {
          "internalType": "bytes",
          "name": "ipfsHash",
          "type": "bytes"
        }
      ],
      "name": "updateMedicine",
      "outputs": [
        {
          "internalType": "bool",
          "name": "",
          "type": "bool"
        }
      ],
      "payable": false,
      "stateMutability": "nonpayable",
      "type": "function"
    },
    {
      "constant": true,
      "inputs": [],
      "name": "getMedicineCount",
      "outputs": [
        {
          "internalType": "uint256",
          "name": "",
          "type": "uint256"
        }
      ],
      "payable": false,
      "stateMutability": "view",
      "type": "function"
    },
    {
      "constant": true,
      "inputs": [
        {
          "internalType": "uint256",
          "name": "index",
          "type": "uint256"
        }
      ],
      "name": "getMedicineByIndex",
      "outputs": [
        {
          "internalType": "bytes32",
          "name": "",
          "type": "bytes32"
        },
        {
          "internalType": "bytes",
          "name": "",
          "type": "bytes"
        }
      ],
      "payable": false,
      "stateMutability": "view",
      "type": "function"
    },
    {
      "constant": true,
      "inputs": [
        {
          "internalType": "uint256",
          "name": "index",
          "type": "uint256"
        }
      ],
      "name": "getMedicineNameByIndex",
      "outputs": [
        {
          "internalType": "bytes32",
          "name": "",
          "type": "bytes32"
        }
      ],
      "payable": false,
      "stateMutability": "view",
      "type": "function"
    },
    {
      "constant": true,
      "inputs": [
        {
          "internalType": "uint256",
          "name": "index",
          "type": "uint256"
        }
      ],
      "name": "getMedIpfsHashByIndex",
      "outputs": [
        {
          "internalType": "bytes",
          "name": "",
          "type": "bytes"
        }
      ],
      "payable": false,
      "stateMutability": "view",
      "type": "function"
    },
    {
      "constant": true,
      "inputs": [
        {
          "internalType": "bytes32",
          "name": "mname",
          "type": "bytes32"
        }
      ],
      "name": "getIpfsHashByMedicineName",
      "outputs": [
        {
          "internalType": "bytes",
          "name": "",
          "type": "bytes"
        }
      ],
      "payable": false,
      "stateMutability": "view",
      "type": "function"
    }
  ],
  "bytecode": "0x608060405234801561001057600080fd5b5060008060018154018082558091505090600182039060005260206000200160007f74656d70000000000000000000000000000000000000000000000000000000009091909150555060018060018154018082558091505090600182039060005260206000200160006040518060400160405280600d81526020017f6e6f742d617661696c61626c6500000000000000000000000000000000000000815250909190915090805190602001906100c79291906100ce565b5050610173565b828054600181600116156101000203166002900490600052602060002090601f016020900481019282601f1061010f57805160ff191683800117855561013d565b8280016001018555821561013d579182015b8281111561013c578251825591602001919060010190610121565b5b50905061014a919061014e565b5090565b61017091905b8082111561016c576000816000905550600101610154565b5090565b90565b610b37806101826000396000f3fe608060405234801561001057600080fd5b50600436106100885760003560e01c8063a68a08a51161005b578063a68a08a514610337578063abac50a4146103de578063cc04a68514610424578063eadeb84c146104cb57610088565b80631e50b1821461008d57806331db6fd51461013b578063697d19ea1461017d57806390f7959e1461025a575b600080fd5b6100b9600480360360208110156100a357600080fd5b81019080803590602001909291905050506104e9565b6040518083815260200180602001828103825283818151815260200191508051906020019080838360005b838110156100ff5780820151818401526020810190506100e4565b50505050905090810190601f16801561012c5780820380516001836020036101000a031916815260200191505b50935050505060405180910390f35b6101676004803603602081101561015157600080fd5b810190808035906020019092919050505061063b565b6040518082815260200191505060405180910390f35b6102406004803603604081101561019357600080fd5b8101908080359060200190929190803590602001906401000000008111156101ba57600080fd5b8201836020820111156101cc57600080fd5b803590602001918460018302840111640100000000831117156101ee57600080fd5b91908080601f016020809104026020016040519081016040528093929190818152602001838380828437600081840152601f19601f8201169050808301925050505050505091929192905050506106d5565b604051808215151515815260200191505060405180910390f35b61031d6004803603604081101561027057600080fd5b81019080803590602001909291908035906020019064010000000081111561029757600080fd5b8201836020820111156102a957600080fd5b803590602001918460018302840111640100000000831117156102cb57600080fd5b91908080601f016020809104026020016040519081016040528093929190818152602001838380828437600081840152601f19601f8201169050808301925050505050505091929192905050506107e8565b604051808215151515815260200191505060405180910390f35b6103636004803603602081101561034d57600080fd5b8101908080359060200190929190505050610833565b6040518080602001828103825283818151815260200191508051906020019080838360005b838110156103a3578082015181840152602081019050610388565b50505050905090810190601f1680156103d05780820380516001836020036101000a031916815260200191505b509250505060405180910390f35b61040a600480360360208110156103f457600080fd5b81019080803590602001909291905050506108ff565b604051808215151515815260200191505060405180910390f35b6104506004803603602081101561043a57600080fd5b810190808035906020019092919050505061091e565b6040518080602001828103825283818151815260200191508051906020019080838360005b83811015610490578082015181840152602081019050610475565b50505050905090810190601f1680156104bd5780820380516001836020036101000a031916815260200191505b509250505060405180910390f35b6104d3610a51565b6040518082815260200191505060405180910390f35b600060606000805490508310610567576040517f08c379a00000000000000000000000000000000000000000000000000000000081526004018080602001828103825260138152602001807f496e646578206f7574206f6620626f756e64210000000000000000000000000081525060200191505060405180910390fd5b6000838154811061057457fe5b90600052602060002001546001848154811061058c57fe5b90600052602060002001808054600181600116156101000203166002900480601f01602080910402602001604051908101604052809291908181526020018280546001816001161561010002031660029004801561062b5780601f106106005761010080835404028352916020019161062b565b820191906000526020600020905b81548152906001019060200180831161060e57829003601f168201915b5050505050905091509150915091565b6000808054905082106106b6576040517f08c379a00000000000000000000000000000000000000000000000000000000081526004018080602001828103825260138152602001807f496e646578206f7574206f6620626f756e64210000000000000000000000000081525060200191505060405180910390fd5b600082815481106106c357fe5b90600052602060002001549050919050565b60006106e0836108ff565b15610753576040517f08c379a00000000000000000000000000000000000000000000000000000000081526004018080602001828103825260188152602001807f4d65646963696e6520616c72656164792065786973747321000000000000000081525060200191505060405180910390fd5b600083908060018154018082558091505090600182039060005260206000200160009091929091909150555060018290806001815401808255809150509060018203906000526020600020016000909192909190915090805190602001906107bc929190610a5d565b505060016000805490500360026000858152602001908152602001600020819055506001905092915050565b600081600160026000868152602001908152602001600020548154811061080b57fe5b906000526020600020019080519060200190610828929190610a5d565b506001905092915050565b6060600160026000848152602001908152602001600020548154811061085557fe5b906000526020600020018054600181600116156101000203166002900480601f0160208091040260200160405190810160405280929190818152602001828054600181600116156101000203166002900480156108f35780601f106108c8576101008083540402835291602001916108f3565b820191906000526020600020905b8154815290600101906020018083116108d657829003601f168201915b50505050509050919050565b6000806002600084815260200190815260200160002054119050919050565b6060600080549050821061099a576040517f08c379a00000000000000000000000000000000000000000000000000000000081526004018080602001828103825260138152602001807f496e646578206f7574206f6620626f756e64210000000000000000000000000081525060200191505060405180910390fd5b600182815481106109a757fe5b906000526020600020018054600181600116156101000203166002900480601f016020809104026020016040519081016040528092919081815260200182805460018160011615610100020316600290048015610a455780601f10610a1a57610100808354040283529160200191610a45565b820191906000526020600020905b815481529060010190602001808311610a2857829003601f168201915b50505050509050919050565b60008080549050905090565b828054600181600116156101000203166002900490600052602060002090601f016020900481019282601f10610a9e57805160ff1916838001178555610acc565b82800160010185558215610acc579182015b82811115610acb578251825591602001919060010190610ab0565b5b509050610ad99190610add565b5090565b610aff91905b80821115610afb576000816000905550600101610ae3565b5090565b9056fea265627a7a72315820f0b83a25bd071be03b17b728236655eae80e0dda021f6bfc915b77be213f42b364736f6c63430005100032",
  "source": "pragma solidity >=0.5.16;\n\ncontract MedicineStorage{\n    bytes32[] private medicineNames;\n    bytes[] private medIpfsHash;\n    mapping(bytes32 => uint) private medicinenameToIndex;\n    // mapping(bytes32 => Medicine) private mednameToMedicine;\n\n    constructor() public {\n      medicineNames.push('temp');\n      medIpfsHash.push('not-available');\n    }\n\n    function hasMedicine(bytes32 mname) public view returns(bool) {\n        return (medicinenameToIndex[mname] > 0);\n     }\n    function saveMedicine(bytes32 mname, bytes memory ipfsHash) public returns(bool) {\n        require(!hasMedicine(mname),\n            \"Medicine already exists!\");\n        //mednameToMedicine[mname] =\n        medicineNames.push(mname);\n        medIpfsHash.push(ipfsHash);\n        medicinenameToIndex[mname] = medicineNames.length - 1;\n        return true;\n     }\n    function updateMedicine(bytes32 medname, bytes memory ipfsHash) public returns(bool){\n      medIpfsHash[medicinenameToIndex[medname]] = ipfsHash;\n      return true;\n     }\n\n    function getMedicineCount() public view returns(uint){\n      return medicineNames.length;\n     }\n    // function getMedicineByMedicinename(bytes32 mname) public view returns(Medicine){\n    //   return mednameToMedicine[mname];\n    //  }\n    function getMedicineByIndex(uint index) public view returns(bytes32,bytes memory){\n      require((index < medicineNames.length),\n            \"Index out of bound!\");\n      return(medicineNames[index], medIpfsHash[index]);\n     }\n\n\n\n    function getMedicineNameByIndex(uint index) public view returns(bytes32){\n      require((index < medicineNames.length),\n            \"Index out of bound!\");\n      return medicineNames[index];\n     }\n\n    function getMedIpfsHashByIndex(uint index) public view returns(bytes memory){\n      require((index < medicineNames.length),\n            \"Index out of bound!\");\n      return medIpfsHash[index];\n     }\n    function getIpfsHashByMedicineName(bytes32 mname) public view returns(bytes memory){\n       return medIpfsHash[medicinenameToIndex[mname]];\n     }\n}",
  "sourcePath": "/home/eke/patient-eth/contracts/MedicineStorage.sol",
  "compiler": {
    "name": "solc",
    "version": "0.5.16+commit.9c3226ce.Emscripten.clang"
  },
  "schemaVersion": "3.1.0",
  "updatedAt": "2020-05-01T15:06:33.917Z",
  "networkType": "ethereum",
  "devdoc": {
    "methods": {}
  },
  "userdoc": {
    "methods": {}
  }
}