{
  "contractName": "MedicineStorage",
  "abi": [
    {
      "inputs": [],
      "payable": false,
      "stateMutability": "nonpayable",
      "type": "constructor"
    },
    {
      "constant": true,
      "inputs": [
        {
          "internalType": "bytes32",
          "name": "mname",
          "type": "bytes32"
        }
      ],
      "name": "hasMedicine",
      "outputs": [
        {
          "internalType": "bool",
          "name": "",
          "type": "bool"
        }
      ],
      "payable": false,
      "stateMutability": "view",
      "type": "function"
    },
    {
      "constant": false,
      "inputs": [
        {
          "internalType": "bytes32",
          "name": "mname",
          "type": "bytes32"
        },
        {
          "internalType": "bytes",
          "name": "ipfsHash",
          "type": "bytes"
        }
      ],
      "name": "saveMedicine",
      "outputs": [
        {
          "internalType": "bool",
          "name": "",
          "type": "bool"
        }
      ],
      "payable": false,
      "stateMutability": "nonpayable",
      "type": "function"
    },
    {
      "constant": false,
      "inputs": [
        {
          "internalType": "bytes",
          "name": "ipfsHash",
          "type": "bytes"
        }
      ],
      "name": "updateMedicine",
      "outputs": [
        {
          "internalType": "bool",
          "name": "",
          "type": "bool"
        }
      ],
      "payable": false,
      "stateMutability": "nonpayable",
      "type": "function"
    },
    {
      "constant": true,
      "inputs": [],
      "name": "getMedicineCount",
      "outputs": [
        {
          "internalType": "uint256",
          "name": "",
          "type": "uint256"
        }
      ],
      "payable": false,
      "stateMutability": "view",
      "type": "function"
    },
    {
      "constant": true,
      "inputs": [
        {
          "internalType": "uint256",
          "name": "index",
          "type": "uint256"
        }
      ],
      "name": "getMedicineByIndex",
      "outputs": [
        {
          "internalType": "bytes32",
          "name": "",
          "type": "bytes32"
        },
        {
          "internalType": "bytes",
          "name": "",
          "type": "bytes"
        }
      ],
      "payable": false,
      "stateMutability": "view",
      "type": "function"
    },
    {
      "constant": true,
      "inputs": [
        {
          "internalType": "uint256",
          "name": "index",
          "type": "uint256"
        }
      ],
      "name": "getMedicineNameByIndex",
      "outputs": [
        {
          "internalType": "bytes32",
          "name": "",
          "type": "bytes32"
        }
      ],
      "payable": false,
      "stateMutability": "view",
      "type": "function"
    },
    {
      "constant": true,
      "inputs": [
        {
          "internalType": "uint256",
          "name": "index",
          "type": "uint256"
        }
      ],
      "name": "getMedIpfsHashByIndex",
      "outputs": [
        {
          "internalType": "bytes",
          "name": "",
          "type": "bytes"
        }
      ],
      "payable": false,
      "stateMutability": "view",
      "type": "function"
    },
    {
      "constant": true,
      "inputs": [
        {
          "internalType": "bytes32",
          "name": "mname",
          "type": "bytes32"
        }
      ],
      "name": "getIpfsHashByMedicineName",
      "outputs": [
        {
          "internalType": "bytes",
          "name": "",
          "type": "bytes"
        }
      ],
      "payable": false,
      "stateMutability": "view",
      "type": "function"
    }
  ],
  "bytecode": "0x608060405260405161001090610137565b604051809103906000f08015801561002c573d6000803e3d6000fd5b50600360006101000a81548173ffffffffffffffffffffffffffffffffffffffff021916908373ffffffffffffffffffffffffffffffffffffffff16021790555034801561007957600080fd5b5060008060018154018082558091505090600182039060005260206000200160007f74656d70000000000000000000000000000000000000000000000000000000009091909150555060018060018154018082558091505090600182039060005260206000200160006040518060400160405280600d81526020017f6e6f742d617661696c61626c650000000000000000000000000000000000000081525090919091509080519060200190610130929190610145565b50506101ea565b6104ae8062000ef783390190565b828054600181600116156101000203166002900490600052602060002090601f016020900481019282601f1061018657805160ff19168380011785556101b4565b828001600101855582156101b4579182015b828111156101b3578251825591602001919060010190610198565b5b5090506101c191906101c5565b5090565b6101e791905b808211156101e35760008160009055506001016101cb565b5090565b90565b610cfd80620001fa6000396000f3fe608060405234801561001057600080fd5b50600436106100885760003560e01c8063abac50a41161005b578063abac50a414610301578063cafd134614610347578063cc04a6851461041a578063eadeb84c146104c157610088565b80631e50b1821461008d57806331db6fd51461013b578063697d19ea1461017d578063a68a08a51461025a575b600080fd5b6100b9600480360360208110156100a357600080fd5b81019080803590602001909291905050506104df565b6040518083815260200180602001828103825283818151815260200191508051906020019080838360005b838110156100ff5780820151818401526020810190506100e4565b50505050905090810190601f16801561012c5780820380516001836020036101000a031916815260200191505b50935050505060405180910390f35b6101676004803603602081101561015157600080fd5b8101908080359060200190929190505050610631565b6040518082815260200191505060405180910390f35b6102406004803603604081101561019357600080fd5b8101908080359060200190929190803590602001906401000000008111156101ba57600080fd5b8201836020820111156101cc57600080fd5b803590602001918460018302840111640100000000831117156101ee57600080fd5b91908080601f016020809104026020016040519081016040528093929190818152602001838380828437600081840152601f19601f8201169050808301925050505050505091929192905050506106cb565b604051808215151515815260200191505060405180910390f35b6102866004803603602081101561027057600080fd5b81019080803590602001909291905050506108d8565b6040518080602001828103825283818151815260200191508051906020019080838360005b838110156102c65780820151818401526020810190506102ab565b50505050905090810190601f1680156102f35780820380516001836020036101000a031916815260200191505b509250505060405180910390f35b61032d6004803603602081101561031757600080fd5b81019080803590602001909291905050506109a4565b604051808215151515815260200191505060405180910390f35b6104006004803603602081101561035d57600080fd5b810190808035906020019064010000000081111561037a57600080fd5b82018360208201111561038c57600080fd5b803590602001918460018302840111640100000000831117156103ae57600080fd5b91908080601f016020809104026020016040519081016040528093929190818152602001838380828437600081840152601f19601f8201169050808301925050505050505091929192905050506109c3565b604051808215151515815260200191505060405180910390f35b6104466004803603602081101561043057600080fd5b8101908080359060200190929190505050610ae4565b6040518080602001828103825283818151815260200191508051906020019080838360005b8381101561048657808201518184015260208101905061046b565b50505050905090810190601f1680156104b35780820380516001836020036101000a031916815260200191505b509250505060405180910390f35b6104c9610c17565b6040518082815260200191505060405180910390f35b60006060600080549050831061055d576040517f08c379a00000000000000000000000000000000000000000000000000000000081526004018080602001828103825260138152602001807f496e646578206f7574206f6620626f756e64210000000000000000000000000081525060200191505060405180910390fd5b6000838154811061056a57fe5b90600052602060002001546001848154811061058257fe5b90600052602060002001808054600181600116156101000203166002900480601f0160208091040260200160405190810160405280929190818152602001828054600181600116156101000203166002900480156106215780601f106105f657610100808354040283529160200191610621565b820191906000526020600020905b81548152906001019060200180831161060457829003601f168201915b5050505050905091509150915091565b6000808054905082106106ac576040517f08c379a00000000000000000000000000000000000000000000000000000000081526004018080602001828103825260138152602001807f496e646578206f7574206f6620626f756e64210000000000000000000000000081525060200191505060405180910390fd5b600082815481106106b957fe5b90600052602060002001549050919050565b60006106d6836109a4565b15610749576040517f08c379a00000000000000000000000000000000000000000000000000000000081526004018080602001828103825260188152602001807f4d65646963696e6520616c72656164792065786973747321000000000000000081525060200191505060405180910390fd5b600360009054906101000a900473ffffffffffffffffffffffffffffffffffffffff1673ffffffffffffffffffffffffffffffffffffffff1663acacdb9884846040518363ffffffff1660e01b81526004018083815260200180602001828103825283818151815260200191508051906020019080838360005b838110156107de5780820151818401526020810190506107c3565b50505050905090810190601f16801561080b5780820380516001836020036101000a031916815260200191505b509350505050600060405180830381600087803b15801561082b57600080fd5b505af115801561083f573d6000803e3d6000fd5b50505050600083908060018154018082558091505090600182039060005260206000200160009091929091909150555060018290806001815401808255809150509060018203906000526020600020016000909192909190915090805190602001906108ac929190610c23565b505060016000805490500360026000858152602001908152602001600020819055506001905092915050565b606060016002600084815260200190815260200160002054815481106108fa57fe5b906000526020600020018054600181600116156101000203166002900480601f0160208091040260200160405190810160405280929190818152602001828054600181600116156101000203166002900480156109985780601f1061096d57610100808354040283529160200191610998565b820191906000526020600020905b81548152906001019060200180831161097b57829003601f168201915b50505050509050919050565b6000806002600084815260200190815260200160002054119050919050565b6000600360009054906101000a900473ffffffffffffffffffffffffffffffffffffffff1673ffffffffffffffffffffffffffffffffffffffff1663cafd1346836040518263ffffffff1660e01b81526004018080602001828103825283818151815260200191508051906020019080838360005b83811015610a53578082015181840152602081019050610a38565b50505050905090810190601f168015610a805780820380516001836020036101000a031916815260200191505b5092505050602060405180830381600087803b158015610a9f57600080fd5b505af1158015610ab3573d6000803e3d6000fd5b505050506040513d6020811015610ac957600080fd5b81019080805190602001909291905050505060019050919050565b60606000805490508210610b60576040517f08c379a00000000000000000000000000000000000000000000000000000000081526004018080602001828103825260138152602001807f496e646578206f7574206f6620626f756e64210000000000000000000000000081525060200191505060405180910390fd5b60018281548110610b6d57fe5b906000526020600020018054600181600116156101000203166002900480601f016020809104026020016040519081016040528092919081815260200182805460018160011615610100020316600290048015610c0b5780601f10610be057610100808354040283529160200191610c0b565b820191906000526020600020905b815481529060010190602001808311610bee57829003601f168201915b50505050509050919050565b60008080549050905090565b828054600181600116156101000203166002900490600052602060002090601f016020900481019282601f10610c6457805160ff1916838001178555610c92565b82800160010185558215610c92579182015b82811115610c91578251825591602001919060010190610c76565b5b509050610c9f9190610ca3565b5090565b610cc591905b80821115610cc1576000816000905550600101610ca9565b5090565b9056fea265627a7a723158207465507bd55415f7338e052ad7628356465b1ceeac7590bb91cd0b77eac6210864736f6c63430005100032608060405234801561001057600080fd5b50336000806101000a81548173ffffffffffffffffffffffffffffffffffffffff021916908373ffffffffffffffffffffffffffffffffffffffff1602179055507f74656d70000000000000000000000000000000000000000000000000000000006001819055506040518060400160405280600381526020017f3078300000000000000000000000000000000000000000000000000000000000815250600290805190602001906100c39291906100c9565b5061016e565b828054600181600116156101000203166002900490600052602060002090601f016020900481019282601f1061010a57805160ff1916838001178555610138565b82800160010185558215610138579182015b8281111561013757825182559160200191906001019061011c565b5b5090506101459190610149565b5090565b61016b91905b8082111561016757600081600090555060010161014f565b5090565b90565b6103318061017d6000396000f3fe608060405234801561001057600080fd5b50600436106100365760003560e01c8063acacdb981461003b578063cafd134614610100575b600080fd5b6100fe6004803603604081101561005157600080fd5b81019080803590602001909291908035906020019064010000000081111561007857600080fd5b82018360208201111561008a57600080fd5b803590602001918460018302840111640100000000831117156100ac57600080fd5b91908080601f016020809104026020016040519081016040528093929190818152602001838380828437600081840152601f19601f8201169050808301925050505050505091929192905050506101d3565b005b6101b96004803603602081101561011657600080fd5b810190808035906020019064010000000081111561013357600080fd5b82018360208201111561014557600080fd5b8035906020019184600183028401116401000000008311171561016757600080fd5b91908080601f016020809104026020016040519081016040528093929190818152602001838380828437600081840152601f19601f820116905080830192505050505050509192919290505050610235565b604051808215151515815260200191505060405180910390f35b336000806101000a81548173ffffffffffffffffffffffffffffffffffffffff021916908373ffffffffffffffffffffffffffffffffffffffff160217905550816001819055508060029080519060200190610230929190610257565b505050565b6000816002908051906020019061024d929190610257565b5060019050919050565b828054600181600116156101000203166002900490600052602060002090601f016020900481019282601f1061029857805160ff19168380011785556102c6565b828001600101855582156102c6579182015b828111156102c55782518255916020019190600101906102aa565b5b5090506102d391906102d7565b5090565b6102f991905b808211156102f55760008160009055506001016102dd565b5090565b9056fea265627a7a723158207057347eaa03286c0b9a70864c09361455b73cf3b7f6ae62b681190a8899490664736f6c63430005100032",
  "source": "pragma solidity >=0.5.16;\nimport \"./Medicine.sol\";\n\ncontract MedicineStorage{\n    bytes32[] private medicineNames;\n    bytes[] private medIpfsHash;\n    mapping(bytes32 => uint) private medicinenameToIndex;\n    Medicine m = new Medicine();\n    // mapping(bytes32 => Medicine) private mednameToMedicine;\n\n    constructor() public {\n      medicineNames.push('temp');\n      medIpfsHash.push('not-available');\n    }\n\n    function hasMedicine(bytes32 mname) public view returns(bool) {\n        return (medicinenameToIndex[mname] > 0);\n     }\n    function saveMedicine(bytes32 mname, bytes memory ipfsHash) public returns(bool) {\n        require(!hasMedicine(mname),\n            \"Medicine already exists!\");\n        //mednameToMedicine[mname] =\n        m.createMedicine(mname,ipfsHash);\n        medicineNames.push(mname);\n        medIpfsHash.push(ipfsHash);\n        medicinenameToIndex[mname] = medicineNames.length - 1;\n        return true;\n     }\n    function updateMedicine(bytes memory ipfsHash) public returns(bool){\n      m.updateMedicine(ipfsHash);\n      return true;\n     }\n\n    function getMedicineCount() public view returns(uint){\n      return medicineNames.length;\n     }\n    // function getMedicineByMedicinename(bytes32 mname) public view returns(Medicine){\n    //   return mednameToMedicine[mname];\n    //  }\n    function getMedicineByIndex(uint index) public view returns(bytes32,bytes memory){\n      require((index < medicineNames.length),\n            \"Index out of bound!\");\n      return(medicineNames[index], medIpfsHash[index]);\n     }\n\n\n\n    function getMedicineNameByIndex(uint index) public view returns(bytes32){\n      require((index < medicineNames.length),\n            \"Index out of bound!\");\n      return medicineNames[index];\n     }\n\n    function getMedIpfsHashByIndex(uint index) public view returns(bytes memory){\n      require((index < medicineNames.length),\n            \"Index out of bound!\");\n      return medIpfsHash[index];\n     }\n    function getIpfsHashByMedicineName(bytes32 mname) public view returns(bytes memory){\n       return medIpfsHash[medicinenameToIndex[mname]];\n     }\n}",
  "sourcePath": "/home/eke/patient-eth/contracts/MedicineStorage.sol",
  "compiler": {
    "name": "solc",
    "version": "0.5.16+commit.9c3226ce.Emscripten.clang"
  },
  "schemaVersion": "3.1.0",
  "updatedAt": "2020-04-28T18:24:32.824Z",
  "networkType": "ethereum",
  "devdoc": {
    "methods": {}
  },
  "userdoc": {
    "methods": {}
  }
}