{
  "contractName": "PatientStorage",
  "abi": [
    {
      "inputs": [],
      "payable": false,
      "stateMutability": "nonpayable",
      "type": "constructor"
    },
    {
      "constant": false,
      "inputs": [
        {
          "internalType": "address",
          "name": "addr",
          "type": "address"
        }
      ],
      "name": "savePatientContractAddress",
      "outputs": [
        {
          "internalType": "bool",
          "name": "",
          "type": "bool"
        }
      ],
      "payable": false,
      "stateMutability": "nonpayable",
      "type": "function"
    },
    {
      "constant": true,
      "inputs": [
        {
          "internalType": "bytes32",
          "name": "patientName",
          "type": "bytes32"
        }
      ],
      "name": "getPatientContractAddressByPatientName",
      "outputs": [
        {
          "internalType": "address",
          "name": "",
          "type": "address"
        }
      ],
      "payable": false,
      "stateMutability": "view",
      "type": "function"
    },
    {
      "constant": true,
      "inputs": [],
      "name": "getPatientContractAddresses",
      "outputs": [
        {
          "internalType": "address[]",
          "name": "",
          "type": "address[]"
        }
      ],
      "payable": false,
      "stateMutability": "view",
      "type": "function"
    },
    {
      "constant": false,
      "inputs": [
        {
          "internalType": "bytes32",
          "name": "patientName",
          "type": "bytes32"
        },
        {
          "internalType": "bytes",
          "name": "ipfsHash",
          "type": "bytes"
        }
      ],
      "name": "registerPatient",
      "outputs": [
        {
          "internalType": "bool",
          "name": "",
          "type": "bool"
        }
      ],
      "payable": false,
      "stateMutability": "nonpayable",
      "type": "function"
    },
    {
      "constant": true,
      "inputs": [
        {
          "internalType": "address",
          "name": "_patientAdresses",
          "type": "address"
        }
      ],
      "name": "hasPatient",
      "outputs": [
        {
          "internalType": "bool",
          "name": "",
          "type": "bool"
        }
      ],
      "payable": false,
      "stateMutability": "view",
      "type": "function"
    },
    {
      "constant": true,
      "inputs": [
        {
          "internalType": "bytes32",
          "name": "pname",
          "type": "bytes32"
        }
      ],
      "name": "patientNameTaken",
      "outputs": [
        {
          "internalType": "bool",
          "name": "takenIndeed",
          "type": "bool"
        }
      ],
      "payable": false,
      "stateMutability": "view",
      "type": "function"
    },
    {
      "constant": true,
      "inputs": [],
      "name": "getPatientCount",
      "outputs": [
        {
          "internalType": "uint256",
          "name": "",
          "type": "uint256"
        }
      ],
      "payable": false,
      "stateMutability": "view",
      "type": "function"
    },
    {
      "constant": true,
      "inputs": [
        {
          "internalType": "uint256",
          "name": "index",
          "type": "uint256"
        }
      ],
      "name": "getPatientByIndex",
      "outputs": [
        {
          "internalType": "address",
          "name": "",
          "type": "address"
        },
        {
          "internalType": "bytes32",
          "name": "",
          "type": "bytes32"
        },
        {
          "internalType": "bytes",
          "name": "",
          "type": "bytes"
        }
      ],
      "payable": false,
      "stateMutability": "view",
      "type": "function"
    },
    {
      "constant": true,
      "inputs": [
        {
          "internalType": "uint256",
          "name": "index",
          "type": "uint256"
        }
      ],
      "name": "getAddressByIndex",
      "outputs": [
        {
          "internalType": "address",
          "name": "",
          "type": "address"
        }
      ],
      "payable": false,
      "stateMutability": "view",
      "type": "function"
    },
    {
      "constant": true,
      "inputs": [
        {
          "internalType": "uint256",
          "name": "index",
          "type": "uint256"
        }
      ],
      "name": "getPatientNameByIndex",
      "outputs": [
        {
          "internalType": "bytes32",
          "name": "",
          "type": "bytes32"
        }
      ],
      "payable": false,
      "stateMutability": "view",
      "type": "function"
    },
    {
      "constant": true,
      "inputs": [
        {
          "internalType": "uint256",
          "name": "index",
          "type": "uint256"
        }
      ],
      "name": "getIpfsHashByIndex",
      "outputs": [
        {
          "internalType": "bytes",
          "name": "",
          "type": "bytes"
        }
      ],
      "payable": false,
      "stateMutability": "view",
      "type": "function"
    },
    {
      "constant": true,
      "inputs": [
        {
          "internalType": "address",
          "name": "patientAddress",
          "type": "address"
        }
      ],
      "name": "getPatientByAddress",
      "outputs": [
        {
          "internalType": "uint256",
          "name": "",
          "type": "uint256"
        },
        {
          "internalType": "bytes32",
          "name": "",
          "type": "bytes32"
        },
        {
          "internalType": "bytes",
          "name": "",
          "type": "bytes"
        }
      ],
      "payable": false,
      "stateMutability": "view",
      "type": "function"
    },
    {
      "constant": true,
      "inputs": [
        {
          "internalType": "address",
          "name": "patientAddress",
          "type": "address"
        }
      ],
      "name": "getIndexByAddress",
      "outputs": [
        {
          "internalType": "uint256",
          "name": "",
          "type": "uint256"
        }
      ],
      "payable": false,
      "stateMutability": "view",
      "type": "function"
    },
    {
      "constant": true,
      "inputs": [
        {
          "internalType": "address",
          "name": "patientAddress",
          "type": "address"
        }
      ],
      "name": "getPatientNameByAddress",
      "outputs": [
        {
          "internalType": "bytes32",
          "name": "",
          "type": "bytes32"
        }
      ],
      "payable": false,
      "stateMutability": "view",
      "type": "function"
    },
    {
      "constant": true,
      "inputs": [
        {
          "internalType": "address",
          "name": "patientAddress",
          "type": "address"
        }
      ],
      "name": "getIpfsHashByAddress",
      "outputs": [
        {
          "internalType": "bytes",
          "name": "",
          "type": "bytes"
        }
      ],
      "payable": false,
      "stateMutability": "view",
      "type": "function"
    },
    {
      "constant": true,
      "inputs": [
        {
          "internalType": "bytes32",
          "name": "patientname",
          "type": "bytes32"
        }
      ],
      "name": "getPatientByPatientName",
      "outputs": [
        {
          "internalType": "uint256",
          "name": "",
          "type": "uint256"
        },
        {
          "internalType": "address",
          "name": "",
          "type": "address"
        },
        {
          "internalType": "bytes",
          "name": "",
          "type": "bytes"
        }
      ],
      "payable": false,
      "stateMutability": "view",
      "type": "function"
    },
    {
      "constant": true,
      "inputs": [
        {
          "internalType": "bytes32",
          "name": "patientname",
          "type": "bytes32"
        }
      ],
      "name": "getIndexByPatientName",
      "outputs": [
        {
          "internalType": "uint256",
          "name": "",
          "type": "uint256"
        }
      ],
      "payable": false,
      "stateMutability": "view",
      "type": "function"
    },
    {
      "constant": true,
      "inputs": [
        {
          "internalType": "bytes32",
          "name": "patientname",
          "type": "bytes32"
        }
      ],
      "name": "getAddressByPatientName",
      "outputs": [
        {
          "internalType": "address",
          "name": "",
          "type": "address"
        }
      ],
      "payable": false,
      "stateMutability": "view",
      "type": "function"
    },
    {
      "constant": true,
      "inputs": [
        {
          "internalType": "bytes32",
          "name": "patientname",
          "type": "bytes32"
        }
      ],
      "name": "getIpfsHashByPatientName",
      "outputs": [
        {
          "internalType": "bytes",
          "name": "",
          "type": "bytes"
        }
      ],
      "payable": false,
      "stateMutability": "view",
      "type": "function"
    }
  ],
  "bytecode": "0x60806040523480156200001157600080fd5b5060023390806001815401808255809150509060018203906000526020600020016000909192909190916101000a81548173ffffffffffffffffffffffffffffffffffffffff021916908373ffffffffffffffffffffffffffffffffffffffff1602179055505060038060018154018082558091505090600182039060005260206000200160007f78000000000000000000000000000000000000000000000000000000000000009091909150555060048060018154018082558091505090600182039060005260206000200160006040518060400160405280600d81526020017f6e6f742d617661696c61626c650000000000000000000000000000000000000081525090919091509080519060200190620001309291906200019e565b505060053390806001815401808255809150509060018203906000526020600020016000909192909190916101000a81548173ffffffffffffffffffffffffffffffffffffffff021916908373ffffffffffffffffffffffffffffffffffffffff160217905550506200024d565b828054600181600116156101000203166002900490600052602060002090601f016020900481019282601f10620001e157805160ff191683800117855562000212565b8280016001018555821562000212579182015b8281111562000211578251825591602001919060010190620001f4565b5b50905062000221919062000225565b5090565b6200024a91905b80821115620002465760008160009055506001016200022c565b5090565b90565b611cb2806200025d6000396000f3fe608060405234801561001057600080fd5b50600436106101215760003560e01c8063b1d5458d116100ad578063cbb7e2ff11610071578063cbb7e2ff146103a8578063ce10cf88146103d8578063dfb7ab6014610408578063eb9fbaa914610438578063fff21b9c1461046857610121565b8063b1d5458d146102c8578063b9affb93146102f8578063ba5c033514610328578063c190665b1461035a578063cbb73d1c1461037857610121565b806368761954116100f457806368761954146101d65780636cfbc8fd146102065780637b63cec414610236578063a74380a614610266578063ad36054b1461029657610121565b80631973ef911461012657806329f78d881461015657806344739f811461018657806357ea0c2f146101a4575b600080fd5b610140600480360361013b9190810190611553565b610498565b60405161014d9190611a2f565b60405180910390f35b610170600480360361016b91908101906115f9565b610528565b60405161017d919061194d565b60405180910390f35b61018e610628565b60405161019b91906118f5565b60405180910390f35b6101be60048036036101b991908101906115f9565b6106b6565b6040516101cd939291906118b7565b60405180910390f35b6101f060048036036101eb91908101906115a5565b610812565b6040516101fd9190611917565b60405180910390f35b610220600480360361021b919081019061157c565b6109ec565b60405161022d919061189c565b60405180910390f35b610250600480360361024b919081019061157c565b610a88565b60405161025d9190611917565b60405180910390f35b610280600480360361027b9190810190611553565b610ad1565b60405161028d919061194d565b60405180910390f35b6102b060048036036102ab919081019061157c565b610c10565b6040516102bf93929190611a4a565b60405180910390f35b6102e260048036036102dd919081019061157c565b610da1565b6040516102ef9190611a2f565b60405180910390f35b610312600480360361030d9190810190611553565b610e06565b60405161031f9190611932565b60405180910390f35b610342600480360361033d9190810190611553565b610ead565b60405161035193929190611a88565b60405180910390f35b61036261108d565b60405161036f9190611a2f565b60405180910390f35b610392600480360361038d919081019061157c565b61109a565b60405161039f919061189c565b60405180910390f35b6103c260048036036103bd91908101906115f9565b6110ee565b6040516103cf9190611932565b60405180910390f35b6103f260048036036103ed91908101906115f9565b611156565b6040516103ff919061189c565b60405180910390f35b610422600480360361041d919081019061157c565b6111de565b60405161042f919061194d565b60405180910390f35b610452600480360361044d9190810190611553565b6112f2565b60405161045f9190611917565b60405180910390f35b610482600480360361047d9190810190611553565b6113aa565b60405161048f9190611917565b60405180910390f35b60006104a3826112f2565b6104e2576040517f08c379a00000000000000000000000000000000000000000000000000000000081526004016104d99061196f565b60405180910390fd5b6000808373ffffffffffffffffffffffffffffffffffffffff1673ffffffffffffffffffffffffffffffffffffffff168152602001908152602001600020549050919050565b60606002805490508210610571576040517f08c379a0000000000000000000000000000000000000000000000000000000008152600401610568906119ef565b60405180910390fd5b6004828154811061057e57fe5b906000526020600020018054600181600116156101000203166002900480601f01602080910402602001604051908101604052809291908181526020018280546001816001161561010002031660029004801561061c5780601f106105f15761010080835404028352916020019161061c565b820191906000526020600020905b8154815290600101906020018083116105ff57829003601f168201915b50505050509050919050565b606060058054806020026020016040519081016040528092919081815260200182805480156106ac57602002820191906000526020600020905b8160009054906101000a900473ffffffffffffffffffffffffffffffffffffffff1673ffffffffffffffffffffffffffffffffffffffff1681526020019060010190808311610662575b5050505050905090565b60008060606002805490508410610702576040517f08c379a00000000000000000000000000000000000000000000000000000000081526004016106f9906119ef565b60405180910390fd5b6002848154811061070f57fe5b9060005260206000200160009054906101000a900473ffffffffffffffffffffffffffffffffffffffff166003858154811061074757fe5b90600052602060002001546004868154811061075f57fe5b90600052602060002001808054600181600116156101000203166002900480601f0160208091040260200160405190810160405280929190818152602001828054600181600116156101000203166002900480156107fe5780601f106107d3576101008083540402835291602001916107fe565b820191906000526020600020905b8154815290600101906020018083116107e157829003601f168201915b505050505090509250925092509193909250565b600061081d336112f2565b1561085d576040517f08c379a000000000000000000000000000000000000000000000000000000000815260040161085490611a0f565b60405180910390fd5b61086683610a88565b156108a6576040517f08c379a000000000000000000000000000000000000000000000000000000000815260040161089d906119af565b60405180910390fd5b60023390806001815401808255809150509060018203906000526020600020016000909192909190916101000a81548173ffffffffffffffffffffffffffffffffffffffff021916908373ffffffffffffffffffffffffffffffffffffffff160217905550506003839080600181540180825580915050906001820390600052602060002001600090919290919091505550600482908060018154018082558091505090600182039060005260206000200160009091929091909150908051906020019061097592919061141b565b50506001600280549050036000803373ffffffffffffffffffffffffffffffffffffffff1673ffffffffffffffffffffffffffffffffffffffff1681526020019081526020016000208190555060016002805490500360016000858152602001908152602001600020819055506001905092915050565b60006109f782610a88565b610a36576040517f08c379a0000000000000000000000000000000000000000000000000000000008152600401610a2d9061198f565b60405180910390fd5b6002600160008481526020019081526020016000205481548110610a5657fe5b9060005260206000200160009054906101000a900473ffffffffffffffffffffffffffffffffffffffff169050919050565b60008060016000848152602001908152602001600020541180610aca57507f73656c660000000000000000000000000000000000000000000000000000000082145b9050919050565b6060610adc826112f2565b610b1b576040517f08c379a0000000000000000000000000000000000000000000000000000000008152600401610b129061196f565b60405180910390fd5b60046000808473ffffffffffffffffffffffffffffffffffffffff1673ffffffffffffffffffffffffffffffffffffffff1681526020019081526020016000205481548110610b6657fe5b906000526020600020018054600181600116156101000203166002900480601f016020809104026020016040519081016040528092919081815260200182805460018160011615610100020316600290048015610c045780601f10610bd957610100808354040283529160200191610c04565b820191906000526020600020905b815481529060010190602001808311610be757829003601f168201915b50505050509050919050565b6000806060600280549050600160008681526020019081526020016000205410610c6f576040517f08c379a0000000000000000000000000000000000000000000000000000000008152600401610c66906119cf565b60405180910390fd5b60016000858152602001908152602001600020546002600160008781526020019081526020016000205481548110610ca357fe5b9060005260206000200160009054906101000a900473ffffffffffffffffffffffffffffffffffffffff166004600160008881526020019081526020016000205481548110610cee57fe5b90600052602060002001808054600181600116156101000203166002900480601f016020809104026020016040519081016040528092919081815260200182805460018160011615610100020316600290048015610d8d5780601f10610d6257610100808354040283529160200191610d8d565b820191906000526020600020905b815481529060010190602001808311610d7057829003601f168201915b505050505090509250925092509193909250565b6000610dac82610a88565b610deb576040517f08c379a0000000000000000000000000000000000000000000000000000000008152600401610de29061198f565b60405180910390fd5b60016000838152602001908152602001600020549050919050565b6000610e11826112f2565b610e50576040517f08c379a0000000000000000000000000000000000000000000000000000000008152600401610e479061196f565b60405180910390fd5b60036000808473ffffffffffffffffffffffffffffffffffffffff1673ffffffffffffffffffffffffffffffffffffffff1681526020019081526020016000205481548110610e9b57fe5b90600052602060002001549050919050565b6000806060610ebb846112f2565b610efa576040517f08c379a0000000000000000000000000000000000000000000000000000000008152600401610ef19061196f565b60405180910390fd5b6000808573ffffffffffffffffffffffffffffffffffffffff1673ffffffffffffffffffffffffffffffffffffffff1681526020019081526020016000205460036000808773ffffffffffffffffffffffffffffffffffffffff1673ffffffffffffffffffffffffffffffffffffffff1681526020019081526020016000205481548110610f8457fe5b906000526020600020015460046000808873ffffffffffffffffffffffffffffffffffffffff1673ffffffffffffffffffffffffffffffffffffffff1681526020019081526020016000205481548110610fda57fe5b90600052602060002001808054600181600116156101000203166002900480601f0160208091040260200160405190810160405280929190818152602001828054600181600116156101000203166002900480156110795780601f1061104e57610100808354040283529160200191611079565b820191906000526020600020905b81548152906001019060200180831161105c57829003601f168201915b505050505090509250925092509193909250565b6000600280549050905090565b600060056001600084815260200190815260200160002054815481106110bc57fe5b9060005260206000200160009054906101000a900473ffffffffffffffffffffffffffffffffffffffff169050919050565b60006002805490508210611137576040517f08c379a000000000000000000000000000000000000000000000000000000000815260040161112e906119ef565b60405180910390fd5b6003828154811061114457fe5b90600052602060002001549050919050565b6000600280549050821061119f576040517f08c379a0000000000000000000000000000000000000000000000000000000008152600401611196906119ef565b60405180910390fd5b600282815481106111ac57fe5b9060005260206000200160009054906101000a900473ffffffffffffffffffffffffffffffffffffffff169050919050565b60606111e982610a88565b611228576040517f08c379a000000000000000000000000000000000000000000000000000000000815260040161121f9061198f565b60405180910390fd5b600460016000848152602001908152602001600020548154811061124857fe5b906000526020600020018054600181600116156101000203166002900480601f0160208091040260200160405190810160405280929190818152602001828054600181600116156101000203166002900480156112e65780601f106112bb576101008083540402835291602001916112e6565b820191906000526020600020905b8154815290600101906020018083116112c957829003601f168201915b50505050509050919050565b6000806000808473ffffffffffffffffffffffffffffffffffffffff1673ffffffffffffffffffffffffffffffffffffffff1681526020019081526020016000205411806113a35750600260008154811061134957fe5b9060005260206000200160009054906101000a900473ffffffffffffffffffffffffffffffffffffffff1673ffffffffffffffffffffffffffffffffffffffff168273ffffffffffffffffffffffffffffffffffffffff16145b9050919050565b600060058290806001815401808255809150509060018203906000526020600020016000909192909190916101000a81548173ffffffffffffffffffffffffffffffffffffffff021916908373ffffffffffffffffffffffffffffffffffffffff1602179055505060019050919050565b828054600181600116156101000203166002900490600052602060002090601f016020900481019282601f1061145c57805160ff191683800117855561148a565b8280016001018555821561148a579182015b8281111561148957825182559160200191906001019061146e565b5b509050611497919061149b565b5090565b6114bd91905b808211156114b95760008160009055506001016114a1565b5090565b90565b6000813590506114cf81611c2a565b92915050565b6000813590506114e481611c41565b92915050565b600082601f8301126114fb57600080fd5b813561150e61150982611af3565b611ac6565b9150808252602083016020830185838301111561152a57600080fd5b611535838284611bd7565b50505092915050565b60008135905061154d81611c58565b92915050565b60006020828403121561156557600080fd5b6000611573848285016114c0565b91505092915050565b60006020828403121561158e57600080fd5b600061159c848285016114d5565b91505092915050565b600080604083850312156115b857600080fd5b60006115c6858286016114d5565b925050602083013567ffffffffffffffff8111156115e357600080fd5b6115ef858286016114ea565b9150509250929050565b60006020828403121561160b57600080fd5b60006116198482850161153e565b91505092915050565b600061162e838361163a565b60208301905092915050565b61164381611b85565b82525050565b61165281611b85565b82525050565b600061166382611b2f565b61166d8185611b52565b935061167883611b1f565b8060005b838110156116a95781516116908882611622565b975061169b83611b45565b92505060018101905061167c565b5085935050505092915050565b6116bf81611b97565b82525050565b6116ce81611ba3565b82525050565b60006116df82611b3a565b6116e98185611b63565b93506116f9818560208601611be6565b61170281611c19565b840191505092915050565b600061171a601683611b74565b91507f50617469656e7420646f65736e277420657869737421000000000000000000006000830152602082019050919050565b600061175a601783611b74565b91507f43616e27742066696e64207468652070617469656e74210000000000000000006000830152602082019050919050565b600061179a601c83611b74565b91507f50617469656e74206e616d6520686173206265656e2074616b656e2e000000006000830152602082019050919050565b60006117da601b83611b74565b91507f50617469656e7420696e646578206f7574206f6620626f756e642100000000006000830152602082019050919050565b600061181a601383611b74565b91507f496e646578206f7574206f6620626f756e6421000000000000000000000000006000830152602082019050919050565b600061185a601683611b74565b91507f53656e646572206e6f7420617574686f72697a65642e000000000000000000006000830152602082019050919050565b61189681611bcd565b82525050565b60006020820190506118b16000830184611649565b92915050565b60006060820190506118cc6000830186611649565b6118d960208301856116c5565b81810360408301526118eb81846116d4565b9050949350505050565b6000602082019050818103600083015261190f8184611658565b905092915050565b600060208201905061192c60008301846116b6565b92915050565b600060208201905061194760008301846116c5565b92915050565b6000602082019050818103600083015261196781846116d4565b905092915050565b600060208201905081810360008301526119888161170d565b9050919050565b600060208201905081810360008301526119a88161174d565b9050919050565b600060208201905081810360008301526119c88161178d565b9050919050565b600060208201905081810360008301526119e8816117cd565b9050919050565b60006020820190508181036000830152611a088161180d565b9050919050565b60006020820190508181036000830152611a288161184d565b9050919050565b6000602082019050611a44600083018461188d565b92915050565b6000606082019050611a5f600083018661188d565b611a6c6020830185611649565b8181036040830152611a7e81846116d4565b9050949350505050565b6000606082019050611a9d600083018661188d565b611aaa60208301856116c5565b8181036040830152611abc81846116d4565b9050949350505050565b6000604051905081810181811067ffffffffffffffff82111715611ae957600080fd5b8060405250919050565b600067ffffffffffffffff821115611b0a57600080fd5b601f19601f8301169050602081019050919050565b6000819050602082019050919050565b600081519050919050565b600081519050919050565b6000602082019050919050565b600082825260208201905092915050565b600082825260208201905092915050565b600082825260208201905092915050565b6000611b9082611bad565b9050919050565b60008115159050919050565b6000819050919050565b600073ffffffffffffffffffffffffffffffffffffffff82169050919050565b6000819050919050565b82818337600083830152505050565b60005b83811015611c04578082015181840152602081019050611be9565b83811115611c13576000848401525b50505050565b6000601f19601f8301169050919050565b611c3381611b85565b8114611c3e57600080fd5b50565b611c4a81611ba3565b8114611c5557600080fd5b50565b611c6181611bcd565b8114611c6c57600080fd5b5056fea365627a7a7231582054ca5645a396cb24f93eb82112e4b3791b3d009ab3d74295926cf16c25393ea96c6578706572696d656e74616cf564736f6c63430005100040",
  "source": "pragma solidity >=0.5.16;\npragma experimental ABIEncoderV2;\n\ncontract PatientStorage {\n   mapping(address => uint) private addressToIndex;\n   mapping(bytes32 => uint) private patientnameToIndex;\n   address[] private addresses;\n   bytes32[] private patientUnames;\n   bytes[] private ipfsHashes;\n   address[] private patientContractAddress;\n\n   constructor() public {\n    addresses.push(msg.sender);\n    patientUnames.push('x');\n    ipfsHashes.push('not-available');\n    patientContractAddress.push(msg.sender);\n   }\n\n  function savePatientContractAddress(address addr) public returns(bool){\n    patientContractAddress.push(addr);\n    return true;\n  }\n\n  function getPatientContractAddressByPatientName(bytes32 patientName) public view returns(address){\n    return patientContractAddress[patientnameToIndex[patientName]];\n  }\n\n  function getPatientContractAddresses() public view returns(address[] memory){\n    return patientContractAddress;\n  }\n\n  //PATIENT\n   function registerPatient(bytes32 patientName, bytes memory ipfsHash) public returns(bool) {\n     require(!hasPatient(msg.sender),\n            \"Sender not authorized.\");\n     require(!patientNameTaken(patientName),\n            \"Patient name has been taken.\");\n      addresses.push(msg.sender);\n      patientUnames.push(patientName);\n      ipfsHashes.push(ipfsHash);\n      addressToIndex[msg.sender] = addresses.length - 1;\n      patientnameToIndex[patientName] = addresses.length - 1;\n      return true;\n    }\n\n   function hasPatient(address _patientAdresses) public view returns(bool) {\n      return (addressToIndex[_patientAdresses] > 0 || _patientAdresses == addresses[0]);\n    }\n\n   function patientNameTaken(bytes32 pname) public view returns(bool takenIndeed) {\n      return (patientnameToIndex[pname] > 0 || pname == 'self');\n    }\n\n   function getPatientCount() public view returns(uint){\n      return addresses.length;\n    }\n\n   function getPatientByIndex(uint index) public view returns(address,bytes32,bytes memory){\n      require((index < addresses.length),\n            \"Index out of bound!\");\n      return(addresses[index], patientUnames[index], ipfsHashes[index]);\n    }\n\n   function getAddressByIndex(uint index) public view returns(address){\n      require((index < addresses.length),\n            \"Index out of bound!\");\n      return addresses[index];\n    }\n\n   function getPatientNameByIndex(uint index) public view returns(bytes32){\n      require((index < addresses.length),\n            \"Index out of bound!\");\n      return patientUnames[index];\n    }\n\n   function getIpfsHashByIndex(uint index) public view returns(bytes memory){\n      require((index < addresses.length),\n            \"Index out of bound!\");\n      return ipfsHashes[index];\n    }\n\n   function getPatientByAddress(address patientAddress) public view returns(uint, bytes32, bytes memory){\n      require(hasPatient(patientAddress),\n            \"Patient doesn't exist!\");\n      return(addressToIndex[patientAddress], patientUnames[addressToIndex[patientAddress]], ipfsHashes[addressToIndex[patientAddress]]);\n    }\n\n   function getIndexByAddress(address patientAddress) public view returns(uint){\n      require(hasPatient(patientAddress),\n            \"Patient doesn't exist!\");\n      return addressToIndex[patientAddress];\n    }\n\n   function getPatientNameByAddress(address patientAddress) public view returns(bytes32){\n      require(hasPatient(patientAddress),\n            \"Patient doesn't exist!\");\n      return patientUnames[addressToIndex[patientAddress]];\n    }\n\n   function getIpfsHashByAddress(address patientAddress) public view returns(bytes memory){\n      require(hasPatient(patientAddress),\n            \"Patient doesn't exist!\");\n      return ipfsHashes[addressToIndex[patientAddress]];\n    }\n\n   function getPatientByPatientName(bytes32 patientname) public view returns(uint,address,bytes memory){\n      require((patientnameToIndex[patientname] < addresses.length),\n            \"Patient index out of bound!\");\n      return(patientnameToIndex[patientname], addresses[patientnameToIndex[patientname]], ipfsHashes[patientnameToIndex[patientname]]);\n    }\n\n   function getIndexByPatientName(bytes32 patientname) public view returns(uint){\n      require((patientNameTaken(patientname)),\n            \"Can't find the patient!\");\n      return patientnameToIndex[patientname];\n    }\n\n   function getAddressByPatientName(bytes32 patientname) public view returns(address){\n      require((patientNameTaken(patientname)),\n        \"Can't find the patient!\");\n      return addresses[patientnameToIndex[patientname]];\n    }\n\n   function getIpfsHashByPatientName(bytes32 patientname) public view returns(bytes memory){\n      require((patientNameTaken(patientname)),\n            \"Can't find the patient!\");\n      return ipfsHashes[patientnameToIndex[patientname]];\n    }\n  // // CONSULTATIONS\n  //  function consultationCreate(bytes32 _pname, bytes32 _consulDateID, bytes memory consulipfs)public returns(bool){\n  //     return p.consultationCreate(_pname, _consulDateID, consulipfs);\n  //   }\n\n  //  function getConsultationByConsultationIndex(bytes32 patientName, uint _index) public view returns(bytes32 consulID){\n  //     return p.getConsultationByConsultationIndex(_index);\n  //   }\n  //  function getConsultationIndexByConsultationID(bytes32 patientName, bytes32 _consulDateID) public view returns(uint){\n  //     return p.getConsultationIndexByConsultationID(_consulDateID);\n  //   }\n\n  //  function getConsultationsByPatientName(bytes32 _pname) public view returns(bytes32[] memory){\n  //     require(hasPatient(getAddressByIndex(patientnameToIndex[_pname])),\"Patient hasn't been found.\");\n  //     return p.getConsultationsByPatientName(_pname);\n  //   }\n\n  //  function getConsultationsByPatientAddress(address patientAddress) public view returns(bytes32[] memory){\n  //     return patientAddressToPatient[patientAddress].getConsultationsByPatientAddress(patientAddress);\n  //   }\n\n  //  function getConsultationIpfsByConsultationID(bytes32 _consulDateID) public view returns (bytes memory) {\n  //     return p.getConsultationIpfsByConsultationID(_consulDateID);\n  //  }\n  // // TESTS\n  //  function testCreate(bytes32 _pname, bytes32 _testDateID, bytes memory newPatientIpfs)public returns(bool){\n  //     return p.testCreate(_pname,_testDateID,newPatientIpfs);\n  //   }\n\n  //  function getTestByTestIndex(bytes32 patientName, uint _index) public view returns(bytes32 testID){\n  //     return patientnameToPatient[patientName].getTestByTestIndex(_index);\n  //   }\n\n  //  function getTestIndexByTestID(bytes32 patientName, bytes32 _testDateID) public view returns(uint){\n  //     return patientnameToPatient[patientName].getTestIndexByTestID(_testDateID);\n  //   }\n\n  //  function getTestsByPatientName(bytes32 _pname) public view returns(bytes32[] memory) {\n  //     return patientnameToPatient[_pname].getTestsByPatientName(_pname);\n  //   }\n\n  //  function getTestsByPatientAddress(address patientAddress) public view returns(bytes32[] memory){\n  //     return p.getTestsByPatientAddress(patientAddress);\n  //   }\n  //  function getTestsCount(bytes32 patientName) public view returns (uint){\n  //     return patientnameToPatient[patientName].getTestsCount();\n  //   }\n  // // MEDICINES\n  //  function saveMedicineForPatientUse(bytes32 patientName, bytes32 consulDateID,bytes32 mname) public returns(bool){\n  //     return patientnameToPatient[patientName].saveMedicineForPatientUse(consulDateID,mname);\n  //   }\n  //  function getMedicinesFromConsultation(bytes32 patientName, bytes32 consulDateID) public view returns(bytes32[] memory){\n  //     return patientnameToPatient[patientName].getMedicinesFromConsultation(consulDateID);\n  //    }\n  //  function getMedicineByIndex(bytes32 patientName, bytes32 _consulDateID,uint index) public view returns(bytes32){\n  //       return patientnameToPatient[patientName].getMedicineByIndex(_consulDateID,index);\n  //    }\n  //  function getMedicineByMedicineName(bytes32 patientName, bytes32 _consulDateID, bytes32 medname)public view returns(bytes32){\n  //       return patientnameToPatient[patientName].getMedicineByMedicineName(_consulDateID, medname);\n  //    }\n  //  function getMedicinesCountFromConsultation(bytes32 patientName, bytes32 _consulDateID) public view returns(uint){\n  //     return patientnameToPatient[patientName].getMedicinesCountFromConsultation(_consulDateID);\n  // }\n}",
  "sourcePath": "/home/eke/patient-eth/contracts/PatientStorage.sol",
  "compiler": {
    "name": "solc",
    "version": "0.5.16+commit.9c3226ce.Emscripten.clang"
  },
  "schemaVersion": "3.1.0",
  "updatedAt": "2020-04-28T18:24:32.857Z",
  "networkType": "ethereum",
  "devdoc": {
    "methods": {}
  },
  "userdoc": {
    "methods": {}
  }
}