{
  "contractName": "Patient",
  "abi": [
    {
      "inputs": [],
      "payable": false,
      "stateMutability": "nonpayable",
      "type": "constructor"
    },
    {
      "anonymous": false,
      "inputs": [
        {
          "indexed": false,
          "internalType": "bytes32",
          "name": "pname",
          "type": "bytes32"
        },
        {
          "indexed": false,
          "internalType": "bytes32",
          "name": "consID",
          "type": "bytes32"
        }
      ],
      "name": "NewConsultationCreated",
      "type": "event"
    },
    {
      "anonymous": false,
      "inputs": [
        {
          "indexed": false,
          "internalType": "bytes32",
          "name": "pname",
          "type": "bytes32"
        },
        {
          "indexed": false,
          "internalType": "bytes32",
          "name": "consID",
          "type": "bytes32"
        },
        {
          "indexed": false,
          "internalType": "bytes32",
          "name": "medname",
          "type": "bytes32"
        }
      ],
      "name": "NewMedicineCreatedForPatient",
      "type": "event"
    },
    {
      "anonymous": false,
      "inputs": [
        {
          "indexed": false,
          "internalType": "bytes32",
          "name": "pname",
          "type": "bytes32"
        },
        {
          "indexed": false,
          "internalType": "bytes32",
          "name": "testID",
          "type": "bytes32"
        }
      ],
      "name": "NewTestCreated",
      "type": "event"
    },
    {
      "constant": false,
      "inputs": [
        {
          "internalType": "bytes32",
          "name": "_patientuname",
          "type": "bytes32"
        },
        {
          "internalType": "bytes",
          "name": "_IpfsHash",
          "type": "bytes"
        }
      ],
      "name": "createPatient",
      "outputs": [],
      "payable": false,
      "stateMutability": "nonpayable",
      "type": "function"
    },
    {
      "constant": false,
      "inputs": [
        {
          "internalType": "bytes",
          "name": "ipfsHash",
          "type": "bytes"
        }
      ],
      "name": "updatePatient",
      "outputs": [
        {
          "internalType": "bool",
          "name": "",
          "type": "bool"
        }
      ],
      "payable": false,
      "stateMutability": "nonpayable",
      "type": "function"
    },
    {
      "constant": false,
      "inputs": [
        {
          "internalType": "bytes32",
          "name": "_pname",
          "type": "bytes32"
        },
        {
          "internalType": "bytes32",
          "name": "_consulDateID",
          "type": "bytes32"
        },
        {
          "internalType": "bytes",
          "name": "newPatientIpfs",
          "type": "bytes"
        }
      ],
      "name": "consultationCreate",
      "outputs": [
        {
          "internalType": "bool",
          "name": "",
          "type": "bool"
        }
      ],
      "payable": false,
      "stateMutability": "nonpayable",
      "type": "function"
    },
    {
      "constant": true,
      "inputs": [
        {
          "internalType": "uint256",
          "name": "_index",
          "type": "uint256"
        }
      ],
      "name": "getConsultationByConsultationIndex",
      "outputs": [
        {
          "internalType": "bytes32",
          "name": "consulID",
          "type": "bytes32"
        }
      ],
      "payable": false,
      "stateMutability": "view",
      "type": "function"
    },
    {
      "constant": true,
      "inputs": [
        {
          "internalType": "bytes32",
          "name": "_consulDateID",
          "type": "bytes32"
        }
      ],
      "name": "getConsultationIndexByConsultationID",
      "outputs": [
        {
          "internalType": "uint256",
          "name": "",
          "type": "uint256"
        }
      ],
      "payable": false,
      "stateMutability": "view",
      "type": "function"
    },
    {
      "constant": true,
      "inputs": [
        {
          "internalType": "bytes32",
          "name": "_pname",
          "type": "bytes32"
        }
      ],
      "name": "getConsultationsByPatientName",
      "outputs": [
        {
          "internalType": "bytes32[]",
          "name": "",
          "type": "bytes32[]"
        }
      ],
      "payable": false,
      "stateMutability": "view",
      "type": "function"
    },
    {
      "constant": true,
      "inputs": [
        {
          "internalType": "address",
          "name": "patientAddress",
          "type": "address"
        }
      ],
      "name": "getConsultationsByPatientAddress",
      "outputs": [
        {
          "internalType": "bytes32[]",
          "name": "",
          "type": "bytes32[]"
        }
      ],
      "payable": false,
      "stateMutability": "view",
      "type": "function"
    },
    {
      "constant": true,
      "inputs": [],
      "name": "getConsultationsCount",
      "outputs": [
        {
          "internalType": "uint256",
          "name": "",
          "type": "uint256"
        }
      ],
      "payable": false,
      "stateMutability": "view",
      "type": "function"
    },
    {
      "constant": false,
      "inputs": [
        {
          "internalType": "bytes32",
          "name": "_pname",
          "type": "bytes32"
        },
        {
          "internalType": "bytes32",
          "name": "_testDateID",
          "type": "bytes32"
        },
        {
          "internalType": "bytes",
          "name": "newPatientIpfs",
          "type": "bytes"
        }
      ],
      "name": "testCreate",
      "outputs": [
        {
          "internalType": "bool",
          "name": "",
          "type": "bool"
        }
      ],
      "payable": false,
      "stateMutability": "nonpayable",
      "type": "function"
    },
    {
      "constant": true,
      "inputs": [
        {
          "internalType": "uint256",
          "name": "_index",
          "type": "uint256"
        }
      ],
      "name": "getTestByTestIndex",
      "outputs": [
        {
          "internalType": "bytes32",
          "name": "testID",
          "type": "bytes32"
        }
      ],
      "payable": false,
      "stateMutability": "view",
      "type": "function"
    },
    {
      "constant": true,
      "inputs": [
        {
          "internalType": "bytes32",
          "name": "_testDateID",
          "type": "bytes32"
        }
      ],
      "name": "getTestIndexByTestID",
      "outputs": [
        {
          "internalType": "uint256",
          "name": "",
          "type": "uint256"
        }
      ],
      "payable": false,
      "stateMutability": "view",
      "type": "function"
    },
    {
      "constant": true,
      "inputs": [
        {
          "internalType": "bytes32",
          "name": "_pname",
          "type": "bytes32"
        }
      ],
      "name": "getTestsByPatientName",
      "outputs": [
        {
          "internalType": "bytes32[]",
          "name": "",
          "type": "bytes32[]"
        }
      ],
      "payable": false,
      "stateMutability": "view",
      "type": "function"
    },
    {
      "constant": true,
      "inputs": [
        {
          "internalType": "address",
          "name": "patientAddress",
          "type": "address"
        }
      ],
      "name": "getTestsByPatientAddress",
      "outputs": [
        {
          "internalType": "bytes32[]",
          "name": "",
          "type": "bytes32[]"
        }
      ],
      "payable": false,
      "stateMutability": "view",
      "type": "function"
    },
    {
      "constant": true,
      "inputs": [],
      "name": "getTestsCount",
      "outputs": [
        {
          "internalType": "uint256",
          "name": "",
          "type": "uint256"
        }
      ],
      "payable": false,
      "stateMutability": "view",
      "type": "function"
    },
    {
      "constant": false,
      "inputs": [
        {
          "internalType": "bytes32",
          "name": "_consulDateID",
          "type": "bytes32"
        },
        {
          "internalType": "bytes32",
          "name": "mname",
          "type": "bytes32"
        }
      ],
      "name": "saveMedicineForPatientUse",
      "outputs": [
        {
          "internalType": "bool",
          "name": "",
          "type": "bool"
        }
      ],
      "payable": false,
      "stateMutability": "nonpayable",
      "type": "function"
    },
    {
      "constant": true,
      "inputs": [
        {
          "internalType": "bytes32",
          "name": "_consulDateID",
          "type": "bytes32"
        }
      ],
      "name": "getMedicinesFromConsultation",
      "outputs": [
        {
          "internalType": "bytes32[]",
          "name": "",
          "type": "bytes32[]"
        }
      ],
      "payable": false,
      "stateMutability": "view",
      "type": "function"
    },
    {
      "constant": true,
      "inputs": [
        {
          "internalType": "bytes32",
          "name": "_consulDateID",
          "type": "bytes32"
        },
        {
          "internalType": "uint256",
          "name": "index",
          "type": "uint256"
        }
      ],
      "name": "getMedicineByIndex",
      "outputs": [
        {
          "internalType": "bytes32",
          "name": "",
          "type": "bytes32"
        }
      ],
      "payable": false,
      "stateMutability": "view",
      "type": "function"
    },
    {
      "constant": true,
      "inputs": [
        {
          "internalType": "bytes32",
          "name": "_consulDateID",
          "type": "bytes32"
        },
        {
          "internalType": "bytes32",
          "name": "medname",
          "type": "bytes32"
        }
      ],
      "name": "getMedicineByMedicineName",
      "outputs": [
        {
          "internalType": "bytes32",
          "name": "",
          "type": "bytes32"
        }
      ],
      "payable": false,
      "stateMutability": "view",
      "type": "function"
    },
    {
      "constant": true,
      "inputs": [
        {
          "internalType": "bytes32",
          "name": "_consulDateID",
          "type": "bytes32"
        }
      ],
      "name": "getMedicinesCountFromConsultation",
      "outputs": [
        {
          "internalType": "uint256",
          "name": "",
          "type": "uint256"
        }
      ],
      "payable": false,
      "stateMutability": "view",
      "type": "function"
    }
  ],
  "bytecode": "0x6080604052604051620000129062000235565b604051809103906000f0801580156200002f573d6000803e3d6000fd5b50600360006101000a81548173ffffffffffffffffffffffffffffffffffffffff021916908373ffffffffffffffffffffffffffffffffffffffff1602179055506040516200007e9062000243565b604051809103906000f0801580156200009b573d6000803e3d6000fd5b50600960006101000a81548173ffffffffffffffffffffffffffffffffffffffff021916908373ffffffffffffffffffffffffffffffffffffffff160217905550348015620000e957600080fd5b50336000806101000a81548173ffffffffffffffffffffffffffffffffffffffff021916908373ffffffffffffffffffffffffffffffffffffffff1602179055507f78000000000000000000000000000000000000000000000000000000000000006001819055506040518060400160405280600181526020017f7800000000000000000000000000000000000000000000000000000000000000815250600290805190602001906200019e92919062000251565b5060088060018154018082558091505090600182039060005260206000200160007f6e6f742d617661696c61626c650000000000000000000000000000000000000090919091505550600d8060018154018082558091505090600182039060005260206000200160007f6e6f742d617661696c61626c65000000000000000000000000000000000000009091909150555062000300565b6104958062001ac983390190565b6101b88062001f5e83390190565b828054600181600116156101000203166002900490600052602060002090601f016020900481019282601f106200029457805160ff1916838001178555620002c5565b82800160010185558215620002c5579182015b82811115620002c4578251825591602001919060010190620002a7565b5b509050620002d49190620002d8565b5090565b620002fd91905b80821115620002f9576000816000905550600101620002df565b5090565b90565b6117b980620003106000396000f3fe608060405234801561001057600080fd5b50600436106101215760003560e01c80634ed37f49116100ad5780637448d8d8116100715780637448d8d8146103b457806394e7ef6e146103e457806398e2fc80146104145780639b9fc6e014610430578063f811f1ab1461046057610121565b80634ed37f49146102d65780635035cf5214610306578063511ad52214610336578063624a4dac14610366578063742752551461038457610121565b80632dce4167116100f45780632dce4167146101e657806330ca739b1461021657806345cfa71d1461024657806348ec2755146102765780634b0cf75e146102a657610121565b80630b8d6eae146101265780631aa5346a14610156578063234c161814610186578063281c8ab7146101b6575b600080fd5b610140600480360361013b919081019061118a565b61047e565b60405161014d919061152d565b60405180910390f35b610170600480360361016b919081019061126f565b610515565b60405161017d919061154f565b60405180910390f35b6101a0600480360361019b919081019061121d565b6105dd565b6040516101ad91906115ae565b60405180910390f35b6101d060048036036101cb919081019061121d565b6105fa565b6040516101dd919061152d565b60405180910390f35b61020060048036036101fb919081019061121d565b6106b9565b60405161020d91906115ae565b60405180910390f35b610230600480360361022b919081019061118a565b6106d6565b60405161023d919061152d565b60405180910390f35b610260600480360361025b919081019061121d565b61076d565b60405161026d919061152d565b60405180910390f35b610290600480360361028b9190810190611366565b6107d8565b60405161029d919061156a565b60405180910390f35b6102c060048036036102bb919081019061126f565b61089e565b6040516102cd919061156a565b60405180910390f35b6102f060048036036102eb919081019061121d565b610964565b6040516102fd91906115ae565b60405180910390f35b610320600480360361031b91908101906112ab565b610a1e565b60405161032d919061154f565b60405180910390f35b610350600480360361034b91908101906113e3565b610bbc565b60405161035d919061156a565b60405180910390f35b61036e610bdd565b60405161037b91906115ae565b60405180910390f35b61039e600480360361039991908101906112ab565b610bea565b6040516103ab919061154f565b60405180910390f35b6103ce60048036036103c9919081019061121d565b610dfc565b6040516103db919061152d565b60405180910390f35b6103fe60048036036103f991908101906113a2565b610e67565b60405161040b919061154f565b60405180910390f35b61042e60048036036104299190810190611312565b610e89565b005b61044a600480360361044591908101906113e3565b610eeb565b604051610457919061156a565b60405180910390f35b610468610f0c565b60405161047591906115ae565b60405180910390f35b6060600660008373ffffffffffffffffffffffffffffffffffffffff1673ffffffffffffffffffffffffffffffffffffffff16815260200190815260200160002080548060200260200160405190810160405280929190818152602001828054801561050957602002820191906000526020600020905b8154815260200190600101908083116104f5575b50505050509050919050565b60006007600084815260200190815260200160002060009054906101000a900473ffffffffffffffffffffffffffffffffffffffff1673ffffffffffffffffffffffffffffffffffffffff16631f97c4c3836040518263ffffffff1660e01b8152600401610583919061156a565b602060405180830381600087803b15801561059d57600080fd5b505af11580156105b1573d6000803e3d6000fd5b505050506040513d601f19601f820116820180604052506105d591908101906111f4565b905092915050565b6000600a6000838152602001908152602001600020549050919050565b60606007600083815260200190815260200160002060009054906101000a900473ffffffffffffffffffffffffffffffffffffffff1673ffffffffffffffffffffffffffffffffffffffff166377e4afe46040518163ffffffff1660e01b815260040160006040518083038186803b15801561067557600080fd5b505afa158015610689573d6000803e3d6000fd5b505050506040513d6000823e3d601f19601f820116820180604052506106b291908101906111b3565b9050919050565b600060046000838152602001908152602001600020549050919050565b6060600660008373ffffffffffffffffffffffffffffffffffffffff1673ffffffffffffffffffffffffffffffffffffffff16815260200190815260200160002080548060200260200160405190810160405280929190818152602001828054801561076157602002820191906000526020600020905b81548152602001906001019080831161074d575b50505050509050919050565b6060600b60008381526020019081526020016000208054806020026020016040519081016040528092919081815260200182805480156107cc57602002820191906000526020600020905b8154815260200190600101908083116107b8575b50505050509050919050565b60006007600084815260200190815260200160002060009054906101000a900473ffffffffffffffffffffffffffffffffffffffff1673ffffffffffffffffffffffffffffffffffffffff16631e50b182836040518263ffffffff1660e01b815260040161084691906115ae565b60206040518083038186803b15801561085e57600080fd5b505afa158015610872573d6000803e3d6000fd5b505050506040513d601f19601f820116820180604052506108969190810190611246565b905092915050565b60006007600084815260200190815260200160002060009054906101000a900473ffffffffffffffffffffffffffffffffffffffff1673ffffffffffffffffffffffffffffffffffffffff1663c294ab1e836040518263ffffffff1660e01b815260040161090c919061156a565b60206040518083038186803b15801561092457600080fd5b505afa158015610938573d6000803e3d6000fd5b505050506040513d601f19601f8201168201806040525061095c9190810190611246565b905092915050565b60006007600083815260200190815260200160002060009054906101000a900473ffffffffffffffffffffffffffffffffffffffff1673ffffffffffffffffffffffffffffffffffffffff1663cd2483416040518163ffffffff1660e01b815260040160206040518083038186803b1580156109df57600080fd5b505afa1580156109f3573d6000803e3d6000fd5b505050506040513d601f19601f82011682018060405250610a17919081019061140c565b9050919050565b6000600960009054906101000a900473ffffffffffffffffffffffffffffffffffffffff1673ffffffffffffffffffffffffffffffffffffffff1663949f3a4e3386866040518463ffffffff1660e01b8152600401610a7f939291906114f6565b600060405180830381600087803b158015610a9957600080fd5b505af1158015610aad573d6000803e3d6000fd5b50505050600d839080600181540180825580915050906001820390600052602060002001600090919290919091505550600d80549050600a600085815260200190815260200160002081905550600d600b6000868152602001908152602001600020908054610b1d929190610f19565b50600d600c60003373ffffffffffffffffffffffffffffffffffffffff1673ffffffffffffffffffffffffffffffffffffffff168152602001908152602001600020908054610b6d929190610f19565b50610b7782610e67565b507f2bb590431d1dfc5d86ac3f951c70a27b4818eb2e4bc69ba773cf6f12b3ca98158484604051610ba9929190611585565b60405180910390a1600190509392505050565b6000600d8281548110610bcb57fe5b90600052602060002001549050919050565b6000600d80549050905090565b6000600360009054906101000a900473ffffffffffffffffffffffffffffffffffffffff1673ffffffffffffffffffffffffffffffffffffffff16637a84135d3386866040518463ffffffff1660e01b8152600401610c4b939291906114f6565b600060405180830381600087803b158015610c6557600080fd5b505af1158015610c79573d6000803e3d6000fd5b5050505060088390806001815401808255809150509060018203906000526020600020016000909192909190915055506008805490506004600085815260200190815260200160002081905550600860056000868152602001908152602001600020908054610ce9929190610f19565b506008600660003373ffffffffffffffffffffffffffffffffffffffff1673ffffffffffffffffffffffffffffffffffffffff168152602001908152602001600020908054610d39929190610f19565b50600360009054906101000a900473ffffffffffffffffffffffffffffffffffffffff166007600085815260200190815260200160002060006101000a81548173ffffffffffffffffffffffffffffffffffffffff021916908373ffffffffffffffffffffffffffffffffffffffff160217905550610db782610e67565b507f8f4940dfc4a4a23294dbd13e6f0929ba11b468a44fc5005a4f895430a844d1088484604051610de9929190611585565b60405180910390a1600190509392505050565b606060056000838152602001908152602001600020805480602002602001604051908101604052809291908181526020018280548015610e5b57602002820191906000526020600020905b815481526020019060010190808311610e47575b50505050509050919050565b60008160029080519060200190610e7f929190610f6b565b5060019050919050565b336000806101000a81548173ffffffffffffffffffffffffffffffffffffffff021916908373ffffffffffffffffffffffffffffffffffffffff160217905550816001819055508060029080519060200190610ee6929190610f6b565b505050565b600060088281548110610efa57fe5b90600052602060002001549050919050565b6000600880549050905090565b828054828255906000526020600020908101928215610f5a5760005260206000209182015b82811115610f59578254825591600101919060010190610f3e565b5b509050610f679190610feb565b5090565b828054600181600116156101000203166002900490600052602060002090601f016020900481019282601f10610fac57805160ff1916838001178555610fda565b82800160010185558215610fda579182015b82811115610fd9578251825591602001919060010190610fbe565b5b509050610fe79190611010565b5090565b61100d91905b80821115611009576000816000905550600101610ff1565b5090565b90565b61103291905b8082111561102e576000816000905550600101611016565b5090565b90565b6000813590506110448161171a565b92915050565b600082601f83011261105b57600080fd5b815161106e611069826115f6565b6115c9565b9150818183526020840193506020810190508385602084028201111561109357600080fd5b60005b838110156110c357816110a988826110f7565b845260208401935060208301925050600181019050611096565b5050505092915050565b6000815190506110dc81611731565b92915050565b6000813590506110f181611748565b92915050565b60008151905061110681611748565b92915050565b600082601f83011261111d57600080fd5b813561113061112b8261161e565b6115c9565b9150808252602083016020830185838301111561114c57600080fd5b61115783828461170b565b50505092915050565b60008135905061116f8161175f565b92915050565b6000815190506111848161175f565b92915050565b60006020828403121561119c57600080fd5b60006111aa84828501611035565b91505092915050565b6000602082840312156111c557600080fd5b600082015167ffffffffffffffff8111156111df57600080fd5b6111eb8482850161104a565b91505092915050565b60006020828403121561120657600080fd5b6000611214848285016110cd565b91505092915050565b60006020828403121561122f57600080fd5b600061123d848285016110e2565b91505092915050565b60006020828403121561125857600080fd5b6000611266848285016110f7565b91505092915050565b6000806040838503121561128257600080fd5b6000611290858286016110e2565b92505060206112a1858286016110e2565b9150509250929050565b6000806000606084860312156112c057600080fd5b60006112ce868287016110e2565b93505060206112df868287016110e2565b925050604084013567ffffffffffffffff8111156112fc57600080fd5b6113088682870161110c565b9150509250925092565b6000806040838503121561132557600080fd5b6000611333858286016110e2565b925050602083013567ffffffffffffffff81111561135057600080fd5b61135c8582860161110c565b9150509250929050565b6000806040838503121561137957600080fd5b6000611387858286016110e2565b925050602061139885828601611160565b9150509250929050565b6000602082840312156113b457600080fd5b600082013567ffffffffffffffff8111156113ce57600080fd5b6113da8482850161110c565b91505092915050565b6000602082840312156113f557600080fd5b600061140384828501611160565b91505092915050565b60006020828403121561141e57600080fd5b600061142c84828501611175565b91505092915050565b600061144183836114c9565b60208301905092915050565b611456816116d5565b82525050565b60006114678261165a565b6114718185611672565b935061147c8361164a565b8060005b838110156114ad5781516114948882611435565b975061149f83611665565b925050600181019050611480565b5085935050505092915050565b6114c381611695565b82525050565b6114d2816116a1565b82525050565b6114e1816116a1565b82525050565b6114f0816116cb565b82525050565b600060608201905061150b600083018661144d565b61151860208301856114d8565b61152560408301846114d8565b949350505050565b60006020820190508181036000830152611547818461145c565b905092915050565b600060208201905061156460008301846114ba565b92915050565b600060208201905061157f60008301846114d8565b92915050565b600060408201905061159a60008301856114d8565b6115a760208301846114d8565b9392505050565b60006020820190506115c360008301846114e7565b92915050565b6000604051905081810181811067ffffffffffffffff821117156115ec57600080fd5b8060405250919050565b600067ffffffffffffffff82111561160d57600080fd5b602082029050602081019050919050565b600067ffffffffffffffff82111561163557600080fd5b601f19601f8301169050602081019050919050565b6000819050602082019050919050565b600081519050919050565b6000602082019050919050565b600082825260208201905092915050565b600061168e826116ab565b9050919050565b60008115159050919050565b6000819050919050565b600073ffffffffffffffffffffffffffffffffffffffff82169050919050565b6000819050919050565b60006116e0826116e7565b9050919050565b60006116f2826116f9565b9050919050565b6000611704826116ab565b9050919050565b82818337600083830152505050565b61172381611683565b811461172e57600080fd5b50565b61173a81611695565b811461174557600080fd5b50565b611751816116a1565b811461175c57600080fd5b50565b611768816116cb565b811461177357600080fd5b5056fea365627a7a72315820af6d5fa3dac9783db29b9f4619fb14dc185ab1b1110f682ba73150c00ab83c136c6578706572696d656e74616cf564736f6c63430005100040608060405234801561001057600080fd5b50336000806101000a81548173ffffffffffffffffffffffffffffffffffffffff021916908373ffffffffffffffffffffffffffffffffffffffff1602179055507f78000000000000000000000000000000000000000000000000000000000000006001819055507f780000000000000000000000000000000000000000000000000000000000000060028190555060038060018154018082558091505090600182039060005260206000200160007f6e6f742d617661696c61626c65000000000000000000000000000000000000009091909150555061039f806100f66000396000f3fe608060405234801561001057600080fd5b50600436106100625760003560e01c80631e50b182146100675780631f97c4c3146100a957806377e4afe4146100ef5780637a84135d1461014e578063c294ab1e146101a6578063cd248341146101e8575b600080fd5b6100936004803603602081101561007d57600080fd5b8101908080359060200190929190505050610206565b6040518082815260200191505060405180910390f35b6100d5600480360360208110156100bf57600080fd5b8101908080359060200190929190505050610227565b604051808215151515815260200191505060405180910390f35b6100f761027e565b6040518080602001828103825283818151815260200191508051906020019060200280838360005b8381101561013a57808201518184015260208101905061011f565b505050509050019250505060405180910390f35b6101a46004803603606081101561016457600080fd5b81019080803573ffffffffffffffffffffffffffffffffffffffff16906020019092919080359060200190929190803590602001909291905050506102d6565b005b6101d2600480360360208110156101bc57600080fd5b8101908080359060200190929190505050610329565b6040518082815260200191505060405180910390f35b6101f061035d565b6040518082815260200191505060405180910390f35b60006003828154811061021557fe5b90600052602060002001549050919050565b60006003829080600181540180825580915050906001820390600052602060002001600090919290919091505550600160038054905003600460008481526020019081526020016000208190555060019050919050565b606060038054806020026020016040519081016040528092919081815260200182805480156102cc57602002820191906000526020600020905b8154815260200190600101908083116102b8575b5050505050905090565b826000806101000a81548173ffffffffffffffffffffffffffffffffffffffff021916908373ffffffffffffffffffffffffffffffffffffffff1602179055508160018190555080600281905550505050565b6000600360046000848152602001908152602001600020548154811061034b57fe5b90600052602060002001549050919050565b600060038054905090509056fea265627a7a723158205bd7e4141aecde8c0fcd328ec910c5d28ee1a196a7313bdb291403b410ac856b64736f6c63430005100032608060405234801561001057600080fd5b50336000806101000a81548173ffffffffffffffffffffffffffffffffffffffff021916908373ffffffffffffffffffffffffffffffffffffffff1602179055507f78000000000000000000000000000000000000000000000000000000000000006001819055507f780000000000000000000000000000000000000000000000000000000000000060028190555061010a806100ae6000396000f3fe6080604052348015600f57600080fd5b506004361060285760003560e01c8063949f3a4e14602d575b600080fd5b608060048036036060811015604157600080fd5b81019080803573ffffffffffffffffffffffffffffffffffffffff16906020019092919080359060200190929190803590602001909291905050506082565b005b826000806101000a81548173ffffffffffffffffffffffffffffffffffffffff021916908373ffffffffffffffffffffffffffffffffffffffff160217905550816001819055508060028190555050505056fea265627a7a723158200e0d04935d3d6d80a7597a1103df7e21528351ad5d14c4d332914134aec528c164736f6c63430005100032",
  "source": "pragma solidity >=0.5.16;\npragma experimental ABIEncoderV2;\nimport \"./Consultation.sol\";\nimport \"./Test.sol\";\n\ncontract Patient{\n    address private addr;\n    bytes32 private patientuname;\n    bytes private IpfsHash;\n    Consultation c = new Consultation();\n\n    // Consultation mapping\n    mapping(bytes32 => uint) private consulDateIDToIndex;\n    mapping(bytes32 => bytes32[]) pnameToConsulArray;\n    mapping(address => bytes32[]) paddressToConsulArray;\n    mapping(bytes32 => Consultation) consulDateIDToCons;\n    bytes32[] consIDs;\n\n    // Test mapping\n    Test t = new Test();\n    mapping(bytes32 => uint) private testDateIDToIndex;\n    mapping(bytes32 => bytes32[]) pnameToTestArray;\n    mapping(address => bytes32[]) paddressToTestArray;\n    bytes32[] testIDs;\n\n    event NewConsultationCreated(bytes32 pname, bytes32 consID);\n    event NewTestCreated(bytes32 pname, bytes32 testID);\n    event NewMedicineCreatedForPatient(bytes32 pname, bytes32 consID, bytes32 medname);\n\n    constructor() public{\n        addr = msg.sender;\n        patientuname = 'x';\n        IpfsHash = 'x';\n        consIDs.push('not-available');\n        testIDs.push('not-available');\n     }\n\n    function createPatient(bytes32 _patientuname,bytes memory _IpfsHash) public {\n        addr = msg.sender;\n        patientuname = _patientuname;\n        IpfsHash = _IpfsHash;\n    }\n\n    function updatePatient(bytes memory ipfsHash) public returns(bool){\n        IpfsHash = ipfsHash;\n        return true;\n     }\n\n    // CONSULTATIONS\n    function consultationCreate(bytes32 _pname, bytes32 _consulDateID, bytes memory newPatientIpfs)public returns(bool){\n        // Create new consultation with ID\n        c.createConsultation(msg.sender, _pname, _consulDateID);\n        consIDs.push(_consulDateID);\n        consulDateIDToIndex[_consulDateID] = consIDs.length;\n        pnameToConsulArray[_pname] = consIDs;\n        paddressToConsulArray[msg.sender] = consIDs;\n        consulDateIDToCons[_consulDateID] = c;\n        // Consultations hash append to patient ipfs storage\n        updatePatient(newPatientIpfs);\n        emit NewConsultationCreated(_pname, _consulDateID);\n        return true;\n     }\n\n    function getConsultationByConsultationIndex(uint _index) public view returns(bytes32 consulID){\n        return (consIDs[_index]);\n     }\n\n    function getConsultationIndexByConsultationID(bytes32 _consulDateID) public view returns(uint){\n        return consulDateIDToIndex[_consulDateID];\n     }\n\n    function getConsultationsByPatientName(bytes32 _pname) public view returns(bytes32[] memory) {\n        return (pnameToConsulArray[_pname]);\n     }\n\n    function getConsultationsByPatientAddress(address patientAddress) public view returns(bytes32[] memory){\n        return(paddressToConsulArray[patientAddress]);\n     }\n    function getConsultationsCount() public view returns (uint){\n        return consIDs.length;\n     }\n    // TESTS\n    function testCreate(bytes32 _pname, bytes32 _testDateID, bytes memory newPatientIpfs)public returns(bool){\n        // Create new test with ID\n        t.createTest(msg.sender, _pname, _testDateID);\n        testIDs.push(_testDateID);\n        testDateIDToIndex[_testDateID] = testIDs.length;\n        pnameToTestArray[_pname] = testIDs;\n        paddressToTestArray[msg.sender] = testIDs;\n        // Consultations hash append to patient ipfs storage\n        updatePatient(newPatientIpfs);\n        emit NewTestCreated(_pname, _testDateID);\n        return true;\n     }\n\n    function getTestByTestIndex(uint _index) public view returns(bytes32 testID){\n        return (testIDs[_index]);\n     }\n\n    function getTestIndexByTestID(bytes32 _testDateID) public view returns(uint){\n        return testDateIDToIndex[_testDateID];\n     }\n\n    function getTestsByPatientName(bytes32 _pname) public view returns(bytes32[] memory) {\n        return (pnameToTestArray[_pname]);\n     }\n\n    function getTestsByPatientAddress(address patientAddress) public view returns(bytes32[] memory){\n        return(paddressToConsulArray[patientAddress]);\n     }\n    function getTestsCount() public view returns (uint){\n        return testIDs.length;\n     }\n\n    function saveMedicineForPatientUse(bytes32 _consulDateID, bytes32 mname) public returns(bool){\n        return consulDateIDToCons[_consulDateID].saveMedicineForPatientUse(mname);\n     }\n    function getMedicinesFromConsultation(bytes32 _consulDateID) public view returns(bytes32[] memory){\n        return consulDateIDToCons[_consulDateID].getMedicinesFromConsultation();\n     }\n    function getMedicineByIndex(bytes32 _consulDateID,uint index) public view returns(bytes32){\n        return consulDateIDToCons[_consulDateID].getMedicineByIndex(index);\n     }\n    function getMedicineByMedicineName(bytes32 _consulDateID, bytes32 medname)public view returns(bytes32){\n        return consulDateIDToCons[_consulDateID].getMedicineByMedicineName(medname);\n     }\n    function getMedicinesCountFromConsultation(bytes32 _consulDateID) public view returns(uint){\n        return consulDateIDToCons[_consulDateID].getMedicinesCountFromConsultation();\n     }\n}",
  "sourcePath": "/home/eke/Desktop/patient-eth-master/contracts/Patient.sol",
  "compiler": {
    "name": "solc",
    "version": "0.5.16+commit.9c3226ce.Emscripten.clang"
  },
  "schemaVersion": "3.1.0",
  "updatedAt": "2020-04-24T13:45:46.474Z",
  "networkType": "ethereum",
  "devdoc": {
    "methods": {}
  },
  "userdoc": {
    "methods": {}
  }
}