{
  "contractName": "PatientStorage",
  "abi": [
    {
      "inputs": [],
      "payable": false,
      "stateMutability": "nonpayable",
      "type": "constructor"
    },
    {
      "constant": false,
      "inputs": [
        {
          "internalType": "bytes32",
          "name": "patientName",
          "type": "bytes32"
        },
        {
          "internalType": "bytes",
          "name": "ipfsHash",
          "type": "bytes"
        }
      ],
      "name": "registerPatient",
      "outputs": [
        {
          "internalType": "bool",
          "name": "",
          "type": "bool"
        }
      ],
      "payable": false,
      "stateMutability": "nonpayable",
      "type": "function"
    },
    {
      "constant": true,
      "inputs": [
        {
          "internalType": "address",
          "name": "_patientAdresses",
          "type": "address"
        }
      ],
      "name": "hasPatient",
      "outputs": [
        {
          "internalType": "bool",
          "name": "",
          "type": "bool"
        }
      ],
      "payable": false,
      "stateMutability": "view",
      "type": "function"
    },
    {
      "constant": true,
      "inputs": [
        {
          "internalType": "bytes32",
          "name": "pname",
          "type": "bytes32"
        }
      ],
      "name": "patientNameTaken",
      "outputs": [
        {
          "internalType": "bool",
          "name": "takenIndeed",
          "type": "bool"
        }
      ],
      "payable": false,
      "stateMutability": "view",
      "type": "function"
    },
    {
      "constant": false,
      "inputs": [
        {
          "internalType": "bytes",
          "name": "ipfsHash",
          "type": "bytes"
        }
      ],
      "name": "updatePatient",
      "outputs": [
        {
          "internalType": "bool",
          "name": "",
          "type": "bool"
        }
      ],
      "payable": false,
      "stateMutability": "nonpayable",
      "type": "function"
    },
    {
      "constant": true,
      "inputs": [],
      "name": "getPatientCount",
      "outputs": [
        {
          "internalType": "uint256",
          "name": "",
          "type": "uint256"
        }
      ],
      "payable": false,
      "stateMutability": "view",
      "type": "function"
    },
    {
      "constant": true,
      "inputs": [
        {
          "internalType": "bytes32",
          "name": "_pname",
          "type": "bytes32"
        }
      ],
      "name": "getPatientByPatientname",
      "outputs": [
        {
          "internalType": "contract Patient",
          "name": "",
          "type": "address"
        }
      ],
      "payable": false,
      "stateMutability": "view",
      "type": "function"
    },
    {
      "constant": true,
      "inputs": [
        {
          "internalType": "uint256",
          "name": "index",
          "type": "uint256"
        }
      ],
      "name": "getPatientByIndex",
      "outputs": [
        {
          "internalType": "address",
          "name": "",
          "type": "address"
        },
        {
          "internalType": "bytes32",
          "name": "",
          "type": "bytes32"
        },
        {
          "internalType": "bytes",
          "name": "",
          "type": "bytes"
        }
      ],
      "payable": false,
      "stateMutability": "view",
      "type": "function"
    },
    {
      "constant": true,
      "inputs": [
        {
          "internalType": "uint256",
          "name": "index",
          "type": "uint256"
        }
      ],
      "name": "getAddressByIndex",
      "outputs": [
        {
          "internalType": "address",
          "name": "",
          "type": "address"
        }
      ],
      "payable": false,
      "stateMutability": "view",
      "type": "function"
    },
    {
      "constant": true,
      "inputs": [
        {
          "internalType": "uint256",
          "name": "index",
          "type": "uint256"
        }
      ],
      "name": "getPatientNameByIndex",
      "outputs": [
        {
          "internalType": "bytes32",
          "name": "",
          "type": "bytes32"
        }
      ],
      "payable": false,
      "stateMutability": "view",
      "type": "function"
    },
    {
      "constant": true,
      "inputs": [
        {
          "internalType": "uint256",
          "name": "index",
          "type": "uint256"
        }
      ],
      "name": "getIpfsHashByIndex",
      "outputs": [
        {
          "internalType": "bytes",
          "name": "",
          "type": "bytes"
        }
      ],
      "payable": false,
      "stateMutability": "view",
      "type": "function"
    },
    {
      "constant": true,
      "inputs": [
        {
          "internalType": "address",
          "name": "patientAddress",
          "type": "address"
        }
      ],
      "name": "getPatientByAddress",
      "outputs": [
        {
          "internalType": "uint256",
          "name": "",
          "type": "uint256"
        },
        {
          "internalType": "bytes32",
          "name": "",
          "type": "bytes32"
        },
        {
          "internalType": "bytes",
          "name": "",
          "type": "bytes"
        }
      ],
      "payable": false,
      "stateMutability": "view",
      "type": "function"
    },
    {
      "constant": true,
      "inputs": [
        {
          "internalType": "address",
          "name": "patientAddress",
          "type": "address"
        }
      ],
      "name": "getIndexByAddress",
      "outputs": [
        {
          "internalType": "uint256",
          "name": "",
          "type": "uint256"
        }
      ],
      "payable": false,
      "stateMutability": "view",
      "type": "function"
    },
    {
      "constant": true,
      "inputs": [
        {
          "internalType": "address",
          "name": "patientAddress",
          "type": "address"
        }
      ],
      "name": "getPatientNameByAddress",
      "outputs": [
        {
          "internalType": "bytes32",
          "name": "",
          "type": "bytes32"
        }
      ],
      "payable": false,
      "stateMutability": "view",
      "type": "function"
    },
    {
      "constant": true,
      "inputs": [
        {
          "internalType": "address",
          "name": "patientAddress",
          "type": "address"
        }
      ],
      "name": "getIpfsHashByAddress",
      "outputs": [
        {
          "internalType": "bytes",
          "name": "",
          "type": "bytes"
        }
      ],
      "payable": false,
      "stateMutability": "view",
      "type": "function"
    },
    {
      "constant": true,
      "inputs": [
        {
          "internalType": "bytes32",
          "name": "patientname",
          "type": "bytes32"
        }
      ],
      "name": "getPatientByPatientName",
      "outputs": [
        {
          "internalType": "uint256",
          "name": "",
          "type": "uint256"
        },
        {
          "internalType": "address",
          "name": "",
          "type": "address"
        },
        {
          "internalType": "bytes",
          "name": "",
          "type": "bytes"
        }
      ],
      "payable": false,
      "stateMutability": "view",
      "type": "function"
    },
    {
      "constant": true,
      "inputs": [
        {
          "internalType": "bytes32",
          "name": "patientname",
          "type": "bytes32"
        }
      ],
      "name": "getIndexByPatientName",
      "outputs": [
        {
          "internalType": "uint256",
          "name": "",
          "type": "uint256"
        }
      ],
      "payable": false,
      "stateMutability": "view",
      "type": "function"
    },
    {
      "constant": true,
      "inputs": [
        {
          "internalType": "bytes32",
          "name": "patientname",
          "type": "bytes32"
        }
      ],
      "name": "getAddressByPatientName",
      "outputs": [
        {
          "internalType": "address",
          "name": "",
          "type": "address"
        }
      ],
      "payable": false,
      "stateMutability": "view",
      "type": "function"
    },
    {
      "constant": true,
      "inputs": [
        {
          "internalType": "bytes32",
          "name": "patientname",
          "type": "bytes32"
        }
      ],
      "name": "getIpfsHashByPatientName",
      "outputs": [
        {
          "internalType": "bytes",
          "name": "",
          "type": "bytes"
        }
      ],
      "payable": false,
      "stateMutability": "view",
      "type": "function"
    },
    {
      "constant": false,
      "inputs": [
        {
          "internalType": "bytes32",
          "name": "_pname",
          "type": "bytes32"
        },
        {
          "internalType": "bytes32",
          "name": "_consulDateID",
          "type": "bytes32"
        },
        {
          "internalType": "bytes",
          "name": "newPatientIpfs",
          "type": "bytes"
        }
      ],
      "name": "consultationCreate",
      "outputs": [
        {
          "internalType": "bool",
          "name": "",
          "type": "bool"
        }
      ],
      "payable": false,
      "stateMutability": "nonpayable",
      "type": "function"
    },
    {
      "constant": true,
      "inputs": [
        {
          "internalType": "bytes32",
          "name": "patientName",
          "type": "bytes32"
        },
        {
          "internalType": "uint256",
          "name": "_index",
          "type": "uint256"
        }
      ],
      "name": "getConsultationByConsultationIndex",
      "outputs": [
        {
          "internalType": "bytes32",
          "name": "consulID",
          "type": "bytes32"
        }
      ],
      "payable": false,
      "stateMutability": "view",
      "type": "function"
    },
    {
      "constant": true,
      "inputs": [
        {
          "internalType": "bytes32",
          "name": "patientName",
          "type": "bytes32"
        },
        {
          "internalType": "bytes32",
          "name": "_consulDateID",
          "type": "bytes32"
        }
      ],
      "name": "getConsultationIndexByConsultationID",
      "outputs": [
        {
          "internalType": "uint256",
          "name": "",
          "type": "uint256"
        }
      ],
      "payable": false,
      "stateMutability": "view",
      "type": "function"
    },
    {
      "constant": true,
      "inputs": [
        {
          "internalType": "bytes32",
          "name": "_pname",
          "type": "bytes32"
        }
      ],
      "name": "getConsultationsByPatientName",
      "outputs": [
        {
          "internalType": "bytes32[]",
          "name": "",
          "type": "bytes32[]"
        }
      ],
      "payable": false,
      "stateMutability": "view",
      "type": "function"
    },
    {
      "constant": true,
      "inputs": [
        {
          "internalType": "address",
          "name": "patientAddress",
          "type": "address"
        }
      ],
      "name": "getConsultationsByPatientAddress",
      "outputs": [
        {
          "internalType": "bytes32[]",
          "name": "",
          "type": "bytes32[]"
        }
      ],
      "payable": false,
      "stateMutability": "view",
      "type": "function"
    },
    {
      "constant": false,
      "inputs": [
        {
          "internalType": "bytes32",
          "name": "_pname",
          "type": "bytes32"
        },
        {
          "internalType": "bytes32",
          "name": "_testDateID",
          "type": "bytes32"
        },
        {
          "internalType": "bytes",
          "name": "newPatientIpfs",
          "type": "bytes"
        }
      ],
      "name": "testCreate",
      "outputs": [
        {
          "internalType": "bool",
          "name": "",
          "type": "bool"
        }
      ],
      "payable": false,
      "stateMutability": "nonpayable",
      "type": "function"
    },
    {
      "constant": true,
      "inputs": [
        {
          "internalType": "bytes32",
          "name": "patientName",
          "type": "bytes32"
        },
        {
          "internalType": "uint256",
          "name": "_index",
          "type": "uint256"
        }
      ],
      "name": "getTestByTestIndex",
      "outputs": [
        {
          "internalType": "bytes32",
          "name": "testID",
          "type": "bytes32"
        }
      ],
      "payable": false,
      "stateMutability": "view",
      "type": "function"
    },
    {
      "constant": true,
      "inputs": [
        {
          "internalType": "bytes32",
          "name": "patientName",
          "type": "bytes32"
        },
        {
          "internalType": "bytes32",
          "name": "_testDateID",
          "type": "bytes32"
        }
      ],
      "name": "getTestIndexByTestID",
      "outputs": [
        {
          "internalType": "uint256",
          "name": "",
          "type": "uint256"
        }
      ],
      "payable": false,
      "stateMutability": "view",
      "type": "function"
    },
    {
      "constant": true,
      "inputs": [
        {
          "internalType": "bytes32",
          "name": "_pname",
          "type": "bytes32"
        }
      ],
      "name": "getTestsByPatientName",
      "outputs": [
        {
          "internalType": "bytes32[]",
          "name": "",
          "type": "bytes32[]"
        }
      ],
      "payable": false,
      "stateMutability": "view",
      "type": "function"
    },
    {
      "constant": true,
      "inputs": [
        {
          "internalType": "address",
          "name": "patientAddress",
          "type": "address"
        }
      ],
      "name": "getTestsByPatientAddress",
      "outputs": [
        {
          "internalType": "bytes32[]",
          "name": "",
          "type": "bytes32[]"
        }
      ],
      "payable": false,
      "stateMutability": "view",
      "type": "function"
    },
    {
      "constant": true,
      "inputs": [
        {
          "internalType": "bytes32",
          "name": "patientName",
          "type": "bytes32"
        }
      ],
      "name": "getTestsCount",
      "outputs": [
        {
          "internalType": "uint256",
          "name": "",
          "type": "uint256"
        }
      ],
      "payable": false,
      "stateMutability": "view",
      "type": "function"
    },
    {
      "constant": false,
      "inputs": [
        {
          "internalType": "bytes32",
          "name": "patientName",
          "type": "bytes32"
        },
        {
          "internalType": "bytes32",
          "name": "consulDateID",
          "type": "bytes32"
        },
        {
          "internalType": "bytes32",
          "name": "mname",
          "type": "bytes32"
        }
      ],
      "name": "saveMedicineForPatientUse",
      "outputs": [
        {
          "internalType": "bool",
          "name": "",
          "type": "bool"
        }
      ],
      "payable": false,
      "stateMutability": "nonpayable",
      "type": "function"
    },
    {
      "constant": true,
      "inputs": [
        {
          "internalType": "bytes32",
          "name": "patientName",
          "type": "bytes32"
        },
        {
          "internalType": "bytes32",
          "name": "consulDateID",
          "type": "bytes32"
        }
      ],
      "name": "getMedicinesFromConsultation",
      "outputs": [
        {
          "internalType": "bytes32[]",
          "name": "",
          "type": "bytes32[]"
        }
      ],
      "payable": false,
      "stateMutability": "view",
      "type": "function"
    },
    {
      "constant": true,
      "inputs": [
        {
          "internalType": "bytes32",
          "name": "patientName",
          "type": "bytes32"
        },
        {
          "internalType": "bytes32",
          "name": "_consulDateID",
          "type": "bytes32"
        },
        {
          "internalType": "uint256",
          "name": "index",
          "type": "uint256"
        }
      ],
      "name": "getMedicineByIndex",
      "outputs": [
        {
          "internalType": "bytes32",
          "name": "",
          "type": "bytes32"
        }
      ],
      "payable": false,
      "stateMutability": "view",
      "type": "function"
    },
    {
      "constant": true,
      "inputs": [
        {
          "internalType": "bytes32",
          "name": "patientName",
          "type": "bytes32"
        },
        {
          "internalType": "bytes32",
          "name": "_consulDateID",
          "type": "bytes32"
        },
        {
          "internalType": "bytes32",
          "name": "medname",
          "type": "bytes32"
        }
      ],
      "name": "getMedicineByMedicineName",
      "outputs": [
        {
          "internalType": "bytes32",
          "name": "",
          "type": "bytes32"
        }
      ],
      "payable": false,
      "stateMutability": "view",
      "type": "function"
    },
    {
      "constant": true,
      "inputs": [
        {
          "internalType": "bytes32",
          "name": "patientName",
          "type": "bytes32"
        },
        {
          "internalType": "bytes32",
          "name": "_consulDateID",
          "type": "bytes32"
        }
      ],
      "name": "getMedicinesCountFromConsultation",
      "outputs": [
        {
          "internalType": "uint256",
          "name": "",
          "type": "uint256"
        }
      ],
      "payable": false,
      "stateMutability": "view",
      "type": "function"
    }
  ],
  "bytecode": "0x60806040526040516200001290620001a4565b604051809103906000f0801580156200002f573d6000803e3d6000fd5b50600760006101000a81548173ffffffffffffffffffffffffffffffffffffffff021916908373ffffffffffffffffffffffffffffffffffffffff1602179055503480156200007d57600080fd5b5060023390806001815401808255809150509060018203906000526020600020016000909192909190916101000a81548173ffffffffffffffffffffffffffffffffffffffff021916908373ffffffffffffffffffffffffffffffffffffffff1602179055505060038060018154018082558091505090600182039060005260206000200160007f78000000000000000000000000000000000000000000000000000000000000009091909150555060048060018154018082558091505090600182039060005260206000200160006040518060400160405280600d81526020017f6e6f742d617661696c61626c6500000000000000000000000000000000000000815250909190915090805190602001906200019c929190620001b2565b505062000261565b612116806200353d83390190565b828054600181600116156101000203166002900490600052602060002090601f016020900481019282601f10620001f557805160ff191683800117855562000226565b8280016001018555821562000226579182015b828111156200022557825182559160200191906001019062000208565b5b50905062000235919062000239565b5090565b6200025e91905b808211156200025a57600081600090555060010162000240565b5090565b90565b6132cc80620002716000396000f3fe608060405234801561001057600080fd5b50600436106102065760003560e01c80637b63cec41161011a578063c190665b116100ad578063eb9fbaa91161007c578063eb9fbaa91461076f578063ed96cf391461079f578063f421ba10146107cf578063f7932fb0146107ff578063f7a65e601461082f57610206565b8063c190665b146106c1578063cbb7e2ff146106df578063ce10cf881461070f578063dfb7ab601461073f57610206565b8063b1d5458d116100e9578063b1d5458d146105ff578063b9aa549b1461062f578063b9affb931461065f578063ba5c03351461068f57610206565b80637b63cec41461053d57806394e7ef6e1461056d578063a74380a61461059d578063ad36054b146105cd57610206565b806345cfa71d1161019d5780635fe721ff1161016c5780635fe721ff1461044d578063687619541461047d5780636cfbc8fd146104ad57806374275255146104dd5780637448d8d81461050d57610206565b806345cfa71d1461038b57806348099797146103bb5780635035cf52146103eb57806357ea0c2f1461041b57610206565b806324ecae0b116101d957806324ecae0b146102cb57806329f78d88146102fb57806330ca739b1461032b5780633fe285d51461035b57610206565b8063083121ad1461020b5780630b8d6eae1461023b5780631973ef911461026b57806320cfcbfa1461029b575b600080fd5b61022560048036036102209190810190612867565b61085f565b6040516102329190612dd3565b60405180910390f35b61025560048036036102509190810190612746565b61092a565b6040516102629190612db1565b60405180910390f35b61028560048036036102809190810190612746565b6109e3565b6040516102929190612fe6565b60405180910390f35b6102b560048036036102b091908101906127d9565b610a73565b6040516102c29190612fe6565b60405180910390f35b6102e560048036036102e09190810190612867565b610b2d565b6040516102f29190612dee565b60405180910390f35b61031560048036036103109190810190612a3d565b610bf6565b6040516103229190612ec9565b60405180910390f35b61034560048036036103409190810190612746565b610cf6565b6040516103529190612db1565b60405180910390f35b6103756004803603610370919081019061282b565b610dec565b6040516103829190612fe6565b60405180910390f35b6103a560048036036103a091908101906127d9565b610eb2565b6040516103b29190612db1565b60405180910390f35b6103d560048036036103d0919081019061282b565b610f7c565b6040516103e29190612db1565b60405180910390f35b610405600480360361040091908101906128b6565b611047565b6040516104129190612dd3565b60405180910390f35b61043560048036036104309190810190612a3d565b611114565b60405161044493929190612d73565b60405180910390f35b610467600480360361046291908101906129c0565b611270565b6040516104749190612dee565b60405180910390f35b6104976004803603610492919081019061296c565b611336565b6040516104a49190612dd3565b60405180910390f35b6104c760048036036104c291908101906127d9565b61159f565b6040516104d49190612d58565b60405180910390f35b6104f760048036036104f291908101906128b6565b61163b565b6040516105049190612dd3565b60405180910390f35b610527600480360361052291908101906127d9565b6116f7565b6040516105349190612db1565b60405180910390f35b610557600480360361055291908101906127d9565b611824565b6040516105649190612dd3565b60405180910390f35b610587600480360361058291908101906129fc565b61186d565b6040516105949190612dd3565b60405180910390f35b6105b760048036036105b29190810190612746565b61196f565b6040516105c49190612ec9565b60405180910390f35b6105e760048036036105e291908101906127d9565b611aae565b6040516105f693929190613001565b60405180910390f35b610619600480360361061491908101906127d9565b611c3f565b6040516106269190612fe6565b60405180910390f35b610649600480360361064491908101906129c0565b611ca4565b6040516106569190612dee565b60405180910390f35b61067960048036036106749190810190612746565b611d6a565b6040516106869190612dee565b60405180910390f35b6106a960048036036106a49190810190612746565b611e11565b6040516106b89392919061303f565b60405180910390f35b6106c9611ff1565b6040516106d69190612fe6565b60405180910390f35b6106f960048036036106f49190810190612a3d565b611ffe565b6040516107069190612dee565b60405180910390f35b61072960048036036107249190810190612a3d565b612066565b6040516107369190612d58565b60405180910390f35b610759600480360361075491908101906127d9565b6120ee565b6040516107669190612ec9565b60405180910390f35b61078960048036036107849190810190612746565b612202565b6040516107969190612dd3565b60405180910390f35b6107b960048036036107b4919081019061282b565b6122ba565b6040516107c69190612fe6565b60405180910390f35b6107e960048036036107e4919081019061282b565b612380565b6040516107f69190612fe6565b60405180910390f35b610819600480360361081491908101906127d9565b612446565b6040516108269190612eeb565b60405180910390f35b6108496004803603610844919081019061291d565b612483565b6040516108569190612dee565b60405180910390f35b60006005600085815260200190815260200160002060009054906101000a900473ffffffffffffffffffffffffffffffffffffffff1673ffffffffffffffffffffffffffffffffffffffff16631aa5346a84846040518363ffffffff1660e01b81526004016108cf929190612e09565b602060405180830381600087803b1580156108e957600080fd5b505af11580156108fd573d6000803e3d6000fd5b505050506040513d601f19601f8201168201806040525061092191908101906127b0565b90509392505050565b6060600760009054906101000a900473ffffffffffffffffffffffffffffffffffffffff1673ffffffffffffffffffffffffffffffffffffffff16630b8d6eae836040518263ffffffff1660e01b81526004016109879190612d58565b60006040518083038186803b15801561099f57600080fd5b505afa1580156109b3573d6000803e3d6000fd5b505050506040513d6000823e3d601f19601f820116820180604052506109dc919081019061276f565b9050919050565b60006109ee82612202565b610a2d576040517f08c379a0000000000000000000000000000000000000000000000000000000008152600401610a2490612f06565b60405180910390fd5b6000808373ffffffffffffffffffffffffffffffffffffffff1673ffffffffffffffffffffffffffffffffffffffff168152602001908152602001600020549050919050565b60006005600083815260200190815260200160002060009054906101000a900473ffffffffffffffffffffffffffffffffffffffff1673ffffffffffffffffffffffffffffffffffffffff1663624a4dac6040518163ffffffff1660e01b815260040160206040518083038186803b158015610aee57600080fd5b505afa158015610b02573d6000803e3d6000fd5b505050506040513d601f19601f82011682018060405250610b269190810190612a66565b9050919050565b60006005600085815260200190815260200160002060009054906101000a900473ffffffffffffffffffffffffffffffffffffffff1673ffffffffffffffffffffffffffffffffffffffff16634b0cf75e84846040518363ffffffff1660e01b8152600401610b9d929190612e09565b60206040518083038186803b158015610bb557600080fd5b505afa158015610bc9573d6000803e3d6000fd5b505050506040513d601f19601f82011682018060405250610bed9190810190612802565b90509392505050565b60606002805490508210610c3f576040517f08c379a0000000000000000000000000000000000000000000000000000000008152600401610c3690612fa6565b60405180910390fd5b60048281548110610c4c57fe5b906000526020600020018054600181600116156101000203166002900480601f016020809104026020016040519081016040528092919081815260200182805460018160011615610100020316600290048015610cea5780601f10610cbf57610100808354040283529160200191610cea565b820191906000526020600020905b815481529060010190602001808311610ccd57829003601f168201915b50505050509050919050565b6060600660008373ffffffffffffffffffffffffffffffffffffffff1673ffffffffffffffffffffffffffffffffffffffff16815260200190815260200160002060009054906101000a900473ffffffffffffffffffffffffffffffffffffffff1673ffffffffffffffffffffffffffffffffffffffff166330ca739b836040518263ffffffff1660e01b8152600401610d909190612d58565b60006040518083038186803b158015610da857600080fd5b505afa158015610dbc573d6000803e3d6000fd5b505050506040513d6000823e3d601f19601f82011682018060405250610de5919081019061276f565b9050919050565b60006005600084815260200190815260200160002060009054906101000a900473ffffffffffffffffffffffffffffffffffffffff1673ffffffffffffffffffffffffffffffffffffffff16632dce4167836040518263ffffffff1660e01b8152600401610e5a9190612dee565b60206040518083038186803b158015610e7257600080fd5b505afa158015610e86573d6000803e3d6000fd5b505050506040513d601f19601f82011682018060405250610eaa9190810190612a66565b905092915050565b60606005600083815260200190815260200160002060009054906101000a900473ffffffffffffffffffffffffffffffffffffffff1673ffffffffffffffffffffffffffffffffffffffff166345cfa71d836040518263ffffffff1660e01b8152600401610f209190612dee565b60006040518083038186803b158015610f3857600080fd5b505afa158015610f4c573d6000803e3d6000fd5b505050506040513d6000823e3d601f19601f82011682018060405250610f75919081019061276f565b9050919050565b60606005600084815260200190815260200160002060009054906101000a900473ffffffffffffffffffffffffffffffffffffffff1673ffffffffffffffffffffffffffffffffffffffff1663281c8ab7836040518263ffffffff1660e01b8152600401610fea9190612dee565b60006040518083038186803b15801561100257600080fd5b505afa158015611016573d6000803e3d6000fd5b505050506040513d6000823e3d601f19601f8201168201806040525061103f919081019061276f565b905092915050565b60006005600085815260200190815260200160002060009054906101000a900473ffffffffffffffffffffffffffffffffffffffff1673ffffffffffffffffffffffffffffffffffffffff16635035cf528585856040518463ffffffff1660e01b81526004016110b993929190612e32565b602060405180830381600087803b1580156110d357600080fd5b505af11580156110e7573d6000803e3d6000fd5b505050506040513d601f19601f8201168201806040525061110b91908101906127b0565b90509392505050565b60008060606002805490508410611160576040517f08c379a000000000000000000000000000000000000000000000000000000000815260040161115790612fa6565b60405180910390fd5b6002848154811061116d57fe5b9060005260206000200160009054906101000a900473ffffffffffffffffffffffffffffffffffffffff16600385815481106111a557fe5b9060005260206000200154600486815481106111bd57fe5b90600052602060002001808054600181600116156101000203166002900480601f01602080910402602001604051908101604052809291908181526020018280546001816001161561010002031660029004801561125c5780601f106112315761010080835404028352916020019161125c565b820191906000526020600020905b81548152906001019060200180831161123f57829003601f168201915b505050505090509250925092509193909250565b60006005600084815260200190815260200160002060009054906101000a900473ffffffffffffffffffffffffffffffffffffffff1673ffffffffffffffffffffffffffffffffffffffff16639b9fc6e0836040518263ffffffff1660e01b81526004016112de9190612fe6565b60206040518083038186803b1580156112f657600080fd5b505afa15801561130a573d6000803e3d6000fd5b505050506040513d601f19601f8201168201806040525061132e9190810190612802565b905092915050565b600061134133612202565b15611381576040517f08c379a000000000000000000000000000000000000000000000000000000000815260040161137890612fc6565b60405180910390fd5b61138a83611824565b156113ca576040517f08c379a00000000000000000000000000000000000000000000000000000000081526004016113c190612f46565b60405180910390fd5b600760009054906101000a900473ffffffffffffffffffffffffffffffffffffffff1673ffffffffffffffffffffffffffffffffffffffff166398e2fc8084846040518363ffffffff1660e01b8152600401611427929190612e70565b600060405180830381600087803b15801561144157600080fd5b505af1158015611455573d6000803e3d6000fd5b5050505060023390806001815401808255809150509060018203906000526020600020016000909192909190916101000a81548173ffffffffffffffffffffffffffffffffffffffff021916908373ffffffffffffffffffffffffffffffffffffffff160217905550506003839080600181540180825580915050906001820390600052602060002001600090919290919091505550600482908060018154018082558091505090600182039060005260206000200160009091929091909150908051906020019061152892919061254c565b50506001600280549050036000803373ffffffffffffffffffffffffffffffffffffffff1673ffffffffffffffffffffffffffffffffffffffff1681526020019081526020016000208190555060016002805490500360016000858152602001908152602001600020819055506001905092915050565b60006115aa82611824565b6115e9576040517f08c379a00000000000000000000000000000000000000000000000000000000081526004016115e090612f26565b60405180910390fd5b600260016000848152602001908152602001600020548154811061160957fe5b9060005260206000200160009054906101000a900473ffffffffffffffffffffffffffffffffffffffff169050919050565b6000600760009054906101000a900473ffffffffffffffffffffffffffffffffffffffff1673ffffffffffffffffffffffffffffffffffffffff1663742752558585856040518463ffffffff1660e01b815260040161169c93929190612e32565b602060405180830381600087803b1580156116b657600080fd5b505af11580156116ca573d6000803e3d6000fd5b505050506040513d601f19601f820116820180604052506116ee91908101906127b0565b90509392505050565b606061171d6117186001600085815260200190815260200160002054612066565b612202565b61175c576040517f08c379a000000000000000000000000000000000000000000000000000000000815260040161175390612f86565b60405180910390fd5b6005600083815260200190815260200160002060009054906101000a900473ffffffffffffffffffffffffffffffffffffffff1673ffffffffffffffffffffffffffffffffffffffff16637448d8d8836040518263ffffffff1660e01b81526004016117c89190612dee565b60006040518083038186803b1580156117e057600080fd5b505afa1580156117f4573d6000803e3d6000fd5b505050506040513d6000823e3d601f19601f8201168201806040525061181d919081019061276f565b9050919050565b6000806001600084815260200190815260200160002054118061186657507f73656c660000000000000000000000000000000000000000000000000000000082145b9050919050565b600061187833612202565b156118b8576040517f08c379a00000000000000000000000000000000000000000000000000000000081526004016118af90612fc6565b60405180910390fd5b600760009054906101000a900473ffffffffffffffffffffffffffffffffffffffff1673ffffffffffffffffffffffffffffffffffffffff166394e7ef6e836040518263ffffffff1660e01b81526004016119139190612ec9565b602060405180830381600087803b15801561192d57600080fd5b505af1158015611941573d6000803e3d6000fd5b505050506040513d601f19601f8201168201806040525061196591908101906127b0565b5060019050919050565b606061197a82612202565b6119b9576040517f08c379a00000000000000000000000000000000000000000000000000000000081526004016119b090612f06565b60405180910390fd5b60046000808473ffffffffffffffffffffffffffffffffffffffff1673ffffffffffffffffffffffffffffffffffffffff1681526020019081526020016000205481548110611a0457fe5b906000526020600020018054600181600116156101000203166002900480601f016020809104026020016040519081016040528092919081815260200182805460018160011615610100020316600290048015611aa25780601f10611a7757610100808354040283529160200191611aa2565b820191906000526020600020905b815481529060010190602001808311611a8557829003601f168201915b50505050509050919050565b6000806060600280549050600160008681526020019081526020016000205410611b0d576040517f08c379a0000000000000000000000000000000000000000000000000000000008152600401611b0490612f66565b60405180910390fd5b60016000858152602001908152602001600020546002600160008781526020019081526020016000205481548110611b4157fe5b9060005260206000200160009054906101000a900473ffffffffffffffffffffffffffffffffffffffff166004600160008881526020019081526020016000205481548110611b8c57fe5b90600052602060002001808054600181600116156101000203166002900480601f016020809104026020016040519081016040528092919081815260200182805460018160011615610100020316600290048015611c2b5780601f10611c0057610100808354040283529160200191611c2b565b820191906000526020600020905b815481529060010190602001808311611c0e57829003601f168201915b505050505090509250925092509193909250565b6000611c4a82611824565b611c89576040517f08c379a0000000000000000000000000000000000000000000000000000000008152600401611c8090612f26565b60405180910390fd5b60016000838152602001908152602001600020549050919050565b60006005600084815260200190815260200160002060009054906101000a900473ffffffffffffffffffffffffffffffffffffffff1673ffffffffffffffffffffffffffffffffffffffff1663511ad522836040518263ffffffff1660e01b8152600401611d129190612fe6565b60206040518083038186803b158015611d2a57600080fd5b505afa158015611d3e573d6000803e3d6000fd5b505050506040513d601f19601f82011682018060405250611d629190810190612802565b905092915050565b6000611d7582612202565b611db4576040517f08c379a0000000000000000000000000000000000000000000000000000000008152600401611dab90612f06565b60405180910390fd5b60036000808473ffffffffffffffffffffffffffffffffffffffff1673ffffffffffffffffffffffffffffffffffffffff1681526020019081526020016000205481548110611dff57fe5b90600052602060002001549050919050565b6000806060611e1f84612202565b611e5e576040517f08c379a0000000000000000000000000000000000000000000000000000000008152600401611e5590612f06565b60405180910390fd5b6000808573ffffffffffffffffffffffffffffffffffffffff1673ffffffffffffffffffffffffffffffffffffffff1681526020019081526020016000205460036000808773ffffffffffffffffffffffffffffffffffffffff1673ffffffffffffffffffffffffffffffffffffffff1681526020019081526020016000205481548110611ee857fe5b906000526020600020015460046000808873ffffffffffffffffffffffffffffffffffffffff1673ffffffffffffffffffffffffffffffffffffffff1681526020019081526020016000205481548110611f3e57fe5b90600052602060002001808054600181600116156101000203166002900480601f016020809104026020016040519081016040528092919081815260200182805460018160011615610100020316600290048015611fdd5780601f10611fb257610100808354040283529160200191611fdd565b820191906000526020600020905b815481529060010190602001808311611fc057829003601f168201915b505050505090509250925092509193909250565b6000600280549050905090565b60006002805490508210612047576040517f08c379a000000000000000000000000000000000000000000000000000000000815260040161203e90612fa6565b60405180910390fd5b6003828154811061205457fe5b90600052602060002001549050919050565b600060028054905082106120af576040517f08c379a00000000000000000000000000000000000000000000000000000000081526004016120a690612fa6565b60405180910390fd5b600282815481106120bc57fe5b9060005260206000200160009054906101000a900473ffffffffffffffffffffffffffffffffffffffff169050919050565b60606120f982611824565b612138576040517f08c379a000000000000000000000000000000000000000000000000000000000815260040161212f90612f26565b60405180910390fd5b600460016000848152602001908152602001600020548154811061215857fe5b906000526020600020018054600181600116156101000203166002900480601f0160208091040260200160405190810160405280929190818152602001828054600181600116156101000203166002900480156121f65780601f106121cb576101008083540402835291602001916121f6565b820191906000526020600020905b8154815290600101906020018083116121d957829003601f168201915b50505050509050919050565b6000806000808473ffffffffffffffffffffffffffffffffffffffff1673ffffffffffffffffffffffffffffffffffffffff1681526020019081526020016000205411806122b35750600260008154811061225957fe5b9060005260206000200160009054906101000a900473ffffffffffffffffffffffffffffffffffffffff1673ffffffffffffffffffffffffffffffffffffffff168273ffffffffffffffffffffffffffffffffffffffff16145b9050919050565b60006005600084815260200190815260200160002060009054906101000a900473ffffffffffffffffffffffffffffffffffffffff1673ffffffffffffffffffffffffffffffffffffffff1663234c1618836040518263ffffffff1660e01b81526004016123289190612dee565b60206040518083038186803b15801561234057600080fd5b505afa158015612354573d6000803e3d6000fd5b505050506040513d601f19601f820116820180604052506123789190810190612a66565b905092915050565b60006005600084815260200190815260200160002060009054906101000a900473ffffffffffffffffffffffffffffffffffffffff1673ffffffffffffffffffffffffffffffffffffffff16634ed37f49836040518263ffffffff1660e01b81526004016123ee9190612dee565b60206040518083038186803b15801561240657600080fd5b505afa15801561241a573d6000803e3d6000fd5b505050506040513d601f19601f8201168201806040525061243e9190810190612a66565b905092915050565b60006005600083815260200190815260200160002060009054906101000a900473ffffffffffffffffffffffffffffffffffffffff169050919050565b60006005600085815260200190815260200160002060009054906101000a900473ffffffffffffffffffffffffffffffffffffffff1673ffffffffffffffffffffffffffffffffffffffff166348ec275584846040518363ffffffff1660e01b81526004016124f3929190612ea0565b60206040518083038186803b15801561250b57600080fd5b505afa15801561251f573d6000803e3d6000fd5b505050506040513d601f19601f820116820180604052506125439190810190612802565b90509392505050565b828054600181600116156101000203166002900490600052602060002090601f016020900481019282601f1061258d57805160ff19168380011785556125bb565b828001600101855582156125bb579182015b828111156125ba57825182559160200191906001019061259f565b5b5090506125c891906125cc565b5090565b6125ee91905b808211156125ea5760008160009055506001016125d2565b5090565b90565b6000813590506126008161322d565b92915050565b600082601f83011261261757600080fd5b815161262a612625826130aa565b61307d565b9150818183526020840193506020810190508385602084028201111561264f57600080fd5b60005b8381101561267f578161266588826126b3565b845260208401935060208301925050600181019050612652565b5050505092915050565b60008151905061269881613244565b92915050565b6000813590506126ad8161325b565b92915050565b6000815190506126c28161325b565b92915050565b600082601f8301126126d957600080fd5b81356126ec6126e7826130d2565b61307d565b9150808252602083016020830185838301111561270857600080fd5b6127138382846131da565b50505092915050565b60008135905061272b81613272565b92915050565b60008151905061274081613272565b92915050565b60006020828403121561275857600080fd5b6000612766848285016125f1565b91505092915050565b60006020828403121561278157600080fd5b600082015167ffffffffffffffff81111561279b57600080fd5b6127a784828501612606565b91505092915050565b6000602082840312156127c257600080fd5b60006127d084828501612689565b91505092915050565b6000602082840312156127eb57600080fd5b60006127f98482850161269e565b91505092915050565b60006020828403121561281457600080fd5b6000612822848285016126b3565b91505092915050565b6000806040838503121561283e57600080fd5b600061284c8582860161269e565b925050602061285d8582860161269e565b9150509250929050565b60008060006060848603121561287c57600080fd5b600061288a8682870161269e565b935050602061289b8682870161269e565b92505060406128ac8682870161269e565b9150509250925092565b6000806000606084860312156128cb57600080fd5b60006128d98682870161269e565b93505060206128ea8682870161269e565b925050604084013567ffffffffffffffff81111561290757600080fd5b612913868287016126c8565b9150509250925092565b60008060006060848603121561293257600080fd5b60006129408682870161269e565b93505060206129518682870161269e565b92505060406129628682870161271c565b9150509250925092565b6000806040838503121561297f57600080fd5b600061298d8582860161269e565b925050602083013567ffffffffffffffff8111156129aa57600080fd5b6129b6858286016126c8565b9150509250929050565b600080604083850312156129d357600080fd5b60006129e18582860161269e565b92505060206129f28582860161271c565b9150509250929050565b600060208284031215612a0e57600080fd5b600082013567ffffffffffffffff811115612a2857600080fd5b612a34848285016126c8565b91505092915050565b600060208284031215612a4f57600080fd5b6000612a5d8482850161271c565b91505092915050565b600060208284031215612a7857600080fd5b6000612a8684828501612731565b91505092915050565b6000612a9b8383612b23565b60208301905092915050565b612ab081613164565b82525050565b6000612ac18261310e565b612acb8185613131565b9350612ad6836130fe565b8060005b83811015612b07578151612aee8882612a8f565b9750612af983613124565b925050600181019050612ada565b5085935050505092915050565b612b1d81613176565b82525050565b612b2c81613182565b82525050565b612b3b81613182565b82525050565b6000612b4c82613119565b612b568185613142565b9350612b668185602086016131e9565b612b6f8161321c565b840191505092915050565b612b83816131b6565b82525050565b6000612b96601683613153565b91507f50617469656e7420646f65736e277420657869737421000000000000000000006000830152602082019050919050565b6000612bd6601783613153565b91507f43616e27742066696e64207468652070617469656e74210000000000000000006000830152602082019050919050565b6000612c16601c83613153565b91507f50617469656e74206e616d6520686173206265656e2074616b656e2e000000006000830152602082019050919050565b6000612c56601b83613153565b91507f50617469656e7420696e646578206f7574206f6620626f756e642100000000006000830152602082019050919050565b6000612c96601a83613153565b91507f50617469656e74206861736e2774206265656e20666f756e642e0000000000006000830152602082019050919050565b6000612cd6601383613153565b91507f496e646578206f7574206f6620626f756e6421000000000000000000000000006000830152602082019050919050565b6000612d16601683613153565b91507f53656e646572206e6f7420617574686f72697a65642e000000000000000000006000830152602082019050919050565b612d52816131ac565b82525050565b6000602082019050612d6d6000830184612aa7565b92915050565b6000606082019050612d886000830186612aa7565b612d956020830185612b32565b8181036040830152612da78184612b41565b9050949350505050565b60006020820190508181036000830152612dcb8184612ab6565b905092915050565b6000602082019050612de86000830184612b14565b92915050565b6000602082019050612e036000830184612b32565b92915050565b6000604082019050612e1e6000830185612b32565b612e2b6020830184612b32565b9392505050565b6000606082019050612e476000830186612b32565b612e546020830185612b32565b8181036040830152612e668184612b41565b9050949350505050565b6000604082019050612e856000830185612b32565b8181036020830152612e978184612b41565b90509392505050565b6000604082019050612eb56000830185612b32565b612ec26020830184612d49565b9392505050565b60006020820190508181036000830152612ee38184612b41565b905092915050565b6000602082019050612f006000830184612b7a565b92915050565b60006020820190508181036000830152612f1f81612b89565b9050919050565b60006020820190508181036000830152612f3f81612bc9565b9050919050565b60006020820190508181036000830152612f5f81612c09565b9050919050565b60006020820190508181036000830152612f7f81612c49565b9050919050565b60006020820190508181036000830152612f9f81612c89565b9050919050565b60006020820190508181036000830152612fbf81612cc9565b9050919050565b60006020820190508181036000830152612fdf81612d09565b9050919050565b6000602082019050612ffb6000830184612d49565b92915050565b60006060820190506130166000830186612d49565b6130236020830185612aa7565b81810360408301526130358184612b41565b9050949350505050565b60006060820190506130546000830186612d49565b6130616020830185612b32565b81810360408301526130738184612b41565b9050949350505050565b6000604051905081810181811067ffffffffffffffff821117156130a057600080fd5b8060405250919050565b600067ffffffffffffffff8211156130c157600080fd5b602082029050602081019050919050565b600067ffffffffffffffff8211156130e957600080fd5b601f19601f8301169050602081019050919050565b6000819050602082019050919050565b600081519050919050565b600081519050919050565b6000602082019050919050565b600082825260208201905092915050565b600082825260208201905092915050565b600082825260208201905092915050565b600061316f8261318c565b9050919050565b60008115159050919050565b6000819050919050565b600073ffffffffffffffffffffffffffffffffffffffff82169050919050565b6000819050919050565b60006131c1826131c8565b9050919050565b60006131d38261318c565b9050919050565b82818337600083830152505050565b60005b838110156132075780820151818401526020810190506131ec565b83811115613216576000848401525b50505050565b6000601f19601f8301169050919050565b61323681613164565b811461324157600080fd5b50565b61324d81613176565b811461325857600080fd5b50565b61326481613182565b811461326f57600080fd5b50565b61327b816131ac565b811461328657600080fd5b5056fea365627a7a72315820e36c240ec26f36e44caab3ac41e55ba53344291c7d3db2b44ab5979e265a52416c6578706572696d656e74616cf564736f6c634300051000406080604052604051620000129062000235565b604051809103906000f0801580156200002f573d6000803e3d6000fd5b50600360006101000a81548173ffffffffffffffffffffffffffffffffffffffff021916908373ffffffffffffffffffffffffffffffffffffffff1602179055506040516200007e9062000243565b604051809103906000f0801580156200009b573d6000803e3d6000fd5b50600960006101000a81548173ffffffffffffffffffffffffffffffffffffffff021916908373ffffffffffffffffffffffffffffffffffffffff160217905550348015620000e957600080fd5b50336000806101000a81548173ffffffffffffffffffffffffffffffffffffffff021916908373ffffffffffffffffffffffffffffffffffffffff1602179055507f78000000000000000000000000000000000000000000000000000000000000006001819055506040518060400160405280600181526020017f7800000000000000000000000000000000000000000000000000000000000000815250600290805190602001906200019e92919062000251565b5060088060018154018082558091505090600182039060005260206000200160007f6e6f742d617661696c61626c650000000000000000000000000000000000000090919091505550600d8060018154018082558091505090600182039060005260206000200160007f6e6f742d617661696c61626c65000000000000000000000000000000000000009091909150555062000300565b6104958062001ac983390190565b6101b88062001f5e83390190565b828054600181600116156101000203166002900490600052602060002090601f016020900481019282601f106200029457805160ff1916838001178555620002c5565b82800160010185558215620002c5579182015b82811115620002c4578251825591602001919060010190620002a7565b5b509050620002d49190620002d8565b5090565b620002fd91905b80821115620002f9576000816000905550600101620002df565b5090565b90565b6117b980620003106000396000f3fe608060405234801561001057600080fd5b50600436106101215760003560e01c80634ed37f49116100ad5780637448d8d8116100715780637448d8d8146103b457806394e7ef6e146103e457806398e2fc80146104145780639b9fc6e014610430578063f811f1ab1461046057610121565b80634ed37f49146102d65780635035cf5214610306578063511ad52214610336578063624a4dac14610366578063742752551461038457610121565b80632dce4167116100f45780632dce4167146101e657806330ca739b1461021657806345cfa71d1461024657806348ec2755146102765780634b0cf75e146102a657610121565b80630b8d6eae146101265780631aa5346a14610156578063234c161814610186578063281c8ab7146101b6575b600080fd5b610140600480360361013b919081019061118a565b61047e565b60405161014d919061152d565b60405180910390f35b610170600480360361016b919081019061126f565b610515565b60405161017d919061154f565b60405180910390f35b6101a0600480360361019b919081019061121d565b6105dd565b6040516101ad91906115ae565b60405180910390f35b6101d060048036036101cb919081019061121d565b6105fa565b6040516101dd919061152d565b60405180910390f35b61020060048036036101fb919081019061121d565b6106b9565b60405161020d91906115ae565b60405180910390f35b610230600480360361022b919081019061118a565b6106d6565b60405161023d919061152d565b60405180910390f35b610260600480360361025b919081019061121d565b61076d565b60405161026d919061152d565b60405180910390f35b610290600480360361028b9190810190611366565b6107d8565b60405161029d919061156a565b60405180910390f35b6102c060048036036102bb919081019061126f565b61089e565b6040516102cd919061156a565b60405180910390f35b6102f060048036036102eb919081019061121d565b610964565b6040516102fd91906115ae565b60405180910390f35b610320600480360361031b91908101906112ab565b610a1e565b60405161032d919061154f565b60405180910390f35b610350600480360361034b91908101906113e3565b610bbc565b60405161035d919061156a565b60405180910390f35b61036e610bdd565b60405161037b91906115ae565b60405180910390f35b61039e600480360361039991908101906112ab565b610bea565b6040516103ab919061154f565b60405180910390f35b6103ce60048036036103c9919081019061121d565b610dfc565b6040516103db919061152d565b60405180910390f35b6103fe60048036036103f991908101906113a2565b610e67565b60405161040b919061154f565b60405180910390f35b61042e60048036036104299190810190611312565b610e89565b005b61044a600480360361044591908101906113e3565b610eeb565b604051610457919061156a565b60405180910390f35b610468610f0c565b60405161047591906115ae565b60405180910390f35b6060600660008373ffffffffffffffffffffffffffffffffffffffff1673ffffffffffffffffffffffffffffffffffffffff16815260200190815260200160002080548060200260200160405190810160405280929190818152602001828054801561050957602002820191906000526020600020905b8154815260200190600101908083116104f5575b50505050509050919050565b60006007600084815260200190815260200160002060009054906101000a900473ffffffffffffffffffffffffffffffffffffffff1673ffffffffffffffffffffffffffffffffffffffff16631f97c4c3836040518263ffffffff1660e01b8152600401610583919061156a565b602060405180830381600087803b15801561059d57600080fd5b505af11580156105b1573d6000803e3d6000fd5b505050506040513d601f19601f820116820180604052506105d591908101906111f4565b905092915050565b6000600a6000838152602001908152602001600020549050919050565b60606007600083815260200190815260200160002060009054906101000a900473ffffffffffffffffffffffffffffffffffffffff1673ffffffffffffffffffffffffffffffffffffffff166377e4afe46040518163ffffffff1660e01b815260040160006040518083038186803b15801561067557600080fd5b505afa158015610689573d6000803e3d6000fd5b505050506040513d6000823e3d601f19601f820116820180604052506106b291908101906111b3565b9050919050565b600060046000838152602001908152602001600020549050919050565b6060600660008373ffffffffffffffffffffffffffffffffffffffff1673ffffffffffffffffffffffffffffffffffffffff16815260200190815260200160002080548060200260200160405190810160405280929190818152602001828054801561076157602002820191906000526020600020905b81548152602001906001019080831161074d575b50505050509050919050565b6060600b60008381526020019081526020016000208054806020026020016040519081016040528092919081815260200182805480156107cc57602002820191906000526020600020905b8154815260200190600101908083116107b8575b50505050509050919050565b60006007600084815260200190815260200160002060009054906101000a900473ffffffffffffffffffffffffffffffffffffffff1673ffffffffffffffffffffffffffffffffffffffff16631e50b182836040518263ffffffff1660e01b815260040161084691906115ae565b60206040518083038186803b15801561085e57600080fd5b505afa158015610872573d6000803e3d6000fd5b505050506040513d601f19601f820116820180604052506108969190810190611246565b905092915050565b60006007600084815260200190815260200160002060009054906101000a900473ffffffffffffffffffffffffffffffffffffffff1673ffffffffffffffffffffffffffffffffffffffff1663c294ab1e836040518263ffffffff1660e01b815260040161090c919061156a565b60206040518083038186803b15801561092457600080fd5b505afa158015610938573d6000803e3d6000fd5b505050506040513d601f19601f8201168201806040525061095c9190810190611246565b905092915050565b60006007600083815260200190815260200160002060009054906101000a900473ffffffffffffffffffffffffffffffffffffffff1673ffffffffffffffffffffffffffffffffffffffff1663cd2483416040518163ffffffff1660e01b815260040160206040518083038186803b1580156109df57600080fd5b505afa1580156109f3573d6000803e3d6000fd5b505050506040513d601f19601f82011682018060405250610a17919081019061140c565b9050919050565b6000600960009054906101000a900473ffffffffffffffffffffffffffffffffffffffff1673ffffffffffffffffffffffffffffffffffffffff1663949f3a4e3386866040518463ffffffff1660e01b8152600401610a7f939291906114f6565b600060405180830381600087803b158015610a9957600080fd5b505af1158015610aad573d6000803e3d6000fd5b50505050600d839080600181540180825580915050906001820390600052602060002001600090919290919091505550600d80549050600a600085815260200190815260200160002081905550600d600b6000868152602001908152602001600020908054610b1d929190610f19565b50600d600c60003373ffffffffffffffffffffffffffffffffffffffff1673ffffffffffffffffffffffffffffffffffffffff168152602001908152602001600020908054610b6d929190610f19565b50610b7782610e67565b507f2bb590431d1dfc5d86ac3f951c70a27b4818eb2e4bc69ba773cf6f12b3ca98158484604051610ba9929190611585565b60405180910390a1600190509392505050565b6000600d8281548110610bcb57fe5b90600052602060002001549050919050565b6000600d80549050905090565b6000600360009054906101000a900473ffffffffffffffffffffffffffffffffffffffff1673ffffffffffffffffffffffffffffffffffffffff16637a84135d3386866040518463ffffffff1660e01b8152600401610c4b939291906114f6565b600060405180830381600087803b158015610c6557600080fd5b505af1158015610c79573d6000803e3d6000fd5b5050505060088390806001815401808255809150509060018203906000526020600020016000909192909190915055506008805490506004600085815260200190815260200160002081905550600860056000868152602001908152602001600020908054610ce9929190610f19565b506008600660003373ffffffffffffffffffffffffffffffffffffffff1673ffffffffffffffffffffffffffffffffffffffff168152602001908152602001600020908054610d39929190610f19565b50600360009054906101000a900473ffffffffffffffffffffffffffffffffffffffff166007600085815260200190815260200160002060006101000a81548173ffffffffffffffffffffffffffffffffffffffff021916908373ffffffffffffffffffffffffffffffffffffffff160217905550610db782610e67565b507f8f4940dfc4a4a23294dbd13e6f0929ba11b468a44fc5005a4f895430a844d1088484604051610de9929190611585565b60405180910390a1600190509392505050565b606060056000838152602001908152602001600020805480602002602001604051908101604052809291908181526020018280548015610e5b57602002820191906000526020600020905b815481526020019060010190808311610e47575b50505050509050919050565b60008160029080519060200190610e7f929190610f6b565b5060019050919050565b336000806101000a81548173ffffffffffffffffffffffffffffffffffffffff021916908373ffffffffffffffffffffffffffffffffffffffff160217905550816001819055508060029080519060200190610ee6929190610f6b565b505050565b600060088281548110610efa57fe5b90600052602060002001549050919050565b6000600880549050905090565b828054828255906000526020600020908101928215610f5a5760005260206000209182015b82811115610f59578254825591600101919060010190610f3e565b5b509050610f679190610feb565b5090565b828054600181600116156101000203166002900490600052602060002090601f016020900481019282601f10610fac57805160ff1916838001178555610fda565b82800160010185558215610fda579182015b82811115610fd9578251825591602001919060010190610fbe565b5b509050610fe79190611010565b5090565b61100d91905b80821115611009576000816000905550600101610ff1565b5090565b90565b61103291905b8082111561102e576000816000905550600101611016565b5090565b90565b6000813590506110448161171a565b92915050565b600082601f83011261105b57600080fd5b815161106e611069826115f6565b6115c9565b9150818183526020840193506020810190508385602084028201111561109357600080fd5b60005b838110156110c357816110a988826110f7565b845260208401935060208301925050600181019050611096565b5050505092915050565b6000815190506110dc81611731565b92915050565b6000813590506110f181611748565b92915050565b60008151905061110681611748565b92915050565b600082601f83011261111d57600080fd5b813561113061112b8261161e565b6115c9565b9150808252602083016020830185838301111561114c57600080fd5b61115783828461170b565b50505092915050565b60008135905061116f8161175f565b92915050565b6000815190506111848161175f565b92915050565b60006020828403121561119c57600080fd5b60006111aa84828501611035565b91505092915050565b6000602082840312156111c557600080fd5b600082015167ffffffffffffffff8111156111df57600080fd5b6111eb8482850161104a565b91505092915050565b60006020828403121561120657600080fd5b6000611214848285016110cd565b91505092915050565b60006020828403121561122f57600080fd5b600061123d848285016110e2565b91505092915050565b60006020828403121561125857600080fd5b6000611266848285016110f7565b91505092915050565b6000806040838503121561128257600080fd5b6000611290858286016110e2565b92505060206112a1858286016110e2565b9150509250929050565b6000806000606084860312156112c057600080fd5b60006112ce868287016110e2565b93505060206112df868287016110e2565b925050604084013567ffffffffffffffff8111156112fc57600080fd5b6113088682870161110c565b9150509250925092565b6000806040838503121561132557600080fd5b6000611333858286016110e2565b925050602083013567ffffffffffffffff81111561135057600080fd5b61135c8582860161110c565b9150509250929050565b6000806040838503121561137957600080fd5b6000611387858286016110e2565b925050602061139885828601611160565b9150509250929050565b6000602082840312156113b457600080fd5b600082013567ffffffffffffffff8111156113ce57600080fd5b6113da8482850161110c565b91505092915050565b6000602082840312156113f557600080fd5b600061140384828501611160565b91505092915050565b60006020828403121561141e57600080fd5b600061142c84828501611175565b91505092915050565b600061144183836114c9565b60208301905092915050565b611456816116d5565b82525050565b60006114678261165a565b6114718185611672565b935061147c8361164a565b8060005b838110156114ad5781516114948882611435565b975061149f83611665565b925050600181019050611480565b5085935050505092915050565b6114c381611695565b82525050565b6114d2816116a1565b82525050565b6114e1816116a1565b82525050565b6114f0816116cb565b82525050565b600060608201905061150b600083018661144d565b61151860208301856114d8565b61152560408301846114d8565b949350505050565b60006020820190508181036000830152611547818461145c565b905092915050565b600060208201905061156460008301846114ba565b92915050565b600060208201905061157f60008301846114d8565b92915050565b600060408201905061159a60008301856114d8565b6115a760208301846114d8565b9392505050565b60006020820190506115c360008301846114e7565b92915050565b6000604051905081810181811067ffffffffffffffff821117156115ec57600080fd5b8060405250919050565b600067ffffffffffffffff82111561160d57600080fd5b602082029050602081019050919050565b600067ffffffffffffffff82111561163557600080fd5b601f19601f8301169050602081019050919050565b6000819050602082019050919050565b600081519050919050565b6000602082019050919050565b600082825260208201905092915050565b600061168e826116ab565b9050919050565b60008115159050919050565b6000819050919050565b600073ffffffffffffffffffffffffffffffffffffffff82169050919050565b6000819050919050565b60006116e0826116e7565b9050919050565b60006116f2826116f9565b9050919050565b6000611704826116ab565b9050919050565b82818337600083830152505050565b61172381611683565b811461172e57600080fd5b50565b61173a81611695565b811461174557600080fd5b50565b611751816116a1565b811461175c57600080fd5b50565b611768816116cb565b811461177357600080fd5b5056fea365627a7a72315820af6d5fa3dac9783db29b9f4619fb14dc185ab1b1110f682ba73150c00ab83c136c6578706572696d656e74616cf564736f6c63430005100040608060405234801561001057600080fd5b50336000806101000a81548173ffffffffffffffffffffffffffffffffffffffff021916908373ffffffffffffffffffffffffffffffffffffffff1602179055507f78000000000000000000000000000000000000000000000000000000000000006001819055507f780000000000000000000000000000000000000000000000000000000000000060028190555060038060018154018082558091505090600182039060005260206000200160007f6e6f742d617661696c61626c65000000000000000000000000000000000000009091909150555061039f806100f66000396000f3fe608060405234801561001057600080fd5b50600436106100625760003560e01c80631e50b182146100675780631f97c4c3146100a957806377e4afe4146100ef5780637a84135d1461014e578063c294ab1e146101a6578063cd248341146101e8575b600080fd5b6100936004803603602081101561007d57600080fd5b8101908080359060200190929190505050610206565b6040518082815260200191505060405180910390f35b6100d5600480360360208110156100bf57600080fd5b8101908080359060200190929190505050610227565b604051808215151515815260200191505060405180910390f35b6100f761027e565b6040518080602001828103825283818151815260200191508051906020019060200280838360005b8381101561013a57808201518184015260208101905061011f565b505050509050019250505060405180910390f35b6101a46004803603606081101561016457600080fd5b81019080803573ffffffffffffffffffffffffffffffffffffffff16906020019092919080359060200190929190803590602001909291905050506102d6565b005b6101d2600480360360208110156101bc57600080fd5b8101908080359060200190929190505050610329565b6040518082815260200191505060405180910390f35b6101f061035d565b6040518082815260200191505060405180910390f35b60006003828154811061021557fe5b90600052602060002001549050919050565b60006003829080600181540180825580915050906001820390600052602060002001600090919290919091505550600160038054905003600460008481526020019081526020016000208190555060019050919050565b606060038054806020026020016040519081016040528092919081815260200182805480156102cc57602002820191906000526020600020905b8154815260200190600101908083116102b8575b5050505050905090565b826000806101000a81548173ffffffffffffffffffffffffffffffffffffffff021916908373ffffffffffffffffffffffffffffffffffffffff1602179055508160018190555080600281905550505050565b6000600360046000848152602001908152602001600020548154811061034b57fe5b90600052602060002001549050919050565b600060038054905090509056fea265627a7a723158205bd7e4141aecde8c0fcd328ec910c5d28ee1a196a7313bdb291403b410ac856b64736f6c63430005100032608060405234801561001057600080fd5b50336000806101000a81548173ffffffffffffffffffffffffffffffffffffffff021916908373ffffffffffffffffffffffffffffffffffffffff1602179055507f78000000000000000000000000000000000000000000000000000000000000006001819055507f780000000000000000000000000000000000000000000000000000000000000060028190555061010a806100ae6000396000f3fe6080604052348015600f57600080fd5b506004361060285760003560e01c8063949f3a4e14602d575b600080fd5b608060048036036060811015604157600080fd5b81019080803573ffffffffffffffffffffffffffffffffffffffff16906020019092919080359060200190929190803590602001909291905050506082565b005b826000806101000a81548173ffffffffffffffffffffffffffffffffffffffff021916908373ffffffffffffffffffffffffffffffffffffffff160217905550816001819055508060028190555050505056fea265627a7a723158200e0d04935d3d6d80a7597a1103df7e21528351ad5d14c4d332914134aec528c164736f6c63430005100032",
  "source": "pragma solidity >=0.5.16;\npragma experimental ABIEncoderV2;\nimport \"./Patient.sol\";\n\ncontract PatientStorage {\n   mapping(address => uint) private addressToIndex;\n   mapping(bytes32 => uint) private patientnameToIndex;\n   address[] private addresses;\n   bytes32[] private patientUnames;\n   bytes[] private ipfsHashes;\n   mapping(bytes32 => Patient) patientnameToPatient;\n   mapping(address => Patient) patientAddressToPatient;\n   Patient p = new Patient();\n\n   constructor() public {\n     addresses.push(msg.sender);\n     patientUnames.push('x');\n     ipfsHashes.push('not-available');\n   }\n\n   function registerPatient(bytes32 patientName, bytes memory ipfsHash) public returns(bool) {\n     require(!hasPatient(msg.sender),\n            \"Sender not authorized.\");\n     require(!patientNameTaken(patientName),\n            \"Patient name has been taken.\");\n      // patientnameToPatient[patientName] = patientAddressToPatient[msg.sender] = new Patient(patientName, ipfsHash);\n      p.createPatient(patientName, ipfsHash);\n      addresses.push(msg.sender);\n      patientUnames.push(patientName);\n      ipfsHashes.push(ipfsHash);\n      addressToIndex[msg.sender] = addresses.length - 1;\n      patientnameToIndex[patientName] = addresses.length - 1;\n      return true;\n    }\n\n   function hasPatient(address _patientAdresses) public view returns(bool) {\n      return (addressToIndex[_patientAdresses] > 0 || _patientAdresses == addresses[0]);\n    }\n\n   function patientNameTaken(bytes32 pname) public view returns(bool takenIndeed) {\n      return (patientnameToIndex[pname] > 0 || pname == 'self');\n    }\n\n   function updatePatient(bytes memory ipfsHash) public returns(bool){\n      require(!hasPatient(msg.sender),\n            \"Sender not authorized.\");\n      p.updatePatient(ipfsHash);\n      return true;\n    }\n\n   function getPatientCount() public view returns(uint){\n      return addresses.length;\n    }\n   function getPatientByPatientname(bytes32 _pname) public view returns(Patient){\n      return patientnameToPatient[_pname];\n   }\n   function getPatientByIndex(uint index) public view returns(address,bytes32,bytes memory){\n      require((index < addresses.length),\n            \"Index out of bound!\");\n      return(addresses[index], patientUnames[index], ipfsHashes[index]);\n    }\n\n   function getAddressByIndex(uint index) public view returns(address){\n      require((index < addresses.length),\n            \"Index out of bound!\");\n      return addresses[index];\n    }\n\n   function getPatientNameByIndex(uint index) public view returns(bytes32){\n      require((index < addresses.length),\n            \"Index out of bound!\");\n      return patientUnames[index];\n    }\n\n   function getIpfsHashByIndex(uint index) public view returns(bytes memory){\n      require((index < addresses.length),\n            \"Index out of bound!\");\n      return ipfsHashes[index];\n    }\n\n   function getPatientByAddress(address patientAddress) public view returns(uint, bytes32, bytes memory){\n      require(hasPatient(patientAddress),\n            \"Patient doesn't exist!\");\n      return(addressToIndex[patientAddress], patientUnames[addressToIndex[patientAddress]], ipfsHashes[addressToIndex[patientAddress]]);\n    }\n\n   function getIndexByAddress(address patientAddress) public view returns(uint){\n      require(hasPatient(patientAddress),\n            \"Patient doesn't exist!\");\n      return addressToIndex[patientAddress];\n    }\n\n   function getPatientNameByAddress(address patientAddress) public view returns(bytes32){\n      require(hasPatient(patientAddress),\n            \"Patient doesn't exist!\");\n      return patientUnames[addressToIndex[patientAddress]];\n    }\n\n   function getIpfsHashByAddress(address patientAddress) public view returns(bytes memory){\n      require(hasPatient(patientAddress),\n            \"Patient doesn't exist!\");\n      return ipfsHashes[addressToIndex[patientAddress]];\n    }\n\n   function getPatientByPatientName(bytes32 patientname) public view returns(uint,address,bytes memory){\n      require((patientnameToIndex[patientname] < addresses.length),\n            \"Patient index out of bound!\");\n      return(patientnameToIndex[patientname], addresses[patientnameToIndex[patientname]], ipfsHashes[patientnameToIndex[patientname]]);\n    }\n\n   function getIndexByPatientName(bytes32 patientname) public view returns(uint){\n      require((patientNameTaken(patientname)),\n            \"Can't find the patient!\");\n      return patientnameToIndex[patientname];\n    }\n\n   function getAddressByPatientName(bytes32 patientname) public view returns(address){\n      require((patientNameTaken(patientname)),\n        \"Can't find the patient!\");\n      return addresses[patientnameToIndex[patientname]];\n    }\n\n   function getIpfsHashByPatientName(bytes32 patientname) public view returns(bytes memory){\n      require((patientNameTaken(patientname)),\n            \"Can't find the patient!\");\n      return ipfsHashes[patientnameToIndex[patientname]];\n    }\n  // CONSULTATIONS\n   function consultationCreate(bytes32 _pname, bytes32 _consulDateID, bytes memory newPatientIpfs)public returns(bool){\n      return p.consultationCreate(_pname, _consulDateID, newPatientIpfs);\n    }\n\n   function getConsultationByConsultationIndex(bytes32 patientName, uint _index) public view returns(bytes32 consulID){\n      return patientnameToPatient[patientName].getConsultationByConsultationIndex(_index);\n    }\n   function getConsultationIndexByConsultationID(bytes32 patientName, bytes32 _consulDateID) public view returns(uint){\n      return patientnameToPatient[patientName].getConsultationIndexByConsultationID(_consulDateID);\n    }\n\n   function getConsultationsByPatientName(bytes32 _pname) public view returns(bytes32[] memory){\n      require(hasPatient(getAddressByIndex(patientnameToIndex[_pname])),\"Patient hasn't been found.\");\n      return patientnameToPatient[_pname].getConsultationsByPatientName(_pname);\n    }\n\n   function getConsultationsByPatientAddress(address patientAddress) public view returns(bytes32[] memory){\n      return patientAddressToPatient[patientAddress].getConsultationsByPatientAddress(patientAddress);\n    }\n  // TESTS\n   function testCreate(bytes32 _pname, bytes32 _testDateID, bytes memory newPatientIpfs)public returns(bool){\n      return patientnameToPatient[_pname].testCreate(_pname,_testDateID,newPatientIpfs);\n    }\n\n   function getTestByTestIndex(bytes32 patientName, uint _index) public view returns(bytes32 testID){\n      return patientnameToPatient[patientName].getTestByTestIndex(_index);\n    }\n\n   function getTestIndexByTestID(bytes32 patientName, bytes32 _testDateID) public view returns(uint){\n      return patientnameToPatient[patientName].getTestIndexByTestID(_testDateID);\n    }\n\n   function getTestsByPatientName(bytes32 _pname) public view returns(bytes32[] memory) {\n      return patientnameToPatient[_pname].getTestsByPatientName(_pname);\n    }\n\n   function getTestsByPatientAddress(address patientAddress) public view returns(bytes32[] memory){\n      return p.getTestsByPatientAddress(patientAddress);\n    }\n   function getTestsCount(bytes32 patientName) public view returns (uint){\n      return patientnameToPatient[patientName].getTestsCount();\n    }\n  // MEDICINES\n   function saveMedicineForPatientUse(bytes32 patientName, bytes32 consulDateID,bytes32 mname) public returns(bool){\n      return patientnameToPatient[patientName].saveMedicineForPatientUse(consulDateID,mname);\n    }\n   function getMedicinesFromConsultation(bytes32 patientName, bytes32 consulDateID) public view returns(bytes32[] memory){\n      return patientnameToPatient[patientName].getMedicinesFromConsultation(consulDateID);\n     }\n   function getMedicineByIndex(bytes32 patientName, bytes32 _consulDateID,uint index) public view returns(bytes32){\n        return patientnameToPatient[patientName].getMedicineByIndex(_consulDateID,index);\n     }\n   function getMedicineByMedicineName(bytes32 patientName, bytes32 _consulDateID, bytes32 medname)public view returns(bytes32){\n        return patientnameToPatient[patientName].getMedicineByMedicineName(_consulDateID, medname);\n     }\n   function getMedicinesCountFromConsultation(bytes32 patientName, bytes32 _consulDateID) public view returns(uint){\n      return patientnameToPatient[patientName].getMedicinesCountFromConsultation(_consulDateID);\n  }\n}",
  "sourcePath": "/home/eke/Desktop/patient-eth-master/contracts/PatientStorage.sol",
  "compiler": {
    "name": "solc",
    "version": "0.5.16+commit.9c3226ce.Emscripten.clang"
  },
  "schemaVersion": "3.1.0",
  "updatedAt": "2020-04-24T13:45:46.504Z",
  "networkType": "ethereum",
  "devdoc": {
    "methods": {}
  },
  "userdoc": {
    "methods": {}
  }
}