{
  "contractName": "Patient",
  "abi": [
    {
      "inputs": [],
      "payable": false,
      "stateMutability": "nonpayable",
      "type": "constructor"
    },
    {
      "anonymous": false,
      "inputs": [
        {
          "indexed": false,
          "internalType": "bytes32",
          "name": "pname",
          "type": "bytes32"
        },
        {
          "indexed": false,
          "internalType": "bytes32",
          "name": "consID",
          "type": "bytes32"
        }
      ],
      "name": "NewConsultationCreated",
      "type": "event"
    },
    {
      "anonymous": false,
      "inputs": [
        {
          "indexed": false,
          "internalType": "bytes32",
          "name": "pname",
          "type": "bytes32"
        },
        {
          "indexed": false,
          "internalType": "bytes32",
          "name": "consID",
          "type": "bytes32"
        },
        {
          "indexed": false,
          "internalType": "bytes32",
          "name": "medname",
          "type": "bytes32"
        }
      ],
      "name": "NewMedicineCreatedForPatient",
      "type": "event"
    },
    {
      "anonymous": false,
      "inputs": [
        {
          "indexed": false,
          "internalType": "bytes32",
          "name": "pname",
          "type": "bytes32"
        },
        {
          "indexed": false,
          "internalType": "bytes32",
          "name": "testID",
          "type": "bytes32"
        }
      ],
      "name": "NewTestCreated",
      "type": "event"
    },
    {
      "constant": false,
      "inputs": [
        {
          "internalType": "bytes32",
          "name": "_patientuname",
          "type": "bytes32"
        },
        {
          "internalType": "bytes",
          "name": "_IpfsHash",
          "type": "bytes"
        }
      ],
      "name": "createPatient",
      "outputs": [],
      "payable": false,
      "stateMutability": "nonpayable",
      "type": "function"
    },
    {
      "constant": false,
      "inputs": [
        {
          "internalType": "bytes",
          "name": "ipfsHash",
          "type": "bytes"
        }
      ],
      "name": "updatePatient",
      "outputs": [
        {
          "internalType": "bool",
          "name": "",
          "type": "bool"
        }
      ],
      "payable": false,
      "stateMutability": "nonpayable",
      "type": "function"
    },
    {
      "constant": false,
      "inputs": [
        {
          "internalType": "bytes32",
          "name": "_pname",
          "type": "bytes32"
        },
        {
          "internalType": "bytes32",
          "name": "_consulDateID",
          "type": "bytes32"
        },
        {
          "internalType": "bytes",
          "name": "_consipfs",
          "type": "bytes"
        }
      ],
      "name": "consultationCreate",
      "outputs": [
        {
          "internalType": "bool",
          "name": "",
          "type": "bool"
        }
      ],
      "payable": false,
      "stateMutability": "nonpayable",
      "type": "function"
    },
    {
      "constant": true,
      "inputs": [
        {
          "internalType": "uint256",
          "name": "_index",
          "type": "uint256"
        }
      ],
      "name": "getConsultationByConsultationIndex",
      "outputs": [
        {
          "internalType": "bytes32",
          "name": "consulID",
          "type": "bytes32"
        }
      ],
      "payable": false,
      "stateMutability": "view",
      "type": "function"
    },
    {
      "constant": true,
      "inputs": [
        {
          "internalType": "bytes32",
          "name": "_consulDateID",
          "type": "bytes32"
        }
      ],
      "name": "getConsultationIndexByConsultationID",
      "outputs": [
        {
          "internalType": "uint256",
          "name": "",
          "type": "uint256"
        }
      ],
      "payable": false,
      "stateMutability": "view",
      "type": "function"
    },
    {
      "constant": true,
      "inputs": [
        {
          "internalType": "bytes32",
          "name": "_pname",
          "type": "bytes32"
        }
      ],
      "name": "getConsultationsByPatientName",
      "outputs": [
        {
          "internalType": "bytes32[]",
          "name": "",
          "type": "bytes32[]"
        }
      ],
      "payable": false,
      "stateMutability": "view",
      "type": "function"
    },
    {
      "constant": true,
      "inputs": [
        {
          "internalType": "address",
          "name": "patientAddress",
          "type": "address"
        }
      ],
      "name": "getConsultationsByPatientAddress",
      "outputs": [
        {
          "internalType": "bytes32[]",
          "name": "",
          "type": "bytes32[]"
        }
      ],
      "payable": false,
      "stateMutability": "view",
      "type": "function"
    },
    {
      "constant": true,
      "inputs": [],
      "name": "getConsultationsCount",
      "outputs": [
        {
          "internalType": "uint256",
          "name": "",
          "type": "uint256"
        }
      ],
      "payable": false,
      "stateMutability": "view",
      "type": "function"
    },
    {
      "constant": true,
      "inputs": [
        {
          "internalType": "bytes32",
          "name": "_consulDateID",
          "type": "bytes32"
        }
      ],
      "name": "getConsultationIpfsByConsultationID",
      "outputs": [
        {
          "internalType": "bytes",
          "name": "",
          "type": "bytes"
        }
      ],
      "payable": false,
      "stateMutability": "view",
      "type": "function"
    },
    {
      "constant": false,
      "inputs": [
        {
          "internalType": "bytes32",
          "name": "_pname",
          "type": "bytes32"
        },
        {
          "internalType": "bytes32",
          "name": "_testDateID",
          "type": "bytes32"
        },
        {
          "internalType": "bytes",
          "name": "newPatientIpfs",
          "type": "bytes"
        }
      ],
      "name": "testCreate",
      "outputs": [
        {
          "internalType": "bool",
          "name": "",
          "type": "bool"
        }
      ],
      "payable": false,
      "stateMutability": "nonpayable",
      "type": "function"
    },
    {
      "constant": true,
      "inputs": [
        {
          "internalType": "uint256",
          "name": "_index",
          "type": "uint256"
        }
      ],
      "name": "getTestByTestIndex",
      "outputs": [
        {
          "internalType": "bytes32",
          "name": "testID",
          "type": "bytes32"
        }
      ],
      "payable": false,
      "stateMutability": "view",
      "type": "function"
    },
    {
      "constant": true,
      "inputs": [
        {
          "internalType": "bytes32",
          "name": "_testDateID",
          "type": "bytes32"
        }
      ],
      "name": "getTestIndexByTestID",
      "outputs": [
        {
          "internalType": "uint256",
          "name": "",
          "type": "uint256"
        }
      ],
      "payable": false,
      "stateMutability": "view",
      "type": "function"
    },
    {
      "constant": true,
      "inputs": [
        {
          "internalType": "bytes32",
          "name": "_pname",
          "type": "bytes32"
        }
      ],
      "name": "getTestsByPatientName",
      "outputs": [
        {
          "internalType": "bytes32[]",
          "name": "",
          "type": "bytes32[]"
        }
      ],
      "payable": false,
      "stateMutability": "view",
      "type": "function"
    },
    {
      "constant": true,
      "inputs": [
        {
          "internalType": "address",
          "name": "patientAddress",
          "type": "address"
        }
      ],
      "name": "getTestsByPatientAddress",
      "outputs": [
        {
          "internalType": "bytes32[]",
          "name": "",
          "type": "bytes32[]"
        }
      ],
      "payable": false,
      "stateMutability": "view",
      "type": "function"
    },
    {
      "constant": true,
      "inputs": [],
      "name": "getTestsCount",
      "outputs": [
        {
          "internalType": "uint256",
          "name": "",
          "type": "uint256"
        }
      ],
      "payable": false,
      "stateMutability": "view",
      "type": "function"
    },
    {
      "constant": false,
      "inputs": [
        {
          "internalType": "bytes32",
          "name": "_consulDateID",
          "type": "bytes32"
        },
        {
          "internalType": "bytes32",
          "name": "mname",
          "type": "bytes32"
        }
      ],
      "name": "saveMedicineForPatientUse",
      "outputs": [
        {
          "internalType": "bool",
          "name": "",
          "type": "bool"
        }
      ],
      "payable": false,
      "stateMutability": "nonpayable",
      "type": "function"
    },
    {
      "constant": true,
      "inputs": [
        {
          "internalType": "bytes32",
          "name": "_consulDateID",
          "type": "bytes32"
        }
      ],
      "name": "getMedicinesFromConsultation",
      "outputs": [
        {
          "internalType": "bytes32[]",
          "name": "",
          "type": "bytes32[]"
        }
      ],
      "payable": false,
      "stateMutability": "view",
      "type": "function"
    },
    {
      "constant": true,
      "inputs": [
        {
          "internalType": "bytes32",
          "name": "_consulDateID",
          "type": "bytes32"
        },
        {
          "internalType": "uint256",
          "name": "index",
          "type": "uint256"
        }
      ],
      "name": "getMedicineByIndex",
      "outputs": [
        {
          "internalType": "bytes32",
          "name": "",
          "type": "bytes32"
        }
      ],
      "payable": false,
      "stateMutability": "view",
      "type": "function"
    },
    {
      "constant": true,
      "inputs": [
        {
          "internalType": "bytes32",
          "name": "_consulDateID",
          "type": "bytes32"
        },
        {
          "internalType": "bytes32",
          "name": "medname",
          "type": "bytes32"
        }
      ],
      "name": "getMedicineByMedicineName",
      "outputs": [
        {
          "internalType": "bytes32",
          "name": "",
          "type": "bytes32"
        }
      ],
      "payable": false,
      "stateMutability": "view",
      "type": "function"
    },
    {
      "constant": true,
      "inputs": [
        {
          "internalType": "bytes32",
          "name": "_consulDateID",
          "type": "bytes32"
        }
      ],
      "name": "getMedicinesCountFromConsultation",
      "outputs": [
        {
          "internalType": "uint256",
          "name": "",
          "type": "uint256"
        }
      ],
      "payable": false,
      "stateMutability": "view",
      "type": "function"
    }
  ],
  "bytecode": "0x60806040526040516200001290620001a5565b604051809103906000f0801580156200002f573d6000803e3d6000fd5b50600360006101000a81548173ffffffffffffffffffffffffffffffffffffffff021916908373ffffffffffffffffffffffffffffffffffffffff1602179055506040516200007e90620001b3565b604051809103906000f0801580156200009b573d6000803e3d6000fd5b50600a60006101000a81548173ffffffffffffffffffffffffffffffffffffffff021916908373ffffffffffffffffffffffffffffffffffffffff160217905550348015620000e957600080fd5b50336000806101000a81548173ffffffffffffffffffffffffffffffffffffffff021916908373ffffffffffffffffffffffffffffffffffffffff1602179055507f78000000000000000000000000000000000000000000000000000000000000006001819055506040518060400160405280600181526020017f7800000000000000000000000000000000000000000000000000000000000000815250600290805190602001906200019e929190620001c1565b5062000270565b6106df8062001c8183390190565b6101b8806200236083390190565b828054600181600116156101000203166002900490600052602060002090601f016020900481019282601f106200020457805160ff191683800117855562000235565b8280016001018555821562000235579182015b828111156200023457825182559160200191906001019062000217565b5b50905062000244919062000248565b5090565b6200026d91905b80821115620002695760008160009055506001016200024f565b5090565b90565b611a0180620002806000396000f3fe608060405234801561001057600080fd5b506004361061012c5760003560e01c80634ed37f49116100ad5780637448d8d8116100715780637448d8d8146103ef57806394e7ef6e1461041f57806398e2fc801461044f5780639b9fc6e01461046b578063f811f1ab1461049b5761012c565b80634ed37f49146103115780635035cf5214610341578063511ad52214610371578063624a4dac146103a157806374275255146103bf5761012c565b80632dce4167116100f45780632dce41671461022157806330ca739b1461025157806345cfa71d1461028157806348ec2755146102b15780634b0cf75e146102e15761012c565b806308311925146101315780630b8d6eae146101615780631aa5346a14610191578063234c1618146101c1578063281c8ab7146101f1575b600080fd5b61014b6004803603610146919081019061135e565b6104b9565b6040516101589190611774565b60405180910390f35b61017b600480360361017691908101906112cb565b610585565b60405161018891906116f3565b60405180910390f35b6101ab60048036036101a691908101906113b0565b61061c565b6040516101b89190611715565b60405180910390f35b6101db60048036036101d6919081019061135e565b6106e4565b6040516101e89190611796565b60405180910390f35b61020b6004803603610206919081019061135e565b610701565b60405161021891906116f3565b60405180910390f35b61023b6004803603610236919081019061135e565b6107c0565b6040516102489190611796565b60405180910390f35b61026b600480360361026691908101906112cb565b6107dd565b60405161027891906116f3565b60405180910390f35b61029b6004803603610296919081019061135e565b610874565b6040516102a891906116f3565b60405180910390f35b6102cb60048036036102c691908101906114a7565b6108df565b6040516102d89190611730565b60405180910390f35b6102fb60048036036102f691908101906113b0565b6109a5565b6040516103089190611730565b60405180910390f35b61032b6004803603610326919081019061135e565b610a6b565b6040516103389190611796565b60405180910390f35b61035b600480360361035691908101906113ec565b610b25565b6040516103689190611715565b60405180910390f35b61038b60048036036103869190810190611524565b610cc3565b6040516103989190611730565b60405180910390f35b6103a9610ce4565b6040516103b69190611796565b60405180910390f35b6103d960048036036103d491908101906113ec565b610cf1565b6040516103e69190611715565b60405180910390f35b6104096004803603610404919081019061135e565b610f3d565b60405161041691906116f3565b60405180910390f35b610439600480360361043491908101906114e3565b610fa8565b6040516104469190611715565b60405180910390f35b61046960048036036104649190810190611453565b610fca565b005b61048560048036036104809190810190611524565b61102c565b6040516104929190611730565b60405180910390f35b6104a361104d565b6040516104b09190611796565b60405180910390f35b606060096004600084815260200190815260200160002054815481106104db57fe5b906000526020600020018054600181600116156101000203166002900480601f0160208091040260200160405190810160405280929190818152602001828054600181600116156101000203166002900480156105795780601f1061054e57610100808354040283529160200191610579565b820191906000526020600020905b81548152906001019060200180831161055c57829003601f168201915b50505050509050919050565b6060600660008373ffffffffffffffffffffffffffffffffffffffff1673ffffffffffffffffffffffffffffffffffffffff16815260200190815260200160002080548060200260200160405190810160405280929190818152602001828054801561061057602002820191906000526020600020905b8154815260200190600101908083116105fc575b50505050509050919050565b60006007600084815260200190815260200160002060009054906101000a900473ffffffffffffffffffffffffffffffffffffffff1673ffffffffffffffffffffffffffffffffffffffff16631f97c4c3836040518263ffffffff1660e01b815260040161068a9190611730565b602060405180830381600087803b1580156106a457600080fd5b505af11580156106b8573d6000803e3d6000fd5b505050506040513d601f19601f820116820180604052506106dc9190810190611335565b905092915050565b6000600b6000838152602001908152602001600020549050919050565b60606007600083815260200190815260200160002060009054906101000a900473ffffffffffffffffffffffffffffffffffffffff1673ffffffffffffffffffffffffffffffffffffffff166377e4afe46040518163ffffffff1660e01b815260040160006040518083038186803b15801561077c57600080fd5b505afa158015610790573d6000803e3d6000fd5b505050506040513d6000823e3d601f19601f820116820180604052506107b991908101906112f4565b9050919050565b600060046000838152602001908152602001600020549050919050565b6060600660008373ffffffffffffffffffffffffffffffffffffffff1673ffffffffffffffffffffffffffffffffffffffff16815260200190815260200160002080548060200260200160405190810160405280929190818152602001828054801561086857602002820191906000526020600020905b815481526020019060010190808311610854575b50505050509050919050565b6060600c60008381526020019081526020016000208054806020026020016040519081016040528092919081815260200182805480156108d357602002820191906000526020600020905b8154815260200190600101908083116108bf575b50505050509050919050565b60006007600084815260200190815260200160002060009054906101000a900473ffffffffffffffffffffffffffffffffffffffff1673ffffffffffffffffffffffffffffffffffffffff16631e50b182836040518263ffffffff1660e01b815260040161094d9190611796565b60206040518083038186803b15801561096557600080fd5b505afa158015610979573d6000803e3d6000fd5b505050506040513d601f19601f8201168201806040525061099d9190810190611387565b905092915050565b60006007600084815260200190815260200160002060009054906101000a900473ffffffffffffffffffffffffffffffffffffffff1673ffffffffffffffffffffffffffffffffffffffff1663c294ab1e836040518263ffffffff1660e01b8152600401610a139190611730565b60206040518083038186803b158015610a2b57600080fd5b505afa158015610a3f573d6000803e3d6000fd5b505050506040513d601f19601f82011682018060405250610a639190810190611387565b905092915050565b60006007600083815260200190815260200160002060009054906101000a900473ffffffffffffffffffffffffffffffffffffffff1673ffffffffffffffffffffffffffffffffffffffff1663cd2483416040518163ffffffff1660e01b815260040160206040518083038186803b158015610ae657600080fd5b505afa158015610afa573d6000803e3d6000fd5b505050506040513d601f19601f82011682018060405250610b1e919081019061154d565b9050919050565b6000600a60009054906101000a900473ffffffffffffffffffffffffffffffffffffffff1673ffffffffffffffffffffffffffffffffffffffff1663949f3a4e3386866040518463ffffffff1660e01b8152600401610b8693929190611670565b600060405180830381600087803b158015610ba057600080fd5b505af1158015610bb4573d6000803e3d6000fd5b50505050600e839080600181540180825580915050906001820390600052602060002001600090919290919091505550600e80549050600b600085815260200190815260200160002081905550600e600c6000868152602001908152602001600020908054610c2492919061105a565b50600e600d60003373ffffffffffffffffffffffffffffffffffffffff1673ffffffffffffffffffffffffffffffffffffffff168152602001908152602001600020908054610c7492919061105a565b50610c7e82610fa8565b507f2bb590431d1dfc5d86ac3f951c70a27b4818eb2e4bc69ba773cf6f12b3ca98158484604051610cb092919061174b565b60405180910390a1600190509392505050565b6000600e8281548110610cd257fe5b90600052602060002001549050919050565b6000600e80549050905090565b6000600360009054906101000a900473ffffffffffffffffffffffffffffffffffffffff1673ffffffffffffffffffffffffffffffffffffffff1663de6a5a2e338686866040518563ffffffff1660e01b8152600401610d5494939291906116a7565b600060405180830381600087803b158015610d6e57600080fd5b505af1158015610d82573d6000803e3d6000fd5b5050505060088390806001815401808255809150509060018203906000526020600020016000909192909190915055506009829080600181540180825580915050906001820390600052602060002001600090919290919091509080519060200190610def9291906110ac565b50506001600880549050036004600085815260200190815260200160002081905550600860056000868152602001908152602001600020908054610e3492919061105a565b506008600660003373ffffffffffffffffffffffffffffffffffffffff1673ffffffffffffffffffffffffffffffffffffffff168152602001908152602001600020908054610e8492919061105a565b50600360009054906101000a900473ffffffffffffffffffffffffffffffffffffffff166007600085815260200190815260200160002060006101000a81548173ffffffffffffffffffffffffffffffffffffffff021916908373ffffffffffffffffffffffffffffffffffffffff1602179055507f8f4940dfc4a4a23294dbd13e6f0929ba11b468a44fc5005a4f895430a844d1088484604051610f2a92919061174b565b60405180910390a1600190509392505050565b606060056000838152602001908152602001600020805480602002602001604051908101604052809291908181526020018280548015610f9c57602002820191906000526020600020905b815481526020019060010190808311610f88575b50505050509050919050565b60008160029080519060200190610fc09291906110ac565b5060019050919050565b336000806101000a81548173ffffffffffffffffffffffffffffffffffffffff021916908373ffffffffffffffffffffffffffffffffffffffff1602179055508160018190555080600290805190602001906110279291906110ac565b505050565b60006008828154811061103b57fe5b90600052602060002001549050919050565b6000600880549050905090565b82805482825590600052602060002090810192821561109b5760005260206000209182015b8281111561109a57825482559160010191906001019061107f565b5b5090506110a8919061112c565b5090565b828054600181600116156101000203166002900490600052602060002090601f016020900481019282601f106110ed57805160ff191683800117855561111b565b8280016001018555821561111b579182015b8281111561111a5782518255916020019190600101906110ff565b5b5090506111289190611151565b5090565b61114e91905b8082111561114a576000816000905550600101611132565b5090565b90565b61117391905b8082111561116f576000816000905550600101611157565b5090565b90565b60008135905061118581611962565b92915050565b600082601f83011261119c57600080fd5b81516111af6111aa826117de565b6117b1565b915081818352602084019350602081019050838560208402820111156111d457600080fd5b60005b8381101561120457816111ea8882611238565b8452602084019350602083019250506001810190506111d7565b5050505092915050565b60008151905061121d81611979565b92915050565b60008135905061123281611990565b92915050565b60008151905061124781611990565b92915050565b600082601f83011261125e57600080fd5b813561127161126c82611806565b6117b1565b9150808252602083016020830185838301111561128d57600080fd5b61129883828461190f565b50505092915050565b6000813590506112b0816119a7565b92915050565b6000815190506112c5816119a7565b92915050565b6000602082840312156112dd57600080fd5b60006112eb84828501611176565b91505092915050565b60006020828403121561130657600080fd5b600082015167ffffffffffffffff81111561132057600080fd5b61132c8482850161118b565b91505092915050565b60006020828403121561134757600080fd5b60006113558482850161120e565b91505092915050565b60006020828403121561137057600080fd5b600061137e84828501611223565b91505092915050565b60006020828403121561139957600080fd5b60006113a784828501611238565b91505092915050565b600080604083850312156113c357600080fd5b60006113d185828601611223565b92505060206113e285828601611223565b9150509250929050565b60008060006060848603121561140157600080fd5b600061140f86828701611223565b935050602061142086828701611223565b925050604084013567ffffffffffffffff81111561143d57600080fd5b6114498682870161124d565b9150509250925092565b6000806040838503121561146657600080fd5b600061147485828601611223565b925050602083013567ffffffffffffffff81111561149157600080fd5b61149d8582860161124d565b9150509250929050565b600080604083850312156114ba57600080fd5b60006114c885828601611223565b92505060206114d9858286016112a1565b9150509250929050565b6000602082840312156114f557600080fd5b600082013567ffffffffffffffff81111561150f57600080fd5b61151b8482850161124d565b91505092915050565b60006020828403121561153657600080fd5b6000611544848285016112a1565b91505092915050565b60006020828403121561155f57600080fd5b600061156d848285016112b6565b91505092915050565b6000611582838361160a565b60208301905092915050565b611597816118d9565b82525050565b60006115a882611842565b6115b28185611865565b93506115bd83611832565b8060005b838110156115ee5781516115d58882611576565b97506115e083611858565b9250506001810190506115c1565b5085935050505092915050565b61160481611899565b82525050565b611613816118a5565b82525050565b611622816118a5565b82525050565b60006116338261184d565b61163d8185611876565b935061164d81856020860161191e565b61165681611951565b840191505092915050565b61166a816118cf565b82525050565b6000606082019050611685600083018661158e565b6116926020830185611619565b61169f6040830184611619565b949350505050565b60006080820190506116bc600083018761158e565b6116c96020830186611619565b6116d66040830185611619565b81810360608301526116e88184611628565b905095945050505050565b6000602082019050818103600083015261170d818461159d565b905092915050565b600060208201905061172a60008301846115fb565b92915050565b60006020820190506117456000830184611619565b92915050565b60006040820190506117606000830185611619565b61176d6020830184611619565b9392505050565b6000602082019050818103600083015261178e8184611628565b905092915050565b60006020820190506117ab6000830184611661565b92915050565b6000604051905081810181811067ffffffffffffffff821117156117d457600080fd5b8060405250919050565b600067ffffffffffffffff8211156117f557600080fd5b602082029050602081019050919050565b600067ffffffffffffffff82111561181d57600080fd5b601f19601f8301169050602081019050919050565b6000819050602082019050919050565b600081519050919050565b600081519050919050565b6000602082019050919050565b600082825260208201905092915050565b600082825260208201905092915050565b6000611892826118af565b9050919050565b60008115159050919050565b6000819050919050565b600073ffffffffffffffffffffffffffffffffffffffff82169050919050565b6000819050919050565b60006118e4826118eb565b9050919050565b60006118f6826118fd565b9050919050565b6000611908826118af565b9050919050565b82818337600083830152505050565b60005b8381101561193c578082015181840152602081019050611921565b8381111561194b576000848401525b50505050565b6000601f19601f8301169050919050565b61196b81611887565b811461197657600080fd5b50565b61198281611899565b811461198d57600080fd5b50565b611999816118a5565b81146119a457600080fd5b50565b6119b0816118cf565b81146119bb57600080fd5b5056fea365627a7a723158203c5b8caa6326a5f0c35d073e541c55983139b999a083852629a45d09dbfad1896c6578706572696d656e74616cf564736f6c63430005100040608060405234801561001057600080fd5b50336000806101000a81548173ffffffffffffffffffffffffffffffffffffffff021916908373ffffffffffffffffffffffffffffffffffffffff1602179055507f78000000000000000000000000000000000000000000000000000000000000006001819055507f78000000000000000000000000000000000000000000000000000000000000006002819055506040518060400160405280600181526020017f7800000000000000000000000000000000000000000000000000000000000000815250600390805190602001906100ea929190610138565b5060048060018154018082558091505090600182039060005260206000200160007f6e6f742d617661696c61626c6500000000000000000000000000000000000000909190915055506101dd565b828054600181600116156101000203166002900490600052602060002090601f016020900481019282601f1061017957805160ff19168380011785556101a7565b828001600101855582156101a7579182015b828111156101a657825182559160200191906001019061018b565b5b5090506101b491906101b8565b5090565b6101da91905b808211156101d65760008160009055506001016101be565b5090565b90565b6104f3806101ec6000396000f3fe608060405234801561001057600080fd5b50600436106100625760003560e01c80631e50b182146100675780631f97c4c3146100a957806377e4afe4146100ef578063c294ab1e1461014e578063cd24834114610190578063de6a5a2e146101ae575b600080fd5b6100936004803603602081101561007d57600080fd5b810190808035906020019092919050505061029d565b6040518082815260200191505060405180910390f35b6100d5600480360360208110156100bf57600080fd5b81019080803590602001909291905050506102be565b604051808215151515815260200191505060405180910390f35b6100f7610315565b6040518080602001828103825283818151815260200191508051906020019060200280838360005b8381101561013a57808201518184015260208101905061011f565b505050509050019250505060405180910390f35b61017a6004803603602081101561016457600080fd5b810190808035906020019092919050505061036d565b6040518082815260200191505060405180910390f35b6101986103a1565b6040518082815260200191505060405180910390f35b61029b600480360360808110156101c457600080fd5b81019080803573ffffffffffffffffffffffffffffffffffffffff16906020019092919080359060200190929190803590602001909291908035906020019064010000000081111561021557600080fd5b82018360208201111561022757600080fd5b8035906020019184600183028401116401000000008311171561024957600080fd5b91908080601f016020809104026020016040519081016040528093929190818152602001838380828437600081840152601f19601f8201169050808301925050505050505091929192905050506103ae565b005b6000600482815481106102ac57fe5b90600052602060002001549050919050565b60006004829080600181540180825580915050906001820390600052602060002001600090919290919091505550600160048054905003600560008481526020019081526020016000208190555060019050919050565b6060600480548060200260200160405190810160405280929190818152602001828054801561036357602002820191906000526020600020905b81548152602001906001019080831161034f575b5050505050905090565b6000600460056000848152602001908152602001600020548154811061038f57fe5b90600052602060002001549050919050565b6000600480549050905090565b836000806101000a81548173ffffffffffffffffffffffffffffffffffffffff021916908373ffffffffffffffffffffffffffffffffffffffff16021790555082600181905550816002819055508060039080519060200190610412929190610419565b5050505050565b828054600181600116156101000203166002900490600052602060002090601f016020900481019282601f1061045a57805160ff1916838001178555610488565b82800160010185558215610488579182015b8281111561048757825182559160200191906001019061046c565b5b5090506104959190610499565b5090565b6104bb91905b808211156104b757600081600090555060010161049f565b5090565b9056fea265627a7a72315820e92b26f02eb9baa32af88ce1261d6c6cd52be746b0b2df077f0a93e37efcf53c64736f6c63430005100032608060405234801561001057600080fd5b50336000806101000a81548173ffffffffffffffffffffffffffffffffffffffff021916908373ffffffffffffffffffffffffffffffffffffffff1602179055507f78000000000000000000000000000000000000000000000000000000000000006001819055507f780000000000000000000000000000000000000000000000000000000000000060028190555061010a806100ae6000396000f3fe6080604052348015600f57600080fd5b506004361060285760003560e01c8063949f3a4e14602d575b600080fd5b608060048036036060811015604157600080fd5b81019080803573ffffffffffffffffffffffffffffffffffffffff16906020019092919080359060200190929190803590602001909291905050506082565b005b826000806101000a81548173ffffffffffffffffffffffffffffffffffffffff021916908373ffffffffffffffffffffffffffffffffffffffff160217905550816001819055508060028190555050505056fea265627a7a723158203baebc82eb0fcd6316b2e981161d57c010229d9144d1e50faeb72a3db171e6f864736f6c63430005100032",
  "source": "pragma solidity >=0.5.16;\npragma experimental ABIEncoderV2;\nimport \"./Consultation.sol\";\nimport \"./Test.sol\";\n\ncontract Patient{\n    address private addr;\n    bytes32 private patientuname;\n    bytes private IpfsHash;\n    Consultation c = new Consultation();\n\n    // Consultation mapping\n    mapping(bytes32 => uint) private consulDateIDToIndex;\n    mapping(bytes32 => bytes32[]) pnameToConsulArray;\n    mapping(address => bytes32[]) paddressToConsulArray;\n    mapping(bytes32 => Consultation) consulDateIDToCons;\n    bytes32[] private consIDs;\n    bytes[] private consipfsHash;\n\n    // Test mapping\n    Test t = new Test();\n    mapping(bytes32 => uint) private testDateIDToIndex;\n    mapping(bytes32 => bytes32[]) pnameToTestArray;\n    mapping(address => bytes32[]) paddressToTestArray;\n    bytes32[] private testIDs;\n\n    event NewConsultationCreated(bytes32 pname, bytes32 consID);\n    event NewTestCreated(bytes32 pname, bytes32 testID);\n    event NewMedicineCreatedForPatient(bytes32 pname, bytes32 consID, bytes32 medname);\n\n    constructor() public{\n        addr = msg.sender;\n        patientuname = 'x';\n        IpfsHash = 'x';\n     }\n\n    function createPatient(bytes32 _patientuname,bytes memory _IpfsHash) public {\n        addr = msg.sender;\n        patientuname = _patientuname;\n        IpfsHash = _IpfsHash;\n    }\n\n    function updatePatient(bytes memory ipfsHash) public returns(bool){\n        IpfsHash = ipfsHash;\n        return true;\n     }\n\n    // CONSULTATIONS\n    function consultationCreate(bytes32 _pname, bytes32 _consulDateID, bytes memory _consipfs)public returns(bool){\n        // Create new consultation with ID\n        c.createConsultation(msg.sender, _pname, _consulDateID,_consipfs);\n        consIDs.push(_consulDateID);\n            consipfsHash.push(_consipfs);\n        consulDateIDToIndex[_consulDateID] = consIDs.length - 1;\n        pnameToConsulArray[_pname] = consIDs;\n        paddressToConsulArray[msg.sender] = consIDs;\n        consulDateIDToCons[_consulDateID] = c;\n        // Consultations hash append to patient ipfs storage\n        emit NewConsultationCreated(_pname, _consulDateID);\n        return true;\n     }\n\n    function getConsultationByConsultationIndex(uint _index) public view returns(bytes32 consulID){\n        return (consIDs[_index]);\n     }\n\n    function getConsultationIndexByConsultationID(bytes32 _consulDateID) public view returns(uint){\n        return consulDateIDToIndex[_consulDateID];\n     }\n\n    function getConsultationsByPatientName(bytes32 _pname) public view returns(bytes32[] memory) {\n        return (pnameToConsulArray[_pname]);\n     }\n\n    function getConsultationsByPatientAddress(address patientAddress) public view returns(bytes32[] memory){\n        return(paddressToConsulArray[patientAddress]);\n     }\n    function getConsultationsCount() public view returns (uint){\n        return consIDs.length;\n     }\n     \n    function getConsultationIpfsByConsultationID(bytes32 _consulDateID) public view returns(bytes memory){\n        return (consipfsHash[consulDateIDToIndex[_consulDateID]]);\n     }\n    // TESTS\n    function testCreate(bytes32 _pname, bytes32 _testDateID, bytes memory newPatientIpfs)public returns(bool){\n        // Create new test with ID\n        t.createTest(msg.sender, _pname, _testDateID);\n        testIDs.push(_testDateID);\n        testDateIDToIndex[_testDateID] = testIDs.length;\n        pnameToTestArray[_pname] = testIDs;\n        paddressToTestArray[msg.sender] = testIDs;\n        // Consultations hash append to patient ipfs storage\n        updatePatient(newPatientIpfs);\n        emit NewTestCreated(_pname, _testDateID);\n        return true;\n     }\n\n    function getTestByTestIndex(uint _index) public view returns(bytes32 testID){\n        return (testIDs[_index]);\n     }\n\n    function getTestIndexByTestID(bytes32 _testDateID) public view returns(uint){\n        return testDateIDToIndex[_testDateID];\n     }\n\n    function getTestsByPatientName(bytes32 _pname) public view returns(bytes32[] memory) {\n        return (pnameToTestArray[_pname]);\n     }\n\n    function getTestsByPatientAddress(address patientAddress) public view returns(bytes32[] memory){\n        return(paddressToConsulArray[patientAddress]);\n     }\n    function getTestsCount() public view returns (uint){\n        return testIDs.length;\n     }\n\n    function saveMedicineForPatientUse(bytes32 _consulDateID, bytes32 mname) public returns(bool){\n        return consulDateIDToCons[_consulDateID].saveMedicineForPatientUse(mname);\n     }\n    function getMedicinesFromConsultation(bytes32 _consulDateID) public view returns(bytes32[] memory){\n        return consulDateIDToCons[_consulDateID].getMedicinesFromConsultation();\n     }\n    function getMedicineByIndex(bytes32 _consulDateID,uint index) public view returns(bytes32){\n        return consulDateIDToCons[_consulDateID].getMedicineByIndex(index);\n     }\n    function getMedicineByMedicineName(bytes32 _consulDateID, bytes32 medname)public view returns(bytes32){\n        return consulDateIDToCons[_consulDateID].getMedicineByMedicineName(medname);\n     }\n    function getMedicinesCountFromConsultation(bytes32 _consulDateID) public view returns(uint){\n        return consulDateIDToCons[_consulDateID].getMedicinesCountFromConsultation();\n     }\n}",
  "sourcePath": "/home/eke/patient-eth/contracts/Patient.sol",
  "compiler": {
    "name": "solc",
    "version": "0.5.16+commit.9c3226ce.Emscripten.clang"
  },
  "schemaVersion": "3.1.0",
  "updatedAt": "2020-04-28T07:33:13.545Z",
  "networkType": "ethereum",
  "devdoc": {
    "methods": {}
  },
  "userdoc": {
    "methods": {}
  }
}