{
  "contractName": "PatientStorage",
  "abi": [
    {
      "inputs": [],
      "payable": false,
      "stateMutability": "nonpayable",
      "type": "constructor"
    },
    {
      "constant": false,
      "inputs": [
        {
          "internalType": "address",
          "name": "addr",
          "type": "address"
        }
      ],
      "name": "savePatientContractAddress",
      "outputs": [
        {
          "internalType": "bool",
          "name": "",
          "type": "bool"
        }
      ],
      "payable": false,
      "stateMutability": "nonpayable",
      "type": "function"
    },
    {
      "constant": true,
      "inputs": [
        {
          "internalType": "bytes32",
          "name": "patientName",
          "type": "bytes32"
        }
      ],
      "name": "getPatientContractAddressByPatientName",
      "outputs": [
        {
          "internalType": "address",
          "name": "",
          "type": "address"
        }
      ],
      "payable": false,
      "stateMutability": "view",
      "type": "function"
    },
    {
      "constant": true,
      "inputs": [],
      "name": "getPatientContractAddresses",
      "outputs": [
        {
          "internalType": "address[]",
          "name": "",
          "type": "address[]"
        }
      ],
      "payable": false,
      "stateMutability": "view",
      "type": "function"
    },
    {
      "constant": false,
      "inputs": [
        {
          "internalType": "bytes32",
          "name": "patientName",
          "type": "bytes32"
        },
        {
          "internalType": "bytes",
          "name": "ipfsHash",
          "type": "bytes"
        }
      ],
      "name": "registerPatient",
      "outputs": [
        {
          "internalType": "bool",
          "name": "",
          "type": "bool"
        }
      ],
      "payable": false,
      "stateMutability": "nonpayable",
      "type": "function"
    },
    {
      "constant": false,
      "inputs": [
        {
          "internalType": "bytes",
          "name": "ipfsHash",
          "type": "bytes"
        }
      ],
      "name": "updatePatient",
      "outputs": [
        {
          "internalType": "bool",
          "name": "",
          "type": "bool"
        }
      ],
      "payable": false,
      "stateMutability": "nonpayable",
      "type": "function"
    },
    {
      "constant": true,
      "inputs": [
        {
          "internalType": "address",
          "name": "_patientAdresses",
          "type": "address"
        }
      ],
      "name": "hasPatient",
      "outputs": [
        {
          "internalType": "bool",
          "name": "",
          "type": "bool"
        }
      ],
      "payable": false,
      "stateMutability": "view",
      "type": "function"
    },
    {
      "constant": true,
      "inputs": [
        {
          "internalType": "bytes32",
          "name": "pname",
          "type": "bytes32"
        }
      ],
      "name": "patientNameTaken",
      "outputs": [
        {
          "internalType": "bool",
          "name": "takenIndeed",
          "type": "bool"
        }
      ],
      "payable": false,
      "stateMutability": "view",
      "type": "function"
    },
    {
      "constant": true,
      "inputs": [],
      "name": "getPatientCount",
      "outputs": [
        {
          "internalType": "uint256",
          "name": "",
          "type": "uint256"
        }
      ],
      "payable": false,
      "stateMutability": "view",
      "type": "function"
    },
    {
      "constant": true,
      "inputs": [
        {
          "internalType": "uint256",
          "name": "index",
          "type": "uint256"
        }
      ],
      "name": "getPatientByIndex",
      "outputs": [
        {
          "internalType": "address",
          "name": "",
          "type": "address"
        },
        {
          "internalType": "bytes32",
          "name": "",
          "type": "bytes32"
        },
        {
          "internalType": "bytes",
          "name": "",
          "type": "bytes"
        }
      ],
      "payable": false,
      "stateMutability": "view",
      "type": "function"
    },
    {
      "constant": true,
      "inputs": [
        {
          "internalType": "uint256",
          "name": "index",
          "type": "uint256"
        }
      ],
      "name": "getAddressByIndex",
      "outputs": [
        {
          "internalType": "address",
          "name": "",
          "type": "address"
        }
      ],
      "payable": false,
      "stateMutability": "view",
      "type": "function"
    },
    {
      "constant": true,
      "inputs": [
        {
          "internalType": "uint256",
          "name": "index",
          "type": "uint256"
        }
      ],
      "name": "getPatientNameByIndex",
      "outputs": [
        {
          "internalType": "bytes32",
          "name": "",
          "type": "bytes32"
        }
      ],
      "payable": false,
      "stateMutability": "view",
      "type": "function"
    },
    {
      "constant": true,
      "inputs": [
        {
          "internalType": "uint256",
          "name": "index",
          "type": "uint256"
        }
      ],
      "name": "getIpfsHashByIndex",
      "outputs": [
        {
          "internalType": "bytes",
          "name": "",
          "type": "bytes"
        }
      ],
      "payable": false,
      "stateMutability": "view",
      "type": "function"
    },
    {
      "constant": true,
      "inputs": [
        {
          "internalType": "address",
          "name": "patientAddress",
          "type": "address"
        }
      ],
      "name": "getPatientByAddress",
      "outputs": [
        {
          "internalType": "uint256",
          "name": "",
          "type": "uint256"
        },
        {
          "internalType": "bytes32",
          "name": "",
          "type": "bytes32"
        },
        {
          "internalType": "bytes",
          "name": "",
          "type": "bytes"
        }
      ],
      "payable": false,
      "stateMutability": "view",
      "type": "function"
    },
    {
      "constant": true,
      "inputs": [
        {
          "internalType": "address",
          "name": "patientAddress",
          "type": "address"
        }
      ],
      "name": "getIndexByAddress",
      "outputs": [
        {
          "internalType": "uint256",
          "name": "",
          "type": "uint256"
        }
      ],
      "payable": false,
      "stateMutability": "view",
      "type": "function"
    },
    {
      "constant": true,
      "inputs": [
        {
          "internalType": "address",
          "name": "patientAddress",
          "type": "address"
        }
      ],
      "name": "getPatientNameByAddress",
      "outputs": [
        {
          "internalType": "bytes32",
          "name": "",
          "type": "bytes32"
        }
      ],
      "payable": false,
      "stateMutability": "view",
      "type": "function"
    },
    {
      "constant": true,
      "inputs": [
        {
          "internalType": "address",
          "name": "patientAddress",
          "type": "address"
        }
      ],
      "name": "getIpfsHashByAddress",
      "outputs": [
        {
          "internalType": "bytes",
          "name": "",
          "type": "bytes"
        }
      ],
      "payable": false,
      "stateMutability": "view",
      "type": "function"
    },
    {
      "constant": true,
      "inputs": [
        {
          "internalType": "bytes32",
          "name": "patientname",
          "type": "bytes32"
        }
      ],
      "name": "getPatientByPatientName",
      "outputs": [
        {
          "internalType": "uint256",
          "name": "",
          "type": "uint256"
        },
        {
          "internalType": "address",
          "name": "",
          "type": "address"
        },
        {
          "internalType": "bytes",
          "name": "",
          "type": "bytes"
        }
      ],
      "payable": false,
      "stateMutability": "view",
      "type": "function"
    },
    {
      "constant": true,
      "inputs": [
        {
          "internalType": "bytes32",
          "name": "patientname",
          "type": "bytes32"
        }
      ],
      "name": "getIndexByPatientName",
      "outputs": [
        {
          "internalType": "uint256",
          "name": "",
          "type": "uint256"
        }
      ],
      "payable": false,
      "stateMutability": "view",
      "type": "function"
    },
    {
      "constant": true,
      "inputs": [
        {
          "internalType": "bytes32",
          "name": "patientname",
          "type": "bytes32"
        }
      ],
      "name": "getAddressByPatientName",
      "outputs": [
        {
          "internalType": "address",
          "name": "",
          "type": "address"
        }
      ],
      "payable": false,
      "stateMutability": "view",
      "type": "function"
    },
    {
      "constant": true,
      "inputs": [
        {
          "internalType": "bytes32",
          "name": "patientname",
          "type": "bytes32"
        }
      ],
      "name": "getIpfsHashByPatientName",
      "outputs": [
        {
          "internalType": "bytes",
          "name": "",
          "type": "bytes"
        }
      ],
      "payable": false,
      "stateMutability": "view",
      "type": "function"
    }
  ],
  "bytecode": "0x60806040523480156200001157600080fd5b5060023390806001815401808255809150509060018203906000526020600020016000909192909190916101000a81548173ffffffffffffffffffffffffffffffffffffffff021916908373ffffffffffffffffffffffffffffffffffffffff1602179055505060038060018154018082558091505090600182039060005260206000200160007f78000000000000000000000000000000000000000000000000000000000000009091909150555060048060018154018082558091505090600182039060005260206000200160006040518060400160405280600d81526020017f6e6f742d617661696c61626c650000000000000000000000000000000000000081525090919091509080519060200190620001309291906200019e565b505060053390806001815401808255809150509060018203906000526020600020016000909192909190916101000a81548173ffffffffffffffffffffffffffffffffffffffff021916908373ffffffffffffffffffffffffffffffffffffffff160217905550506200024d565b828054600181600116156101000203166002900490600052602060002090601f016020900481019282601f10620001e157805160ff191683800117855562000212565b8280016001018555821562000212579182015b8281111562000211578251825591602001919060010190620001f4565b5b50905062000221919062000225565b5090565b6200024a91905b80821115620002465760008160009055506001016200022c565b5090565b90565b611dec806200025d6000396000f3fe608060405234801561001057600080fd5b506004361061012c5760003560e01c8063b1d5458d116100ad578063cbb7e2ff11610071578063cbb7e2ff146103e3578063ce10cf8814610413578063dfb7ab6014610443578063eb9fbaa914610473578063fff21b9c146104a35761012c565b8063b1d5458d14610303578063b9affb9314610333578063ba5c033514610363578063c190665b14610395578063cbb73d1c146103b35761012c565b80636cfbc8fd116100f45780636cfbc8fd146102115780637b63cec41461024157806394e7ef6e14610271578063a74380a6146102a1578063ad36054b146102d15761012c565b80631973ef911461013157806329f78d881461016157806344739f811461019157806357ea0c2f146101af57806368761954146101e1575b600080fd5b61014b6004803603610146919081019061164c565b6104d3565b6040516101589190611b69565b60405180910390f35b61017b60048036036101769190810190611733565b610563565b6040516101889190611a87565b60405180910390f35b610199610663565b6040516101a69190611a2f565b60405180910390f35b6101c960048036036101c49190810190611733565b6106f1565b6040516101d8939291906119f1565b60405180910390f35b6101fb60048036036101f6919081019061169e565b61084d565b6040516102089190611a51565b60405180910390f35b61022b60048036036102269190810190611675565b610a27565b60405161023891906119d6565b60405180910390f35b61025b60048036036102569190810190611675565b610ac3565b6040516102689190611a51565b60405180910390f35b61028b600480360361028691908101906116f2565b610b0c565b6040516102989190611a51565b60405180910390f35b6102bb60048036036102b6919081019061164c565b610bca565b6040516102c89190611a87565b60405180910390f35b6102eb60048036036102e69190810190611675565b610d09565b6040516102fa93929190611b84565b60405180910390f35b61031d60048036036103189190810190611675565b610e9a565b60405161032a9190611b69565b60405180910390f35b61034d6004803603610348919081019061164c565b610eff565b60405161035a9190611a6c565b60405180910390f35b61037d6004803603610378919081019061164c565b610fa6565b60405161038c93929190611bc2565b60405180910390f35b61039d611186565b6040516103aa9190611b69565b60405180910390f35b6103cd60048036036103c89190810190611675565b611193565b6040516103da91906119d6565b60405180910390f35b6103fd60048036036103f89190810190611733565b6111e7565b60405161040a9190611a6c565b60405180910390f35b61042d60048036036104289190810190611733565b61124f565b60405161043a91906119d6565b60405180910390f35b61045d60048036036104589190810190611675565b6112d7565b60405161046a9190611a87565b60405180910390f35b61048d6004803603610488919081019061164c565b6113eb565b60405161049a9190611a51565b60405180910390f35b6104bd60048036036104b8919081019061164c565b6114a3565b6040516104ca9190611a51565b60405180910390f35b60006104de826113eb565b61051d576040517f08c379a000000000000000000000000000000000000000000000000000000000815260040161051490611aa9565b60405180910390fd5b6000808373ffffffffffffffffffffffffffffffffffffffff1673ffffffffffffffffffffffffffffffffffffffff168152602001908152602001600020549050919050565b606060028054905082106105ac576040517f08c379a00000000000000000000000000000000000000000000000000000000081526004016105a390611b29565b60405180910390fd5b600482815481106105b957fe5b906000526020600020018054600181600116156101000203166002900480601f0160208091040260200160405190810160405280929190818152602001828054600181600116156101000203166002900480156106575780601f1061062c57610100808354040283529160200191610657565b820191906000526020600020905b81548152906001019060200180831161063a57829003601f168201915b50505050509050919050565b606060058054806020026020016040519081016040528092919081815260200182805480156106e757602002820191906000526020600020905b8160009054906101000a900473ffffffffffffffffffffffffffffffffffffffff1673ffffffffffffffffffffffffffffffffffffffff168152602001906001019080831161069d575b5050505050905090565b6000806060600280549050841061073d576040517f08c379a000000000000000000000000000000000000000000000000000000000815260040161073490611b29565b60405180910390fd5b6002848154811061074a57fe5b9060005260206000200160009054906101000a900473ffffffffffffffffffffffffffffffffffffffff166003858154811061078257fe5b90600052602060002001546004868154811061079a57fe5b90600052602060002001808054600181600116156101000203166002900480601f0160208091040260200160405190810160405280929190818152602001828054600181600116156101000203166002900480156108395780601f1061080e57610100808354040283529160200191610839565b820191906000526020600020905b81548152906001019060200180831161081c57829003601f168201915b505050505090509250925092509193909250565b6000610858336113eb565b15610898576040517f08c379a000000000000000000000000000000000000000000000000000000000815260040161088f90611b49565b60405180910390fd5b6108a183610ac3565b156108e1576040517f08c379a00000000000000000000000000000000000000000000000000000000081526004016108d890611ae9565b60405180910390fd5b60023390806001815401808255809150509060018203906000526020600020016000909192909190916101000a81548173ffffffffffffffffffffffffffffffffffffffff021916908373ffffffffffffffffffffffffffffffffffffffff16021790555050600383908060018154018082558091505090600182039060005260206000200160009091929091909150555060048290806001815401808255809150509060018203906000526020600020016000909192909190915090805190602001906109b0929190611514565b50506001600280549050036000803373ffffffffffffffffffffffffffffffffffffffff1673ffffffffffffffffffffffffffffffffffffffff1681526020019081526020016000208190555060016002805490500360016000858152602001908152602001600020819055506001905092915050565b6000610a3282610ac3565b610a71576040517f08c379a0000000000000000000000000000000000000000000000000000000008152600401610a6890611ac9565b60405180910390fd5b6002600160008481526020019081526020016000205481548110610a9157fe5b9060005260206000200160009054906101000a900473ffffffffffffffffffffffffffffffffffffffff169050919050565b60008060016000848152602001908152602001600020541180610b0557507f73656c660000000000000000000000000000000000000000000000000000000082145b9050919050565b6000610b17336113eb565b15610b57576040517f08c379a0000000000000000000000000000000000000000000000000000000008152600401610b4e90611b49565b60405180910390fd5b8160046000803373ffffffffffffffffffffffffffffffffffffffff1673ffffffffffffffffffffffffffffffffffffffff1681526020019081526020016000205481548110610ba357fe5b906000526020600020019080519060200190610bc0929190611514565b5060019050919050565b6060610bd5826113eb565b610c14576040517f08c379a0000000000000000000000000000000000000000000000000000000008152600401610c0b90611aa9565b60405180910390fd5b60046000808473ffffffffffffffffffffffffffffffffffffffff1673ffffffffffffffffffffffffffffffffffffffff1681526020019081526020016000205481548110610c5f57fe5b906000526020600020018054600181600116156101000203166002900480601f016020809104026020016040519081016040528092919081815260200182805460018160011615610100020316600290048015610cfd5780601f10610cd257610100808354040283529160200191610cfd565b820191906000526020600020905b815481529060010190602001808311610ce057829003601f168201915b50505050509050919050565b6000806060600280549050600160008681526020019081526020016000205410610d68576040517f08c379a0000000000000000000000000000000000000000000000000000000008152600401610d5f90611b09565b60405180910390fd5b60016000858152602001908152602001600020546002600160008781526020019081526020016000205481548110610d9c57fe5b9060005260206000200160009054906101000a900473ffffffffffffffffffffffffffffffffffffffff166004600160008881526020019081526020016000205481548110610de757fe5b90600052602060002001808054600181600116156101000203166002900480601f016020809104026020016040519081016040528092919081815260200182805460018160011615610100020316600290048015610e865780601f10610e5b57610100808354040283529160200191610e86565b820191906000526020600020905b815481529060010190602001808311610e6957829003601f168201915b505050505090509250925092509193909250565b6000610ea582610ac3565b610ee4576040517f08c379a0000000000000000000000000000000000000000000000000000000008152600401610edb90611ac9565b60405180910390fd5b60016000838152602001908152602001600020549050919050565b6000610f0a826113eb565b610f49576040517f08c379a0000000000000000000000000000000000000000000000000000000008152600401610f4090611aa9565b60405180910390fd5b60036000808473ffffffffffffffffffffffffffffffffffffffff1673ffffffffffffffffffffffffffffffffffffffff1681526020019081526020016000205481548110610f9457fe5b90600052602060002001549050919050565b6000806060610fb4846113eb565b610ff3576040517f08c379a0000000000000000000000000000000000000000000000000000000008152600401610fea90611aa9565b60405180910390fd5b6000808573ffffffffffffffffffffffffffffffffffffffff1673ffffffffffffffffffffffffffffffffffffffff1681526020019081526020016000205460036000808773ffffffffffffffffffffffffffffffffffffffff1673ffffffffffffffffffffffffffffffffffffffff168152602001908152602001600020548154811061107d57fe5b906000526020600020015460046000808873ffffffffffffffffffffffffffffffffffffffff1673ffffffffffffffffffffffffffffffffffffffff16815260200190815260200160002054815481106110d357fe5b90600052602060002001808054600181600116156101000203166002900480601f0160208091040260200160405190810160405280929190818152602001828054600181600116156101000203166002900480156111725780601f1061114757610100808354040283529160200191611172565b820191906000526020600020905b81548152906001019060200180831161115557829003601f168201915b505050505090509250925092509193909250565b6000600280549050905090565b600060056001600084815260200190815260200160002054815481106111b557fe5b9060005260206000200160009054906101000a900473ffffffffffffffffffffffffffffffffffffffff169050919050565b60006002805490508210611230576040517f08c379a000000000000000000000000000000000000000000000000000000000815260040161122790611b29565b60405180910390fd5b6003828154811061123d57fe5b90600052602060002001549050919050565b60006002805490508210611298576040517f08c379a000000000000000000000000000000000000000000000000000000000815260040161128f90611b29565b60405180910390fd5b600282815481106112a557fe5b9060005260206000200160009054906101000a900473ffffffffffffffffffffffffffffffffffffffff169050919050565b60606112e282610ac3565b611321576040517f08c379a000000000000000000000000000000000000000000000000000000000815260040161131890611ac9565b60405180910390fd5b600460016000848152602001908152602001600020548154811061134157fe5b906000526020600020018054600181600116156101000203166002900480601f0160208091040260200160405190810160405280929190818152602001828054600181600116156101000203166002900480156113df5780601f106113b4576101008083540402835291602001916113df565b820191906000526020600020905b8154815290600101906020018083116113c257829003601f168201915b50505050509050919050565b6000806000808473ffffffffffffffffffffffffffffffffffffffff1673ffffffffffffffffffffffffffffffffffffffff16815260200190815260200160002054118061149c5750600260008154811061144257fe5b9060005260206000200160009054906101000a900473ffffffffffffffffffffffffffffffffffffffff1673ffffffffffffffffffffffffffffffffffffffff168273ffffffffffffffffffffffffffffffffffffffff16145b9050919050565b600060058290806001815401808255809150509060018203906000526020600020016000909192909190916101000a81548173ffffffffffffffffffffffffffffffffffffffff021916908373ffffffffffffffffffffffffffffffffffffffff1602179055505060019050919050565b828054600181600116156101000203166002900490600052602060002090601f016020900481019282601f1061155557805160ff1916838001178555611583565b82800160010185558215611583579182015b82811115611582578251825591602001919060010190611567565b5b5090506115909190611594565b5090565b6115b691905b808211156115b257600081600090555060010161159a565b5090565b90565b6000813590506115c881611d64565b92915050565b6000813590506115dd81611d7b565b92915050565b600082601f8301126115f457600080fd5b813561160761160282611c2d565b611c00565b9150808252602083016020830185838301111561162357600080fd5b61162e838284611d11565b50505092915050565b60008135905061164681611d92565b92915050565b60006020828403121561165e57600080fd5b600061166c848285016115b9565b91505092915050565b60006020828403121561168757600080fd5b6000611695848285016115ce565b91505092915050565b600080604083850312156116b157600080fd5b60006116bf858286016115ce565b925050602083013567ffffffffffffffff8111156116dc57600080fd5b6116e8858286016115e3565b9150509250929050565b60006020828403121561170457600080fd5b600082013567ffffffffffffffff81111561171e57600080fd5b61172a848285016115e3565b91505092915050565b60006020828403121561174557600080fd5b600061175384828501611637565b91505092915050565b60006117688383611774565b60208301905092915050565b61177d81611cbf565b82525050565b61178c81611cbf565b82525050565b600061179d82611c69565b6117a78185611c8c565b93506117b283611c59565b8060005b838110156117e35781516117ca888261175c565b97506117d583611c7f565b9250506001810190506117b6565b5085935050505092915050565b6117f981611cd1565b82525050565b61180881611cdd565b82525050565b600061181982611c74565b6118238185611c9d565b9350611833818560208601611d20565b61183c81611d53565b840191505092915050565b6000611854601683611cae565b91507f50617469656e7420646f65736e277420657869737421000000000000000000006000830152602082019050919050565b6000611894601783611cae565b91507f43616e27742066696e64207468652070617469656e74210000000000000000006000830152602082019050919050565b60006118d4601c83611cae565b91507f50617469656e74206e616d6520686173206265656e2074616b656e2e000000006000830152602082019050919050565b6000611914601b83611cae565b91507f50617469656e7420696e646578206f7574206f6620626f756e642100000000006000830152602082019050919050565b6000611954601383611cae565b91507f496e646578206f7574206f6620626f756e6421000000000000000000000000006000830152602082019050919050565b6000611994601683611cae565b91507f53656e646572206e6f7420617574686f72697a65642e000000000000000000006000830152602082019050919050565b6119d081611d07565b82525050565b60006020820190506119eb6000830184611783565b92915050565b6000606082019050611a066000830186611783565b611a1360208301856117ff565b8181036040830152611a25818461180e565b9050949350505050565b60006020820190508181036000830152611a498184611792565b905092915050565b6000602082019050611a6660008301846117f0565b92915050565b6000602082019050611a8160008301846117ff565b92915050565b60006020820190508181036000830152611aa1818461180e565b905092915050565b60006020820190508181036000830152611ac281611847565b9050919050565b60006020820190508181036000830152611ae281611887565b9050919050565b60006020820190508181036000830152611b02816118c7565b9050919050565b60006020820190508181036000830152611b2281611907565b9050919050565b60006020820190508181036000830152611b4281611947565b9050919050565b60006020820190508181036000830152611b6281611987565b9050919050565b6000602082019050611b7e60008301846119c7565b92915050565b6000606082019050611b9960008301866119c7565b611ba66020830185611783565b8181036040830152611bb8818461180e565b9050949350505050565b6000606082019050611bd760008301866119c7565b611be460208301856117ff565b8181036040830152611bf6818461180e565b9050949350505050565b6000604051905081810181811067ffffffffffffffff82111715611c2357600080fd5b8060405250919050565b600067ffffffffffffffff821115611c4457600080fd5b601f19601f8301169050602081019050919050565b6000819050602082019050919050565b600081519050919050565b600081519050919050565b6000602082019050919050565b600082825260208201905092915050565b600082825260208201905092915050565b600082825260208201905092915050565b6000611cca82611ce7565b9050919050565b60008115159050919050565b6000819050919050565b600073ffffffffffffffffffffffffffffffffffffffff82169050919050565b6000819050919050565b82818337600083830152505050565b60005b83811015611d3e578082015181840152602081019050611d23565b83811115611d4d576000848401525b50505050565b6000601f19601f8301169050919050565b611d6d81611cbf565b8114611d7857600080fd5b50565b611d8481611cdd565b8114611d8f57600080fd5b50565b611d9b81611d07565b8114611da657600080fd5b5056fea365627a7a7231582038767ada9e8245943dd9a59995aabdc97a400297a044db8b1bcb4786f007480e6c6578706572696d656e74616cf564736f6c63430005100040",
  "source": "pragma solidity >=0.5.16;\npragma experimental ABIEncoderV2;\n\ncontract PatientStorage {\n   mapping(address => uint) private addressToIndex;\n   mapping(bytes32 => uint) private patientnameToIndex;\n   address[] private addresses;\n   bytes32[] private patientUnames;\n   bytes[] private ipfsHashes;\n   address[] private patientContractAddress;\n\n   constructor() public {\n    addresses.push(msg.sender);\n    patientUnames.push('x');\n    ipfsHashes.push('not-available');\n    patientContractAddress.push(msg.sender);\n   }\n\n  function savePatientContractAddress(address addr) public returns(bool){\n    patientContractAddress.push(addr);\n    return true;\n  }\n\n  function getPatientContractAddressByPatientName(bytes32 patientName) public view returns(address){\n    return patientContractAddress[patientnameToIndex[patientName]];\n  }\n\n  function getPatientContractAddresses() public view returns(address[] memory){\n    return patientContractAddress;\n  }\n\n   function registerPatient(bytes32 patientName, bytes memory ipfsHash) public returns(bool) {\n     require(!hasPatient(msg.sender),\n            \"Sender not authorized.\");\n     require(!patientNameTaken(patientName),\n            \"Patient name has been taken.\");\n      addresses.push(msg.sender);\n      patientUnames.push(patientName);\n      ipfsHashes.push(ipfsHash);\n      addressToIndex[msg.sender] = addresses.length - 1;\n      patientnameToIndex[patientName] = addresses.length - 1;\n      return true;\n    }\n\n   function updatePatient(bytes memory ipfsHash) public returns(bool){\n      require(!hasPatient(msg.sender),\n            \"Sender not authorized.\");\n      ipfsHashes[addressToIndex[msg.sender]] = ipfsHash;\n      return true;\n   }\n\n   function hasPatient(address _patientAdresses) public view returns(bool) {\n      return (addressToIndex[_patientAdresses] > 0 || _patientAdresses == addresses[0]);\n    }\n\n   function patientNameTaken(bytes32 pname) public view returns(bool takenIndeed) {\n      return (patientnameToIndex[pname] > 0 || pname == 'self');\n    }\n\n   function getPatientCount() public view returns(uint){\n      return addresses.length;\n    }\n\n   function getPatientByIndex(uint index) public view returns(address,bytes32,bytes memory){\n      require((index < addresses.length),\n            \"Index out of bound!\");\n      return(addresses[index], patientUnames[index], ipfsHashes[index]);\n    }\n\n   function getAddressByIndex(uint index) public view returns(address){\n      require((index < addresses.length),\n            \"Index out of bound!\");\n      return addresses[index];\n    }\n\n   function getPatientNameByIndex(uint index) public view returns(bytes32){\n      require((index < addresses.length),\n            \"Index out of bound!\");\n      return patientUnames[index];\n    }\n\n   function getIpfsHashByIndex(uint index) public view returns(bytes memory){\n      require((index < addresses.length),\n            \"Index out of bound!\");\n      return ipfsHashes[index];\n    }\n\n   function getPatientByAddress(address patientAddress) public view returns(uint, bytes32, bytes memory){\n      require(hasPatient(patientAddress),\n            \"Patient doesn't exist!\");\n      return(addressToIndex[patientAddress], patientUnames[addressToIndex[patientAddress]], ipfsHashes[addressToIndex[patientAddress]]);\n    }\n\n   function getIndexByAddress(address patientAddress) public view returns(uint){\n      require(hasPatient(patientAddress),\n            \"Patient doesn't exist!\");\n      return addressToIndex[patientAddress];\n    }\n\n   function getPatientNameByAddress(address patientAddress) public view returns(bytes32){\n      require(hasPatient(patientAddress),\n            \"Patient doesn't exist!\");\n      return patientUnames[addressToIndex[patientAddress]];\n    }\n\n   function getIpfsHashByAddress(address patientAddress) public view returns(bytes memory){\n      require(hasPatient(patientAddress),\n            \"Patient doesn't exist!\");\n      return ipfsHashes[addressToIndex[patientAddress]];\n    }\n\n   function getPatientByPatientName(bytes32 patientname) public view returns(uint,address,bytes memory){\n      require((patientnameToIndex[patientname] < addresses.length),\n            \"Patient index out of bound!\");\n      return(patientnameToIndex[patientname], addresses[patientnameToIndex[patientname]], ipfsHashes[patientnameToIndex[patientname]]);\n    }\n\n   function getIndexByPatientName(bytes32 patientname) public view returns(uint){\n      require((patientNameTaken(patientname)),\n            \"Can't find the patient!\");\n      return patientnameToIndex[patientname];\n    }\n\n   function getAddressByPatientName(bytes32 patientname) public view returns(address){\n      require((patientNameTaken(patientname)),\n        \"Can't find the patient!\");\n      return addresses[patientnameToIndex[patientname]];\n    }\n\n   function getIpfsHashByPatientName(bytes32 patientname) public view returns(bytes memory){\n      require((patientNameTaken(patientname)),\n            \"Can't find the patient!\");\n      return ipfsHashes[patientnameToIndex[patientname]];\n    }\n}",
  "sourcePath": "/home/eke/patient-eth/contracts/PatientStorage.sol",
  "compiler": {
    "name": "solc",
    "version": "0.5.16+commit.9c3226ce.Emscripten.clang"
  },
  "schemaVersion": "3.1.0",
  "updatedAt": "2020-05-01T15:06:33.930Z",
  "networkType": "ethereum",
  "devdoc": {
    "methods": {}
  },
  "userdoc": {
    "methods": {}
  }
}