{
  "contractName": "PatientStorage",
  "abi": [
    {
      "inputs": [],
      "payable": false,
      "stateMutability": "nonpayable",
      "type": "constructor"
    },
    {
      "constant": false,
      "inputs": [
        {
          "internalType": "bytes32",
          "name": "patientName",
          "type": "bytes32"
        },
        {
          "internalType": "bytes",
          "name": "ipfsHash",
          "type": "bytes"
        }
      ],
      "name": "registerPatient",
      "outputs": [
        {
          "internalType": "bool",
          "name": "",
          "type": "bool"
        }
      ],
      "payable": false,
      "stateMutability": "nonpayable",
      "type": "function"
    },
    {
      "constant": true,
      "inputs": [
        {
          "internalType": "address",
          "name": "_patientAdresses",
          "type": "address"
        }
      ],
      "name": "hasPatient",
      "outputs": [
        {
          "internalType": "bool",
          "name": "",
          "type": "bool"
        }
      ],
      "payable": false,
      "stateMutability": "view",
      "type": "function"
    },
    {
      "constant": true,
      "inputs": [
        {
          "internalType": "bytes32",
          "name": "pname",
          "type": "bytes32"
        }
      ],
      "name": "patientNameTaken",
      "outputs": [
        {
          "internalType": "bool",
          "name": "takenIndeed",
          "type": "bool"
        }
      ],
      "payable": false,
      "stateMutability": "view",
      "type": "function"
    },
    {
      "constant": false,
      "inputs": [
        {
          "internalType": "bytes",
          "name": "ipfsHash",
          "type": "bytes"
        }
      ],
      "name": "updatePatient",
      "outputs": [
        {
          "internalType": "bool",
          "name": "",
          "type": "bool"
        }
      ],
      "payable": false,
      "stateMutability": "nonpayable",
      "type": "function"
    },
    {
      "constant": true,
      "inputs": [],
      "name": "getPatientCount",
      "outputs": [
        {
          "internalType": "uint256",
          "name": "",
          "type": "uint256"
        }
      ],
      "payable": false,
      "stateMutability": "view",
      "type": "function"
    },
    {
      "constant": true,
      "inputs": [
        {
          "internalType": "bytes32",
          "name": "_pname",
          "type": "bytes32"
        }
      ],
      "name": "getPatientByPatientname",
      "outputs": [
        {
          "internalType": "contract Patient",
          "name": "",
          "type": "address"
        }
      ],
      "payable": false,
      "stateMutability": "view",
      "type": "function"
    },
    {
      "constant": true,
      "inputs": [
        {
          "internalType": "uint256",
          "name": "index",
          "type": "uint256"
        }
      ],
      "name": "getPatientByIndex",
      "outputs": [
        {
          "internalType": "address",
          "name": "",
          "type": "address"
        },
        {
          "internalType": "bytes32",
          "name": "",
          "type": "bytes32"
        },
        {
          "internalType": "bytes",
          "name": "",
          "type": "bytes"
        }
      ],
      "payable": false,
      "stateMutability": "view",
      "type": "function"
    },
    {
      "constant": true,
      "inputs": [
        {
          "internalType": "uint256",
          "name": "index",
          "type": "uint256"
        }
      ],
      "name": "getAddressByIndex",
      "outputs": [
        {
          "internalType": "address",
          "name": "",
          "type": "address"
        }
      ],
      "payable": false,
      "stateMutability": "view",
      "type": "function"
    },
    {
      "constant": true,
      "inputs": [
        {
          "internalType": "uint256",
          "name": "index",
          "type": "uint256"
        }
      ],
      "name": "getPatientNameByIndex",
      "outputs": [
        {
          "internalType": "bytes32",
          "name": "",
          "type": "bytes32"
        }
      ],
      "payable": false,
      "stateMutability": "view",
      "type": "function"
    },
    {
      "constant": true,
      "inputs": [
        {
          "internalType": "uint256",
          "name": "index",
          "type": "uint256"
        }
      ],
      "name": "getIpfsHashByIndex",
      "outputs": [
        {
          "internalType": "bytes",
          "name": "",
          "type": "bytes"
        }
      ],
      "payable": false,
      "stateMutability": "view",
      "type": "function"
    },
    {
      "constant": true,
      "inputs": [
        {
          "internalType": "address",
          "name": "patientAddress",
          "type": "address"
        }
      ],
      "name": "getPatientByAddress",
      "outputs": [
        {
          "internalType": "uint256",
          "name": "",
          "type": "uint256"
        },
        {
          "internalType": "bytes32",
          "name": "",
          "type": "bytes32"
        },
        {
          "internalType": "bytes",
          "name": "",
          "type": "bytes"
        }
      ],
      "payable": false,
      "stateMutability": "view",
      "type": "function"
    },
    {
      "constant": true,
      "inputs": [
        {
          "internalType": "address",
          "name": "patientAddress",
          "type": "address"
        }
      ],
      "name": "getIndexByAddress",
      "outputs": [
        {
          "internalType": "uint256",
          "name": "",
          "type": "uint256"
        }
      ],
      "payable": false,
      "stateMutability": "view",
      "type": "function"
    },
    {
      "constant": true,
      "inputs": [
        {
          "internalType": "address",
          "name": "patientAddress",
          "type": "address"
        }
      ],
      "name": "getPatientNameByAddress",
      "outputs": [
        {
          "internalType": "bytes32",
          "name": "",
          "type": "bytes32"
        }
      ],
      "payable": false,
      "stateMutability": "view",
      "type": "function"
    },
    {
      "constant": true,
      "inputs": [
        {
          "internalType": "address",
          "name": "patientAddress",
          "type": "address"
        }
      ],
      "name": "getIpfsHashByAddress",
      "outputs": [
        {
          "internalType": "bytes",
          "name": "",
          "type": "bytes"
        }
      ],
      "payable": false,
      "stateMutability": "view",
      "type": "function"
    },
    {
      "constant": true,
      "inputs": [
        {
          "internalType": "bytes32",
          "name": "patientname",
          "type": "bytes32"
        }
      ],
      "name": "getPatientByPatientName",
      "outputs": [
        {
          "internalType": "uint256",
          "name": "",
          "type": "uint256"
        },
        {
          "internalType": "address",
          "name": "",
          "type": "address"
        },
        {
          "internalType": "bytes",
          "name": "",
          "type": "bytes"
        }
      ],
      "payable": false,
      "stateMutability": "view",
      "type": "function"
    },
    {
      "constant": true,
      "inputs": [
        {
          "internalType": "bytes32",
          "name": "patientname",
          "type": "bytes32"
        }
      ],
      "name": "getIndexByPatientName",
      "outputs": [
        {
          "internalType": "uint256",
          "name": "",
          "type": "uint256"
        }
      ],
      "payable": false,
      "stateMutability": "view",
      "type": "function"
    },
    {
      "constant": true,
      "inputs": [
        {
          "internalType": "bytes32",
          "name": "patientname",
          "type": "bytes32"
        }
      ],
      "name": "getAddressByPatientName",
      "outputs": [
        {
          "internalType": "address",
          "name": "",
          "type": "address"
        }
      ],
      "payable": false,
      "stateMutability": "view",
      "type": "function"
    },
    {
      "constant": true,
      "inputs": [
        {
          "internalType": "bytes32",
          "name": "patientname",
          "type": "bytes32"
        }
      ],
      "name": "getIpfsHashByPatientName",
      "outputs": [
        {
          "internalType": "bytes",
          "name": "",
          "type": "bytes"
        }
      ],
      "payable": false,
      "stateMutability": "view",
      "type": "function"
    },
    {
      "constant": false,
      "inputs": [
        {
          "internalType": "bytes32",
          "name": "_pname",
          "type": "bytes32"
        },
        {
          "internalType": "bytes32",
          "name": "_consulDateID",
          "type": "bytes32"
        },
        {
          "internalType": "bytes",
          "name": "consulipfs",
          "type": "bytes"
        }
      ],
      "name": "consultationCreate",
      "outputs": [
        {
          "internalType": "bool",
          "name": "",
          "type": "bool"
        }
      ],
      "payable": false,
      "stateMutability": "nonpayable",
      "type": "function"
    },
    {
      "constant": true,
      "inputs": [
        {
          "internalType": "bytes32",
          "name": "patientName",
          "type": "bytes32"
        },
        {
          "internalType": "uint256",
          "name": "_index",
          "type": "uint256"
        }
      ],
      "name": "getConsultationByConsultationIndex",
      "outputs": [
        {
          "internalType": "bytes32",
          "name": "consulID",
          "type": "bytes32"
        }
      ],
      "payable": false,
      "stateMutability": "view",
      "type": "function"
    },
    {
      "constant": true,
      "inputs": [
        {
          "internalType": "bytes32",
          "name": "patientName",
          "type": "bytes32"
        },
        {
          "internalType": "bytes32",
          "name": "_consulDateID",
          "type": "bytes32"
        }
      ],
      "name": "getConsultationIndexByConsultationID",
      "outputs": [
        {
          "internalType": "uint256",
          "name": "",
          "type": "uint256"
        }
      ],
      "payable": false,
      "stateMutability": "view",
      "type": "function"
    },
    {
      "constant": true,
      "inputs": [
        {
          "internalType": "bytes32",
          "name": "_pname",
          "type": "bytes32"
        }
      ],
      "name": "getConsultationsByPatientName",
      "outputs": [
        {
          "internalType": "bytes32[]",
          "name": "",
          "type": "bytes32[]"
        }
      ],
      "payable": false,
      "stateMutability": "view",
      "type": "function"
    },
    {
      "constant": true,
      "inputs": [
        {
          "internalType": "address",
          "name": "patientAddress",
          "type": "address"
        }
      ],
      "name": "getConsultationsByPatientAddress",
      "outputs": [
        {
          "internalType": "bytes32[]",
          "name": "",
          "type": "bytes32[]"
        }
      ],
      "payable": false,
      "stateMutability": "view",
      "type": "function"
    },
    {
      "constant": true,
      "inputs": [
        {
          "internalType": "bytes32",
          "name": "_consulDateID",
          "type": "bytes32"
        }
      ],
      "name": "getConsultationIpfsByConsultationID",
      "outputs": [
        {
          "internalType": "bytes",
          "name": "",
          "type": "bytes"
        }
      ],
      "payable": false,
      "stateMutability": "view",
      "type": "function"
    },
    {
      "constant": false,
      "inputs": [
        {
          "internalType": "bytes32",
          "name": "_pname",
          "type": "bytes32"
        },
        {
          "internalType": "bytes32",
          "name": "_testDateID",
          "type": "bytes32"
        },
        {
          "internalType": "bytes",
          "name": "newPatientIpfs",
          "type": "bytes"
        }
      ],
      "name": "testCreate",
      "outputs": [
        {
          "internalType": "bool",
          "name": "",
          "type": "bool"
        }
      ],
      "payable": false,
      "stateMutability": "nonpayable",
      "type": "function"
    },
    {
      "constant": true,
      "inputs": [
        {
          "internalType": "bytes32",
          "name": "patientName",
          "type": "bytes32"
        },
        {
          "internalType": "uint256",
          "name": "_index",
          "type": "uint256"
        }
      ],
      "name": "getTestByTestIndex",
      "outputs": [
        {
          "internalType": "bytes32",
          "name": "testID",
          "type": "bytes32"
        }
      ],
      "payable": false,
      "stateMutability": "view",
      "type": "function"
    },
    {
      "constant": true,
      "inputs": [
        {
          "internalType": "bytes32",
          "name": "patientName",
          "type": "bytes32"
        },
        {
          "internalType": "bytes32",
          "name": "_testDateID",
          "type": "bytes32"
        }
      ],
      "name": "getTestIndexByTestID",
      "outputs": [
        {
          "internalType": "uint256",
          "name": "",
          "type": "uint256"
        }
      ],
      "payable": false,
      "stateMutability": "view",
      "type": "function"
    },
    {
      "constant": true,
      "inputs": [
        {
          "internalType": "bytes32",
          "name": "_pname",
          "type": "bytes32"
        }
      ],
      "name": "getTestsByPatientName",
      "outputs": [
        {
          "internalType": "bytes32[]",
          "name": "",
          "type": "bytes32[]"
        }
      ],
      "payable": false,
      "stateMutability": "view",
      "type": "function"
    },
    {
      "constant": true,
      "inputs": [
        {
          "internalType": "address",
          "name": "patientAddress",
          "type": "address"
        }
      ],
      "name": "getTestsByPatientAddress",
      "outputs": [
        {
          "internalType": "bytes32[]",
          "name": "",
          "type": "bytes32[]"
        }
      ],
      "payable": false,
      "stateMutability": "view",
      "type": "function"
    },
    {
      "constant": true,
      "inputs": [
        {
          "internalType": "bytes32",
          "name": "patientName",
          "type": "bytes32"
        }
      ],
      "name": "getTestsCount",
      "outputs": [
        {
          "internalType": "uint256",
          "name": "",
          "type": "uint256"
        }
      ],
      "payable": false,
      "stateMutability": "view",
      "type": "function"
    },
    {
      "constant": false,
      "inputs": [
        {
          "internalType": "bytes32",
          "name": "patientName",
          "type": "bytes32"
        },
        {
          "internalType": "bytes32",
          "name": "consulDateID",
          "type": "bytes32"
        },
        {
          "internalType": "bytes32",
          "name": "mname",
          "type": "bytes32"
        }
      ],
      "name": "saveMedicineForPatientUse",
      "outputs": [
        {
          "internalType": "bool",
          "name": "",
          "type": "bool"
        }
      ],
      "payable": false,
      "stateMutability": "nonpayable",
      "type": "function"
    },
    {
      "constant": true,
      "inputs": [
        {
          "internalType": "bytes32",
          "name": "patientName",
          "type": "bytes32"
        },
        {
          "internalType": "bytes32",
          "name": "consulDateID",
          "type": "bytes32"
        }
      ],
      "name": "getMedicinesFromConsultation",
      "outputs": [
        {
          "internalType": "bytes32[]",
          "name": "",
          "type": "bytes32[]"
        }
      ],
      "payable": false,
      "stateMutability": "view",
      "type": "function"
    },
    {
      "constant": true,
      "inputs": [
        {
          "internalType": "bytes32",
          "name": "patientName",
          "type": "bytes32"
        },
        {
          "internalType": "bytes32",
          "name": "_consulDateID",
          "type": "bytes32"
        },
        {
          "internalType": "uint256",
          "name": "index",
          "type": "uint256"
        }
      ],
      "name": "getMedicineByIndex",
      "outputs": [
        {
          "internalType": "bytes32",
          "name": "",
          "type": "bytes32"
        }
      ],
      "payable": false,
      "stateMutability": "view",
      "type": "function"
    },
    {
      "constant": true,
      "inputs": [
        {
          "internalType": "bytes32",
          "name": "patientName",
          "type": "bytes32"
        },
        {
          "internalType": "bytes32",
          "name": "_consulDateID",
          "type": "bytes32"
        },
        {
          "internalType": "bytes32",
          "name": "medname",
          "type": "bytes32"
        }
      ],
      "name": "getMedicineByMedicineName",
      "outputs": [
        {
          "internalType": "bytes32",
          "name": "",
          "type": "bytes32"
        }
      ],
      "payable": false,
      "stateMutability": "view",
      "type": "function"
    },
    {
      "constant": true,
      "inputs": [
        {
          "internalType": "bytes32",
          "name": "patientName",
          "type": "bytes32"
        },
        {
          "internalType": "bytes32",
          "name": "_consulDateID",
          "type": "bytes32"
        }
      ],
      "name": "getMedicinesCountFromConsultation",
      "outputs": [
        {
          "internalType": "uint256",
          "name": "",
          "type": "uint256"
        }
      ],
      "payable": false,
      "stateMutability": "view",
      "type": "function"
    }
  ],
  "bytecode": "0x60806040526040516200001290620001a4565b604051809103906000f0801580156200002f573d6000803e3d6000fd5b50600760006101000a81548173ffffffffffffffffffffffffffffffffffffffff021916908373ffffffffffffffffffffffffffffffffffffffff1602179055503480156200007d57600080fd5b5060023390806001815401808255809150509060018203906000526020600020016000909192909190916101000a81548173ffffffffffffffffffffffffffffffffffffffff021916908373ffffffffffffffffffffffffffffffffffffffff1602179055505060038060018154018082558091505090600182039060005260206000200160007f78000000000000000000000000000000000000000000000000000000000000009091909150555060048060018154018082558091505090600182039060005260206000200160006040518060400160405280600d81526020017f6e6f742d617661696c61626c6500000000000000000000000000000000000000815250909190915090805190602001906200019c929190620001b2565b505062000261565b6125a5806200368283390190565b828054600181600116156101000203166002900490600052602060002090601f016020900481019282601f10620001f557805160ff191683800117855562000226565b8280016001018555821562000226579182015b828111156200022557825182559160200191906001019062000208565b5b50905062000235919062000239565b5090565b6200025e91905b808211156200025a57600081600090555060010162000240565b5090565b90565b61341180620002716000396000f3fe608060405234801561001057600080fd5b50600436106102115760003560e01c80637448d8d811610125578063c190665b116100ad578063eb9fbaa91161007c578063eb9fbaa9146107aa578063ed96cf39146107da578063f421ba101461080a578063f7932fb01461083a578063f7a65e601461086a57610211565b8063c190665b146106fc578063cbb7e2ff1461071a578063ce10cf881461074a578063dfb7ab601461077a57610211565b8063ad36054b116100f4578063ad36054b14610608578063b1d5458d1461063a578063b9aa549b1461066a578063b9affb931461069a578063ba5c0335146106ca57610211565b80637448d8d8146105485780637b63cec41461057857806394e7ef6e146105a8578063a74380a6146105d857610211565b80633fe285d5116101a857806357ea0c2f1161017757806357ea0c2f146104565780635fe721ff1461048857806368761954146104b85780636cfbc8fd146104e8578063742752551461051857610211565b80633fe285d51461039657806345cfa71d146103c657806348099797146103f65780635035cf521461042657610211565b806320cfcbfa116101e457806320cfcbfa146102d657806324ecae0b1461030657806329f78d881461033657806330ca739b1461036657610211565b80630831192514610216578063083121ad146102465780630b8d6eae146102765780631973ef91146102a6575b600080fd5b610230600480360361022b91908101906128dd565b61089a565b60405161023d919061300e565b60405180910390f35b610260600480360361025b919081019061296b565b610953565b60405161026d9190612f18565b60405180910390f35b610290600480360361028b919081019061284a565b610a1e565b60405161029d9190612ef6565b60405180910390f35b6102c060048036036102bb919081019061284a565b610ad7565b6040516102cd919061312b565b60405180910390f35b6102f060048036036102eb91908101906128dd565b610b67565b6040516102fd919061312b565b60405180910390f35b610320600480360361031b919081019061296b565b610c21565b60405161032d9190612f33565b60405180910390f35b610350600480360361034b9190810190612b82565b610cea565b60405161035d919061300e565b60405180910390f35b610380600480360361037b919081019061284a565b610dea565b60405161038d9190612ef6565b60405180910390f35b6103b060048036036103ab919081019061292f565b610ee0565b6040516103bd919061312b565b60405180910390f35b6103e060048036036103db91908101906128dd565b610f95565b6040516103ed9190612ef6565b60405180910390f35b610410600480360361040b919081019061292f565b61105f565b60405161041d9190612ef6565b60405180910390f35b610440600480360361043b91908101906129ba565b61112a565b60405161044d9190612f18565b60405180910390f35b610470600480360361046b9190810190612b82565b6111e6565b60405161047f93929190612eb8565b60405180910390f35b6104a2600480360361049d9190810190612ac4565b611342565b6040516104af9190612f33565b60405180910390f35b6104d260048036036104cd9190810190612a70565b6113f7565b6040516104df9190612f18565b60405180910390f35b61050260048036036104fd91908101906128dd565b611660565b60405161050f9190612e9d565b60405180910390f35b610532600480360361052d91908101906129ba565b6116fc565b60405161053f9190612f18565b60405180910390f35b610562600480360361055d91908101906128dd565b6117b8565b60405161056f9190612ef6565b60405180910390f35b610592600480360361058d91908101906128dd565b6118d4565b60405161059f9190612f18565b60405180910390f35b6105c260048036036105bd9190810190612b00565b61191d565b6040516105cf9190612f18565b60405180910390f35b6105f260048036036105ed919081019061284a565b611a1f565b6040516105ff919061300e565b60405180910390f35b610622600480360361061d91908101906128dd565b611b5e565b60405161063193929190613146565b60405180910390f35b610654600480360361064f91908101906128dd565b611cef565b604051610661919061312b565b60405180910390f35b610684600480360361067f9190810190612ac4565b611d54565b6040516106919190612f33565b60405180910390f35b6106b460048036036106af919081019061284a565b611e1a565b6040516106c19190612f33565b60405180910390f35b6106e460048036036106df919081019061284a565b611ec1565b6040516106f393929190613184565b60405180910390f35b6107046120a1565b604051610711919061312b565b60405180910390f35b610734600480360361072f9190810190612b82565b6120ae565b6040516107419190612f33565b60405180910390f35b610764600480360361075f9190810190612b82565b612116565b6040516107719190612e9d565b60405180910390f35b610794600480360361078f91908101906128dd565b61219e565b6040516107a1919061300e565b60405180910390f35b6107c460048036036107bf919081019061284a565b6122b2565b6040516107d19190612f18565b60405180910390f35b6107f460048036036107ef919081019061292f565b61236a565b604051610801919061312b565b60405180910390f35b610824600480360361081f919081019061292f565b612430565b604051610831919061312b565b60405180910390f35b610854600480360361084f91908101906128dd565b6124f6565b6040516108619190613030565b60405180910390f35b610884600480360361087f9190810190612a21565b612533565b6040516108919190612f33565b60405180910390f35b6060600760009054906101000a900473ffffffffffffffffffffffffffffffffffffffff1673ffffffffffffffffffffffffffffffffffffffff166308311925836040518263ffffffff1660e01b81526004016108f79190612f33565b60006040518083038186803b15801561090f57600080fd5b505afa158015610923573d6000803e3d6000fd5b505050506040513d6000823e3d601f19601f8201168201806040525061094c9190810190612b41565b9050919050565b60006005600085815260200190815260200160002060009054906101000a900473ffffffffffffffffffffffffffffffffffffffff1673ffffffffffffffffffffffffffffffffffffffff16631aa5346a84846040518363ffffffff1660e01b81526004016109c3929190612f4e565b602060405180830381600087803b1580156109dd57600080fd5b505af11580156109f1573d6000803e3d6000fd5b505050506040513d601f19601f82011682018060405250610a1591908101906128b4565b90509392505050565b6060600760009054906101000a900473ffffffffffffffffffffffffffffffffffffffff1673ffffffffffffffffffffffffffffffffffffffff16630b8d6eae836040518263ffffffff1660e01b8152600401610a7b9190612e9d565b60006040518083038186803b158015610a9357600080fd5b505afa158015610aa7573d6000803e3d6000fd5b505050506040513d6000823e3d601f19601f82011682018060405250610ad09190810190612873565b9050919050565b6000610ae2826122b2565b610b21576040517f08c379a0000000000000000000000000000000000000000000000000000000008152600401610b189061304b565b60405180910390fd5b6000808373ffffffffffffffffffffffffffffffffffffffff1673ffffffffffffffffffffffffffffffffffffffff168152602001908152602001600020549050919050565b60006005600083815260200190815260200160002060009054906101000a900473ffffffffffffffffffffffffffffffffffffffff1673ffffffffffffffffffffffffffffffffffffffff1663624a4dac6040518163ffffffff1660e01b815260040160206040518083038186803b158015610be257600080fd5b505afa158015610bf6573d6000803e3d6000fd5b505050506040513d601f19601f82011682018060405250610c1a9190810190612bab565b9050919050565b60006005600085815260200190815260200160002060009054906101000a900473ffffffffffffffffffffffffffffffffffffffff1673ffffffffffffffffffffffffffffffffffffffff16634b0cf75e84846040518363ffffffff1660e01b8152600401610c91929190612f4e565b60206040518083038186803b158015610ca957600080fd5b505afa158015610cbd573d6000803e3d6000fd5b505050506040513d601f19601f82011682018060405250610ce19190810190612906565b90509392505050565b60606002805490508210610d33576040517f08c379a0000000000000000000000000000000000000000000000000000000008152600401610d2a906130eb565b60405180910390fd5b60048281548110610d4057fe5b906000526020600020018054600181600116156101000203166002900480601f016020809104026020016040519081016040528092919081815260200182805460018160011615610100020316600290048015610dde5780601f10610db357610100808354040283529160200191610dde565b820191906000526020600020905b815481529060010190602001808311610dc157829003601f168201915b50505050509050919050565b6060600660008373ffffffffffffffffffffffffffffffffffffffff1673ffffffffffffffffffffffffffffffffffffffff16815260200190815260200160002060009054906101000a900473ffffffffffffffffffffffffffffffffffffffff1673ffffffffffffffffffffffffffffffffffffffff166330ca739b836040518263ffffffff1660e01b8152600401610e849190612e9d565b60006040518083038186803b158015610e9c57600080fd5b505afa158015610eb0573d6000803e3d6000fd5b505050506040513d6000823e3d601f19601f82011682018060405250610ed99190810190612873565b9050919050565b6000600760009054906101000a900473ffffffffffffffffffffffffffffffffffffffff1673ffffffffffffffffffffffffffffffffffffffff16632dce4167836040518263ffffffff1660e01b8152600401610f3d9190612f33565b60206040518083038186803b158015610f5557600080fd5b505afa158015610f69573d6000803e3d6000fd5b505050506040513d601f19601f82011682018060405250610f8d9190810190612bab565b905092915050565b60606005600083815260200190815260200160002060009054906101000a900473ffffffffffffffffffffffffffffffffffffffff1673ffffffffffffffffffffffffffffffffffffffff166345cfa71d836040518263ffffffff1660e01b81526004016110039190612f33565b60006040518083038186803b15801561101b57600080fd5b505afa15801561102f573d6000803e3d6000fd5b505050506040513d6000823e3d601f19601f820116820180604052506110589190810190612873565b9050919050565b60606005600084815260200190815260200160002060009054906101000a900473ffffffffffffffffffffffffffffffffffffffff1673ffffffffffffffffffffffffffffffffffffffff1663281c8ab7836040518263ffffffff1660e01b81526004016110cd9190612f33565b60006040518083038186803b1580156110e557600080fd5b505afa1580156110f9573d6000803e3d6000fd5b505050506040513d6000823e3d601f19601f820116820180604052506111229190810190612873565b905092915050565b6000600760009054906101000a900473ffffffffffffffffffffffffffffffffffffffff1673ffffffffffffffffffffffffffffffffffffffff16635035cf528585856040518463ffffffff1660e01b815260040161118b93929190612f77565b602060405180830381600087803b1580156111a557600080fd5b505af11580156111b9573d6000803e3d6000fd5b505050506040513d601f19601f820116820180604052506111dd91908101906128b4565b90509392505050565b60008060606002805490508410611232576040517f08c379a0000000000000000000000000000000000000000000000000000000008152600401611229906130eb565b60405180910390fd5b6002848154811061123f57fe5b9060005260206000200160009054906101000a900473ffffffffffffffffffffffffffffffffffffffff166003858154811061127757fe5b90600052602060002001546004868154811061128f57fe5b90600052602060002001808054600181600116156101000203166002900480601f01602080910402602001604051908101604052809291908181526020018280546001816001161561010002031660029004801561132e5780601f106113035761010080835404028352916020019161132e565b820191906000526020600020905b81548152906001019060200180831161131157829003601f168201915b505050505090509250925092509193909250565b6000600760009054906101000a900473ffffffffffffffffffffffffffffffffffffffff1673ffffffffffffffffffffffffffffffffffffffff16639b9fc6e0836040518263ffffffff1660e01b815260040161139f919061312b565b60206040518083038186803b1580156113b757600080fd5b505afa1580156113cb573d6000803e3d6000fd5b505050506040513d601f19601f820116820180604052506113ef9190810190612906565b905092915050565b6000611402336122b2565b15611442576040517f08c379a00000000000000000000000000000000000000000000000000000000081526004016114399061310b565b60405180910390fd5b61144b836118d4565b1561148b576040517f08c379a00000000000000000000000000000000000000000000000000000000081526004016114829061308b565b60405180910390fd5b600760009054906101000a900473ffffffffffffffffffffffffffffffffffffffff1673ffffffffffffffffffffffffffffffffffffffff166398e2fc8084846040518363ffffffff1660e01b81526004016114e8929190612fb5565b600060405180830381600087803b15801561150257600080fd5b505af1158015611516573d6000803e3d6000fd5b5050505060023390806001815401808255809150509060018203906000526020600020016000909192909190916101000a81548173ffffffffffffffffffffffffffffffffffffffff021916908373ffffffffffffffffffffffffffffffffffffffff16021790555050600383908060018154018082558091505090600182039060005260206000200160009091929091909150555060048290806001815401808255809150509060018203906000526020600020016000909192909190915090805190602001906115e99291906125fc565b50506001600280549050036000803373ffffffffffffffffffffffffffffffffffffffff1673ffffffffffffffffffffffffffffffffffffffff1681526020019081526020016000208190555060016002805490500360016000858152602001908152602001600020819055506001905092915050565b600061166b826118d4565b6116aa576040517f08c379a00000000000000000000000000000000000000000000000000000000081526004016116a19061306b565b60405180910390fd5b60026001600084815260200190815260200160002054815481106116ca57fe5b9060005260206000200160009054906101000a900473ffffffffffffffffffffffffffffffffffffffff169050919050565b6000600760009054906101000a900473ffffffffffffffffffffffffffffffffffffffff1673ffffffffffffffffffffffffffffffffffffffff1663742752558585856040518463ffffffff1660e01b815260040161175d93929190612f77565b602060405180830381600087803b15801561177757600080fd5b505af115801561178b573d6000803e3d6000fd5b505050506040513d601f19601f820116820180604052506117af91908101906128b4565b90509392505050565b60606117de6117d96001600085815260200190815260200160002054612116565b6122b2565b61181d576040517f08c379a0000000000000000000000000000000000000000000000000000000008152600401611814906130cb565b60405180910390fd5b600760009054906101000a900473ffffffffffffffffffffffffffffffffffffffff1673ffffffffffffffffffffffffffffffffffffffff16637448d8d8836040518263ffffffff1660e01b81526004016118789190612f33565b60006040518083038186803b15801561189057600080fd5b505afa1580156118a4573d6000803e3d6000fd5b505050506040513d6000823e3d601f19601f820116820180604052506118cd9190810190612873565b9050919050565b6000806001600084815260200190815260200160002054118061191657507f73656c660000000000000000000000000000000000000000000000000000000082145b9050919050565b6000611928336122b2565b15611968576040517f08c379a000000000000000000000000000000000000000000000000000000000815260040161195f9061310b565b60405180910390fd5b600760009054906101000a900473ffffffffffffffffffffffffffffffffffffffff1673ffffffffffffffffffffffffffffffffffffffff166394e7ef6e836040518263ffffffff1660e01b81526004016119c3919061300e565b602060405180830381600087803b1580156119dd57600080fd5b505af11580156119f1573d6000803e3d6000fd5b505050506040513d601f19601f82011682018060405250611a1591908101906128b4565b5060019050919050565b6060611a2a826122b2565b611a69576040517f08c379a0000000000000000000000000000000000000000000000000000000008152600401611a609061304b565b60405180910390fd5b60046000808473ffffffffffffffffffffffffffffffffffffffff1673ffffffffffffffffffffffffffffffffffffffff1681526020019081526020016000205481548110611ab457fe5b906000526020600020018054600181600116156101000203166002900480601f016020809104026020016040519081016040528092919081815260200182805460018160011615610100020316600290048015611b525780601f10611b2757610100808354040283529160200191611b52565b820191906000526020600020905b815481529060010190602001808311611b3557829003601f168201915b50505050509050919050565b6000806060600280549050600160008681526020019081526020016000205410611bbd576040517f08c379a0000000000000000000000000000000000000000000000000000000008152600401611bb4906130ab565b60405180910390fd5b60016000858152602001908152602001600020546002600160008781526020019081526020016000205481548110611bf157fe5b9060005260206000200160009054906101000a900473ffffffffffffffffffffffffffffffffffffffff166004600160008881526020019081526020016000205481548110611c3c57fe5b90600052602060002001808054600181600116156101000203166002900480601f016020809104026020016040519081016040528092919081815260200182805460018160011615610100020316600290048015611cdb5780601f10611cb057610100808354040283529160200191611cdb565b820191906000526020600020905b815481529060010190602001808311611cbe57829003601f168201915b505050505090509250925092509193909250565b6000611cfa826118d4565b611d39576040517f08c379a0000000000000000000000000000000000000000000000000000000008152600401611d309061306b565b60405180910390fd5b60016000838152602001908152602001600020549050919050565b60006005600084815260200190815260200160002060009054906101000a900473ffffffffffffffffffffffffffffffffffffffff1673ffffffffffffffffffffffffffffffffffffffff1663511ad522836040518263ffffffff1660e01b8152600401611dc2919061312b565b60206040518083038186803b158015611dda57600080fd5b505afa158015611dee573d6000803e3d6000fd5b505050506040513d601f19601f82011682018060405250611e129190810190612906565b905092915050565b6000611e25826122b2565b611e64576040517f08c379a0000000000000000000000000000000000000000000000000000000008152600401611e5b9061304b565b60405180910390fd5b60036000808473ffffffffffffffffffffffffffffffffffffffff1673ffffffffffffffffffffffffffffffffffffffff1681526020019081526020016000205481548110611eaf57fe5b90600052602060002001549050919050565b6000806060611ecf846122b2565b611f0e576040517f08c379a0000000000000000000000000000000000000000000000000000000008152600401611f059061304b565b60405180910390fd5b6000808573ffffffffffffffffffffffffffffffffffffffff1673ffffffffffffffffffffffffffffffffffffffff1681526020019081526020016000205460036000808773ffffffffffffffffffffffffffffffffffffffff1673ffffffffffffffffffffffffffffffffffffffff1681526020019081526020016000205481548110611f9857fe5b906000526020600020015460046000808873ffffffffffffffffffffffffffffffffffffffff1673ffffffffffffffffffffffffffffffffffffffff1681526020019081526020016000205481548110611fee57fe5b90600052602060002001808054600181600116156101000203166002900480601f01602080910402602001604051908101604052809291908181526020018280546001816001161561010002031660029004801561208d5780601f106120625761010080835404028352916020019161208d565b820191906000526020600020905b81548152906001019060200180831161207057829003601f168201915b505050505090509250925092509193909250565b6000600280549050905090565b600060028054905082106120f7576040517f08c379a00000000000000000000000000000000000000000000000000000000081526004016120ee906130eb565b60405180910390fd5b6003828154811061210457fe5b90600052602060002001549050919050565b6000600280549050821061215f576040517f08c379a0000000000000000000000000000000000000000000000000000000008152600401612156906130eb565b60405180910390fd5b6002828154811061216c57fe5b9060005260206000200160009054906101000a900473ffffffffffffffffffffffffffffffffffffffff169050919050565b60606121a9826118d4565b6121e8576040517f08c379a00000000000000000000000000000000000000000000000000000000081526004016121df9061306b565b60405180910390fd5b600460016000848152602001908152602001600020548154811061220857fe5b906000526020600020018054600181600116156101000203166002900480601f0160208091040260200160405190810160405280929190818152602001828054600181600116156101000203166002900480156122a65780601f1061227b576101008083540402835291602001916122a6565b820191906000526020600020905b81548152906001019060200180831161228957829003601f168201915b50505050509050919050565b6000806000808473ffffffffffffffffffffffffffffffffffffffff1673ffffffffffffffffffffffffffffffffffffffff1681526020019081526020016000205411806123635750600260008154811061230957fe5b9060005260206000200160009054906101000a900473ffffffffffffffffffffffffffffffffffffffff1673ffffffffffffffffffffffffffffffffffffffff168273ffffffffffffffffffffffffffffffffffffffff16145b9050919050565b60006005600084815260200190815260200160002060009054906101000a900473ffffffffffffffffffffffffffffffffffffffff1673ffffffffffffffffffffffffffffffffffffffff1663234c1618836040518263ffffffff1660e01b81526004016123d89190612f33565b60206040518083038186803b1580156123f057600080fd5b505afa158015612404573d6000803e3d6000fd5b505050506040513d601f19601f820116820180604052506124289190810190612bab565b905092915050565b60006005600084815260200190815260200160002060009054906101000a900473ffffffffffffffffffffffffffffffffffffffff1673ffffffffffffffffffffffffffffffffffffffff16634ed37f49836040518263ffffffff1660e01b815260040161249e9190612f33565b60206040518083038186803b1580156124b657600080fd5b505afa1580156124ca573d6000803e3d6000fd5b505050506040513d601f19601f820116820180604052506124ee9190810190612bab565b905092915050565b60006005600083815260200190815260200160002060009054906101000a900473ffffffffffffffffffffffffffffffffffffffff169050919050565b60006005600085815260200190815260200160002060009054906101000a900473ffffffffffffffffffffffffffffffffffffffff1673ffffffffffffffffffffffffffffffffffffffff166348ec275584846040518363ffffffff1660e01b81526004016125a3929190612fe5565b60206040518083038186803b1580156125bb57600080fd5b505afa1580156125cf573d6000803e3d6000fd5b505050506040513d601f19601f820116820180604052506125f39190810190612906565b90509392505050565b828054600181600116156101000203166002900490600052602060002090601f016020900481019282601f1061263d57805160ff191683800117855561266b565b8280016001018555821561266b579182015b8281111561266a57825182559160200191906001019061264f565b5b509050612678919061267c565b5090565b61269e91905b8082111561269a576000816000905550600101612682565b5090565b90565b6000813590506126b081613372565b92915050565b600082601f8301126126c757600080fd5b81516126da6126d5826131ef565b6131c2565b915081818352602084019350602081019050838560208402820111156126ff57600080fd5b60005b8381101561272f57816127158882612763565b845260208401935060208301925050600181019050612702565b5050505092915050565b60008151905061274881613389565b92915050565b60008135905061275d816133a0565b92915050565b600081519050612772816133a0565b92915050565b600082601f83011261278957600080fd5b813561279c61279782613217565b6131c2565b915080825260208301602083018583830111156127b857600080fd5b6127c383828461331f565b50505092915050565b600082601f8301126127dd57600080fd5b81516127f06127eb82613217565b6131c2565b9150808252602083016020830185838301111561280c57600080fd5b61281783828461332e565b50505092915050565b60008135905061282f816133b7565b92915050565b600081519050612844816133b7565b92915050565b60006020828403121561285c57600080fd5b600061286a848285016126a1565b91505092915050565b60006020828403121561288557600080fd5b600082015167ffffffffffffffff81111561289f57600080fd5b6128ab848285016126b6565b91505092915050565b6000602082840312156128c657600080fd5b60006128d484828501612739565b91505092915050565b6000602082840312156128ef57600080fd5b60006128fd8482850161274e565b91505092915050565b60006020828403121561291857600080fd5b600061292684828501612763565b91505092915050565b6000806040838503121561294257600080fd5b60006129508582860161274e565b92505060206129618582860161274e565b9150509250929050565b60008060006060848603121561298057600080fd5b600061298e8682870161274e565b935050602061299f8682870161274e565b92505060406129b08682870161274e565b9150509250925092565b6000806000606084860312156129cf57600080fd5b60006129dd8682870161274e565b93505060206129ee8682870161274e565b925050604084013567ffffffffffffffff811115612a0b57600080fd5b612a1786828701612778565b9150509250925092565b600080600060608486031215612a3657600080fd5b6000612a448682870161274e565b9350506020612a558682870161274e565b9250506040612a6686828701612820565b9150509250925092565b60008060408385031215612a8357600080fd5b6000612a918582860161274e565b925050602083013567ffffffffffffffff811115612aae57600080fd5b612aba85828601612778565b9150509250929050565b60008060408385031215612ad757600080fd5b6000612ae58582860161274e565b9250506020612af685828601612820565b9150509250929050565b600060208284031215612b1257600080fd5b600082013567ffffffffffffffff811115612b2c57600080fd5b612b3884828501612778565b91505092915050565b600060208284031215612b5357600080fd5b600082015167ffffffffffffffff811115612b6d57600080fd5b612b79848285016127cc565b91505092915050565b600060208284031215612b9457600080fd5b6000612ba284828501612820565b91505092915050565b600060208284031215612bbd57600080fd5b6000612bcb84828501612835565b91505092915050565b6000612be08383612c68565b60208301905092915050565b612bf5816132a9565b82525050565b6000612c0682613253565b612c108185613276565b9350612c1b83613243565b8060005b83811015612c4c578151612c338882612bd4565b9750612c3e83613269565b925050600181019050612c1f565b5085935050505092915050565b612c62816132bb565b82525050565b612c71816132c7565b82525050565b612c80816132c7565b82525050565b6000612c918261325e565b612c9b8185613287565b9350612cab81856020860161332e565b612cb481613361565b840191505092915050565b612cc8816132fb565b82525050565b6000612cdb601683613298565b91507f50617469656e7420646f65736e277420657869737421000000000000000000006000830152602082019050919050565b6000612d1b601783613298565b91507f43616e27742066696e64207468652070617469656e74210000000000000000006000830152602082019050919050565b6000612d5b601c83613298565b91507f50617469656e74206e616d6520686173206265656e2074616b656e2e000000006000830152602082019050919050565b6000612d9b601b83613298565b91507f50617469656e7420696e646578206f7574206f6620626f756e642100000000006000830152602082019050919050565b6000612ddb601a83613298565b91507f50617469656e74206861736e2774206265656e20666f756e642e0000000000006000830152602082019050919050565b6000612e1b601383613298565b91507f496e646578206f7574206f6620626f756e6421000000000000000000000000006000830152602082019050919050565b6000612e5b601683613298565b91507f53656e646572206e6f7420617574686f72697a65642e000000000000000000006000830152602082019050919050565b612e97816132f1565b82525050565b6000602082019050612eb26000830184612bec565b92915050565b6000606082019050612ecd6000830186612bec565b612eda6020830185612c77565b8181036040830152612eec8184612c86565b9050949350505050565b60006020820190508181036000830152612f108184612bfb565b905092915050565b6000602082019050612f2d6000830184612c59565b92915050565b6000602082019050612f486000830184612c77565b92915050565b6000604082019050612f636000830185612c77565b612f706020830184612c77565b9392505050565b6000606082019050612f8c6000830186612c77565b612f996020830185612c77565b8181036040830152612fab8184612c86565b9050949350505050565b6000604082019050612fca6000830185612c77565b8181036020830152612fdc8184612c86565b90509392505050565b6000604082019050612ffa6000830185612c77565b6130076020830184612e8e565b9392505050565b600060208201905081810360008301526130288184612c86565b905092915050565b60006020820190506130456000830184612cbf565b92915050565b6000602082019050818103600083015261306481612cce565b9050919050565b6000602082019050818103600083015261308481612d0e565b9050919050565b600060208201905081810360008301526130a481612d4e565b9050919050565b600060208201905081810360008301526130c481612d8e565b9050919050565b600060208201905081810360008301526130e481612dce565b9050919050565b6000602082019050818103600083015261310481612e0e565b9050919050565b6000602082019050818103600083015261312481612e4e565b9050919050565b60006020820190506131406000830184612e8e565b92915050565b600060608201905061315b6000830186612e8e565b6131686020830185612bec565b818103604083015261317a8184612c86565b9050949350505050565b60006060820190506131996000830186612e8e565b6131a66020830185612c77565b81810360408301526131b88184612c86565b9050949350505050565b6000604051905081810181811067ffffffffffffffff821117156131e557600080fd5b8060405250919050565b600067ffffffffffffffff82111561320657600080fd5b602082029050602081019050919050565b600067ffffffffffffffff82111561322e57600080fd5b601f19601f8301169050602081019050919050565b6000819050602082019050919050565b600081519050919050565b600081519050919050565b6000602082019050919050565b600082825260208201905092915050565b600082825260208201905092915050565b600082825260208201905092915050565b60006132b4826132d1565b9050919050565b60008115159050919050565b6000819050919050565b600073ffffffffffffffffffffffffffffffffffffffff82169050919050565b6000819050919050565b60006133068261330d565b9050919050565b6000613318826132d1565b9050919050565b82818337600083830152505050565b60005b8381101561334c578082015181840152602081019050613331565b8381111561335b576000848401525b50505050565b6000601f19601f8301169050919050565b61337b816132a9565b811461338657600080fd5b50565b613392816132bb565b811461339d57600080fd5b50565b6133a9816132c7565b81146133b457600080fd5b50565b6133c0816132f1565b81146133cb57600080fd5b5056fea365627a7a723158207fb77c101f7a63212b0811f588a9daddead9f87d5510b26b02a532810e3bd7a16c6578706572696d656e74616cf564736f6c634300051000406080604052604051620000129062000235565b604051809103906000f0801580156200002f573d6000803e3d6000fd5b50600360006101000a81548173ffffffffffffffffffffffffffffffffffffffff021916908373ffffffffffffffffffffffffffffffffffffffff1602179055506040516200007e9062000243565b604051809103906000f0801580156200009b573d6000803e3d6000fd5b50600a60006101000a81548173ffffffffffffffffffffffffffffffffffffffff021916908373ffffffffffffffffffffffffffffffffffffffff160217905550348015620000e957600080fd5b50336000806101000a81548173ffffffffffffffffffffffffffffffffffffffff021916908373ffffffffffffffffffffffffffffffffffffffff1602179055507f78000000000000000000000000000000000000000000000000000000000000006001819055506040518060400160405280600181526020017f7800000000000000000000000000000000000000000000000000000000000000815250600290805190602001906200019e92919062000251565b5060088060018154018082558091505090600182039060005260206000200160007f6e6f742d617661696c61626c650000000000000000000000000000000000000090919091505550600e8060018154018082558091505090600182039060005260206000200160007f6e6f742d617661696c61626c65000000000000000000000000000000000000009091909150555062000300565b6106df8062001d0e83390190565b6101b880620023ed83390190565b828054600181600116156101000203166002900490600052602060002090601f016020900481019282601f106200029457805160ff1916838001178555620002c5565b82800160010185558215620002c5579182015b82811115620002c4578251825591602001919060010190620002a7565b5b509050620002d49190620002d8565b5090565b620002fd91905b80821115620002f9576000816000905550600101620002df565b5090565b90565b6119fe80620003106000396000f3fe608060405234801561001057600080fd5b506004361061012c5760003560e01c80634ed37f49116100ad5780637448d8d8116100715780637448d8d8146103ef57806394e7ef6e1461041f57806398e2fc801461044f5780639b9fc6e01461046b578063f811f1ab1461049b5761012c565b80634ed37f49146103115780635035cf5214610341578063511ad52214610371578063624a4dac146103a157806374275255146103bf5761012c565b80632dce4167116100f45780632dce41671461022157806330ca739b1461025157806345cfa71d1461028157806348ec2755146102b15780634b0cf75e146102e15761012c565b806308311925146101315780630b8d6eae146101615780631aa5346a14610191578063234c1618146101c1578063281c8ab7146101f1575b600080fd5b61014b6004803603610146919081019061135b565b6104b9565b6040516101589190611771565b60405180910390f35b61017b600480360361017691908101906112c8565b610585565b60405161018891906116f0565b60405180910390f35b6101ab60048036036101a691908101906113ad565b61061c565b6040516101b89190611712565b60405180910390f35b6101db60048036036101d6919081019061135b565b6106e4565b6040516101e89190611793565b60405180910390f35b61020b6004803603610206919081019061135b565b610701565b60405161021891906116f0565b60405180910390f35b61023b6004803603610236919081019061135b565b6107c0565b6040516102489190611793565b60405180910390f35b61026b600480360361026691908101906112c8565b6107dd565b60405161027891906116f0565b60405180910390f35b61029b6004803603610296919081019061135b565b610874565b6040516102a891906116f0565b60405180910390f35b6102cb60048036036102c691908101906114a4565b6108df565b6040516102d8919061172d565b60405180910390f35b6102fb60048036036102f691908101906113ad565b6109a5565b604051610308919061172d565b60405180910390f35b61032b6004803603610326919081019061135b565b610a6b565b6040516103389190611793565b60405180910390f35b61035b600480360361035691908101906113e9565b610b25565b6040516103689190611712565b60405180910390f35b61038b60048036036103869190810190611521565b610cc3565b604051610398919061172d565b60405180910390f35b6103a9610ce4565b6040516103b69190611793565b60405180910390f35b6103d960048036036103d491908101906113e9565b610cf1565b6040516103e69190611712565b60405180910390f35b6104096004803603610404919081019061135b565b610f3a565b60405161041691906116f0565b60405180910390f35b610439600480360361043491908101906114e0565b610fa5565b6040516104469190611712565b60405180910390f35b61046960048036036104649190810190611450565b610fc7565b005b61048560048036036104809190810190611521565b611029565b604051610492919061172d565b60405180910390f35b6104a361104a565b6040516104b09190611793565b60405180910390f35b606060096004600084815260200190815260200160002054815481106104db57fe5b906000526020600020018054600181600116156101000203166002900480601f0160208091040260200160405190810160405280929190818152602001828054600181600116156101000203166002900480156105795780601f1061054e57610100808354040283529160200191610579565b820191906000526020600020905b81548152906001019060200180831161055c57829003601f168201915b50505050509050919050565b6060600660008373ffffffffffffffffffffffffffffffffffffffff1673ffffffffffffffffffffffffffffffffffffffff16815260200190815260200160002080548060200260200160405190810160405280929190818152602001828054801561061057602002820191906000526020600020905b8154815260200190600101908083116105fc575b50505050509050919050565b60006007600084815260200190815260200160002060009054906101000a900473ffffffffffffffffffffffffffffffffffffffff1673ffffffffffffffffffffffffffffffffffffffff16631f97c4c3836040518263ffffffff1660e01b815260040161068a919061172d565b602060405180830381600087803b1580156106a457600080fd5b505af11580156106b8573d6000803e3d6000fd5b505050506040513d601f19601f820116820180604052506106dc9190810190611332565b905092915050565b6000600b6000838152602001908152602001600020549050919050565b60606007600083815260200190815260200160002060009054906101000a900473ffffffffffffffffffffffffffffffffffffffff1673ffffffffffffffffffffffffffffffffffffffff166377e4afe46040518163ffffffff1660e01b815260040160006040518083038186803b15801561077c57600080fd5b505afa158015610790573d6000803e3d6000fd5b505050506040513d6000823e3d601f19601f820116820180604052506107b991908101906112f1565b9050919050565b600060046000838152602001908152602001600020549050919050565b6060600660008373ffffffffffffffffffffffffffffffffffffffff1673ffffffffffffffffffffffffffffffffffffffff16815260200190815260200160002080548060200260200160405190810160405280929190818152602001828054801561086857602002820191906000526020600020905b815481526020019060010190808311610854575b50505050509050919050565b6060600c60008381526020019081526020016000208054806020026020016040519081016040528092919081815260200182805480156108d357602002820191906000526020600020905b8154815260200190600101908083116108bf575b50505050509050919050565b60006007600084815260200190815260200160002060009054906101000a900473ffffffffffffffffffffffffffffffffffffffff1673ffffffffffffffffffffffffffffffffffffffff16631e50b182836040518263ffffffff1660e01b815260040161094d9190611793565b60206040518083038186803b15801561096557600080fd5b505afa158015610979573d6000803e3d6000fd5b505050506040513d601f19601f8201168201806040525061099d9190810190611384565b905092915050565b60006007600084815260200190815260200160002060009054906101000a900473ffffffffffffffffffffffffffffffffffffffff1673ffffffffffffffffffffffffffffffffffffffff1663c294ab1e836040518263ffffffff1660e01b8152600401610a13919061172d565b60206040518083038186803b158015610a2b57600080fd5b505afa158015610a3f573d6000803e3d6000fd5b505050506040513d601f19601f82011682018060405250610a639190810190611384565b905092915050565b60006007600083815260200190815260200160002060009054906101000a900473ffffffffffffffffffffffffffffffffffffffff1673ffffffffffffffffffffffffffffffffffffffff1663cd2483416040518163ffffffff1660e01b815260040160206040518083038186803b158015610ae657600080fd5b505afa158015610afa573d6000803e3d6000fd5b505050506040513d601f19601f82011682018060405250610b1e919081019061154a565b9050919050565b6000600a60009054906101000a900473ffffffffffffffffffffffffffffffffffffffff1673ffffffffffffffffffffffffffffffffffffffff1663949f3a4e3386866040518463ffffffff1660e01b8152600401610b869392919061166d565b600060405180830381600087803b158015610ba057600080fd5b505af1158015610bb4573d6000803e3d6000fd5b50505050600e839080600181540180825580915050906001820390600052602060002001600090919290919091505550600e80549050600b600085815260200190815260200160002081905550600e600c6000868152602001908152602001600020908054610c24929190611057565b50600e600d60003373ffffffffffffffffffffffffffffffffffffffff1673ffffffffffffffffffffffffffffffffffffffff168152602001908152602001600020908054610c74929190611057565b50610c7e82610fa5565b507f2bb590431d1dfc5d86ac3f951c70a27b4818eb2e4bc69ba773cf6f12b3ca98158484604051610cb0929190611748565b60405180910390a1600190509392505050565b6000600e8281548110610cd257fe5b90600052602060002001549050919050565b6000600e80549050905090565b6000600360009054906101000a900473ffffffffffffffffffffffffffffffffffffffff1673ffffffffffffffffffffffffffffffffffffffff1663de6a5a2e338686866040518563ffffffff1660e01b8152600401610d5494939291906116a4565b600060405180830381600087803b158015610d6e57600080fd5b505af1158015610d82573d6000803e3d6000fd5b5050505060088390806001815401808255809150509060018203906000526020600020016000909192909190915055506009829080600181540180825580915050906001820390600052602060002001600090919290919091509080519060200190610def9291906110a9565b50506008805490506004600085815260200190815260200160002081905550600860056000868152602001908152602001600020908054610e31929190611057565b506008600660003373ffffffffffffffffffffffffffffffffffffffff1673ffffffffffffffffffffffffffffffffffffffff168152602001908152602001600020908054610e81929190611057565b50600360009054906101000a900473ffffffffffffffffffffffffffffffffffffffff166007600085815260200190815260200160002060006101000a81548173ffffffffffffffffffffffffffffffffffffffff021916908373ffffffffffffffffffffffffffffffffffffffff1602179055507f8f4940dfc4a4a23294dbd13e6f0929ba11b468a44fc5005a4f895430a844d1088484604051610f27929190611748565b60405180910390a1600190509392505050565b606060056000838152602001908152602001600020805480602002602001604051908101604052809291908181526020018280548015610f9957602002820191906000526020600020905b815481526020019060010190808311610f85575b50505050509050919050565b60008160029080519060200190610fbd9291906110a9565b5060019050919050565b336000806101000a81548173ffffffffffffffffffffffffffffffffffffffff021916908373ffffffffffffffffffffffffffffffffffffffff1602179055508160018190555080600290805190602001906110249291906110a9565b505050565b60006008828154811061103857fe5b90600052602060002001549050919050565b6000600880549050905090565b8280548282559060005260206000209081019282156110985760005260206000209182015b8281111561109757825482559160010191906001019061107c565b5b5090506110a59190611129565b5090565b828054600181600116156101000203166002900490600052602060002090601f016020900481019282601f106110ea57805160ff1916838001178555611118565b82800160010185558215611118579182015b828111156111175782518255916020019190600101906110fc565b5b509050611125919061114e565b5090565b61114b91905b8082111561114757600081600090555060010161112f565b5090565b90565b61117091905b8082111561116c576000816000905550600101611154565b5090565b90565b6000813590506111828161195f565b92915050565b600082601f83011261119957600080fd5b81516111ac6111a7826117db565b6117ae565b915081818352602084019350602081019050838560208402820111156111d157600080fd5b60005b8381101561120157816111e78882611235565b8452602084019350602083019250506001810190506111d4565b5050505092915050565b60008151905061121a81611976565b92915050565b60008135905061122f8161198d565b92915050565b6000815190506112448161198d565b92915050565b600082601f83011261125b57600080fd5b813561126e61126982611803565b6117ae565b9150808252602083016020830185838301111561128a57600080fd5b61129583828461190c565b50505092915050565b6000813590506112ad816119a4565b92915050565b6000815190506112c2816119a4565b92915050565b6000602082840312156112da57600080fd5b60006112e884828501611173565b91505092915050565b60006020828403121561130357600080fd5b600082015167ffffffffffffffff81111561131d57600080fd5b61132984828501611188565b91505092915050565b60006020828403121561134457600080fd5b60006113528482850161120b565b91505092915050565b60006020828403121561136d57600080fd5b600061137b84828501611220565b91505092915050565b60006020828403121561139657600080fd5b60006113a484828501611235565b91505092915050565b600080604083850312156113c057600080fd5b60006113ce85828601611220565b92505060206113df85828601611220565b9150509250929050565b6000806000606084860312156113fe57600080fd5b600061140c86828701611220565b935050602061141d86828701611220565b925050604084013567ffffffffffffffff81111561143a57600080fd5b6114468682870161124a565b9150509250925092565b6000806040838503121561146357600080fd5b600061147185828601611220565b925050602083013567ffffffffffffffff81111561148e57600080fd5b61149a8582860161124a565b9150509250929050565b600080604083850312156114b757600080fd5b60006114c585828601611220565b92505060206114d68582860161129e565b9150509250929050565b6000602082840312156114f257600080fd5b600082013567ffffffffffffffff81111561150c57600080fd5b6115188482850161124a565b91505092915050565b60006020828403121561153357600080fd5b60006115418482850161129e565b91505092915050565b60006020828403121561155c57600080fd5b600061156a848285016112b3565b91505092915050565b600061157f8383611607565b60208301905092915050565b611594816118d6565b82525050565b60006115a58261183f565b6115af8185611862565b93506115ba8361182f565b8060005b838110156115eb5781516115d28882611573565b97506115dd83611855565b9250506001810190506115be565b5085935050505092915050565b61160181611896565b82525050565b611610816118a2565b82525050565b61161f816118a2565b82525050565b60006116308261184a565b61163a8185611873565b935061164a81856020860161191b565b6116538161194e565b840191505092915050565b611667816118cc565b82525050565b6000606082019050611682600083018661158b565b61168f6020830185611616565b61169c6040830184611616565b949350505050565b60006080820190506116b9600083018761158b565b6116c66020830186611616565b6116d36040830185611616565b81810360608301526116e58184611625565b905095945050505050565b6000602082019050818103600083015261170a818461159a565b905092915050565b600060208201905061172760008301846115f8565b92915050565b60006020820190506117426000830184611616565b92915050565b600060408201905061175d6000830185611616565b61176a6020830184611616565b9392505050565b6000602082019050818103600083015261178b8184611625565b905092915050565b60006020820190506117a8600083018461165e565b92915050565b6000604051905081810181811067ffffffffffffffff821117156117d157600080fd5b8060405250919050565b600067ffffffffffffffff8211156117f257600080fd5b602082029050602081019050919050565b600067ffffffffffffffff82111561181a57600080fd5b601f19601f8301169050602081019050919050565b6000819050602082019050919050565b600081519050919050565b600081519050919050565b6000602082019050919050565b600082825260208201905092915050565b600082825260208201905092915050565b600061188f826118ac565b9050919050565b60008115159050919050565b6000819050919050565b600073ffffffffffffffffffffffffffffffffffffffff82169050919050565b6000819050919050565b60006118e1826118e8565b9050919050565b60006118f3826118fa565b9050919050565b6000611905826118ac565b9050919050565b82818337600083830152505050565b60005b8381101561193957808201518184015260208101905061191e565b83811115611948576000848401525b50505050565b6000601f19601f8301169050919050565b61196881611884565b811461197357600080fd5b50565b61197f81611896565b811461198a57600080fd5b50565b611996816118a2565b81146119a157600080fd5b50565b6119ad816118cc565b81146119b857600080fd5b5056fea365627a7a723158207ede92ce79353c45978dc6fedf0db8930bc4f8a46ec817d6365c2f407dfa62c56c6578706572696d656e74616cf564736f6c63430005100040608060405234801561001057600080fd5b50336000806101000a81548173ffffffffffffffffffffffffffffffffffffffff021916908373ffffffffffffffffffffffffffffffffffffffff1602179055507f78000000000000000000000000000000000000000000000000000000000000006001819055507f78000000000000000000000000000000000000000000000000000000000000006002819055506040518060400160405280600181526020017f7800000000000000000000000000000000000000000000000000000000000000815250600390805190602001906100ea929190610138565b5060048060018154018082558091505090600182039060005260206000200160007f6e6f742d617661696c61626c6500000000000000000000000000000000000000909190915055506101dd565b828054600181600116156101000203166002900490600052602060002090601f016020900481019282601f1061017957805160ff19168380011785556101a7565b828001600101855582156101a7579182015b828111156101a657825182559160200191906001019061018b565b5b5090506101b491906101b8565b5090565b6101da91905b808211156101d65760008160009055506001016101be565b5090565b90565b6104f3806101ec6000396000f3fe608060405234801561001057600080fd5b50600436106100625760003560e01c80631e50b182146100675780631f97c4c3146100a957806377e4afe4146100ef578063c294ab1e1461014e578063cd24834114610190578063de6a5a2e146101ae575b600080fd5b6100936004803603602081101561007d57600080fd5b810190808035906020019092919050505061029d565b6040518082815260200191505060405180910390f35b6100d5600480360360208110156100bf57600080fd5b81019080803590602001909291905050506102be565b604051808215151515815260200191505060405180910390f35b6100f7610315565b6040518080602001828103825283818151815260200191508051906020019060200280838360005b8381101561013a57808201518184015260208101905061011f565b505050509050019250505060405180910390f35b61017a6004803603602081101561016457600080fd5b810190808035906020019092919050505061036d565b6040518082815260200191505060405180910390f35b6101986103a1565b6040518082815260200191505060405180910390f35b61029b600480360360808110156101c457600080fd5b81019080803573ffffffffffffffffffffffffffffffffffffffff16906020019092919080359060200190929190803590602001909291908035906020019064010000000081111561021557600080fd5b82018360208201111561022757600080fd5b8035906020019184600183028401116401000000008311171561024957600080fd5b91908080601f016020809104026020016040519081016040528093929190818152602001838380828437600081840152601f19601f8201169050808301925050505050505091929192905050506103ae565b005b6000600482815481106102ac57fe5b90600052602060002001549050919050565b60006004829080600181540180825580915050906001820390600052602060002001600090919290919091505550600160048054905003600560008481526020019081526020016000208190555060019050919050565b6060600480548060200260200160405190810160405280929190818152602001828054801561036357602002820191906000526020600020905b81548152602001906001019080831161034f575b5050505050905090565b6000600460056000848152602001908152602001600020548154811061038f57fe5b90600052602060002001549050919050565b6000600480549050905090565b836000806101000a81548173ffffffffffffffffffffffffffffffffffffffff021916908373ffffffffffffffffffffffffffffffffffffffff16021790555082600181905550816002819055508060039080519060200190610412929190610419565b5050505050565b828054600181600116156101000203166002900490600052602060002090601f016020900481019282601f1061045a57805160ff1916838001178555610488565b82800160010185558215610488579182015b8281111561048757825182559160200191906001019061046c565b5b5090506104959190610499565b5090565b6104bb91905b808211156104b757600081600090555060010161049f565b5090565b9056fea265627a7a72315820e92b26f02eb9baa32af88ce1261d6c6cd52be746b0b2df077f0a93e37efcf53c64736f6c63430005100032608060405234801561001057600080fd5b50336000806101000a81548173ffffffffffffffffffffffffffffffffffffffff021916908373ffffffffffffffffffffffffffffffffffffffff1602179055507f78000000000000000000000000000000000000000000000000000000000000006001819055507f780000000000000000000000000000000000000000000000000000000000000060028190555061010a806100ae6000396000f3fe6080604052348015600f57600080fd5b506004361060285760003560e01c8063949f3a4e14602d575b600080fd5b608060048036036060811015604157600080fd5b81019080803573ffffffffffffffffffffffffffffffffffffffff16906020019092919080359060200190929190803590602001909291905050506082565b005b826000806101000a81548173ffffffffffffffffffffffffffffffffffffffff021916908373ffffffffffffffffffffffffffffffffffffffff160217905550816001819055508060028190555050505056fea265627a7a723158203baebc82eb0fcd6316b2e981161d57c010229d9144d1e50faeb72a3db171e6f864736f6c63430005100032",
  "source": "pragma solidity >=0.5.16;\npragma experimental ABIEncoderV2;\nimport \"./Patient.sol\";\n\ncontract PatientStorage {\n   mapping(address => uint) private addressToIndex;\n   mapping(bytes32 => uint) private patientnameToIndex;\n   address[] private addresses;\n   bytes32[] private patientUnames;\n   bytes[] private ipfsHashes;\n   mapping(bytes32 => Patient) patientnameToPatient;\n   mapping(address => Patient) patientAddressToPatient;\n   Patient p = new Patient();\n\n   constructor() public {\n     addresses.push(msg.sender);\n     patientUnames.push('x');\n     ipfsHashes.push('not-available');\n   }\n  //PATIENT\n   function registerPatient(bytes32 patientName, bytes memory ipfsHash) public returns(bool) {\n     require(!hasPatient(msg.sender),\n            \"Sender not authorized.\");\n     require(!patientNameTaken(patientName),\n            \"Patient name has been taken.\");\n      // patientnameToPatient[patientName] = patientAddressToPatient[msg.sender] = new Patient(patientName, ipfsHash);\n      p.createPatient(patientName, ipfsHash);\n      addresses.push(msg.sender);\n      patientUnames.push(patientName);\n      ipfsHashes.push(ipfsHash);\n      addressToIndex[msg.sender] = addresses.length - 1;\n      patientnameToIndex[patientName] = addresses.length - 1;\n      return true;\n    }\n\n   function hasPatient(address _patientAdresses) public view returns(bool) {\n      return (addressToIndex[_patientAdresses] > 0 || _patientAdresses == addresses[0]);\n    }\n\n   function patientNameTaken(bytes32 pname) public view returns(bool takenIndeed) {\n      return (patientnameToIndex[pname] > 0 || pname == 'self');\n    }\n\n   function updatePatient(bytes memory ipfsHash) public returns(bool){\n      require(!hasPatient(msg.sender),\n            \"Sender not authorized.\");\n      p.updatePatient(ipfsHash);\n      return true;\n    }\n\n   function getPatientCount() public view returns(uint){\n      return addresses.length;\n    }\n   function getPatientByPatientname(bytes32 _pname) public view returns(Patient){\n      return patientnameToPatient[_pname];\n   }\n   function getPatientByIndex(uint index) public view returns(address,bytes32,bytes memory){\n      require((index < addresses.length),\n            \"Index out of bound!\");\n      return(addresses[index], patientUnames[index], ipfsHashes[index]);\n    }\n\n   function getAddressByIndex(uint index) public view returns(address){\n      require((index < addresses.length),\n            \"Index out of bound!\");\n      return addresses[index];\n    }\n\n   function getPatientNameByIndex(uint index) public view returns(bytes32){\n      require((index < addresses.length),\n            \"Index out of bound!\");\n      return patientUnames[index];\n    }\n\n   function getIpfsHashByIndex(uint index) public view returns(bytes memory){\n      require((index < addresses.length),\n            \"Index out of bound!\");\n      return ipfsHashes[index];\n    }\n\n   function getPatientByAddress(address patientAddress) public view returns(uint, bytes32, bytes memory){\n      require(hasPatient(patientAddress),\n            \"Patient doesn't exist!\");\n      return(addressToIndex[patientAddress], patientUnames[addressToIndex[patientAddress]], ipfsHashes[addressToIndex[patientAddress]]);\n    }\n\n   function getIndexByAddress(address patientAddress) public view returns(uint){\n      require(hasPatient(patientAddress),\n            \"Patient doesn't exist!\");\n      return addressToIndex[patientAddress];\n    }\n\n   function getPatientNameByAddress(address patientAddress) public view returns(bytes32){\n      require(hasPatient(patientAddress),\n            \"Patient doesn't exist!\");\n      return patientUnames[addressToIndex[patientAddress]];\n    }\n\n   function getIpfsHashByAddress(address patientAddress) public view returns(bytes memory){\n      require(hasPatient(patientAddress),\n            \"Patient doesn't exist!\");\n      return ipfsHashes[addressToIndex[patientAddress]];\n    }\n\n   function getPatientByPatientName(bytes32 patientname) public view returns(uint,address,bytes memory){\n      require((patientnameToIndex[patientname] < addresses.length),\n            \"Patient index out of bound!\");\n      return(patientnameToIndex[patientname], addresses[patientnameToIndex[patientname]], ipfsHashes[patientnameToIndex[patientname]]);\n    }\n\n   function getIndexByPatientName(bytes32 patientname) public view returns(uint){\n      require((patientNameTaken(patientname)),\n            \"Can't find the patient!\");\n      return patientnameToIndex[patientname];\n    }\n\n   function getAddressByPatientName(bytes32 patientname) public view returns(address){\n      require((patientNameTaken(patientname)),\n        \"Can't find the patient!\");\n      return addresses[patientnameToIndex[patientname]];\n    }\n\n   function getIpfsHashByPatientName(bytes32 patientname) public view returns(bytes memory){\n      require((patientNameTaken(patientname)),\n            \"Can't find the patient!\");\n      return ipfsHashes[patientnameToIndex[patientname]];\n    }\n  // CONSULTATIONS\n   function consultationCreate(bytes32 _pname, bytes32 _consulDateID, bytes memory consulipfs)public returns(bool){\n      return p.consultationCreate(_pname, _consulDateID, consulipfs);\n    }\n\n   function getConsultationByConsultationIndex(bytes32 patientName, uint _index) public view returns(bytes32 consulID){\n      return p.getConsultationByConsultationIndex(_index);\n    }\n   function getConsultationIndexByConsultationID(bytes32 patientName, bytes32 _consulDateID) public view returns(uint){\n      return p.getConsultationIndexByConsultationID(_consulDateID);\n    }\n\n   function getConsultationsByPatientName(bytes32 _pname) public view returns(bytes32[] memory){\n      require(hasPatient(getAddressByIndex(patientnameToIndex[_pname])),\"Patient hasn't been found.\");\n      return p.getConsultationsByPatientName(_pname);\n    }\n\n   function getConsultationsByPatientAddress(address patientAddress) public view returns(bytes32[] memory){\n      return patientAddressToPatient[patientAddress].getConsultationsByPatientAddress(patientAddress);\n    }\n\n   function getConsultationIpfsByConsultationID(bytes32 _consulDateID) public view returns (bytes memory) {\n      return p.getConsultationIpfsByConsultationID(_consulDateID);\n   }\n  // TESTS\n   function testCreate(bytes32 _pname, bytes32 _testDateID, bytes memory newPatientIpfs)public returns(bool){\n      return p.testCreate(_pname,_testDateID,newPatientIpfs);\n    }\n\n   function getTestByTestIndex(bytes32 patientName, uint _index) public view returns(bytes32 testID){\n      return patientnameToPatient[patientName].getTestByTestIndex(_index);\n    }\n\n   function getTestIndexByTestID(bytes32 patientName, bytes32 _testDateID) public view returns(uint){\n      return patientnameToPatient[patientName].getTestIndexByTestID(_testDateID);\n    }\n\n   function getTestsByPatientName(bytes32 _pname) public view returns(bytes32[] memory) {\n      return patientnameToPatient[_pname].getTestsByPatientName(_pname);\n    }\n\n   function getTestsByPatientAddress(address patientAddress) public view returns(bytes32[] memory){\n      return p.getTestsByPatientAddress(patientAddress);\n    }\n   function getTestsCount(bytes32 patientName) public view returns (uint){\n      return patientnameToPatient[patientName].getTestsCount();\n    }\n  // MEDICINES\n   function saveMedicineForPatientUse(bytes32 patientName, bytes32 consulDateID,bytes32 mname) public returns(bool){\n      return patientnameToPatient[patientName].saveMedicineForPatientUse(consulDateID,mname);\n    }\n   function getMedicinesFromConsultation(bytes32 patientName, bytes32 consulDateID) public view returns(bytes32[] memory){\n      return patientnameToPatient[patientName].getMedicinesFromConsultation(consulDateID);\n     }\n   function getMedicineByIndex(bytes32 patientName, bytes32 _consulDateID,uint index) public view returns(bytes32){\n        return patientnameToPatient[patientName].getMedicineByIndex(_consulDateID,index);\n     }\n   function getMedicineByMedicineName(bytes32 patientName, bytes32 _consulDateID, bytes32 medname)public view returns(bytes32){\n        return patientnameToPatient[patientName].getMedicineByMedicineName(_consulDateID, medname);\n     }\n   function getMedicinesCountFromConsultation(bytes32 patientName, bytes32 _consulDateID) public view returns(uint){\n      return patientnameToPatient[patientName].getMedicinesCountFromConsultation(_consulDateID);\n  }\n}",
  "sourcePath": "/home/eke/patient-eth/contracts/PatientStorage.sol",
  "compiler": {
    "name": "solc",
    "version": "0.5.16+commit.9c3226ce.Emscripten.clang"
  },
  "schemaVersion": "3.1.0",
  "updatedAt": "2020-04-26T13:47:39.423Z",
  "networkType": "ethereum",
  "devdoc": {
    "methods": {}
  },
  "userdoc": {
    "methods": {}
  }
}