{
  "contractName": "PatientIndex",
  "abi": [
    {
      "inputs": [],
      "payable": false,
      "stateMutability": "nonpayable",
      "type": "constructor"
    },
    {
      "constant": true,
      "inputs": [
        {
          "internalType": "address",
          "name": "_patientAdresses",
          "type": "address"
        }
      ],
      "name": "hasPatient",
      "outputs": [
        {
          "internalType": "bool",
          "name": "",
          "type": "bool"
        }
      ],
      "payable": false,
      "stateMutability": "view",
      "type": "function"
    },
    {
      "constant": true,
      "inputs": [
        {
          "internalType": "bytes32",
          "name": "pname",
          "type": "bytes32"
        }
      ],
      "name": "patientNameTaken",
      "outputs": [
        {
          "internalType": "bool",
          "name": "takenIndeed",
          "type": "bool"
        }
      ],
      "payable": false,
      "stateMutability": "view",
      "type": "function"
    },
    {
      "constant": false,
      "inputs": [
        {
          "internalType": "bytes32",
          "name": "patientName",
          "type": "bytes32"
        },
        {
          "internalType": "bytes",
          "name": "ipfsHash",
          "type": "bytes"
        }
      ],
      "name": "registerPatient",
      "outputs": [
        {
          "internalType": "bool",
          "name": "",
          "type": "bool"
        }
      ],
      "payable": false,
      "stateMutability": "nonpayable",
      "type": "function"
    },
    {
      "constant": false,
      "inputs": [
        {
          "internalType": "bytes",
          "name": "ipfsHash",
          "type": "bytes"
        }
      ],
      "name": "updatePatient",
      "outputs": [
        {
          "internalType": "bool",
          "name": "",
          "type": "bool"
        }
      ],
      "payable": false,
      "stateMutability": "nonpayable",
      "type": "function"
    },
    {
      "constant": true,
      "inputs": [],
      "name": "getPatientCount",
      "outputs": [
        {
          "internalType": "uint256",
          "name": "",
          "type": "uint256"
        }
      ],
      "payable": false,
      "stateMutability": "view",
      "type": "function"
    },
    {
      "constant": true,
      "inputs": [
        {
          "internalType": "uint256",
          "name": "index",
          "type": "uint256"
        }
      ],
      "name": "getPatientByIndex",
      "outputs": [
        {
          "internalType": "address",
          "name": "",
          "type": "address"
        },
        {
          "internalType": "bytes32",
          "name": "",
          "type": "bytes32"
        },
        {
          "internalType": "bytes",
          "name": "",
          "type": "bytes"
        }
      ],
      "payable": false,
      "stateMutability": "view",
      "type": "function"
    },
    {
      "constant": true,
      "inputs": [
        {
          "internalType": "uint256",
          "name": "index",
          "type": "uint256"
        }
      ],
      "name": "getAddressesByIndex",
      "outputs": [
        {
          "internalType": "address",
          "name": "",
          "type": "address"
        }
      ],
      "payable": false,
      "stateMutability": "view",
      "type": "function"
    },
    {
      "constant": true,
      "inputs": [
        {
          "internalType": "uint256",
          "name": "index",
          "type": "uint256"
        }
      ],
      "name": "getPatientNameByIndex",
      "outputs": [
        {
          "internalType": "bytes32",
          "name": "",
          "type": "bytes32"
        }
      ],
      "payable": false,
      "stateMutability": "view",
      "type": "function"
    },
    {
      "constant": true,
      "inputs": [
        {
          "internalType": "uint256",
          "name": "index",
          "type": "uint256"
        }
      ],
      "name": "getIpfsHashByIndex",
      "outputs": [
        {
          "internalType": "bytes",
          "name": "",
          "type": "bytes"
        }
      ],
      "payable": false,
      "stateMutability": "view",
      "type": "function"
    },
    {
      "constant": true,
      "inputs": [
        {
          "internalType": "address",
          "name": "patientAddress",
          "type": "address"
        }
      ],
      "name": "getPatientByAddress",
      "outputs": [
        {
          "internalType": "uint256",
          "name": "",
          "type": "uint256"
        },
        {
          "internalType": "bytes32",
          "name": "",
          "type": "bytes32"
        },
        {
          "internalType": "bytes",
          "name": "",
          "type": "bytes"
        }
      ],
      "payable": false,
      "stateMutability": "view",
      "type": "function"
    },
    {
      "constant": true,
      "inputs": [
        {
          "internalType": "address",
          "name": "patientAddress",
          "type": "address"
        }
      ],
      "name": "getIndexByAddress",
      "outputs": [
        {
          "internalType": "uint256",
          "name": "",
          "type": "uint256"
        }
      ],
      "payable": false,
      "stateMutability": "view",
      "type": "function"
    },
    {
      "constant": true,
      "inputs": [
        {
          "internalType": "address",
          "name": "patientAddress",
          "type": "address"
        }
      ],
      "name": "getPatientNameByAddress",
      "outputs": [
        {
          "internalType": "bytes32",
          "name": "",
          "type": "bytes32"
        }
      ],
      "payable": false,
      "stateMutability": "view",
      "type": "function"
    },
    {
      "constant": true,
      "inputs": [
        {
          "internalType": "address",
          "name": "patientAddress",
          "type": "address"
        }
      ],
      "name": "getIpfsHashByAddress",
      "outputs": [
        {
          "internalType": "bytes",
          "name": "",
          "type": "bytes"
        }
      ],
      "payable": false,
      "stateMutability": "view",
      "type": "function"
    },
    {
      "constant": true,
      "inputs": [
        {
          "internalType": "bytes32",
          "name": "patientname",
          "type": "bytes32"
        }
      ],
      "name": "getPatientByPatientName",
      "outputs": [
        {
          "internalType": "uint256",
          "name": "",
          "type": "uint256"
        },
        {
          "internalType": "address",
          "name": "",
          "type": "address"
        },
        {
          "internalType": "bytes",
          "name": "",
          "type": "bytes"
        }
      ],
      "payable": false,
      "stateMutability": "view",
      "type": "function"
    },
    {
      "constant": true,
      "inputs": [
        {
          "internalType": "bytes32",
          "name": "patientname",
          "type": "bytes32"
        }
      ],
      "name": "getIndexByPatientName",
      "outputs": [
        {
          "internalType": "uint256",
          "name": "",
          "type": "uint256"
        }
      ],
      "payable": false,
      "stateMutability": "view",
      "type": "function"
    },
    {
      "constant": true,
      "inputs": [
        {
          "internalType": "bytes32",
          "name": "patientname",
          "type": "bytes32"
        }
      ],
      "name": "getAddressByPatientName",
      "outputs": [
        {
          "internalType": "address",
          "name": "",
          "type": "address"
        }
      ],
      "payable": false,
      "stateMutability": "view",
      "type": "function"
    },
    {
      "constant": true,
      "inputs": [
        {
          "internalType": "bytes32",
          "name": "patientname",
          "type": "bytes32"
        }
      ],
      "name": "getIpfsHashByPatientName",
      "outputs": [
        {
          "internalType": "bytes",
          "name": "",
          "type": "bytes"
        }
      ],
      "payable": false,
      "stateMutability": "view",
      "type": "function"
    }
  ],
  "bytecode": "0x60806040523480156200001157600080fd5b5060023390806001815401808255809150509060018203906000526020600020016000909192909190916101000a81548173ffffffffffffffffffffffffffffffffffffffff021916908373ffffffffffffffffffffffffffffffffffffffff1602179055505060048060018154018082558091505090600182039060005260206000200160007f78000000000000000000000000000000000000000000000000000000000000009091909150555060058060018154018082558091505090600182039060005260206000200160006040518060400160405280600d81526020017f6e6f742d617661696c61626c6500000000000000000000000000000000000000815250909190915090805190602001906200013092919062000138565b5050620001e7565b828054600181600116156101000203166002900490600052602060002090601f016020900481019282601f106200017b57805160ff1916838001178555620001ac565b82800160010185558215620001ac579182015b82811115620001ab5782518255916020019190600101906200018e565b5b509050620001bb9190620001bf565b5090565b620001e491905b80821115620001e0576000816000905550600101620001c6565b5090565b90565b611ced80620001f76000396000f3fe608060405234801561001057600080fd5b506004361061010b5760003560e01c8063a74380a6116100a2578063ba5c033511610071578063ba5c0335146107fa578063c190665b146108c5578063cbb7e2ff146108e3578063dfb7ab6014610925578063eb9fbaa9146109cc5761010b565b8063a74380a6146105c2578063ad36054b1461067f578063b1d5458d14610760578063b9affb93146107a25761010b565b806368761954116100de578063687619541461035e5780636cfbc8fd1461043b5780637b63cec4146104a957806394e7ef6e146104ef5761010b565b806304dd548f146101105780631973ef911461017e57806329f78d88146101d657806357ea0c2f1461027d575b600080fd5b61013c6004803603602081101561012657600080fd5b8101908080359060200190929190505050610a28565b604051808273ffffffffffffffffffffffffffffffffffffffff1673ffffffffffffffffffffffffffffffffffffffff16815260200191505060405180910390f35b6101c06004803603602081101561019457600080fd5b81019080803573ffffffffffffffffffffffffffffffffffffffff169060200190929190505050610ae3565b6040518082815260200191505060405180910390f35b610202600480360360208110156101ec57600080fd5b8101908080359060200190929190505050610ba6565b6040518080602001828103825283818151815260200191508051906020019080838360005b83811015610242578082015181840152602081019050610227565b50505050905090810190601f16801561026f5780820380516001836020036101000a031916815260200191505b509250505060405180910390f35b6102a96004803603602081101561029357600080fd5b8101908080359060200190929190505050610cd9565b604051808473ffffffffffffffffffffffffffffffffffffffff1673ffffffffffffffffffffffffffffffffffffffff16815260200183815260200180602001828103825283818151815260200191508051906020019080838360005b83811015610321578082015181840152602081019050610306565b50505050905090810190601f16801561034e5780820380516001836020036101000a031916815260200191505b5094505050505060405180910390f35b6104216004803603604081101561037457600080fd5b81019080803590602001909291908035906020019064010000000081111561039b57600080fd5b8201836020820111156103ad57600080fd5b803590602001918460018302840111640100000000831117156103cf57600080fd5b91908080601f016020809104026020016040519081016040528093929190818152602001838380828437600081840152601f19601f820116905080830192505050505050509192919290505050610e68565b604051808215151515815260200191505060405180910390f35b6104676004803603602081101561045157600080fd5b81019080803590602001909291905050506110a8565b604051808273ffffffffffffffffffffffffffffffffffffffff1673ffffffffffffffffffffffffffffffffffffffff16815260200191505060405180910390f35b6104d5600480360360208110156104bf57600080fd5b8101908080359060200190929190505050611177565b604051808215151515815260200191505060405180910390f35b6105a86004803603602081101561050557600080fd5b810190808035906020019064010000000081111561052257600080fd5b82018360208201111561053457600080fd5b8035906020019184600183028401116401000000008311171561055657600080fd5b91908080601f016020809104026020016040519081016040528093929190818152602001838380828437600081840152601f19601f8201169050808301925050505050505091929192905050506111c0565b604051808215151515815260200191505060405180910390f35b610604600480360360208110156105d857600080fd5b81019080803573ffffffffffffffffffffffffffffffffffffffff1690602001909291905050506112b1565b6040518080602001828103825283818151815260200191508051906020019080838360005b83811015610644578082015181840152602081019050610629565b50505050905090810190601f1680156106715780820380516001836020036101000a031916815260200191505b509250505060405180910390f35b6106ab6004803603602081101561069557600080fd5b8101908080359060200190929190505050611423565b604051808481526020018373ffffffffffffffffffffffffffffffffffffffff1673ffffffffffffffffffffffffffffffffffffffff16815260200180602001828103825283818151815260200191508051906020019080838360005b83811015610723578082015181840152602081019050610708565b50505050905090810190601f1680156107505780820380516001836020036101000a031916815260200191505b5094505050505060405180910390f35b61078c6004803603602081101561077657600080fd5b81019080803590602001909291905050506115e7565b6040518082815260200191505060405180910390f35b6107e4600480360360208110156107b857600080fd5b81019080803573ffffffffffffffffffffffffffffffffffffffff16906020019092919050505061167f565b6040518082815260200191505060405180910390f35b61083c6004803603602081101561081057600080fd5b81019080803573ffffffffffffffffffffffffffffffffffffffff169060200190929190505050611759565b6040518084815260200183815260200180602001828103825283818151815260200191508051906020019080838360005b8381101561088857808201518184015260208101905061086d565b50505050905090810190601f1680156108b55780820380516001836020036101000a031916815260200191505b5094505050505060405180910390f35b6108cd61196c565b6040518082815260200191505060405180910390f35b61090f600480360360208110156108f957600080fd5b8101908080359060200190929190505050611979565b6040518082815260200191505060405180910390f35b6109516004803603602081101561093b57600080fd5b8101908080359060200190929190505050611a14565b6040518080602001828103825283818151815260200191508051906020019080838360005b83811015610991578082015181840152602081019050610976565b50505050905090810190601f1680156109be5780820380516001836020036101000a031916815260200191505b509250505060405180910390f35b610a0e600480360360208110156109e257600080fd5b81019080803573ffffffffffffffffffffffffffffffffffffffff169060200190929190505050611b5b565b604051808215151515815260200191505060405180910390f35b60006002805490508210610aa4576040517f08c379a00000000000000000000000000000000000000000000000000000000081526004018080602001828103825260138152602001807f496e646578206f7574206f6620626f756e64210000000000000000000000000081525060200191505060405180910390fd5b60028281548110610ab157fe5b9060005260206000200160009054906101000a900473ffffffffffffffffffffffffffffffffffffffff169050919050565b6000610aee82611b5b565b610b60576040517f08c379a00000000000000000000000000000000000000000000000000000000081526004018080602001828103825260168152602001807f50617469656e7420646f65736e2774206578697374210000000000000000000081525060200191505060405180910390fd5b6000808373ffffffffffffffffffffffffffffffffffffffff1673ffffffffffffffffffffffffffffffffffffffff168152602001908152602001600020549050919050565b60606002805490508210610c22576040517f08c379a00000000000000000000000000000000000000000000000000000000081526004018080602001828103825260138152602001807f496e646578206f7574206f6620626f756e64210000000000000000000000000081525060200191505060405180910390fd5b60058281548110610c2f57fe5b906000526020600020018054600181600116156101000203166002900480601f016020809104026020016040519081016040528092919081815260200182805460018160011615610100020316600290048015610ccd5780601f10610ca257610100808354040283529160200191610ccd565b820191906000526020600020905b815481529060010190602001808311610cb057829003601f168201915b50505050509050919050565b60008060606002805490508410610d58576040517f08c379a00000000000000000000000000000000000000000000000000000000081526004018080602001828103825260138152602001807f496e646578206f7574206f6620626f756e64210000000000000000000000000081525060200191505060405180910390fd5b60028481548110610d6557fe5b9060005260206000200160009054906101000a900473ffffffffffffffffffffffffffffffffffffffff1660048581548110610d9d57fe5b906000526020600020015460058681548110610db557fe5b90600052602060002001808054600181600116156101000203166002900480601f016020809104026020016040519081016040528092919081815260200182805460018160011615610100020316600290048015610e545780601f10610e2957610100808354040283529160200191610e54565b820191906000526020600020905b815481529060010190602001808311610e3757829003601f168201915b505050505090509250925092509193909250565b6000610e7333611b5b565b15610ee6576040517f08c379a00000000000000000000000000000000000000000000000000000000081526004018080602001828103825260168152602001807f53656e646572206e6f7420617574686f72697a65642e0000000000000000000081525060200191505060405180910390fd5b610eef83611177565b15610f62576040517f08c379a000000000000000000000000000000000000000000000000000000000815260040180806020018281038252601c8152602001807f50617469656e74206e616d6520686173206265656e2074616b656e2e0000000081525060200191505060405180910390fd5b60023390806001815401808255809150509060018203906000526020600020016000909192909190916101000a81548173ffffffffffffffffffffffffffffffffffffffff021916908373ffffffffffffffffffffffffffffffffffffffff1602179055505060048390806001815401808255809150509060018203906000526020600020016000909192909190915055506005829080600181540180825580915050906001820390600052602060002001600090919290919091509080519060200190611031929190611c13565b50506001600280549050036000803373ffffffffffffffffffffffffffffffffffffffff1673ffffffffffffffffffffffffffffffffffffffff1681526020019081526020016000208190555060016002805490500360016000858152602001908152602001600020819055506001905092915050565b60006110b382611177565b611125576040517f08c379a00000000000000000000000000000000000000000000000000000000081526004018080602001828103825260178152602001807f43616e27742066696e64207468652070617469656e742100000000000000000081525060200191505060405180910390fd5b600260016000848152602001908152602001600020548154811061114557fe5b9060005260206000200160009054906101000a900473ffffffffffffffffffffffffffffffffffffffff169050919050565b600080600160008481526020019081526020016000205411806111b957507f73656c660000000000000000000000000000000000000000000000000000000082145b9050919050565b60006111cb33611b5b565b1561123e576040517f08c379a00000000000000000000000000000000000000000000000000000000081526004018080602001828103825260168152602001807f53656e646572206e6f7420617574686f72697a65642e0000000000000000000081525060200191505060405180910390fd5b8160056000803373ffffffffffffffffffffffffffffffffffffffff1673ffffffffffffffffffffffffffffffffffffffff168152602001908152602001600020548154811061128a57fe5b9060005260206000200190805190602001906112a7929190611c13565b5060019050919050565b60606112bc82611b5b565b61132e576040517f08c379a00000000000000000000000000000000000000000000000000000000081526004018080602001828103825260168152602001807f50617469656e7420646f65736e2774206578697374210000000000000000000081525060200191505060405180910390fd5b60056000808473ffffffffffffffffffffffffffffffffffffffff1673ffffffffffffffffffffffffffffffffffffffff168152602001908152602001600020548154811061137957fe5b906000526020600020018054600181600116156101000203166002900480601f0160208091040260200160405190810160405280929190818152602001828054600181600116156101000203166002900480156114175780601f106113ec57610100808354040283529160200191611417565b820191906000526020600020905b8154815290600101906020018083116113fa57829003601f168201915b50505050509050919050565b60008060606002805490506001600086815260200190815260200160002054106114b5576040517f08c379a000000000000000000000000000000000000000000000000000000000815260040180806020018281038252601b8152602001807f50617469656e7420696e646578206f7574206f6620626f756e6421000000000081525060200191505060405180910390fd5b600160008581526020019081526020016000205460026001600087815260200190815260200160002054815481106114e957fe5b9060005260206000200160009054906101000a900473ffffffffffffffffffffffffffffffffffffffff16600560016000888152602001908152602001600020548154811061153457fe5b90600052602060002001808054600181600116156101000203166002900480601f0160208091040260200160405190810160405280929190818152602001828054600181600116156101000203166002900480156115d35780601f106115a8576101008083540402835291602001916115d3565b820191906000526020600020905b8154815290600101906020018083116115b657829003601f168201915b505050505090509250925092509193909250565b60006115f282611177565b611664576040517f08c379a00000000000000000000000000000000000000000000000000000000081526004018080602001828103825260178152602001807f43616e27742066696e64207468652070617469656e742100000000000000000081525060200191505060405180910390fd5b60016000838152602001908152602001600020549050919050565b600061168a82611b5b565b6116fc576040517f08c379a00000000000000000000000000000000000000000000000000000000081526004018080602001828103825260168152602001807f50617469656e7420646f65736e2774206578697374210000000000000000000081525060200191505060405180910390fd5b60046000808473ffffffffffffffffffffffffffffffffffffffff1673ffffffffffffffffffffffffffffffffffffffff168152602001908152602001600020548154811061174757fe5b90600052602060002001549050919050565b600080606061176784611b5b565b6117d9576040517f08c379a00000000000000000000000000000000000000000000000000000000081526004018080602001828103825260168152602001807f50617469656e7420646f65736e2774206578697374210000000000000000000081525060200191505060405180910390fd5b6000808573ffffffffffffffffffffffffffffffffffffffff1673ffffffffffffffffffffffffffffffffffffffff1681526020019081526020016000205460046000808773ffffffffffffffffffffffffffffffffffffffff1673ffffffffffffffffffffffffffffffffffffffff168152602001908152602001600020548154811061186357fe5b906000526020600020015460056000808873ffffffffffffffffffffffffffffffffffffffff1673ffffffffffffffffffffffffffffffffffffffff16815260200190815260200160002054815481106118b957fe5b90600052602060002001808054600181600116156101000203166002900480601f0160208091040260200160405190810160405280929190818152602001828054600181600116156101000203166002900480156119585780601f1061192d57610100808354040283529160200191611958565b820191906000526020600020905b81548152906001019060200180831161193b57829003601f168201915b505050505090509250925092509193909250565b6000600280549050905090565b600060028054905082106119f5576040517f08c379a00000000000000000000000000000000000000000000000000000000081526004018080602001828103825260138152602001807f496e646578206f7574206f6620626f756e64210000000000000000000000000081525060200191505060405180910390fd5b60048281548110611a0257fe5b90600052602060002001549050919050565b6060611a1f82611177565b611a91576040517f08c379a00000000000000000000000000000000000000000000000000000000081526004018080602001828103825260178152602001807f43616e27742066696e64207468652070617469656e742100000000000000000081525060200191505060405180910390fd5b6005600160008481526020019081526020016000205481548110611ab157fe5b906000526020600020018054600181600116156101000203166002900480601f016020809104026020016040519081016040528092919081815260200182805460018160011615610100020316600290048015611b4f5780601f10611b2457610100808354040283529160200191611b4f565b820191906000526020600020905b815481529060010190602001808311611b3257829003601f168201915b50505050509050919050565b6000806000808473ffffffffffffffffffffffffffffffffffffffff1673ffffffffffffffffffffffffffffffffffffffff168152602001908152602001600020541180611c0c57506002600081548110611bb257fe5b9060005260206000200160009054906101000a900473ffffffffffffffffffffffffffffffffffffffff1673ffffffffffffffffffffffffffffffffffffffff168273ffffffffffffffffffffffffffffffffffffffff16145b9050919050565b828054600181600116156101000203166002900490600052602060002090601f016020900481019282601f10611c5457805160ff1916838001178555611c82565b82800160010185558215611c82579182015b82811115611c81578251825591602001919060010190611c66565b5b509050611c8f9190611c93565b5090565b611cb591905b80821115611cb1576000816000905550600101611c99565b5090565b9056fea265627a7a72315820feb8251af19265ddaf8b970a0276e375a67b313fa02217757c6df54a6ba1ad1064736f6c63430005100032",
  "source": "pragma solidity >=0.5.16;\nimport \"./PatientFactory.sol\";\n\ncontract PatientIndex {\n    mapping(address => uint) private addressToIndex;\n    mapping(bytes32 => uint) private patientnameToIndex;\n   //  mapping(address => Patient) private patientInfoToAddress;\n    address[] private addresses;\n    address[] private patientInfoAddresses;\n    bytes32[] private patientUnames;\n    bytes[] private ipfsHashes;\n\n   constructor() public{\n        addresses.push(msg.sender);\n        patientUnames.push('x');\n        ipfsHashes.push('not-available');\n    }\n\n    function hasPatient(address _patientAdresses) public view returns(bool) {\n        return (addressToIndex[_patientAdresses] > 0 || _patientAdresses == addresses[0]);\n    }\n\n    function patientNameTaken(bytes32 pname) public view returns(bool takenIndeed) {\n            return (patientnameToIndex[pname] > 0 || pname == 'self');\n    }\n\n    function registerPatient(bytes32 patientName, bytes memory ipfsHash) public returns(bool) {\n        require(!hasPatient(msg.sender),\n                \"Sender not authorized.\");\n        require(!patientNameTaken(patientName),\n                \"Patient name has been taken.\"\n        );\n        addresses.push(msg.sender);\n        patientUnames.push(patientName);\n        ipfsHashes.push(ipfsHash);\n        addressToIndex[msg.sender] = addresses.length - 1;\n        patientnameToIndex[patientName] = addresses.length - 1;\n        return true;\n    }\n\n function updatePatient(bytes memory ipfsHash) public returns(bool){\n    require(!hasPatient(msg.sender),\n            \"Sender not authorized.\");\n    ipfsHashes[addressToIndex[msg.sender]] = ipfsHash;\n    return true;\n }\n\n function getPatientCount() public view returns(uint){\n    return addresses.length;\n }\n\n function getPatientByIndex(uint index) public view returns(address,bytes32,bytes memory){\n    require((index < addresses.length),\n            \"Index out of bound!\");\n    return(addresses[index], patientUnames[index], ipfsHashes[index]);\n }\n\n function getAddressesByIndex(uint index) public view returns(address){\n    require((index < addresses.length),\n            \"Index out of bound!\");\n    return addresses[index];\n }\n\n function getPatientNameByIndex(uint index) public view returns(bytes32){\n    require((index < addresses.length),\n            \"Index out of bound!\");\n    return patientUnames[index];\n }\n\n function getIpfsHashByIndex(uint index) public view returns(bytes memory){\n    require((index < addresses.length),\n            \"Index out of bound!\");\n    return ipfsHashes[index];\n }\n\n function getPatientByAddress(address patientAddress) public view returns(uint, bytes32, bytes memory){\n    require(hasPatient(patientAddress),\n            \"Patient doesn't exist!\");\n    return(addressToIndex[patientAddress], patientUnames[addressToIndex[patientAddress]], ipfsHashes[addressToIndex[patientAddress]]);\n }\n\n function getIndexByAddress(address patientAddress) public view returns(uint){\n    require(hasPatient(patientAddress),\n            \"Patient doesn't exist!\");\n    return addressToIndex[patientAddress];\n }\n\n function getPatientNameByAddress(address patientAddress) public view returns(bytes32){\n    require(hasPatient(patientAddress),\n            \"Patient doesn't exist!\");\n    return patientUnames[addressToIndex[patientAddress]];\n }\n\n function getIpfsHashByAddress(address patientAddress) public view returns(bytes memory){\n    require(hasPatient(patientAddress),\n            \"Patient doesn't exist!\");\n    return ipfsHashes[addressToIndex[patientAddress]];\n }\n\n function getPatientByPatientName(bytes32 patientname) public view returns(uint,address,bytes memory){\n    require((patientnameToIndex[patientname] < addresses.length),\n            \"Patient index out of bound!\");\n    return(patientnameToIndex[patientname], addresses[patientnameToIndex[patientname]], ipfsHashes[patientnameToIndex[patientname]]);\n }\n\n function getIndexByPatientName(bytes32 patientname) public view returns(uint){\n    require((patientNameTaken(patientname)),\n        \"Can't find the patient!\");\n    return patientnameToIndex[patientname];\n }\n\n function getAddressByPatientName(bytes32 patientname) public view returns(address){\n    require((patientNameTaken(patientname)),\n        \"Can't find the patient!\");\n    return addresses[patientnameToIndex[patientname]];\n }\n function getIpfsHashByPatientName(bytes32 patientname) public view returns(bytes memory){\n    require((patientNameTaken(patientname)),\n            \"Can't find the patient!\");\n    return ipfsHashes[patientnameToIndex[patientname]];\n }\n}",
  "sourcePath": "/home/eke/patient-eth/contracts/PatientIndex.sol",
  "compiler": {
    "name": "solc",
    "version": "0.5.16+commit.9c3226ce.Emscripten.clang"
  },
  "schemaVersion": "3.0.23",
  "updatedAt": "2020-04-08T08:28:07.480Z",
  "networkType": "ethereum",
  "devdoc": {
    "methods": {}
  },
  "userdoc": {
    "methods": {}
  }
}