{
  "contractName": "Patient",
  "abi": [
    {
      "inputs": [
        {
          "internalType": "address",
          "name": "_patientAddress",
          "type": "address"
        },
        {
          "internalType": "bytes32",
          "name": "_patientName",
          "type": "bytes32"
        }
      ],
      "payable": false,
      "stateMutability": "nonpayable",
      "type": "constructor"
    },
    {
      "constant": false,
      "inputs": [
        {
          "internalType": "bytes32",
          "name": "_consulDateID",
          "type": "bytes32"
        },
        {
          "internalType": "bytes",
          "name": "_consipfs",
          "type": "bytes"
        }
      ],
      "name": "consultationCreate",
      "outputs": [
        {
          "internalType": "bool",
          "name": "",
          "type": "bool"
        }
      ],
      "payable": false,
      "stateMutability": "nonpayable",
      "type": "function"
    },
    {
      "constant": true,
      "inputs": [
        {
          "internalType": "uint256",
          "name": "_index",
          "type": "uint256"
        }
      ],
      "name": "getConsultationByConsultationIndex",
      "outputs": [
        {
          "internalType": "bytes32",
          "name": "consulID",
          "type": "bytes32"
        }
      ],
      "payable": false,
      "stateMutability": "view",
      "type": "function"
    },
    {
      "constant": true,
      "inputs": [
        {
          "internalType": "bytes32",
          "name": "_consulDateID",
          "type": "bytes32"
        }
      ],
      "name": "getConsultationIndexByConsultationID",
      "outputs": [
        {
          "internalType": "uint256",
          "name": "",
          "type": "uint256"
        }
      ],
      "payable": false,
      "stateMutability": "view",
      "type": "function"
    },
    {
      "constant": true,
      "inputs": [],
      "name": "getConsultationsCount",
      "outputs": [
        {
          "internalType": "uint256",
          "name": "",
          "type": "uint256"
        }
      ],
      "payable": false,
      "stateMutability": "view",
      "type": "function"
    },
    {
      "constant": true,
      "inputs": [
        {
          "internalType": "bytes32",
          "name": "_consulDateID",
          "type": "bytes32"
        }
      ],
      "name": "getConsultationIpfsByConsultationID",
      "outputs": [
        {
          "internalType": "bytes",
          "name": "",
          "type": "bytes"
        }
      ],
      "payable": false,
      "stateMutability": "view",
      "type": "function"
    },
    {
      "constant": true,
      "inputs": [],
      "name": "getConsultationsIpfsList",
      "outputs": [
        {
          "internalType": "bytes[]",
          "name": "",
          "type": "bytes[]"
        }
      ],
      "payable": false,
      "stateMutability": "view",
      "type": "function"
    },
    {
      "constant": true,
      "inputs": [],
      "name": "getConsultationsNameList",
      "outputs": [
        {
          "internalType": "bytes32[]",
          "name": "",
          "type": "bytes32[]"
        }
      ],
      "payable": false,
      "stateMutability": "view",
      "type": "function"
    },
    {
      "constant": false,
      "inputs": [
        {
          "internalType": "bytes32",
          "name": "_testDateID",
          "type": "bytes32"
        },
        {
          "internalType": "bytes",
          "name": "_testipfs",
          "type": "bytes"
        }
      ],
      "name": "testCreate",
      "outputs": [
        {
          "internalType": "bool",
          "name": "",
          "type": "bool"
        }
      ],
      "payable": false,
      "stateMutability": "nonpayable",
      "type": "function"
    },
    {
      "constant": true,
      "inputs": [
        {
          "internalType": "uint256",
          "name": "_index",
          "type": "uint256"
        }
      ],
      "name": "getTestByTestIndex",
      "outputs": [
        {
          "internalType": "bytes32",
          "name": "",
          "type": "bytes32"
        }
      ],
      "payable": false,
      "stateMutability": "view",
      "type": "function"
    },
    {
      "constant": true,
      "inputs": [
        {
          "internalType": "bytes32",
          "name": "_testDateID",
          "type": "bytes32"
        }
      ],
      "name": "getTestIndexByTestID",
      "outputs": [
        {
          "internalType": "uint256",
          "name": "",
          "type": "uint256"
        }
      ],
      "payable": false,
      "stateMutability": "view",
      "type": "function"
    },
    {
      "constant": true,
      "inputs": [],
      "name": "getTestCount",
      "outputs": [
        {
          "internalType": "uint256",
          "name": "",
          "type": "uint256"
        }
      ],
      "payable": false,
      "stateMutability": "view",
      "type": "function"
    },
    {
      "constant": true,
      "inputs": [
        {
          "internalType": "bytes32",
          "name": "_testDateID",
          "type": "bytes32"
        }
      ],
      "name": "getTestIpfsByTestID",
      "outputs": [
        {
          "internalType": "bytes",
          "name": "",
          "type": "bytes"
        }
      ],
      "payable": false,
      "stateMutability": "view",
      "type": "function"
    },
    {
      "constant": true,
      "inputs": [],
      "name": "getTestIpfsList",
      "outputs": [
        {
          "internalType": "bytes[]",
          "name": "",
          "type": "bytes[]"
        }
      ],
      "payable": false,
      "stateMutability": "view",
      "type": "function"
    },
    {
      "constant": true,
      "inputs": [],
      "name": "getTestNameList",
      "outputs": [
        {
          "internalType": "bytes32[]",
          "name": "",
          "type": "bytes32[]"
        }
      ],
      "payable": false,
      "stateMutability": "view",
      "type": "function"
    }
  ],
  "bytecode": "0x60806040523480156200001157600080fd5b5060405162001086380380620010868339818101604052620000379190810190620000b4565b816000806101000a81548173ffffffffffffffffffffffffffffffffffffffff021916908373ffffffffffffffffffffffffffffffffffffffff16021790555080600181905550505062000167565b600081519050620000978162000133565b92915050565b600081519050620000ae816200014d565b92915050565b60008060408385031215620000c857600080fd5b6000620000d88582860162000086565b9250506020620000eb858286016200009d565b9150509250929050565b6000620001028262000113565b9050919050565b6000819050919050565b600073ffffffffffffffffffffffffffffffffffffffff82169050919050565b6200013e81620000f5565b81146200014a57600080fd5b50565b620001588162000109565b81146200016457600080fd5b50565b610f0f80620001776000396000f3fe608060405234801561001057600080fd5b50600436106100ea5760003560e01c8063511ad5221161008c578063b4fa36dc11610066578063b4fa36dc14610299578063d6e5f1c4146102b7578063ee810510146102e7578063f811f1ab14610305576100ea565b8063511ad5221461021b5780638a36d9271461024b5780639b9fc6e014610269576100ea565b80631d587a5f116100c85780631d587a5f1461016d578063234c16181461019d5780632c899bca146101cd5780632dce4167146101eb576100ea565b806304f61796146100ef578063083119251461011f5780630853ad8a1461014f575b600080fd5b61010960048036036101049190810190610a1e565b610323565b6040516101169190610ceb565b60405180910390f35b61013960048036036101349190810190610a1e565b6103ef565b6040516101469190610ceb565b60405180910390f35b6101576104bb565b6040516101649190610d0d565b60405180910390f35b61018760048036036101829190810190610a47565b6104c8565b6040516101949190610cb5565b60405180910390f35b6101b760048036036101b29190810190610a1e565b61055c565b6040516101c49190610d0d565b60405180910390f35b6101d5610579565b6040516101e29190610c71565b60405180910390f35b61020560048036036102009190810190610a1e565b6105d1565b6040516102129190610d0d565b60405180910390f35b61023560048036036102309190810190610a9b565b6105ee565b6040516102429190610cd0565b60405180910390f35b61025361060f565b6040516102609190610c93565b60405180910390f35b610283600480360361027e9190810190610a9b565b6106f8565b6040516102909190610cd0565b60405180910390f35b6102a1610719565b6040516102ae9190610c93565b60405180910390f35b6102d160048036036102cc9190810190610a47565b610802565b6040516102de9190610cb5565b60405180910390f35b6102ef610896565b6040516102fc9190610c71565b60405180910390f35b61030d6108ee565b60405161031a9190610d0d565b60405180910390f35b6060600660076000848152602001908152602001600020548154811061034557fe5b906000526020600020018054600181600116156101000203166002900480601f0160208091040260200160405190810160405280929190818152602001828054600181600116156101000203166002900480156103e35780601f106103b8576101008083540402835291602001916103e3565b820191906000526020600020905b8154815290600101906020018083116103c657829003601f168201915b50505050509050919050565b6060600360046000848152602001908152602001600020548154811061041157fe5b906000526020600020018054600181600116156101000203166002900480601f0160208091040260200160405190810160405280929190818152602001828054600181600116156101000203166002900480156104af5780601f10610484576101008083540402835291602001916104af565b820191906000526020600020905b81548152906001019060200180831161049257829003601f168201915b50505050509050919050565b6000600580549050905090565b6000600283908060018154018082558091505090600182039060005260206000200160009091929091909150555060038290806001815401808255809150509060018203906000526020600020016000909192909190915090805190602001906105339291906108fb565b505060028054905060046000858152602001908152602001600020819055506001905092915050565b600060076000838152602001908152602001600020549050919050565b606060058054806020026020016040519081016040528092919081815260200182805480156105c757602002820191906000526020600020905b8154815260200190600101908083116105b3575b5050505050905090565b600060046000838152602001908152602001600020549050919050565b6000600582815481106105fd57fe5b90600052602060002001549050919050565b60606006805480602002602001604051908101604052809291908181526020016000905b828210156106ef578382906000526020600020018054600181600116156101000203166002900480601f0160208091040260200160405190810160405280929190818152602001828054600181600116156101000203166002900480156106db5780601f106106b0576101008083540402835291602001916106db565b820191906000526020600020905b8154815290600101906020018083116106be57829003601f168201915b505050505081526020019060010190610633565b50505050905090565b60006002828154811061070757fe5b90600052602060002001549050919050565b60606003805480602002602001604051908101604052809291908181526020016000905b828210156107f9578382906000526020600020018054600181600116156101000203166002900480601f0160208091040260200160405190810160405280929190818152602001828054600181600116156101000203166002900480156107e55780601f106107ba576101008083540402835291602001916107e5565b820191906000526020600020905b8154815290600101906020018083116107c857829003601f168201915b50505050508152602001906001019061073d565b50505050905090565b60006005839080600181540180825580915050906001820390600052602060002001600090919290919091505550600682908060018154018082558091505090600182039060005260206000200160009091929091909150908051906020019061086d9291906108fb565b505060058054905060076000858152602001908152602001600020819055506001905092915050565b606060028054806020026020016040519081016040528092919081815260200182805480156108e457602002820191906000526020600020905b8154815260200190600101908083116108d0575b5050505050905090565b6000600280549050905090565b828054600181600116156101000203166002900490600052602060002090601f016020900481019282601f1061093c57805160ff191683800117855561096a565b8280016001018555821561096a579182015b8281111561096957825182559160200191906001019061094e565b5b509050610977919061097b565b5090565b61099d91905b80821115610999576000816000905550600101610981565b5090565b90565b6000813590506109af81610e9e565b92915050565b600082601f8301126109c657600080fd5b81356109d96109d482610d55565b610d28565b915080825260208301602083018583830111156109f557600080fd5b610a00838284610e4b565b50505092915050565b600081359050610a1881610eb5565b92915050565b600060208284031215610a3057600080fd5b6000610a3e848285016109a0565b91505092915050565b60008060408385031215610a5a57600080fd5b6000610a68858286016109a0565b925050602083013567ffffffffffffffff811115610a8557600080fd5b610a91858286016109b5565b9150509250929050565b600060208284031215610aad57600080fd5b6000610abb84828501610a09565b91505092915050565b6000610ad08383610bd2565b60208301905092915050565b6000610ae88383610c29565b905092915050565b6000610afb82610da1565b610b058185610de7565b9350610b1083610d81565b8060005b83811015610b41578151610b288882610ac4565b9750610b3383610dcd565b925050600181019050610b14565b5085935050505092915050565b6000610b5982610dac565b610b638185610df8565b935083602082028501610b7585610d91565b8060005b85811015610bb15784840389528151610b928582610adc565b9450610b9d83610dda565b925060208a01995050600181019050610b79565b50829750879550505050505092915050565b610bcc81610e2b565b82525050565b610bdb81610e37565b82525050565b610bea81610e37565b82525050565b6000610bfb82610dc2565b610c058185610e1a565b9350610c15818560208601610e5a565b610c1e81610e8d565b840191505092915050565b6000610c3482610db7565b610c3e8185610e09565b9350610c4e818560208601610e5a565b610c5781610e8d565b840191505092915050565b610c6b81610e41565b82525050565b60006020820190508181036000830152610c8b8184610af0565b905092915050565b60006020820190508181036000830152610cad8184610b4e565b905092915050565b6000602082019050610cca6000830184610bc3565b92915050565b6000602082019050610ce56000830184610be1565b92915050565b60006020820190508181036000830152610d058184610bf0565b905092915050565b6000602082019050610d226000830184610c62565b92915050565b6000604051905081810181811067ffffffffffffffff82111715610d4b57600080fd5b8060405250919050565b600067ffffffffffffffff821115610d6c57600080fd5b601f19601f8301169050602081019050919050565b6000819050602082019050919050565b6000819050602082019050919050565b600081519050919050565b600081519050919050565b600081519050919050565b600081519050919050565b6000602082019050919050565b6000602082019050919050565b600082825260208201905092915050565b600082825260208201905092915050565b600082825260208201905092915050565b600082825260208201905092915050565b60008115159050919050565b6000819050919050565b6000819050919050565b82818337600083830152505050565b60005b83811015610e78578082015181840152602081019050610e5d565b83811115610e87576000848401525b50505050565b6000601f19601f8301169050919050565b610ea781610e37565b8114610eb257600080fd5b50565b610ebe81610e41565b8114610ec957600080fd5b5056fea365627a7a72315820ce501a305612ef7d6d2fe5f1f27a8b7796d8f0312476aae19ef9e9777bdc50b26c6578706572696d656e74616cf564736f6c63430005100040",
  "source": "pragma solidity >=0.5.16;\npragma experimental ABIEncoderV2;\n\ncontract Patient{\n    //Patient Contract Data for contract creation\n    address private patientAddress;\n    bytes32 private patientName;\n\n    //Consultation data\n    bytes32[] private consIDs;\n    bytes[] private consipfsHash;\n    // Consultation mapping\n    mapping(bytes32 => uint) private consulDateIDToIndex;\n\n    // Test mapping\n    bytes32[] private testIDs;\n    bytes[] private testipfsHash;\n    mapping(bytes32 => uint) private testDateIDToIndex;\n\n    constructor(address _patientAddress, bytes32 _patientName) public{\n        patientAddress = _patientAddress;\n        patientName = _patientName;\n     }\n\n    // CONSULTATIONS\n     function consultationCreate(bytes32 _consulDateID, bytes memory _consipfs)public returns(bool){\n        // Create new consultation with ID\n        consIDs.push(_consulDateID);\n        consipfsHash.push(_consipfs);\n        consulDateIDToIndex[_consulDateID] = consIDs.length;\n        return true;\n     }\n\n     function getConsultationByConsultationIndex(uint _index) public view returns(bytes32 consulID){\n        return (consIDs[_index]);\n     }\n\n     function getConsultationIndexByConsultationID(bytes32 _consulDateID) public view returns(uint){\n        return consulDateIDToIndex[_consulDateID];\n     }\n\n     function getConsultationsCount() public view returns (uint){\n        return consIDs.length;\n     }\n\n     function getConsultationIpfsByConsultationID(bytes32 _consulDateID) public view returns(bytes memory){\n        return (consipfsHash[consulDateIDToIndex[_consulDateID]]);\n     }\n\n     function getConsultationsIpfsList() public view returns(bytes[] memory){\n         return consipfsHash;\n     }\n\n     function getConsultationsNameList() public view returns(bytes32[] memory){\n         return consIDs;\n     }\n\n    // TESTS\n     function testCreate(bytes32 _testDateID, bytes memory _testipfs)public returns(bool){\n        testIDs.push(_testDateID);\n        testipfsHash.push(_testipfs);\n        testDateIDToIndex[_testDateID] = testIDs.length;\n        return true;\n     }\n\n     function getTestByTestIndex(uint _index) public view returns(bytes32){\n        return (testIDs[_index]);\n     }\n\n     function getTestIndexByTestID(bytes32 _testDateID) public view returns(uint){\n        return testDateIDToIndex[_testDateID];\n     }\n\n     function getTestCount() public view returns (uint){\n        return testIDs.length;\n     }\n\n     function getTestIpfsByTestID(bytes32 _testDateID) public view returns(bytes memory){\n        return (testipfsHash[testDateIDToIndex[_testDateID]]);\n     }\n\n     function getTestIpfsList() public view returns(bytes[] memory){\n         return testipfsHash;\n     }\n\n     function getTestNameList() public view returns(bytes32[] memory){\n         return testIDs;\n     }\n}",
  "sourcePath": "/mnt/c/Users/musta/Documents/patient-eth-lxl/contracts/Patient.sol",
  "compiler": {
    "name": "solc",
    "version": "0.5.16+commit.9c3226ce.Emscripten.clang"
  },
  "schemaVersion": "3.1.0",
  "updatedAt": "2020-05-09T14:32:19.566Z",
  "devdoc": {
    "methods": {}
  },
  "userdoc": {
    "methods": {}
  }
}