{
  "contractName": "Test",
  "abi": [
    {
      "inputs": [],
      "payable": false,
      "stateMutability": "nonpayable",
      "type": "constructor"
    },
    {
      "constant": false,
      "inputs": [
        {
          "internalType": "address",
          "name": "_addr",
          "type": "address"
        },
        {
          "internalType": "bytes32",
          "name": "_puname",
          "type": "bytes32"
        },
        {
          "internalType": "bytes32",
          "name": "_testDateID",
          "type": "bytes32"
        }
      ],
      "name": "createTest",
      "outputs": [],
      "payable": false,
      "stateMutability": "nonpayable",
      "type": "function"
    }
  ],
  "bytecode": "0x608060405234801561001057600080fd5b50336000806101000a81548173ffffffffffffffffffffffffffffffffffffffff021916908373ffffffffffffffffffffffffffffffffffffffff1602179055507f78000000000000000000000000000000000000000000000000000000000000006001819055507f780000000000000000000000000000000000000000000000000000000000000060028190555061010a806100ae6000396000f3fe6080604052348015600f57600080fd5b506004361060285760003560e01c8063949f3a4e14602d575b600080fd5b608060048036036060811015604157600080fd5b81019080803573ffffffffffffffffffffffffffffffffffffffff16906020019092919080359060200190929190803590602001909291905050506082565b005b826000806101000a81548173ffffffffffffffffffffffffffffffffffffffff021916908373ffffffffffffffffffffffffffffffffffffffff160217905550816001819055508060028190555050505056fea265627a7a723158203baebc82eb0fcd6316b2e981161d57c010229d9144d1e50faeb72a3db171e6f864736f6c63430005100032",
  "source": "pragma solidity >=0.5.16;\n\ncontract Test {\n    address addr;\n    bytes32 puname;\n    bytes32 private testDateID;\n\n    constructor() public{\n      addr = msg.sender;\n      puname = 'x';\n      testDateID = 'x';\n  }\n\n  function createTest(address _addr, bytes32 _puname, bytes32 _testDateID)public {\n      addr = _addr;\n      puname = _puname;\n      testDateID = _testDateID;\n  }\n}",
  "sourcePath": "/home/eke/patient-eth/contracts/Test.sol",
  "compiler": {
    "name": "solc",
    "version": "0.5.16+commit.9c3226ce.Emscripten.clang"
  },
  "schemaVersion": "3.1.0",
  "updatedAt": "2020-04-28T07:33:13.582Z",
  "networkType": "ethereum",
  "devdoc": {
    "methods": {}
  },
  "userdoc": {
    "methods": {}
  }
}