{
  "contractName": "AllInOne",
  "abi": [
    {
      "constant": true,
      "inputs": [
        {
          "internalType": "uint256",
          "name": "",
          "type": "uint256"
        }
      ],
      "name": "patients",
      "outputs": [
        {
          "internalType": "bytes16",
          "name": "patientUname",
          "type": "bytes16"
        },
        {
          "internalType": "bytes16",
          "name": "passwd",
          "type": "bytes16"
        },
        {
          "internalType": "bytes16",
          "name": "patName",
          "type": "bytes16"
        },
        {
          "internalType": "bytes16",
          "name": "patSurnm",
          "type": "bytes16"
        },
        {
          "internalType": "bytes16",
          "name": "patSex",
          "type": "bytes16"
        },
        {
          "internalType": "uint256",
          "name": "patBirth",
          "type": "uint256"
        },
        {
          "internalType": "uint256",
          "name": "patPhone",
          "type": "uint256"
        },
        {
          "internalType": "bytes16",
          "name": "patEmail",
          "type": "bytes16"
        },
        {
          "internalType": "bytes16",
          "name": "patAddress",
          "type": "bytes16"
        }
      ],
      "payable": false,
      "stateMutability": "view",
      "type": "function"
    },
    {
      "constant": true,
      "inputs": [
        {
          "internalType": "address",
          "name": "_patientAdresses",
          "type": "address"
        }
      ],
      "name": "hasPatient",
      "outputs": [
        {
          "internalType": "bool",
          "name": "",
          "type": "bool"
        }
      ],
      "payable": false,
      "stateMutability": "view",
      "type": "function"
    },
    {
      "constant": true,
      "inputs": [
        {
          "internalType": "bytes16",
          "name": "pname",
          "type": "bytes16"
        }
      ],
      "name": "patientNameTaken",
      "outputs": [
        {
          "internalType": "bool",
          "name": "takenIndeed",
          "type": "bool"
        }
      ],
      "payable": false,
      "stateMutability": "view",
      "type": "function"
    },
    {
      "constant": false,
      "inputs": [
        {
          "internalType": "bytes16",
          "name": "patientName",
          "type": "bytes16"
        },
        {
          "internalType": "bytes16",
          "name": "_passwd",
          "type": "bytes16"
        },
        {
          "internalType": "bytes16",
          "name": "_patName",
          "type": "bytes16"
        },
        {
          "internalType": "bytes16",
          "name": "_patSurnm",
          "type": "bytes16"
        },
        {
          "internalType": "bytes16",
          "name": "_patSex",
          "type": "bytes16"
        },
        {
          "internalType": "uint256",
          "name": "_patBirth",
          "type": "uint256"
        },
        {
          "internalType": "uint256",
          "name": "_patPhone",
          "type": "uint256"
        },
        {
          "internalType": "bytes16",
          "name": "_patEmail",
          "type": "bytes16"
        },
        {
          "internalType": "bytes16",
          "name": "_patAddress",
          "type": "bytes16"
        },
        {
          "internalType": "bytes",
          "name": "ipfsHash",
          "type": "bytes"
        }
      ],
      "name": "registerPatient",
      "outputs": [
        {
          "internalType": "bool",
          "name": "",
          "type": "bool"
        }
      ],
      "payable": false,
      "stateMutability": "nonpayable",
      "type": "function"
    },
    {
      "constant": false,
      "inputs": [
        {
          "internalType": "bytes",
          "name": "ipfsHash",
          "type": "bytes"
        }
      ],
      "name": "updatePatient",
      "outputs": [
        {
          "internalType": "bool",
          "name": "",
          "type": "bool"
        }
      ],
      "payable": false,
      "stateMutability": "nonpayable",
      "type": "function"
    },
    {
      "constant": true,
      "inputs": [],
      "name": "getPatientCount",
      "outputs": [
        {
          "internalType": "uint256",
          "name": "",
          "type": "uint256"
        }
      ],
      "payable": false,
      "stateMutability": "view",
      "type": "function"
    },
    {
      "constant": true,
      "inputs": [
        {
          "internalType": "uint256",
          "name": "index",
          "type": "uint256"
        }
      ],
      "name": "getPatientByIndex",
      "outputs": [
        {
          "internalType": "address",
          "name": "",
          "type": "address"
        },
        {
          "internalType": "bytes16",
          "name": "",
          "type": "bytes16"
        },
        {
          "internalType": "bytes",
          "name": "",
          "type": "bytes"
        }
      ],
      "payable": false,
      "stateMutability": "view",
      "type": "function"
    },
    {
      "constant": true,
      "inputs": [
        {
          "internalType": "uint256",
          "name": "index",
          "type": "uint256"
        }
      ],
      "name": "getAddressesByIndex",
      "outputs": [
        {
          "internalType": "address",
          "name": "",
          "type": "address"
        }
      ],
      "payable": false,
      "stateMutability": "view",
      "type": "function"
    },
    {
      "constant": true,
      "inputs": [
        {
          "internalType": "uint256",
          "name": "index",
          "type": "uint256"
        }
      ],
      "name": "getPatientNameByIndex",
      "outputs": [
        {
          "internalType": "bytes16",
          "name": "",
          "type": "bytes16"
        }
      ],
      "payable": false,
      "stateMutability": "view",
      "type": "function"
    },
    {
      "constant": true,
      "inputs": [
        {
          "internalType": "uint256",
          "name": "index",
          "type": "uint256"
        }
      ],
      "name": "getIpfsHashByIndex",
      "outputs": [
        {
          "internalType": "bytes",
          "name": "",
          "type": "bytes"
        }
      ],
      "payable": false,
      "stateMutability": "view",
      "type": "function"
    },
    {
      "constant": true,
      "inputs": [
        {
          "internalType": "address",
          "name": "patientAddress",
          "type": "address"
        }
      ],
      "name": "getPatientByAddress",
      "outputs": [
        {
          "internalType": "uint256",
          "name": "",
          "type": "uint256"
        },
        {
          "internalType": "bytes16",
          "name": "",
          "type": "bytes16"
        },
        {
          "internalType": "bytes",
          "name": "",
          "type": "bytes"
        }
      ],
      "payable": false,
      "stateMutability": "view",
      "type": "function"
    },
    {
      "constant": true,
      "inputs": [
        {
          "internalType": "address",
          "name": "patientAddress",
          "type": "address"
        }
      ],
      "name": "getIndexByAddress",
      "outputs": [
        {
          "internalType": "uint256",
          "name": "",
          "type": "uint256"
        }
      ],
      "payable": false,
      "stateMutability": "view",
      "type": "function"
    },
    {
      "constant": true,
      "inputs": [
        {
          "internalType": "address",
          "name": "patientAddress",
          "type": "address"
        }
      ],
      "name": "getPatientNameByAddress",
      "outputs": [
        {
          "internalType": "bytes16",
          "name": "",
          "type": "bytes16"
        }
      ],
      "payable": false,
      "stateMutability": "view",
      "type": "function"
    },
    {
      "constant": true,
      "inputs": [
        {
          "internalType": "address",
          "name": "patientAddress",
          "type": "address"
        }
      ],
      "name": "getIpfsHashByAddress",
      "outputs": [
        {
          "internalType": "bytes",
          "name": "",
          "type": "bytes"
        }
      ],
      "payable": false,
      "stateMutability": "view",
      "type": "function"
    },
    {
      "constant": true,
      "inputs": [
        {
          "internalType": "bytes16",
          "name": "patientname",
          "type": "bytes16"
        }
      ],
      "name": "getPatientByPatientName",
      "outputs": [
        {
          "internalType": "uint256",
          "name": "",
          "type": "uint256"
        },
        {
          "internalType": "address",
          "name": "",
          "type": "address"
        },
        {
          "internalType": "bytes",
          "name": "",
          "type": "bytes"
        }
      ],
      "payable": false,
      "stateMutability": "view",
      "type": "function"
    },
    {
      "constant": true,
      "inputs": [
        {
          "internalType": "bytes16",
          "name": "patientname",
          "type": "bytes16"
        }
      ],
      "name": "getIndexByPatientName",
      "outputs": [
        {
          "internalType": "uint256",
          "name": "",
          "type": "uint256"
        }
      ],
      "payable": false,
      "stateMutability": "view",
      "type": "function"
    },
    {
      "constant": true,
      "inputs": [
        {
          "internalType": "bytes16",
          "name": "patientname",
          "type": "bytes16"
        }
      ],
      "name": "getAddressByPatientName",
      "outputs": [
        {
          "internalType": "address",
          "name": "",
          "type": "address"
        }
      ],
      "payable": false,
      "stateMutability": "view",
      "type": "function"
    },
    {
      "constant": true,
      "inputs": [
        {
          "internalType": "bytes16",
          "name": "patientname",
          "type": "bytes16"
        }
      ],
      "name": "getIpfsHashByPatientName",
      "outputs": [
        {
          "internalType": "bytes",
          "name": "",
          "type": "bytes"
        }
      ],
      "payable": false,
      "stateMutability": "view",
      "type": "function"
    },
    {
      "constant": true,
      "inputs": [
        {
          "internalType": "bytes16",
          "name": "patientname",
          "type": "bytes16"
        }
      ],
      "name": "getPassword",
      "outputs": [
        {
          "internalType": "bytes16",
          "name": "",
          "type": "bytes16"
        }
      ],
      "payable": false,
      "stateMutability": "view",
      "type": "function"
    },
    {
      "constant": true,
      "inputs": [
        {
          "internalType": "bytes16",
          "name": "patientname",
          "type": "bytes16"
        }
      ],
      "name": "getPatientName",
      "outputs": [
        {
          "internalType": "bytes16",
          "name": "",
          "type": "bytes16"
        }
      ],
      "payable": false,
      "stateMutability": "view",
      "type": "function"
    },
    {
      "constant": true,
      "inputs": [
        {
          "internalType": "bytes16",
          "name": "patientname",
          "type": "bytes16"
        }
      ],
      "name": "getPatientSurname",
      "outputs": [
        {
          "internalType": "bytes16",
          "name": "",
          "type": "bytes16"
        }
      ],
      "payable": false,
      "stateMutability": "view",
      "type": "function"
    },
    {
      "constant": true,
      "inputs": [
        {
          "internalType": "bytes16",
          "name": "patientname",
          "type": "bytes16"
        }
      ],
      "name": "getPatientSex",
      "outputs": [
        {
          "internalType": "bytes16",
          "name": "",
          "type": "bytes16"
        }
      ],
      "payable": false,
      "stateMutability": "view",
      "type": "function"
    },
    {
      "constant": true,
      "inputs": [
        {
          "internalType": "bytes16",
          "name": "patientname",
          "type": "bytes16"
        }
      ],
      "name": "getPatientBirth",
      "outputs": [
        {
          "internalType": "uint256",
          "name": "",
          "type": "uint256"
        }
      ],
      "payable": false,
      "stateMutability": "view",
      "type": "function"
    },
    {
      "constant": true,
      "inputs": [
        {
          "internalType": "bytes16",
          "name": "patientname",
          "type": "bytes16"
        }
      ],
      "name": "getPatientPhone",
      "outputs": [
        {
          "internalType": "uint256",
          "name": "",
          "type": "uint256"
        }
      ],
      "payable": false,
      "stateMutability": "view",
      "type": "function"
    }
  ],
  "bytecode": "0x608060405234801561001057600080fd5b506129a2806100206000396000f3fe608060405234801561001057600080fd5b50600436106101585760003560e01c806394e7ef6e116100c3578063c190665b1161007c578063c190665b14610cb8578063c375201414610cd6578063cbb7e2ff14610d90578063e0399ffc14610df8578063eb9fbaa914610fab578063f6eeb6781461100757610158565b806394e7ef6e146108e9578063a74380a6146109bc578063b58ec55b14610a79578063b9affb9314610af4578063ba5c033514610b72578063bfde5e4c14610c6357610158565b80634b2988dd116101155780634b2988dd1461041957806357ea0c2f1461046e578063837733e7146105755780638c3f040f146105f0578063920c9c3f1461067157806393119a831461076557610158565b806304dd548f1461015d57806305a227af146101cb5780631973ef91146102465780631f9520b21461029e57806329f78d881461031957806333dd1932146103c0575b600080fd5b6101896004803603602081101561017357600080fd5b810190808035906020019092919050505061105c565b604051808273ffffffffffffffffffffffffffffffffffffffff1673ffffffffffffffffffffffffffffffffffffffff16815260200191505060405180910390f35b61020a600480360360208110156101e157600080fd5b8101908080356fffffffffffffffffffffffffffffffff19169060200190929190505050611117565b60405180826fffffffffffffffffffffffffffffffff19166fffffffffffffffffffffffffffffffff1916815260200191505060405180910390f35b6102886004803603602081101561025c57600080fd5b81019080803573ffffffffffffffffffffffffffffffffffffffff169060200190929190505050611159565b6040518082815260200191505060405180910390f35b6102dd600480360360208110156102b457600080fd5b8101908080356fffffffffffffffffffffffffffffffff1916906020019092919050505061121c565b60405180826fffffffffffffffffffffffffffffffff19166fffffffffffffffffffffffffffffffff1916815260200191505060405180910390f35b6103456004803603602081101561032f57600080fd5b810190808035906020019092919050505061125e565b6040518080602001828103825283818151815260200191508051906020019080838360005b8381101561038557808201518184015260208101905061036a565b50505050905090810190601f1680156103b25780820380516001836020036101000a031916815260200191505b509250505060405180910390f35b6103ff600480360360208110156103d657600080fd5b8101908080356fffffffffffffffffffffffffffffffff19169060200190929190505050611391565b604051808215151515815260200191505060405180910390f35b6104586004803603602081101561042f57600080fd5b8101908080356fffffffffffffffffffffffffffffffff19169060200190929190505050611413565b6040518082815260200191505060405180910390f35b61049a6004803603602081101561048457600080fd5b8101908080359060200190929190505050611448565b604051808473ffffffffffffffffffffffffffffffffffffffff1673ffffffffffffffffffffffffffffffffffffffff168152602001836fffffffffffffffffffffffffffffffff19166fffffffffffffffffffffffffffffffff1916815260200180602001828103825283818151815260200191508051906020019080838360005b8381101561053857808201518184015260208101905061051d565b50505050905090810190601f1680156105655780820380516001836020036101000a031916815260200191505b5094505050505060405180910390f35b6105b46004803603602081101561058b57600080fd5b8101908080356fffffffffffffffffffffffffffffffff191690602001909291905050506115ef565b60405180826fffffffffffffffffffffffffffffffff19166fffffffffffffffffffffffffffffffff1916815260200191505060405180910390f35b61062f6004803603602081101561060657600080fd5b8101908080356fffffffffffffffffffffffffffffffff19169060200190929190505050611631565b604051808273ffffffffffffffffffffffffffffffffffffffff1673ffffffffffffffffffffffffffffffffffffffff16815260200191505060405180910390f35b6106b06004803603602081101561068757600080fd5b8101908080356fffffffffffffffffffffffffffffffff19169060200190929190505050611726565b604051808481526020018373ffffffffffffffffffffffffffffffffffffffff1673ffffffffffffffffffffffffffffffffffffffff16815260200180602001828103825283818151815260200191508051906020019080838360005b8381101561072857808201518184015260208101905061070d565b50505050905090810190601f1680156107555780820380516001836020036101000a031916815260200191505b5094505050505060405180910390f35b6107916004803603602081101561077b57600080fd5b8101908080359060200190929190505050611982565b604051808a6fffffffffffffffffffffffffffffffff19166fffffffffffffffffffffffffffffffff19168152602001896fffffffffffffffffffffffffffffffff19166fffffffffffffffffffffffffffffffff19168152602001886fffffffffffffffffffffffffffffffff19166fffffffffffffffffffffffffffffffff19168152602001876fffffffffffffffffffffffffffffffff19166fffffffffffffffffffffffffffffffff19168152602001866fffffffffffffffffffffffffffffffff19166fffffffffffffffffffffffffffffffff19168152602001858152602001848152602001836fffffffffffffffffffffffffffffffff19166fffffffffffffffffffffffffffffffff19168152602001826fffffffffffffffffffffffffffffffff19166fffffffffffffffffffffffffffffffff19168152602001995050505050505050505060405180910390f35b6109a2600480360360208110156108ff57600080fd5b810190808035906020019064010000000081111561091c57600080fd5b82018360208201111561092e57600080fd5b8035906020019184600183028401116401000000008311171561095057600080fd5b91908080601f016020809104026020016040519081016040528093929190818152602001838380828437600081840152601f19601f820116905080830192505050505050509192919290505050611a38565b604051808215151515815260200191505060405180910390f35b6109fe600480360360208110156109d257600080fd5b81019080803573ffffffffffffffffffffffffffffffffffffffff169060200190929190505050611b29565b6040518080602001828103825283818151815260200191508051906020019080838360005b83811015610a3e578082015181840152602081019050610a23565b50505050905090810190601f168015610a6b5780820380516001836020036101000a031916815260200191505b509250505060405180910390f35b610ab860048036036020811015610a8f57600080fd5b8101908080356fffffffffffffffffffffffffffffffff19169060200190929190505050611c9b565b60405180826fffffffffffffffffffffffffffffffff19166fffffffffffffffffffffffffffffffff1916815260200191505060405180910390f35b610b3660048036036020811015610b0a57600080fd5b81019080803573ffffffffffffffffffffffffffffffffffffffff169060200190929190505050611cdd565b60405180826fffffffffffffffffffffffffffffffff19166fffffffffffffffffffffffffffffffff1916815260200191505060405180910390f35b610bb460048036036020811015610b8857600080fd5b81019080803573ffffffffffffffffffffffffffffffffffffffff169060200190929190505050611dcf565b60405180848152602001836fffffffffffffffffffffffffffffffff19166fffffffffffffffffffffffffffffffff1916815260200180602001828103825283818151815260200191508051906020019080838360005b83811015610c26578082015181840152602081019050610c0b565b50505050905090810190601f168015610c535780820380516001836020036101000a031916815260200191505b5094505050505060405180910390f35b610ca260048036036020811015610c7957600080fd5b8101908080356fffffffffffffffffffffffffffffffff19169060200190929190505050611ffa565b6040518082815260200191505060405180910390f35b610cc06120b8565b6040518082815260200191505060405180910390f35b610d1560048036036020811015610cec57600080fd5b8101908080356fffffffffffffffffffffffffffffffff191690602001909291905050506120c5565b6040518080602001828103825283818151815260200191508051906020019080838360005b83811015610d55578082015181840152602081019050610d3a565b50505050905090810190601f168015610d825780820380516001836020036101000a031916815260200191505b509250505060405180910390f35b610dbc60048036036020811015610da657600080fd5b8101908080359060200190929190505050612232565b60405180826fffffffffffffffffffffffffffffffff19166fffffffffffffffffffffffffffffffff1916815260200191505060405180910390f35b610f916004803603610140811015610e0f57600080fd5b8101908080356fffffffffffffffffffffffffffffffff1916906020019092919080356fffffffffffffffffffffffffffffffff1916906020019092919080356fffffffffffffffffffffffffffffffff1916906020019092919080356fffffffffffffffffffffffffffffffff1916906020019092919080356fffffffffffffffffffffffffffffffff19169060200190929190803590602001909291908035906020019092919080356fffffffffffffffffffffffffffffffff1916906020019092919080356fffffffffffffffffffffffffffffffff1916906020019092919080359060200190640100000000811115610f0b57600080fd5b820183602082011115610f1d57600080fd5b80359060200191846001830284011164010000000083111715610f3f57600080fd5b91908080601f016020809104026020016040519081016040528093929190818152602001838380828437600081840152601f19601f8201169050808301925050505050505091929192905050506122e5565b604051808215151515815260200191505060405180910390f35b610fed60048036036020811015610fc157600080fd5b81019080803573ffffffffffffffffffffffffffffffffffffffff1690602001909291905050506127db565b604051808215151515815260200191505060405180910390f35b6110466004803603602081101561101d57600080fd5b8101908080356fffffffffffffffffffffffffffffffff19169060200190929190505050612893565b6040518082815260200191505060405180910390f35b600060028054905082106110d8576040517f08c379a00000000000000000000000000000000000000000000000000000000081526004018080602001828103825260138152602001807f496e646578206f7574206f6620626f756e64210000000000000000000000000081525060200191505060405180910390fd5b600282815481106110e557fe5b9060005260206000200160009054906101000a900473ffffffffffffffffffffffffffffffffffffffff169050919050565b60008061112383611ffa565b90506005818154811061113257fe5b906000526020600020906006020160020160009054906101000a900460801b915050919050565b6000611164826127db565b6111d6576040517f08c379a00000000000000000000000000000000000000000000000000000000081526004018080602001828103825260168152602001807f50617469656e7420646f65736e2774206578697374210000000000000000000081525060200191505060405180910390fd5b6000808373ffffffffffffffffffffffffffffffffffffffff1673ffffffffffffffffffffffffffffffffffffffff168152602001908152602001600020549050919050565b60008061122883611ffa565b90506005818154811061123757fe5b906000526020600020906006020160010160009054906101000a900460801b915050919050565b606060028054905082106112da576040517f08c379a00000000000000000000000000000000000000000000000000000000081526004018080602001828103825260138152602001807f496e646578206f7574206f6620626f756e64210000000000000000000000000081525060200191505060405180910390fd5b600482815481106112e757fe5b906000526020600020018054600181600116156101000203166002900480601f0160208091040260200160405190810160405280929190818152602001828054600181600116156101000203166002900480156113855780601f1061135a57610100808354040283529160200191611385565b820191906000526020600020905b81548152906001019060200180831161136857829003601f168201915b50505050509050919050565b60008060016000846fffffffffffffffffffffffffffffffff19166fffffffffffffffffffffffffffffffff1916815260200190815260200160002054118061140c57507f73656c6600000000000000000000000000000000000000000000000000000000826fffffffffffffffffffffffffffffffff1916145b9050919050565b60008061141f83611ffa565b90506005818154811061142e57fe5b906000526020600020906006020160030154915050919050565b600080606060028054905084106114c7576040517f08c379a00000000000000000000000000000000000000000000000000000000081526004018080602001828103825260138152602001807f496e646578206f7574206f6620626f756e64210000000000000000000000000081525060200191505060405180910390fd5b600284815481106114d457fe5b9060005260206000200160009054906101000a900473ffffffffffffffffffffffffffffffffffffffff166003858154811061150c57fe5b90600052602060002090600291828204019190066010029054906101000a900460801b6004868154811061153c57fe5b90600052602060002001808054600181600116156101000203166002900480601f0160208091040260200160405190810160405280929190818152602001828054600181600116156101000203166002900480156115db5780601f106115b0576101008083540402835291602001916115db565b820191906000526020600020905b8154815290600101906020018083116115be57829003601f168201915b505050505090509250925092509193909250565b6000806115fb83611ffa565b90506005818154811061160a57fe5b906000526020600020906006020160000160109054906101000a900460801b915050919050565b600061163c82611391565b6116ae576040517f08c379a00000000000000000000000000000000000000000000000000000000081526004018080602001828103825260178152602001807f43616e27742066696e64207468652070617469656e742100000000000000000081525060200191505060405180910390fd5b600260016000846fffffffffffffffffffffffffffffffff19166fffffffffffffffffffffffffffffffff1916815260200190815260200160002054815481106116f457fe5b9060005260206000200160009054906101000a900473ffffffffffffffffffffffffffffffffffffffff169050919050565b600080606060028054905060016000866fffffffffffffffffffffffffffffffff19166fffffffffffffffffffffffffffffffff1916815260200190815260200160002054106117de576040517f08c379a000000000000000000000000000000000000000000000000000000000815260040180806020018281038252601b8152602001807f50617469656e7420696e646578206f7574206f6620626f756e6421000000000081525060200191505060405180910390fd5b60016000856fffffffffffffffffffffffffffffffff19166fffffffffffffffffffffffffffffffff1916815260200190815260200160002054600260016000876fffffffffffffffffffffffffffffffff19166fffffffffffffffffffffffffffffffff19168152602001908152602001600020548154811061185e57fe5b9060005260206000200160009054906101000a900473ffffffffffffffffffffffffffffffffffffffff16600460016000886fffffffffffffffffffffffffffffffff19166fffffffffffffffffffffffffffffffff1916815260200190815260200160002054815481106118cf57fe5b90600052602060002001808054600181600116156101000203166002900480601f01602080910402602001604051908101604052809291908181526020018280546001816001161561010002031660029004801561196e5780601f106119435761010080835404028352916020019161196e565b820191906000526020600020905b81548152906001019060200180831161195157829003601f168201915b505050505090509250925092509193909250565b6005818154811061198f57fe5b90600052602060002090600602016000915090508060000160009054906101000a900460801b908060000160109054906101000a900460801b908060010160009054906101000a900460801b908060010160109054906101000a900460801b908060020160009054906101000a900460801b908060030154908060040154908060050160009054906101000a900460801b908060050160109054906101000a900460801b905089565b6000611a43336127db565b15611ab6576040517f08c379a00000000000000000000000000000000000000000000000000000000081526004018080602001828103825260168152602001807f53656e646572206e6f7420617574686f72697a65642e0000000000000000000081525060200191505060405180910390fd5b8160046000803373ffffffffffffffffffffffffffffffffffffffff1673ffffffffffffffffffffffffffffffffffffffff1681526020019081526020016000205481548110611b0257fe5b906000526020600020019080519060200190611b1f9291906128c8565b5060019050919050565b6060611b34826127db565b611ba6576040517f08c379a00000000000000000000000000000000000000000000000000000000081526004018080602001828103825260168152602001807f50617469656e7420646f65736e2774206578697374210000000000000000000081525060200191505060405180910390fd5b60046000808473ffffffffffffffffffffffffffffffffffffffff1673ffffffffffffffffffffffffffffffffffffffff1681526020019081526020016000205481548110611bf157fe5b906000526020600020018054600181600116156101000203166002900480601f016020809104026020016040519081016040528092919081815260200182805460018160011615610100020316600290048015611c8f5780601f10611c6457610100808354040283529160200191611c8f565b820191906000526020600020905b815481529060010190602001808311611c7257829003601f168201915b50505050509050919050565b600080611ca783611ffa565b905060058181548110611cb657fe5b906000526020600020906006020160010160109054906101000a900460801b915050919050565b6000611ce8826127db565b611d5a576040517f08c379a00000000000000000000000000000000000000000000000000000000081526004018080602001828103825260168152602001807f50617469656e7420646f65736e2774206578697374210000000000000000000081525060200191505060405180910390fd5b60036000808473ffffffffffffffffffffffffffffffffffffffff1673ffffffffffffffffffffffffffffffffffffffff1681526020019081526020016000205481548110611da557fe5b90600052602060002090600291828204019190066010029054906101000a900460801b9050919050565b6000806060611ddd846127db565b611e4f576040517f08c379a00000000000000000000000000000000000000000000000000000000081526004018080602001828103825260168152602001807f50617469656e7420646f65736e2774206578697374210000000000000000000081525060200191505060405180910390fd5b6000808573ffffffffffffffffffffffffffffffffffffffff1673ffffffffffffffffffffffffffffffffffffffff1681526020019081526020016000205460036000808773ffffffffffffffffffffffffffffffffffffffff1673ffffffffffffffffffffffffffffffffffffffff1681526020019081526020016000205481548110611ed957fe5b90600052602060002090600291828204019190066010029054906101000a900460801b60046000808873ffffffffffffffffffffffffffffffffffffffff1673ffffffffffffffffffffffffffffffffffffffff1681526020019081526020016000205481548110611f4757fe5b90600052602060002001808054600181600116156101000203166002900480601f016020809104026020016040519081016040528092919081815260200182805460018160011615610100020316600290048015611fe65780601f10611fbb57610100808354040283529160200191611fe6565b820191906000526020600020905b815481529060010190602001808311611fc957829003601f168201915b505050505090509250925092509193909250565b600061200582611391565b612077576040517f08c379a00000000000000000000000000000000000000000000000000000000081526004018080602001828103825260178152602001807f43616e27742066696e64207468652070617469656e742100000000000000000081525060200191505060405180910390fd5b60016000836fffffffffffffffffffffffffffffffff19166fffffffffffffffffffffffffffffffff19168152602001908152602001600020549050919050565b6000600280549050905090565b60606120d082611391565b612142576040517f08c379a00000000000000000000000000000000000000000000000000000000081526004018080602001828103825260178152602001807f43616e27742066696e64207468652070617469656e742100000000000000000081525060200191505060405180910390fd5b600460016000846fffffffffffffffffffffffffffffffff19166fffffffffffffffffffffffffffffffff19168152602001908152602001600020548154811061218857fe5b906000526020600020018054600181600116156101000203166002900480601f0160208091040260200160405190810160405280929190818152602001828054600181600116156101000203166002900480156122265780601f106121fb57610100808354040283529160200191612226565b820191906000526020600020905b81548152906001019060200180831161220957829003601f168201915b50505050509050919050565b600060028054905082106122ae576040517f08c379a00000000000000000000000000000000000000000000000000000000081526004018080602001828103825260138152602001807f496e646578206f7574206f6620626f756e64210000000000000000000000000081525060200191505060405180910390fd5b600382815481106122bb57fe5b90600052602060002090600291828204019190066010029054906101000a900460801b9050919050565b60006122f0336127db565b15612363576040517f08c379a00000000000000000000000000000000000000000000000000000000081526004018080602001828103825260168152602001807f53656e646572206e6f7420617574686f72697a65642e0000000000000000000081525060200191505060405180910390fd5b61236c8b611391565b156123df576040517f08c379a000000000000000000000000000000000000000000000000000000000815260040180806020018281038252601c8152602001807f50617469656e74206e616d6520686173206265656e2074616b656e2e0000000081525060200191505060405180910390fd5b60023390806001815401808255809150509060018203906000526020600020016000909192909190916101000a81548173ffffffffffffffffffffffffffffffffffffffff021916908373ffffffffffffffffffffffffffffffffffffffff1602179055505060038b908060018154018082558091505090600182039060005260206000209060029182820401919006601002909192909190916101000a8154816fffffffffffffffffffffffffffffffff021916908360801c02179055505060048290806001815401808255809150509060018203906000526020600020016000909192909190915090805190602001906124dc9291906128c8565b505060056040518061012001604052808d6fffffffffffffffffffffffffffffffff191681526020018c6fffffffffffffffffffffffffffffffff191681526020018b6fffffffffffffffffffffffffffffffff191681526020018a6fffffffffffffffffffffffffffffffff19168152602001896fffffffffffffffffffffffffffffffff19168152602001888152602001878152602001866fffffffffffffffffffffffffffffffff19168152602001856fffffffffffffffffffffffffffffffff19168152509080600181540180825580915050906001820390600052602060002090600602016000909192909190915060008201518160000160006101000a8154816fffffffffffffffffffffffffffffffff021916908360801c021790555060208201518160000160106101000a8154816fffffffffffffffffffffffffffffffff021916908360801c021790555060408201518160010160006101000a8154816fffffffffffffffffffffffffffffffff021916908360801c021790555060608201518160010160106101000a8154816fffffffffffffffffffffffffffffffff021916908360801c021790555060808201518160020160006101000a8154816fffffffffffffffffffffffffffffffff021916908360801c021790555060a0820151816003015560c0820151816004015560e08201518160050160006101000a8154816fffffffffffffffffffffffffffffffff021916908360801c02179055506101008201518160050160106101000a8154816fffffffffffffffffffffffffffffffff021916908360801c02179055505050506001600280549050036000803373ffffffffffffffffffffffffffffffffffffffff1673ffffffffffffffffffffffffffffffffffffffff16815260200190815260200160002081905550600160028054905003600160008d6fffffffffffffffffffffffffffffffff19166fffffffffffffffffffffffffffffffff1916815260200190815260200160002081905550600190509a9950505050505050505050565b6000806000808473ffffffffffffffffffffffffffffffffffffffff1673ffffffffffffffffffffffffffffffffffffffff16815260200190815260200160002054118061288c5750600260008154811061283257fe5b9060005260206000200160009054906101000a900473ffffffffffffffffffffffffffffffffffffffff1673ffffffffffffffffffffffffffffffffffffffff168273ffffffffffffffffffffffffffffffffffffffff16145b9050919050565b60008061289f83611ffa565b9050600581815481106128ae57fe5b906000526020600020906006020160040154915050919050565b828054600181600116156101000203166002900490600052602060002090601f016020900481019282601f1061290957805160ff1916838001178555612937565b82800160010185558215612937579182015b8281111561293657825182559160200191906001019061291b565b5b5090506129449190612948565b5090565b61296a91905b8082111561296657600081600090555060010161294e565b5090565b9056fea265627a7a723158203d3067f46889ad22ccbc5192c36c5975fbce9f7fc7a1ac5839129822ca074d3364736f6c63430005100032",
  "source": "pragma solidity >=0.5.16;\n\ncontract AllInOne {\n    mapping(address => uint) private addressToIndex;\n    mapping(bytes16 => uint) private patientnameToIndex;\n    address[] private addresses;\n    bytes16[] private patientUnames;\n    bytes[] private ipfsHashes;\n\n    struct Patient{\n        bytes16 patientUname;\n        bytes16 passwd;\n        bytes16 patName;\n        bytes16 patSurnm;\n        bytes16 patSex;\n        uint patBirth;\n        uint patPhone;\n        bytes16 patEmail;\n        bytes16 patAddress;\n    }\n    Patient[] public patients;\n\n    function hasPatient(address _patientAdresses) public view returns(bool) {\n        return (addressToIndex[_patientAdresses] > 0 || _patientAdresses == addresses[0]);\n    }\n\n    function patientNameTaken(bytes16 pname) public view returns(bool takenIndeed) {\n            return (patientnameToIndex[pname] > 0 || pname == 'self');\n    }\n\n    function registerPatient(bytes16 patientName, bytes16 _passwd, bytes16 _patName, bytes16 _patSurnm,\n        bytes16 _patSex, uint _patBirth, uint _patPhone,  bytes16 _patEmail, bytes16 _patAddress,\n         bytes memory ipfsHash) public returns(bool) {\n        require(!hasPatient(msg.sender),\n                \"Sender not authorized.\");\n        require(!patientNameTaken(patientName),\n                \"Patient name has been taken.\"\n        );\n        addresses.push(msg.sender);\n        patientUnames.push(patientName);\n        ipfsHashes.push(ipfsHash);\n        patients.push(Patient(patientName, _passwd, _patName, _patSurnm, _patSex, _patBirth, _patPhone, _patEmail, _patAddress));\n        addressToIndex[msg.sender] = addresses.length - 1;\n        patientnameToIndex[patientName] = addresses.length - 1;\n        return true;\n    }\n\n function updatePatient(bytes memory ipfsHash) public returns(bool){\n    require(!hasPatient(msg.sender),\n            \"Sender not authorized.\");\n    ipfsHashes[addressToIndex[msg.sender]] = ipfsHash;\n    return true;\n }\n\n function getPatientCount() public view returns(uint){\n    return addresses.length;\n }\n\n function getPatientByIndex(uint index) public view returns(address,bytes16,bytes memory){\n    require((index < addresses.length),\n            \"Index out of bound!\");\n    return(addresses[index], patientUnames[index], ipfsHashes[index]);\n }\n\n function getAddressesByIndex(uint index) public view returns(address){\n    require((index < addresses.length),\n            \"Index out of bound!\");\n    return addresses[index];\n }\n\n function getPatientNameByIndex(uint index) public view returns(bytes16){\n    require((index < addresses.length),\n            \"Index out of bound!\");\n    return patientUnames[index];\n }\n\n function getIpfsHashByIndex(uint index) public view returns(bytes memory){\n    require((index < addresses.length),\n            \"Index out of bound!\");\n    return ipfsHashes[index];\n }\n\n function getPatientByAddress(address patientAddress) public view returns(uint, bytes16, bytes memory){\n    require(hasPatient(patientAddress),\n            \"Patient doesn't exist!\");\n    return(addressToIndex[patientAddress], patientUnames[addressToIndex[patientAddress]], ipfsHashes[addressToIndex[patientAddress]]);\n }\n\n function getIndexByAddress(address patientAddress) public view returns(uint){\n    require(hasPatient(patientAddress),\n            \"Patient doesn't exist!\");\n    return addressToIndex[patientAddress];\n }\n\n function getPatientNameByAddress(address patientAddress) public view returns(bytes16){\n    require(hasPatient(patientAddress),\n            \"Patient doesn't exist!\");\n    return patientUnames[addressToIndex[patientAddress]];\n }\n\n function getIpfsHashByAddress(address patientAddress) public view returns(bytes memory){\n    require(hasPatient(patientAddress),\n            \"Patient doesn't exist!\");\n    return ipfsHashes[addressToIndex[patientAddress]];\n }\n\n function getPatientByPatientName(bytes16 patientname) public view returns(uint,address,bytes memory){\n    require((patientnameToIndex[patientname] < addresses.length),\n            \"Patient index out of bound!\");\n    return(patientnameToIndex[patientname], addresses[patientnameToIndex[patientname]], ipfsHashes[patientnameToIndex[patientname]]);\n }\n\n function getIndexByPatientName(bytes16 patientname) public view returns(uint){\n    require((patientNameTaken(patientname)),\n        \"Can't find the patient!\");\n    return patientnameToIndex[patientname];\n }\n\n function getAddressByPatientName(bytes16 patientname) public view returns(address){\n    require((patientNameTaken(patientname)),\n        \"Can't find the patient!\");\n    return addresses[patientnameToIndex[patientname]];\n }\n function getIpfsHashByPatientName(bytes16 patientname) public view returns(bytes memory){\n    require((patientNameTaken(patientname)),\n            \"Can't find the patient!\");\n    return ipfsHashes[patientnameToIndex[patientname]];\n }\n\n    //  function setPatientUName(bytes16 _uname) public returns(bool){\n    //     patients.push(addresses.length-1, _uname).patientUname = _uname;\n    //     return true;\n    // }\n\n    // function setPassword(string memory _pass) public returns(bool){\n    //     p.passwd = _pass;\n    //     return true;\n    // }\n\n    // function setPatientName(string memory _patName) public returns(bool){\n    //     p.patName = _patName;\n    //     return true;\n    // }\n\n    // function setPatientSurname(string memory _patSurnm) public returns(bool){\n    //     p.patSurnm = _patSurnm;\n    //     return true;\n    // }\n\n    // function setPatientSex(bytes1 _patSex) public returns(bool){\n    //     p.patSex = _patSex;\n    //     return true;\n    // }\n\n    // function setPatientBirth(uint _patBirth) public returns(bool){\n    //     p.patBirth = _patBirth;\n    //     return true;\n    // }\n\n    // function setPatientPhone(string memory _patPhone) public returns(bool){\n    //     p.patPhone = _patPhone;\n    //     return true;\n    // }\n\n    // function setPatientEmail(string memory _patEmail) public returns(bool){\n    //     p.patEmail = _patEmail;\n    //     return true;\n    // }\n    // function setPatientAddress(string memory _patAddress) public returns(bool){\n    //     p.patAddress = _patAddress;\n    //     return true;\n    // }\n\n    // function getPatientUserName(bytes16 patientname) public view returns(bytes16){\n    //     uint index = getIndexByPatientName(patientname);\n    //     return patients[index].patientUname;\n    // }\n\n    function getPassword(bytes16 patientname) public view returns(bytes16){\n        uint index = getIndexByPatientName(patientname);\n        return patients[index].passwd;\n    }\n\n    function getPatientName(bytes16 patientname) public view returns(bytes16){\n        uint index = getIndexByPatientName(patientname);\n        return patients[index].patName;\n    }\n\n    function getPatientSurname(bytes16 patientname) public view returns(bytes16){\n        uint index = getIndexByPatientName(patientname);\n        return patients[index].patSurnm;\n    }\n\n    function getPatientSex(bytes16 patientname) public view returns(bytes16){\n        uint index = getIndexByPatientName(patientname);\n        return patients[index].patSex;\n    }\n\n    function getPatientBirth(bytes16 patientname) public view returns(uint){\n        uint index = getIndexByPatientName(patientname);\n        return patients[index].patBirth;\n    }\n\n    function getPatientPhone(bytes16 patientname) public view returns(uint){\n        uint index = getIndexByPatientName(patientname);\n        return patients[index].patPhone;\n    }\n}",
  "sourcePath": "/home/eke/patient-eth/contracts/AllInOne.sol",
  "compiler": {
    "name": "solc",
    "version": "0.5.16+commit.9c3226ce.Emscripten.clang"
  },
  "schemaVersion": "3.0.23",
  "updatedAt": "2020-04-05T16:22:46.716Z",
  "networkType": "ethereum",
  "devdoc": {
    "methods": {}
  },
  "userdoc": {
    "methods": {}
  }
}