{
  "contractName": "PatientIndex",
  "abi": [
    {
      "constant": false,
      "inputs": [],
      "name": "Patients",
      "outputs": [
        {
          "internalType": "bool",
          "name": "",
          "type": "bool"
        }
      ],
      "payable": false,
      "stateMutability": "nonpayable",
      "type": "function"
    },
    {
      "constant": true,
      "inputs": [
        {
          "internalType": "address",
          "name": "_patientAdresses",
          "type": "address"
        }
      ],
      "name": "hasPatient",
      "outputs": [
        {
          "internalType": "bool",
          "name": "",
          "type": "bool"
        }
      ],
      "payable": false,
      "stateMutability": "view",
      "type": "function"
    },
    {
      "constant": true,
      "inputs": [
        {
          "internalType": "bytes16",
          "name": "pname",
          "type": "bytes16"
        }
      ],
      "name": "patientNameTaken",
      "outputs": [
        {
          "internalType": "bool",
          "name": "takenIndeed",
          "type": "bool"
        }
      ],
      "payable": false,
      "stateMutability": "view",
      "type": "function"
    },
    {
      "constant": false,
      "inputs": [
        {
          "internalType": "bytes16",
          "name": "patientName",
          "type": "bytes16"
        },
        {
          "internalType": "bytes16",
          "name": "_passwd",
          "type": "bytes16"
        },
        {
          "internalType": "bytes16",
          "name": "_patName",
          "type": "bytes16"
        },
        {
          "internalType": "bytes16",
          "name": "_patSurnm",
          "type": "bytes16"
        },
        {
          "internalType": "bytes1",
          "name": "_patSex",
          "type": "bytes1"
        },
        {
          "internalType": "bytes16",
          "name": "_patBirth",
          "type": "bytes16"
        },
        {
          "internalType": "bytes16",
          "name": "_patPhone",
          "type": "bytes16"
        },
        {
          "internalType": "bytes16",
          "name": "_patEmail",
          "type": "bytes16"
        },
        {
          "internalType": "bytes32",
          "name": "_patAddress",
          "type": "bytes32"
        },
        {
          "internalType": "bytes",
          "name": "ipfsHash",
          "type": "bytes"
        }
      ],
      "name": "registerPatient",
      "outputs": [
        {
          "internalType": "bool",
          "name": "",
          "type": "bool"
        }
      ],
      "payable": false,
      "stateMutability": "nonpayable",
      "type": "function"
    },
    {
      "constant": false,
      "inputs": [
        {
          "internalType": "bytes",
          "name": "ipfsHash",
          "type": "bytes"
        }
      ],
      "name": "updatePatient",
      "outputs": [
        {
          "internalType": "bool",
          "name": "",
          "type": "bool"
        }
      ],
      "payable": false,
      "stateMutability": "nonpayable",
      "type": "function"
    },
    {
      "constant": true,
      "inputs": [],
      "name": "getPatientCount",
      "outputs": [
        {
          "internalType": "uint256",
          "name": "",
          "type": "uint256"
        }
      ],
      "payable": false,
      "stateMutability": "view",
      "type": "function"
    },
    {
      "constant": true,
      "inputs": [
        {
          "internalType": "uint256",
          "name": "index",
          "type": "uint256"
        }
      ],
      "name": "getPatientByIndex",
      "outputs": [
        {
          "internalType": "address",
          "name": "",
          "type": "address"
        },
        {
          "internalType": "bytes16",
          "name": "",
          "type": "bytes16"
        },
        {
          "internalType": "bytes",
          "name": "",
          "type": "bytes"
        }
      ],
      "payable": false,
      "stateMutability": "view",
      "type": "function"
    },
    {
      "constant": true,
      "inputs": [
        {
          "internalType": "uint256",
          "name": "index",
          "type": "uint256"
        }
      ],
      "name": "getAddressesByIndex",
      "outputs": [
        {
          "internalType": "address",
          "name": "",
          "type": "address"
        }
      ],
      "payable": false,
      "stateMutability": "view",
      "type": "function"
    },
    {
      "constant": true,
      "inputs": [
        {
          "internalType": "uint256",
          "name": "index",
          "type": "uint256"
        }
      ],
      "name": "getPatientNameByIndex",
      "outputs": [
        {
          "internalType": "bytes16",
          "name": "",
          "type": "bytes16"
        }
      ],
      "payable": false,
      "stateMutability": "view",
      "type": "function"
    },
    {
      "constant": true,
      "inputs": [
        {
          "internalType": "uint256",
          "name": "index",
          "type": "uint256"
        }
      ],
      "name": "getIpfsHashByIndex",
      "outputs": [
        {
          "internalType": "bytes",
          "name": "",
          "type": "bytes"
        }
      ],
      "payable": false,
      "stateMutability": "view",
      "type": "function"
    },
    {
      "constant": true,
      "inputs": [
        {
          "internalType": "address",
          "name": "patientAddress",
          "type": "address"
        }
      ],
      "name": "getPatientByAddress",
      "outputs": [
        {
          "internalType": "uint256",
          "name": "",
          "type": "uint256"
        },
        {
          "internalType": "bytes16",
          "name": "",
          "type": "bytes16"
        },
        {
          "internalType": "bytes",
          "name": "",
          "type": "bytes"
        }
      ],
      "payable": false,
      "stateMutability": "view",
      "type": "function"
    },
    {
      "constant": true,
      "inputs": [
        {
          "internalType": "address",
          "name": "patientAddress",
          "type": "address"
        }
      ],
      "name": "getIndexByAddress",
      "outputs": [
        {
          "internalType": "uint256",
          "name": "",
          "type": "uint256"
        }
      ],
      "payable": false,
      "stateMutability": "view",
      "type": "function"
    },
    {
      "constant": true,
      "inputs": [
        {
          "internalType": "address",
          "name": "patientAddress",
          "type": "address"
        }
      ],
      "name": "getPatientNameByAddress",
      "outputs": [
        {
          "internalType": "bytes16",
          "name": "",
          "type": "bytes16"
        }
      ],
      "payable": false,
      "stateMutability": "view",
      "type": "function"
    },
    {
      "constant": true,
      "inputs": [
        {
          "internalType": "address",
          "name": "patientAddress",
          "type": "address"
        }
      ],
      "name": "getIpfsHashByAddress",
      "outputs": [
        {
          "internalType": "bytes",
          "name": "",
          "type": "bytes"
        }
      ],
      "payable": false,
      "stateMutability": "view",
      "type": "function"
    },
    {
      "constant": true,
      "inputs": [
        {
          "internalType": "bytes16",
          "name": "patientname",
          "type": "bytes16"
        }
      ],
      "name": "getPatientByPatientName",
      "outputs": [
        {
          "internalType": "uint256",
          "name": "",
          "type": "uint256"
        },
        {
          "internalType": "address",
          "name": "",
          "type": "address"
        },
        {
          "internalType": "bytes",
          "name": "",
          "type": "bytes"
        }
      ],
      "payable": false,
      "stateMutability": "view",
      "type": "function"
    },
    {
      "constant": true,
      "inputs": [
        {
          "internalType": "bytes16",
          "name": "patientname",
          "type": "bytes16"
        }
      ],
      "name": "getIndexByPatientName",
      "outputs": [
        {
          "internalType": "uint256",
          "name": "",
          "type": "uint256"
        }
      ],
      "payable": false,
      "stateMutability": "view",
      "type": "function"
    },
    {
      "constant": true,
      "inputs": [
        {
          "internalType": "bytes16",
          "name": "patientname",
          "type": "bytes16"
        }
      ],
      "name": "getAddressByPatientName",
      "outputs": [
        {
          "internalType": "address",
          "name": "",
          "type": "address"
        }
      ],
      "payable": false,
      "stateMutability": "view",
      "type": "function"
    },
    {
      "constant": true,
      "inputs": [
        {
          "internalType": "bytes16",
          "name": "patientname",
          "type": "bytes16"
        }
      ],
      "name": "getIpfsHashByPatientName",
      "outputs": [
        {
          "internalType": "bytes",
          "name": "",
          "type": "bytes"
        }
      ],
      "payable": false,
      "stateMutability": "view",
      "type": "function"
    }
  ],
  "bytecode": "0x608060405234801561001057600080fd5b50613112806100206000396000f3fe60806040523480156200001157600080fd5b5060043610620001305760003560e01c806394e7ef6e11620000b1578063bfde5e4c116200007b578063bfde5e4c1462000aa8578063c190665b1462000b00578063c37520141462000b20578063cbb7e2ff1462000be0578063eb9fbaa91462000c4b5762000130565b806394e7ef6e1462000794578063a74380a6146200086d578063b9affb931462000930578063ba5c033514620009b15762000130565b806333dd193211620000ff57806333dd193214620002d257806357ea0c2f146200032e57806383a261f8146200043b5780638c3f040f1462000616578063920c9c3f146200069a5762000130565b806304dd548f14620001355780631101c53214620001a65780631973ef9114620001ca57806329f78d881462000225575b600080fd5b62000164600480360360208110156200014d57600080fd5b810190808035906020019092919050505062000caa565b604051808273ffffffffffffffffffffffffffffffffffffffff1673ffffffffffffffffffffffffffffffffffffffff16815260200191505060405180910390f35b620001b062000d67565b604051808215151515815260200191505060405180910390f35b6200020f60048036036020811015620001e257600080fd5b81019080803573ffffffffffffffffffffffffffffffffffffffff16906020019092919050505062000eba565b6040518082815260200191505060405180910390f35b62000254600480360360208110156200023d57600080fd5b810190808035906020019092919050505062000f80565b6040518080602001828103825283818151815260200191508051906020019080838360005b838110156200029657808201518184015260208101905062000279565b50505050905090810190601f168015620002c45780820380516001836020036101000a031916815260200191505b509250505060405180910390f35b6200031460048036036020811015620002ea57600080fd5b8101908080356fffffffffffffffffffffffffffffffff19169060200190929190505050620010b9565b604051808215151515815260200191505060405180910390f35b6200035d600480360360208110156200034657600080fd5b81019080803590602001909291905050506200113c565b604051808473ffffffffffffffffffffffffffffffffffffffff1673ffffffffffffffffffffffffffffffffffffffff168152602001836fffffffffffffffffffffffffffffffff19166fffffffffffffffffffffffffffffffff1916815260200180602001828103825283818151815260200191508051906020019080838360005b83811015620003fd578082015181840152602081019050620003e0565b50505050905090810190601f1680156200042b5780820380516001836020036101000a031916815260200191505b5094505050505060405180910390f35b620005fc60048036036101408110156200045457600080fd5b8101908080356fffffffffffffffffffffffffffffffff1916906020019092919080356fffffffffffffffffffffffffffffffff1916906020019092919080356fffffffffffffffffffffffffffffffff1916906020019092919080356fffffffffffffffffffffffffffffffff1916906020019092919080357effffffffffffffffffffffffffffffffffffffffffffffffffffffffffffff1916906020019092919080356fffffffffffffffffffffffffffffffff1916906020019092919080356fffffffffffffffffffffffffffffffff1916906020019092919080356fffffffffffffffffffffffffffffffff1916906020019092919080359060200190929190803590602001906401000000008111156200057357600080fd5b8201836020820111156200058657600080fd5b80359060200191846001830284011164010000000083111715620005a957600080fd5b91908080601f016020809104026020016040519081016040528093929190818152602001838380828437600081840152601f19601f820116905080830192505050505050509192919290505050620012eb565b604051808215151515815260200191505060405180910390f35b62000658600480360360208110156200062e57600080fd5b8101908080356fffffffffffffffffffffffffffffffff1916906020019092919050505062001755565b604051808273ffffffffffffffffffffffffffffffffffffffff1673ffffffffffffffffffffffffffffffffffffffff16815260200191505060405180910390f35b620006dc60048036036020811015620006b257600080fd5b8101908080356fffffffffffffffffffffffffffffffff191690602001909291905050506200184e565b604051808481526020018373ffffffffffffffffffffffffffffffffffffffff1673ffffffffffffffffffffffffffffffffffffffff16815260200180602001828103825283818151815260200191508051906020019080838360005b838110156200075657808201518184015260208101905062000739565b50505050905090810190601f168015620007845780820380516001836020036101000a031916815260200191505b5094505050505060405180910390f35b6200085360048036036020811015620007ac57600080fd5b8101908080359060200190640100000000811115620007ca57600080fd5b820183602082011115620007dd57600080fd5b803590602001918460018302840111640100000000831117156200080057600080fd5b91908080601f016020809104026020016040519081016040528093929190818152602001838380828437600081840152601f19601f82011690508083019250505050505050919291929050505062001ab1565b604051808215151515815260200191505060405180910390f35b620008b2600480360360208110156200088557600080fd5b81019080803573ffffffffffffffffffffffffffffffffffffffff16906020019092919050505062001ba8565b6040518080602001828103825283818151815260200191508051906020019080838360005b83811015620008f4578082015181840152602081019050620008d7565b50505050905090810190601f168015620009225780820380516001836020036101000a031916815260200191505b509250505060405180910390f35b62000975600480360360208110156200094857600080fd5b81019080803573ffffffffffffffffffffffffffffffffffffffff16906020019092919050505062001d22565b60405180826fffffffffffffffffffffffffffffffff19166fffffffffffffffffffffffffffffffff1916815260200191505060405180910390f35b620009f660048036036020811015620009c957600080fd5b81019080803573ffffffffffffffffffffffffffffffffffffffff16906020019092919050505062001e18565b60405180848152602001836fffffffffffffffffffffffffffffffff19166fffffffffffffffffffffffffffffffff1916815260200180602001828103825283818151815260200191508051906020019080838360005b8381101562000a6a57808201518184015260208101905062000a4d565b50505050905090810190601f16801562000a985780820380516001836020036101000a031916815260200191505b5094505050505060405180910390f35b62000aea6004803603602081101562000ac057600080fd5b8101908080356fffffffffffffffffffffffffffffffff191690602001909291905050506200204c565b6040518082815260200191505060405180910390f35b62000b0a6200210d565b6040518082815260200191505060405180910390f35b62000b626004803603602081101562000b3857600080fd5b8101908080356fffffffffffffffffffffffffffffffff191690602001909291905050506200211a565b6040518080602001828103825283818151815260200191508051906020019080838360005b8381101562000ba457808201518184015260208101905062000b87565b50505050905090810190601f16801562000bd25780820380516001836020036101000a031916815260200191505b509250505060405180910390f35b62000c0f6004803603602081101562000bf857600080fd5b81019080803590602001909291905050506200228f565b60405180826fffffffffffffffffffffffffffffffff19166fffffffffffffffffffffffffffffffff1916815260200191505060405180910390f35b62000c906004803603602081101562000c6357600080fd5b81019080803573ffffffffffffffffffffffffffffffffffffffff16906020019092919050505062002344565b604051808215151515815260200191505060405180910390f35b6000600280549050821062000d27576040517f08c379a00000000000000000000000000000000000000000000000000000000081526004018080602001828103825260138152602001807f496e646578206f7574206f6620626f756e64210000000000000000000000000081525060200191505060405180910390fd5b6002828154811062000d3557fe5b9060005260206000200160009054906101000a900473ffffffffffffffffffffffffffffffffffffffff169050919050565b600060023390806001815401808255809150509060018203906000526020600020016000909192909190916101000a81548173ffffffffffffffffffffffffffffffffffffffff021916908373ffffffffffffffffffffffffffffffffffffffff16021790555050600380600181540180825580915050906001820390600052602060002090600291828204019190066010027f7800000000000000000000000000000000000000000000000000000000000000909190916101000a8154816fffffffffffffffffffffffffffffffff021916908360801c02179055505060048060018154018082558091505090600182039060005260206000200160006040518060400160405280600d81526020017f6e6f742d617661696c61626c65000000000000000000000000000000000000008152509091909150908051906020019062000eb5929190620023fe565b505090565b600062000ec78262002344565b62000f3a576040517f08c379a00000000000000000000000000000000000000000000000000000000081526004018080602001828103825260168152602001807f50617469656e7420646f65736e2774206578697374210000000000000000000081525060200191505060405180910390fd5b6000808373ffffffffffffffffffffffffffffffffffffffff1673ffffffffffffffffffffffffffffffffffffffff168152602001908152602001600020549050919050565b6060600280549050821062000ffd576040517f08c379a00000000000000000000000000000000000000000000000000000000081526004018080602001828103825260138152602001807f496e646578206f7574206f6620626f756e64210000000000000000000000000081525060200191505060405180910390fd5b600482815481106200100b57fe5b906000526020600020018054600181600116156101000203166002900480601f016020809104026020016040519081016040528092919081815260200182805460018160011615610100020316600290048015620010ad5780601f106200108157610100808354040283529160200191620010ad565b820191906000526020600020905b8154815290600101906020018083116200108f57829003601f168201915b50505050509050919050565b60008060016000846fffffffffffffffffffffffffffffffff19166fffffffffffffffffffffffffffffffff191681526020019081526020016000205411806200113557507f73656c6600000000000000000000000000000000000000000000000000000000826fffffffffffffffffffffffffffffffff1916145b9050919050565b60008060606002805490508410620011bc576040517f08c379a00000000000000000000000000000000000000000000000000000000081526004018080602001828103825260138152602001807f496e646578206f7574206f6620626f756e64210000000000000000000000000081525060200191505060405180910390fd5b60028481548110620011ca57fe5b9060005260206000200160009054906101000a900473ffffffffffffffffffffffffffffffffffffffff16600385815481106200120357fe5b90600052602060002090600291828204019190066010029054906101000a900460801b600486815481106200123457fe5b90600052602060002001808054600181600116156101000203166002900480601f016020809104026020016040519081016040528092919081815260200182805460018160011615610100020316600290048015620012d75780601f10620012ab57610100808354040283529160200191620012d7565b820191906000526020600020905b815481529060010190602001808311620012b957829003601f168201915b505050505090509250925092509193909250565b6000620012f83362002344565b156200136c576040517f08c379a00000000000000000000000000000000000000000000000000000000081526004018080602001828103825260168152602001807f53656e646572206e6f7420617574686f72697a65642e0000000000000000000081525060200191505060405180910390fd5b620013778b620010b9565b15620013eb576040517f08c379a000000000000000000000000000000000000000000000000000000000815260040180806020018281038252601c8152602001807f50617469656e74206e616d6520686173206265656e2074616b656e2e0000000081525060200191505060405180910390fd5b60023390806001815401808255809150509060018203906000526020600020016000909192909190916101000a81548173ffffffffffffffffffffffffffffffffffffffff021916908373ffffffffffffffffffffffffffffffffffffffff1602179055505060038b908060018154018082558091505090600182039060005260206000209060029182820401919006601002909192909190916101000a8154816fffffffffffffffffffffffffffffffff021916908360801c0217905550508a8a8a8a8a8a8a8a8a604051620014c29062002485565b808a6fffffffffffffffffffffffffffffffff19166fffffffffffffffffffffffffffffffff19168152602001896fffffffffffffffffffffffffffffffff19166fffffffffffffffffffffffffffffffff19168152602001886fffffffffffffffffffffffffffffffff19166fffffffffffffffffffffffffffffffff19168152602001876fffffffffffffffffffffffffffffffff19166fffffffffffffffffffffffffffffffff19168152602001867effffffffffffffffffffffffffffffffffffffffffffffffffffffffffffff19167effffffffffffffffffffffffffffffffffffffffffffffffffffffffffffff19168152602001856fffffffffffffffffffffffffffffffff19166fffffffffffffffffffffffffffffffff19168152602001846fffffffffffffffffffffffffffffffff19166fffffffffffffffffffffffffffffffff19168152602001836fffffffffffffffffffffffffffffffff19166fffffffffffffffffffffffffffffffff191681526020018281526020019950505050505050505050604051809103906000f0801580156200166f573d6000803e3d6000fd5b50506004829080600181540180825580915050906001820390600052602060002001600090919290919091509080519060200190620016b092919062002493565b50506001600280549050036000803373ffffffffffffffffffffffffffffffffffffffff1673ffffffffffffffffffffffffffffffffffffffff16815260200190815260200160002081905550600160028054905003600160008d6fffffffffffffffffffffffffffffffff19166fffffffffffffffffffffffffffffffff1916815260200190815260200160002081905550600190509a9950505050505050505050565b60006200176282620010b9565b620017d5576040517f08c379a00000000000000000000000000000000000000000000000000000000081526004018080602001828103825260178152602001807f43616e27742066696e64207468652070617469656e742100000000000000000081525060200191505060405180910390fd5b600260016000846fffffffffffffffffffffffffffffffff19166fffffffffffffffffffffffffffffffff1916815260200190815260200160002054815481106200181c57fe5b9060005260206000200160009054906101000a900473ffffffffffffffffffffffffffffffffffffffff169050919050565b600080606060028054905060016000866fffffffffffffffffffffffffffffffff19166fffffffffffffffffffffffffffffffff19168152602001908152602001600020541062001907576040517f08c379a000000000000000000000000000000000000000000000000000000000815260040180806020018281038252601b8152602001807f50617469656e7420696e646578206f7574206f6620626f756e6421000000000081525060200191505060405180910390fd5b60016000856fffffffffffffffffffffffffffffffff19166fffffffffffffffffffffffffffffffff1916815260200190815260200160002054600260016000876fffffffffffffffffffffffffffffffff19166fffffffffffffffffffffffffffffffff1916815260200190815260200160002054815481106200198857fe5b9060005260206000200160009054906101000a900473ffffffffffffffffffffffffffffffffffffffff16600460016000886fffffffffffffffffffffffffffffffff19166fffffffffffffffffffffffffffffffff191681526020019081526020016000205481548110620019fa57fe5b90600052602060002001808054600181600116156101000203166002900480601f01602080910402602001604051908101604052809291908181526020018280546001816001161561010002031660029004801562001a9d5780601f1062001a715761010080835404028352916020019162001a9d565b820191906000526020600020905b81548152906001019060200180831162001a7f57829003601f168201915b505050505090509250925092509193909250565b600062001abe3362002344565b1562001b32576040517f08c379a00000000000000000000000000000000000000000000000000000000081526004018080602001828103825260168152602001807f53656e646572206e6f7420617574686f72697a65642e0000000000000000000081525060200191505060405180910390fd5b8160046000803373ffffffffffffffffffffffffffffffffffffffff1673ffffffffffffffffffffffffffffffffffffffff168152602001908152602001600020548154811062001b7f57fe5b90600052602060002001908051906020019062001b9e92919062002493565b5060019050919050565b606062001bb58262002344565b62001c28576040517f08c379a00000000000000000000000000000000000000000000000000000000081526004018080602001828103825260168152602001807f50617469656e7420646f65736e2774206578697374210000000000000000000081525060200191505060405180910390fd5b60046000808473ffffffffffffffffffffffffffffffffffffffff1673ffffffffffffffffffffffffffffffffffffffff168152602001908152602001600020548154811062001c7457fe5b906000526020600020018054600181600116156101000203166002900480601f01602080910402602001604051908101604052809291908181526020018280546001816001161561010002031660029004801562001d165780601f1062001cea5761010080835404028352916020019162001d16565b820191906000526020600020905b81548152906001019060200180831162001cf857829003601f168201915b50505050509050919050565b600062001d2f8262002344565b62001da2576040517f08c379a00000000000000000000000000000000000000000000000000000000081526004018080602001828103825260168152602001807f50617469656e7420646f65736e2774206578697374210000000000000000000081525060200191505060405180910390fd5b60036000808473ffffffffffffffffffffffffffffffffffffffff1673ffffffffffffffffffffffffffffffffffffffff168152602001908152602001600020548154811062001dee57fe5b90600052602060002090600291828204019190066010029054906101000a900460801b9050919050565b600080606062001e288462002344565b62001e9b576040517f08c379a00000000000000000000000000000000000000000000000000000000081526004018080602001828103825260168152602001807f50617469656e7420646f65736e2774206578697374210000000000000000000081525060200191505060405180910390fd5b6000808573ffffffffffffffffffffffffffffffffffffffff1673ffffffffffffffffffffffffffffffffffffffff1681526020019081526020016000205460036000808773ffffffffffffffffffffffffffffffffffffffff1673ffffffffffffffffffffffffffffffffffffffff168152602001908152602001600020548154811062001f2657fe5b90600052602060002090600291828204019190066010029054906101000a900460801b60046000808873ffffffffffffffffffffffffffffffffffffffff1673ffffffffffffffffffffffffffffffffffffffff168152602001908152602001600020548154811062001f9557fe5b90600052602060002001808054600181600116156101000203166002900480601f016020809104026020016040519081016040528092919081815260200182805460018160011615610100020316600290048015620020385780601f106200200c5761010080835404028352916020019162002038565b820191906000526020600020905b8154815290600101906020018083116200201a57829003601f168201915b505050505090509250925092509193909250565b60006200205982620010b9565b620020cc576040517f08c379a00000000000000000000000000000000000000000000000000000000081526004018080602001828103825260178152602001807f43616e27742066696e64207468652070617469656e742100000000000000000081525060200191505060405180910390fd5b60016000836fffffffffffffffffffffffffffffffff19166fffffffffffffffffffffffffffffffff19168152602001908152602001600020549050919050565b6000600280549050905090565b60606200212782620010b9565b6200219a576040517f08c379a00000000000000000000000000000000000000000000000000000000081526004018080602001828103825260178152602001807f43616e27742066696e64207468652070617469656e742100000000000000000081525060200191505060405180910390fd5b600460016000846fffffffffffffffffffffffffffffffff19166fffffffffffffffffffffffffffffffff191681526020019081526020016000205481548110620021e157fe5b906000526020600020018054600181600116156101000203166002900480601f016020809104026020016040519081016040528092919081815260200182805460018160011615610100020316600290048015620022835780601f10620022575761010080835404028352916020019162002283565b820191906000526020600020905b8154815290600101906020018083116200226557829003601f168201915b50505050509050919050565b600060028054905082106200230c576040517f08c379a00000000000000000000000000000000000000000000000000000000081526004018080602001828103825260138152602001807f496e646578206f7574206f6620626f756e64210000000000000000000000000081525060200191505060405180910390fd5b600382815481106200231a57fe5b90600052602060002090600291828204019190066010029054906101000a900460801b9050919050565b6000806000808473ffffffffffffffffffffffffffffffffffffffff1673ffffffffffffffffffffffffffffffffffffffff168152602001908152602001600020541180620023f7575060026000815481106200239d57fe5b9060005260206000200160009054906101000a900473ffffffffffffffffffffffffffffffffffffffff1673ffffffffffffffffffffffffffffffffffffffff168273ffffffffffffffffffffffffffffffffffffffff16145b9050919050565b828054600181600116156101000203166002900490600052602060002090601f016020900481019282601f106200244157805160ff191683800117855562002472565b8280016001018555821562002472579182015b828111156200247157825182559160200191906001019062002454565b5b5090506200248191906200251a565b5090565b610b9b806200254383390190565b828054600181600116156101000203166002900490600052602060002090601f016020900481019282601f10620024d657805160ff191683800117855562002507565b8280016001018555821562002507579182015b8281111562002506578251825591602001919060010190620024e9565b5b5090506200251691906200251a565b5090565b6200253f91905b808211156200253b57600081600090555060010162002521565b5090565b9056fe6080604052604051610b9b380380610b9b833981810160405261012081101561002757600080fd5b81019080805190602001909291908051906020019092919080519060200190929190805190602001909291908051906020019092919080519060200190929190805190602001909291908051906020019092919080519060200190929190505050610090610258565b8981600001906fffffffffffffffffffffffffffffffff191690816fffffffffffffffffffffffffffffffff1916815250508881602001906fffffffffffffffffffffffffffffffff191690816fffffffffffffffffffffffffffffffff1916815250508781604001906fffffffffffffffffffffffffffffffff191690816fffffffffffffffffffffffffffffffff1916815250508681606001906fffffffffffffffffffffffffffffffff191690816fffffffffffffffffffffffffffffffff1916815250508581608001907effffffffffffffffffffffffffffffffffffffffffffffffffffffffffffff191690817effffffffffffffffffffffffffffffffffffffffffffffffffffffffffffff191681525050848160a001906fffffffffffffffffffffffffffffffff191690816fffffffffffffffffffffffffffffffff191681525050838160c001906fffffffffffffffffffffffffffffffff191690816fffffffffffffffffffffffffffffffff191681525050828160e001906fffffffffffffffffffffffffffffffff191690816fffffffffffffffffffffffffffffffff19168152505081816101000181815250505050505050505050505061034e565b60405180610120016040528060006fffffffffffffffffffffffffffffffff1916815260200160006fffffffffffffffffffffffffffffffff1916815260200160006fffffffffffffffffffffffffffffffff1916815260200160006fffffffffffffffffffffffffffffffff1916815260200160007effffffffffffffffffffffffffffffffffffffffffffffffffffffffffffff1916815260200160006fffffffffffffffffffffffffffffffff1916815260200160006fffffffffffffffffffffffffffffffff1916815260200160006fffffffffffffffffffffffffffffffff19168152602001600080191681525090565b61083e8061035d6000396000f3fe608060405234801561001057600080fd5b50600436106100935760003560e01c806384bccdb11161006657806384bccdb114610288578063bd7be49014610306578063c204ebf414610384578063c963b9c314610402578063cc180c341461048057610093565b806308026668146100985780634885ed7014610116578063681fcac3146101945780637ab63eb5146101ec575b600080fd5b6100da600480360360208110156100ae57600080fd5b81019080803573ffffffffffffffffffffffffffffffffffffffff1690602001909291905050506104fe565b60405180826fffffffffffffffffffffffffffffffff19166fffffffffffffffffffffffffffffffff1916815260200191505060405180910390f35b6101586004803603602081101561012c57600080fd5b81019080803573ffffffffffffffffffffffffffffffffffffffff169060200190929190505050610556565b60405180826fffffffffffffffffffffffffffffffff19166fffffffffffffffffffffffffffffffff1916815260200191505060405180910390f35b6101d6600480360360208110156101aa57600080fd5b81019080803573ffffffffffffffffffffffffffffffffffffffff1690602001909291905050506105ae565b6040518082815260200191505060405180910390f35b61022e6004803603602081101561020257600080fd5b81019080803573ffffffffffffffffffffffffffffffffffffffff1690602001909291905050506105f9565b60405180827effffffffffffffffffffffffffffffffffffffffffffffffffffffffffffff19167effffffffffffffffffffffffffffffffffffffffffffffffffffffffffffff1916815260200191505060405180910390f35b6102ca6004803603602081101561029e57600080fd5b81019080803573ffffffffffffffffffffffffffffffffffffffff169060200190929190505050610651565b60405180826fffffffffffffffffffffffffffffffff19166fffffffffffffffffffffffffffffffff1916815260200191505060405180910390f35b6103486004803603602081101561031c57600080fd5b81019080803573ffffffffffffffffffffffffffffffffffffffff1690602001909291905050506106a9565b60405180826fffffffffffffffffffffffffffffffff19166fffffffffffffffffffffffffffffffff1916815260200191505060405180910390f35b6103c66004803603602081101561039a57600080fd5b81019080803573ffffffffffffffffffffffffffffffffffffffff169060200190929190505050610701565b60405180826fffffffffffffffffffffffffffffffff19166fffffffffffffffffffffffffffffffff1916815260200191505060405180910390f35b6104446004803603602081101561041857600080fd5b81019080803573ffffffffffffffffffffffffffffffffffffffff169060200190929190505050610759565b60405180826fffffffffffffffffffffffffffffffff19166fffffffffffffffffffffffffffffffff1916815260200191505060405180910390f35b6104c26004803603602081101561049657600080fd5b81019080803573ffffffffffffffffffffffffffffffffffffffff1690602001909291905050506107b1565b60405180826fffffffffffffffffffffffffffffffff19166fffffffffffffffffffffffffffffffff1916815260200191505060405180910390f35b60008060008373ffffffffffffffffffffffffffffffffffffffff1673ffffffffffffffffffffffffffffffffffffffff16815260200190815260200160002060000160109054906101000a900460801b9050919050565b60008060008373ffffffffffffffffffffffffffffffffffffffff1673ffffffffffffffffffffffffffffffffffffffff16815260200190815260200160002060030160009054906101000a900460801b9050919050565b60008060008373ffffffffffffffffffffffffffffffffffffffff1673ffffffffffffffffffffffffffffffffffffffff168152602001908152602001600020600401549050919050565b60008060008373ffffffffffffffffffffffffffffffffffffffff1673ffffffffffffffffffffffffffffffffffffffff16815260200190815260200160002060020160009054906101000a900460f81b9050919050565b60008060008373ffffffffffffffffffffffffffffffffffffffff1673ffffffffffffffffffffffffffffffffffffffff16815260200190815260200160002060000160009054906101000a900460801b9050919050565b60008060008373ffffffffffffffffffffffffffffffffffffffff1673ffffffffffffffffffffffffffffffffffffffff16815260200190815260200160002060010160009054906101000a900460801b9050919050565b60008060008373ffffffffffffffffffffffffffffffffffffffff1673ffffffffffffffffffffffffffffffffffffffff16815260200190815260200160002060020160019054906101000a900460801b9050919050565b60008060008373ffffffffffffffffffffffffffffffffffffffff1673ffffffffffffffffffffffffffffffffffffffff16815260200190815260200160002060010160109054906101000a900460801b9050919050565b60008060008373ffffffffffffffffffffffffffffffffffffffff1673ffffffffffffffffffffffffffffffffffffffff16815260200190815260200160002060030160109054906101000a900460801b905091905056fea265627a7a72315820a2ec5cad208ca1b96eb14e7e2b89606c7eb4493b1c3e40dfd4fe64dd7067647064736f6c63430005100032a265627a7a72315820004a69c4db4cf995eb0bac57e205e02774a496764205498e9384ba9b5c306d2264736f6c63430005100032",
  "source": "pragma solidity >=0.5.16;\nimport \"./PatientFactory.sol\";\n\ncontract PatientIndex {\n    mapping(address => uint) private addressToIndex;\n    mapping(bytes16 => uint) private patientnameToIndex;\n    address[] private addresses;\n    bytes16[] private patientUnames;\n    bytes[] private ipfsHashes;\n\n    function Patients() public returns(bool){\n        addresses.push(msg.sender);\n        patientUnames.push('x');\n        ipfsHashes.push('not-available');\n    }\n\n    function hasPatient(address _patientAdresses) public view returns(bool) {\n        return (addressToIndex[_patientAdresses] > 0 || _patientAdresses == addresses[0]);\n    }\n\n    function patientNameTaken(bytes16 pname) public view returns(bool takenIndeed) {\n            return (patientnameToIndex[pname] > 0 || pname == 'self');\n    }\n\n    function registerPatient(\n      bytes16 patientName,\n      bytes16 _passwd,\n      bytes16 _patName,\n      bytes16 _patSurnm,\n      bytes1 _patSex,\n      bytes16 _patBirth,\n      bytes16 _patPhone,\n      bytes16 _patEmail,\n      bytes32 _patAddress,\n      bytes memory ipfsHash) public returns(bool) {\n        require(!hasPatient(msg.sender),\n                \"Sender not authorized.\");\n        require(!patientNameTaken(patientName),\n                \"Patient name has been taken.\"\n        );\n        addresses.push(msg.sender);\n        patientUnames.push(patientName);\n        new Patient(patientName, _passwd, _patName, _patSurnm, _patSex, _patBirth, _patPhone, _patEmail, _patAddress);\n        ipfsHashes.push(ipfsHash);\n        addressToIndex[msg.sender] = addresses.length - 1;\n        patientnameToIndex[patientName] = addresses.length - 1;\n        return true;\n    }\n\n function updatePatient(bytes memory ipfsHash) public returns(bool){\n    require(!hasPatient(msg.sender),\n            \"Sender not authorized.\");\n    ipfsHashes[addressToIndex[msg.sender]] = ipfsHash;\n    return true;\n }\n\n function getPatientCount() public view returns(uint){\n    return addresses.length;\n }\n\n function getPatientByIndex(uint index) public view returns(address,bytes16,bytes memory){\n    require((index < addresses.length),\n            \"Index out of bound!\");\n    return(addresses[index], patientUnames[index], ipfsHashes[index]);\n }\n\n function getAddressesByIndex(uint index) public view returns(address){\n    require((index < addresses.length),\n            \"Index out of bound!\");\n    return addresses[index];\n }\n\n function getPatientNameByIndex(uint index) public view returns(bytes16){\n    require((index < addresses.length),\n            \"Index out of bound!\");\n    return patientUnames[index];\n }\n\n function getIpfsHashByIndex(uint index) public view returns(bytes memory){\n    require((index < addresses.length),\n            \"Index out of bound!\");\n    return ipfsHashes[index];\n }\n\n function getPatientByAddress(address patientAddress) public view returns(uint, bytes16, bytes memory){\n    require(hasPatient(patientAddress),\n            \"Patient doesn't exist!\");\n    return(addressToIndex[patientAddress], patientUnames[addressToIndex[patientAddress]], ipfsHashes[addressToIndex[patientAddress]]);\n }\n\n function getIndexByAddress(address patientAddress) public view returns(uint){\n    require(hasPatient(patientAddress),\n            \"Patient doesn't exist!\");\n    return addressToIndex[patientAddress];\n }\n\n function getPatientNameByAddress(address patientAddress) public view returns(bytes16){\n    require(hasPatient(patientAddress),\n            \"Patient doesn't exist!\");\n    return patientUnames[addressToIndex[patientAddress]];\n }\n\n function getIpfsHashByAddress(address patientAddress) public view returns(bytes memory){\n    require(hasPatient(patientAddress),\n            \"Patient doesn't exist!\");\n    return ipfsHashes[addressToIndex[patientAddress]];\n }\n\n function getPatientByPatientName(bytes16 patientname) public view returns(uint,address,bytes memory){\n    require((patientnameToIndex[patientname] < addresses.length),\n            \"Patient index out of bound!\");\n    return(patientnameToIndex[patientname], addresses[patientnameToIndex[patientname]], ipfsHashes[patientnameToIndex[patientname]]);\n }\n\n function getIndexByPatientName(bytes16 patientname) public view returns(uint){\n    require((patientNameTaken(patientname)),\n        \"Can't find the patient!\");\n    return patientnameToIndex[patientname];\n }\n\n function getAddressByPatientName(bytes16 patientname) public view returns(address){\n    require((patientNameTaken(patientname)),\n        \"Can't find the patient!\");\n    return addresses[patientnameToIndex[patientname]];\n }\n function getIpfsHashByPatientName(bytes16 patientname) public view returns(bytes memory){\n    require((patientNameTaken(patientname)),\n            \"Can't find the patient!\");\n    return ipfsHashes[patientnameToIndex[patientname]];\n }\n}",
  "sourcePath": "/home/eke/patient-eth/contracts/PatientIndex.sol",
  "compiler": {
    "name": "solc",
    "version": "0.5.16+commit.9c3226ce.Emscripten.clang"
  },
  "schemaVersion": "3.0.23",
  "updatedAt": "2020-04-03T13:31:30.875Z",
  "devdoc": {
    "methods": {}
  },
  "userdoc": {
    "methods": {}
  }
}