{
  "contractName": "PatientContract",
  "abi": [
    {
      "constant": true,
      "inputs": [],
      "name": "patient",
      "outputs": [
        {
          "internalType": "address",
          "name": "",
          "type": "address"
        }
      ],
      "payable": false,
      "stateMutability": "view",
      "type": "function"
    },
    {
      "constant": false,
      "inputs": [
        {
          "internalType": "address",
          "name": "_newPatient",
          "type": "address"
        }
      ],
      "name": "changeOwner",
      "outputs": [],
      "payable": false,
      "stateMutability": "nonpayable",
      "type": "function"
    }
  ],
  "bytecode": "0x6080604052336000806101000a81548173ffffffffffffffffffffffffffffffffffffffff021916908373ffffffffffffffffffffffffffffffffffffffff16021790555034801561005057600080fd5b506102cb806100606000396000f3fe608060405234801561001057600080fd5b50600436106100365760003560e01c8063a6f9dae11461003b578063bd96bd201461007f575b600080fd5b61007d6004803603602081101561005157600080fd5b81019080803573ffffffffffffffffffffffffffffffffffffffff1690602001909291905050506100c9565b005b610087610271565b604051808273ffffffffffffffffffffffffffffffffffffffff1673ffffffffffffffffffffffffffffffffffffffff16815260200191505060405180910390f35b6000809054906101000a900473ffffffffffffffffffffffffffffffffffffffff1673ffffffffffffffffffffffffffffffffffffffff163373ffffffffffffffffffffffffffffffffffffffff161461018b576040517f08c379a00000000000000000000000000000000000000000000000000000000081526004018080602001828103825260128152602001807f446f65736e277420612070617469656e7421000000000000000000000000000081525060200191505060405180910390fd5b600073ffffffffffffffffffffffffffffffffffffffff168173ffffffffffffffffffffffffffffffffffffffff16141561022e576040517f08c379a00000000000000000000000000000000000000000000000000000000081526004018080602001828103825260128152602001807f4e6577206f776e6572206973206e756c6c21000000000000000000000000000081525060200191505060405180910390fd5b806000806101000a81548173ffffffffffffffffffffffffffffffffffffffff021916908373ffffffffffffffffffffffffffffffffffffffff16021790555050565b6000809054906101000a900473ffffffffffffffffffffffffffffffffffffffff168156fea265627a7a72315820b8253add157ed97b3c74e8c7768da3ca6eac4f3ba88aa0f33e4fe2f2afa41f1464736f6c63430005100032",
  "source": "pragma solidity >=0.5.16;\n\ncontract PatientContract {\n  address public patient = msg.sender;\n\n  /// @notice check if the caller is the owner of the contract\n  modifier onlyPatient {\n    if (msg.sender != patient) revert(\"Doesn't a patient!\");\n    _;\n    }\n\n  /// @notice change the owner of the contract\n  /// @param _newPatient the address of the new owner of the contract.\n  function changeOwner(address _newPatient)\n  public\n  onlyPatient\n  {\n    if(_newPatient == address(0x0)) revert(\"New owner is null!\");\n    patient = _newPatient;\n  }\n}",
  "sourcePath": "/home/eke/patient-eth/contracts/PatientContract.sol",
  "compiler": {
    "name": "solc",
    "version": "0.5.16+commit.9c3226ce.Emscripten.clang"
  },
  "schemaVersion": "3.0.23",
  "updatedAt": "2020-04-01T13:40:50.543Z",
  "devdoc": {
    "methods": {
      "changeOwner(address)": {
        "params": {
          "_newPatient": "the address of the new owner of the contract."
        }
      }
    }
  },
  "userdoc": {
    "methods": {
      "changeOwner(address)": {
        "notice": "change the owner of the contract"
      }
    }
  }
}