{
  "contractName": "Patient",
  "abi": [
    {
      "inputs": [
        {
          "internalType": "bytes16",
          "name": "_patientUname",
          "type": "bytes16"
        },
        {
          "internalType": "bytes16",
          "name": "_passwd",
          "type": "bytes16"
        },
        {
          "internalType": "bytes16",
          "name": "_patName",
          "type": "bytes16"
        },
        {
          "internalType": "bytes16",
          "name": "_patSurnm",
          "type": "bytes16"
        },
        {
          "internalType": "bytes1",
          "name": "_patSex",
          "type": "bytes1"
        },
        {
          "internalType": "bytes16",
          "name": "_patBirth",
          "type": "bytes16"
        },
        {
          "internalType": "bytes16",
          "name": "_patPhone",
          "type": "bytes16"
        },
        {
          "internalType": "bytes16",
          "name": "_patEmail",
          "type": "bytes16"
        },
        {
          "internalType": "bytes32",
          "name": "_patAddress",
          "type": "bytes32"
        }
      ],
      "payable": true,
      "stateMutability": "payable",
      "type": "constructor"
    },
    {
      "constant": true,
      "inputs": [
        {
          "internalType": "address",
          "name": "ad",
          "type": "address"
        }
      ],
      "name": "getPatientUserName",
      "outputs": [
        {
          "internalType": "bytes16",
          "name": "",
          "type": "bytes16"
        }
      ],
      "payable": false,
      "stateMutability": "view",
      "type": "function"
    },
    {
      "constant": true,
      "inputs": [
        {
          "internalType": "address",
          "name": "ad",
          "type": "address"
        }
      ],
      "name": "getPassword",
      "outputs": [
        {
          "internalType": "bytes16",
          "name": "",
          "type": "bytes16"
        }
      ],
      "payable": false,
      "stateMutability": "view",
      "type": "function"
    },
    {
      "constant": true,
      "inputs": [
        {
          "internalType": "address",
          "name": "ad",
          "type": "address"
        }
      ],
      "name": "getPatientName",
      "outputs": [
        {
          "internalType": "bytes16",
          "name": "",
          "type": "bytes16"
        }
      ],
      "payable": false,
      "stateMutability": "view",
      "type": "function"
    },
    {
      "constant": true,
      "inputs": [
        {
          "internalType": "address",
          "name": "ad",
          "type": "address"
        }
      ],
      "name": "getPatientSurname",
      "outputs": [
        {
          "internalType": "bytes16",
          "name": "",
          "type": "bytes16"
        }
      ],
      "payable": false,
      "stateMutability": "view",
      "type": "function"
    },
    {
      "constant": true,
      "inputs": [
        {
          "internalType": "address",
          "name": "ad",
          "type": "address"
        }
      ],
      "name": "getPatientSex",
      "outputs": [
        {
          "internalType": "bytes1",
          "name": "",
          "type": "bytes1"
        }
      ],
      "payable": false,
      "stateMutability": "view",
      "type": "function"
    },
    {
      "constant": true,
      "inputs": [
        {
          "internalType": "address",
          "name": "ad",
          "type": "address"
        }
      ],
      "name": "getPatientBirth",
      "outputs": [
        {
          "internalType": "bytes16",
          "name": "",
          "type": "bytes16"
        }
      ],
      "payable": false,
      "stateMutability": "view",
      "type": "function"
    },
    {
      "constant": true,
      "inputs": [
        {
          "internalType": "address",
          "name": "ad",
          "type": "address"
        }
      ],
      "name": "getPatientPhone",
      "outputs": [
        {
          "internalType": "bytes16",
          "name": "",
          "type": "bytes16"
        }
      ],
      "payable": false,
      "stateMutability": "view",
      "type": "function"
    },
    {
      "constant": true,
      "inputs": [
        {
          "internalType": "address",
          "name": "ad",
          "type": "address"
        }
      ],
      "name": "getPatientEmail",
      "outputs": [
        {
          "internalType": "bytes16",
          "name": "",
          "type": "bytes16"
        }
      ],
      "payable": false,
      "stateMutability": "view",
      "type": "function"
    },
    {
      "constant": true,
      "inputs": [
        {
          "internalType": "address",
          "name": "ad",
          "type": "address"
        }
      ],
      "name": "getPatientAddress",
      "outputs": [
        {
          "internalType": "bytes32",
          "name": "",
          "type": "bytes32"
        }
      ],
      "payable": false,
      "stateMutability": "view",
      "type": "function"
    }
  ],
  "bytecode": "0x6080604052604051610b9b380380610b9b833981810160405261012081101561002757600080fd5b81019080805190602001909291908051906020019092919080519060200190929190805190602001909291908051906020019092919080519060200190929190805190602001909291908051906020019092919080519060200190929190505050610090610258565b8981600001906fffffffffffffffffffffffffffffffff191690816fffffffffffffffffffffffffffffffff1916815250508881602001906fffffffffffffffffffffffffffffffff191690816fffffffffffffffffffffffffffffffff1916815250508781604001906fffffffffffffffffffffffffffffffff191690816fffffffffffffffffffffffffffffffff1916815250508681606001906fffffffffffffffffffffffffffffffff191690816fffffffffffffffffffffffffffffffff1916815250508581608001907effffffffffffffffffffffffffffffffffffffffffffffffffffffffffffff191690817effffffffffffffffffffffffffffffffffffffffffffffffffffffffffffff191681525050848160a001906fffffffffffffffffffffffffffffffff191690816fffffffffffffffffffffffffffffffff191681525050838160c001906fffffffffffffffffffffffffffffffff191690816fffffffffffffffffffffffffffffffff191681525050828160e001906fffffffffffffffffffffffffffffffff191690816fffffffffffffffffffffffffffffffff19168152505081816101000181815250505050505050505050505061034e565b60405180610120016040528060006fffffffffffffffffffffffffffffffff1916815260200160006fffffffffffffffffffffffffffffffff1916815260200160006fffffffffffffffffffffffffffffffff1916815260200160006fffffffffffffffffffffffffffffffff1916815260200160007effffffffffffffffffffffffffffffffffffffffffffffffffffffffffffff1916815260200160006fffffffffffffffffffffffffffffffff1916815260200160006fffffffffffffffffffffffffffffffff1916815260200160006fffffffffffffffffffffffffffffffff19168152602001600080191681525090565b61083e8061035d6000396000f3fe608060405234801561001057600080fd5b50600436106100935760003560e01c806384bccdb11161006657806384bccdb114610288578063bd7be49014610306578063c204ebf414610384578063c963b9c314610402578063cc180c341461048057610093565b806308026668146100985780634885ed7014610116578063681fcac3146101945780637ab63eb5146101ec575b600080fd5b6100da600480360360208110156100ae57600080fd5b81019080803573ffffffffffffffffffffffffffffffffffffffff1690602001909291905050506104fe565b60405180826fffffffffffffffffffffffffffffffff19166fffffffffffffffffffffffffffffffff1916815260200191505060405180910390f35b6101586004803603602081101561012c57600080fd5b81019080803573ffffffffffffffffffffffffffffffffffffffff169060200190929190505050610556565b60405180826fffffffffffffffffffffffffffffffff19166fffffffffffffffffffffffffffffffff1916815260200191505060405180910390f35b6101d6600480360360208110156101aa57600080fd5b81019080803573ffffffffffffffffffffffffffffffffffffffff1690602001909291905050506105ae565b6040518082815260200191505060405180910390f35b61022e6004803603602081101561020257600080fd5b81019080803573ffffffffffffffffffffffffffffffffffffffff1690602001909291905050506105f9565b60405180827effffffffffffffffffffffffffffffffffffffffffffffffffffffffffffff19167effffffffffffffffffffffffffffffffffffffffffffffffffffffffffffff1916815260200191505060405180910390f35b6102ca6004803603602081101561029e57600080fd5b81019080803573ffffffffffffffffffffffffffffffffffffffff169060200190929190505050610651565b60405180826fffffffffffffffffffffffffffffffff19166fffffffffffffffffffffffffffffffff1916815260200191505060405180910390f35b6103486004803603602081101561031c57600080fd5b81019080803573ffffffffffffffffffffffffffffffffffffffff1690602001909291905050506106a9565b60405180826fffffffffffffffffffffffffffffffff19166fffffffffffffffffffffffffffffffff1916815260200191505060405180910390f35b6103c66004803603602081101561039a57600080fd5b81019080803573ffffffffffffffffffffffffffffffffffffffff169060200190929190505050610701565b60405180826fffffffffffffffffffffffffffffffff19166fffffffffffffffffffffffffffffffff1916815260200191505060405180910390f35b6104446004803603602081101561041857600080fd5b81019080803573ffffffffffffffffffffffffffffffffffffffff169060200190929190505050610759565b60405180826fffffffffffffffffffffffffffffffff19166fffffffffffffffffffffffffffffffff1916815260200191505060405180910390f35b6104c26004803603602081101561049657600080fd5b81019080803573ffffffffffffffffffffffffffffffffffffffff1690602001909291905050506107b1565b60405180826fffffffffffffffffffffffffffffffff19166fffffffffffffffffffffffffffffffff1916815260200191505060405180910390f35b60008060008373ffffffffffffffffffffffffffffffffffffffff1673ffffffffffffffffffffffffffffffffffffffff16815260200190815260200160002060000160109054906101000a900460801b9050919050565b60008060008373ffffffffffffffffffffffffffffffffffffffff1673ffffffffffffffffffffffffffffffffffffffff16815260200190815260200160002060030160009054906101000a900460801b9050919050565b60008060008373ffffffffffffffffffffffffffffffffffffffff1673ffffffffffffffffffffffffffffffffffffffff168152602001908152602001600020600401549050919050565b60008060008373ffffffffffffffffffffffffffffffffffffffff1673ffffffffffffffffffffffffffffffffffffffff16815260200190815260200160002060020160009054906101000a900460f81b9050919050565b60008060008373ffffffffffffffffffffffffffffffffffffffff1673ffffffffffffffffffffffffffffffffffffffff16815260200190815260200160002060000160009054906101000a900460801b9050919050565b60008060008373ffffffffffffffffffffffffffffffffffffffff1673ffffffffffffffffffffffffffffffffffffffff16815260200190815260200160002060010160009054906101000a900460801b9050919050565b60008060008373ffffffffffffffffffffffffffffffffffffffff1673ffffffffffffffffffffffffffffffffffffffff16815260200190815260200160002060020160019054906101000a900460801b9050919050565b60008060008373ffffffffffffffffffffffffffffffffffffffff1673ffffffffffffffffffffffffffffffffffffffff16815260200190815260200160002060010160109054906101000a900460801b9050919050565b60008060008373ffffffffffffffffffffffffffffffffffffffff1673ffffffffffffffffffffffffffffffffffffffff16815260200190815260200160002060030160109054906101000a900460801b905091905056fea265627a7a72315820a2ec5cad208ca1b96eb14e7e2b89606c7eb4493b1c3e40dfd4fe64dd7067647064736f6c63430005100032",
  "source": "pragma solidity >=0.5.16;\n\ncontract Patient{\n    struct PatientInfo{\n    bytes16 patientUname;\n    bytes16 passwd;\n    bytes16 patName;\n    bytes16 patSurnm;\n    bytes1 patSex;\n    bytes16 patBirth;\n    bytes16 patPhone;\n    bytes16 patEmail;\n    bytes32 patAddress;\n    }\n    mapping(address => PatientInfo) patientinfoaddres;\n\n    constructor(\n        bytes16 _patientUname,\n        bytes16 _passwd,\n        bytes16 _patName,\n        bytes16 _patSurnm,\n        bytes1 _patSex,\n        bytes16 _patBirth,\n        bytes16 _patPhone,\n        bytes16 _patEmail,\n        bytes32 _patAddress) public payable{\n            PatientInfo memory p;\n            p.patientUname = _patientUname;\n            p.passwd = _passwd;\n            p.patName = _patName;\n            p.patSurnm = _patSurnm;\n            p.patSex = _patSex;\n            p.patBirth = _patBirth;\n            p.patPhone = _patPhone;\n            p.patEmail = _patEmail;\n            p.patAddress = _patAddress;\n    }\n\n    function getPatientUserName(address ad) public view returns(bytes16){\n        return patientinfoaddres[ad].patientUname;\n    }\n\n    function getPassword(address ad) public view returns(bytes16){\n        return patientinfoaddres[ad].passwd;\n    }\n\n    function getPatientName(address ad) public view returns(bytes16){\n        return patientinfoaddres[ad].patName;\n    }\n\n    function getPatientSurname(address ad) public view returns(bytes16){\n        return patientinfoaddres[ad].patSurnm;\n    }\n\n    function getPatientSex(address ad) public view returns(bytes1){\n        return patientinfoaddres[ad].patSex;\n    }\n\n    function getPatientBirth(address ad) public view returns(bytes16){\n        return patientinfoaddres[ad].patBirth;\n    }\n\n    function getPatientPhone(address ad) public view returns(bytes16){\n        return patientinfoaddres[ad].patPhone;\n    }\n\n    function getPatientEmail(address ad) public view returns(bytes16){\n        return patientinfoaddres[ad].patEmail;\n    }\n    function getPatientAddress(address ad) public view returns(bytes32){\n        return patientinfoaddres[ad].patAddress;\n    }\n\n\n    // function setPatientUName(address _address, bytes16 _uname) public view returns(bool){\n    //     Patient memory p = patientregistry[_address];\n    //     p.patientUname = _uname;\n    //     return true;\n    // }\n\n    // function setPassword(bytes16 _pass) public pure returns(bool){\n    //     Patient memory p;\n    //     p.passwd = _pass;\n    //     return true;\n    // }\n\n    // function setPatientName(bytes16 _patName) public pure returns(bool){\n    //     Patient memory p;\n    //     p.patName = _patName;\n    //     return true;\n    // }\n\n    // function setPatientSurname(bytes16 _patSurnm) public pure returns(bool){\n    //     Patient memory p;\n    //     p.patSurnm = _patSurnm;\n    //     return true;\n    // }\n\n    // function setPatientSex(bytes1 _patSex) public pure returns(bool){\n    //     Patient memory p;\n    //     p.patSex = _patSex;\n    //     return true;\n    // }\n\n    // function setPatientBirth(bytes16 _patBirth) public pure returns(bool){\n    //     Patient memory p;\n    //     p.patBirth = _patBirth;\n    //     return true;\n    // }\n\n    // function setPatientPhone(bytes16 _patPhone) public pure returns(bool){\n    //     Patient memory p;\n    //     p.patPhone = _patPhone;\n    //     return true;\n    // }\n\n    // function setPatientEmail(bytes16 _patEmail) public pure returns(bool){\n    //     Patient memory p;\n    //     p.patEmail = _patEmail;\n    //     return true;\n    // }\n    // function setPatientAddress(bytes32 _patAddress) public pure returns(bool){\n    //     Patient memory p;\n    //     p.patAddress = _patAddress;\n    //     return true;\n    // }\n}",
  "sourcePath": "/home/eke/patient-eth/contracts/PatientFactory.sol",
  "compiler": {
    "name": "solc",
    "version": "0.5.16+commit.9c3226ce.Emscripten.clang"
  },
  "schemaVersion": "3.0.23",
  "updatedAt": "2020-04-03T13:14:41.604Z",
  "devdoc": {
    "methods": {}
  },
  "userdoc": {
    "methods": {}
  }
}