{
  "contractName": "PatientRegistry",
  "abi": [
    {
      "constant": false,
      "inputs": [
        {
          "internalType": "bytes16",
          "name": "_uname",
          "type": "bytes16"
        },
        {
          "internalType": "bytes16",
          "name": "_passwd",
          "type": "bytes16"
        },
        {
          "internalType": "bytes16",
          "name": "_patName",
          "type": "bytes16"
        },
        {
          "internalType": "bytes16",
          "name": "_patSurnm",
          "type": "bytes16"
        },
        {
          "internalType": "bytes1",
          "name": "_patSex",
          "type": "bytes1"
        },
        {
          "internalType": "bytes16",
          "name": "_patBirth",
          "type": "bytes16"
        },
        {
          "internalType": "bytes16",
          "name": "_patPhone",
          "type": "bytes16"
        },
        {
          "internalType": "bytes16",
          "name": "_patEmail",
          "type": "bytes16"
        },
        {
          "internalType": "bytes32",
          "name": "_patAddress",
          "type": "bytes32"
        },
        {
          "internalType": "address",
          "name": "addr",
          "type": "address"
        },
        {
          "internalType": "uint16",
          "name": "ver",
          "type": "uint16"
        },
        {
          "internalType": "bytes",
          "name": "_ipfsHash",
          "type": "bytes"
        }
      ],
      "name": "registerPatient",
      "outputs": [
        {
          "internalType": "bool",
          "name": "",
          "type": "bool"
        }
      ],
      "payable": false,
      "stateMutability": "nonpayable",
      "type": "function"
    },
    {
      "constant": true,
      "inputs": [
        {
          "internalType": "bytes16",
          "name": "_uname",
          "type": "bytes16"
        }
      ],
      "name": "getPatientDetails",
      "outputs": [
        {
          "internalType": "address",
          "name": "",
          "type": "address"
        },
        {
          "internalType": "uint16",
          "name": "",
          "type": "uint16"
        }
      ],
      "payable": false,
      "stateMutability": "view",
      "type": "function"
    }
  ],
  "bytecode": "0x608060405234801561001057600080fd5b506111be806100206000396000f3fe608060405234801561001057600080fd5b50600436106100365760003560e01c80639859dcb61461003b578063a64e0b1c1461023e575b600080fd5b610224600480360361018081101561005257600080fd5b8101908080356fffffffffffffffffffffffffffffffff1916906020019092919080356fffffffffffffffffffffffffffffffff1916906020019092919080356fffffffffffffffffffffffffffffffff1916906020019092919080356fffffffffffffffffffffffffffffffff1916906020019092919080357effffffffffffffffffffffffffffffffffffffffffffffffffffffffffffff1916906020019092919080356fffffffffffffffffffffffffffffffff1916906020019092919080356fffffffffffffffffffffffffffffffff1916906020019092919080356fffffffffffffffffffffffffffffffff1916906020019092919080359060200190929190803573ffffffffffffffffffffffffffffffffffffffff169060200190929190803561ffff1690602001909291908035906020019064010000000081111561019e57600080fd5b8201836020820111156101b057600080fd5b803590602001918460018302840111640100000000831117156101d257600080fd5b91908080601f016020809104026020016040519081016040528093929190818152602001838380828437600081840152601f19601f8201169050808301925050505050505091929192905050506102ce565b604051808215151515815260200191505060405180910390f35b61027d6004803603602081101561025457600080fd5b8101908080356fffffffffffffffffffffffffffffffff19169060200190929190505050610505565b604051808373ffffffffffffffffffffffffffffffffffffffff1673ffffffffffffffffffffffffffffffffffffffff1681526020018261ffff1661ffff1681526020019250505060405180910390f35b600060018361ffff16101561032e576040517f08c379a000000000000000000000000000000000000000000000000000000000815260040180806020018281038252602a815260200180611160602a913960400191505060405180910390fd5b60008d8d8d8d8d8d8d8d8d604051610345906105b7565b808a6fffffffffffffffffffffffffffffffff19166fffffffffffffffffffffffffffffffff19168152602001896fffffffffffffffffffffffffffffffff19166fffffffffffffffffffffffffffffffff19168152602001886fffffffffffffffffffffffffffffffff19166fffffffffffffffffffffffffffffffff19168152602001876fffffffffffffffffffffffffffffffff19166fffffffffffffffffffffffffffffffff19168152602001867effffffffffffffffffffffffffffffffffffffffffffffffffffffffffffff19167effffffffffffffffffffffffffffffffffffffffffffffffffffffffffffff19168152602001856fffffffffffffffffffffffffffffffff19166fffffffffffffffffffffffffffffffff19168152602001846fffffffffffffffffffffffffffffffff19166fffffffffffffffffffffffffffffffff19168152602001836fffffffffffffffffffffffffffffffff19166fffffffffffffffffffffffffffffffff191681526020018281526020019950505050505050505050604051809103906000f0801580156104f1573d6000803e3d6000fd5b509050509c9b505050505050505050505050565b600080600080846fffffffffffffffffffffffffffffffff19166fffffffffffffffffffffffffffffffff1916815260200190815260200160002060010160009054906101000a900473ffffffffffffffffffffffffffffffffffffffff16600080856fffffffffffffffffffffffffffffffff19166fffffffffffffffffffffffffffffffff1916815260200190815260200160002060030160149054906101000a900461ffff1691509150915091565b610b9b806105c58339019056fe6080604052604051610b9b380380610b9b833981810160405261012081101561002757600080fd5b81019080805190602001909291908051906020019092919080519060200190929190805190602001909291908051906020019092919080519060200190929190805190602001909291908051906020019092919080519060200190929190505050610090610258565b8981600001906fffffffffffffffffffffffffffffffff191690816fffffffffffffffffffffffffffffffff1916815250508881602001906fffffffffffffffffffffffffffffffff191690816fffffffffffffffffffffffffffffffff1916815250508781604001906fffffffffffffffffffffffffffffffff191690816fffffffffffffffffffffffffffffffff1916815250508681606001906fffffffffffffffffffffffffffffffff191690816fffffffffffffffffffffffffffffffff1916815250508581608001907effffffffffffffffffffffffffffffffffffffffffffffffffffffffffffff191690817effffffffffffffffffffffffffffffffffffffffffffffffffffffffffffff191681525050848160a001906fffffffffffffffffffffffffffffffff191690816fffffffffffffffffffffffffffffffff191681525050838160c001906fffffffffffffffffffffffffffffffff191690816fffffffffffffffffffffffffffffffff191681525050828160e001906fffffffffffffffffffffffffffffffff191690816fffffffffffffffffffffffffffffffff19168152505081816101000181815250505050505050505050505061034e565b60405180610120016040528060006fffffffffffffffffffffffffffffffff1916815260200160006fffffffffffffffffffffffffffffffff1916815260200160006fffffffffffffffffffffffffffffffff1916815260200160006fffffffffffffffffffffffffffffffff1916815260200160007effffffffffffffffffffffffffffffffffffffffffffffffffffffffffffff1916815260200160006fffffffffffffffffffffffffffffffff1916815260200160006fffffffffffffffffffffffffffffffff1916815260200160006fffffffffffffffffffffffffffffffff19168152602001600080191681525090565b61083e8061035d6000396000f3fe608060405234801561001057600080fd5b50600436106100935760003560e01c806384bccdb11161006657806384bccdb114610288578063bd7be49014610306578063c204ebf414610384578063c963b9c314610402578063cc180c341461048057610093565b806308026668146100985780634885ed7014610116578063681fcac3146101945780637ab63eb5146101ec575b600080fd5b6100da600480360360208110156100ae57600080fd5b81019080803573ffffffffffffffffffffffffffffffffffffffff1690602001909291905050506104fe565b60405180826fffffffffffffffffffffffffffffffff19166fffffffffffffffffffffffffffffffff1916815260200191505060405180910390f35b6101586004803603602081101561012c57600080fd5b81019080803573ffffffffffffffffffffffffffffffffffffffff169060200190929190505050610556565b60405180826fffffffffffffffffffffffffffffffff19166fffffffffffffffffffffffffffffffff1916815260200191505060405180910390f35b6101d6600480360360208110156101aa57600080fd5b81019080803573ffffffffffffffffffffffffffffffffffffffff1690602001909291905050506105ae565b6040518082815260200191505060405180910390f35b61022e6004803603602081101561020257600080fd5b81019080803573ffffffffffffffffffffffffffffffffffffffff1690602001909291905050506105f9565b60405180827effffffffffffffffffffffffffffffffffffffffffffffffffffffffffffff19167effffffffffffffffffffffffffffffffffffffffffffffffffffffffffffff1916815260200191505060405180910390f35b6102ca6004803603602081101561029e57600080fd5b81019080803573ffffffffffffffffffffffffffffffffffffffff169060200190929190505050610651565b60405180826fffffffffffffffffffffffffffffffff19166fffffffffffffffffffffffffffffffff1916815260200191505060405180910390f35b6103486004803603602081101561031c57600080fd5b81019080803573ffffffffffffffffffffffffffffffffffffffff1690602001909291905050506106a9565b60405180826fffffffffffffffffffffffffffffffff19166fffffffffffffffffffffffffffffffff1916815260200191505060405180910390f35b6103c66004803603602081101561039a57600080fd5b81019080803573ffffffffffffffffffffffffffffffffffffffff169060200190929190505050610701565b60405180826fffffffffffffffffffffffffffffffff19166fffffffffffffffffffffffffffffffff1916815260200191505060405180910390f35b6104446004803603602081101561041857600080fd5b81019080803573ffffffffffffffffffffffffffffffffffffffff169060200190929190505050610759565b60405180826fffffffffffffffffffffffffffffffff19166fffffffffffffffffffffffffffffffff1916815260200191505060405180910390f35b6104c26004803603602081101561049657600080fd5b81019080803573ffffffffffffffffffffffffffffffffffffffff1690602001909291905050506107b1565b60405180826fffffffffffffffffffffffffffffffff19166fffffffffffffffffffffffffffffffff1916815260200191505060405180910390f35b60008060008373ffffffffffffffffffffffffffffffffffffffff1673ffffffffffffffffffffffffffffffffffffffff16815260200190815260200160002060000160109054906101000a900460801b9050919050565b60008060008373ffffffffffffffffffffffffffffffffffffffff1673ffffffffffffffffffffffffffffffffffffffff16815260200190815260200160002060030160009054906101000a900460801b9050919050565b60008060008373ffffffffffffffffffffffffffffffffffffffff1673ffffffffffffffffffffffffffffffffffffffff168152602001908152602001600020600401549050919050565b60008060008373ffffffffffffffffffffffffffffffffffffffff1673ffffffffffffffffffffffffffffffffffffffff16815260200190815260200160002060020160009054906101000a900460f81b9050919050565b60008060008373ffffffffffffffffffffffffffffffffffffffff1673ffffffffffffffffffffffffffffffffffffffff16815260200190815260200160002060000160009054906101000a900460801b9050919050565b60008060008373ffffffffffffffffffffffffffffffffffffffff1673ffffffffffffffffffffffffffffffffffffffff16815260200190815260200160002060010160009054906101000a900460801b9050919050565b60008060008373ffffffffffffffffffffffffffffffffffffffff1673ffffffffffffffffffffffffffffffffffffffff16815260200190815260200160002060020160019054906101000a900460801b9050919050565b60008060008373ffffffffffffffffffffffffffffffffffffffff1673ffffffffffffffffffffffffffffffffffffffff16815260200190815260200160002060010160109054906101000a900460801b9050919050565b60008060008373ffffffffffffffffffffffffffffffffffffffff1673ffffffffffffffffffffffffffffffffffffffff16815260200190815260200160002060030160109054906101000a900460801b905091905056fea265627a7a72315820a2ec5cad208ca1b96eb14e7e2b89606c7eb4493b1c3e40dfd4fe64dd7067647064736f6c6343000510003256657273696f6e20697320657175616c20746f206f6e65206f7220626967676572207468616e206f6e65a265627a7a72315820af5c8ed6dceaca28bd67f6437a7e46d0d9774bb442d91304b124308b1d7c816964736f6c63430005100032",
  "source": "pragma solidity >=0.5.16;\nimport \"./PatientFactory.sol\";\n\ncontract PatientRegistry {\n    struct ContractDetails {\n        address owner;\n        address contractAddress;\n        bytes16 uname;\n        Patient patientinfo;\n        uint16 version;\n        bytes ipfsHash;\n    }\n    mapping(bytes16 => ContractDetails) registry;\n\n    function registerPatient(bytes16 _uname,\n        bytes16 _passwd,\n        bytes16 _patName,\n        bytes16 _patSurnm,\n        bytes1 _patSex,\n        bytes16 _patBirth,\n        bytes16 _patPhone,\n        bytes16 _patEmail,\n        bytes32 _patAddress,\n        address addr,\n        uint16 ver,\n        bytes memory _ipfsHash) public returns (bool) {\n        // versions should start from 1\n        require(ver >= 1, \"Version is equal to one or bigger than one\");\n        Patient _patientinfo = new Patient(_uname, _passwd, _patName, _patSurnm, _patSex, _patBirth, _patPhone, _patEmail, _patAddress);\n        // ContractDetails memory info = registry[_uname];\n        // require(info.owner == msg.sender,\"Owner error\");\n        // // create info if it doesn't exist in the registry\n        // if (info.contractAddress == address(0)) {\n        // info = ContractDetails({\n        //     owner: msg.sender,\n        //     contractAddress: addr,\n        //     uname: _uname,\n        //     patientinfo: _patientinfo,\n        //     version: ver,\n        //     ipfsHash: _ipfsHash\n        //   });\n        // }\n        // else {\n        //     //info.version = ver;\n        //     info.contractAddress = addr;\n        // }\n        // // update record in the registry\n        // registry[_uname] = info;\n        // return true;\n        }\n\n    function getPatientDetails(bytes16 _uname) public view returns(address, uint16) {\n         return (registry[_uname].contractAddress, registry[_uname].version);\n    }\n}",
  "sourcePath": "/home/eke/patient-eth/contracts/PatientRegistry.sol",
  "compiler": {
    "name": "solc",
    "version": "0.5.16+commit.9c3226ce.Emscripten.clang"
  },
  "schemaVersion": "3.0.23",
  "updatedAt": "2020-04-03T13:14:41.608Z",
  "devdoc": {
    "methods": {}
  },
  "userdoc": {
    "methods": {}
  }
}