{
  "contractName": "ReferencedPatient",
  "abi": [
    {
      "constant": false,
      "inputs": [
        {
          "internalType": "bytes16",
          "name": "_uname",
          "type": "bytes16"
        }
      ],
      "name": "setPatientUName",
      "outputs": [
        {
          "internalType": "bool",
          "name": "",
          "type": "bool"
        }
      ],
      "payable": false,
      "stateMutability": "nonpayable",
      "type": "function"
    },
    {
      "constant": false,
      "inputs": [
        {
          "internalType": "bytes16",
          "name": "_pass",
          "type": "bytes16"
        }
      ],
      "name": "setPassword",
      "outputs": [
        {
          "internalType": "bool",
          "name": "",
          "type": "bool"
        }
      ],
      "payable": false,
      "stateMutability": "nonpayable",
      "type": "function"
    },
    {
      "constant": false,
      "inputs": [
        {
          "internalType": "bytes16",
          "name": "_patName",
          "type": "bytes16"
        }
      ],
      "name": "setPatientName",
      "outputs": [
        {
          "internalType": "bool",
          "name": "",
          "type": "bool"
        }
      ],
      "payable": false,
      "stateMutability": "nonpayable",
      "type": "function"
    },
    {
      "constant": false,
      "inputs": [
        {
          "internalType": "bytes16",
          "name": "_patSurnm",
          "type": "bytes16"
        }
      ],
      "name": "setPatientSurname",
      "outputs": [
        {
          "internalType": "bool",
          "name": "",
          "type": "bool"
        }
      ],
      "payable": false,
      "stateMutability": "nonpayable",
      "type": "function"
    },
    {
      "constant": false,
      "inputs": [
        {
          "internalType": "bytes1",
          "name": "_patSex",
          "type": "bytes1"
        }
      ],
      "name": "setPatientSex",
      "outputs": [
        {
          "internalType": "bool",
          "name": "",
          "type": "bool"
        }
      ],
      "payable": false,
      "stateMutability": "nonpayable",
      "type": "function"
    },
    {
      "constant": false,
      "inputs": [
        {
          "internalType": "bytes16",
          "name": "_patBirth",
          "type": "bytes16"
        }
      ],
      "name": "setPatientBirth",
      "outputs": [
        {
          "internalType": "bool",
          "name": "",
          "type": "bool"
        }
      ],
      "payable": false,
      "stateMutability": "nonpayable",
      "type": "function"
    },
    {
      "constant": false,
      "inputs": [
        {
          "internalType": "bytes16",
          "name": "_patPhone",
          "type": "bytes16"
        }
      ],
      "name": "setPatientPhone",
      "outputs": [
        {
          "internalType": "bool",
          "name": "",
          "type": "bool"
        }
      ],
      "payable": false,
      "stateMutability": "nonpayable",
      "type": "function"
    },
    {
      "constant": true,
      "inputs": [],
      "name": "getPatientUserName",
      "outputs": [
        {
          "internalType": "bytes16",
          "name": "",
          "type": "bytes16"
        }
      ],
      "payable": false,
      "stateMutability": "view",
      "type": "function"
    },
    {
      "constant": true,
      "inputs": [],
      "name": "getPassword",
      "outputs": [
        {
          "internalType": "bytes16",
          "name": "",
          "type": "bytes16"
        }
      ],
      "payable": false,
      "stateMutability": "view",
      "type": "function"
    },
    {
      "constant": true,
      "inputs": [],
      "name": "getPatientName",
      "outputs": [
        {
          "internalType": "bytes16",
          "name": "",
          "type": "bytes16"
        }
      ],
      "payable": false,
      "stateMutability": "view",
      "type": "function"
    },
    {
      "constant": true,
      "inputs": [],
      "name": "getPatientSurname",
      "outputs": [
        {
          "internalType": "bytes16",
          "name": "",
          "type": "bytes16"
        }
      ],
      "payable": false,
      "stateMutability": "view",
      "type": "function"
    },
    {
      "constant": true,
      "inputs": [],
      "name": "getPatientSex",
      "outputs": [
        {
          "internalType": "bytes1",
          "name": "",
          "type": "bytes1"
        }
      ],
      "payable": false,
      "stateMutability": "view",
      "type": "function"
    },
    {
      "constant": true,
      "inputs": [],
      "name": "getPatientBirth",
      "outputs": [
        {
          "internalType": "bytes16",
          "name": "",
          "type": "bytes16"
        }
      ],
      "payable": false,
      "stateMutability": "view",
      "type": "function"
    },
    {
      "constant": true,
      "inputs": [],
      "name": "getPatientPhone",
      "outputs": [
        {
          "internalType": "bytes16",
          "name": "",
          "type": "bytes16"
        }
      ],
      "payable": false,
      "stateMutability": "view",
      "type": "function"
    },
    {
      "constant": false,
      "inputs": [
        {
          "internalType": "bytes16",
          "name": "_patEmail",
          "type": "bytes16"
        }
      ],
      "name": "setPatientEmail",
      "outputs": [
        {
          "internalType": "bool",
          "name": "",
          "type": "bool"
        }
      ],
      "payable": false,
      "stateMutability": "nonpayable",
      "type": "function"
    },
    {
      "constant": true,
      "inputs": [],
      "name": "setPatientEmail",
      "outputs": [
        {
          "internalType": "bytes16",
          "name": "",
          "type": "bytes16"
        }
      ],
      "payable": false,
      "stateMutability": "view",
      "type": "function"
    },
    {
      "constant": false,
      "inputs": [
        {
          "internalType": "bytes32",
          "name": "_patAddress",
          "type": "bytes32"
        }
      ],
      "name": "setPatientAddress",
      "outputs": [
        {
          "internalType": "bool",
          "name": "",
          "type": "bool"
        }
      ],
      "payable": false,
      "stateMutability": "nonpayable",
      "type": "function"
    },
    {
      "constant": true,
      "inputs": [],
      "name": "setPatientAddress",
      "outputs": [
        {
          "internalType": "bytes32",
          "name": "",
          "type": "bytes32"
        }
      ],
      "payable": false,
      "stateMutability": "view",
      "type": "function"
    }
  ],
  "bytecode": "0x608060405234801561001057600080fd5b50610961806100206000396000f3fe608060405234801561001057600080fd5b50600436106101165760003560e01c8063889c78f0116100a2578063ab8b043e11610071578063ab8b043e14610516578063cc8e23941461055a578063d2d105ff1461059e578063df1cb4fc146105f7578063e08188a51461065057610116565b8063889c78f0146103ed5780638d71e05614610446578063958e33411461049f5780639ed1ea3a146104f857610116565b806350018060116100e9578063500180601461026457806355b3d5a8146102c657806364b7efd51461031f5780637048e3ec14610363578063870be7dd146103a957610116565b8063033d8e191461011b57806326e7f33d1461015f5780632b4e5147146101c75780632bd2f7851461020b575b600080fd5b610123610694565b60405180826fffffffffffffffffffffffffffffffff19166fffffffffffffffffffffffffffffffff1916815260200191505060405180910390f35b6101ad6004803603602081101561017557600080fd5b8101908080357effffffffffffffffffffffffffffffffffffffffffffffffffffffffffffff191690602001909291905050506106ad565b604051808215151515815260200191505060405180910390f35b6101cf6106d6565b60405180826fffffffffffffffffffffffffffffffff19166fffffffffffffffffffffffffffffffff1916815260200191505060405180910390f35b61024a6004803603602081101561022157600080fd5b8101908080356fffffffffffffffffffffffffffffffff191690602001909291905050506106ef565b604051808215151515815260200191505060405180910390f35b61026c610726565b60405180827effffffffffffffffffffffffffffffffffffffffffffffffffffffffffffff19167effffffffffffffffffffffffffffffffffffffffffffffffffffffffffffff1916815260200191505060405180910390f35b610305600480360360208110156102dc57600080fd5b8101908080356fffffffffffffffffffffffffffffffff1916906020019092919050505061073f565b604051808215151515815260200191505060405180910390f35b610327610776565b60405180826fffffffffffffffffffffffffffffffff19166fffffffffffffffffffffffffffffffff1916815260200191505060405180910390f35b61038f6004803603602081101561037957600080fd5b810190808035906020019092919050505061078f565b604051808215151515815260200191505060405180910390f35b6103b16107a4565b60405180826fffffffffffffffffffffffffffffffff19166fffffffffffffffffffffffffffffffff1916815260200191505060405180910390f35b61042c6004803603602081101561040357600080fd5b8101908080356fffffffffffffffffffffffffffffffff191690602001909291905050506107bd565b604051808215151515815260200191505060405180910390f35b6104856004803603602081101561045c57600080fd5b8101908080356fffffffffffffffffffffffffffffffff191690602001909291905050506107f5565b604051808215151515815260200191505060405180910390f35b6104de600480360360208110156104b557600080fd5b8101908080356fffffffffffffffffffffffffffffffff1916906020019092919050505061082d565b604051808215151515815260200191505060405180910390f35b610500610865565b6040518082815260200191505060405180910390f35b61051e610871565b60405180826fffffffffffffffffffffffffffffffff19166fffffffffffffffffffffffffffffffff1916815260200191505060405180910390f35b61056261088a565b60405180826fffffffffffffffffffffffffffffffff19166fffffffffffffffffffffffffffffffff1916815260200191505060405180910390f35b6105dd600480360360208110156105b457600080fd5b8101908080356fffffffffffffffffffffffffffffffff191690602001909291905050506108a3565b604051808215151515815260200191505060405180910390f35b6106366004803603602081101561060d57600080fd5b8101908080356fffffffffffffffffffffffffffffffff191690602001909291905050506108db565b604051808215151515815260200191505060405180910390f35b610658610913565b60405180826fffffffffffffffffffffffffffffffff19166fffffffffffffffffffffffffffffffff1916815260200191505060405180910390f35b60008060000160009054906101000a900460801b905090565b600081600060020160006101000a81548160ff021916908360f81c021790555060019050919050565b60008060010160109054906101000a900460801b905090565b6000816000800160006101000a8154816fffffffffffffffffffffffffffffffff021916908360801c021790555060019050919050565b60008060020160009054906101000a900460f81b905090565b6000816000800160106101000a8154816fffffffffffffffffffffffffffffffff021916908360801c021790555060019050919050565b60008060020160019054906101000a900460801b905090565b60008160006004018190555060019050919050565b60008060010160009054906101000a900460801b905090565b600081600060010160106101000a8154816fffffffffffffffffffffffffffffffff021916908360801c021790555060019050919050565b600081600060020160016101000a8154816fffffffffffffffffffffffffffffffff021916908360801c021790555060019050919050565b600081600060030160106101000a8154816fffffffffffffffffffffffffffffffff021916908360801c021790555060019050919050565b60008060040154905090565b60008060030160109054906101000a900460801b905090565b60008060000160109054906101000a900460801b905090565b600081600060030160006101000a8154816fffffffffffffffffffffffffffffffff021916908360801c021790555060019050919050565b600081600060010160006101000a8154816fffffffffffffffffffffffffffffffff021916908360801c021790555060019050919050565b60008060030160009054906101000a900460801b90509056fea265627a7a72315820107e06f002d65ebacc1c428c4cbb5ed08c6274f454ab914c78f6652a9534ac0f64736f6c63430005100032",
  "source": "pragma solidity >=0.5.16;\n\ncontract ReferencedPatient{\n    struct Patient{\n        bytes16 patientUname;\n        bytes16 passwd;\n        bytes16 patName;\n        bytes16 patSurnm;\n        bytes1 patSex;\n        bytes16 patBirth;\n        bytes16 patPhone;\n        bytes16 patEmail;\n        bytes32 patAddress;\n    }\n    Patient p;\n\n    function setPatientUName(bytes16 _uname) public returns(bool){\n        p.patientUname = _uname;\n        return true;\n    }\n\n    function setPassword(bytes16 _pass) public returns(bool){\n        p.passwd = _pass;\n        return true;\n    }\n\n    function setPatientName(bytes16 _patName) public returns(bool){\n        p.patName = _patName;\n        return true;\n    }\n\n    function setPatientSurname(bytes16 _patSurnm) public returns(bool){\n        p.patSurnm = _patSurnm;\n        return true;\n    }\n\n    function setPatientSex(bytes1 _patSex) public returns(bool){\n        p.patSex = _patSex;\n        return true;\n    }\n\n    function setPatientBirth(bytes16 _patBirth) public returns(bool){\n        p.patBirth = _patBirth;\n        return true;\n    }\n\n    function setPatientPhone(bytes16 _patPhone) public returns(bool){\n        p.patPhone = _patPhone;\n        return true;\n    }\n\n    function setPatientEmail(bytes16 _patEmail) public returns(bool){\n        p.patEmail = _patEmail;\n        return true;\n    }\n    function setPatientAddress(bytes32 _patAddress) public returns(bool){\n        p.patAddress = _patAddress;\n        return true;\n    }\n\n    function getPatientUserName() public view returns(bytes16){\n        return p.patientUname;\n    }\n\n    function getPassword() public view returns(bytes16){\n        return p.passwd;\n    }\n\n    function getPatientName() public view returns(bytes16){\n        return p.patName;\n    }\n\n    function getPatientSurname() public view returns(bytes16){\n        return p.patSurnm;\n    }\n\n    function getPatientSex() public view returns(bytes1){\n        return p.patSex;\n    }\n\n    function getPatientBirth() public view returns(bytes16){\n        return p.patBirth;\n    }\n\n    function getPatientPhone() public view returns(bytes16){\n        return p.patPhone;\n    }\n\n    function setPatientEmail() public view returns(bytes16){\n        return p.patEmail;\n    }\n    function setPatientAddress() public view returns(bytes32){\n        return p.patAddress;\n    }\n}",
  "sourcePath": "/home/eke/patient-eth/contracts/ReferencedPatient.sol",
  "compiler": {
    "name": "solc",
    "version": "0.5.16+commit.9c3226ce.Emscripten.clang"
  },
  "schemaVersion": "3.0.23",
  "updatedAt": "2020-04-01T13:40:50.564Z",
  "devdoc": {
    "methods": {}
  },
  "userdoc": {
    "methods": {}
  }
}