{
  "contractName": "ReferencingPatient",
  "abi": [
    {
      "constant": false,
      "inputs": [
        {
          "internalType": "address",
          "name": "_newPatient",
          "type": "address"
        }
      ],
      "name": "changeOwner",
      "outputs": [],
      "payable": false,
      "stateMutability": "nonpayable",
      "type": "function"
    },
    {
      "constant": true,
      "inputs": [],
      "name": "patient",
      "outputs": [
        {
          "internalType": "address",
          "name": "",
          "type": "address"
        }
      ],
      "payable": false,
      "stateMutability": "view",
      "type": "function"
    },
    {
      "constant": true,
      "inputs": [],
      "name": "getRef",
      "outputs": [
        {
          "internalType": "address",
          "name": "",
          "type": "address"
        }
      ],
      "payable": false,
      "stateMutability": "view",
      "type": "function"
    },
    {
      "constant": false,
      "inputs": [
        {
          "internalType": "address",
          "name": "newRef",
          "type": "address"
        }
      ],
      "name": "changeRef",
      "outputs": [],
      "payable": false,
      "stateMutability": "nonpayable",
      "type": "function"
    }
  ],
  "bytecode": "0x6080604052336000806101000a81548173ffffffffffffffffffffffffffffffffffffffff021916908373ffffffffffffffffffffffffffffffffffffffff16021790555034801561005057600080fd5b5061049f806100606000396000f3fe608060405234801561001057600080fd5b506004361061004c5760003560e01c80631d6d32ba14610051578063a6f9dae11461009b578063bd96bd20146100df578063d3fa99e914610129575b600080fd5b61005961016d565b604051808273ffffffffffffffffffffffffffffffffffffffff1673ffffffffffffffffffffffffffffffffffffffff16815260200191505060405180910390f35b6100dd600480360360208110156100b157600080fd5b81019080803573ffffffffffffffffffffffffffffffffffffffff169060200190929190505050610197565b005b6100e761033f565b604051808273ffffffffffffffffffffffffffffffffffffffff1673ffffffffffffffffffffffffffffffffffffffff16815260200191505060405180910390f35b61016b6004803603602081101561013f57600080fd5b81019080803573ffffffffffffffffffffffffffffffffffffffff169060200190929190505050610364565b005b6000600160009054906101000a900473ffffffffffffffffffffffffffffffffffffffff16905090565b6000809054906101000a900473ffffffffffffffffffffffffffffffffffffffff1673ffffffffffffffffffffffffffffffffffffffff163373ffffffffffffffffffffffffffffffffffffffff1614610259576040517f08c379a00000000000000000000000000000000000000000000000000000000081526004018080602001828103825260128152602001807f446f65736e277420612070617469656e7421000000000000000000000000000081525060200191505060405180910390fd5b600073ffffffffffffffffffffffffffffffffffffffff168173ffffffffffffffffffffffffffffffffffffffff1614156102fc576040517f08c379a00000000000000000000000000000000000000000000000000000000081526004018080602001828103825260128152602001807f4e6577206f776e6572206973206e756c6c21000000000000000000000000000081525060200191505060405180910390fd5b806000806101000a81548173ffffffffffffffffffffffffffffffffffffffff021916908373ffffffffffffffffffffffffffffffffffffffff16021790555050565b6000809054906101000a900473ffffffffffffffffffffffffffffffffffffffff1681565b6000809054906101000a900473ffffffffffffffffffffffffffffffffffffffff1673ffffffffffffffffffffffffffffffffffffffff163373ffffffffffffffffffffffffffffffffffffffff1614610426576040517f08c379a00000000000000000000000000000000000000000000000000000000081526004018080602001828103825260128152602001807f446f65736e277420612070617469656e7421000000000000000000000000000081525060200191505060405180910390fd5b80600160006101000a81548173ffffffffffffffffffffffffffffffffffffffff021916908373ffffffffffffffffffffffffffffffffffffffff1602179055505056fea265627a7a723158207acf08a258cebe25b48e1d803072efed9ab59fecd2ee58e2db52c164578b676f64736f6c63430005100032",
  "source": "pragma solidity >=0.5.16;\nimport \"./PatientContract.sol\";\n\n\ncontract ReferencingPatient is PatientContract {\n    address  referenced;\n\n\n    function getRef() public view  returns(address){\n        return referenced;\n    }\n\n//we implement a little security to allow only contract owner to change ref\n// for better security chek  openZeppelin ownable pattern.\n    function changeRef(address newRef)  public onlyPatient{\n        referenced = newRef;\n    }\n}",
  "sourcePath": "/home/eke/patient-eth/contracts/ReferencingPatient.sol",
  "compiler": {
    "name": "solc",
    "version": "0.5.16+commit.9c3226ce.Emscripten.clang"
  },
  "schemaVersion": "3.0.23",
  "updatedAt": "2020-04-01T13:40:50.571Z",
  "devdoc": {
    "methods": {
      "changeOwner(address)": {
        "params": {
          "_newPatient": "the address of the new owner of the contract."
        }
      }
    }
  },
  "userdoc": {
    "methods": {
      "changeOwner(address)": {
        "notice": "change the owner of the contract"
      }
    }
  }
}