{
  "contractName": "UsingReferencePatient",
  "abi": [
    {
      "inputs": [
        {
          "internalType": "address",
          "name": "ref",
          "type": "address"
        }
      ],
      "payable": false,
      "stateMutability": "nonpayable",
      "type": "constructor"
    },
    {
      "constant": false,
      "inputs": [
        {
          "internalType": "bytes16",
          "name": "patientUname",
          "type": "bytes16"
        }
      ],
      "name": "saveName",
      "outputs": [],
      "payable": false,
      "stateMutability": "nonpayable",
      "type": "function"
    },
    {
      "constant": true,
      "inputs": [],
      "name": "GetUserName",
      "outputs": [
        {
          "internalType": "bytes16",
          "name": "",
          "type": "bytes16"
        }
      ],
      "payable": false,
      "stateMutability": "view",
      "type": "function"
    }
  ],
  "bytecode": "0x608060405234801561001057600080fd5b506040516104223803806104228339818101604052602081101561003357600080fd5b8101908080519060200190929190505050806000806101000a81548173ffffffffffffffffffffffffffffffffffffffff021916908373ffffffffffffffffffffffffffffffffffffffff1602179055505061038e806100946000396000f3fe608060405234801561001057600080fd5b50600436106100365760003560e01c806309213ed11461003b578063f2da01e21461007c575b600080fd5b61007a6004803603602081101561005157600080fd5b8101908080356fffffffffffffffffffffffffffffffff191690602001909291905050506100c0565b005b610084610225565b60405180826fffffffffffffffffffffffffffffffff19166fffffffffffffffffffffffffffffffff1916815260200191505060405180910390f35b60008060009054906101000a900473ffffffffffffffffffffffffffffffffffffffff1673ffffffffffffffffffffffffffffffffffffffff16631d6d32ba6040518163ffffffff1660e01b815260040160206040518083038186803b15801561012957600080fd5b505afa15801561013d573d6000803e3d6000fd5b505050506040513d602081101561015357600080fd5b8101908080519060200190929190505050905060008190508073ffffffffffffffffffffffffffffffffffffffff16632bd2f785846040518263ffffffff1660e01b815260040180826fffffffffffffffffffffffffffffffff19166fffffffffffffffffffffffffffffffff19168152602001915050602060405180830381600087803b1580156101e457600080fd5b505af11580156101f8573d6000803e3d6000fd5b505050506040513d602081101561020e57600080fd5b810190808051906020019092919050505050505050565b6000806000809054906101000a900473ffffffffffffffffffffffffffffffffffffffff1673ffffffffffffffffffffffffffffffffffffffff16631d6d32ba6040518163ffffffff1660e01b815260040160206040518083038186803b15801561028f57600080fd5b505afa1580156102a3573d6000803e3d6000fd5b505050506040513d60208110156102b957600080fd5b8101908080519060200190929190505050905060008190508073ffffffffffffffffffffffffffffffffffffffff1663033d8e196040518163ffffffff1660e01b815260040160206040518083038186803b15801561031757600080fd5b505afa15801561032b573d6000803e3d6000fd5b505050506040513d602081101561034157600080fd5b8101908080519060200190929190505050925050509056fea265627a7a72315820a1cde5d1f65e4867f0ffea35037a0c564e79d3d2833a0bf1e354778fab3f3fdc64736f6c63430005100032",
  "source": "pragma solidity >=0.5.16;\n\nimport \"./ReferencedPatient.sol\";\nimport \"./ReferencingPatient.sol\";\n\ncontract UsingReferencePatient {\n    ReferencingPatient referencing;\n    constructor(address ref) public {\n        referencing = ReferencingPatient(ref);\n    }\n    function saveName(\n        bytes16 patientUname) public {\n            address ret = referencing.getRef();\n            ReferencedPatient referenced = ReferencedPatient(ret);\n            referenced.setPatientUName(patientUname);\n        }\n    function GetUserName() public view returns(bytes16){\n            address ret = referencing.getRef();\n            ReferencedPatient referenced = ReferencedPatient(ret);\n            return referenced.getPatientUserName();\n    }\n\n}",
  "sourcePath": "/home/eke/patient-eth/contracts/UsingReferencePatient.sol",
  "compiler": {
    "name": "solc",
    "version": "0.5.16+commit.9c3226ce.Emscripten.clang"
  },
  "schemaVersion": "3.0.23",
  "updatedAt": "2020-04-01T13:40:50.574Z",
  "devdoc": {
    "methods": {}
  },
  "userdoc": {
    "methods": {}
  }
}